{
  "contractName": "BikeShare",
  "abi": [
    {
      "inputs": [
        {
          "internalType": "address",
          "name": "_lender",
          "type": "address"
        },
        {
          "internalType": "address",
          "name": "_W2Rtoken",
          "type": "address"
        },
        {
          "internalType": "address",
          "name": "_renterNFT",
          "type": "address"
        },
        {
          "internalType": "address",
          "name": "_whitelistLender",
          "type": "address"
        },
        {
          "internalType": "address",
          "name": "_vaultW2R",
          "type": "address"
        },
        {
          "internalType": "address",
          "name": "_whitelistRenter",
          "type": "address"
        }
      ],
      "stateMutability": "nonpayable",
      "type": "constructor"
    },
    {
      "anonymous": false,
      "inputs": [
        {
          "indexed": true,
          "internalType": "address",
          "name": "renter",
          "type": "address"
        },
        {
          "indexed": false,
          "internalType": "uint256",
          "name": "rentalTime",
          "type": "uint256"
        },
        {
          "indexed": false,
          "internalType": "uint256",
          "name": "rentalDate",
          "type": "uint256"
        },
        {
          "indexed": false,
          "internalType": "uint256",
          "name": "rate",
          "type": "uint256"
        },
        {
          "indexed": false,
          "internalType": "uint256",
          "name": "deposit",
          "type": "uint256"
        },
        {
          "indexed": false,
          "internalType": "uint256",
          "name": "rentalPrice",
          "type": "uint256"
        }
      ],
      "name": "BikeRented",
      "type": "event"
    },
    {
      "anonymous": false,
      "inputs": [
        {
          "indexed": false,
          "internalType": "uint256",
          "name": "rentalDate",
          "type": "uint256"
        },
        {
          "indexed": true,
          "internalType": "address",
          "name": "renter",
          "type": "address"
        },
        {
          "indexed": false,
          "internalType": "uint256",
          "name": "depositReturned",
          "type": "uint256"
        },
        {
          "indexed": false,
          "internalType": "uint256",
          "name": "returnDate",
          "type": "uint256"
        },
        {
          "indexed": true,
          "internalType": "address",
          "name": "lender",
          "type": "address"
        },
        {
          "indexed": false,
          "internalType": "string",
          "name": "latitude",
          "type": "string"
        },
        {
          "indexed": false,
          "internalType": "string",
          "name": "longitude",
          "type": "string"
        }
      ],
      "name": "BikeReturned",
      "type": "event"
    },
    {
      "anonymous": false,
      "inputs": [
        {
          "indexed": true,
          "internalType": "address",
          "name": "renter",
          "type": "address"
        },
        {
          "indexed": false,
          "internalType": "uint256",
          "name": "date",
          "type": "uint256"
        },
        {
          "indexed": true,
          "internalType": "address",
          "name": "lender",
          "type": "address"
        },
        {
          "indexed": false,
          "internalType": "string",
          "name": "latitude",
          "type": "string"
        },
        {
          "indexed": false,
          "internalType": "string",
          "name": "longitude",
          "type": "string"
        }
      ],
      "name": "BikeTaken",
      "type": "event"
    },
    {
      "anonymous": false,
      "inputs": [
        {
          "indexed": true,
          "internalType": "address",
          "name": "_owner",
          "type": "address"
        },
        {
          "indexed": false,
          "internalType": "uint256",
          "name": "_date",
          "type": "uint256"
        },
        {
          "indexed": true,
          "internalType": "address",
          "name": "_contractAddress",
          "type": "address"
        }
      ],
      "name": "ContractActivated",
      "type": "event"
    },
    {
      "anonymous": false,
      "inputs": [
        {
          "indexed": true,
          "internalType": "address",
          "name": "_owner",
          "type": "address"
        },
        {
          "indexed": false,
          "internalType": "uint256",
          "name": "_date",
          "type": "uint256"
        },
        {
          "indexed": true,
          "internalType": "address",
          "name": "_contractAddress",
          "type": "address"
        }
      ],
      "name": "ContractDestroyed",
      "type": "event"
    },
    {
      "anonymous": false,
      "inputs": [
        {
          "indexed": true,
          "internalType": "address",
          "name": "_owner",
          "type": "address"
        },
        {
          "indexed": false,
          "internalType": "uint256",
          "name": "_date",
          "type": "uint256"
        },
        {
          "indexed": false,
          "internalType": "string",
          "name": "_latitude",
          "type": "string"
        },
        {
          "indexed": false,
          "internalType": "string",
          "name": "_longitude",
          "type": "string"
        },
        {
          "indexed": true,
          "internalType": "address",
          "name": "_contractAddress",
          "type": "address"
        }
      ],
      "name": "GPSupdated",
      "type": "event"
    },
    {
      "anonymous": false,
      "inputs": [
        {
          "indexed": true,
          "internalType": "address",
          "name": "renter",
          "type": "address"
        },
        {
          "indexed": false,
          "internalType": "uint256",
          "name": "date",
          "type": "uint256"
        },
        {
          "indexed": true,
          "internalType": "address",
          "name": "lender",
          "type": "address"
        }
      ],
      "name": "ProposalCancelled",
      "type": "event"
    },
    {
      "anonymous": false,
      "inputs": [
        {
          "indexed": true,
          "internalType": "address",
          "name": "renter",
          "type": "address"
        },
        {
          "indexed": false,
          "internalType": "uint256",
          "name": "date",
          "type": "uint256"
        },
        {
          "indexed": true,
          "internalType": "address",
          "name": "lender",
          "type": "address"
        },
        {
          "indexed": false,
          "internalType": "uint256",
          "name": "rentalDateMin",
          "type": "uint256"
        },
        {
          "indexed": false,
          "internalType": "uint256",
          "name": "rentalDateMax",
          "type": "uint256"
        },
        {
          "indexed": false,
          "internalType": "uint256",
          "name": "rentalTime",
          "type": "uint256"
        },
        {
          "indexed": false,
          "internalType": "uint256",
          "name": "rate",
          "type": "uint256"
        },
        {
          "indexed": false,
          "internalType": "uint256",
          "name": "depositAmount",
          "type": "uint256"
        },
        {
          "indexed": false,
          "internalType": "string",
          "name": "latitude",
          "type": "string"
        },
        {
          "indexed": false,
          "internalType": "string",
          "name": "longitude",
          "type": "string"
        }
      ],
      "name": "ProposalReceived",
      "type": "event"
    },
    {
      "anonymous": false,
      "inputs": [
        {
          "indexed": true,
          "internalType": "address",
          "name": "renter",
          "type": "address"
        },
        {
          "indexed": false,
          "internalType": "uint256",
          "name": "date",
          "type": "uint256"
        },
        {
          "indexed": true,
          "internalType": "address",
          "name": "lender",
          "type": "address"
        }
      ],
      "name": "RentalSeemsReturned",
      "type": "event"
    },
    {
      "anonymous": false,
      "inputs": [
        {
          "indexed": true,
          "internalType": "address",
          "name": "renter",
          "type": "address"
        },
        {
          "indexed": false,
          "internalType": "uint256",
          "name": "date",
          "type": "uint256"
        },
        {
          "indexed": false,
          "internalType": "uint256",
          "name": "depositReturned",
          "type": "uint256"
        },
        {
          "indexed": false,
          "internalType": "uint256",
          "name": "returnDate",
          "type": "uint256"
        },
        {
          "indexed": true,
          "internalType": "address",
          "name": "lender",
          "type": "address"
        }
      ],
      "name": "RentingCancelled",
      "type": "event"
    },
    {
      "anonymous": false,
      "inputs": [
        {
          "indexed": true,
          "internalType": "address",
          "name": "_owner",
          "type": "address"
        },
        {
          "indexed": false,
          "internalType": "uint256",
          "name": "_amount",
          "type": "uint256"
        },
        {
          "indexed": false,
          "internalType": "uint256",
          "name": "_date",
          "type": "uint256"
        },
        {
          "indexed": true,
          "internalType": "address",
          "name": "_contractAddress",
          "type": "address"
        }
      ],
      "name": "W2Rdeposited",
      "type": "event"
    },
    {
      "anonymous": false,
      "inputs": [
        {
          "indexed": true,
          "internalType": "address",
          "name": "_owner",
          "type": "address"
        },
        {
          "indexed": false,
          "internalType": "uint256",
          "name": "_amount",
          "type": "uint256"
        },
        {
          "indexed": false,
          "internalType": "uint256",
          "name": "_date",
          "type": "uint256"
        },
        {
          "indexed": true,
          "internalType": "address",
          "name": "_contractAddress",
          "type": "address"
        }
      ],
      "name": "W2Rwithdrawed",
      "type": "event"
    },
    {
      "inputs": [],
      "name": "W2R",
      "outputs": [
        {
          "internalType": "contract IERC20",
          "name": "",
          "type": "address"
        }
      ],
      "stateMutability": "view",
      "type": "function"
    },
    {
      "inputs": [
        {
          "internalType": "string",
          "name": "_latitude",
          "type": "string"
        },
        {
          "internalType": "string",
          "name": "_longitude",
          "type": "string"
        }
      ],
      "name": "activate",
      "outputs": [],
      "stateMutability": "nonpayable",
      "type": "function"
    },
    {
      "inputs": [],
      "name": "currentRenter",
      "outputs": [
        {
          "internalType": "address",
          "name": "",
          "type": "address"
        }
      ],
      "stateMutability": "view",
      "type": "function"
    },
    {
      "inputs": [],
      "name": "depositAmount",
      "outputs": [
        {
          "internalType": "uint256",
          "name": "",
          "type": "uint256"
        }
      ],
      "stateMutability": "view",
      "type": "function"
    },
    {
      "inputs": [
        {
          "internalType": "uint256",
          "name": "_amount",
          "type": "uint256"
        }
      ],
      "name": "depositW2R",
      "outputs": [],
      "stateMutability": "nonpayable",
      "type": "function"
    },
    {
      "inputs": [],
      "name": "getTotalRewards",
      "outputs": [
        {
          "internalType": "uint256",
          "name": "",
          "type": "uint256"
        }
      ],
      "stateMutability": "view",
      "type": "function"
    },
    {
      "inputs": [
        {
          "internalType": "address",
          "name": "",
          "type": "address"
        }
      ],
      "name": "gpsData",
      "outputs": [
        {
          "internalType": "string",
          "name": "latitude",
          "type": "string"
        },
        {
          "internalType": "string",
          "name": "longitude",
          "type": "string"
        }
      ],
      "stateMutability": "view",
      "type": "function"
    },
    {
      "inputs": [],
      "name": "isDeactivated",
      "outputs": [
        {
          "internalType": "bool",
          "name": "",
          "type": "bool"
        }
      ],
      "stateMutability": "view",
      "type": "function"
    },
    {
      "inputs": [],
      "name": "isRented",
      "outputs": [
        {
          "internalType": "bool",
          "name": "",
          "type": "bool"
        }
      ],
      "stateMutability": "view",
      "type": "function"
    },
    {
      "inputs": [],
      "name": "maximumRental",
      "outputs": [
        {
          "internalType": "uint256",
          "name": "",
          "type": "uint256"
        }
      ],
      "stateMutability": "view",
      "type": "function"
    },
    {
      "inputs": [],
      "name": "minimalRental",
      "outputs": [
        {
          "internalType": "uint256",
          "name": "",
          "type": "uint256"
        }
      ],
      "stateMutability": "view",
      "type": "function"
    },
    {
      "inputs": [],
      "name": "owner",
      "outputs": [
        {
          "internalType": "address",
          "name": "",
          "type": "address"
        }
      ],
      "stateMutability": "view",
      "type": "function"
    },
    {
      "inputs": [],
      "name": "proposalDuration",
      "outputs": [
        {
          "internalType": "uint256",
          "name": "",
          "type": "uint256"
        }
      ],
      "stateMutability": "view",
      "type": "function"
    },
    {
      "inputs": [
        {
          "internalType": "uint256",
          "name": "",
          "type": "uint256"
        }
      ],
      "name": "proposals",
      "outputs": [
        {
          "internalType": "uint256",
          "name": "date",
          "type": "uint256"
        },
        {
          "internalType": "address",
          "name": "_renter",
          "type": "address"
        },
        {
          "internalType": "uint256",
          "name": "_rentalDateMin",
          "type": "uint256"
        },
        {
          "internalType": "uint256",
          "name": "_rentalDateMax",
          "type": "uint256"
        },
        {
          "internalType": "uint256",
          "name": "_rentalTime",
          "type": "uint256"
        },
        {
          "internalType": "uint256",
          "name": "_rate",
          "type": "uint256"
        },
        {
          "internalType": "uint256",
          "name": "_depositAmount",
          "type": "uint256"
        },
        {
          "internalType": "bool",
          "name": "_isAccepted",
          "type": "bool"
        }
      ],
      "stateMutability": "view",
      "type": "function"
    },
    {
      "inputs": [],
      "name": "rate",
      "outputs": [
        {
          "internalType": "uint256",
          "name": "",
          "type": "uint256"
        }
      ],
      "stateMutability": "view",
      "type": "function"
    },
    {
      "inputs": [
        {
          "internalType": "address",
          "name": "",
          "type": "address"
        }
      ],
      "name": "rentalGPSData",
      "outputs": [
        {
          "internalType": "string",
          "name": "latitude",
          "type": "string"
        },
        {
          "internalType": "string",
          "name": "longitude",
          "type": "string"
        }
      ],
      "stateMutability": "view",
      "type": "function"
    },
    {
      "inputs": [
        {
          "internalType": "address",
          "name": "",
          "type": "address"
        },
        {
          "internalType": "uint256",
          "name": "",
          "type": "uint256"
        }
      ],
      "name": "rentals",
      "outputs": [
        {
          "internalType": "uint256",
          "name": "date",
          "type": "uint256"
        },
        {
          "internalType": "uint256",
          "name": "rentalTime",
          "type": "uint256"
        },
        {
          "internalType": "uint256",
          "name": "rentalPrice",
          "type": "uint256"
        },
        {
          "internalType": "uint256",
          "name": "depositAmount",
          "type": "uint256"
        },
        {
          "internalType": "uint256",
          "name": "rewardExpected",
          "type": "uint256"
        },
        {
          "internalType": "uint256",
          "name": "amountAsked",
          "type": "uint256"
        },
        {
          "internalType": "bool",
          "name": "isAccepted",
          "type": "bool"
        },
        {
          "internalType": "bool",
          "name": "isRefunded",
          "type": "bool"
        },
        {
          "internalType": "bool",
          "name": "seemsReturned",
          "type": "bool"
        },
        {
          "internalType": "bool",
          "name": "cantCancel",
          "type": "bool"
        },
        {
          "internalType": "bool",
          "name": "isReturned",
          "type": "bool"
        }
      ],
      "stateMutability": "view",
      "type": "function"
    },
    {
      "inputs": [],
      "name": "rewardAmount",
      "outputs": [
        {
          "internalType": "uint256",
          "name": "",
          "type": "uint256"
        }
      ],
      "stateMutability": "view",
      "type": "function"
    },
    {
      "inputs": [
        {
          "internalType": "string",
          "name": "_latitude",
          "type": "string"
        },
        {
          "internalType": "string",
          "name": "_longitude",
          "type": "string"
        }
      ],
      "name": "setGPS",
      "outputs": [],
      "stateMutability": "nonpayable",
      "type": "function"
    },
    {
      "inputs": [],
      "name": "totalRentals",
      "outputs": [
        {
          "internalType": "uint256",
          "name": "",
          "type": "uint256"
        }
      ],
      "stateMutability": "view",
      "type": "function"
    },
    {
      "inputs": [
        {
          "internalType": "uint256",
          "name": "_rate",
          "type": "uint256"
        }
      ],
      "name": "setRate",
      "outputs": [],
      "stateMutability": "nonpayable",
      "type": "function"
    },
    {
      "inputs": [
        {
          "internalType": "uint256",
          "name": "_depositAmount",
          "type": "uint256"
        }
      ],
      "name": "setDepositAmount",
      "outputs": [],
      "stateMutability": "nonpayable",
      "type": "function"
    },
    {
      "inputs": [
        {
          "internalType": "uint256",
          "name": "_maximumRental",
          "type": "uint256"
        }
      ],
      "name": "setMaximumRental",
      "outputs": [],
      "stateMutability": "nonpayable",
      "type": "function"
    },
    {
      "inputs": [
        {
          "internalType": "address",
          "name": "renter",
          "type": "address"
        }
      ],
      "name": "getRentalsByAdresses",
      "outputs": [
        {
          "internalType": "uint256",
          "name": "",
          "type": "uint256"
        }
      ],
      "stateMutability": "view",
      "type": "function"
    },
    {
      "inputs": [
        {
          "internalType": "address",
          "name": "_bikeRentOwner",
          "type": "address"
        },
        {
          "internalType": "uint256",
          "name": "_dateMin",
          "type": "uint256"
        },
        {
          "internalType": "uint256",
          "name": "_dateMax",
          "type": "uint256"
        },
        {
          "internalType": "uint256",
          "name": "_rentalTime",
          "type": "uint256"
        },
        {
          "internalType": "uint256",
          "name": "_rate",
          "type": "uint256"
        },
        {
          "internalType": "uint256",
          "name": "_depositAmount",
          "type": "uint256"
        },
        {
          "internalType": "uint256",
          "name": "date",
          "type": "uint256"
        },
        {
          "internalType": "string",
          "name": "_latitude",
          "type": "string"
        },
        {
          "internalType": "string",
          "name": "_longitude",
          "type": "string"
        }
      ],
      "name": "setProposal",
      "outputs": [],
      "stateMutability": "nonpayable",
      "type": "function"
    },
    {
      "inputs": [],
      "name": "getProposalsLength",
      "outputs": [
        {
          "internalType": "uint256",
          "name": "",
          "type": "uint256"
        }
      ],
      "stateMutability": "view",
      "type": "function"
    },
    {
      "inputs": [
        {
          "internalType": "address",
          "name": "renter",
          "type": "address"
        }
      ],
      "name": "getRentalsLength",
      "outputs": [
        {
          "internalType": "uint256",
          "name": "",
          "type": "uint256"
        }
      ],
      "stateMutability": "view",
      "type": "function"
    },
    {
      "inputs": [
        {
          "internalType": "address",
          "name": "_bikeRent",
          "type": "address"
        },
        {
          "internalType": "uint256",
          "name": "_meetingHour",
          "type": "uint256"
        },
        {
          "internalType": "string",
          "name": "_latitude",
          "type": "string"
        },
        {
          "internalType": "string",
          "name": "_longitude",
          "type": "string"
        }
      ],
      "name": "acceptProposal",
      "outputs": [],
      "stateMutability": "nonpayable",
      "type": "function"
    },
    {
      "inputs": [
        {
          "internalType": "address",
          "name": "_bikerent",
          "type": "address"
        }
      ],
      "name": "cancelProposal",
      "outputs": [],
      "stateMutability": "nonpayable",
      "type": "function"
    },
    {
      "inputs": [],
      "name": "confirmBikeTaken",
      "outputs": [],
      "stateMutability": "nonpayable",
      "type": "function"
    },
    {
      "inputs": [
        {
          "internalType": "address",
          "name": "_bikeRentOwner",
          "type": "address"
        }
      ],
      "name": "returnedBike",
      "outputs": [],
      "stateMutability": "nonpayable",
      "type": "function"
    },
    {
      "inputs": [],
      "name": "confirmBikeReturned",
      "outputs": [],
      "stateMutability": "nonpayable",
      "type": "function"
    },
    {
      "inputs": [],
      "name": "cancelLending",
      "outputs": [],
      "stateMutability": "nonpayable",
      "type": "function"
    },
    {
      "inputs": [
        {
          "internalType": "address",
          "name": "_bikeRentOwner",
          "type": "address"
        }
      ],
      "name": "cancelledRenting",
      "outputs": [],
      "stateMutability": "nonpayable",
      "type": "function"
    },
    {
      "inputs": [
        {
          "internalType": "uint256",
          "name": "_amount",
          "type": "uint256"
        }
      ],
      "name": "withdrawFunds",
      "outputs": [],
      "stateMutability": "nonpayable",
      "type": "function"
    },
    {
      "inputs": [],
      "name": "destroy",
      "outputs": [
        {
          "internalType": "bool",
          "name": "",
          "type": "bool"
        }
      ],
      "stateMutability": "nonpayable",
      "type": "function"
    }
  ],
  "bytecode": "0x6080604052600a6005556202a300600655620151806007553480156200002457600080fd5b5060405162004821380380620048218339810160408190526200004791620001d2565b85856001600160a01b0382166200005d57600080fd5b6001600160a01b0381166200007157600080fd5b60038054600480546001600160a01b0319166001600160a01b03948516179055600160a01b9383166001600160a81b031990911617929092179091558416620000b957600080fd5b336001600160a01b03841614620001165760405162461bcd60e51b815260206004820152601d60248201527f4f6e6c79207468652077686974656c6973742063616e206465706c6f79000000604482015260640160405180910390fd5b6001600160a01b0382166200012a57600080fd5b6001600160a01b0381166200013e57600080fd5b600b80546001600160a01b039586166001600160a01b031991821617909155600a8054948616948216949094179093556012805492851692841692909217909155600c8054919093169116179055505062015180600f5568056bc75e2d63100000600d55680ad78ebc5ac6200000600e5562000253565b80516001600160a01b0381168114620001cd57600080fd5b919050565b60008060008060008060c08789031215620001ec57600080fd5b620001f787620001b5565b95506200020760208801620001b5565b94506200021760408801620001b5565b93506200022760608801620001b5565b92506200023760808801620001b5565b91506200024760a08801620001b5565b90509295509295509295565b6145be80620002636000396000f3fe608060405234801561001057600080fd5b506004361061021c5760003560e01c806383197ef011610125578063bf0058d0116100ad578063d771642a1161007c578063d771642a146104fa578063dd4b22d114610503578063e19f3aee1461050c578063e627f2db1461051f578063f7b2a7be1461052757600080fd5b8063bf0058d0146104b9578063c520e74a146104cc578063c95dee79146104df578063cdaa4192146104f257600080fd5b8063af8df99d116100f4578063af8df99d1461048d578063b11f62ca146104a0578063b465c3c014610387578063b8f58f72146104a8578063bc378a73146104b157600080fd5b806383197ef0146104525780638da5cb5b1461045a5780638f0360721461046d578063a63049521461048057600080fd5b80633e146417116101a85780636d8cee56116101775780636d8cee56146103ed5780636dcf811d146104005780637525b922146104245780638046c8ac1461043757806381c39a7d1461044a57600080fd5b80633e14641714610387578063419759f5146103b057806358b2d207146103b957806366035390146103cc57600080fd5b8063242f17a9116101ef578063242f17a9146103165780632c4e722e14610341578063301099621461035857806334fcf437146103615780633bafdcbc1461037457600080fd5b8063013cf08b14610221578063090fc58b1461027e5780630c6986b3146102ee578063155dd5ee14610303575b600080fd5b61023461022f366004613bcc565b610530565b604080519889526001600160a01b039097166020890152958701949094526060860192909252608085015260a084015260c0830152151560e0820152610100015b60405180910390f35b61029161028c366004613bfd565b610593565b604080519b8c5260208c019a909a52988a01979097526060890195909552608088019390935260a0870191909152151560c0860152151560e085015215156101008401521515610120830152151561014082015261016001610275565b6103016102fc366004613c29565b610618565b005b610301610311366004613bcc565b6108de565b601754610329906001600160a01b031681565b6040516001600160a01b039091168152602001610275565b61034a600d5481565b604051908152602001610275565b61034a60065481565b61030161036f366004613bcc565b610b05565b610301610382366004613c96565b610b41565b61034a610395366004613c29565b6001600160a01b031660009081526016602052604090205490565b61034a600e5481565b6103016103c7366004613bcc565b6111a8565b6103df6103da366004613c29565b611220565b604051610275929190613d72565b6103016103fb366004613bcc565b61134c565b60035461041490600160a01b900460ff1681565b6040519015158152602001610275565b610301610432366004613da0565b6113e2565b610301610445366004613bcc565b6119a1565b610301611ba4565b610414611e39565b600354610329906001600160a01b031681565b600454610329906001600160a01b031681565b6010546104149060ff1681565b61030161049b366004613c29565b612140565b6103016122b3565b61034a600f5481565b60115461034a565b6103016104c7366004613e65565b61272f565b6103df6104da366004613c29565b612857565b6103016104ed366004613e65565b612872565b610301612998565b61034a60075481565b61034a60005481565b61030161051a366004613c29565b612ab9565b61034a612e93565b61034a60055481565b6011818154811061054057600080fd5b6000918252602090912060089091020180546001820154600283015460038401546004850154600586015460068701546007909701549597506001600160a01b0390941695929491939092909160ff1688565b601660205281600052604060002081815481106105af57600080fd5b600091825260209091206007909102018054600182015460028301546003840154600485015460058601546006909601549497509295509093909260ff80821691610100810482169162010000820481169163010000008104821691640100000000909104168b565b600354600160a01b900460ff161561064b5760405162461bcd60e51b815260040161064290613ed1565b60405180910390fd5b600b546040516370a0823160e01b81526001600160a01b03808416600483015283926000929116906370a0823190602401602060405180830381865afa158015610699573d6000803e3d6000fd5b505050506040513d601f19601f820116820180604052508101906106bd9190613eff565b116106da5760405162461bcd60e51b815260040161064290613f18565b600c54601480546001600160a01b0319166001600160a01b0392831690811790915560405162d9267b60e31b81529183166004830152906306c933d890602401606060405180830381865afa158015610737573d6000803e3d6000fd5b505050506040513d601f19601f8201168201806040525081019061075b9190613f63565b516107785760405162461bcd60e51b815260040161064290613fcc565b60145460405162d9267b60e31b81526001600160a01b038381166004830152339216906306c933d890602401606060405180830381865afa1580156107c1573d6000803e3d6000fd5b505050506040513d601f19601f820116820180604052508101906107e59190613f63565b602001516001600160a01b03161461080f5760405162461bcd60e51b815260040161064290613fcc565b60105460ff166108315760405162461bcd60e51b815260040161064290613ff5565b6017546001600160a01b03166108595760405162461bcd60e51b815260040161064290614019565b6017546001600160a01b03166000908152601560205260408120805461087e9061403c565b90501180156108b457506017546001600160a01b0316600090815260156020526040812060010180546108b09061403c565b9050115b6108d05760405162461bcd60e51b815260040161064290614076565b6108da6001612ef1565b5050565b600354600160a01b900460ff16156109085760405162461bcd60e51b815260040161064290613ed1565b6003546001600160a01b031633146109325760405162461bcd60e51b81526004016106429061409b565b6000811161097b5760405162461bcd60e51b815260206004820152601660248201527504d7573742062652067726561746572207468616e20360541b6044820152606401610642565b600480546040516370a0823160e01b815230928101929092526000916001600160a01b03909116906370a0823190602401602060405180830381865afa1580156109c9573d6000803e3d6000fd5b505050506040513d601f19601f820116820180604052508101906109ed9190613eff565b60105490915060009060ff168015610a0f57506017546001600160a01b031615155b15610a61576017546001600160a01b031660009081526016602052604090208054610a3c906001906140d5565b81548110610a4c57610a4c6140ee565b90600052602060002090600702016003015490505b82610a6c82846140d5565b11610aa65760405162461bcd60e51b815260206004820152600a60248201526909cdee840cadcdeeaced60b31b6044820152606401610642565b600354600454610ac3916001600160a01b03918216911685613256565b60408051848152426020820152309133917fb933d9f5921d73b25377b9ffc45ea2914238b8379c2098a3178e766cb8f326d491015b60405180910390a3505050565b6003546001600160a01b03163314610b2f5760405162461bcd60e51b81526004016106429061409b565b60008111610b3c57600080fd5b600d55565b600354600160a01b900460ff1615610b6b5760405162461bcd60e51b815260040161064290613ed1565b6003546001600160a01b03163314610b955760405162461bcd60e51b81526004016106429061409b565b60105460ff1615610bd95760405162461bcd60e51b815260206004820152600e60248201526d105b1c9958591e481c995b9d195960921b6044820152606401610642565b60008511610be657600080fd5b6001600160a01b038616610bf957600080fd5b601154610c375760405162461bcd60e51b815260206004820152600c60248201526b4e6f2070726f706f73616c7360a01b6044820152606401610642565b8215801590610c4557508015155b610c615760405162461bcd60e51b815260040161064290614076565b60008080805b60115483101561108757896001600160a01b031660118481548110610c8e57610c8e6140ee565b60009182526020909120600160089092020101546001600160a01b03160361107557600060118481548110610cc557610cc56140ee565b60009182526020808320604080516101008101825260089094029091018054845260018101546001600160a01b03169284019290925260028201549083015260038101546060830152600481015460808301819052600582015460a08401819052600683015460c085015260079092015460ff16151560e084015291935090610d5290620151809061411a565b610d5c919061412e565b606083015160808401516020850151601380546001600160a01b0319166001600160a01b0390921691909117905560c08501519196509450909150610da19082614145565b6004805460208501516040516370a0823160e01b81526001600160a01b039182169381019390935216906370a0823190602401602060405180830381865afa158015610df1573d6000803e3d6000fd5b505050506040513d601f19601f82011682018060405250810190610e159190613eff565b1015610e545760405162461bcd60e51b815260206004820152600e60248201526d2737ba1032b737bab3b4102b992960911b6044820152606401610642565b60008b9050610e6e81846020015186858760c001516132b9565b60135460035460c08501516040516303a437c560e51b81526001600160a01b0392831660048201526024810186905260448101919091526064810187905260848101849052911690637486f8a09060a401600060405180830381600087803b158015610ed957600080fd5b505af1158015610eed573d6000803e3d6000fd5b5050600160e086018190526010805460ff191690911790555050602080840151601780546001600160a01b0319166001600160a01b0390921691909117905560408051601f8d018390049092028201606090810182529082018c815282918e908e9081908501838280828437600092019190915250505090825250604080516020601f8d018190048102820181019092528b815291810191908c908c908190840183828082843760009201829052509390945250506017546001600160a01b0316815260156020526040902082519091508190610fca90826141a6565b5060208201516001820190610fdf90826141a6565b505060008054915080610ff183614266565b919050555082602001516001600160a01b03167f5b9d750bc091c053cf6d861d7a8c4708db4a61c03df21830c1e604ff82c3c467858e8660a001518760c0015187604051611061959493929190948552602085019390935260408401919091526060830152608082015260a00190565b60405180910390a260019650505050611087565b8261107f81614266565b935050610c67565b836110c05760405162461bcd60e51b81526020600482015260096024820152681b9bdd08199bdd5b9960ba1b6044820152606401610642565b60115483101561113057601754601180546001600160a01b0390921691859081106110ed576110ed6140ee565b60009182526020909120600160089092020101546001600160a01b03160361111e57611118836134d5565b50611130565b8261112881614266565b9350506110c0565b60005b60115481101561119b5783811415801561117957506111528284614145565b60118281548110611165576111656140ee565b906000526020600020906008020160000154105b1561118957611187816134d5565b505b8061119381614266565b915050611133565b5050505050505050505050565b600354600160a01b900460ff16156111d25760405162461bcd60e51b815260040161064290613ed1565b6003546001600160a01b031633146111fc5760405162461bcd60e51b81526004016106429061409b565b620151808110158015611212575062093a808111155b61121b57600080fd5b600f55565b60156020526000908152604090208054819061123b9061403c565b80601f01602080910402602001604051908101604052809291908181526020018280546112679061403c565b80156112b45780601f10611289576101008083540402835291602001916112b4565b820191906000526020600020905b81548152906001019060200180831161129757829003601f168201915b5050505050908060010180546112c99061403c565b80601f01602080910402602001604051908101604052809291908181526020018280546112f59061403c565b80156113425780601f1061131757610100808354040283529160200191611342565b820191906000526020600020905b81548152906001019060200180831161132557829003601f168201915b5050505050905082565b600354600160a01b900460ff16156113765760405162461bcd60e51b815260040161064290613ed1565b6003546001600160a01b031633146113a05760405162461bcd60e51b81526004016106429061409b565b600081116113dd5760405162461bcd60e51b815260206004820152600a60248201526904d757374206e6f7420360b41b6044820152606401610642565b600e55565b600354600160a01b900460ff161561140c5760405162461bcd60e51b815260040161064290613ed1565b600b546040516370a0823160e01b81526001600160a01b03808e1660048301528d926000929116906370a0823190602401602060405180830381865afa15801561145a573d6000803e3d6000fd5b505050506040513d601f19601f8201168201806040525081019061147e9190613eff565b1161149b5760405162461bcd60e51b815260040161064290613f18565b600c54601480546001600160a01b0319166001600160a01b0392831690811790915560405162d9267b60e31b81529183166004830152906306c933d890602401606060405180830381865afa1580156114f8573d6000803e3d6000fd5b505050506040513d601f19601f8201168201806040525081019061151c9190613f63565b516115395760405162461bcd60e51b815260040161064290613fcc565b60145460405162d9267b60e31b81526001600160a01b038381166004830152339216906306c933d890602401606060405180830381865afa158015611582573d6000803e3d6000fd5b505050506040513d601f19601f820116820180604052508101906115a69190613f63565b602001516001600160a01b0316146115d05760405162461bcd60e51b815260040161064290613fcc565b6115d86136c0565b6116125760405162461bcd60e51b815260206004820152600b60248201526a1b9bdd0819195b195d195960aa1b6044820152606401610642565b60005b6011548110156116ab57336001600160a01b03166011828154811061163c5761163c6140ee565b60009182526020909120600160089092020101546001600160a01b0316036116995760405162461bcd60e51b815260206004820152601060248201526f105b1c9958591e481c1c9bdc1bdcd95960821b6044820152606401610642565b806116a381614266565b915050611615565b50601154600510156116ea5760405162461bcd60e51b8152602060048201526008602482015267546f6f206d616e7960c01b6044820152606401610642565b6116f7620151808a61427f565b1580156117075750620151808910155b6117455760405162461bcd60e51b815260206004820152600f60248201526e4261642072656e74616c2074696d6560881b6044820152606401610642565b61175142611c20614145565b8b11801561176a575061a8c06117678c8c6140d5565b11155b6117a25760405162461bcd60e51b815260206004820152600960248201526842616420646174657360b81b6044820152606401610642565b60075489101580156117b65750600f548911155b6117ee5760405162461bcd60e51b8152602060048201526009602482015268151bdbc81cda1bdc9d60ba1b6044820152606401610642565b600088116117fb57600080fd5b6000600e541161180a57600080fd5b831580159061181857508115155b6118345760405162461bcd60e51b815260040161064290614076565b6000604051806101000160405280888152602001336001600160a01b031681526020018d81526020018c81526020018b81526020018a815260200189815260200160001515815250905060118190806001815401808255809150506001900390600052602060002090600802016000909190919091506000820151816000015560208201518160010160006101000a8154816001600160a01b0302191690836001600160a01b0316021790555060408201518160020155606082015181600301556080820151816004015560a0820151816005015560c0820151816006015560e08201518160070160006101000a81548160ff0219169083151502179055505050306001600160a01b0316336001600160a01b03167fa525a3c742fc5bd56efc0e8bb27f6fb6037555aa4b86113bb39e7929b18d14e3898f8f8f8f8f8e8e8e8e60405161198a9a999897969594939291906142bc565b60405180910390a350505050505050505050505050565b600354600160a01b900460ff16156119cb5760405162461bcd60e51b815260040161064290613ed1565b60048054604051636eb1769f60e11b81523392810192909252306024830152829182916001600160a01b03169063dd62ed3e90604401602060405180830381865afa158015611a1e573d6000803e3d6000fd5b505050506040513d601f19601f82011682018060405250810190611a429190613eff565b1015611a805760405162461bcd60e51b815260206004820152600d60248201526c1399595908185c1c1c9bdd985b609a1b6044820152606401610642565b60008211611abd5760405162461bcd60e51b815260206004820152600a60248201526910985908185b5bdd5b9d60b21b6044820152606401610642565b600480546040516370a0823160e01b8152339281019290925283916001600160a01b03909116906370a0823190602401602060405180830381865afa158015611b0a573d6000803e3d6000fd5b505050506040513d601f19601f82011682018060405250810190611b2e9190613eff565b1015611b4c5760405162461bcd60e51b81526004016106429061431b565b600454611b64906001600160a01b031633308561392c565b60408051838152426020820152309133917f224b1db9c133c01e120ca7551e3b56fec93a1f208e1c0509c23361a560a61026910160405180910390a35050565b600354600160a01b900460ff1615611bce5760405162461bcd60e51b815260040161064290613ed1565b6003546001600160a01b03163314611bf85760405162461bcd60e51b81526004016106429061409b565b60105460ff16611c1a5760405162461bcd60e51b815260040161064290613ff5565b6017546001600160a01b0316611c425760405162461bcd60e51b815260040161064290614019565b6017546001600160a01b031660009081526015602052604081208054611c679061403c565b9050118015611c9d57506017546001600160a01b031660009081526015602052604081206001018054611c999061403c565b9050115b611cb95760405162461bcd60e51b815260040161064290614076565b6017546001600160a01b031660009081526016602052604081208054611ce1906001906140d5565b81548110611cf157611cf16140ee565b6000918252602090912060079091020160068101549091506301000000900460ff1615611d505760405162461bcd60e51b815260206004820152600d60248201526c30b63932b0b23c903a30b5b2b760991b6044820152606401610642565b60068101805463ff00000019166301000000179055601754601380546001600160a01b0319166001600160a01b03928316908117909155600354604051631708536360e11b81529216600483015290632e10a6c690602401600060405180830381600087803b158015611dc257600080fd5b505af1158015611dd6573d6000803e3d6000fd5b50506017546001600160a01b03166000818152601560205260409081902090513094509192507f58441e06988866f5582b245c6d5073b65d386d56d2d7f2ee714ae642aba451bf91611e2e91429160018201906143c2565b60405180910390a350565b600a546000906001600160a01b03163314611e8f5760405162461bcd60e51b815260206004820152601660248201527513db9b1e481dda1a5d195b1a5cdd10dbdb9d1c9858dd60521b6044820152606401610642565b60105460ff168015611eab57506017546001600160a01b031615155b15611fdf576017546001600160a01b031660009081526016602052604081208054611ed8906001906140d5565b81548110611ee857611ee86140ee565b600091825260209182902060408051610160810182526007909302909101805480845260018201549484018590526002820154928401929092526003810154606084015260048101546080840152600581015460a08401526006015460ff808216151560c08501526101008083048216151560e086015262010000830482161515908501526301000000820481161515610120850152640100000000909104161515610140830152909250611f9d9190614145565b4211611fdd5760405162461bcd60e51b815260206004820152600f60248201526e2932b73a30b6103737ba1037bb32b960891b6044820152606401610642565b505b6003805460ff60a01b1916600160a01b1790556008805460ff19166001179055600480546040516370a0823160e01b815230928101929092526000916001600160a01b03909116906370a0823190602401602060405180830381865afa15801561204d573d6000803e3d6000fd5b505050506040513d601f19601f820116820180604052508101906120719190613eff565b111561210357600354600480546040516370a0823160e01b81523092810192909252612103926001600160a01b03908116929116906370a0823190602401602060405180830381865afa1580156120cc573d6000803e3d6000fd5b505050506040513d601f19601f820116820180604052508101906120f09190613eff565b6004546001600160a01b03169190613256565b604051428152309033907f05bec130a67bc2853b0a7f5cfe8590b473fcc3342360d8933fb7064b1ebf8b6d9060200160405180910390a350600190565b600354600160a01b900460ff161561216a5760405162461bcd60e51b815260040161064290613ed1565b6003546001600160a01b031633146121945760405162461bcd60e51b81526004016106429061409b565b6001600160a01b0381166121a757600080fd5b6011546121e55760405162461bcd60e51b815260206004820152600c60248201526b4e6f2070726f706f73616c7360a01b6044820152606401610642565b60005b6011548110156108da57816001600160a01b03166011828154811061220f5761220f6140ee565b60009182526020909120600160089092020101546001600160a01b0316036122a15760118181548110612244576122446140ee565b600091825260209091206007600890920201015460ff16156122935760405162461bcd60e51b81526020600482015260086024820152671858d8d95c1d195960c21b6044820152606401610642565b61229c816134d5565b505050565b806122ab81614266565b9150506121e8565b600354600160a01b900460ff16156122dd5760405162461bcd60e51b815260040161064290613ed1565b6003546001600160a01b031633146123075760405162461bcd60e51b81526004016106429061409b565b60105460ff166123295760405162461bcd60e51b815260040161064290613ff5565b6017546001600160a01b03166123515760405162461bcd60e51b815260040161064290614019565b6017546001600160a01b0316600090815260156020526040812080546123769061403c565b90501180156123ac57506017546001600160a01b0316600090815260156020526040812060010180546123a89061403c565b9050115b6123c85760405162461bcd60e51b815260040161064290614076565b6017546001600160a01b0316600090815260166020526040812080546123f0906001906140d5565b81548110612400576124006140ee565b906000526020600020906007020190508060060160029054906101000a900460ff161515600115151461246a5760405162461bcd60e51b815260206004820152601260248201527114d9595b5cc81b9bdd081c995d1d5c9b995960721b6044820152606401610642565b6006810154640100000000900460ff16156124ba5760405162461bcd60e51b815260206004820152601060248201526f105b1c9958591e481c995d1d5c9b995960821b6044820152606401610642565b6003810154600480546040516370a0823160e01b8152309281019290925282916001600160a01b03909116906370a0823190602401602060405180830381865afa15801561250c573d6000803e3d6000fd5b505050506040513d601f19601f820116820180604052508101906125309190613eff565b101561254e5760405162461bcd60e51b81526004016106429061431b565b601754601380546001600160a01b0319166001600160a01b039283169081179091556003546040516320d32a3d60e21b8152921660048301529063834ca8f490602401600060405180830381600087803b1580156125ab57600080fd5b505af11580156125bf573d6000803e3d6000fd5b50505060068301805464ff0000000019166401000000001790555060048201546017546001600160a01b031660009081526001602052604081208054839290612609908490614145565b9250508190555080600260008282546126229190614145565b90915550506010805460ff19169055601780546001600160a01b031981169091556004546001600160a01b039182169161265e91168285613256565b60125460405163255d23d760e11b8152306004820152602481018490526001600160a01b0390911690634aba47ae90604401600060405180830381600087803b1580156126aa57600080fd5b505af11580156126be573d6000803e3d6000fd5b505085546017546001600160a01b0390811660009081526015602052604090819020905130955091861693507fd1f1a30283b7ed6d050782e027445c7aa39a1666d996d3e3bf09ec20ac74800b92612721929091899142919060018201906143f7565b60405180910390a350505050565b6003546001600160a01b031633146127595760405162461bcd60e51b81526004016106429061409b565b600354600160a01b900460ff168015612775575060085460ff16155b6127ba5760405162461bcd60e51b81526020600482015260166024820152751058dd1a5d985d1959081bdc8819195cdd1c9bde595960521b6044820152606401610642565b82158015906127c857508015155b61280a5760405162461bcd60e51b81526020600482015260136024820152724750532063616e6e6f7420626520656d70747960681b6044820152606401610642565b61281684848484612872565b6003805460ff60a01b19169055604051428152309033907f975a71b6f0e7c3037baf066252bb3dde490161b5536420b1954b32b39316f7b790602001612721565b60096020526000908152604090208054819061123b9061403c565b6003546001600160a01b0316331461289c5760405162461bcd60e51b81526004016106429061409b565b60085460ff16156128db5760405162461bcd60e51b815260206004820152600960248201526811195cdd1c9bde595960ba1b6044820152606401610642565b82158015906128e957508015155b6129215760405162461bcd60e51b815260206004820152600960248201526847505320656d70747960b81b6044820152606401610642565b3060009081526009602052604090208061293c85878361443a565b506001810161294c83858361443a565b50604051309033907f6cad0fcdfd6b730f10e1bef22b48067bd4880a9e9bec47880bceb85733be3396906129899042908a908a908a908a906144fb565b60405180910390a35050505050565b600354600160a01b900460ff16156129c25760405162461bcd60e51b815260040161064290613ed1565b60105460ff166129e45760405162461bcd60e51b815260040161064290613ff5565b6017546001600160a01b0316612a0c5760405162461bcd60e51b815260040161064290614019565b6017546001600160a01b031660009081526015602052604081208054612a319061403c565b9050118015612a6757506017546001600160a01b031660009081526015602052604081206001018054612a639061403c565b9050115b612a835760405162461bcd60e51b815260040161064290614076565b6003546001600160a01b03163314612aad5760405162461bcd60e51b81526004016106429061409b565b612ab76000612ef1565b565b600354600160a01b900460ff1615612ae35760405162461bcd60e51b815260040161064290613ed1565b600b546040516370a0823160e01b81526001600160a01b03808416600483015283926000929116906370a0823190602401602060405180830381865afa158015612b31573d6000803e3d6000fd5b505050506040513d601f19601f82011682018060405250810190612b559190613eff565b11612b725760405162461bcd60e51b815260040161064290613f18565b600c54601480546001600160a01b0319166001600160a01b0392831690811790915560405162d9267b60e31b81529183166004830152906306c933d890602401606060405180830381865afa158015612bcf573d6000803e3d6000fd5b505050506040513d601f19601f82011682018060405250810190612bf39190613f63565b51612c105760405162461bcd60e51b815260040161064290613fcc565b60145460405162d9267b60e31b81526001600160a01b038381166004830152339216906306c933d890602401606060405180830381865afa158015612c59573d6000803e3d6000fd5b505050506040513d601f19601f82011682018060405250810190612c7d9190613f63565b602001516001600160a01b031614612ca75760405162461bcd60e51b815260040161064290613fcc565b60105460ff16612cc95760405162461bcd60e51b815260040161064290613ff5565b6017546001600160a01b0316612cf15760405162461bcd60e51b815260040161064290614019565b6017546001600160a01b031660009081526015602052604081208054612d169061403c565b9050118015612d4c57506017546001600160a01b031660009081526015602052604081206001018054612d489061403c565b9050115b612d685760405162461bcd60e51b815260040161064290614076565b6017546001600160a01b03163314612db35760405162461bcd60e51b815260206004820152600e60248201526d31bab93932b73a103932b73a32b960911b6044820152606401610642565b6017546001600160a01b031660009081526016602052604081208054612ddb906001906140d5565b81548110612deb57612deb6140ee565b60009182526020909120600790910201600681015490915062010000900460ff1615612e4a5760405162461bcd60e51b815260206004820152600e60248201526d1cd9595b5cc81c995d1d5c9b995960921b6044820152606401610642565b60068101805462ff0000191662010000179055604051309033907f729121cdd407f14c64c9ac6675d96b747e07df398480f86c9ff9ce27d72291b590610af89042815260200190565b600354600090600160a01b900460ff1615612ec05760405162461bcd60e51b815260040161064290613ed1565b6003546001600160a01b03163314612eea5760405162461bcd60e51b81526004016106429061409b565b5060025490565b6017546001600160a01b031660009081526016602052604081208054612f19906001906140d5565b81548110612f2957612f296140ee565b6000918252602090912060079091020160068101549091506301000000900460ff1615612f885760405162461bcd60e51b815260206004820152600d60248201526c10d85b9b9bdd0818d85b98d95b609a1b6044820152606401610642565b6006810154610100900460ff1615612fd55760405162461bcd60e51b815260206004820152601060248201526f105b1c9958591e481c99599d5b99195960821b6044820152606401610642565b60008082600201548360030154612fec9190614145565b9050831515600103613040576017546001600160a01b031633146130405760405162461bcd60e51b815260206004820152600b60248201526a27b7363c903932b73a32b960a91b6044820152606401610642565b83801561305757506017546001600160a01b031633145b80156130715750825461306d90611c20906140d5565b4210155b61307b57806130a4565b61271083600201546103e8613090919061412e565b61309a919061411a565b6130a490826140d5565b600480546040516370a0823160e01b8152309281019290925291935083916001600160a01b0316906370a0823190602401602060405180830381865afa1580156130f2573d6000803e3d6000fd5b505050506040513d601f19601f820116820180604052508101906131169190613eff565b10156131345760405162461bcd60e51b81526004016106429061431b565b8315156000036131c257601754601380546001600160a01b0319166001600160a01b0392831690811790915560035460405163778f520b60e01b81526004810186905292166024830152600160448301529063778f520b90606401600060405180830381600087803b1580156131a957600080fd5b505af11580156131bd573d6000803e3d6000fd5b505050505b60068301805461ff0019166101001790556010805460ff19169055601780546001600160a01b031981169091556004546001600160a01b039182169161320a91168285613256565b83546040805191825260208201859052429082015230906001600160a01b038316907f8dba7674f4ebd6a9e5e12953a7582d0a9dd220e6c27941dec40f27ff52d6722f90606001612989565b6040516001600160a01b03831660248201526044810182905261229c90849063a9059cbb60e01b906064015b60408051601f198184030181529190526020810180516001600160e01b03166001600160e01b03199093169290921790915261396a565b600354600160a01b900460ff16156132e35760405162461bcd60e51b815260040161064290613ed1565b612710600554836132f4919061412e565b6132ff90606461412e565b101561330a57600080fd5b60006127106005548461331d919061412e565b61332890606461412e565b613332919061411a565b905060006133408385614145565b905060166000876001600160a01b03166001600160a01b03168152602001908152602001600020604051806101600160405280898152602001878152602001868152602001858152602001848152602001838152602001600115158152602001600015158152602001600015158152602001600015158152602001600015158152509080600181540180825580915050600190039060005260206000209060070201600090919091909150600082015181600001556020820151816001015560408201518160020155606082015181600301556080820151816004015560a0820151816005015560c08201518160060160006101000a81548160ff02191690831515021790555060e08201518160060160016101000a81548160ff0219169083151502179055506101008201518160060160026101000a81548160ff0219169083151502179055506101208201518160060160036101000a81548160ff0219169083151502179055506101408201518160060160046101000a81548160ff021916908315150217905550505050505050505050565b600080601183815481106134eb576134eb6140ee565b60009182526020822060016008909202010154601180546001600160a01b0390921693509085908110613520576135206140ee565b90600052602060002090600802016000015490506011600160118054905061354891906140d5565b81548110613558576135586140ee565b906000526020600020906008020160118581548110613579576135796140ee565b60009182526020909120825460089092020190815560018083015490820180546001600160a01b0319166001600160a01b0390921691909117905560028083015490820155600380830154908201556004808301549082015560058083015490820155600680830154908201556007918201549101805460ff909216151560ff19909216919091179055601180548061361457613614614528565b6000828152602081206008600019909301928302018181556001810180546001600160a01b0319169055600281018290556003810182905560048101829055600581018290556006810191909155600701805460ff19169055905560405130906001600160a01b038416907f1a07a16d411b1999de40db18a15f956f20021655f5dc8cf7685cdb7c9447710f906136ae9085815260200190565b60405180910390a35060019392505050565b6000805b60115481101561392457600654601182815481106136e4576136e46140ee565b9060005260206000209060080201600001544261370191906140d5565b111561391257805b601154613718906001906140d5565b81101561390c57600060118281548110613734576137346140ee565b60009182526020822060016008909202010154601180546001600160a01b0390921693509084908110613769576137696140ee565b600091825260209091206008909102015490506011613789846001614145565b81548110613799576137996140ee565b9060005260206000209060080201601184815481106137ba576137ba6140ee565b60009182526020909120825460089092020190815560018083015490820180546001600160a01b0319166001600160a01b0390921691909117905560028083015490820155600380830154908201556004808301549082015560058083015490820155600680830154908201556007918201549101805460ff909216151560ff19909216919091179055601180548061385557613855614528565b6000828152602081206008600019909301928302018181556001810180546001600160a01b0319169055600281018290556003810182905560048101829055600581018290556006810191909155600701805460ff19169055905560405130906001600160a01b038416907f1a07a16d411b1999de40db18a15f956f20021655f5dc8cf7685cdb7c9447710f906138ef9085815260200190565b60405180910390a35050808061390490614266565b915050613709565b506136c4565b8061391c81614266565b9150506136c4565b600191505090565b6040516001600160a01b03808516602483015283166044820152606481018290526139649085906323b872dd60e01b90608401613282565b50505050565b60006139bf826040518060400160405280602081526020017f5361666545524332303a206c6f772d6c6576656c2063616c6c206661696c6564815250856001600160a01b0316613a3c9092919063ffffffff16565b80519091501561229c57808060200190518101906139dd919061453e565b61229c5760405162461bcd60e51b815260206004820152602a60248201527f5361666545524332303a204552433230206f7065726174696f6e20646964206e6044820152691bdd081cdd58d8d9595960b21b6064820152608401610642565b6060613a4b8484600085613a53565b949350505050565b606082471015613ab45760405162461bcd60e51b815260206004820152602660248201527f416464726573733a20696e73756666696369656e742062616c616e636520666f6044820152651c8818d85b1b60d21b6064820152608401610642565b600080866001600160a01b03168587604051613ad09190614559565b60006040518083038185875af1925050503d8060008114613b0d576040519150601f19603f3d011682016040523d82523d6000602084013e613b12565b606091505b5091509150613b2387838387613b2e565b979650505050505050565b60608315613b9d578251600003613b96576001600160a01b0385163b613b965760405162461bcd60e51b815260206004820152601d60248201527f416464726573733a2063616c6c20746f206e6f6e2d636f6e74726163740000006044820152606401610642565b5081613a4b565b613a4b8383815115613bb25781518083602001fd5b8060405162461bcd60e51b81526004016106429190614575565b600060208284031215613bde57600080fd5b5035919050565b6001600160a01b0381168114613bfa57600080fd5b50565b60008060408385031215613c1057600080fd5b8235613c1b81613be5565b946020939093013593505050565b600060208284031215613c3b57600080fd5b8135613c4681613be5565b9392505050565b60008083601f840112613c5f57600080fd5b50813567ffffffffffffffff811115613c7757600080fd5b602083019150836020828501011115613c8f57600080fd5b9250929050565b60008060008060008060808789031215613caf57600080fd5b8635613cba81613be5565b955060208701359450604087013567ffffffffffffffff80821115613cde57600080fd5b613cea8a838b01613c4d565b90965094506060890135915080821115613d0357600080fd5b50613d1089828a01613c4d565b979a9699509497509295939492505050565b60005b83811015613d3d578181015183820152602001613d25565b50506000910152565b60008151808452613d5e816020860160208601613d22565b601f01601f19169290920160200192915050565b604081526000613d856040830185613d46565b8281036020840152613d978185613d46565b95945050505050565b60008060008060008060008060008060006101208c8e031215613dc257600080fd5b613dcc8c35613be5565b8b359a5060208c0135995060408c0135985060608c0135975060808c0135965060a08c0135955060c08c0135945067ffffffffffffffff8060e08e01351115613e1457600080fd5b613e248e60e08f01358f01613c4d565b90955093506101008d0135811015613e3b57600080fd5b50613e4d8d6101008e01358e01613c4d565b81935080925050509295989b509295989b9093969950565b60008060008060408587031215613e7b57600080fd5b843567ffffffffffffffff80821115613e9357600080fd5b613e9f88838901613c4d565b90965094506020870135915080821115613eb857600080fd5b50613ec587828801613c4d565b95989497509550505050565b60208082526014908201527310dbdb9d1c9858dd0819195858dd1a5d985d195960621b604082015260600190565b600060208284031215613f1157600080fd5b5051919050565b602080825260069082015265139bc813919560d21b604082015260600190565b634e487b7160e01b600052604160045260246000fd5b80518015158114613f5e57600080fd5b919050565b600060608284031215613f7557600080fd5b6040516060810181811067ffffffffffffffff82111715613f9857613f98613f38565b604052613fa483613f4e565b81526020830151613fb481613be5565b60208201526040928301519281019290925250919050565b6020808252600f908201526e139bdd081dda1a5d195b1a5cdd1959608a1b604082015260600190565b6020808252600a9082015269139bdd081c995b9d195960b21b604082015260600190565b6020808252600990820152682737903632b73232b960b91b604082015260600190565b600181811c9082168061405057607f821691505b60208210810361407057634e487b7160e01b600052602260045260246000fd5b50919050565b6020808252600b908201526a11d414c81b9bdd081cd95d60aa1b604082015260600190565b6020808252600a908201526937b7363c9037bbb732b960b11b604082015260600190565b634e487b7160e01b600052601160045260246000fd5b818103818111156140e8576140e86140bf565b92915050565b634e487b7160e01b600052603260045260246000fd5b634e487b7160e01b600052601260045260246000fd5b60008261412957614129614104565b500490565b80820281158282048414176140e8576140e86140bf565b808201808211156140e8576140e86140bf565b601f82111561229c57600081815260208120601f850160051c8101602086101561417f5750805b601f850160051c820191505b8181101561419e5782815560010161418b565b505050505050565b815167ffffffffffffffff8111156141c0576141c0613f38565b6141d4816141ce845461403c565b84614158565b602080601f83116001811461420957600084156141f15750858301515b600019600386901b1c1916600185901b17855561419e565b600085815260208120601f198616915b8281101561423857888601518255948401946001909101908401614219565b50858210156142565787850151600019600388901b60f8161c191681555b5050505050600190811b01905550565b600060018201614278576142786140bf565b5060010190565b60008261428e5761428e614104565b500690565b81835281816020850137506000828201602090810191909152601f909101601f19169091010190565b60006101008c83528b60208401528a60408401528960608401528860808401528760a08401528060c08401526142f58184018789614293565b905082810360e084015261430a818587614293565b9d9c50505050505050505050505050565b60208082526010908201526f24b739bab33334b1b4b2b73a102b992960811b604082015260600190565b600081546143528161403c565b80855260206001838116801561436f5760018114614389576143b7565b60ff1985168884015283151560051b8801830195506143b7565b866000528260002060005b858110156143af5781548a8201860152908301908401614394565b890184019650505b505050505092915050565b8381526060602082015260006143db6060830185614345565b82810360408401526143ed8185614345565b9695505050505050565b85815284602082015283604082015260a06060820152600061441c60a0830185614345565b828103608084015261442e8185614345565b98975050505050505050565b67ffffffffffffffff83111561445257614452613f38565b61446683614460835461403c565b83614158565b6000601f84116001811461449a57600085156144825750838201355b600019600387901b1c1916600186901b1783556144f4565b600083815260209020601f19861690835b828110156144cb57868501358255602094850194600190920191016144ab565b50868210156144e85760001960f88860031b161c19848701351681555b505060018560011b0183555b5050505050565b858152606060208201526000614515606083018688614293565b828103604084015261442e818587614293565b634e487b7160e01b600052603160045260246000fd5b60006020828403121561455057600080fd5b613c4682613f4e565b6000825161456b818460208701613d22565b9190910192915050565b602081526000613c466020830184613d4656fea2646970667358221220932b880159b13800c4b26422474baac36440ad334b98a76591d3d67a2b405d5264736f6c63430008120033",
  "immutableReferences": {},
  "source": "// SPDX-License-Identifier: MIT\npragma solidity ^0.8.17;\n/////////////////////////////////// BikeShare contract ///////////////////////////////////\n\nimport \"@openzeppelin/contracts/interfaces/IERC721.sol\";\nimport \"./Utilities.sol\";\n\ninterface I3VaultW2R {\n    function distributeW2R(address receiver, uint256 amount) external;\n}\n\ninterface IrenterWhitelist {\n    struct Renter {\n        bool isWhitelisted;\n        address bikeRentContract;\n        uint NFTId;\n    }\n\n    function whitelistedAddresses(\n        address\n    ) external view returns (Renter memory);\n}\n\ninterface IBikeRent {\n    function rentBike(\n        address _bikeShareContract,\n        uint _rentalPrice,\n        uint _depositAmount,\n        uint _rentalTime,\n        uint _rentalDate\n    ) external;\n\n    function cancelledLending(\n        uint _refund,\n        address _bikeShareOwner,\n        bool _isCancelledByLender\n    ) external;\n\n    function returnConfirmed(address _bikeShareOwner) external;\n\n    function confirmBikeInHands(address _bikeShareOwner) external;\n}\n\ncontract BikeShare is Utilities {\n    using SafeERC20 for IERC20;\n    address whitelistLender;\n    address renterNFT;\n    address whitelistRenter;\n    uint public rate; // Prix de location par jour\n    uint public depositAmount; // Montant de la caution\n    uint public maximumRental; // Dure maximale de location, PEUT ETRE RENSEIGNE\n    bool public isRented; // Vlo lou ou non\n\n    event BikeRented(\n        address indexed renter,\n        uint rentalTime,\n        uint rentalDate,\n        uint rate,\n        uint deposit,\n        uint rentalPrice\n    );\n\n    event BikeReturned(\n        uint rentalDate,\n        address indexed renter,\n        uint depositReturned,\n        uint returnDate,\n        address indexed lender,\n        string latitude,\n        string longitude\n    );\n\n    event RentingCancelled(\n        address indexed renter,\n        uint date,\n        uint depositReturned,\n        uint returnDate,\n        address indexed lender\n    );\n\n    event ProposalReceived(\n        address indexed renter, // address du contrat locataire\n        uint date, // date de la proposition\n        address indexed lender, // address du contrat propritaire\n        uint rentalDateMin, // date de la location souhaite\n        uint rentalDateMax, // date de la location souhaite\n        uint rentalTime, // dure de la location souhaite\n        uint rate, // taux de location au moment de la proposition\n        uint depositAmount, // taux de dpt au moment de la proposition\n        string latitude,\n        string longitude\n    );\n\n    event BikeTaken(\n        address indexed renter,\n        uint date,\n        address indexed lender,\n        string latitude,\n        string longitude\n    );\n\n    event RentalSeemsReturned(\n        address indexed renter,\n        uint date,\n        address indexed lender\n    );\n\n    struct Proposal {\n        // time of the proposal\n        uint date; // date de la proposition\n        address _renter; // address of the renter\n        uint _rentalDateMin; // date de la location, heure de RDV minimum\n        uint _rentalDateMax; // date de la location, heure de RDV maximum\n        uint _rentalTime; // dure de la location\n        uint _rate; // prix de la location par jour\n        uint _depositAmount; // montant de la caution\n        bool _isAccepted; // proposition accepte ou non\n    }\n\n    Proposal[] public proposals;\n\n    struct Rental {\n        uint date; // date de la location\n        uint rentalTime; // dure de la location\n        uint rentalPrice; // prix de la location\n        uint depositAmount; // montant de la caution\n        uint rewardExpected; // rcompense\n        uint amountAsked; // montant demand\n        bool isAccepted; // location accepte ou non\n        bool isRefunded; // montant rembours ou non\n        bool seemsReturned; // location dclare rendue ou non\n        bool cantCancel; // impossible de cancel la location\n        bool isReturned; // location rendue ou non\n    }\n\n    // import VaultW2R interface\n    I3VaultW2R private vaultW2R;\n\n    IBikeRent bikeRent;\n\n    // instantiate IrenterWhitelist interface\n    IrenterWhitelist private RenterWhitelist;\n\n    struct RentalGPS {\n        string latitude;\n        string longitude;\n    }\n\n    mapping(address => RentalGPS) public rentalGPSData;\n\n    // mapping of rentals, address of the renter is the key\n    mapping(address => Rental[]) public rentals;\n    address public currentRenter;\n\n    constructor(\n        address _lender,\n        address _W2Rtoken,\n        address _renterNFT,\n        address _whitelistLender,\n        address _vaultW2R,\n        address _whitelistRenter\n    ) Utilities(_lender, _W2Rtoken) {\n        require(_renterNFT != address(0));\n        require(\n            msg.sender == _whitelistLender,\n            \"Only the whitelist can deploy\"\n        );\n        require(_vaultW2R != address(0));\n        require(_whitelistRenter != address(0));\n        renterNFT = _renterNFT;\n        whitelistLender = _whitelistLender;\n        vaultW2R = I3VaultW2R(_vaultW2R);\n        whitelistRenter = _whitelistRenter;\n        // default values\n        maximumRental = 1 days;\n        rate = 100000000000000000000; // 100 W2R\n        depositAmount = 200000000000000000000; // 200 W2R\n    }\n\n    // modifier to check if a renter has the NFT\n    modifier checkRenterNFT(address _bikeRentOwner) {\n        require(IERC721(renterNFT).balanceOf(_bikeRentOwner) > 0, \"No NFT\");\n        RenterWhitelist = IrenterWhitelist(whitelistRenter);\n        require(\n            RenterWhitelist.whitelistedAddresses(_bikeRentOwner).isWhitelisted,\n            \"Not whitelisted\"\n        );\n        require(\n            RenterWhitelist\n                .whitelistedAddresses(_bikeRentOwner)\n                .bikeRentContract == msg.sender,\n            \"Not whitelisted\"\n        );\n        _;\n    }\n\n    modifier lending() {\n        require(isRented, \"Not rented\");\n        require(currentRenter != address(0), \"No lender\");\n        require(\n            bytes(rentalGPSData[currentRenter].latitude).length > 0 &&\n                bytes(rentalGPSData[currentRenter].longitude).length > 0,\n            \"GPS not set\"\n        );\n        _;\n    }\n\n    function setRate(uint _rate) external onlyOwner {\n        require(_rate > 0);\n        rate = _rate;\n    }\n\n    // fonction pour fixer le taux de la caution\n    function setDepositAmount(\n        uint _depositAmount\n    ) external isActivated onlyOwner {\n        require(_depositAmount > 0, \"Must not 0\");\n        depositAmount = _depositAmount;\n    }\n\n    // fonction pour fixer la dure maximale de location\n    function setMaximumRental(\n        uint _maximumRental\n    ) external isActivated onlyOwner {\n        require(_maximumRental >= 1 days && _maximumRental <= 1 weeks);\n        maximumRental = _maximumRental;\n    }\n\n    function getRentalsByAdresses(address renter) external view returns (uint) {\n        return rentals[renter].length;\n    }\n\n    // fonction pour renseigner les dtails de la location\n    function setRentalStruct(\n        uint _date, // date de la location\n        address _renter, // address du contrat locataire\n        uint _rentalTime, // dure de la location\n        uint _rentalPrice, // prix de la location\n        uint _depositAmount // montant de la caution\n    ) private isActivated {\n        require((_rentalPrice * rewardAmount * 100) >= 10000);\n        uint reward = (_rentalPrice * rewardAmount * 100) / 10000;\n        uint _amountAsked = _rentalPrice + _depositAmount;\n        rentals[_renter].push(\n            Rental(\n                _date,\n                _rentalTime,\n                _rentalPrice,\n                _depositAmount,\n                reward,\n                _amountAsked,\n                true,\n                false,\n                false,\n                false,\n                false\n            )\n        );\n    }\n\n    // fonction pour proposer une location appele par le contrat locataire\n    function setProposal(\n        address _bikeRentOwner,\n        uint _dateMin, // date de la location souhaite, heure de RDV minimum\n        uint _dateMax, // date de la location souhaite, heure de RDV maximum\n        uint _rentalTime, // dure de la location propose\n        uint _rate, // taux de la location au moment de la proposition\n        uint _depositAmount, // caution au moment de la proposition\n        uint date,\n        string calldata _latitude,\n        string calldata _longitude\n    ) external isActivated checkRenterNFT(_bikeRentOwner) {\n        require(deleteOldProposals(), \"not deleted\");\n        for (uint i = 0; i < proposals.length; i++) {\n            if (proposals[i]._renter == msg.sender) {\n                revert(\"Already proposed\");\n            }\n        }\n        require(proposals.length <= 5, \"Too many\");\n        // check rentalTime is modulo 1 days\n        require(\n            _rentalTime % 1 days == 0 && _rentalTime >= 1 days,\n            \"Bad rental time\"\n        );\n        require(\n            _dateMin > block.timestamp + 2 hours &&\n                _dateMax - _dateMin <= 12 hours,\n            \"Bad dates\"\n        );\n        require(\n            _rentalTime >= minimalRental && _rentalTime <= maximumRental,\n            \"Too short\"\n        );\n        require(_rate > 0);\n        require(depositAmount > 0);\n        require(\n            bytes(_latitude).length > 0 && bytes(_longitude).length > 0,\n            \"GPS not set\"\n        );\n\n        Proposal memory proposal = Proposal(\n            date, // date de rception de la proposition\n            msg.sender, // address du contrat renter\n            _dateMin, // date de la location souhaite, heure de RDV minimum\n            _dateMax, // date de la location souhaite, heure de RDV maximum\n            _rentalTime, // dure de la location souhaite\n            _rate, // taux de la location au moment de la proposition\n            _depositAmount, // taux de la caution au moment de la proposition\n            false // proposition accepte ou non\n        );\n        proposals.push(proposal);\n        emit ProposalReceived(\n            msg.sender, // address du contrat locataire\n            date, // date de la proposition\n            address(this), // address du contrat propritaire\n            _dateMin, // date de la location souhaite\n            _dateMax, // date de la location souhaite\n            _rentalTime, // dure de la location souhaite\n            _rate, // taux de location au moment de la proposition\n            _depositAmount, // taux de dpt au moment de la proposition\n            _latitude,\n            _longitude\n        );\n    }\n\n    function getProposalsLength() external view returns (uint) {\n        return proposals.length;\n    }\n\n    function getRentalsLength(address renter) external view returns (uint) {\n        return rentals[renter].length;\n    }\n\n    function deleteOldProposals() private returns (bool) {\n        uint i = 0;\n        while (i < proposals.length) {\n            if (block.timestamp - proposals[i].date > proposalDuration) {\n                for (uint j = i; j < proposals.length - 1; j++) {\n                    address renter = proposals[j]._renter;\n                    uint date = proposals[j].date;\n                    proposals[j] = proposals[j + 1];\n                    proposals.pop();\n                    emit ProposalCancelled(renter, date, address(this));\n                }\n            } else {\n                i++;\n            }\n        }\n        return true;\n    }\n\n    // inform bikeRent contract that the proposal has been accepted\n    // GPS coordinates come from front-end\n    function acceptProposal(\n        address _bikeRent,\n        uint _meetingHour,\n        string calldata _latitude,\n        string calldata _longitude\n    ) external isActivated onlyOwner {\n        require(!isRented, \"Already rented\");\n        require(_meetingHour > 0);\n        require(_bikeRent != address(0));\n        require(proposals.length > 0, \"No proposals\");\n        require(\n            bytes(_latitude).length > 0 && bytes(_longitude).length > 0,\n            \"GPS not set\"\n        );\n        bool proposalFound;\n        uint i;\n        uint dateMax;\n        uint rentalTime;\n        for (i = 0; i < proposals.length; i++) {\n            if (proposals[i]._renter == _bikeRent) {\n                Proposal memory proposalLoop = proposals[i];\n                uint rentalPrice = (proposalLoop._rentalTime / 86400) *\n                    proposalLoop._rate;\n                dateMax = proposalLoop._rentalDateMax;\n                rentalTime = proposalLoop._rentalTime;\n                bikeRent = IBikeRent(proposalLoop._renter);\n                // check W2R balance of renter contract\n                require(\n                    W2R.balanceOf(proposalLoop._renter) >=\n                        rentalPrice + proposalLoop._depositAmount,\n                    \"Not enough W2R\"\n                );\n                uint meetingHour = _meetingHour;\n                setRentalStruct(\n                    meetingHour, // date et heure de la location\n                    proposalLoop._renter, // address du contrat locataire\n                    rentalTime, // dure de la location\n                    rentalPrice, // prix de la location\n                    proposalLoop._depositAmount // montant de la caution\n                );\n                bikeRent.rentBike(\n                    owner, // address du propritaire\n                    rentalPrice, // prix de la location\n                    proposalLoop._depositAmount, // montant de la caution\n                    rentalTime, // dure de la location\n                    meetingHour // date de la location\n                );\n                // set bike as rented if no revert\n                proposalLoop._isAccepted = true;\n                isRented = true;\n                currentRenter = proposalLoop._renter;\n                rentalGPSData[currentRenter] = RentalGPS(_latitude, _longitude);\n                totalRentals++;\n                emit BikeRented(\n                    proposalLoop._renter, // address du contrat locataire\n                    rentalTime, // dure de la location\n                    _meetingHour, // date de la location\n                    proposalLoop._rate, // taux de la location\n                    proposalLoop._depositAmount, // montant de la caution\n                    rentalPrice // prix de la location\n                );\n                proposalFound = true;\n                break;\n            }\n        }\n        require(proposalFound, \"not found\");\n        // delete proposal from the renter as it has been accepted\n        while (i < proposals.length) {\n            if (proposals[i]._renter == currentRenter) {\n                cancelUselessProposals(i);\n                break;\n            } else {\n                i++;\n            }\n        }\n        //delete proposal which date is before the rental date\n        for (uint j = 0; j < proposals.length; j++) {\n            if (j != i && proposals[j].date < (dateMax + rentalTime)) {\n                cancelUselessProposals(j);\n            }\n        }\n    }\n\n    function cancelUselessProposals(uint index) private returns (bool) {\n        address renter = proposals[index]._renter;\n        uint256 date = proposals[index].date;\n        proposals[index] = proposals[proposals.length - 1];\n        proposals.pop();\n        emit ProposalCancelled(renter, date, address(this));\n        return true;\n    }\n\n    function cancelProposal(address _bikerent) public isActivated onlyOwner {\n        require(_bikerent != address(0));\n        require(proposals.length > 0, \"No proposals\");\n        uint i = 0;\n        while (i < proposals.length) {\n            if (proposals[i]._renter == _bikerent) {\n                require(proposals[i]._isAccepted == false, \"accepted\");\n                cancelUselessProposals(i);\n                break;\n            } else {\n                i++;\n            }\n        }\n    }\n\n    // function to activate when the Renter has physically taken the bike\n    function confirmBikeTaken() external isActivated onlyOwner lending {\n        Rental storage rental = rentals[currentRenter][\n            rentals[currentRenter].length - 1\n        ];\n        // deactivated for testing\n        //require(rental.date <= block.timestamp, \"Must be in the past\");\n        require(rental.cantCancel == false, \"already taken\");\n        rental.cantCancel = true;\n        bikeRent = IBikeRent(currentRenter);\n        bikeRent.confirmBikeInHands(owner);\n        emit BikeTaken(\n            currentRenter,\n            block.timestamp,\n            address(this),\n            rentalGPSData[currentRenter].latitude,\n            rentalGPSData[currentRenter].longitude\n        );\n    }\n\n    // function called by Renter contract to confirm that the bike has been returned\n    // it is strongly advised that people were physically present at the meeting point\n    function returnedBike(\n        address _bikeRentOwner\n    ) external isActivated checkRenterNFT(_bikeRentOwner) lending {\n        require(msg.sender == currentRenter, \"current renter\");\n        Rental storage rental = rentals[currentRenter][\n            rentals[currentRenter].length - 1\n        ];\n        require(rental.seemsReturned == false, \"seems returned\");\n        rental.seemsReturned = true;\n        emit RentalSeemsReturned(msg.sender, block.timestamp, address(this));\n    }\n\n    // function to definitely confirm bike returned by renter and return deposit to renter\n    function confirmBikeReturned() external isActivated onlyOwner lending {\n        Rental storage rental = rentals[currentRenter][\n            rentals[currentRenter].length - 1\n        ];\n        require(rental.seemsReturned == true, \"Seems not returned\");\n        // check if rental is not already returned\n        require(rental.isReturned == false, \"Already returned\");\n        uint depositReturned = rental.depositAmount;\n        require(\n            W2R.balanceOf(address(this)) >= depositReturned,\n            \"Insufficient W2R\"\n        );\n        bikeRent = IBikeRent(currentRenter);\n        bikeRent.returnConfirmed(owner);\n        // set rental as returned\n        rental.isReturned = true;\n        uint reward = rental.rewardExpected;\n        rewards[currentRenter] += reward;\n        // update totalRewards\n        totalRewards += reward;\n        isRented = false;\n        address current = currentRenter;\n        currentRenter = address(0);\n        W2R.safeTransfer(current, depositReturned);\n        vaultW2R.distributeW2R(address(this), reward);\n        emit BikeReturned(\n            rental.date,\n            current,\n            depositReturned,\n            block.timestamp,\n            address(this),\n            rentalGPSData[currentRenter].latitude,\n            rentalGPSData[currentRenter].longitude\n        );\n    }\n\n    // function called by lender to cancel lending\n    function cancelLending() external isActivated lending onlyOwner {\n        handleRentingCancellation(false);\n    }\n\n    // function called by renter to cancel renting\n    function cancelledRenting(\n        address _bikeRentOwner\n    ) external isActivated checkRenterNFT(_bikeRentOwner) lending {\n        handleRentingCancellation(true);\n    }\n\n    // helper function to handle cancellation\n    function handleRentingCancellation(bool isCalledByRenter) private {\n        Rental storage rental = rentals[currentRenter][\n            rentals[currentRenter].length - 1\n        ];\n        require(rental.cantCancel == false, \"Cannot cancel\");\n        require(rental.isRefunded == false, \"Already refunded\");\n        uint _refund;\n        uint basis = rental.depositAmount + rental.rentalPrice;\n        if (isCalledByRenter == true) {\n            require(msg.sender == currentRenter, \"Only renter\");\n        }\n        _refund = isCalledByRenter &&\n            msg.sender == currentRenter &&\n            block.timestamp >= rental.date - 2 hours\n            ? basis - (rental.rentalPrice * 1000) / 10000\n            : basis;\n        require(W2R.balanceOf(address(this)) >= _refund, \"Insufficient W2R\");\n        if (isCalledByRenter == false) {\n            bikeRent = IBikeRent(currentRenter);\n            bikeRent.cancelledLending(_refund, owner, true);\n        }\n        // set rental struct to refunded\n        rental.isRefunded = true;\n        // set bike as not rented if no revert\n        isRented = false;\n        address current = currentRenter;\n        currentRenter = address(0);\n        W2R.safeTransfer(current, _refund);\n        emit RentingCancelled(\n            current,\n            rental.date,\n            _refund,\n            block.timestamp,\n            address(this)\n        );\n    }\n\n    function withdrawFunds(uint _amount) external isActivated onlyOwner {\n        require(_amount > 0, \"Must be greater than 0\");\n        uint W2Rbalance = W2R.balanceOf(address(this));\n        uint deposit;\n        if (isRented && currentRenter != address(0)) {\n            deposit = rentals[currentRenter][rentals[currentRenter].length - 1]\n                .depositAmount;\n        }\n        require(W2Rbalance - deposit > _amount, \"Not enough\");\n        //transfer W2R to owner\n        W2R.safeTransfer(owner, _amount);\n        emit W2Rwithdrawed(msg.sender, _amount, block.timestamp, address(this));\n    }\n\n    // Fonction pour dtruire le contrat et renvoyer les fonds restants  l'owner\n    function destroy() external returns (bool) {\n        require(msg.sender == whitelistLender, \"Only whitelistContract\");\n        // if bike is rented and rental duration is not over, revert\n        if (isRented && currentRenter != address(0)) {\n            Rental memory rental = rentals[currentRenter][\n                rentals[currentRenter].length - 1\n            ];\n            require(\n                block.timestamp > rental.date + rental.rentalTime,\n                \"Rental not over\"\n            );\n        }\n        isDeactivated = true;\n        isDestroyed = true;\n        if (W2R.balanceOf(address(this)) > 0) {\n            // transfer all balance of W2R to owner\n            W2R.safeTransfer(owner, W2R.balanceOf(address(this)));\n        }\n        emit ContractDestroyed(msg.sender, block.timestamp, address(this));\n        return true;\n    }\n}\n",
  "sourcePath": "/Users/harbinger/Dropbox/Dossier familial/Formation Blockchain/Alyra/Projet Certification/Projet Alyra 2Wheels2Rent/truffle/contracts/BikeShare.sol",
  "compiler": {
    "name": "solc",
    "version": "0.8.18+commit.87f61d96.Emscripten.clang"
  },
  "schemaVersion": "3.4.12",
  "updatedAt": "2023-04-04T21:15:41.991Z",
  "devdoc": {
    "kind": "dev",
    "methods": {},
    "version": 1
  },
  "userdoc": {
    "kind": "user",
    "methods": {},
    "version": 1
  }
}