{
  "contractName": "BikeShare",
  "abi": [
    {
      "inputs": [
        {
          "internalType": "address",
          "name": "_lender",
          "type": "address"
        },
        {
          "internalType": "address",
          "name": "_W2Rtoken",
          "type": "address"
        },
        {
          "internalType": "address",
          "name": "_renterNFT",
          "type": "address"
        },
        {
          "internalType": "address",
          "name": "_whitelistLender",
          "type": "address"
        },
        {
          "internalType": "address",
          "name": "_vaultW2R",
          "type": "address"
        },
        {
          "internalType": "address",
          "name": "_whitelistRenter",
          "type": "address"
        }
      ],
      "stateMutability": "nonpayable",
      "type": "constructor"
    },
    {
      "anonymous": false,
      "inputs": [
        {
          "indexed": true,
          "internalType": "address",
          "name": "renter",
          "type": "address"
        },
        {
          "indexed": false,
          "internalType": "uint256",
          "name": "rentalTime",
          "type": "uint256"
        },
        {
          "indexed": false,
          "internalType": "uint256",
          "name": "rentalDate",
          "type": "uint256"
        },
        {
          "indexed": false,
          "internalType": "uint256",
          "name": "rate",
          "type": "uint256"
        },
        {
          "indexed": false,
          "internalType": "uint256",
          "name": "deposit",
          "type": "uint256"
        },
        {
          "indexed": false,
          "internalType": "uint256",
          "name": "rentalPrice",
          "type": "uint256"
        }
      ],
      "name": "BikeRented",
      "type": "event"
    },
    {
      "anonymous": false,
      "inputs": [
        {
          "indexed": false,
          "internalType": "uint256",
          "name": "rentalDate",
          "type": "uint256"
        },
        {
          "indexed": true,
          "internalType": "address",
          "name": "renter",
          "type": "address"
        },
        {
          "indexed": false,
          "internalType": "uint256",
          "name": "depositReturned",
          "type": "uint256"
        },
        {
          "indexed": false,
          "internalType": "uint256",
          "name": "returnDate",
          "type": "uint256"
        },
        {
          "indexed": true,
          "internalType": "address",
          "name": "lender",
          "type": "address"
        },
        {
          "indexed": false,
          "internalType": "string",
          "name": "latitude",
          "type": "string"
        },
        {
          "indexed": false,
          "internalType": "string",
          "name": "longitude",
          "type": "string"
        }
      ],
      "name": "BikeReturned",
      "type": "event"
    },
    {
      "anonymous": false,
      "inputs": [
        {
          "indexed": true,
          "internalType": "address",
          "name": "renter",
          "type": "address"
        },
        {
          "indexed": false,
          "internalType": "uint256",
          "name": "date",
          "type": "uint256"
        },
        {
          "indexed": true,
          "internalType": "address",
          "name": "lender",
          "type": "address"
        },
        {
          "indexed": false,
          "internalType": "string",
          "name": "latitude",
          "type": "string"
        },
        {
          "indexed": false,
          "internalType": "string",
          "name": "longitude",
          "type": "string"
        }
      ],
      "name": "BikeTaken",
      "type": "event"
    },
    {
      "anonymous": false,
      "inputs": [
        {
          "indexed": true,
          "internalType": "address",
          "name": "_owner",
          "type": "address"
        },
        {
          "indexed": false,
          "internalType": "uint256",
          "name": "_date",
          "type": "uint256"
        },
        {
          "indexed": true,
          "internalType": "address",
          "name": "_contractAddress",
          "type": "address"
        }
      ],
      "name": "ContractActivated",
      "type": "event"
    },
    {
      "anonymous": false,
      "inputs": [
        {
          "indexed": true,
          "internalType": "address",
          "name": "_owner",
          "type": "address"
        },
        {
          "indexed": false,
          "internalType": "uint256",
          "name": "_date",
          "type": "uint256"
        },
        {
          "indexed": true,
          "internalType": "address",
          "name": "_contractAddress",
          "type": "address"
        }
      ],
      "name": "ContractDestroyed",
      "type": "event"
    },
    {
      "anonymous": false,
      "inputs": [
        {
          "indexed": true,
          "internalType": "address",
          "name": "_owner",
          "type": "address"
        },
        {
          "indexed": false,
          "internalType": "uint256",
          "name": "_date",
          "type": "uint256"
        },
        {
          "indexed": false,
          "internalType": "string",
          "name": "_latitude",
          "type": "string"
        },
        {
          "indexed": false,
          "internalType": "string",
          "name": "_longitude",
          "type": "string"
        },
        {
          "indexed": true,
          "internalType": "address",
          "name": "_contractAddress",
          "type": "address"
        }
      ],
      "name": "GPSupdated",
      "type": "event"
    },
    {
      "anonymous": false,
      "inputs": [
        {
          "indexed": true,
          "internalType": "address",
          "name": "renter",
          "type": "address"
        },
        {
          "indexed": false,
          "internalType": "uint256",
          "name": "date",
          "type": "uint256"
        },
        {
          "indexed": true,
          "internalType": "address",
          "name": "lender",
          "type": "address"
        }
      ],
      "name": "ProposalCancelled",
      "type": "event"
    },
    {
      "anonymous": false,
      "inputs": [
        {
          "indexed": true,
          "internalType": "address",
          "name": "renter",
          "type": "address"
        },
        {
          "indexed": false,
          "internalType": "uint256",
          "name": "date",
          "type": "uint256"
        },
        {
          "indexed": true,
          "internalType": "address",
          "name": "lender",
          "type": "address"
        },
        {
          "indexed": false,
          "internalType": "uint256",
          "name": "rentalDateMin",
          "type": "uint256"
        },
        {
          "indexed": false,
          "internalType": "uint256",
          "name": "rentalDateMax",
          "type": "uint256"
        },
        {
          "indexed": false,
          "internalType": "uint256",
          "name": "rentalTime",
          "type": "uint256"
        },
        {
          "indexed": false,
          "internalType": "uint256",
          "name": "rate",
          "type": "uint256"
        },
        {
          "indexed": false,
          "internalType": "uint256",
          "name": "depositAmount",
          "type": "uint256"
        },
        {
          "indexed": false,
          "internalType": "string",
          "name": "latitude",
          "type": "string"
        },
        {
          "indexed": false,
          "internalType": "string",
          "name": "longitude",
          "type": "string"
        }
      ],
      "name": "ProposalReceived",
      "type": "event"
    },
    {
      "anonymous": false,
      "inputs": [
        {
          "indexed": true,
          "internalType": "address",
          "name": "renter",
          "type": "address"
        },
        {
          "indexed": false,
          "internalType": "uint256",
          "name": "date",
          "type": "uint256"
        },
        {
          "indexed": true,
          "internalType": "address",
          "name": "lender",
          "type": "address"
        }
      ],
      "name": "RentalSeemsReturned",
      "type": "event"
    },
    {
      "anonymous": false,
      "inputs": [
        {
          "indexed": true,
          "internalType": "address",
          "name": "renter",
          "type": "address"
        },
        {
          "indexed": false,
          "internalType": "uint256",
          "name": "date",
          "type": "uint256"
        },
        {
          "indexed": false,
          "internalType": "uint256",
          "name": "depositReturned",
          "type": "uint256"
        },
        {
          "indexed": false,
          "internalType": "uint256",
          "name": "returnDate",
          "type": "uint256"
        },
        {
          "indexed": true,
          "internalType": "address",
          "name": "lender",
          "type": "address"
        }
      ],
      "name": "RentingCancelled",
      "type": "event"
    },
    {
      "anonymous": false,
      "inputs": [
        {
          "indexed": true,
          "internalType": "address",
          "name": "_owner",
          "type": "address"
        },
        {
          "indexed": false,
          "internalType": "uint256",
          "name": "_date",
          "type": "uint256"
        },
        {
          "indexed": false,
          "internalType": "uint256",
          "name": "_amount",
          "type": "uint256"
        },
        {
          "indexed": true,
          "internalType": "address",
          "name": "_contractAddress",
          "type": "address"
        }
      ],
      "name": "RewardClaimed",
      "type": "event"
    },
    {
      "anonymous": false,
      "inputs": [
        {
          "indexed": true,
          "internalType": "address",
          "name": "_owner",
          "type": "address"
        },
        {
          "indexed": false,
          "internalType": "uint256",
          "name": "_amount",
          "type": "uint256"
        },
        {
          "indexed": false,
          "internalType": "uint256",
          "name": "_date",
          "type": "uint256"
        },
        {
          "indexed": true,
          "internalType": "address",
          "name": "_contractAddress",
          "type": "address"
        }
      ],
      "name": "W2Rdeposited",
      "type": "event"
    },
    {
      "anonymous": false,
      "inputs": [
        {
          "indexed": true,
          "internalType": "address",
          "name": "_owner",
          "type": "address"
        },
        {
          "indexed": false,
          "internalType": "uint256",
          "name": "_amount",
          "type": "uint256"
        },
        {
          "indexed": false,
          "internalType": "uint256",
          "name": "_date",
          "type": "uint256"
        },
        {
          "indexed": true,
          "internalType": "address",
          "name": "_contractAddress",
          "type": "address"
        }
      ],
      "name": "W2Rwithdrawed",
      "type": "event"
    },
    {
      "inputs": [],
      "name": "W2R",
      "outputs": [
        {
          "internalType": "contract IERC20",
          "name": "",
          "type": "address"
        }
      ],
      "stateMutability": "view",
      "type": "function"
    },
    {
      "inputs": [
        {
          "internalType": "string",
          "name": "_latitude",
          "type": "string"
        },
        {
          "internalType": "string",
          "name": "_longitude",
          "type": "string"
        }
      ],
      "name": "activate",
      "outputs": [],
      "stateMutability": "nonpayable",
      "type": "function"
    },
    {
      "inputs": [],
      "name": "claimRewards",
      "outputs": [],
      "stateMutability": "nonpayable",
      "type": "function"
    },
    {
      "inputs": [],
      "name": "currentRenter",
      "outputs": [
        {
          "internalType": "address",
          "name": "",
          "type": "address"
        }
      ],
      "stateMutability": "view",
      "type": "function"
    },
    {
      "inputs": [],
      "name": "depositAmount",
      "outputs": [
        {
          "internalType": "uint256",
          "name": "",
          "type": "uint256"
        }
      ],
      "stateMutability": "view",
      "type": "function"
    },
    {
      "inputs": [
        {
          "internalType": "uint256",
          "name": "_amount",
          "type": "uint256"
        }
      ],
      "name": "depositW2R",
      "outputs": [],
      "stateMutability": "nonpayable",
      "type": "function"
    },
    {
      "inputs": [],
      "name": "getTotalRewards",
      "outputs": [
        {
          "internalType": "uint256",
          "name": "",
          "type": "uint256"
        }
      ],
      "stateMutability": "view",
      "type": "function"
    },
    {
      "inputs": [
        {
          "internalType": "address",
          "name": "",
          "type": "address"
        }
      ],
      "name": "gpsData",
      "outputs": [
        {
          "internalType": "string",
          "name": "latitude",
          "type": "string"
        },
        {
          "internalType": "string",
          "name": "longitude",
          "type": "string"
        }
      ],
      "stateMutability": "view",
      "type": "function"
    },
    {
      "inputs": [],
      "name": "isDeactivated",
      "outputs": [
        {
          "internalType": "bool",
          "name": "",
          "type": "bool"
        }
      ],
      "stateMutability": "view",
      "type": "function"
    },
    {
      "inputs": [],
      "name": "isRented",
      "outputs": [
        {
          "internalType": "bool",
          "name": "",
          "type": "bool"
        }
      ],
      "stateMutability": "view",
      "type": "function"
    },
    {
      "inputs": [],
      "name": "maximumRental",
      "outputs": [
        {
          "internalType": "uint256",
          "name": "",
          "type": "uint256"
        }
      ],
      "stateMutability": "view",
      "type": "function"
    },
    {
      "inputs": [],
      "name": "minimalRental",
      "outputs": [
        {
          "internalType": "uint256",
          "name": "",
          "type": "uint256"
        }
      ],
      "stateMutability": "view",
      "type": "function"
    },
    {
      "inputs": [],
      "name": "owner",
      "outputs": [
        {
          "internalType": "address",
          "name": "",
          "type": "address"
        }
      ],
      "stateMutability": "view",
      "type": "function"
    },
    {
      "inputs": [],
      "name": "proposalDuration",
      "outputs": [
        {
          "internalType": "uint256",
          "name": "",
          "type": "uint256"
        }
      ],
      "stateMutability": "view",
      "type": "function"
    },
    {
      "inputs": [
        {
          "internalType": "uint256",
          "name": "",
          "type": "uint256"
        }
      ],
      "name": "proposals",
      "outputs": [
        {
          "internalType": "uint256",
          "name": "date",
          "type": "uint256"
        },
        {
          "internalType": "address",
          "name": "_renter",
          "type": "address"
        },
        {
          "internalType": "uint256",
          "name": "_rentalDateMin",
          "type": "uint256"
        },
        {
          "internalType": "uint256",
          "name": "_rentalDateMax",
          "type": "uint256"
        },
        {
          "internalType": "uint256",
          "name": "_rentalTime",
          "type": "uint256"
        },
        {
          "internalType": "uint256",
          "name": "_rate",
          "type": "uint256"
        },
        {
          "internalType": "uint256",
          "name": "_depositAmount",
          "type": "uint256"
        },
        {
          "internalType": "bool",
          "name": "_isAccepted",
          "type": "bool"
        }
      ],
      "stateMutability": "view",
      "type": "function"
    },
    {
      "inputs": [],
      "name": "rate",
      "outputs": [
        {
          "internalType": "uint256",
          "name": "",
          "type": "uint256"
        }
      ],
      "stateMutability": "view",
      "type": "function"
    },
    {
      "inputs": [
        {
          "internalType": "address",
          "name": "",
          "type": "address"
        }
      ],
      "name": "rentalGPSData",
      "outputs": [
        {
          "internalType": "string",
          "name": "latitude",
          "type": "string"
        },
        {
          "internalType": "string",
          "name": "longitude",
          "type": "string"
        }
      ],
      "stateMutability": "view",
      "type": "function"
    },
    {
      "inputs": [
        {
          "internalType": "address",
          "name": "",
          "type": "address"
        },
        {
          "internalType": "uint256",
          "name": "",
          "type": "uint256"
        }
      ],
      "name": "rentals",
      "outputs": [
        {
          "internalType": "uint256",
          "name": "date",
          "type": "uint256"
        },
        {
          "internalType": "uint256",
          "name": "rentalTime",
          "type": "uint256"
        },
        {
          "internalType": "uint256",
          "name": "rentalPrice",
          "type": "uint256"
        },
        {
          "internalType": "uint256",
          "name": "depositAmount",
          "type": "uint256"
        },
        {
          "internalType": "uint256",
          "name": "rewardExpected",
          "type": "uint256"
        },
        {
          "internalType": "uint256",
          "name": "amountAsked",
          "type": "uint256"
        },
        {
          "internalType": "bool",
          "name": "isAccepted",
          "type": "bool"
        },
        {
          "internalType": "bool",
          "name": "isRefunded",
          "type": "bool"
        },
        {
          "internalType": "bool",
          "name": "seemsReturned",
          "type": "bool"
        },
        {
          "internalType": "bool",
          "name": "cantCancel",
          "type": "bool"
        },
        {
          "internalType": "bool",
          "name": "isReturned",
          "type": "bool"
        },
        {
          "internalType": "string",
          "name": "rentalToken",
          "type": "string"
        }
      ],
      "stateMutability": "view",
      "type": "function"
    },
    {
      "inputs": [],
      "name": "rewardAmount",
      "outputs": [
        {
          "internalType": "uint256",
          "name": "",
          "type": "uint256"
        }
      ],
      "stateMutability": "view",
      "type": "function"
    },
    {
      "inputs": [],
      "name": "safeDate",
      "outputs": [
        {
          "internalType": "uint256",
          "name": "",
          "type": "uint256"
        }
      ],
      "stateMutability": "view",
      "type": "function"
    },
    {
      "inputs": [
        {
          "internalType": "string",
          "name": "_latitude",
          "type": "string"
        },
        {
          "internalType": "string",
          "name": "_longitude",
          "type": "string"
        }
      ],
      "name": "setGPS",
      "outputs": [],
      "stateMutability": "nonpayable",
      "type": "function"
    },
    {
      "inputs": [],
      "name": "totalRentals",
      "outputs": [
        {
          "internalType": "uint256",
          "name": "",
          "type": "uint256"
        }
      ],
      "stateMutability": "view",
      "type": "function"
    },
    {
      "inputs": [
        {
          "internalType": "uint256",
          "name": "_rate",
          "type": "uint256"
        }
      ],
      "name": "setRate",
      "outputs": [],
      "stateMutability": "nonpayable",
      "type": "function"
    },
    {
      "inputs": [
        {
          "internalType": "uint256",
          "name": "_depositAmount",
          "type": "uint256"
        }
      ],
      "name": "setDepositAmount",
      "outputs": [],
      "stateMutability": "nonpayable",
      "type": "function"
    },
    {
      "inputs": [
        {
          "internalType": "uint256",
          "name": "_maximumRental",
          "type": "uint256"
        }
      ],
      "name": "setMaximumRental",
      "outputs": [],
      "stateMutability": "nonpayable",
      "type": "function"
    },
    {
      "inputs": [
        {
          "internalType": "address",
          "name": "renter",
          "type": "address"
        }
      ],
      "name": "getRentalsByAdresses",
      "outputs": [
        {
          "internalType": "uint256",
          "name": "",
          "type": "uint256"
        }
      ],
      "stateMutability": "view",
      "type": "function"
    },
    {
      "inputs": [
        {
          "internalType": "address",
          "name": "_bikeRentOwner",
          "type": "address"
        },
        {
          "internalType": "uint256",
          "name": "_dateMin",
          "type": "uint256"
        },
        {
          "internalType": "uint256",
          "name": "_dateMax",
          "type": "uint256"
        },
        {
          "internalType": "uint256",
          "name": "_rentalTime",
          "type": "uint256"
        },
        {
          "internalType": "uint256",
          "name": "_rate",
          "type": "uint256"
        },
        {
          "internalType": "uint256",
          "name": "_depositAmount",
          "type": "uint256"
        },
        {
          "internalType": "uint256",
          "name": "date",
          "type": "uint256"
        },
        {
          "internalType": "string",
          "name": "_latitude",
          "type": "string"
        },
        {
          "internalType": "string",
          "name": "_longitude",
          "type": "string"
        }
      ],
      "name": "setProposal",
      "outputs": [],
      "stateMutability": "nonpayable",
      "type": "function"
    },
    {
      "inputs": [],
      "name": "getProposalsLength",
      "outputs": [
        {
          "internalType": "uint256",
          "name": "",
          "type": "uint256"
        }
      ],
      "stateMutability": "view",
      "type": "function"
    },
    {
      "inputs": [
        {
          "internalType": "address",
          "name": "renter",
          "type": "address"
        }
      ],
      "name": "getRentalsLength",
      "outputs": [
        {
          "internalType": "uint256",
          "name": "",
          "type": "uint256"
        }
      ],
      "stateMutability": "view",
      "type": "function"
    },
    {
      "inputs": [],
      "name": "deleteOldProposals",
      "outputs": [
        {
          "internalType": "bool",
          "name": "",
          "type": "bool"
        }
      ],
      "stateMutability": "nonpayable",
      "type": "function"
    },
    {
      "inputs": [
        {
          "internalType": "address",
          "name": "_bikeRent",
          "type": "address"
        },
        {
          "internalType": "uint256",
          "name": "_meetingHour",
          "type": "uint256"
        },
        {
          "internalType": "string",
          "name": "_latitude",
          "type": "string"
        },
        {
          "internalType": "string",
          "name": "_longitude",
          "type": "string"
        }
      ],
      "name": "acceptProposal",
      "outputs": [],
      "stateMutability": "nonpayable",
      "type": "function"
    },
    {
      "inputs": [
        {
          "internalType": "address",
          "name": "_bikerent",
          "type": "address"
        }
      ],
      "name": "cancelProposal",
      "outputs": [],
      "stateMutability": "nonpayable",
      "type": "function"
    },
    {
      "inputs": [
        {
          "internalType": "string",
          "name": "_rentalToken",
          "type": "string"
        }
      ],
      "name": "confirmBikeTaken",
      "outputs": [],
      "stateMutability": "nonpayable",
      "type": "function"
    },
    {
      "inputs": [
        {
          "internalType": "address",
          "name": "_bikeRentOwner",
          "type": "address"
        }
      ],
      "name": "returnedBike",
      "outputs": [],
      "stateMutability": "nonpayable",
      "type": "function"
    },
    {
      "inputs": [
        {
          "internalType": "string",
          "name": "_rentalToken",
          "type": "string"
        }
      ],
      "name": "confirmBikeReturned",
      "outputs": [],
      "stateMutability": "nonpayable",
      "type": "function"
    },
    {
      "inputs": [],
      "name": "cancelLending",
      "outputs": [],
      "stateMutability": "nonpayable",
      "type": "function"
    },
    {
      "inputs": [
        {
          "internalType": "address",
          "name": "_bikeRentOwner",
          "type": "address"
        }
      ],
      "name": "cancelledRenting",
      "outputs": [],
      "stateMutability": "nonpayable",
      "type": "function"
    },
    {
      "inputs": [
        {
          "internalType": "uint256",
          "name": "_amount",
          "type": "uint256"
        }
      ],
      "name": "withdrawFunds",
      "outputs": [],
      "stateMutability": "nonpayable",
      "type": "function"
    },
    {
      "inputs": [],
      "name": "destroy",
      "outputs": [
        {
          "internalType": "bool",
          "name": "",
          "type": "bool"
        }
      ],
      "stateMutability": "nonpayable",
      "type": "function"
    }
  ],
  "bytecode": "0x6080604052600a6006556202a300600755620151806008553480156200002457600080fd5b5060405162004bb738038062004bb783398101604081905262000047916200020d565b8585836001600160a01b038316158015906200006b57506001600160a01b03821615155b80156200008057506001600160a01b03811615155b6200008a57600080fd5b60048054600580546001600160a01b039586166001600160a01b031991821617909155600b805494861694909116939093179092556001600160a81b031990911692821692909217600160a01b17909155841615801590620000f457506001600160a01b03831615155b80156200010957506001600160a01b03811615155b620001495760405162461bcd60e51b815260206004820152600b60248201526a626164206164647265737360a81b60448201526064015b60405180910390fd5b336001600160a01b03841614620001885760405162461bcd60e51b81526020600482015260026024820152611ddb60f21b604482015260640162000140565b600d80546001600160a01b03199081166001600160a01b0396871617909155600c8054821694861694909417909355600e805490931693169290921790555050620151806011555068056bc75e2d63100000600f55680ad78ebc5ac62000006010556200028e565b80516001600160a01b03811681146200020857600080fd5b919050565b60008060008060008060c087890312156200022757600080fd5b6200023287620001f0565b95506200024260208801620001f0565b94506200025260408801620001f0565b93506200026260608801620001f0565b92506200027260808801620001f0565b91506200028260a08801620001f0565b90509295509295509295565b614919806200029e6000396000f3fe608060405234801561001057600080fd5b506004361061023d5760003560e01c806383197ef01161013b578063c520e74a116100b8578063dd4b22d11161007c578063dd4b22d1146104fb578063e19f3aee14610504578063e627f2db14610517578063f476e8c71461051f578063f7b2a7be1461053257600080fd5b8063c520e74a146104bc578063c95dee79146104cf578063cdaa4192146104e2578063d0759c56146104ea578063d771642a146104f257600080fd5b8063af8df99d116100ff578063af8df99d14610485578063b465c3c01461037e578063b8f58f7214610498578063bc378a73146104a1578063bf0058d0146104a957600080fd5b806383197ef0146104415780638da5cb5b146104495780638f0360721461045c57806393736bb41461046f578063a63049521461047857600080fd5b8063372500ab116101c9578063660353901161018d57806366035390146103c35780636d8cee56146103e45780636dcf811d146103f75780637525b9221461041b5780638046c8ac1461042e57600080fd5b8063372500ab146103635780633bafdcbc1461036b5780633e1464171461037e578063419759f5146103a757806358b2d207146103b057600080fd5b80631f54257e116102105780631f54257e146102f2578063242f17a9146103055780632c4e722e14610330578063301099621461034757806334fcf4371461035057600080fd5b8063013cf08b14610242578063090fc58b1461029f5780630c6986b3146102ca578063155dd5ee146102df575b600080fd5b610255610250366004613e6d565b61053b565b604080519889526001600160a01b039097166020890152958701949094526060860192909252608085015260a084015260c0830152151560e0820152610100015b60405180910390f35b6102b26102ad366004613e9e565b61059e565b6040516102969c9b9a99989796959493929190613f1a565b6102dd6102d8366004613f91565b6106b8565b005b6102dd6102ed366004613e6d565b61096c565b6102dd610300366004613ffe565b610cd0565b601854610318906001600160a01b031681565b6040516001600160a01b039091168152602001610296565b610339600f5481565b604051908152602001610296565b61033960075481565b6102dd61035e366004613e6d565b610f84565b6102dd610fc0565b6102dd610379366004614040565b6110fd565b61033961038c366004613f91565b6001600160a01b031660009081526017602052604090205490565b61033960105481565b6102dd6103be366004613e6d565b611781565b6103d66103d1366004613f91565b6117f9565b6040516102969291906140cc565b6102dd6103f2366004613e6d565b611925565b60045461040b90600160a01b900460ff1681565b6040519015158152602001610296565b6102dd6104293660046140fa565b6119bb565b6102dd61043c366004613e6d565b611f1c565b61040b61210d565b600454610318906001600160a01b031681565b600554610318906001600160a01b031681565b61033960015481565b60125461040b9060ff1681565b6102dd610493366004613f91565b612628565b61033960115481565b601354610339565b6102dd6104b73660046141bf565b6127f8565b6103d66104ca366004613f91565b6128f8565b6102dd6104dd3660046141bf565b612913565b6102dd612a1d565b61040b612b2c565b61033960085481565b61033960005481565b6102dd610512366004613f91565b612bf2565b610339612fbb565b6102dd61052d366004613ffe565b613019565b61033960065481565b6013818154811061054b57600080fd5b6000918252602090912060089091020180546001820154600283015460038401546004850154600586015460068701546007909701549597506001600160a01b0390941695929491939092909160ff1688565b601760205281600052604060002081815481106105ba57600080fd5b600091825260209091206008909102018054600182015460028301546003840154600485015460058601546006870154600788018054979a50959850939692959194909360ff80821694610100830482169462010000840483169463010000008504841694640100000000900490931692906106359061422b565b80601f01602080910402602001604051908101604052809291908181526020018280546106619061422b565b80156106ae5780601f10610683576101008083540402835291602001916106ae565b820191906000526020600020905b81548152906001019060200180831161069157829003601f168201915b505050505090508c565b600454600160a01b900460ff16156106eb5760405162461bcd60e51b81526004016106e290614265565b60405180910390fd5b600d546040516370a0823160e01b81526001600160a01b03808416600483015283926000929116906370a0823190602401602060405180830381865afa158015610739573d6000803e3d6000fd5b505050506040513d601f19601f8201168201806040525081019061075d919061428a565b1161077a5760405162461bcd60e51b81526004016106e2906142a3565b600e54601580546001600160a01b0319166001600160a01b0392831690811790915560405162d9267b60e31b81529183166004830152906306c933d890602401606060405180830381865afa1580156107d7573d6000803e3d6000fd5b505050506040513d601f19601f820116820180604052508101906107fb91906142ee565b516108185760405162461bcd60e51b81526004016106e290614357565b60155460405162d9267b60e31b81526001600160a01b038381166004830152339216906306c933d890602401606060405180830381865afa158015610861573d6000803e3d6000fd5b505050506040513d601f19601f8201168201806040525081019061088591906142ee565b602001516001600160a01b0316146108af5760405162461bcd60e51b81526004016106e290614357565b60125460ff1680156108cb57506018546001600160a01b031615155b6108e75760405162461bcd60e51b81526004016106e290614373565b6018546001600160a01b03166000908152601660205260408120805461090c9061422b565b905011801561094257506018546001600160a01b03166000908152601660205260408120600101805461093e9061422b565b9050115b61095e5760405162461bcd60e51b81526004016106e290614398565b6109686001613417565b5050565b600454600160a01b900460ff16156109965760405162461bcd60e51b81526004016106e290614265565b6004546001600160a01b031633146109c05760405162461bcd60e51b81526004016106e2906143b8565b600081116109f85760405162461bcd60e51b815260206004820152600560248201526404e6f7420360dc1b60448201526064016106e2565b6005546040516370a0823160e01b81523060048201526000916001600160a01b0316906370a0823190602401602060405180830381865afa158015610a41573d6000803e3d6000fd5b505050506040513d601f19601f82011682018060405250810190610a65919061428a565b60125490915060009060ff168015610a8757506018546001600160a01b031615155b15610c2c576018546001600160a01b031660009081526017602052604081208054610ab4906001906143f2565b81548110610ac457610ac461440b565b600091825260209182902060408051610180810182526008909302909101805483526001810154938301939093526002830154908201526003820154606082015260048201546080820152600582015460a0820152600682015460ff808216151560c08401526101008083048216151560e08501526201000083048216151590840152630100000082048116151561012084015264010000000090910416151561014082015260078201805491929161016084019190610b839061422b565b80601f0160208091040260200160405190810160405280929190818152602001828054610baf9061422b565b8015610bfc5780601f10610bd157610100808354040283529160200191610bfc565b820191906000526020600020905b815481529060010190602001808311610bdf57829003601f168201915b505050505081525050905080610120015115156001151514610c22578060a00151610c28565b80606001515b9150505b82610c3782846143f2565b11610c715760405162461bcd60e51b815260206004820152600a60248201526909cdee840cadcdeeaced60b31b60448201526064016106e2565b600454600554610c8e916001600160a01b03918216911685613737565b60408051848152426020820152309133917fb933d9f5921d73b25377b9ffc45ea2914238b8379c2098a3178e766cb8f326d491015b60405180910390a3505050565b600454600160a01b900460ff1615610cfa5760405162461bcd60e51b81526004016106e290614265565b6004546001600160a01b03163314610d245760405162461bcd60e51b81526004016106e2906143b8565b60125460ff168015610d4057506018546001600160a01b031615155b610d5c5760405162461bcd60e51b81526004016106e290614373565b6018546001600160a01b031660009081526016602052604081208054610d819061422b565b9050118015610db757506018546001600160a01b031660009081526016602052604081206001018054610db39061422b565b9050115b610dd35760405162461bcd60e51b81526004016106e290614398565b6018546001600160a01b031660009081526017602052604081208054610dfb906001906143f2565b81548110610e0b57610e0b61440b565b906000526020600020906008020190508060060160039054906101000a900460ff1615610e625760405162461bcd60e51b81526020600482015260056024820152643a30b5b2b760d91b60448201526064016106e2565b601e8214610e9c5760405162461bcd60e51b81526020600482015260076024820152661a5b9d985b1a5960ca1b60448201526064016106e2565b601854601480546001600160a01b0319166001600160a01b039283169081179091556004805460405163be3f22eb60e01b8152929363be3f22eb93610eea939290911691889188910161444a565b600060405180830381600087803b158015610f0457600080fd5b505af1158015610f18573d6000803e3d6000fd5b50505060068201805463ff00000019166301000000179055506018546001600160a01b03166000818152601660205260409081902090513092917f58441e06988866f5582b245c6d5073b65d386d56d2d7f2ee714ae642aba451bf91610cc391429160018201906144ec565b6004546001600160a01b03163314610fae5760405162461bcd60e51b81526004016106e2906143b8565b60008111610fbb57600080fd5b600f55565b600454600160a01b900460ff1615610fea5760405162461bcd60e51b81526004016106e290614265565b6004546001600160a01b031633146110145760405162461bcd60e51b81526004016106e2906143b8565b6000600354116110505760405162461bcd60e51b81526020600482015260076024820152666e6f7468696e6760c81b60448201526064016106e2565b600380546000909155600b5460405163255d23d760e11b8152336004820152602481018390526001600160a01b0390911690634aba47ae90604401600060405180830381600087803b1580156110a557600080fd5b505af11580156110b9573d6000803e3d6000fd5b505060408051428152602081018590523093503392507f4bbe6b9abde3c57178a72bffd1868d868a0562c805a8effd250d9f76a2bd8280910160405180910390a350565b600454600160a01b900460ff16156111275760405162461bcd60e51b81526004016106e290614265565b6004546001600160a01b031633146111515760405162461bcd60e51b81526004016106e2906143b8565b60125460ff161580156111645750600085115b8015611171575060135415155b6111aa5760405162461bcd60e51b815260206004820152600a6024820152696261642076616c75657360b01b60448201526064016106e2565b6001600160a01b038616158015906111d057506004546001600160a01b03878116911614155b80156111e557506001600160a01b0386163014155b61121f5760405162461bcd60e51b815260206004820152600b60248201526a626164206164647265737360a81b60448201526064016106e2565b821580159061122d57508015155b6112495760405162461bcd60e51b81526004016106e290614398565b60008080805b6013548310156116c657896001600160a01b0316601384815481106112765761127661440b565b60009182526020909120600160089092020101546001600160a01b0316036116b4576000601384815481106112ad576112ad61440b565b6000918252602091829020604080516101008101825260089093029091018054835260018101546001600160a01b03169383019390935260028301549082018190526003830154606083015260048301546080830152600583015460a0830152600683015460c083015260079092015460ff16151560e082015291508a1080159061133c575080606001518a11155b6113735760405162461bcd60e51b81526020600482015260086024820152673130b2103437bab960c11b60448201526064016106e2565b60008160a0015162015180836080015161138d9190614537565b611397919061454b565b606083015160808401516020850151601480546001600160a01b0319166001600160a01b0390921691909117905560c085015191965094509091506113dc9082614562565b60055460208401516040516370a0823160e01b81526001600160a01b0391821660048201529116906370a0823190602401602060405180830381865afa15801561142a573d6000803e3d6000fd5b505050506040513d601f19601f8201168201806040525081019061144e919061428a565b10156114895760405162461bcd60e51b815260206004820152600a60248201526909cdee840cadcdeeaced60b31b60448201526064016106e2565b6014546004805460c08501516040516303a437c560e51b81526001600160a01b039283169381019390935260248301859052604483015260648201869052608482018e90528d921690637486f8a09060a401600060405180830381600087803b1580156114f557600080fd5b505af1158015611509573d6000803e3d6000fd5b5050505061152281846020015186858760c0015161379a565b600160e084018190526012805460ff191690911790556115428482614562565b61154f906202a300614562565b600155602083810151601880546001600160a01b0319166001600160a01b0390921691909117905560408051601f8d018390049092028201606090810182529082018c815282918e908e9081908501838280828437600092019190915250505090825250604080516020601f8d018190048102820181019092528b815291810191908c908c908190840183828082843760009201829052509390945250506018546001600160a01b031681526016602052604090208251909150819061161590826145c3565b506020820151600182019061162a90826145c3565b50506000805491508061163c83614683565b909155505060208084015160a08086015160c0870151604080518a81529586018790528501919091526060840152608083018590526001600160a01b03909116917f5b9d750bc091c053cf6d861d7a8c4708db4a61c03df21830c1e604ff82c3c467910160405180910390a2600196505050506116c6565b826116be81614683565b93505061124f565b836116ff5760405162461bcd60e51b81526020600482015260096024820152681b9bdd08199bdd5b9960ba1b60448201526064016106e2565b611708836139e2565b5060005b60135481101561177457838114158015611752575061172b8284614562565b6013828154811061173e5761173e61440b565b906000526020600020906008020160000154105b1561176257611760816139e2565b505b8061176c81614683565b91505061170c565b5050505050505050505050565b600454600160a01b900460ff16156117ab5760405162461bcd60e51b81526004016106e290614265565b6004546001600160a01b031633146117d55760405162461bcd60e51b81526004016106e2906143b8565b6201518081101580156117eb575062093a808111155b6117f457600080fd5b601155565b6016602052600090815260409020805481906118149061422b565b80601f01602080910402602001604051908101604052809291908181526020018280546118409061422b565b801561188d5780601f106118625761010080835404028352916020019161188d565b820191906000526020600020905b81548152906001019060200180831161187057829003601f168201915b5050505050908060010180546118a29061422b565b80601f01602080910402602001604051908101604052809291908181526020018280546118ce9061422b565b801561191b5780601f106118f05761010080835404028352916020019161191b565b820191906000526020600020905b8154815290600101906020018083116118fe57829003601f168201915b5050505050905082565b600454600160a01b900460ff161561194f5760405162461bcd60e51b81526004016106e290614265565b6004546001600160a01b031633146119795760405162461bcd60e51b81526004016106e2906143b8565b600081116119b65760405162461bcd60e51b815260206004820152600a60248201526904d757374206e6f7420360b41b60448201526064016106e2565b601055565b600454600160a01b900460ff16156119e55760405162461bcd60e51b81526004016106e290614265565b600d546040516370a0823160e01b81526001600160a01b03808e1660048301528d926000929116906370a0823190602401602060405180830381865afa158015611a33573d6000803e3d6000fd5b505050506040513d601f19601f82011682018060405250810190611a57919061428a565b11611a745760405162461bcd60e51b81526004016106e2906142a3565b600e54601580546001600160a01b0319166001600160a01b0392831690811790915560405162d9267b60e31b81529183166004830152906306c933d890602401606060405180830381865afa158015611ad1573d6000803e3d6000fd5b505050506040513d601f19601f82011682018060405250810190611af591906142ee565b51611b125760405162461bcd60e51b81526004016106e290614357565b60155460405162d9267b60e31b81526001600160a01b038381166004830152339216906306c933d890602401606060405180830381865afa158015611b5b573d6000803e3d6000fd5b505050506040513d601f19601f82011682018060405250810190611b7f91906142ee565b602001516001600160a01b031614611ba95760405162461bcd60e51b81526004016106e290614357565b60005b601354811015611c3e57336001600160a01b031660138281548110611bd357611bd361440b565b60009182526020909120600160089092020101546001600160a01b031603611c2c5760405162461bcd60e51b815260206004820152600c60248201526b616c726561647920646f6e6560a01b60448201526064016106e2565b80611c3681614683565b915050611bac565b5060135460051015611c7d5760405162461bcd60e51b8152602060048201526008602482015267546f6f206d616e7960c01b60448201526064016106e2565b611c8a620151808a61469c565b158015611c9957506008548910155b8015611ca757506011548911155b611cde5760405162461bcd60e51b81526020600482015260086024820152676261642074696d6560c01b60448201526064016106e2565b611cea42611c20614562565b8b118015611d03575061a8c0611d008c8c6143f2565b11155b611d3b5760405162461bcd60e51b815260206004820152600960248201526862616420646174657360b81b60448201526064016106e2565b600088118015611d4d57506000601054115b611d855760405162461bcd60e51b81526020600482015260096024820152686261642076616c756560b81b60448201526064016106e2565b8315801590611d9357508115155b611daf5760405162461bcd60e51b81526004016106e290614398565b6000604051806101000160405280888152602001336001600160a01b031681526020018d81526020018c81526020018b81526020018a815260200189815260200160001515815250905060138190806001815401808255809150506001900390600052602060002090600802016000909190919091506000820151816000015560208201518160010160006101000a8154816001600160a01b0302191690836001600160a01b0316021790555060408201518160020155606082015181600301556080820151816004015560a0820151816005015560c0820151816006015560e08201518160070160006101000a81548160ff0219169083151502179055505050306001600160a01b0316336001600160a01b03167fa525a3c742fc5bd56efc0e8bb27f6fb6037555aa4b86113bb39e7929b18d14e3898f8f8f8f8f8e8e8e8e604051611f059a999897969594939291906146b0565b60405180910390a350505050505050505050505050565b600454600160a01b900460ff1615611f465760405162461bcd60e51b81526004016106e290614265565b600554604051636eb1769f60e11b8152336004820152306024820152829182916001600160a01b039091169063dd62ed3e90604401602060405180830381865afa158015611f98573d6000803e3d6000fd5b505050506040513d601f19601f82011682018060405250810190611fbc919061428a565b1015611ff55760405162461bcd60e51b8152602060048201526008602482015267185c1c1c9bdd985b60c21b60448201526064016106e2565b6000821161202b5760405162461bcd60e51b815260206004820152600360248201526218985960ea1b60448201526064016106e2565b6005546040516370a0823160e01b815233600482015283916001600160a01b0316906370a0823190602401602060405180830381865afa158015612073573d6000803e3d6000fd5b505050506040513d601f19601f82011682018060405250810190612097919061428a565b10156120b55760405162461bcd60e51b81526004016106e29061470f565b6005546120cd906001600160a01b0316333085613bcd565b60408051838152426020820152309133917f224b1db9c133c01e120ca7551e3b56fec93a1f208e1c0509c23361a560a61026910160405180910390a35050565b600c546000906001600160a01b0316331461213a5760405162461bcd60e51b81526004016106e290614357565b6001544210156121745760405162461bcd60e51b815260206004820152600560248201526464656c617960d81b60448201526064016106e2565b60125460ff16801561219057506018546001600160a01b031615155b15612448576018546001600160a01b0316600090815260176020526040812080546121bd906001906143f2565b815481106121cd576121cd61440b565b600091825260209182902060408051610180810182526008909302909101805483526001810154938301939093526002830154908201526003820154606082015260048201546080820152600582015460a0820152600682015460ff808216151560c08401526101008083048216151560e0850152620100008304821615159084015263010000008204811615156101208401526401000000009091041615156101408201526007820180549192916101608401919061228c9061422b565b80601f01602080910402602001604051908101604052809291908181526020018280546122b89061422b565b80156123055780601f106122da57610100808354040283529160200191612305565b820191906000526020600020905b8154815290600101906020018083116122e857829003601f168201915b505050919092525050601854601480546001600160a01b0319166001600160a01b03928316908117909155600b546004805460408051638da5cb5b60e01b815290519798509285169663293e301996509416938392638da5cb5b92818101926020929091908290030181865afa158015612383573d6000803e3d6000fd5b505050506040513d601f19601f820116820180604052508101906123a79190614735565b60608601516040516001600160e01b031960e087901b1681526001600160a01b039485166004820152928416602484015292166044820152426064820152608481019190915260a401600060405180830381600087803b15801561240a57600080fd5b505af115801561241e573d6000803e3d6000fd5b5050600b54606084015160055461244694506001600160a01b03908116935090911690613737565b505b6004805460ff60a01b1916600160a01b1781556009805460ff191660011790556005546040516370a0823160e01b815230928101929092526000916001600160a01b03909116906370a0823190602401602060405180830381865afa1580156124b5573d6000803e3d6000fd5b505050506040513d601f19601f820116820180604052508101906124d9919061428a565b111561256c57600480546005546040516370a0823160e01b8152309381019390935261256c926001600160a01b0392831692909116906370a0823190602401602060405180830381865afa158015612535573d6000803e3d6000fd5b505050506040513d601f19601f82011682018060405250810190612559919061428a565b6005546001600160a01b03169190613737565b600354156125eb57600380546000909155600b546004805460405163255d23d760e11b81526001600160a01b03918216928101929092526024820184905290911690634aba47ae90604401600060405180830381600087803b1580156125d157600080fd5b505af11580156125e5573d6000803e3d6000fd5b50505050505b604051428152309033907f05bec130a67bc2853b0a7f5cfe8590b473fcc3342360d8933fb7064b1ebf8b6d9060200160405180910390a350600190565b600454600160a01b900460ff16156126525760405162461bcd60e51b81526004016106e290614265565b6004546001600160a01b0316331461267c5760405162461bcd60e51b81526004016106e2906143b8565b6001600160a01b038116158015906126a257506004546001600160a01b03828116911614155b80156126b757506001600160a01b0381163014155b6126f15760405162461bcd60e51b815260206004820152600b60248201526a626164206164647265737360a81b60448201526064016106e2565b60135461272a5760405162461bcd60e51b81526020600482015260076024820152666e6f7468696e6760c81b60448201526064016106e2565b60005b60135481101561096857816001600160a01b0316601382815481106127545761275461440b565b60009182526020909120600160089092020101546001600160a01b0316036127e657601381815481106127895761278961440b565b600091825260209091206007600890920201015460ff16156127d85760405162461bcd60e51b81526020600482015260086024820152671858d8d95c1d195960c21b60448201526064016106e2565b6127e1816139e2565b505050565b806127f081614683565b91505061272d565b6004546001600160a01b031633146128225760405162461bcd60e51b81526004016106e2906143b8565b600454600160a01b900460ff16801561283e575060095460ff16155b6128785760405162461bcd60e51b815260206004820152600b60248201526a756e617661696c61626c6560a81b60448201526064016106e2565b821580159061288657508015155b6128a25760405162461bcd60e51b81526004016106e290614398565b6128ae84848484612913565b6004805460ff60a01b19169055604051428152309033907f975a71b6f0e7c3037baf066252bb3dde490161b5536420b1954b32b39316f7b79060200160405180910390a350505050565b600a602052600090815260409020805481906118149061422b565b6004546001600160a01b0316331461293d5760405162461bcd60e51b81526004016106e2906143b8565b60095460ff161561297c5760405162461bcd60e51b815260206004820152600960248201526819195cdd1c9bde595960ba1b60448201526064016106e2565b821580159061298a57508015155b6129a65760405162461bcd60e51b81526004016106e290614398565b306000908152600a60205260409020806129c1858783614752565b50600181016129d1838583614752565b50604051309033907f6cad0fcdfd6b730f10e1bef22b48067bd4880a9e9bec47880bceb85733be339690612a0e9042908a908a908a908a90614813565b60405180910390a35050505050565b600454600160a01b900460ff1615612a475760405162461bcd60e51b81526004016106e290614265565b60125460ff168015612a6357506018546001600160a01b031615155b612a7f5760405162461bcd60e51b81526004016106e290614373565b6018546001600160a01b031660009081526016602052604081208054612aa49061422b565b9050118015612ada57506018546001600160a01b031660009081526016602052604081206001018054612ad69061422b565b9050115b612af65760405162461bcd60e51b81526004016106e290614398565b6004546001600160a01b03163314612b205760405162461bcd60e51b81526004016106e2906143b8565b612b2a6000613417565b565b600454600090600160a01b900460ff1615612b595760405162461bcd60e51b81526004016106e290614265565b6004546001600160a01b03163314612b835760405162461bcd60e51b81526004016106e2906143b8565b60005b601354811015612bea5760075460138281548110612ba657612ba661440b565b90600052602060002090600802016000015442612bc391906143f2565b1115612bd857612bd2816139e2565b50612b86565b80612be281614683565b915050612b86565b600191505090565b600454600160a01b900460ff1615612c1c5760405162461bcd60e51b81526004016106e290614265565b600d546040516370a0823160e01b81526001600160a01b03808416600483015283926000929116906370a0823190602401602060405180830381865afa158015612c6a573d6000803e3d6000fd5b505050506040513d601f19601f82011682018060405250810190612c8e919061428a565b11612cab5760405162461bcd60e51b81526004016106e2906142a3565b600e54601580546001600160a01b0319166001600160a01b0392831690811790915560405162d9267b60e31b81529183166004830152906306c933d890602401606060405180830381865afa158015612d08573d6000803e3d6000fd5b505050506040513d601f19601f82011682018060405250810190612d2c91906142ee565b51612d495760405162461bcd60e51b81526004016106e290614357565b60155460405162d9267b60e31b81526001600160a01b038381166004830152339216906306c933d890602401606060405180830381865afa158015612d92573d6000803e3d6000fd5b505050506040513d601f19601f82011682018060405250810190612db691906142ee565b602001516001600160a01b031614612de05760405162461bcd60e51b81526004016106e290614357565b60125460ff168015612dfc57506018546001600160a01b031615155b612e185760405162461bcd60e51b81526004016106e290614373565b6018546001600160a01b031660009081526016602052604081208054612e3d9061422b565b9050118015612e7357506018546001600160a01b031660009081526016602052604081206001018054612e6f9061422b565b9050115b612e8f5760405162461bcd60e51b81526004016106e290614398565b6018546001600160a01b03163314612eda5760405162461bcd60e51b815260206004820152600e60248201526d31bab93932b73a103932b73a32b960911b60448201526064016106e2565b6018546001600160a01b031660009081526017602052604081208054612f02906001906143f2565b81548110612f1257612f1261440b565b906000526020600020906008020190508060060160029054906101000a900460ff1615612f725760405162461bcd60e51b815260206004820152600e60248201526d1cd9595b5cc81c995d1d5c9b995960921b60448201526064016106e2565b60068101805462ff0000191662010000179055604051309033907f729121cdd407f14c64c9ac6675d96b747e07df398480f86c9ff9ce27d72291b590610cc39042815260200190565b600454600090600160a01b900460ff1615612fe85760405162461bcd60e51b81526004016106e290614265565b6004546001600160a01b031633146130125760405162461bcd60e51b81526004016106e2906143b8565b5060035490565b600454600160a01b900460ff16156130435760405162461bcd60e51b81526004016106e290614265565b6004546001600160a01b0316331461306d5760405162461bcd60e51b81526004016106e2906143b8565b60125460ff16801561308957506018546001600160a01b031615155b6130a55760405162461bcd60e51b81526004016106e290614373565b6018546001600160a01b0316600090815260166020526040812080546130ca9061422b565b905011801561310057506018546001600160a01b0316600090815260166020526040812060010180546130fc9061422b565b9050115b61311c5760405162461bcd60e51b81526004016106e290614398565b601e81146131565760405162461bcd60e51b81526020600482015260076024820152661a5b9d985b1a5960ca1b60448201526064016106e2565b6018546001600160a01b03166000908152601760205260408120805461317e906001906143f2565b8154811061318e5761318e61440b565b906000526020600020906008020190508060060160029054906101000a900460ff1680156131c957506006810154640100000000900460ff16155b6132015760405162461bcd60e51b815260206004820152600960248201526862616420737461746560b81b60448201526064016106e2565b60038101546005546040516370a0823160e01b815230600482015282916001600160a01b0316906370a0823190602401602060405180830381865afa15801561324e573d6000803e3d6000fd5b505050506040513d601f19601f82011682018060405250810190613272919061428a565b10156132905760405162461bcd60e51b81526004016106e29061470f565b601854601480546001600160a01b0319166001600160a01b0392831690811790915560048054604051630bfcef3560e01b81529293630bfcef35936132de939290911691899189910161444a565b600060405180830381600087803b1580156132f857600080fd5b505af115801561330c573d6000803e3d6000fd5b50505060068301805464ff0000000019166401000000001790555060048201546018546001600160a01b031660009081526002602052604081208054839290613356908490614562565b92505081905550806003600082825461336f9190614562565b90915550506012805460ff19169055601880546001600160a01b031981169091556005546001600160a01b03918216916133ab91168285613737565b83546018546001600160a01b039081166000908152601660205260409081902090513093928516927fd1f1a30283b7ed6d050782e027445c7aa39a1666d996d3e3bf09ec20ac74800b926134079289914291600182019061484c565b60405180910390a3505050505050565b6018546001600160a01b03166000908152601760205260408120805461343f906001906143f2565b8154811061344f5761344f61440b565b906000526020600020906008020190508060060160039054906101000a900460ff1615801561348857506006810154610100900460ff16155b6134c05760405162461bcd60e51b815260206004820152600960248201526862616420737461746560b81b60448201526064016106e2565b600080826002015483600301546134d79190614562565b90508315613522576018546001600160a01b031633146135225760405162461bcd60e51b81526020600482015260066024820152653932b73a32b960d11b60448201526064016106e2565b83801561353957506018546001600160a01b031633145b80156135535750825461354f90611c20906143f2565b4210155b61355d5780613586565b61271083600201546103e8613572919061454b565b61357c9190614537565b61358690826143f2565b6005546040516370a0823160e01b815230600482015291935083916001600160a01b03909116906370a0823190602401602060405180830381865afa1580156135d3573d6000803e3d6000fd5b505050506040513d601f19601f820116820180604052508101906135f7919061428a565b10156136155760405162461bcd60e51b81526004016106e29061470f565b8361369f57601854601480546001600160a01b0319166001600160a01b039283169081179091556004805460405163778f520b60e01b81529182018690529092166024830152600160448301529063778f520b90606401600060405180830381600087803b15801561368657600080fd5b505af115801561369a573d6000803e3d6000fd5b505050505b60068301805461ff0019166101001790556012805460ff1916905542600155601880546001600160a01b031981169091556005546001600160a01b03918216916136eb91168285613737565b83546040805191825260208201859052429082015230906001600160a01b038316907f8dba7674f4ebd6a9e5e12953a7582d0a9dd220e6c27941dec40f27ff52d6722f90606001612a0e565b6040516001600160a01b0383166024820152604481018290526127e190849063a9059cbb60e01b906064015b60408051601f198184030181529190526020810180516001600160e01b03166001600160e01b031990931692909217909152613c0b565b600454600160a01b900460ff16156137c45760405162461bcd60e51b81526004016106e290614265565b612710600654836137d5919061454b565b6137e090606461454b565b10156137eb57600080fd5b6000612710600654846137fe919061454b565b61380990606461454b565b6138139190614537565b905060006138218385614562565b905060176000876001600160a01b03166001600160a01b03168152602001908152602001600020604051806101800160405280898152602001878152602001868152602001858152602001848152602001838152602001600115158152602001600015158152602001600015158152602001600015158152602001600015158152602001604051806020016040528060008152508152509080600181540180825580915050600190039060005260206000209060080201600090919091909150600082015181600001556020820151816001015560408201518160020155606082015181600301556080820151816004015560a0820151816005015560c08201518160060160006101000a81548160ff02191690831515021790555060e08201518160060160016101000a81548160ff0219169083151502179055506101008201518160060160026101000a81548160ff0219169083151502179055506101208201518160060160036101000a81548160ff0219169083151502179055506101408201518160060160046101000a81548160ff0219169083151502179055506101608201518160070190816139d691906145c3565b50505050505050505050565b600080601383815481106139f8576139f861440b565b60009182526020822060016008909202010154601380546001600160a01b0390921693509085908110613a2d57613a2d61440b565b906000526020600020906008020160000154905060136001601380549050613a5591906143f2565b81548110613a6557613a6561440b565b906000526020600020906008020160138581548110613a8657613a8661440b565b60009182526020909120825460089092020190815560018083015490820180546001600160a01b0319166001600160a01b0390921691909117905560028083015490820155600380830154908201556004808301549082015560058083015490820155600680830154908201556007918201549101805460ff909216151560ff199092169190911790556013805480613b2157613b21614883565b6000828152602081206008600019909301928302018181556001810180546001600160a01b0319169055600281018290556003810182905560048101829055600581018290556006810191909155600701805460ff19169055905560405130906001600160a01b038416907f1a07a16d411b1999de40db18a15f956f20021655f5dc8cf7685cdb7c9447710f90613bbb9085815260200190565b60405180910390a35060019392505050565b6040516001600160a01b0380851660248301528316604482015260648101829052613c059085906323b872dd60e01b90608401613763565b50505050565b6000613c60826040518060400160405280602081526020017f5361666545524332303a206c6f772d6c6576656c2063616c6c206661696c6564815250856001600160a01b0316613cdd9092919063ffffffff16565b8051909150156127e15780806020019051810190613c7e9190614899565b6127e15760405162461bcd60e51b815260206004820152602a60248201527f5361666545524332303a204552433230206f7065726174696f6e20646964206e6044820152691bdd081cdd58d8d9595960b21b60648201526084016106e2565b6060613cec8484600085613cf4565b949350505050565b606082471015613d555760405162461bcd60e51b815260206004820152602660248201527f416464726573733a20696e73756666696369656e742062616c616e636520666f6044820152651c8818d85b1b60d21b60648201526084016106e2565b600080866001600160a01b03168587604051613d7191906148b4565b60006040518083038185875af1925050503d8060008114613dae576040519150601f19603f3d011682016040523d82523d6000602084013e613db3565b606091505b5091509150613dc487838387613dcf565b979650505050505050565b60608315613e3e578251600003613e37576001600160a01b0385163b613e375760405162461bcd60e51b815260206004820152601d60248201527f416464726573733a2063616c6c20746f206e6f6e2d636f6e747261637400000060448201526064016106e2565b5081613cec565b613cec8383815115613e535781518083602001fd5b8060405162461bcd60e51b81526004016106e291906148d0565b600060208284031215613e7f57600080fd5b5035919050565b6001600160a01b0381168114613e9b57600080fd5b50565b60008060408385031215613eb157600080fd5b8235613ebc81613e86565b946020939093013593505050565b60005b83811015613ee5578181015183820152602001613ecd565b50506000910152565b60008151808452613f06816020860160208601613eca565b601f01601f19169290920160200192915050565b60006101808e83528d60208401528c60408401528b60608401528a60808401528960a084015288151560c084015287151560e084015286151561010084015285151561012084015284151561014084015280610160840152613f7e81840185613eee565b9f9e505050505050505050505050505050565b600060208284031215613fa357600080fd5b8135613fae81613e86565b9392505050565b60008083601f840112613fc757600080fd5b50813567ffffffffffffffff811115613fdf57600080fd5b602083019150836020828501011115613ff757600080fd5b9250929050565b6000806020838503121561401157600080fd5b823567ffffffffffffffff81111561402857600080fd5b61403485828601613fb5565b90969095509350505050565b6000806000806000806080878903121561405957600080fd5b863561406481613e86565b955060208701359450604087013567ffffffffffffffff8082111561408857600080fd5b6140948a838b01613fb5565b909650945060608901359150808211156140ad57600080fd5b506140ba89828a01613fb5565b979a9699509497509295939492505050565b6040815260006140df6040830185613eee565b82810360208401526140f18185613eee565b95945050505050565b60008060008060008060008060008060006101208c8e03121561411c57600080fd5b6141268c35613e86565b8b359a5060208c0135995060408c0135985060608c0135975060808c0135965060a08c0135955060c08c0135945067ffffffffffffffff8060e08e0135111561416e57600080fd5b61417e8e60e08f01358f01613fb5565b90955093506101008d013581101561419557600080fd5b506141a78d6101008e01358e01613fb5565b81935080925050509295989b509295989b9093969950565b600080600080604085870312156141d557600080fd5b843567ffffffffffffffff808211156141ed57600080fd5b6141f988838901613fb5565b9096509450602087013591508082111561421257600080fd5b5061421f87828801613fb5565b95989497509550505050565b600181811c9082168061423f57607f821691505b60208210810361425f57634e487b7160e01b600052602260045260246000fd5b50919050565b6020808252600b908201526a19195858dd1a5d985d195960aa1b604082015260600190565b60006020828403121561429c57600080fd5b5051919050565b602080825260069082015265139bc813919560d21b604082015260600190565b634e487b7160e01b600052604160045260246000fd5b805180151581146142e957600080fd5b919050565b60006060828403121561430057600080fd5b6040516060810181811067ffffffffffffffff82111715614323576143236142c3565b60405261432f836142d9565b8152602083015161433f81613e86565b60208201526040928301519281019290925250919050565b6020808252600290820152611ddb60f21b604082015260600190565b6020808252600b908201526a626164206c656e64696e6760a81b604082015260600190565b6020808252600690820152656e6f2047505360d01b604082015260600190565b6020808252600a908201526937b7363c9037bbb732b960b11b604082015260600190565b634e487b7160e01b600052601160045260246000fd5b81810381811115614405576144056143dc565b92915050565b634e487b7160e01b600052603260045260246000fd5b81835281816020850137506000828201602090810191909152601f909101601f19169091010190565b6001600160a01b03841681526040602082018190526000906140f19083018486614421565b6000815461447c8161422b565b80855260206001838116801561449957600181146144b3576144e1565b60ff1985168884015283151560051b8801830195506144e1565b866000528260002060005b858110156144d95781548a82018601529083019084016144be565b890184019650505b505050505092915050565b838152606060208201526000614505606083018561446f565b8281036040840152614517818561446f565b9695505050505050565b634e487b7160e01b600052601260045260246000fd5b60008261454657614546614521565b500490565b8082028115828204841417614405576144056143dc565b80820180821115614405576144056143dc565b601f8211156127e157600081815260208120601f850160051c8101602086101561459c5750805b601f850160051c820191505b818110156145bb578281556001016145a8565b505050505050565b815167ffffffffffffffff8111156145dd576145dd6142c3565b6145f1816145eb845461422b565b84614575565b602080601f831160018114614626576000841561460e5750858301515b600019600386901b1c1916600185901b1785556145bb565b600085815260208120601f198616915b8281101561465557888601518255948401946001909101908401614636565b50858210156146735787850151600019600388901b60f8161c191681555b5050505050600190811b01905550565b600060018201614695576146956143dc565b5060010190565b6000826146ab576146ab614521565b500690565b60006101008c83528b60208401528a60408401528960608401528860808401528760a08401528060c08401526146e98184018789614421565b905082810360e08401526146fe818587614421565b9d9c50505050505050505050505050565b6020808252600c908201526b125b9cdd59999a58da595b9d60a21b604082015260600190565b60006020828403121561474757600080fd5b8151613fae81613e86565b67ffffffffffffffff83111561476a5761476a6142c3565b61477e83614778835461422b565b83614575565b6000601f8411600181146147b2576000851561479a5750838201355b600019600387901b1c1916600186901b17835561480c565b600083815260209020601f19861690835b828110156147e357868501358255602094850194600190920191016147c3565b50868210156148005760001960f88860031b161c19848701351681555b505060018560011b0183555b5050505050565b85815260606020820152600061482d606083018688614421565b8281036040840152614840818587614421565b98975050505050505050565b85815284602082015283604082015260a06060820152600061487160a083018561446f565b8281036080840152614840818561446f565b634e487b7160e01b600052603160045260246000fd5b6000602082840312156148ab57600080fd5b613fae826142d9565b600082516148c6818460208701613eca565b9190910192915050565b602081526000613fae6020830184613eee56fea2646970667358221220d8f9c75779d554c5dda8f92ec21c631a01881f26e4c0545f9a117b7f80aa054764736f6c63430008120033",
  "immutableReferences": {},
  "source": "// SPDX-License-Identifier: CC-BY-4.0\npragma solidity ^0.8.17;\n/////////////////////////////////// BikeShare contract ///////////////////////////////////\n\n//import \"@openzeppelin/contracts/interfaces/IERC721.sol\";\nimport \"../node_modules/@openzeppelin/contracts/interfaces/IERC721.sol\";\nimport \"./Utilities.sol\";\n\n/**\n@title IrenterWhitelist Interface\n@notice This is the interface of the renters whitelist contract that manages the renter whitelist.\n*/\n\ninterface IrenterWhitelist {\n    struct Renter {\n        bool isWhitelisted;\n        address bikeRentContract;\n        uint NFTId;\n    }\n\n    function whitelistedAddresses(\n        address\n    ) external view returns (Renter memory);\n}\n\n/**\n@title IBikeRent Interface\n@notice This interface is used to communicate with the BikeRent contract.\n*/\n\ninterface IBikeRent {\n    function owner() external view returns (address);\n\n    function rentBike(\n        address _bikeShareContract,\n        uint _rentalPrice,\n        uint _depositAmount,\n        uint _rentalTime,\n        uint _rentalDate\n    ) external;\n\n    function cancelledLending(\n        uint _refund,\n        address _bikeShareOwner,\n        bool _isCancelledByLender\n    ) external;\n\n    function returnConfirmed(\n        address _bikeShareOwner,\n        string calldata lenderTempToken\n    ) external;\n\n    function confirmBikeInHands(\n        address _bikeShareOwner,\n        string calldata lenderTempToken\n    ) external;\n}\n\n/**\n * @title BikeShare Contract\n * @author Crypt0zaurus https://www.linkedin.com/in/maxence-a-a82081260\n * @notice This contract manages bike rentals and related operations.\n * @dev This contract inherits from Utilities and manages bike rentals.\n * @dev It uses SafeERC20 for ERC20 operations and contains multiple events for various\n */\n\ncontract BikeShare is Utilities {\n    using SafeERC20 for IERC20;\n    address whitelistLender;\n    address renterNFT;\n    address whitelistRenter;\n    uint public rate;\n    uint public depositAmount;\n    uint public maximumRental;\n    bool public isRented;\n\n    event BikeRented(\n        address indexed renter,\n        uint rentalTime,\n        uint rentalDate,\n        uint rate,\n        uint deposit,\n        uint rentalPrice\n    );\n\n    event BikeReturned(\n        uint rentalDate,\n        address indexed renter,\n        uint depositReturned,\n        uint returnDate,\n        address indexed lender,\n        string latitude,\n        string longitude\n    );\n\n    event RentingCancelled(\n        address indexed renter,\n        uint date,\n        uint depositReturned,\n        uint returnDate,\n        address indexed lender\n    );\n\n    event ProposalReceived(\n        address indexed renter,\n        uint date,\n        address indexed lender,\n        uint rentalDateMin,\n        uint rentalDateMax,\n        uint rentalTime,\n        uint rate,\n        uint depositAmount,\n        string latitude,\n        string longitude\n    );\n\n    event BikeTaken(\n        address indexed renter,\n        uint date,\n        address indexed lender,\n        string latitude,\n        string longitude\n    );\n\n    event RentalSeemsReturned(\n        address indexed renter,\n        uint date,\n        address indexed lender\n    );\n\n    struct Proposal {\n        uint date;\n        address _renter;\n        uint _rentalDateMin;\n        uint _rentalDateMax;\n        uint _rentalTime;\n        uint _rate;\n        uint _depositAmount;\n        bool _isAccepted;\n    }\n\n    Proposal[] public proposals;\n\n    struct Rental {\n        uint date;\n        uint rentalTime;\n        uint rentalPrice;\n        uint depositAmount;\n        uint rewardExpected;\n        uint amountAsked;\n        bool isAccepted;\n        bool isRefunded;\n        bool seemsReturned;\n        bool cantCancel;\n        bool isReturned;\n        string rentalToken;\n    }\n\n    IBikeRent bikeRent;\n\n    IrenterWhitelist private RenterWhitelist;\n\n    struct RentalGPS {\n        string latitude;\n        string longitude;\n    }\n\n    mapping(address => RentalGPS) public rentalGPSData;\n\n    // mapping of rentals, address of the renter is the key\n    mapping(address => Rental[]) public rentals;\n    address public currentRenter;\n\n    /**\n    @dev Contract constructor that sets initial values.\n    @param _lender The address of the lender.\n    @param _W2Rtoken The address of the W2R token.\n    @param _renterNFT The address of the renter NFT.\n    @param _whitelistLender The address of the whitelist lenders contract\n    @param _vaultW2R The address of the W2R token vault.\n    @param _whitelistRenter The address of the whitelist renters contract\n    */\n\n    constructor(\n        address _lender,\n        address _W2Rtoken,\n        address _renterNFT,\n        address _whitelistLender,\n        address _vaultW2R,\n        address _whitelistRenter\n    ) Utilities(_lender, _W2Rtoken, _vaultW2R) {\n        require(\n            _renterNFT != address(0) &&\n                _whitelistLender != address(0) &&\n                _whitelistRenter != address(0),\n            \"bad address\"\n        );\n        require(msg.sender == _whitelistLender, \"wl\");\n        renterNFT = _renterNFT;\n        whitelistLender = _whitelistLender;\n        whitelistRenter = _whitelistRenter;\n        // default values\n        maximumRental = 1 days;\n        rate = 100000000000000000000; // 100 W2R\n        depositAmount = 200000000000000000000; // 200 W2R\n    }\n\n    /**\n    @dev Modifier to check if a renter has the NFT.\n    @param _bikeRentOwner The address of the renter contract owner.\n    */\n\n    modifier checkRenterNFT(address _bikeRentOwner) {\n        require(IERC721(renterNFT).balanceOf(_bikeRentOwner) > 0, \"No NFT\");\n        RenterWhitelist = IrenterWhitelist(whitelistRenter);\n        require(\n            RenterWhitelist.whitelistedAddresses(_bikeRentOwner).isWhitelisted,\n            \"wl\"\n        );\n        require(\n            RenterWhitelist\n                .whitelistedAddresses(_bikeRentOwner)\n                .bikeRentContract == msg.sender,\n            \"wl\"\n        );\n        _;\n    }\n\n    /**\n    @dev Modifier for checking if the bike is currently rented.\n    */\n\n    modifier lending() {\n        require(isRented && currentRenter != address(0), \"bad lending\");\n        require(\n            bytes(rentalGPSData[currentRenter].latitude).length > 0 &&\n                bytes(rentalGPSData[currentRenter].longitude).length > 0,\n            \"no GPS\"\n        );\n        _;\n    }\n\n    /**\n    @notice Allows the owner to set the rental rate.\n    @dev Can only be called by the owner.\n    @param _rate The new rental rate in W2R tokens per day of rental\n    */\n\n    function setRate(uint _rate) external onlyOwner {\n        require(_rate > 0);\n        rate = _rate;\n    }\n\n    /**\n    @notice Allows the owner to set the deposit amount.\n    @dev Can only be called by the owner.\n    @param _depositAmount The new deposit amount.\n    */\n\n    function setDepositAmount(\n        uint _depositAmount\n    ) external isActivated onlyOwner {\n        require(_depositAmount > 0, \"Must not 0\");\n        depositAmount = _depositAmount;\n    }\n\n    /**\n    @notice Allows the owner to set the maximum rental duration in days\n    @dev Can only be called by the owner.\n    @param _maximumRental The new maximum rental duration.\n    */\n\n    function setMaximumRental(\n        uint _maximumRental\n    ) external isActivated onlyOwner {\n        require(_maximumRental >= 1 days && _maximumRental <= 1 weeks);\n        maximumRental = _maximumRental;\n    }\n\n    /**\n    @notice Returns the number of rentals for a given renter address.\n    @param renter The address of the renter.\n    @return The number of rentals.\n    */\n\n    function getRentalsByAdresses(address renter) external view returns (uint) {\n        return rentals[renter].length;\n    }\n\n    /**\n    @dev Private helper function to set rental details.\n    @param _date The date of the rental.\n    @param _renter The address of the renter contract.\n    @param _rentalTime The duration of the rental.\n    @param _rentalPrice The price of the rental.\n    @param _depositAmount The deposit amount for the rental.\n    */\n    function setRentalStruct(\n        uint _date,\n        address _renter,\n        uint _rentalTime,\n        uint _rentalPrice,\n        uint _depositAmount\n    ) private isActivated {\n        require((_rentalPrice * rewardAmount * 100) >= 10000);\n        uint reward = (_rentalPrice * rewardAmount * 100) / 10000;\n        uint _amountAsked = _rentalPrice + _depositAmount;\n        rentals[_renter].push(\n            Rental(\n                _date,\n                _rentalTime,\n                _rentalPrice,\n                _depositAmount,\n                reward,\n                _amountAsked,\n                true,\n                false,\n                false,\n                false,\n                false,\n                \"\"\n            )\n        );\n    }\n\n    /**\n    @notice Allows a renter to submit a rental proposal.\n    @dev Can only be called by a whitelisted renter with an NFT.\n    @dev function called by the BikeRent contract.\n    @param _bikeRentOwner The address of the renter contract owner.\n    @param _dateMin The minimum desired rental meeting time.\n    @param _dateMax The maximum desired rental meeting time.\n    @param _rentalTime The desired rental duration.\n    @param _rate The proposed rental rate.\n    @param _depositAmount The proposed deposit amount.\n    @param date The date of the proposal.\n    @param _latitude The latitude for the rental location.\n    @param _longitude The longitude for the rental location.\n    */\n    function setProposal(\n        address _bikeRentOwner,\n        uint _dateMin,\n        uint _dateMax,\n        uint _rentalTime,\n        uint _rate,\n        uint _depositAmount,\n        uint date,\n        string calldata _latitude,\n        string calldata _longitude\n    ) external isActivated checkRenterNFT(_bikeRentOwner) {\n        // require(deleteOldProposals());\n        for (uint i; i < proposals.length; i++) {\n            if (proposals[i]._renter == msg.sender) {\n                revert(\"already done\");\n            }\n        }\n        require(proposals.length <= 5, \"Too many\");\n        require(\n            _rentalTime % 1 days == 0 &&\n                _rentalTime >= minimalRental &&\n                _rentalTime <= maximumRental,\n            \"bad time\"\n        );\n        require(\n            _dateMin > block.timestamp + 2 hours &&\n                _dateMax - _dateMin <= 12 hours,\n            \"bad dates\"\n        );\n        require(_rate > 0 && depositAmount > 0, \"bad value\");\n        require(\n            bytes(_latitude).length > 0 && bytes(_longitude).length > 0,\n            \"no GPS\"\n        );\n\n        Proposal memory proposal = Proposal(\n            date,\n            msg.sender,\n            _dateMin,\n            _dateMax,\n            _rentalTime,\n            _rate,\n            _depositAmount,\n            false\n        );\n        proposals.push(proposal);\n        emit ProposalReceived(\n            msg.sender,\n            date,\n            address(this),\n            _dateMin,\n            _dateMax,\n            _rentalTime,\n            _rate,\n            _depositAmount,\n            _latitude,\n            _longitude\n        );\n    }\n\n    /**\n     * @notice Returns the length of the proposals array.\n     * @return The length of the proposals array.\n     */\n\n    function getProposalsLength() external view returns (uint) {\n        return proposals.length;\n    }\n\n    /**\n     * @notice Returns the length of the rentals array for a specific renter.\n     * @param renter The address of the renter.\n     * @return The length of the rentals array for the specified renter.\n     */\n\n    function getRentalsLength(address renter) external view returns (uint) {\n        return rentals[renter].length;\n    }\n\n    /**\n     * @notice Deletes old proposals that are no longer valid.\n     * @return A boolean value indicating the success of the operation.\n     */\n    function deleteOldProposals()\n        external\n        isActivated\n        onlyOwner\n        returns (bool)\n    {\n        uint i;\n        while (i < proposals.length) {\n            if (block.timestamp - proposals[i].date > proposalDuration) {\n                cancelUselessProposals(i);\n            } else {\n                i++;\n            }\n        }\n        return true;\n    }\n\n    /**\n     * @notice Accepts a proposal and initiates the bike rental process.\n     * @dev Call the rentBike function of the BikeRent contract to initiate the rental process and delete others proposals.\n     * in the same time of the rental\n     * @param _bikeRent The address of the BikeRent contract.\n     * @param _meetingHour The meeting hour for the rental.\n     * @param _latitude The latitude of the meeting point.\n     * @param _longitude The longitude of the meeting point.\n     */\n    function acceptProposal(\n        address _bikeRent,\n        uint _meetingHour,\n        string calldata _latitude,\n        string calldata _longitude\n    ) external isActivated onlyOwner {\n        require(\n            !isRented && _meetingHour > 0 && proposals.length > 0,\n            \"bad values\"\n        );\n        require(\n            _bikeRent != address(0) &&\n                _bikeRent != owner &&\n                _bikeRent != address(this),\n            \"bad address\"\n        );\n        require(\n            bytes(_latitude).length > 0 && bytes(_longitude).length > 0,\n            \"no GPS\"\n        );\n        bool proposalFound;\n        uint i;\n        uint dateMax;\n        uint rentalTime;\n        for (i = 0; i < proposals.length; i++) {\n            if (proposals[i]._renter == _bikeRent) {\n                Proposal memory proposalLoop = proposals[i];\n                require(\n                    _meetingHour >= proposalLoop._rentalDateMin &&\n                        _meetingHour <= proposalLoop._rentalDateMax,\n                    \"bad hour\"\n                );\n                uint rentalPrice = (proposalLoop._rentalTime / 86400) *\n                    proposalLoop._rate;\n                dateMax = proposalLoop._rentalDateMax;\n                rentalTime = proposalLoop._rentalTime;\n                bikeRent = IBikeRent(proposalLoop._renter);\n                // check W2R balance of renter contract\n                require(\n                    W2R.balanceOf(proposalLoop._renter) >=\n                        rentalPrice + proposalLoop._depositAmount,\n                    \"Not enough\"\n                );\n                uint meetingHour = _meetingHour;\n                bikeRent.rentBike(\n                    owner,\n                    rentalPrice,\n                    proposalLoop._depositAmount,\n                    rentalTime,\n                    meetingHour\n                );\n                setRentalStruct(\n                    meetingHour,\n                    proposalLoop._renter,\n                    rentalTime,\n                    rentalPrice,\n                    proposalLoop._depositAmount\n                );\n                proposalLoop._isAccepted = true;\n                isRented = true;\n                safeDate = meetingHour + rentalTime + 2 days;\n                currentRenter = proposalLoop._renter;\n                rentalGPSData[currentRenter] = RentalGPS(_latitude, _longitude);\n                totalRentals++;\n                emit BikeRented(\n                    proposalLoop._renter,\n                    rentalTime,\n                    meetingHour,\n                    proposalLoop._rate,\n                    proposalLoop._depositAmount,\n                    rentalPrice\n                );\n                proposalFound = true;\n                break;\n            }\n        }\n        require(proposalFound, \"not found\");\n        // delete proposal from the renter as it has been accepted\n        cancelUselessProposals(i);\n        //delete proposal which date is before the rental date\n        for (uint j; j < proposals.length; j++) {\n            if (j != i && proposals[j].date < (dateMax + rentalTime)) {\n                cancelUselessProposals(j);\n            }\n        }\n    }\n\n    /**\n     * @notice Cancels a proposal with a specific index.\n     * @dev helper function\n     * @param index The index of the proposal to cancel.\n     * @return A boolean value indicating the success of the operation.\n     */\n    function cancelUselessProposals(uint index) private returns (bool) {\n        address renter = proposals[index]._renter;\n        uint256 date = proposals[index].date;\n        proposals[index] = proposals[proposals.length - 1];\n        proposals.pop();\n        emit ProposalCancelled(renter, date, address(this));\n        return true;\n    }\n\n    /**\n     * @notice Cancels a proposal with a specific bike rent contract address.\n     * @param _bikerent The address of the BikeRent contract.\n     */\n\n    function cancelProposal(address _bikerent) public isActivated onlyOwner {\n        require(\n            _bikerent != address(0) &&\n                _bikerent != owner &&\n                _bikerent != address(this),\n            \"bad address\"\n        );\n        require(proposals.length > 0, \"nothing\");\n        uint i;\n        while (i < proposals.length) {\n            if (proposals[i]._renter == _bikerent) {\n                require(proposals[i]._isAccepted == false, \"accepted\");\n                cancelUselessProposals(i);\n                break;\n            } else {\n                i++;\n            }\n        }\n    }\n\n    /**\n     * @dev Call the confirmBikeInHands function of the BikeRent contract.\n     * @notice Confirms the bike has been taken by the renter.\n     */\n    function confirmBikeTaken(\n        string calldata _rentalToken\n    ) external isActivated onlyOwner lending {\n        Rental storage rental = rentals[currentRenter][\n            rentals[currentRenter].length - 1\n        ];\n        // DEACTIVATED FOR TESTING AND DEMO PURPOSES\n        //require(rental.date <= block.timestamp, \"Must be in the past\");\n        require(!rental.cantCancel, \"taken\");\n        require(bytes(_rentalToken).length == 30, \"invalid\");\n        bikeRent = IBikeRent(currentRenter);\n        bikeRent.confirmBikeInHands(owner, _rentalToken);\n        rental.cantCancel = true;\n        emit BikeTaken(\n            currentRenter,\n            block.timestamp,\n            address(this),\n            rentalGPSData[currentRenter].latitude,\n            rentalGPSData[currentRenter].longitude\n        );\n    }\n\n    /**\n     * @notice Declares the bike has been returned by the renter. People have to be physically present at the meeting point\n     * @dev Called by the BikeRent contract.\n     * @param _bikeRentOwner The address of the bike rent owner.\n     */\n    function returnedBike(\n        address _bikeRentOwner\n    ) external isActivated checkRenterNFT(_bikeRentOwner) lending {\n        require(msg.sender == currentRenter, \"current renter\");\n        Rental storage rental = rentals[currentRenter][\n            rentals[currentRenter].length - 1\n        ];\n        require(!rental.seemsReturned, \"seems returned\");\n        rental.seemsReturned = true;\n        emit RentalSeemsReturned(msg.sender, block.timestamp, address(this));\n    }\n\n    /**\n     * @notice Confirms definitaly the bike has been returned and the deposit is returned to the renter.\n     * @dev Call the returnConfirmed function of the BikeRent contract.\n     */\n    function confirmBikeReturned(\n        string calldata _rentalToken\n    ) external isActivated onlyOwner lending {\n        require(bytes(_rentalToken).length == 30, \"invalid\");\n        Rental storage rental = rentals[currentRenter][\n            rentals[currentRenter].length - 1\n        ];\n        require(rental.seemsReturned && !rental.isReturned, \"bad state\");\n        uint depositReturned = rental.depositAmount;\n        require(\n            W2R.balanceOf(address(this)) >= depositReturned,\n            \"Insufficient\"\n        );\n        bikeRent = IBikeRent(currentRenter);\n        bikeRent.returnConfirmed(owner, _rentalToken);\n        // set rental as returned\n        rental.isReturned = true;\n        uint reward = rental.rewardExpected;\n        rewards[currentRenter] += reward;\n        // update totalRewards\n        totalRewards += reward;\n        isRented = false;\n        address current = currentRenter;\n        currentRenter = address(0);\n        W2R.safeTransfer(current, depositReturned);\n        emit BikeReturned(\n            rental.date,\n            current,\n            depositReturned,\n            block.timestamp,\n            address(this),\n            rentalGPSData[currentRenter].latitude,\n            rentalGPSData[currentRenter].longitude\n        );\n    }\n\n    /**\n     * @notice Cancels the lending process initiated by the lender.\n     */\n    function cancelLending() external isActivated lending onlyOwner {\n        handleRentingCancellation(false);\n    }\n\n    /**\n     * @notice Cancels the renting process initiated by the renter.\n     * @param _bikeRentOwner The address of the bike rent owner.\n     */\n    function cancelledRenting(\n        address _bikeRentOwner\n    ) external isActivated checkRenterNFT(_bikeRentOwner) lending {\n        handleRentingCancellation(true);\n    }\n\n    /**\n     * @notice Handles the cancellation of a renting process.\n     * @dev helper function, call the cancelledLending function of the BikeRent contract if called by this contract\n     */\n    function handleRentingCancellation(bool isCalledByRenter) private {\n        Rental storage rental = rentals[currentRenter][\n            rentals[currentRenter].length - 1\n        ];\n        require(!rental.cantCancel && !rental.isRefunded, \"bad state\");\n        uint _refund;\n        uint basis = rental.depositAmount + rental.rentalPrice;\n        if (isCalledByRenter) {\n            require(msg.sender == currentRenter, \"renter\");\n        }\n        _refund = isCalledByRenter &&\n            msg.sender == currentRenter &&\n            block.timestamp >= rental.date - 2 hours\n            ? basis - (rental.rentalPrice * 1000) / 10000\n            : basis;\n        require(W2R.balanceOf(address(this)) >= _refund, \"Insufficient\");\n        if (!isCalledByRenter) {\n            bikeRent = IBikeRent(currentRenter);\n            bikeRent.cancelledLending(_refund, owner, true);\n        }\n        // set rental struct to refunded\n        rental.isRefunded = true;\n        // set bike as not rented if no revert\n        isRented = false;\n        safeDate = block.timestamp;\n        address current = currentRenter;\n        currentRenter = address(0);\n        W2R.safeTransfer(current, _refund);\n        emit RentingCancelled(\n            current,\n            rental.date,\n            _refund,\n            block.timestamp,\n            address(this)\n        );\n    }\n\n    /**\n     * @notice Allows the owner to withdraw funds from the contract.\n     * @dev Prevent withdrawing the deposit amount of the current renter.\n     * @param _amount The amount to be withdrawn.\n     */\n\n    function withdrawFunds(uint _amount) external isActivated onlyOwner {\n        require(_amount > 0, \"Not 0\");\n        uint W2Rbalance = W2R.balanceOf(address(this));\n        uint toKeep;\n        if (isRented && currentRenter != address(0)) {\n            Rental memory rental = rentals[currentRenter][\n                rentals[currentRenter].length - 1\n            ];\n            toKeep = rental.cantCancel == true\n                ? rental.depositAmount\n                : rental.amountAsked;\n        }\n        require(W2Rbalance - toKeep > _amount, \"Not enough\");\n        //transfer W2R to owner\n        W2R.safeTransfer(owner, _amount);\n        emit W2Rwithdrawed(msg.sender, _amount, block.timestamp, address(this));\n    }\n\n    /**\n     * @notice Destroy the contract, W2R funds are transfered to the owner.\n     * In case of a rental, destruction is only possible after the rental time + 2 days, in case of a delay.\n     * After this delay, and if the bike has not been returned, lender can destroy the contract but deposit will be send to the vault,\n     * waiting to know who failed (renter stole the bike, or lender went away to keep the deposit)\n     * So, this functionnality prevents the use of the destruction function to steal the deposit.\n     * @dev This function is called by the whitelist contract to destroy the contract\n     * not really destroyed as the selfdestruct expected to be used is deprecated\n     * @return true if the contract is successfully destroyed, false otherwise\n     */\n    function destroy() external returns (bool) {\n        require(msg.sender == whitelistLender, \"wl\");\n        require(block.timestamp >= safeDate, \"delay\");\n        if (isRented && currentRenter != address(0)) {\n            Rental memory rental = rentals[currentRenter][\n                rentals[currentRenter].length - 1\n            ];\n            bikeRent = IBikeRent(currentRenter);\n            vaultW2R.receiveDepositsWhenDestroyed(\n                owner,\n                currentRenter,\n                bikeRent.owner(),\n                block.timestamp,\n                rental.depositAmount\n            );\n            W2R.safeTransfer(address(vaultW2R), rental.depositAmount);\n        }\n        isDeactivated = true;\n        isDestroyed = true;\n        if (W2R.balanceOf(address(this)) > 0) {\n            // transfer all balance of W2R to owner\n            W2R.safeTransfer(owner, W2R.balanceOf(address(this)));\n        }\n        if (totalRewards > 0) {\n            uint amount = totalRewards;\n            totalRewards = 0;\n            vaultW2R.distributeW2R(owner, amount);\n        }\n        emit ContractDestroyed(msg.sender, block.timestamp, address(this));\n        return true;\n    }\n}\n",
  "sourcePath": "/Users/harbinger/Library/CloudStorage/Dropbox/Dossier familial/Formation Blockchain/Alyra/Projet Certification/Projet Alyra 2Wheels2Rent/truffle/contracts/BikeShare.sol",
  "compiler": {
    "name": "solc",
    "version": "0.8.18+commit.87f61d96.Emscripten.clang"
  },
  "schemaVersion": "3.4.16",
  "updatedAt": "2024-05-27T21:00:47.357Z",
  "devdoc": {
    "author": "Crypt0zaurus https://www.linkedin.com/in/maxence-a-a82081260",
    "details": "This contract inherits from Utilities and manages bike rentals.It uses SafeERC20 for ERC20 operations and contains multiple events for various",
    "kind": "dev",
    "methods": {
      "acceptProposal(address,uint256,string,string)": {
        "details": "Call the rentBike function of the BikeRent contract to initiate the rental process and delete others proposals. in the same time of the rental",
        "params": {
          "_bikeRent": "The address of the BikeRent contract.",
          "_latitude": "The latitude of the meeting point.",
          "_longitude": "The longitude of the meeting point.",
          "_meetingHour": "The meeting hour for the rental."
        }
      },
      "activate(string,string)": {
        "params": {
          "_latitude": "The latitude of the owner's location",
          "_longitude": "The longitude of the owner's location"
        }
      },
      "cancelProposal(address)": {
        "params": {
          "_bikerent": "The address of the BikeRent contract."
        }
      },
      "cancelledRenting(address)": {
        "params": {
          "_bikeRentOwner": "The address of the bike rent owner."
        }
      },
      "claimRewards()": {
        "details": "This function can only be called by the contract owner and when the staking contract is activated. The total rewards are set to zero after claiming, and the rewards are distributed through the vault."
      },
      "confirmBikeReturned(string)": {
        "details": "Call the returnConfirmed function of the BikeRent contract."
      },
      "confirmBikeTaken(string)": {
        "details": "Call the confirmBikeInHands function of the BikeRent contract."
      },
      "constructor": {
        "details": "Contract constructor that sets initial values.",
        "params": {
          "_W2Rtoken": "The address of the W2R token.",
          "_lender": "The address of the lender.",
          "_renterNFT": "The address of the renter NFT.",
          "_vaultW2R": "The address of the W2R token vault.",
          "_whitelistLender": "The address of the whitelist lenders contract",
          "_whitelistRenter": "The address of the whitelist renters contract"
        }
      },
      "deleteOldProposals()": {
        "returns": {
          "_0": "A boolean value indicating the success of the operation."
        }
      },
      "depositW2R(uint256)": {
        "params": {
          "_amount": "The amount of W2R tokens to deposit"
        }
      },
      "destroy()": {
        "details": "This function is called by the whitelist contract to destroy the contract not really destroyed as the selfdestruct expected to be used is deprecated",
        "returns": {
          "_0": "true if the contract is successfully destroyed, false otherwise"
        }
      },
      "getProposalsLength()": {
        "returns": {
          "_0": "The length of the proposals array."
        }
      },
      "getRentalsByAdresses(address)": {
        "params": {
          "renter": "The address of the renter."
        },
        "returns": {
          "_0": "The number of rentals."
        }
      },
      "getRentalsLength(address)": {
        "params": {
          "renter": "The address of the renter."
        },
        "returns": {
          "_0": "The length of the rentals array for the specified renter."
        }
      },
      "getTotalRewards()": {
        "returns": {
          "_0": "The total rewards"
        }
      },
      "returnedBike(address)": {
        "details": "Called by the BikeRent contract.",
        "params": {
          "_bikeRentOwner": "The address of the bike rent owner."
        }
      },
      "setDepositAmount(uint256)": {
        "details": "Can only be called by the owner.",
        "params": {
          "_depositAmount": "The new deposit amount."
        }
      },
      "setGPS(string,string)": {
        "params": {
          "_latitude": "The latitude of the owner's location",
          "_longitude": "The longitude of the owner's location"
        }
      },
      "setMaximumRental(uint256)": {
        "details": "Can only be called by the owner.",
        "params": {
          "_maximumRental": "The new maximum rental duration."
        }
      },
      "setProposal(address,uint256,uint256,uint256,uint256,uint256,uint256,string,string)": {
        "details": "Can only be called by a whitelisted renter with an NFT.function called by the BikeRent contract.",
        "params": {
          "_bikeRentOwner": "The address of the renter contract owner.",
          "_dateMax": "The maximum desired rental meeting time.",
          "_dateMin": "The minimum desired rental meeting time.",
          "_depositAmount": "The proposed deposit amount.",
          "_latitude": "The latitude for the rental location.",
          "_longitude": "The longitude for the rental location.",
          "_rate": "The proposed rental rate.",
          "_rentalTime": "The desired rental duration.",
          "date": "The date of the proposal."
        }
      },
      "setRate(uint256)": {
        "details": "Can only be called by the owner.",
        "params": {
          "_rate": "The new rental rate in W2R tokens per day of rental"
        }
      },
      "withdrawFunds(uint256)": {
        "details": "Prevent withdrawing the deposit amount of the current renter.",
        "params": {
          "_amount": "The amount to be withdrawn."
        }
      }
    },
    "title": "BikeShare Contract",
    "version": 1
  },
  "userdoc": {
    "kind": "user",
    "methods": {
      "acceptProposal(address,uint256,string,string)": {
        "notice": "Accepts a proposal and initiates the bike rental process."
      },
      "activate(string,string)": {
        "notice": "Activates the contract and sets the GPS location of the contract owner"
      },
      "cancelLending()": {
        "notice": "Cancels the lending process initiated by the lender."
      },
      "cancelProposal(address)": {
        "notice": "Cancels a proposal with a specific bike rent contract address."
      },
      "cancelledRenting(address)": {
        "notice": "Cancels the renting process initiated by the renter."
      },
      "claimRewards()": {
        "notice": "Claim the accumulated rewards for the contract owner."
      },
      "confirmBikeReturned(string)": {
        "notice": "Confirms definitaly the bike has been returned and the deposit is returned to the renter."
      },
      "confirmBikeTaken(string)": {
        "notice": "Confirms the bike has been taken by the renter."
      },
      "deleteOldProposals()": {
        "notice": "Deletes old proposals that are no longer valid."
      },
      "depositW2R(uint256)": {
        "notice": "Deposits W2R tokens to the contract"
      },
      "destroy()": {
        "notice": "Destroy the contract, W2R funds are transfered to the owner. In case of a rental, destruction is only possible after the rental time + 2 days, in case of a delay. After this delay, and if the bike has not been returned, lender can destroy the contract but deposit will be send to the vault, waiting to know who failed (renter stole the bike, or lender went away to keep the deposit) So, this functionnality prevents the use of the destruction function to steal the deposit."
      },
      "getProposalsLength()": {
        "notice": "Returns the length of the proposals array."
      },
      "getRentalsByAdresses(address)": {
        "notice": "Returns the number of rentals for a given renter address."
      },
      "getRentalsLength(address)": {
        "notice": "Returns the length of the rentals array for a specific renter."
      },
      "getTotalRewards()": {
        "notice": "Returns the total rewards accumulated by the contract"
      },
      "returnedBike(address)": {
        "notice": "Declares the bike has been returned by the renter. People have to be physically present at the meeting point"
      },
      "setDepositAmount(uint256)": {
        "notice": "Allows the owner to set the deposit amount."
      },
      "setGPS(string,string)": {
        "notice": "Sets the GPS location of the contract owner"
      },
      "setMaximumRental(uint256)": {
        "notice": "Allows the owner to set the maximum rental duration in days"
      },
      "setProposal(address,uint256,uint256,uint256,uint256,uint256,uint256,string,string)": {
        "notice": "Allows a renter to submit a rental proposal."
      },
      "setRate(uint256)": {
        "notice": "Allows the owner to set the rental rate."
      },
      "withdrawFunds(uint256)": {
        "notice": "Allows the owner to withdraw funds from the contract."
      }
    },
    "notice": "This contract manages bike rentals and related operations.",
    "version": 1
  }
}