{
  "contractName": "BikeShare",
  "abi": [
    {
      "inputs": [
        {
          "internalType": "address",
          "name": "_lender",
          "type": "address"
        },
        {
          "internalType": "address",
          "name": "_W2Rtoken",
          "type": "address"
        },
        {
          "internalType": "address",
          "name": "_renterNFT",
          "type": "address"
        },
        {
          "internalType": "address",
          "name": "_whitelistLender",
          "type": "address"
        },
        {
          "internalType": "address",
          "name": "_vaultW2R",
          "type": "address"
        },
        {
          "internalType": "address",
          "name": "_whitelistRenter",
          "type": "address"
        }
      ],
      "stateMutability": "nonpayable",
      "type": "constructor"
    },
    {
      "anonymous": false,
      "inputs": [
        {
          "indexed": true,
          "internalType": "address",
          "name": "renter",
          "type": "address"
        },
        {
          "indexed": false,
          "internalType": "uint256",
          "name": "rentalTime",
          "type": "uint256"
        },
        {
          "indexed": false,
          "internalType": "uint256",
          "name": "rentalDate",
          "type": "uint256"
        },
        {
          "indexed": false,
          "internalType": "uint256",
          "name": "rate",
          "type": "uint256"
        },
        {
          "indexed": false,
          "internalType": "uint256",
          "name": "deposit",
          "type": "uint256"
        },
        {
          "indexed": false,
          "internalType": "uint256",
          "name": "rentalPrice",
          "type": "uint256"
        }
      ],
      "name": "BikeRented",
      "type": "event"
    },
    {
      "anonymous": false,
      "inputs": [
        {
          "indexed": false,
          "internalType": "uint256",
          "name": "rentalDate",
          "type": "uint256"
        },
        {
          "indexed": true,
          "internalType": "address",
          "name": "renter",
          "type": "address"
        },
        {
          "indexed": false,
          "internalType": "uint256",
          "name": "depositReturned",
          "type": "uint256"
        },
        {
          "indexed": false,
          "internalType": "uint256",
          "name": "returnDate",
          "type": "uint256"
        },
        {
          "indexed": true,
          "internalType": "address",
          "name": "lender",
          "type": "address"
        },
        {
          "indexed": false,
          "internalType": "string",
          "name": "latitude",
          "type": "string"
        },
        {
          "indexed": false,
          "internalType": "string",
          "name": "longitude",
          "type": "string"
        }
      ],
      "name": "BikeReturned",
      "type": "event"
    },
    {
      "anonymous": false,
      "inputs": [
        {
          "indexed": true,
          "internalType": "address",
          "name": "renter",
          "type": "address"
        },
        {
          "indexed": false,
          "internalType": "uint256",
          "name": "date",
          "type": "uint256"
        },
        {
          "indexed": true,
          "internalType": "address",
          "name": "lender",
          "type": "address"
        },
        {
          "indexed": false,
          "internalType": "string",
          "name": "latitude",
          "type": "string"
        },
        {
          "indexed": false,
          "internalType": "string",
          "name": "longitude",
          "type": "string"
        }
      ],
      "name": "BikeTaken",
      "type": "event"
    },
    {
      "anonymous": false,
      "inputs": [
        {
          "indexed": true,
          "internalType": "address",
          "name": "_owner",
          "type": "address"
        },
        {
          "indexed": false,
          "internalType": "uint256",
          "name": "_date",
          "type": "uint256"
        },
        {
          "indexed": true,
          "internalType": "address",
          "name": "_contractAddress",
          "type": "address"
        }
      ],
      "name": "ContractActivated",
      "type": "event"
    },
    {
      "anonymous": false,
      "inputs": [
        {
          "indexed": true,
          "internalType": "address",
          "name": "_owner",
          "type": "address"
        },
        {
          "indexed": false,
          "internalType": "uint256",
          "name": "_date",
          "type": "uint256"
        },
        {
          "indexed": true,
          "internalType": "address",
          "name": "_contractAddress",
          "type": "address"
        }
      ],
      "name": "ContractDestroyed",
      "type": "event"
    },
    {
      "anonymous": false,
      "inputs": [
        {
          "indexed": true,
          "internalType": "address",
          "name": "_owner",
          "type": "address"
        },
        {
          "indexed": false,
          "internalType": "uint256",
          "name": "_date",
          "type": "uint256"
        },
        {
          "indexed": false,
          "internalType": "string",
          "name": "_latitude",
          "type": "string"
        },
        {
          "indexed": false,
          "internalType": "string",
          "name": "_longitude",
          "type": "string"
        },
        {
          "indexed": true,
          "internalType": "address",
          "name": "_contractAddress",
          "type": "address"
        }
      ],
      "name": "GPSupdated",
      "type": "event"
    },
    {
      "anonymous": false,
      "inputs": [
        {
          "indexed": true,
          "internalType": "address",
          "name": "renter",
          "type": "address"
        },
        {
          "indexed": false,
          "internalType": "uint256",
          "name": "date",
          "type": "uint256"
        },
        {
          "indexed": true,
          "internalType": "address",
          "name": "lender",
          "type": "address"
        }
      ],
      "name": "ProposalCancelled",
      "type": "event"
    },
    {
      "anonymous": false,
      "inputs": [
        {
          "indexed": true,
          "internalType": "address",
          "name": "renter",
          "type": "address"
        },
        {
          "indexed": false,
          "internalType": "uint256",
          "name": "date",
          "type": "uint256"
        },
        {
          "indexed": true,
          "internalType": "address",
          "name": "lender",
          "type": "address"
        },
        {
          "indexed": false,
          "internalType": "uint256",
          "name": "rentalDateMin",
          "type": "uint256"
        },
        {
          "indexed": false,
          "internalType": "uint256",
          "name": "rentalDateMax",
          "type": "uint256"
        },
        {
          "indexed": false,
          "internalType": "uint256",
          "name": "rentalTime",
          "type": "uint256"
        },
        {
          "indexed": false,
          "internalType": "uint256",
          "name": "rate",
          "type": "uint256"
        },
        {
          "indexed": false,
          "internalType": "uint256",
          "name": "depositAmount",
          "type": "uint256"
        },
        {
          "indexed": false,
          "internalType": "string",
          "name": "latitude",
          "type": "string"
        },
        {
          "indexed": false,
          "internalType": "string",
          "name": "longitude",
          "type": "string"
        }
      ],
      "name": "ProposalReceived",
      "type": "event"
    },
    {
      "anonymous": false,
      "inputs": [
        {
          "indexed": true,
          "internalType": "address",
          "name": "renter",
          "type": "address"
        },
        {
          "indexed": false,
          "internalType": "uint256",
          "name": "date",
          "type": "uint256"
        },
        {
          "indexed": true,
          "internalType": "address",
          "name": "lender",
          "type": "address"
        }
      ],
      "name": "RentalSeemsReturned",
      "type": "event"
    },
    {
      "anonymous": false,
      "inputs": [
        {
          "indexed": true,
          "internalType": "address",
          "name": "renter",
          "type": "address"
        },
        {
          "indexed": false,
          "internalType": "uint256",
          "name": "date",
          "type": "uint256"
        },
        {
          "indexed": false,
          "internalType": "uint256",
          "name": "depositReturned",
          "type": "uint256"
        },
        {
          "indexed": false,
          "internalType": "uint256",
          "name": "returnDate",
          "type": "uint256"
        },
        {
          "indexed": true,
          "internalType": "address",
          "name": "lender",
          "type": "address"
        }
      ],
      "name": "RentingCancelled",
      "type": "event"
    },
    {
      "anonymous": false,
      "inputs": [
        {
          "indexed": true,
          "internalType": "address",
          "name": "_owner",
          "type": "address"
        },
        {
          "indexed": false,
          "internalType": "uint256",
          "name": "_amount",
          "type": "uint256"
        },
        {
          "indexed": false,
          "internalType": "uint256",
          "name": "_date",
          "type": "uint256"
        },
        {
          "indexed": true,
          "internalType": "address",
          "name": "_contractAddress",
          "type": "address"
        }
      ],
      "name": "W2Rdeposited",
      "type": "event"
    },
    {
      "anonymous": false,
      "inputs": [
        {
          "indexed": true,
          "internalType": "address",
          "name": "_owner",
          "type": "address"
        },
        {
          "indexed": false,
          "internalType": "uint256",
          "name": "_amount",
          "type": "uint256"
        },
        {
          "indexed": false,
          "internalType": "uint256",
          "name": "_date",
          "type": "uint256"
        },
        {
          "indexed": true,
          "internalType": "address",
          "name": "_contractAddress",
          "type": "address"
        }
      ],
      "name": "W2Rwithdrawed",
      "type": "event"
    },
    {
      "inputs": [],
      "name": "W2R",
      "outputs": [
        {
          "internalType": "contract IERC20",
          "name": "",
          "type": "address"
        }
      ],
      "stateMutability": "view",
      "type": "function"
    },
    {
      "inputs": [
        {
          "internalType": "string",
          "name": "_latitude",
          "type": "string"
        },
        {
          "internalType": "string",
          "name": "_longitude",
          "type": "string"
        }
      ],
      "name": "activate",
      "outputs": [],
      "stateMutability": "nonpayable",
      "type": "function"
    },
    {
      "inputs": [],
      "name": "currentRenter",
      "outputs": [
        {
          "internalType": "address",
          "name": "",
          "type": "address"
        }
      ],
      "stateMutability": "view",
      "type": "function"
    },
    {
      "inputs": [],
      "name": "depositAmount",
      "outputs": [
        {
          "internalType": "uint256",
          "name": "",
          "type": "uint256"
        }
      ],
      "stateMutability": "view",
      "type": "function"
    },
    {
      "inputs": [
        {
          "internalType": "uint256",
          "name": "_amount",
          "type": "uint256"
        }
      ],
      "name": "depositW2R",
      "outputs": [],
      "stateMutability": "nonpayable",
      "type": "function"
    },
    {
      "inputs": [],
      "name": "getTotalRewards",
      "outputs": [
        {
          "internalType": "uint256",
          "name": "",
          "type": "uint256"
        }
      ],
      "stateMutability": "view",
      "type": "function"
    },
    {
      "inputs": [
        {
          "internalType": "address",
          "name": "",
          "type": "address"
        }
      ],
      "name": "gpsData",
      "outputs": [
        {
          "internalType": "string",
          "name": "latitude",
          "type": "string"
        },
        {
          "internalType": "string",
          "name": "longitude",
          "type": "string"
        }
      ],
      "stateMutability": "view",
      "type": "function"
    },
    {
      "inputs": [],
      "name": "isDeactivated",
      "outputs": [
        {
          "internalType": "bool",
          "name": "",
          "type": "bool"
        }
      ],
      "stateMutability": "view",
      "type": "function"
    },
    {
      "inputs": [],
      "name": "isRented",
      "outputs": [
        {
          "internalType": "bool",
          "name": "",
          "type": "bool"
        }
      ],
      "stateMutability": "view",
      "type": "function"
    },
    {
      "inputs": [],
      "name": "maximumRental",
      "outputs": [
        {
          "internalType": "uint256",
          "name": "",
          "type": "uint256"
        }
      ],
      "stateMutability": "view",
      "type": "function"
    },
    {
      "inputs": [],
      "name": "minimalRental",
      "outputs": [
        {
          "internalType": "uint256",
          "name": "",
          "type": "uint256"
        }
      ],
      "stateMutability": "view",
      "type": "function"
    },
    {
      "inputs": [],
      "name": "owner",
      "outputs": [
        {
          "internalType": "address",
          "name": "",
          "type": "address"
        }
      ],
      "stateMutability": "view",
      "type": "function"
    },
    {
      "inputs": [],
      "name": "proposalDuration",
      "outputs": [
        {
          "internalType": "uint256",
          "name": "",
          "type": "uint256"
        }
      ],
      "stateMutability": "view",
      "type": "function"
    },
    {
      "inputs": [
        {
          "internalType": "uint256",
          "name": "",
          "type": "uint256"
        }
      ],
      "name": "proposals",
      "outputs": [
        {
          "internalType": "uint256",
          "name": "date",
          "type": "uint256"
        },
        {
          "internalType": "address",
          "name": "_renter",
          "type": "address"
        },
        {
          "internalType": "uint256",
          "name": "_rentalDateMin",
          "type": "uint256"
        },
        {
          "internalType": "uint256",
          "name": "_rentalDateMax",
          "type": "uint256"
        },
        {
          "internalType": "uint256",
          "name": "_rentalTime",
          "type": "uint256"
        },
        {
          "internalType": "uint256",
          "name": "_rate",
          "type": "uint256"
        },
        {
          "internalType": "uint256",
          "name": "_depositAmount",
          "type": "uint256"
        },
        {
          "internalType": "bool",
          "name": "_isAccepted",
          "type": "bool"
        }
      ],
      "stateMutability": "view",
      "type": "function"
    },
    {
      "inputs": [],
      "name": "rate",
      "outputs": [
        {
          "internalType": "uint256",
          "name": "",
          "type": "uint256"
        }
      ],
      "stateMutability": "view",
      "type": "function"
    },
    {
      "inputs": [
        {
          "internalType": "address",
          "name": "",
          "type": "address"
        }
      ],
      "name": "rentalGPSData",
      "outputs": [
        {
          "internalType": "string",
          "name": "latitude",
          "type": "string"
        },
        {
          "internalType": "string",
          "name": "longitude",
          "type": "string"
        }
      ],
      "stateMutability": "view",
      "type": "function"
    },
    {
      "inputs": [
        {
          "internalType": "address",
          "name": "",
          "type": "address"
        },
        {
          "internalType": "uint256",
          "name": "",
          "type": "uint256"
        }
      ],
      "name": "rentals",
      "outputs": [
        {
          "internalType": "uint256",
          "name": "date",
          "type": "uint256"
        },
        {
          "internalType": "uint256",
          "name": "rentalTime",
          "type": "uint256"
        },
        {
          "internalType": "uint256",
          "name": "rentalPrice",
          "type": "uint256"
        },
        {
          "internalType": "uint256",
          "name": "depositAmount",
          "type": "uint256"
        },
        {
          "internalType": "uint256",
          "name": "rewardExpected",
          "type": "uint256"
        },
        {
          "internalType": "uint256",
          "name": "amountAsked",
          "type": "uint256"
        },
        {
          "internalType": "bool",
          "name": "isAccepted",
          "type": "bool"
        },
        {
          "internalType": "bool",
          "name": "isRefunded",
          "type": "bool"
        },
        {
          "internalType": "bool",
          "name": "seemsReturned",
          "type": "bool"
        },
        {
          "internalType": "bool",
          "name": "cantCancel",
          "type": "bool"
        },
        {
          "internalType": "bool",
          "name": "isReturned",
          "type": "bool"
        }
      ],
      "stateMutability": "view",
      "type": "function"
    },
    {
      "inputs": [],
      "name": "rewardAmount",
      "outputs": [
        {
          "internalType": "uint256",
          "name": "",
          "type": "uint256"
        }
      ],
      "stateMutability": "view",
      "type": "function"
    },
    {
      "inputs": [
        {
          "internalType": "string",
          "name": "_latitude",
          "type": "string"
        },
        {
          "internalType": "string",
          "name": "_longitude",
          "type": "string"
        }
      ],
      "name": "setGPS",
      "outputs": [],
      "stateMutability": "nonpayable",
      "type": "function"
    },
    {
      "inputs": [],
      "name": "totalRentals",
      "outputs": [
        {
          "internalType": "uint256",
          "name": "",
          "type": "uint256"
        }
      ],
      "stateMutability": "view",
      "type": "function"
    },
    {
      "inputs": [
        {
          "internalType": "uint256",
          "name": "_rate",
          "type": "uint256"
        }
      ],
      "name": "setRate",
      "outputs": [],
      "stateMutability": "nonpayable",
      "type": "function"
    },
    {
      "inputs": [
        {
          "internalType": "uint256",
          "name": "_depositAmount",
          "type": "uint256"
        }
      ],
      "name": "setDepositAmount",
      "outputs": [],
      "stateMutability": "nonpayable",
      "type": "function"
    },
    {
      "inputs": [
        {
          "internalType": "uint256",
          "name": "_maximumRental",
          "type": "uint256"
        }
      ],
      "name": "setMaximumRental",
      "outputs": [],
      "stateMutability": "nonpayable",
      "type": "function"
    },
    {
      "inputs": [
        {
          "internalType": "address",
          "name": "renter",
          "type": "address"
        }
      ],
      "name": "getRentalsByAdresses",
      "outputs": [
        {
          "internalType": "uint256",
          "name": "",
          "type": "uint256"
        }
      ],
      "stateMutability": "view",
      "type": "function"
    },
    {
      "inputs": [
        {
          "internalType": "address",
          "name": "_bikeRentOwner",
          "type": "address"
        },
        {
          "internalType": "uint256",
          "name": "_dateMin",
          "type": "uint256"
        },
        {
          "internalType": "uint256",
          "name": "_dateMax",
          "type": "uint256"
        },
        {
          "internalType": "uint256",
          "name": "_rentalTime",
          "type": "uint256"
        },
        {
          "internalType": "uint256",
          "name": "_rate",
          "type": "uint256"
        },
        {
          "internalType": "uint256",
          "name": "_depositAmount",
          "type": "uint256"
        },
        {
          "internalType": "uint256",
          "name": "date",
          "type": "uint256"
        },
        {
          "internalType": "string",
          "name": "_latitude",
          "type": "string"
        },
        {
          "internalType": "string",
          "name": "_longitude",
          "type": "string"
        }
      ],
      "name": "setProposal",
      "outputs": [],
      "stateMutability": "nonpayable",
      "type": "function"
    },
    {
      "inputs": [],
      "name": "getProposalsLength",
      "outputs": [
        {
          "internalType": "uint256",
          "name": "",
          "type": "uint256"
        }
      ],
      "stateMutability": "view",
      "type": "function"
    },
    {
      "inputs": [
        {
          "internalType": "address",
          "name": "renter",
          "type": "address"
        }
      ],
      "name": "getRentalsLength",
      "outputs": [
        {
          "internalType": "uint256",
          "name": "",
          "type": "uint256"
        }
      ],
      "stateMutability": "view",
      "type": "function"
    },
    {
      "inputs": [],
      "name": "deleteOldProposals",
      "outputs": [
        {
          "internalType": "bool",
          "name": "",
          "type": "bool"
        }
      ],
      "stateMutability": "nonpayable",
      "type": "function"
    },
    {
      "inputs": [
        {
          "internalType": "address",
          "name": "_bikeRent",
          "type": "address"
        },
        {
          "internalType": "uint256",
          "name": "_meetingHour",
          "type": "uint256"
        },
        {
          "internalType": "string",
          "name": "_latitude",
          "type": "string"
        },
        {
          "internalType": "string",
          "name": "_longitude",
          "type": "string"
        }
      ],
      "name": "acceptProposal",
      "outputs": [],
      "stateMutability": "nonpayable",
      "type": "function"
    },
    {
      "inputs": [
        {
          "internalType": "address",
          "name": "_bikerent",
          "type": "address"
        }
      ],
      "name": "cancelProposal",
      "outputs": [],
      "stateMutability": "nonpayable",
      "type": "function"
    },
    {
      "inputs": [],
      "name": "confirmBikeTaken",
      "outputs": [],
      "stateMutability": "nonpayable",
      "type": "function"
    },
    {
      "inputs": [
        {
          "internalType": "address",
          "name": "_bikeRentOwner",
          "type": "address"
        }
      ],
      "name": "returnedBike",
      "outputs": [],
      "stateMutability": "nonpayable",
      "type": "function"
    },
    {
      "inputs": [],
      "name": "confirmBikeReturned",
      "outputs": [],
      "stateMutability": "nonpayable",
      "type": "function"
    },
    {
      "inputs": [],
      "name": "cancelLending",
      "outputs": [],
      "stateMutability": "nonpayable",
      "type": "function"
    },
    {
      "inputs": [
        {
          "internalType": "address",
          "name": "_bikeRentOwner",
          "type": "address"
        }
      ],
      "name": "cancelledRenting",
      "outputs": [],
      "stateMutability": "nonpayable",
      "type": "function"
    },
    {
      "inputs": [
        {
          "internalType": "uint256",
          "name": "_amount",
          "type": "uint256"
        }
      ],
      "name": "withdrawFunds",
      "outputs": [],
      "stateMutability": "nonpayable",
      "type": "function"
    },
    {
      "inputs": [],
      "name": "destroy",
      "outputs": [
        {
          "internalType": "bool",
          "name": "",
          "type": "bool"
        }
      ],
      "stateMutability": "nonpayable",
      "type": "function"
    }
  ],
  "bytecode": "0x6080604052600a6005556202a300600655620151806007553480156200002457600080fd5b506040516200496b3803806200496b8339810160408190526200004791620001d2565b85856001600160a01b0382166200005d57600080fd5b6001600160a01b0381166200007157600080fd5b60038054600480546001600160a01b0319166001600160a01b03948516179055600160a01b9383166001600160a81b031990911617929092179091558416620000b957600080fd5b336001600160a01b03841614620001165760405162461bcd60e51b815260206004820152601d60248201527f4f6e6c79207468652077686974656c6973742063616e206465706c6f79000000604482015260640160405180910390fd5b6001600160a01b0382166200012a57600080fd5b6001600160a01b0381166200013e57600080fd5b600b80546001600160a01b039586166001600160a01b031991821617909155600a8054948616948216949094179093556012805492851692841692909217909155600c8054919093169116179055505062015180600f5568056bc75e2d63100000600d55680ad78ebc5ac6200000600e5562000253565b80516001600160a01b0381168114620001cd57600080fd5b919050565b60008060008060008060c08789031215620001ec57600080fd5b620001f787620001b5565b95506200020760208801620001b5565b94506200021760408801620001b5565b93506200022760608801620001b5565b92506200023760808801620001b5565b91506200024760a08801620001b5565b90509295509295509295565b61470880620002636000396000f3fe608060405234801561001057600080fd5b50600436106102275760003560e01c806383197ef011610130578063bf0058d0116100b8578063d771642a1161007c578063d771642a1461050d578063dd4b22d114610516578063e19f3aee1461051f578063e627f2db14610532578063f7b2a7be1461053a57600080fd5b8063bf0058d0146104c4578063c520e74a146104d7578063c95dee79146104ea578063cdaa4192146104fd578063d0759c561461050557600080fd5b8063af8df99d116100ff578063af8df99d14610498578063b11f62ca146104ab578063b465c3c014610392578063b8f58f72146104b3578063bc378a73146104bc57600080fd5b806383197ef01461045d5780638da5cb5b146104655780638f03607214610478578063a63049521461048b57600080fd5b80633e146417116101b35780636d8cee56116101825780636d8cee56146103f85780636dcf811d1461040b5780637525b9221461042f5780638046c8ac1461044257806381c39a7d1461045557600080fd5b80633e14641714610392578063419759f5146103bb57806358b2d207146103c457806366035390146103d757600080fd5b8063242f17a9116101fa578063242f17a9146103215780632c4e722e1461034c578063301099621461036357806334fcf4371461036c5780633bafdcbc1461037f57600080fd5b8063013cf08b1461022c578063090fc58b146102895780630c6986b3146102f9578063155dd5ee1461030e575b600080fd5b61023f61023a366004613d16565b610543565b604080519889526001600160a01b039097166020890152958701949094526060860192909252608085015260a084015260c0830152151560e0820152610100015b60405180910390f35b61029c610297366004613d47565b6105a6565b604080519b8c5260208c019a909a52988a01979097526060890195909552608088019390935260a0870191909152151560c0860152151560e085015215156101008401521515610120830152151561014082015261016001610280565b61030c610307366004613d73565b61062b565b005b61030c61031c366004613d16565b6108f1565b601754610334906001600160a01b031681565b6040516001600160a01b039091168152602001610280565b610355600d5481565b604051908152602001610280565b61035560065481565b61030c61037a366004613d16565b610b18565b61030c61038d366004613de0565b610b54565b6103556103a0366004613d73565b6001600160a01b031660009081526016602052604090205490565b610355600e5481565b61030c6103d2366004613d16565b611278565b6103ea6103e5366004613d73565b6112f0565b604051610280929190613ebc565b61030c610406366004613d16565b61141c565b60035461041f90600160a01b900460ff1681565b6040519015158152602001610280565b61030c61043d366004613eea565b6114b2565b61030c610450366004613d16565b611a2f565b61030c611c32565b61041f611ec7565b600354610334906001600160a01b031681565b600454610334906001600160a01b031681565b60105461041f9060ff1681565b61030c6104a6366004613d73565b6121ce565b61030c6123a7565b610355600f5481565b601154610355565b61030c6104d2366004613faf565b612823565b6103ea6104e5366004613d73565b61294b565b61030c6104f8366004613faf565b612966565b61030c612a8c565b61041f612bad565b61035560075481565b61035560005481565b61030c61052d366004613d73565b612e6f565b610355613249565b61035560055481565b6011818154811061055357600080fd5b6000918252602090912060089091020180546001820154600283015460038401546004850154600586015460068701546007909701549597506001600160a01b0390941695929491939092909160ff1688565b601660205281600052604060002081815481106105c257600080fd5b600091825260209091206007909102018054600182015460028301546003840154600485015460058601546006909601549497509295509093909260ff80821691610100810482169162010000820481169163010000008104821691640100000000909104168b565b600354600160a01b900460ff161561065e5760405162461bcd60e51b81526004016106559061401b565b60405180910390fd5b600b546040516370a0823160e01b81526001600160a01b03808416600483015283926000929116906370a0823190602401602060405180830381865afa1580156106ac573d6000803e3d6000fd5b505050506040513d601f19601f820116820180604052508101906106d09190614049565b116106ed5760405162461bcd60e51b815260040161065590614062565b600c54601480546001600160a01b0319166001600160a01b0392831690811790915560405162d9267b60e31b81529183166004830152906306c933d890602401606060405180830381865afa15801561074a573d6000803e3d6000fd5b505050506040513d601f19601f8201168201806040525081019061076e91906140ad565b5161078b5760405162461bcd60e51b815260040161065590614116565b60145460405162d9267b60e31b81526001600160a01b038381166004830152339216906306c933d890602401606060405180830381865afa1580156107d4573d6000803e3d6000fd5b505050506040513d601f19601f820116820180604052508101906107f891906140ad565b602001516001600160a01b0316146108225760405162461bcd60e51b815260040161065590614116565b60105460ff166108445760405162461bcd60e51b81526004016106559061413f565b6017546001600160a01b031661086c5760405162461bcd60e51b815260040161065590614163565b6017546001600160a01b03166000908152601560205260408120805461089190614186565b90501180156108c757506017546001600160a01b0316600090815260156020526040812060010180546108c390614186565b9050115b6108e35760405162461bcd60e51b8152600401610655906141c0565b6108ed60016132a7565b5050565b600354600160a01b900460ff161561091b5760405162461bcd60e51b81526004016106559061401b565b6003546001600160a01b031633146109455760405162461bcd60e51b8152600401610655906141e5565b6000811161098e5760405162461bcd60e51b815260206004820152601660248201527504d7573742062652067726561746572207468616e20360541b6044820152606401610655565b600480546040516370a0823160e01b815230928101929092526000916001600160a01b03909116906370a0823190602401602060405180830381865afa1580156109dc573d6000803e3d6000fd5b505050506040513d601f19601f82011682018060405250810190610a009190614049565b60105490915060009060ff168015610a2257506017546001600160a01b031615155b15610a74576017546001600160a01b031660009081526016602052604090208054610a4f9060019061421f565b81548110610a5f57610a5f614238565b90600052602060002090600702016003015490505b82610a7f828461421f565b11610ab95760405162461bcd60e51b815260206004820152600a60248201526909cdee840cadcdeeaced60b31b6044820152606401610655565b600354600454610ad6916001600160a01b0391821691168561360c565b60408051848152426020820152309133917fb933d9f5921d73b25377b9ffc45ea2914238b8379c2098a3178e766cb8f326d491015b60405180910390a3505050565b6003546001600160a01b03163314610b425760405162461bcd60e51b8152600401610655906141e5565b60008111610b4f57600080fd5b600d55565b600354600160a01b900460ff1615610b7e5760405162461bcd60e51b81526004016106559061401b565b6003546001600160a01b03163314610ba85760405162461bcd60e51b8152600401610655906141e5565b60105460ff1615610bec5760405162461bcd60e51b815260206004820152600e60248201526d105b1c9958591e481c995b9d195960921b6044820152606401610655565b60008511610bf957600080fd5b6001600160a01b03861615801590610c1f57506003546001600160a01b03878116911614155b8015610c3457506001600160a01b0386163014155b610c725760405162461bcd60e51b815260206004820152600f60248201526e496e76616c6964206164647265737360881b6044820152606401610655565b601154610cb05760405162461bcd60e51b815260206004820152600c60248201526b4e6f2070726f706f73616c7360a01b6044820152606401610655565b8215801590610cbe57508015155b610cda5760405162461bcd60e51b8152600401610655906141c0565b60008080805b60115483101561115757896001600160a01b031660118481548110610d0757610d07614238565b60009182526020909120600160089092020101546001600160a01b03160361114557600060118481548110610d3e57610d3e614238565b6000918252602091829020604080516101008101825260089093029091018054835260018101546001600160a01b03169383019390935260028301549082018190526003830154606083015260048301546080830152600583015460a0830152600683015460c083015260079092015460ff16151560e082015291508a10801590610dcd575080606001518a11155b610e085760405162461bcd60e51b815260206004820152600c60248201526b34b73b30b634b2103437bab960a11b6044820152606401610655565b60008160a00151620151808360800151610e229190614264565b610e2c9190614278565b606083015160808401516020850151601380546001600160a01b0319166001600160a01b0390921691909117905560c08501519196509450909150610e71908261428f565b6004805460208501516040516370a0823160e01b81526001600160a01b039182169381019390935216906370a0823190602401602060405180830381865afa158015610ec1573d6000803e3d6000fd5b505050506040513d601f19601f82011682018060405250810190610ee59190614049565b1015610f245760405162461bcd60e51b815260206004820152600e60248201526d2737ba1032b737bab3b4102b992960911b6044820152606401610655565b60008b9050610f3e81846020015186858760c0015161366f565b60135460035460c08501516040516303a437c560e51b81526001600160a01b0392831660048201526024810186905260448101919091526064810187905260848101849052911690637486f8a09060a401600060405180830381600087803b158015610fa957600080fd5b505af1158015610fbd573d6000803e3d6000fd5b5050600160e086018190526010805460ff191690911790555050602080840151601780546001600160a01b0319166001600160a01b0390921691909117905560408051601f8d018390049092028201606090810182529082018c815282918e908e9081908501838280828437600092019190915250505090825250604080516020601f8d018190048102820181019092528b815291810191908c908c908190840183828082843760009201829052509390945250506017546001600160a01b031681526015602052604090208251909150819061109a90826142f0565b50602082015160018201906110af90826142f0565b5050600080549150806110c1836143b0565b919050555082602001516001600160a01b03167f5b9d750bc091c053cf6d861d7a8c4708db4a61c03df21830c1e604ff82c3c467858e8660a001518760c0015187604051611131959493929190948552602085019390935260408401919091526060830152608082015260a00190565b60405180910390a260019650505050611157565b8261114f816143b0565b935050610ce0565b836111905760405162461bcd60e51b81526020600482015260096024820152681b9bdd08199bdd5b9960ba1b6044820152606401610655565b60115483101561120057601754601180546001600160a01b0390921691859081106111bd576111bd614238565b60009182526020909120600160089092020101546001600160a01b0316036111ee576111e88361388b565b50611200565b826111f8816143b0565b935050611190565b60005b60115481101561126b578381141580156112495750611222828461428f565b6011828154811061123557611235614238565b906000526020600020906008020160000154105b15611259576112578161388b565b505b80611263816143b0565b915050611203565b5050505050505050505050565b600354600160a01b900460ff16156112a25760405162461bcd60e51b81526004016106559061401b565b6003546001600160a01b031633146112cc5760405162461bcd60e51b8152600401610655906141e5565b6201518081101580156112e2575062093a808111155b6112eb57600080fd5b600f55565b60156020526000908152604090208054819061130b90614186565b80601f016020809104026020016040519081016040528092919081815260200182805461133790614186565b80156113845780601f1061135957610100808354040283529160200191611384565b820191906000526020600020905b81548152906001019060200180831161136757829003601f168201915b50505050509080600101805461139990614186565b80601f01602080910402602001604051908101604052809291908181526020018280546113c590614186565b80156114125780601f106113e757610100808354040283529160200191611412565b820191906000526020600020905b8154815290600101906020018083116113f557829003601f168201915b5050505050905082565b600354600160a01b900460ff16156114465760405162461bcd60e51b81526004016106559061401b565b6003546001600160a01b031633146114705760405162461bcd60e51b8152600401610655906141e5565b600081116114ad5760405162461bcd60e51b815260206004820152600a60248201526904d757374206e6f7420360b41b6044820152606401610655565b600e55565b600354600160a01b900460ff16156114dc5760405162461bcd60e51b81526004016106559061401b565b600b546040516370a0823160e01b81526001600160a01b03808e1660048301528d926000929116906370a0823190602401602060405180830381865afa15801561152a573d6000803e3d6000fd5b505050506040513d601f19601f8201168201806040525081019061154e9190614049565b1161156b5760405162461bcd60e51b815260040161065590614062565b600c54601480546001600160a01b0319166001600160a01b0392831690811790915560405162d9267b60e31b81529183166004830152906306c933d890602401606060405180830381865afa1580156115c8573d6000803e3d6000fd5b505050506040513d601f19601f820116820180604052508101906115ec91906140ad565b516116095760405162461bcd60e51b815260040161065590614116565b60145460405162d9267b60e31b81526001600160a01b038381166004830152339216906306c933d890602401606060405180830381865afa158015611652573d6000803e3d6000fd5b505050506040513d601f19601f8201168201806040525081019061167691906140ad565b602001516001600160a01b0316146116a05760405162461bcd60e51b815260040161065590614116565b60005b60115481101561173957336001600160a01b0316601182815481106116ca576116ca614238565b60009182526020909120600160089092020101546001600160a01b0316036117275760405162461bcd60e51b815260206004820152601060248201526f105b1c9958591e481c1c9bdc1bdcd95960821b6044820152606401610655565b80611731816143b0565b9150506116a3565b50601154600510156117785760405162461bcd60e51b8152602060048201526008602482015267546f6f206d616e7960c01b6044820152606401610655565b611785620151808a6143c9565b1580156117955750620151808910155b6117d35760405162461bcd60e51b815260206004820152600f60248201526e4261642072656e74616c2074696d6560881b6044820152606401610655565b6117df42611c2061428f565b8b1180156117f8575061a8c06117f58c8c61421f565b11155b6118305760405162461bcd60e51b815260206004820152600960248201526842616420646174657360b81b6044820152606401610655565b60075489101580156118445750600f548911155b61187c5760405162461bcd60e51b8152602060048201526009602482015268151bdbc81cda1bdc9d60ba1b6044820152606401610655565b6000881161188957600080fd5b6000600e541161189857600080fd5b83158015906118a657508115155b6118c25760405162461bcd60e51b8152600401610655906141c0565b6000604051806101000160405280888152602001336001600160a01b031681526020018d81526020018c81526020018b81526020018a815260200189815260200160001515815250905060118190806001815401808255809150506001900390600052602060002090600802016000909190919091506000820151816000015560208201518160010160006101000a8154816001600160a01b0302191690836001600160a01b0316021790555060408201518160020155606082015181600301556080820151816004015560a0820151816005015560c0820151816006015560e08201518160070160006101000a81548160ff0219169083151502179055505050306001600160a01b0316336001600160a01b03167fa525a3c742fc5bd56efc0e8bb27f6fb6037555aa4b86113bb39e7929b18d14e3898f8f8f8f8f8e8e8e8e604051611a189a99989796959493929190614406565b60405180910390a350505050505050505050505050565b600354600160a01b900460ff1615611a595760405162461bcd60e51b81526004016106559061401b565b60048054604051636eb1769f60e11b81523392810192909252306024830152829182916001600160a01b03169063dd62ed3e90604401602060405180830381865afa158015611aac573d6000803e3d6000fd5b505050506040513d601f19601f82011682018060405250810190611ad09190614049565b1015611b0e5760405162461bcd60e51b815260206004820152600d60248201526c1399595908185c1c1c9bdd985b609a1b6044820152606401610655565b60008211611b4b5760405162461bcd60e51b815260206004820152600a60248201526910985908185b5bdd5b9d60b21b6044820152606401610655565b600480546040516370a0823160e01b8152339281019290925283916001600160a01b03909116906370a0823190602401602060405180830381865afa158015611b98573d6000803e3d6000fd5b505050506040513d601f19601f82011682018060405250810190611bbc9190614049565b1015611bda5760405162461bcd60e51b815260040161065590614465565b600454611bf2906001600160a01b0316333085613a76565b60408051838152426020820152309133917f224b1db9c133c01e120ca7551e3b56fec93a1f208e1c0509c23361a560a61026910160405180910390a35050565b600354600160a01b900460ff1615611c5c5760405162461bcd60e51b81526004016106559061401b565b6003546001600160a01b03163314611c865760405162461bcd60e51b8152600401610655906141e5565b60105460ff16611ca85760405162461bcd60e51b81526004016106559061413f565b6017546001600160a01b0316611cd05760405162461bcd60e51b815260040161065590614163565b6017546001600160a01b031660009081526015602052604081208054611cf590614186565b9050118015611d2b57506017546001600160a01b031660009081526015602052604081206001018054611d2790614186565b9050115b611d475760405162461bcd60e51b8152600401610655906141c0565b6017546001600160a01b031660009081526016602052604081208054611d6f9060019061421f565b81548110611d7f57611d7f614238565b6000918252602090912060079091020160068101549091506301000000900460ff1615611dde5760405162461bcd60e51b815260206004820152600d60248201526c30b63932b0b23c903a30b5b2b760991b6044820152606401610655565b60068101805463ff00000019166301000000179055601754601380546001600160a01b0319166001600160a01b03928316908117909155600354604051631708536360e11b81529216600483015290632e10a6c690602401600060405180830381600087803b158015611e5057600080fd5b505af1158015611e64573d6000803e3d6000fd5b50506017546001600160a01b03166000818152601560205260409081902090513094509192507f58441e06988866f5582b245c6d5073b65d386d56d2d7f2ee714ae642aba451bf91611ebc914291600182019061450c565b60405180910390a350565b600a546000906001600160a01b03163314611f1d5760405162461bcd60e51b815260206004820152601660248201527513db9b1e481dda1a5d195b1a5cdd10dbdb9d1c9858dd60521b6044820152606401610655565b60105460ff168015611f3957506017546001600160a01b031615155b1561206d576017546001600160a01b031660009081526016602052604081208054611f669060019061421f565b81548110611f7657611f76614238565b600091825260209182902060408051610160810182526007909302909101805480845260018201549484018590526002820154928401929092526003810154606084015260048101546080840152600581015460a08401526006015460ff808216151560c08501526101008083048216151560e08601526201000083048216151590850152630100000082048116151561012085015264010000000090910416151561014083015290925061202b919061428f565b421161206b5760405162461bcd60e51b815260206004820152600f60248201526e2932b73a30b6103737ba1037bb32b960891b6044820152606401610655565b505b6003805460ff60a01b1916600160a01b1790556008805460ff19166001179055600480546040516370a0823160e01b815230928101929092526000916001600160a01b03909116906370a0823190602401602060405180830381865afa1580156120db573d6000803e3d6000fd5b505050506040513d601f19601f820116820180604052508101906120ff9190614049565b111561219157600354600480546040516370a0823160e01b81523092810192909252612191926001600160a01b03908116929116906370a0823190602401602060405180830381865afa15801561215a573d6000803e3d6000fd5b505050506040513d601f19601f8201168201806040525081019061217e9190614049565b6004546001600160a01b0316919061360c565b604051428152309033907f05bec130a67bc2853b0a7f5cfe8590b473fcc3342360d8933fb7064b1ebf8b6d9060200160405180910390a350600190565b600354600160a01b900460ff16156121f85760405162461bcd60e51b81526004016106559061401b565b6003546001600160a01b031633146122225760405162461bcd60e51b8152600401610655906141e5565b6001600160a01b0381161580159061224857506003546001600160a01b03828116911614155b801561225d57506001600160a01b0381163014155b61229b5760405162461bcd60e51b815260206004820152600f60248201526e496e76616c6964206164647265737360881b6044820152606401610655565b6011546122d95760405162461bcd60e51b815260206004820152600c60248201526b4e6f2070726f706f73616c7360a01b6044820152606401610655565b60005b6011548110156108ed57816001600160a01b03166011828154811061230357612303614238565b60009182526020909120600160089092020101546001600160a01b031603612395576011818154811061233857612338614238565b600091825260209091206007600890920201015460ff16156123875760405162461bcd60e51b81526020600482015260086024820152671858d8d95c1d195960c21b6044820152606401610655565b6123908161388b565b505050565b8061239f816143b0565b9150506122dc565b600354600160a01b900460ff16156123d15760405162461bcd60e51b81526004016106559061401b565b6003546001600160a01b031633146123fb5760405162461bcd60e51b8152600401610655906141e5565b60105460ff1661241d5760405162461bcd60e51b81526004016106559061413f565b6017546001600160a01b03166124455760405162461bcd60e51b815260040161065590614163565b6017546001600160a01b03166000908152601560205260408120805461246a90614186565b90501180156124a057506017546001600160a01b03166000908152601560205260408120600101805461249c90614186565b9050115b6124bc5760405162461bcd60e51b8152600401610655906141c0565b6017546001600160a01b0316600090815260166020526040812080546124e49060019061421f565b815481106124f4576124f4614238565b906000526020600020906007020190508060060160029054906101000a900460ff161515600115151461255e5760405162461bcd60e51b815260206004820152601260248201527114d9595b5cc81b9bdd081c995d1d5c9b995960721b6044820152606401610655565b6006810154640100000000900460ff16156125ae5760405162461bcd60e51b815260206004820152601060248201526f105b1c9958591e481c995d1d5c9b995960821b6044820152606401610655565b6003810154600480546040516370a0823160e01b8152309281019290925282916001600160a01b03909116906370a0823190602401602060405180830381865afa158015612600573d6000803e3d6000fd5b505050506040513d601f19601f820116820180604052508101906126249190614049565b10156126425760405162461bcd60e51b815260040161065590614465565b601754601380546001600160a01b0319166001600160a01b039283169081179091556003546040516320d32a3d60e21b8152921660048301529063834ca8f490602401600060405180830381600087803b15801561269f57600080fd5b505af11580156126b3573d6000803e3d6000fd5b50505060068301805464ff0000000019166401000000001790555060048201546017546001600160a01b0316600090815260016020526040812080548392906126fd90849061428f565b925050819055508060026000828254612716919061428f565b90915550506010805460ff19169055601780546001600160a01b031981169091556004546001600160a01b03918216916127529116828561360c565b60125460405163255d23d760e11b8152306004820152602481018490526001600160a01b0390911690634aba47ae90604401600060405180830381600087803b15801561279e57600080fd5b505af11580156127b2573d6000803e3d6000fd5b505085546017546001600160a01b0390811660009081526015602052604090819020905130955091861693507fd1f1a30283b7ed6d050782e027445c7aa39a1666d996d3e3bf09ec20ac74800b9261281592909189914291906001820190614541565b60405180910390a350505050565b6003546001600160a01b0316331461284d5760405162461bcd60e51b8152600401610655906141e5565b600354600160a01b900460ff168015612869575060085460ff16155b6128ae5760405162461bcd60e51b81526020600482015260166024820152751058dd1a5d985d1959081bdc8819195cdd1c9bde595960521b6044820152606401610655565b82158015906128bc57508015155b6128fe5760405162461bcd60e51b81526020600482015260136024820152724750532063616e6e6f7420626520656d70747960681b6044820152606401610655565b61290a84848484612966565b6003805460ff60a01b19169055604051428152309033907f975a71b6f0e7c3037baf066252bb3dde490161b5536420b1954b32b39316f7b790602001612815565b60096020526000908152604090208054819061130b90614186565b6003546001600160a01b031633146129905760405162461bcd60e51b8152600401610655906141e5565b60085460ff16156129cf5760405162461bcd60e51b815260206004820152600960248201526811195cdd1c9bde595960ba1b6044820152606401610655565b82158015906129dd57508015155b612a155760405162461bcd60e51b815260206004820152600960248201526847505320656d70747960b81b6044820152606401610655565b30600090815260096020526040902080612a30858783614584565b5060018101612a40838583614584565b50604051309033907f6cad0fcdfd6b730f10e1bef22b48067bd4880a9e9bec47880bceb85733be339690612a7d9042908a908a908a908a90614645565b60405180910390a35050505050565b600354600160a01b900460ff1615612ab65760405162461bcd60e51b81526004016106559061401b565b60105460ff16612ad85760405162461bcd60e51b81526004016106559061413f565b6017546001600160a01b0316612b005760405162461bcd60e51b815260040161065590614163565b6017546001600160a01b031660009081526015602052604081208054612b2590614186565b9050118015612b5b57506017546001600160a01b031660009081526015602052604081206001018054612b5790614186565b9050115b612b775760405162461bcd60e51b8152600401610655906141c0565b6003546001600160a01b03163314612ba15760405162461bcd60e51b8152600401610655906141e5565b612bab60006132a7565b565b600354600090600160a01b900460ff1615612bda5760405162461bcd60e51b81526004016106559061401b565b6003546001600160a01b03163314612c045760405162461bcd60e51b8152600401610655906141e5565b60005b601154811015612e675760065460118281548110612c2757612c27614238565b90600052602060002090600802016000015442612c44919061421f565b1115612e5557805b601154612c5b9060019061421f565b811015612e4f57600060118281548110612c7757612c77614238565b60009182526020822060016008909202010154601180546001600160a01b0390921693509084908110612cac57612cac614238565b600091825260209091206008909102015490506011612ccc84600161428f565b81548110612cdc57612cdc614238565b906000526020600020906008020160118481548110612cfd57612cfd614238565b60009182526020909120825460089092020190815560018083015490820180546001600160a01b0319166001600160a01b0390921691909117905560028083015490820155600380830154908201556004808301549082015560058083015490820155600680830154908201556007918201549101805460ff909216151560ff199092169190911790556011805480612d9857612d98614672565b6000828152602081206008600019909301928302018181556001810180546001600160a01b0319169055600281018290556003810182905560048101829055600581018290556006810191909155600701805460ff19169055905560405130906001600160a01b038416907f1a07a16d411b1999de40db18a15f956f20021655f5dc8cf7685cdb7c9447710f90612e329085815260200190565b60405180910390a350508080612e47906143b0565b915050612c4c565b50612c07565b80612e5f816143b0565b915050612c07565b600191505090565b600354600160a01b900460ff1615612e995760405162461bcd60e51b81526004016106559061401b565b600b546040516370a0823160e01b81526001600160a01b03808416600483015283926000929116906370a0823190602401602060405180830381865afa158015612ee7573d6000803e3d6000fd5b505050506040513d601f19601f82011682018060405250810190612f0b9190614049565b11612f285760405162461bcd60e51b815260040161065590614062565b600c54601480546001600160a01b0319166001600160a01b0392831690811790915560405162d9267b60e31b81529183166004830152906306c933d890602401606060405180830381865afa158015612f85573d6000803e3d6000fd5b505050506040513d601f19601f82011682018060405250810190612fa991906140ad565b51612fc65760405162461bcd60e51b815260040161065590614116565b60145460405162d9267b60e31b81526001600160a01b038381166004830152339216906306c933d890602401606060405180830381865afa15801561300f573d6000803e3d6000fd5b505050506040513d601f19601f8201168201806040525081019061303391906140ad565b602001516001600160a01b03161461305d5760405162461bcd60e51b815260040161065590614116565b60105460ff1661307f5760405162461bcd60e51b81526004016106559061413f565b6017546001600160a01b03166130a75760405162461bcd60e51b815260040161065590614163565b6017546001600160a01b0316600090815260156020526040812080546130cc90614186565b905011801561310257506017546001600160a01b0316600090815260156020526040812060010180546130fe90614186565b9050115b61311e5760405162461bcd60e51b8152600401610655906141c0565b6017546001600160a01b031633146131695760405162461bcd60e51b815260206004820152600e60248201526d31bab93932b73a103932b73a32b960911b6044820152606401610655565b6017546001600160a01b0316600090815260166020526040812080546131919060019061421f565b815481106131a1576131a1614238565b60009182526020909120600790910201600681015490915062010000900460ff16156132005760405162461bcd60e51b815260206004820152600e60248201526d1cd9595b5cc81c995d1d5c9b995960921b6044820152606401610655565b60068101805462ff0000191662010000179055604051309033907f729121cdd407f14c64c9ac6675d96b747e07df398480f86c9ff9ce27d72291b590610b0b9042815260200190565b600354600090600160a01b900460ff16156132765760405162461bcd60e51b81526004016106559061401b565b6003546001600160a01b031633146132a05760405162461bcd60e51b8152600401610655906141e5565b5060025490565b6017546001600160a01b0316600090815260166020526040812080546132cf9060019061421f565b815481106132df576132df614238565b6000918252602090912060079091020160068101549091506301000000900460ff161561333e5760405162461bcd60e51b815260206004820152600d60248201526c10d85b9b9bdd0818d85b98d95b609a1b6044820152606401610655565b6006810154610100900460ff161561338b5760405162461bcd60e51b815260206004820152601060248201526f105b1c9958591e481c99599d5b99195960821b6044820152606401610655565b600080826002015483600301546133a2919061428f565b90508315156001036133f6576017546001600160a01b031633146133f65760405162461bcd60e51b815260206004820152600b60248201526a27b7363c903932b73a32b960a91b6044820152606401610655565b83801561340d57506017546001600160a01b031633145b80156134275750825461342390611c209061421f565b4210155b613431578061345a565b61271083600201546103e86134469190614278565b6134509190614264565b61345a908261421f565b600480546040516370a0823160e01b8152309281019290925291935083916001600160a01b0316906370a0823190602401602060405180830381865afa1580156134a8573d6000803e3d6000fd5b505050506040513d601f19601f820116820180604052508101906134cc9190614049565b10156134ea5760405162461bcd60e51b815260040161065590614465565b83151560000361357857601754601380546001600160a01b0319166001600160a01b0392831690811790915560035460405163778f520b60e01b81526004810186905292166024830152600160448301529063778f520b90606401600060405180830381600087803b15801561355f57600080fd5b505af1158015613573573d6000803e3d6000fd5b505050505b60068301805461ff0019166101001790556010805460ff19169055601780546001600160a01b031981169091556004546001600160a01b03918216916135c09116828561360c565b83546040805191825260208201859052429082015230906001600160a01b038316907f8dba7674f4ebd6a9e5e12953a7582d0a9dd220e6c27941dec40f27ff52d6722f90606001612a7d565b6040516001600160a01b03831660248201526044810182905261239090849063a9059cbb60e01b906064015b60408051601f198184030181529190526020810180516001600160e01b03166001600160e01b031990931692909217909152613ab4565b600354600160a01b900460ff16156136995760405162461bcd60e51b81526004016106559061401b565b612710600554836136aa9190614278565b6136b5906064614278565b10156136c057600080fd5b6000612710600554846136d39190614278565b6136de906064614278565b6136e89190614264565b905060006136f6838561428f565b905060166000876001600160a01b03166001600160a01b03168152602001908152602001600020604051806101600160405280898152602001878152602001868152602001858152602001848152602001838152602001600115158152602001600015158152602001600015158152602001600015158152602001600015158152509080600181540180825580915050600190039060005260206000209060070201600090919091909150600082015181600001556020820151816001015560408201518160020155606082015181600301556080820151816004015560a0820151816005015560c08201518160060160006101000a81548160ff02191690831515021790555060e08201518160060160016101000a81548160ff0219169083151502179055506101008201518160060160026101000a81548160ff0219169083151502179055506101208201518160060160036101000a81548160ff0219169083151502179055506101408201518160060160046101000a81548160ff021916908315150217905550505050505050505050565b600080601183815481106138a1576138a1614238565b60009182526020822060016008909202010154601180546001600160a01b03909216935090859081106138d6576138d6614238565b9060005260206000209060080201600001549050601160016011805490506138fe919061421f565b8154811061390e5761390e614238565b90600052602060002090600802016011858154811061392f5761392f614238565b60009182526020909120825460089092020190815560018083015490820180546001600160a01b0319166001600160a01b0390921691909117905560028083015490820155600380830154908201556004808301549082015560058083015490820155600680830154908201556007918201549101805460ff909216151560ff1990921691909117905560118054806139ca576139ca614672565b6000828152602081206008600019909301928302018181556001810180546001600160a01b0319169055600281018290556003810182905560048101829055600581018290556006810191909155600701805460ff19169055905560405130906001600160a01b038416907f1a07a16d411b1999de40db18a15f956f20021655f5dc8cf7685cdb7c9447710f90613a649085815260200190565b60405180910390a35060019392505050565b6040516001600160a01b0380851660248301528316604482015260648101829052613aae9085906323b872dd60e01b90608401613638565b50505050565b6000613b09826040518060400160405280602081526020017f5361666545524332303a206c6f772d6c6576656c2063616c6c206661696c6564815250856001600160a01b0316613b869092919063ffffffff16565b8051909150156123905780806020019051810190613b279190614688565b6123905760405162461bcd60e51b815260206004820152602a60248201527f5361666545524332303a204552433230206f7065726174696f6e20646964206e6044820152691bdd081cdd58d8d9595960b21b6064820152608401610655565b6060613b958484600085613b9d565b949350505050565b606082471015613bfe5760405162461bcd60e51b815260206004820152602660248201527f416464726573733a20696e73756666696369656e742062616c616e636520666f6044820152651c8818d85b1b60d21b6064820152608401610655565b600080866001600160a01b03168587604051613c1a91906146a3565b60006040518083038185875af1925050503d8060008114613c57576040519150601f19603f3d011682016040523d82523d6000602084013e613c5c565b606091505b5091509150613c6d87838387613c78565b979650505050505050565b60608315613ce7578251600003613ce0576001600160a01b0385163b613ce05760405162461bcd60e51b815260206004820152601d60248201527f416464726573733a2063616c6c20746f206e6f6e2d636f6e74726163740000006044820152606401610655565b5081613b95565b613b958383815115613cfc5781518083602001fd5b8060405162461bcd60e51b815260040161065591906146bf565b600060208284031215613d2857600080fd5b5035919050565b6001600160a01b0381168114613d4457600080fd5b50565b60008060408385031215613d5a57600080fd5b8235613d6581613d2f565b946020939093013593505050565b600060208284031215613d8557600080fd5b8135613d9081613d2f565b9392505050565b60008083601f840112613da957600080fd5b50813567ffffffffffffffff811115613dc157600080fd5b602083019150836020828501011115613dd957600080fd5b9250929050565b60008060008060008060808789031215613df957600080fd5b8635613e0481613d2f565b955060208701359450604087013567ffffffffffffffff80821115613e2857600080fd5b613e348a838b01613d97565b90965094506060890135915080821115613e4d57600080fd5b50613e5a89828a01613d97565b979a9699509497509295939492505050565b60005b83811015613e87578181015183820152602001613e6f565b50506000910152565b60008151808452613ea8816020860160208601613e6c565b601f01601f19169290920160200192915050565b604081526000613ecf6040830185613e90565b8281036020840152613ee18185613e90565b95945050505050565b60008060008060008060008060008060006101208c8e031215613f0c57600080fd5b613f168c35613d2f565b8b359a5060208c0135995060408c0135985060608c0135975060808c0135965060a08c0135955060c08c0135945067ffffffffffffffff8060e08e01351115613f5e57600080fd5b613f6e8e60e08f01358f01613d97565b90955093506101008d0135811015613f8557600080fd5b50613f978d6101008e01358e01613d97565b81935080925050509295989b509295989b9093969950565b60008060008060408587031215613fc557600080fd5b843567ffffffffffffffff80821115613fdd57600080fd5b613fe988838901613d97565b9096509450602087013591508082111561400257600080fd5b5061400f87828801613d97565b95989497509550505050565b60208082526014908201527310dbdb9d1c9858dd0819195858dd1a5d985d195960621b604082015260600190565b60006020828403121561405b57600080fd5b5051919050565b602080825260069082015265139bc813919560d21b604082015260600190565b634e487b7160e01b600052604160045260246000fd5b805180151581146140a857600080fd5b919050565b6000606082840312156140bf57600080fd5b6040516060810181811067ffffffffffffffff821117156140e2576140e2614082565b6040526140ee83614098565b815260208301516140fe81613d2f565b60208201526040928301519281019290925250919050565b6020808252600f908201526e139bdd081dda1a5d195b1a5cdd1959608a1b604082015260600190565b6020808252600a9082015269139bdd081c995b9d195960b21b604082015260600190565b6020808252600990820152682737903632b73232b960b91b604082015260600190565b600181811c9082168061419a57607f821691505b6020821081036141ba57634e487b7160e01b600052602260045260246000fd5b50919050565b6020808252600b908201526a11d414c81b9bdd081cd95d60aa1b604082015260600190565b6020808252600a908201526937b7363c9037bbb732b960b11b604082015260600190565b634e487b7160e01b600052601160045260246000fd5b8181038181111561423257614232614209565b92915050565b634e487b7160e01b600052603260045260246000fd5b634e487b7160e01b600052601260045260246000fd5b6000826142735761427361424e565b500490565b808202811582820484141761423257614232614209565b8082018082111561423257614232614209565b601f82111561239057600081815260208120601f850160051c810160208610156142c95750805b601f850160051c820191505b818110156142e8578281556001016142d5565b505050505050565b815167ffffffffffffffff81111561430a5761430a614082565b61431e816143188454614186565b846142a2565b602080601f831160018114614353576000841561433b5750858301515b600019600386901b1c1916600185901b1785556142e8565b600085815260208120601f198616915b8281101561438257888601518255948401946001909101908401614363565b50858210156143a05787850151600019600388901b60f8161c191681555b5050505050600190811b01905550565b6000600182016143c2576143c2614209565b5060010190565b6000826143d8576143d861424e565b500690565b81835281816020850137506000828201602090810191909152601f909101601f19169091010190565b60006101008c83528b60208401528a60408401528960608401528860808401528760a08401528060c084015261443f81840187896143dd565b905082810360e08401526144548185876143dd565b9d9c50505050505050505050505050565b60208082526010908201526f24b739bab33334b1b4b2b73a102b992960811b604082015260600190565b6000815461449c81614186565b8085526020600183811680156144b957600181146144d357614501565b60ff1985168884015283151560051b880183019550614501565b866000528260002060005b858110156144f95781548a82018601529083019084016144de565b890184019650505b505050505092915050565b838152606060208201526000614525606083018561448f565b8281036040840152614537818561448f565b9695505050505050565b85815284602082015283604082015260a06060820152600061456660a083018561448f565b8281036080840152614578818561448f565b98975050505050505050565b67ffffffffffffffff83111561459c5761459c614082565b6145b0836145aa8354614186565b836142a2565b6000601f8411600181146145e457600085156145cc5750838201355b600019600387901b1c1916600186901b17835561463e565b600083815260209020601f19861690835b8281101561461557868501358255602094850194600190920191016145f5565b50868210156146325760001960f88860031b161c19848701351681555b505060018560011b0183555b5050505050565b85815260606020820152600061465f6060830186886143dd565b82810360408401526145788185876143dd565b634e487b7160e01b600052603160045260246000fd5b60006020828403121561469a57600080fd5b613d9082614098565b600082516146b5818460208701613e6c565b9190910192915050565b602081526000613d906020830184613e9056fea26469706673582212207799fe7a85fd3a3ef5a681530c433f897648d009540e4c9aee253b98def7a33164736f6c63430008120033",
  "immutableReferences": {},
  "source": "// SPDX-License-Identifier: MIT\npragma solidity ^0.8.17;\n/////////////////////////////////// BikeShare contract ///////////////////////////////////\n\nimport \"@openzeppelin/contracts/interfaces/IERC721.sol\";\nimport \"./Utilities.sol\";\n\ninterface I3VaultW2R {\n    function distributeW2R(address receiver, uint256 amount) external;\n}\n\ninterface IrenterWhitelist {\n    struct Renter {\n        bool isWhitelisted;\n        address bikeRentContract;\n        uint NFTId;\n    }\n\n    function whitelistedAddresses(\n        address\n    ) external view returns (Renter memory);\n}\n\ninterface IBikeRent {\n    function rentBike(\n        address _bikeShareContract,\n        uint _rentalPrice,\n        uint _depositAmount,\n        uint _rentalTime,\n        uint _rentalDate\n    ) external;\n\n    function cancelledLending(\n        uint _refund,\n        address _bikeShareOwner,\n        bool _isCancelledByLender\n    ) external;\n\n    function returnConfirmed(address _bikeShareOwner) external;\n\n    function confirmBikeInHands(address _bikeShareOwner) external;\n}\n\ncontract BikeShare is Utilities {\n    using SafeERC20 for IERC20;\n    address whitelistLender;\n    address renterNFT;\n    address whitelistRenter;\n    uint public rate; // Prix de location par jour\n    uint public depositAmount; // Montant de la caution\n    uint public maximumRental; // Dure maximale de location, PEUT ETRE RENSEIGNE\n    bool public isRented; // Vlo lou ou non\n\n    event BikeRented(\n        address indexed renter,\n        uint rentalTime,\n        uint rentalDate,\n        uint rate,\n        uint deposit,\n        uint rentalPrice\n    );\n\n    event BikeReturned(\n        uint rentalDate,\n        address indexed renter,\n        uint depositReturned,\n        uint returnDate,\n        address indexed lender,\n        string latitude,\n        string longitude\n    );\n\n    event RentingCancelled(\n        address indexed renter,\n        uint date,\n        uint depositReturned,\n        uint returnDate,\n        address indexed lender\n    );\n\n    event ProposalReceived(\n        address indexed renter, // address du contrat locataire\n        uint date, // date de la proposition\n        address indexed lender, // address du contrat propritaire\n        uint rentalDateMin, // date de la location souhaite\n        uint rentalDateMax, // date de la location souhaite\n        uint rentalTime, // dure de la location souhaite\n        uint rate, // taux de location au moment de la proposition\n        uint depositAmount, // taux de dpt au moment de la proposition\n        string latitude,\n        string longitude\n    );\n\n    event BikeTaken(\n        address indexed renter,\n        uint date,\n        address indexed lender,\n        string latitude,\n        string longitude\n    );\n\n    event RentalSeemsReturned(\n        address indexed renter,\n        uint date,\n        address indexed lender\n    );\n\n    struct Proposal {\n        // time of the proposal\n        uint date; // date de la proposition\n        address _renter; // address of the renter\n        uint _rentalDateMin; // date de la location, heure de RDV minimum\n        uint _rentalDateMax; // date de la location, heure de RDV maximum\n        uint _rentalTime; // dure de la location\n        uint _rate; // prix de la location par jour\n        uint _depositAmount; // montant de la caution\n        bool _isAccepted; // proposition accepte ou non\n    }\n\n    Proposal[] public proposals;\n\n    struct Rental {\n        uint date; // date de la location\n        uint rentalTime; // dure de la location\n        uint rentalPrice; // prix de la location\n        uint depositAmount; // montant de la caution\n        uint rewardExpected; // rcompense\n        uint amountAsked; // montant demand\n        bool isAccepted; // location accepte ou non\n        bool isRefunded; // montant rembours ou non\n        bool seemsReturned; // location dclare rendue ou non\n        bool cantCancel; // impossible de cancel la location\n        bool isReturned; // location rendue ou non\n    }\n\n    // import VaultW2R interface\n    I3VaultW2R private vaultW2R;\n\n    IBikeRent bikeRent;\n\n    // instantiate IrenterWhitelist interface\n    IrenterWhitelist private RenterWhitelist;\n\n    struct RentalGPS {\n        string latitude;\n        string longitude;\n    }\n\n    mapping(address => RentalGPS) public rentalGPSData;\n\n    // mapping of rentals, address of the renter is the key\n    mapping(address => Rental[]) public rentals;\n    address public currentRenter;\n\n    constructor(\n        address _lender,\n        address _W2Rtoken,\n        address _renterNFT,\n        address _whitelistLender,\n        address _vaultW2R,\n        address _whitelistRenter\n    ) Utilities(_lender, _W2Rtoken) {\n        require(_renterNFT != address(0));\n        require(\n            msg.sender == _whitelistLender,\n            \"Only the whitelist can deploy\"\n        );\n        require(_vaultW2R != address(0));\n        require(_whitelistRenter != address(0));\n        renterNFT = _renterNFT;\n        whitelistLender = _whitelistLender;\n        vaultW2R = I3VaultW2R(_vaultW2R);\n        whitelistRenter = _whitelistRenter;\n        // default values\n        maximumRental = 1 days;\n        rate = 100000000000000000000; // 100 W2R\n        depositAmount = 200000000000000000000; // 200 W2R\n    }\n\n    // modifier to check if a renter has the NFT\n    modifier checkRenterNFT(address _bikeRentOwner) {\n        require(IERC721(renterNFT).balanceOf(_bikeRentOwner) > 0, \"No NFT\");\n        RenterWhitelist = IrenterWhitelist(whitelistRenter);\n        require(\n            RenterWhitelist.whitelistedAddresses(_bikeRentOwner).isWhitelisted,\n            \"Not whitelisted\"\n        );\n        require(\n            RenterWhitelist\n                .whitelistedAddresses(_bikeRentOwner)\n                .bikeRentContract == msg.sender,\n            \"Not whitelisted\"\n        );\n        _;\n    }\n\n    modifier lending() {\n        require(isRented, \"Not rented\");\n        require(currentRenter != address(0), \"No lender\");\n        require(\n            bytes(rentalGPSData[currentRenter].latitude).length > 0 &&\n                bytes(rentalGPSData[currentRenter].longitude).length > 0,\n            \"GPS not set\"\n        );\n        _;\n    }\n\n    function setRate(uint _rate) external onlyOwner {\n        require(_rate > 0);\n        rate = _rate;\n    }\n\n    // fonction pour fixer le taux de la caution\n    function setDepositAmount(\n        uint _depositAmount\n    ) external isActivated onlyOwner {\n        require(_depositAmount > 0, \"Must not 0\");\n        depositAmount = _depositAmount;\n    }\n\n    // fonction pour fixer la dure maximale de location\n    function setMaximumRental(\n        uint _maximumRental\n    ) external isActivated onlyOwner {\n        require(_maximumRental >= 1 days && _maximumRental <= 1 weeks);\n        maximumRental = _maximumRental;\n    }\n\n    function getRentalsByAdresses(address renter) external view returns (uint) {\n        return rentals[renter].length;\n    }\n\n    // fonction pour renseigner les dtails de la location\n    function setRentalStruct(\n        uint _date, // date de la location\n        address _renter, // address du contrat locataire\n        uint _rentalTime, // dure de la location\n        uint _rentalPrice, // prix de la location\n        uint _depositAmount // montant de la caution\n    ) private isActivated {\n        require((_rentalPrice * rewardAmount * 100) >= 10000);\n        uint reward = (_rentalPrice * rewardAmount * 100) / 10000;\n        uint _amountAsked = _rentalPrice + _depositAmount;\n        rentals[_renter].push(\n            Rental(\n                _date,\n                _rentalTime,\n                _rentalPrice,\n                _depositAmount,\n                reward,\n                _amountAsked,\n                true,\n                false,\n                false,\n                false,\n                false\n            )\n        );\n    }\n\n    // fonction pour proposer une location appele par le contrat locataire\n    function setProposal(\n        address _bikeRentOwner,\n        uint _dateMin, // date de la location souhaite, heure de RDV minimum\n        uint _dateMax, // date de la location souhaite, heure de RDV maximum\n        uint _rentalTime, // dure de la location propose\n        uint _rate, // taux de la location au moment de la proposition\n        uint _depositAmount, // caution au moment de la proposition\n        uint date,\n        string calldata _latitude,\n        string calldata _longitude\n    ) external isActivated checkRenterNFT(_bikeRentOwner) {\n        // require(deleteOldProposals());\n        for (uint i = 0; i < proposals.length; i++) {\n            if (proposals[i]._renter == msg.sender) {\n                revert(\"Already proposed\");\n            }\n        }\n        require(proposals.length <= 5, \"Too many\");\n        // check rentalTime is modulo 1 days\n        require(\n            _rentalTime % 1 days == 0 && _rentalTime >= 1 days,\n            \"Bad rental time\"\n        );\n        require(\n            _dateMin > block.timestamp + 2 hours &&\n                _dateMax - _dateMin <= 12 hours,\n            \"Bad dates\"\n        );\n        require(\n            _rentalTime >= minimalRental && _rentalTime <= maximumRental,\n            \"Too short\"\n        );\n        require(_rate > 0);\n        require(depositAmount > 0);\n        require(\n            bytes(_latitude).length > 0 && bytes(_longitude).length > 0,\n            \"GPS not set\"\n        );\n\n        Proposal memory proposal = Proposal(\n            date, // date de rception de la proposition\n            msg.sender, // address du contrat renter\n            _dateMin, // date de la location souhaite, heure de RDV minimum\n            _dateMax, // date de la location souhaite, heure de RDV maximum\n            _rentalTime, // dure de la location souhaite\n            _rate, // taux de la location au moment de la proposition\n            _depositAmount, // taux de la caution au moment de la proposition\n            false // proposition accepte ou non\n        );\n        proposals.push(proposal);\n        emit ProposalReceived(\n            msg.sender, // address du contrat locataire\n            date, // date de la proposition\n            address(this), // address du contrat propritaire\n            _dateMin, // date de la location souhaite\n            _dateMax, // date de la location souhaite\n            _rentalTime, // dure de la location souhaite\n            _rate, // taux de location au moment de la proposition\n            _depositAmount, // taux de dpt au moment de la proposition\n            _latitude,\n            _longitude\n        );\n    }\n\n    function getProposalsLength() external view returns (uint) {\n        return proposals.length;\n    }\n\n    function getRentalsLength(address renter) external view returns (uint) {\n        return rentals[renter].length;\n    }\n\n    // order come from front-end when user open the proposal page\n    function deleteOldProposals()\n        external\n        isActivated\n        onlyOwner\n        returns (bool)\n    {\n        uint i = 0;\n        while (i < proposals.length) {\n            if (block.timestamp - proposals[i].date > proposalDuration) {\n                for (uint j = i; j < proposals.length - 1; j++) {\n                    address renter = proposals[j]._renter;\n                    uint date = proposals[j].date;\n                    proposals[j] = proposals[j + 1];\n                    proposals.pop();\n                    emit ProposalCancelled(renter, date, address(this));\n                }\n            } else {\n                i++;\n            }\n        }\n        return true;\n    }\n\n    // inform bikeRent contract that the proposal has been accepted\n    // GPS coordinates come from front-end\n    function acceptProposal(\n        address _bikeRent,\n        uint _meetingHour,\n        string calldata _latitude,\n        string calldata _longitude\n    ) external isActivated onlyOwner {\n        require(!isRented, \"Already rented\");\n        require(_meetingHour > 0);\n        require(\n            _bikeRent != address(0) &&\n                _bikeRent != owner &&\n                _bikeRent != address(this),\n            \"Invalid address\"\n        );\n        require(proposals.length > 0, \"No proposals\");\n        require(\n            bytes(_latitude).length > 0 && bytes(_longitude).length > 0,\n            \"GPS not set\"\n        );\n        bool proposalFound;\n        uint i;\n        uint dateMax;\n        uint rentalTime;\n        for (i = 0; i < proposals.length; i++) {\n            if (proposals[i]._renter == _bikeRent) {\n                Proposal memory proposalLoop = proposals[i];\n                require(\n                    _meetingHour >= proposalLoop._rentalDateMin && // date de RDV minimum\n                        _meetingHour <= proposalLoop._rentalDateMax,\n                    \"invalid hour\" // date de RDV maximum\n                );\n                uint rentalPrice = (proposalLoop._rentalTime / 86400) *\n                    proposalLoop._rate;\n                dateMax = proposalLoop._rentalDateMax;\n                rentalTime = proposalLoop._rentalTime;\n                bikeRent = IBikeRent(proposalLoop._renter);\n                // check W2R balance of renter contract\n                require(\n                    W2R.balanceOf(proposalLoop._renter) >=\n                        rentalPrice + proposalLoop._depositAmount,\n                    \"Not enough W2R\"\n                );\n                uint meetingHour = _meetingHour;\n                setRentalStruct(\n                    meetingHour, // date et heure de la location\n                    proposalLoop._renter, // address du contrat locataire\n                    rentalTime, // dure de la location\n                    rentalPrice, // prix de la location\n                    proposalLoop._depositAmount // montant de la caution\n                );\n                bikeRent.rentBike(\n                    owner, // address du propritaire\n                    rentalPrice, // prix de la location\n                    proposalLoop._depositAmount, // montant de la caution\n                    rentalTime, // dure de la location\n                    meetingHour // date de la location\n                );\n                // set bike as rented if no revert\n                proposalLoop._isAccepted = true;\n                isRented = true;\n                currentRenter = proposalLoop._renter;\n                rentalGPSData[currentRenter] = RentalGPS(_latitude, _longitude);\n                totalRentals++;\n                emit BikeRented(\n                    proposalLoop._renter, // address du contrat locataire\n                    rentalTime, // dure de la location\n                    _meetingHour, // date de la location\n                    proposalLoop._rate, // taux de la location\n                    proposalLoop._depositAmount, // montant de la caution\n                    rentalPrice // prix de la location\n                );\n                proposalFound = true;\n                break;\n            }\n        }\n        require(proposalFound, \"not found\");\n        // delete proposal from the renter as it has been accepted\n        while (i < proposals.length) {\n            if (proposals[i]._renter == currentRenter) {\n                cancelUselessProposals(i);\n                break;\n            } else {\n                i++;\n            }\n        }\n        //delete proposal which date is before the rental date\n        for (uint j = 0; j < proposals.length; j++) {\n            if (j != i && proposals[j].date < (dateMax + rentalTime)) {\n                cancelUselessProposals(j);\n            }\n        }\n    }\n\n    function cancelUselessProposals(uint index) private returns (bool) {\n        address renter = proposals[index]._renter;\n        uint256 date = proposals[index].date;\n        proposals[index] = proposals[proposals.length - 1];\n        proposals.pop();\n        emit ProposalCancelled(renter, date, address(this));\n        return true;\n    }\n\n    function cancelProposal(address _bikerent) public isActivated onlyOwner {\n        require(\n            _bikerent != address(0) &&\n                _bikerent != owner &&\n                _bikerent != address(this),\n            \"Invalid address\"\n        );\n        require(proposals.length > 0, \"No proposals\");\n        uint i = 0;\n        while (i < proposals.length) {\n            if (proposals[i]._renter == _bikerent) {\n                require(proposals[i]._isAccepted == false, \"accepted\");\n                cancelUselessProposals(i);\n                break;\n            } else {\n                i++;\n            }\n        }\n    }\n\n    // function to activate when the Renter has physically taken the bike\n    function confirmBikeTaken() external isActivated onlyOwner lending {\n        Rental storage rental = rentals[currentRenter][\n            rentals[currentRenter].length - 1\n        ];\n        // DEACTIVATED FOR TESTING AND DEMO PURPOSES\n        //require(rental.date <= block.timestamp, \"Must be in the past\");\n        require(rental.cantCancel == false, \"already taken\");\n        rental.cantCancel = true;\n        bikeRent = IBikeRent(currentRenter);\n        bikeRent.confirmBikeInHands(owner);\n        emit BikeTaken(\n            currentRenter,\n            block.timestamp,\n            address(this),\n            rentalGPSData[currentRenter].latitude,\n            rentalGPSData[currentRenter].longitude\n        );\n    }\n\n    // function called by Renter contract to confirm that the bike has been returned\n    // it is strongly advised that people were physically present at the meeting point\n    function returnedBike(\n        address _bikeRentOwner\n    ) external isActivated checkRenterNFT(_bikeRentOwner) lending {\n        require(msg.sender == currentRenter, \"current renter\");\n        Rental storage rental = rentals[currentRenter][\n            rentals[currentRenter].length - 1\n        ];\n        require(rental.seemsReturned == false, \"seems returned\");\n        rental.seemsReturned = true;\n        emit RentalSeemsReturned(msg.sender, block.timestamp, address(this));\n    }\n\n    // function to definitely confirm bike returned by renter and return deposit to renter\n    function confirmBikeReturned() external isActivated onlyOwner lending {\n        Rental storage rental = rentals[currentRenter][\n            rentals[currentRenter].length - 1\n        ];\n        require(rental.seemsReturned == true, \"Seems not returned\");\n        // check if rental is not already returned\n        require(rental.isReturned == false, \"Already returned\");\n        uint depositReturned = rental.depositAmount;\n        require(\n            W2R.balanceOf(address(this)) >= depositReturned,\n            \"Insufficient W2R\"\n        );\n        bikeRent = IBikeRent(currentRenter);\n        bikeRent.returnConfirmed(owner);\n        // set rental as returned\n        rental.isReturned = true;\n        uint reward = rental.rewardExpected;\n        rewards[currentRenter] += reward;\n        // update totalRewards\n        totalRewards += reward;\n        isRented = false;\n        address current = currentRenter;\n        currentRenter = address(0);\n        W2R.safeTransfer(current, depositReturned);\n        vaultW2R.distributeW2R(address(this), reward);\n        emit BikeReturned(\n            rental.date,\n            current,\n            depositReturned,\n            block.timestamp,\n            address(this),\n            rentalGPSData[currentRenter].latitude,\n            rentalGPSData[currentRenter].longitude\n        );\n    }\n\n    // function called by lender to cancel lending\n    function cancelLending() external isActivated lending onlyOwner {\n        handleRentingCancellation(false);\n    }\n\n    // function called by renter to cancel renting\n    function cancelledRenting(\n        address _bikeRentOwner\n    ) external isActivated checkRenterNFT(_bikeRentOwner) lending {\n        handleRentingCancellation(true);\n    }\n\n    // helper function to handle cancellation\n    function handleRentingCancellation(bool isCalledByRenter) private {\n        Rental storage rental = rentals[currentRenter][\n            rentals[currentRenter].length - 1\n        ];\n        require(rental.cantCancel == false, \"Cannot cancel\");\n        require(rental.isRefunded == false, \"Already refunded\");\n        uint _refund;\n        uint basis = rental.depositAmount + rental.rentalPrice;\n        if (isCalledByRenter == true) {\n            require(msg.sender == currentRenter, \"Only renter\");\n        }\n        _refund = isCalledByRenter &&\n            msg.sender == currentRenter &&\n            block.timestamp >= rental.date - 2 hours\n            ? basis - (rental.rentalPrice * 1000) / 10000\n            : basis;\n        require(W2R.balanceOf(address(this)) >= _refund, \"Insufficient W2R\");\n        if (isCalledByRenter == false) {\n            bikeRent = IBikeRent(currentRenter);\n            bikeRent.cancelledLending(_refund, owner, true);\n        }\n        // set rental struct to refunded\n        rental.isRefunded = true;\n        // set bike as not rented if no revert\n        isRented = false;\n        address current = currentRenter;\n        currentRenter = address(0);\n        W2R.safeTransfer(current, _refund);\n        emit RentingCancelled(\n            current,\n            rental.date,\n            _refund,\n            block.timestamp,\n            address(this)\n        );\n    }\n\n    function withdrawFunds(uint _amount) external isActivated onlyOwner {\n        require(_amount > 0, \"Must be greater than 0\");\n        uint W2Rbalance = W2R.balanceOf(address(this));\n        uint deposit;\n        if (isRented && currentRenter != address(0)) {\n            deposit = rentals[currentRenter][rentals[currentRenter].length - 1]\n                .depositAmount;\n        }\n        require(W2Rbalance - deposit > _amount, \"Not enough\");\n        //transfer W2R to owner\n        W2R.safeTransfer(owner, _amount);\n        emit W2Rwithdrawed(msg.sender, _amount, block.timestamp, address(this));\n    }\n\n    // Fonction pour dtruire le contrat et renvoyer les fonds restants  l'owner\n    function destroy() external returns (bool) {\n        require(msg.sender == whitelistLender, \"Only whitelistContract\");\n        // if bike is rented and rental duration is not over, revert\n        if (isRented && currentRenter != address(0)) {\n            Rental memory rental = rentals[currentRenter][\n                rentals[currentRenter].length - 1\n            ];\n            require(\n                block.timestamp > rental.date + rental.rentalTime,\n                \"Rental not over\"\n            );\n        }\n        isDeactivated = true;\n        isDestroyed = true;\n        if (W2R.balanceOf(address(this)) > 0) {\n            // transfer all balance of W2R to owner\n            W2R.safeTransfer(owner, W2R.balanceOf(address(this)));\n        }\n        emit ContractDestroyed(msg.sender, block.timestamp, address(this));\n        return true;\n    }\n}\n",
  "sourcePath": "/Users/harbinger/Dropbox/Dossier familial/Formation Blockchain/Alyra/Projet Certification/Projet Alyra 2Wheels2Rent/truffle/contracts/BikeShare.sol",
  "compiler": {
    "name": "solc",
    "version": "0.8.18+commit.87f61d96.Emscripten.clang"
  },
  "schemaVersion": "3.4.12",
  "updatedAt": "2023-04-07T19:49:04.627Z",
  "devdoc": {
    "kind": "dev",
    "methods": {},
    "version": 1
  },
  "userdoc": {
    "kind": "user",
    "methods": {},
    "version": 1
  }
}