{
  "contractName": "BikeRent",
  "abi": [
    {
      "inputs": [
        {
          "internalType": "address",
          "name": "_renter",
          "type": "address"
        },
        {
          "internalType": "address",
          "name": "_W2Rtoken",
          "type": "address"
        },
        {
          "internalType": "address",
          "name": "_lenderNFT",
          "type": "address"
        },
        {
          "internalType": "address",
          "name": "_whitelistRenter",
          "type": "address"
        },
        {
          "internalType": "address",
          "name": "_vaultW2R",
          "type": "address"
        },
        {
          "internalType": "address",
          "name": "_whitelistLender",
          "type": "address"
        }
      ],
      "stateMutability": "nonpayable",
      "type": "constructor"
    },
    {
      "anonymous": false,
      "inputs": [
        {
          "indexed": true,
          "internalType": "address",
          "name": "lender",
          "type": "address"
        },
        {
          "indexed": false,
          "internalType": "uint256",
          "name": "date",
          "type": "uint256"
        },
        {
          "indexed": true,
          "internalType": "address",
          "name": "renter",
          "type": "address"
        },
        {
          "indexed": false,
          "internalType": "string",
          "name": "latitude",
          "type": "string"
        },
        {
          "indexed": false,
          "internalType": "string",
          "name": "longitude",
          "type": "string"
        }
      ],
      "name": "BikeTaken",
      "type": "event"
    },
    {
      "anonymous": false,
      "inputs": [
        {
          "indexed": true,
          "internalType": "address",
          "name": "_owner",
          "type": "address"
        },
        {
          "indexed": false,
          "internalType": "uint256",
          "name": "_date",
          "type": "uint256"
        },
        {
          "indexed": true,
          "internalType": "address",
          "name": "_contractAddress",
          "type": "address"
        }
      ],
      "name": "ContractActivated",
      "type": "event"
    },
    {
      "anonymous": false,
      "inputs": [
        {
          "indexed": true,
          "internalType": "address",
          "name": "_owner",
          "type": "address"
        },
        {
          "indexed": false,
          "internalType": "uint256",
          "name": "_date",
          "type": "uint256"
        },
        {
          "indexed": true,
          "internalType": "address",
          "name": "_contractAddress",
          "type": "address"
        }
      ],
      "name": "ContractDestroyed",
      "type": "event"
    },
    {
      "anonymous": false,
      "inputs": [
        {
          "indexed": true,
          "internalType": "address",
          "name": "_owner",
          "type": "address"
        },
        {
          "indexed": false,
          "internalType": "uint256",
          "name": "_date",
          "type": "uint256"
        },
        {
          "indexed": false,
          "internalType": "string",
          "name": "_latitude",
          "type": "string"
        },
        {
          "indexed": false,
          "internalType": "string",
          "name": "_longitude",
          "type": "string"
        },
        {
          "indexed": true,
          "internalType": "address",
          "name": "_contractAddress",
          "type": "address"
        }
      ],
      "name": "GPSupdated",
      "type": "event"
    },
    {
      "anonymous": false,
      "inputs": [
        {
          "indexed": true,
          "internalType": "address",
          "name": "renter",
          "type": "address"
        },
        {
          "indexed": false,
          "internalType": "uint256",
          "name": "date",
          "type": "uint256"
        },
        {
          "indexed": true,
          "internalType": "address",
          "name": "lender",
          "type": "address"
        }
      ],
      "name": "ProposalCancelled",
      "type": "event"
    },
    {
      "anonymous": false,
      "inputs": [
        {
          "indexed": true,
          "internalType": "address",
          "name": "renter",
          "type": "address"
        },
        {
          "indexed": false,
          "internalType": "uint256",
          "name": "date",
          "type": "uint256"
        },
        {
          "indexed": true,
          "internalType": "address",
          "name": "lender",
          "type": "address"
        },
        {
          "indexed": false,
          "internalType": "uint256",
          "name": "rentalDateMin",
          "type": "uint256"
        },
        {
          "indexed": false,
          "internalType": "uint256",
          "name": "rentalDateMax",
          "type": "uint256"
        },
        {
          "indexed": false,
          "internalType": "uint256",
          "name": "rentalTime",
          "type": "uint256"
        },
        {
          "indexed": false,
          "internalType": "uint256",
          "name": "rate",
          "type": "uint256"
        },
        {
          "indexed": false,
          "internalType": "uint256",
          "name": "depositAmount",
          "type": "uint256"
        },
        {
          "indexed": false,
          "internalType": "string",
          "name": "latitude",
          "type": "string"
        },
        {
          "indexed": false,
          "internalType": "string",
          "name": "longitude",
          "type": "string"
        }
      ],
      "name": "ProposalMade",
      "type": "event"
    },
    {
      "anonymous": false,
      "inputs": [
        {
          "indexed": true,
          "internalType": "address",
          "name": "lender",
          "type": "address"
        },
        {
          "indexed": false,
          "internalType": "uint256",
          "name": "date",
          "type": "uint256"
        },
        {
          "indexed": false,
          "internalType": "uint256",
          "name": "refund",
          "type": "uint256"
        },
        {
          "indexed": false,
          "internalType": "uint256",
          "name": "returnDate",
          "type": "uint256"
        },
        {
          "indexed": true,
          "internalType": "address",
          "name": "renter",
          "type": "address"
        }
      ],
      "name": "RentalCancelled",
      "type": "event"
    },
    {
      "anonymous": false,
      "inputs": [
        {
          "indexed": true,
          "internalType": "address",
          "name": "lender",
          "type": "address"
        },
        {
          "indexed": false,
          "internalType": "uint256",
          "name": "date",
          "type": "uint256"
        },
        {
          "indexed": true,
          "internalType": "address",
          "name": "renter",
          "type": "address"
        },
        {
          "indexed": false,
          "internalType": "string",
          "name": "latitude",
          "type": "string"
        },
        {
          "indexed": false,
          "internalType": "string",
          "name": "longitude",
          "type": "string"
        }
      ],
      "name": "RentalDeclaredAsReturned",
      "type": "event"
    },
    {
      "anonymous": false,
      "inputs": [
        {
          "indexed": false,
          "internalType": "uint256",
          "name": "rentalDate",
          "type": "uint256"
        },
        {
          "indexed": true,
          "internalType": "address",
          "name": "lender",
          "type": "address"
        },
        {
          "indexed": false,
          "internalType": "uint256",
          "name": "date",
          "type": "uint256"
        },
        {
          "indexed": true,
          "internalType": "address",
          "name": "renter",
          "type": "address"
        },
        {
          "indexed": false,
          "internalType": "string",
          "name": "latitude",
          "type": "string"
        },
        {
          "indexed": false,
          "internalType": "string",
          "name": "longitude",
          "type": "string"
        }
      ],
      "name": "RentalReturned",
      "type": "event"
    },
    {
      "anonymous": false,
      "inputs": [
        {
          "indexed": true,
          "internalType": "address",
          "name": "renter",
          "type": "address"
        },
        {
          "indexed": false,
          "internalType": "uint256",
          "name": "date",
          "type": "uint256"
        },
        {
          "indexed": false,
          "internalType": "uint256",
          "name": "rentalTime",
          "type": "uint256"
        },
        {
          "indexed": false,
          "internalType": "uint256",
          "name": "rentalPrice",
          "type": "uint256"
        },
        {
          "indexed": false,
          "internalType": "uint256",
          "name": "deposit",
          "type": "uint256"
        },
        {
          "indexed": false,
          "internalType": "uint256",
          "name": "amountRequired",
          "type": "uint256"
        },
        {
          "indexed": false,
          "internalType": "bool",
          "name": "_propalCancellation",
          "type": "bool"
        },
        {
          "indexed": true,
          "internalType": "address",
          "name": "lender",
          "type": "address"
        }
      ],
      "name": "RentalStarted",
      "type": "event"
    },
    {
      "anonymous": false,
      "inputs": [
        {
          "indexed": true,
          "internalType": "address",
          "name": "_owner",
          "type": "address"
        },
        {
          "indexed": false,
          "internalType": "uint256",
          "name": "_date",
          "type": "uint256"
        },
        {
          "indexed": false,
          "internalType": "uint256",
          "name": "_amount",
          "type": "uint256"
        },
        {
          "indexed": true,
          "internalType": "address",
          "name": "_contractAddress",
          "type": "address"
        }
      ],
      "name": "RewardClaimed",
      "type": "event"
    },
    {
      "anonymous": false,
      "inputs": [
        {
          "indexed": true,
          "internalType": "address",
          "name": "_owner",
          "type": "address"
        },
        {
          "indexed": false,
          "internalType": "uint256",
          "name": "_amount",
          "type": "uint256"
        },
        {
          "indexed": false,
          "internalType": "uint256",
          "name": "_date",
          "type": "uint256"
        },
        {
          "indexed": true,
          "internalType": "address",
          "name": "_contractAddress",
          "type": "address"
        }
      ],
      "name": "W2Rdeposited",
      "type": "event"
    },
    {
      "anonymous": false,
      "inputs": [
        {
          "indexed": true,
          "internalType": "address",
          "name": "_owner",
          "type": "address"
        },
        {
          "indexed": false,
          "internalType": "uint256",
          "name": "_amount",
          "type": "uint256"
        },
        {
          "indexed": false,
          "internalType": "uint256",
          "name": "_date",
          "type": "uint256"
        },
        {
          "indexed": true,
          "internalType": "address",
          "name": "_contractAddress",
          "type": "address"
        }
      ],
      "name": "W2Rwithdrawed",
      "type": "event"
    },
    {
      "inputs": [],
      "name": "W2R",
      "outputs": [
        {
          "internalType": "contract IERC20",
          "name": "",
          "type": "address"
        }
      ],
      "stateMutability": "view",
      "type": "function"
    },
    {
      "inputs": [
        {
          "internalType": "string",
          "name": "_latitude",
          "type": "string"
        },
        {
          "internalType": "string",
          "name": "_longitude",
          "type": "string"
        }
      ],
      "name": "activate",
      "outputs": [],
      "stateMutability": "nonpayable",
      "type": "function"
    },
    {
      "inputs": [],
      "name": "claimRewards",
      "outputs": [],
      "stateMutability": "nonpayable",
      "type": "function"
    },
    {
      "inputs": [],
      "name": "currentLender",
      "outputs": [
        {
          "internalType": "address",
          "name": "",
          "type": "address"
        }
      ],
      "stateMutability": "view",
      "type": "function"
    },
    {
      "inputs": [
        {
          "internalType": "uint256",
          "name": "_amount",
          "type": "uint256"
        }
      ],
      "name": "depositW2R",
      "outputs": [],
      "stateMutability": "nonpayable",
      "type": "function"
    },
    {
      "inputs": [],
      "name": "getTotalRewards",
      "outputs": [
        {
          "internalType": "uint256",
          "name": "",
          "type": "uint256"
        }
      ],
      "stateMutability": "view",
      "type": "function"
    },
    {
      "inputs": [
        {
          "internalType": "address",
          "name": "",
          "type": "address"
        }
      ],
      "name": "gpsData",
      "outputs": [
        {
          "internalType": "string",
          "name": "latitude",
          "type": "string"
        },
        {
          "internalType": "string",
          "name": "longitude",
          "type": "string"
        }
      ],
      "stateMutability": "view",
      "type": "function"
    },
    {
      "inputs": [],
      "name": "isDeactivated",
      "outputs": [
        {
          "internalType": "bool",
          "name": "",
          "type": "bool"
        }
      ],
      "stateMutability": "view",
      "type": "function"
    },
    {
      "inputs": [],
      "name": "isRenting",
      "outputs": [
        {
          "internalType": "bool",
          "name": "",
          "type": "bool"
        }
      ],
      "stateMutability": "view",
      "type": "function"
    },
    {
      "inputs": [],
      "name": "minimalRental",
      "outputs": [
        {
          "internalType": "uint256",
          "name": "",
          "type": "uint256"
        }
      ],
      "stateMutability": "view",
      "type": "function"
    },
    {
      "inputs": [],
      "name": "owner",
      "outputs": [
        {
          "internalType": "address",
          "name": "",
          "type": "address"
        }
      ],
      "stateMutability": "view",
      "type": "function"
    },
    {
      "inputs": [],
      "name": "proposalDuration",
      "outputs": [
        {
          "internalType": "uint256",
          "name": "",
          "type": "uint256"
        }
      ],
      "stateMutability": "view",
      "type": "function"
    },
    {
      "inputs": [
        {
          "internalType": "uint256",
          "name": "",
          "type": "uint256"
        }
      ],
      "name": "proposalsMade",
      "outputs": [
        {
          "internalType": "uint256",
          "name": "date",
          "type": "uint256"
        },
        {
          "internalType": "address",
          "name": "lender",
          "type": "address"
        },
        {
          "internalType": "uint256",
          "name": "rentalDateMin",
          "type": "uint256"
        },
        {
          "internalType": "uint256",
          "name": "rentalDateMax",
          "type": "uint256"
        },
        {
          "internalType": "uint256",
          "name": "rentalTime",
          "type": "uint256"
        },
        {
          "internalType": "uint256",
          "name": "rate",
          "type": "uint256"
        },
        {
          "internalType": "uint256",
          "name": "depositAmount",
          "type": "uint256"
        },
        {
          "internalType": "bool",
          "name": "isAccepted",
          "type": "bool"
        }
      ],
      "stateMutability": "view",
      "type": "function"
    },
    {
      "inputs": [
        {
          "internalType": "address",
          "name": "",
          "type": "address"
        },
        {
          "internalType": "uint256",
          "name": "",
          "type": "uint256"
        }
      ],
      "name": "rentals",
      "outputs": [
        {
          "internalType": "uint256",
          "name": "date",
          "type": "uint256"
        },
        {
          "internalType": "uint256",
          "name": "rentalTime",
          "type": "uint256"
        },
        {
          "internalType": "uint256",
          "name": "rentalPrice",
          "type": "uint256"
        },
        {
          "internalType": "uint256",
          "name": "depositAmount",
          "type": "uint256"
        },
        {
          "internalType": "uint256",
          "name": "rewardExpected",
          "type": "uint256"
        },
        {
          "internalType": "bool",
          "name": "isReturned",
          "type": "bool"
        },
        {
          "internalType": "bool",
          "name": "isRefunded",
          "type": "bool"
        },
        {
          "internalType": "bool",
          "name": "seemsReturned",
          "type": "bool"
        },
        {
          "internalType": "bool",
          "name": "cantCancel",
          "type": "bool"
        },
        {
          "internalType": "string",
          "name": "rentalToken",
          "type": "string"
        }
      ],
      "stateMutability": "view",
      "type": "function"
    },
    {
      "inputs": [],
      "name": "rewardAmount",
      "outputs": [
        {
          "internalType": "uint256",
          "name": "",
          "type": "uint256"
        }
      ],
      "stateMutability": "view",
      "type": "function"
    },
    {
      "inputs": [],
      "name": "safeDate",
      "outputs": [
        {
          "internalType": "uint256",
          "name": "",
          "type": "uint256"
        }
      ],
      "stateMutability": "view",
      "type": "function"
    },
    {
      "inputs": [
        {
          "internalType": "string",
          "name": "_latitude",
          "type": "string"
        },
        {
          "internalType": "string",
          "name": "_longitude",
          "type": "string"
        }
      ],
      "name": "setGPS",
      "outputs": [],
      "stateMutability": "nonpayable",
      "type": "function"
    },
    {
      "inputs": [],
      "name": "totalRentals",
      "outputs": [
        {
          "internalType": "uint256",
          "name": "",
          "type": "uint256"
        }
      ],
      "stateMutability": "view",
      "type": "function"
    },
    {
      "inputs": [
        {
          "internalType": "address",
          "name": "renter",
          "type": "address"
        }
      ],
      "name": "getRentalsByAdresses",
      "outputs": [
        {
          "internalType": "uint256",
          "name": "",
          "type": "uint256"
        }
      ],
      "stateMutability": "view",
      "type": "function"
    },
    {
      "inputs": [
        {
          "internalType": "address",
          "name": "_bikeShareContract",
          "type": "address"
        },
        {
          "internalType": "uint256",
          "name": "_dateMin",
          "type": "uint256"
        },
        {
          "internalType": "uint256",
          "name": "_dateMax",
          "type": "uint256"
        },
        {
          "internalType": "uint256",
          "name": "_rentalTime",
          "type": "uint256"
        }
      ],
      "name": "makeProposal",
      "outputs": [],
      "stateMutability": "nonpayable",
      "type": "function"
    },
    {
      "inputs": [],
      "name": "getProposalsLength",
      "outputs": [
        {
          "internalType": "uint256",
          "name": "",
          "type": "uint256"
        }
      ],
      "stateMutability": "view",
      "type": "function"
    },
    {
      "inputs": [
        {
          "internalType": "address",
          "name": "lender",
          "type": "address"
        }
      ],
      "name": "getRentalsLength",
      "outputs": [
        {
          "internalType": "uint256",
          "name": "",
          "type": "uint256"
        }
      ],
      "stateMutability": "view",
      "type": "function"
    },
    {
      "inputs": [
        {
          "internalType": "string",
          "name": "_rentalToken",
          "type": "string"
        }
      ],
      "name": "setRentalToken",
      "outputs": [],
      "stateMutability": "nonpayable",
      "type": "function"
    },
    {
      "inputs": [
        {
          "internalType": "address",
          "name": "_bikeShareOwner",
          "type": "address"
        },
        {
          "internalType": "uint256",
          "name": "_rentalPrice",
          "type": "uint256"
        },
        {
          "internalType": "uint256",
          "name": "_depositAmount",
          "type": "uint256"
        },
        {
          "internalType": "uint256",
          "name": "_rentalTime",
          "type": "uint256"
        },
        {
          "internalType": "uint256",
          "name": "_rentalDate",
          "type": "uint256"
        }
      ],
      "name": "rentBike",
      "outputs": [],
      "stateMutability": "nonpayable",
      "type": "function"
    },
    {
      "inputs": [
        {
          "internalType": "address",
          "name": "_bikeShareContract",
          "type": "address"
        }
      ],
      "name": "cancelProposal",
      "outputs": [],
      "stateMutability": "nonpayable",
      "type": "function"
    },
    {
      "inputs": [
        {
          "internalType": "address",
          "name": "_bikeShareOwner",
          "type": "address"
        },
        {
          "internalType": "string",
          "name": "lenderTempToken",
          "type": "string"
        }
      ],
      "name": "confirmBikeInHands",
      "outputs": [],
      "stateMutability": "nonpayable",
      "type": "function"
    },
    {
      "inputs": [],
      "name": "returnBike",
      "outputs": [],
      "stateMutability": "nonpayable",
      "type": "function"
    },
    {
      "inputs": [
        {
          "internalType": "address",
          "name": "_bikeShareOwner",
          "type": "address"
        },
        {
          "internalType": "string",
          "name": "lenderTempToken",
          "type": "string"
        }
      ],
      "name": "returnConfirmed",
      "outputs": [],
      "stateMutability": "nonpayable",
      "type": "function"
    },
    {
      "inputs": [
        {
          "internalType": "uint256",
          "name": "_refund",
          "type": "uint256"
        },
        {
          "internalType": "address",
          "name": "_bikeShareOwner",
          "type": "address"
        },
        {
          "internalType": "bool",
          "name": "_isCancelledByLender",
          "type": "bool"
        }
      ],
      "name": "cancelledLending",
      "outputs": [],
      "stateMutability": "nonpayable",
      "type": "function"
    },
    {
      "inputs": [],
      "name": "cancelRenting",
      "outputs": [],
      "stateMutability": "nonpayable",
      "type": "function"
    },
    {
      "inputs": [
        {
          "internalType": "uint256",
          "name": "_amount",
          "type": "uint256"
        }
      ],
      "name": "withdrawFunds",
      "outputs": [],
      "stateMutability": "nonpayable",
      "type": "function"
    },
    {
      "inputs": [],
      "name": "destroy",
      "outputs": [
        {
          "internalType": "bool",
          "name": "",
          "type": "bool"
        }
      ],
      "stateMutability": "nonpayable",
      "type": "function"
    }
  ],
  "bytecode": "0x6080604052600a6006556202a300600755620151806008553480156200002457600080fd5b5060405162004c1938038062004c198339810160408190526200004791620001f2565b8585836001600160a01b038316158015906200006b57506001600160a01b03821615155b80156200008057506001600160a01b03811615155b6200008a57600080fd5b60048054600580546001600160a01b039586166001600160a01b031991821617909155600b805494861694909116939093179092556001600160a81b031990911692821692909217600160a01b17909155841615801590620000f457506001600160a01b03831615155b80156200010957506001600160a01b03811615155b620001495760405162461bcd60e51b815260206004820152600b60248201526a626164206164647265737360a81b60448201526064015b60405180910390fd5b336001600160a01b038416146200018d5760405162461bcd60e51b815260206004820152600760248201526613db9b1e481ddb60ca1b604482015260640162000140565b600e80546001600160a01b03199081166001600160a01b0396871617909155600d8054821694861694909417909355600f805490931693169290921790555062000273915050565b80516001600160a01b0381168114620001ed57600080fd5b919050565b60008060008060008060c087890312156200020c57600080fd5b6200021787620001d5565b95506200022760208801620001d5565b94506200023760408801620001d5565b93506200024760608801620001d5565b92506200025760808801620001d5565b91506200026760a08801620001d5565b90509295509295509295565b61499680620002836000396000f3fe608060405234801561001057600080fd5b50600436106101f05760003560e01c80638f0360721161010f578063bf0058d0116100a2578063d9536d4c11610071578063d9536d4c14610463578063dd4b22d114610476578063e627f2db1461047f578063f7b2a7be1461048757600080fd5b8063bf0058d014610413578063c520e74a14610426578063c95dee7914610447578063d771642a1461045a57600080fd5b8063b465c3c0116100de578063b465c3c014610315578063bc378a73146103e5578063be3f22eb146103ed578063befc09211461040057600080fd5b80638f036072146103ae57806393736bb4146103c1578063af0654b7146103ca578063af8df99d146103d257600080fd5b80633e14641711610187578063778f520b11610156578063778f520b1461036d5780638046c8ac1461038057806383197ef0146103935780638da5cb5b1461039b57600080fd5b80633e1464171461031557806360a6673c1461033e5780636dcf811d146103465780637486f8a01461035a57600080fd5b806328ab10fc116101c357806328ab10fc146102735780632c678ca51461029e57806330109962146102f6578063372500ab1461030d57600080fd5b8063090fc58b146101f55780630bfcef35146102275780631401c5f91461023c578063155dd5ee14610260575b600080fd5b610208610203366004613d4a565b610490565b60405161021e9a99989796959493929190613dc6565b60405180910390f35b61023a610235366004613e74565b610599565b005b600f5461025090600160a01b900460ff1681565b604051901515815260200161021e565b61023a61026e366004613ec9565b610a94565b601854610286906001600160a01b031681565b6040516001600160a01b03909116815260200161021e565b6102b16102ac366004613ec9565b610c01565b604080519889526001600160a01b039097166020890152958701949094526060860192909252608085015260a084015260c0830152151560e08201526101000161021e565b6102ff60075481565b60405190815260200161021e565b61023a610c64565b6102ff610323366004613ee2565b6001600160a01b031660009081526017602052604090205490565b61023a610d9b565b60045461025090600160a01b900460ff1681565b61023a610368366004613f06565b611045565b61023a61037b366004613f58565b611904565b61023a61038e366004613ec9565b611be4565b610250611dd5565b600454610286906001600160a01b031681565b600554610286906001600160a01b031681565b6102ff60015481565b61023a612031565b61023a6103e0366004613ee2565b612134565b6016546102ff565b61023a6103fb366004613e74565b6122eb565b61023a61040e366004613f9a565b6127ae565b61023a610421366004613fdc565b612928565b610439610434366004613ee2565b612a28565b60405161021e929190614048565b61023a610455366004613fdc565b612b54565b6102ff60085481565b61023a610471366004614076565b612c5e565b6102ff60005481565b6102ff613534565b6102ff60065481565b601760205281600052604060002081815481106104ac57600080fd5b6000918252602090912060079091020180546001820154600283015460038401546004850154600586015460068701805496995094975092959194909360ff80851694610100810482169462010000820483169463010000009092049092169290610516906140b1565b80601f0160208091040260200160405190810160405280929190818152602001828054610542906140b1565b801561058f5780601f106105645761010080835404028352916020019161058f565b820191906000526020600020905b81548152906001019060200180831161057257829003601f168201915b505050505090508a565b600454600160a01b900460ff16156105cc5760405162461bcd60e51b81526004016105c3906140eb565b60405180910390fd5b600e546040516370a0823160e01b81526001600160a01b03808616600483015285926000929116906370a0823190602401602060405180830381865afa15801561061a573d6000803e3d6000fd5b505050506040513d601f19601f8201168201806040525081019061063e9190614110565b1161065b5760405162461bcd60e51b81526004016105c390614129565b600f54601580546001600160a01b0319166001600160a01b0392831690811790915560405162d9267b60e31b81529183166004830152906306c933d890602401606060405180830381865afa1580156106b8573d6000803e3d6000fd5b505050506040513d601f19601f820116820180604052508101906106dc919061415f565b516106f95760405162461bcd60e51b81526004016105c3906141ca565b60155460405162d9267b60e31b81526001600160a01b038381166004830152339216906306c933d890602401606060405180830381865afa158015610742573d6000803e3d6000fd5b505050506040513d601f19601f82011682018060405250810190610766919061415f565b602001516001600160a01b0316146107905760405162461bcd60e51b81526004016105c3906141ca565b600f54600160a01b900460ff1680156107b357506018546001600160a01b031615155b6107cf5760405162461bcd60e51b81526004016105c3906141ea565b306000908152600a6020526040812080546107e9906140b1565b90501180156108145750306000908152600a602052604081206001018054610810906140b1565b9050115b6108305760405162461bcd60e51b81526004016105c39061420d565b601854839083906001600160a01b0316331461087c5760405162461bcd60e51b815260206004820152600b60248201526a27b7363c903632b73232b960a91b60448201526064016105c3565b60118054610889906140b1565b9050601e14801561089a5750601e81145b80156108f457506040516108b39060119060200161422d565b6040516020818303038152906040528051906020012082826040516020016108dc9291906142a3565b60405160208183030381529060405280519060200120145b6109105760405162461bcd60e51b81526004016105c3906142b3565b6010541580159061092f5750601054603c9061092c90426142ea565b11155b61094b5760405162461bcd60e51b81526004016105c390614303565b3360009081526017602052604081208054610968906001906142ea565b8154811061097857610978614324565b906000526020600020906007020190508060050160029054906101000a900460ff1680156109ab5750600581015460ff16155b6109c75760405162461bcd60e51b81526004016105c39061433a565b60058101805460ff19166001179055600481015433600090815260026020526040812080548392906109fa90849061435d565b925050819055508060036000828254610a13919061435d565b9091555050600f805460ff60a01b19169055601880546001600160a01b03191690558154306000818152600a6020526040908190209051919233927fe37fd6880e9c45f86a337efb15d4a7f39b28518286c32b05f9eeac6b550adcd692610a82929142919060018201906143ed565b60405180910390a35050505050505050565b600454600160a01b900460ff1615610abe5760405162461bcd60e51b81526004016105c3906140eb565b6004546001600160a01b03163314610ae85760405162461bcd60e51b81526004016105c39061441e565b60008111610b205760405162461bcd60e51b815260206004820152600560248201526404e6f7420360dc1b60448201526064016105c3565b6005546040516370a0823160e01b815230600482015282916001600160a01b0316906370a0823190602401602060405180830381865afa158015610b68573d6000803e3d6000fd5b505050506040513d601f19601f82011682018060405250810190610b8c9190614110565b1015610baa5760405162461bcd60e51b81526004016105c390614442565b600554610bc1906001600160a01b03163383613592565b60408051828152426020820152309133917fb933d9f5921d73b25377b9ffc45ea2914238b8379c2098a3178e766cb8f326d491015b60405180910390a350565b60168181548110610c1157600080fd5b6000918252602090912060089091020180546001820154600283015460038401546004850154600586015460068701546007909701549597506001600160a01b0390941695929491939092909160ff1688565b600454600160a01b900460ff1615610c8e5760405162461bcd60e51b81526004016105c3906140eb565b6004546001600160a01b03163314610cb85760405162461bcd60e51b81526004016105c39061441e565b600060035411610cf45760405162461bcd60e51b81526020600482015260076024820152666e6f7468696e6760c81b60448201526064016105c3565b600380546000909155600b5460405163255d23d760e11b8152336004820152602481018390526001600160a01b0390911690634aba47ae90604401600060405180830381600087803b158015610d4957600080fd5b505af1158015610d5d573d6000803e3d6000fd5b505060408051428152602081018590523093503392507f4bbe6b9abde3c57178a72bffd1868d868a0562c805a8effd250d9f76a2bd82809101610bf6565b600454600160a01b900460ff1615610dc55760405162461bcd60e51b81526004016105c3906140eb565b600f54600160a01b900460ff168015610de857506018546001600160a01b031615155b610e045760405162461bcd60e51b81526004016105c3906141ea565b306000908152600a602052604081208054610e1e906140b1565b9050118015610e495750306000908152600a602052604081206001018054610e45906140b1565b9050115b610e655760405162461bcd60e51b81526004016105c39061420d565b6004546001600160a01b03163314610e8f5760405162461bcd60e51b81526004016105c39061441e565b6018546001600160a01b031660009081526017602052604081208054610eb7906001906142ea565b81548110610ec757610ec7614324565b906000526020600020906007020190508060050160039054906101000a900460ff168015610f005750600581015462010000900460ff16155b8015610f115750600581015460ff16155b610f2d5760405162461bcd60e51b81526004016105c39061433a565b60105415801590610f4c5750601054603c90610f4990426142ea565b11155b610f685760405162461bcd60e51b81526004016105c390614303565b601854600c80546001600160a01b0319166001600160a01b03928316908117909155600480546040516370cf9d7760e11b81529316908301529063e19f3aee90602401600060405180830381600087803b158015610fc557600080fd5b505af1158015610fd9573d6000803e3d6000fd5b50505060058201805462ff000019166201000017905550601854306000818152600a602052604090819020905191926001600160a01b0316917f0cd92eec05e4f2840efd243f3a73e91e5f9af26e52ab39532ce64b1b9fe9100191610bf6914291906001820190614468565b600454600160a01b900460ff161561106f5760405162461bcd60e51b81526004016105c3906140eb565b600e546040516370a0823160e01b81526001600160a01b03808816600483015287926000929116906370a0823190602401602060405180830381865afa1580156110bd573d6000803e3d6000fd5b505050506040513d601f19601f820116820180604052508101906110e19190614110565b116110fe5760405162461bcd60e51b81526004016105c390614129565b600f54601580546001600160a01b0319166001600160a01b0392831690811790915560405162d9267b60e31b81529183166004830152906306c933d890602401606060405180830381865afa15801561115b573d6000803e3d6000fd5b505050506040513d601f19601f8201168201806040525081019061117f919061415f565b5161119c5760405162461bcd60e51b81526004016105c3906141ca565b60155460405162d9267b60e31b81526001600160a01b038381166004830152339216906306c933d890602401606060405180830381865afa1580156111e5573d6000803e3d6000fd5b505050506040513d601f19601f82011682018060405250810190611209919061415f565b602001516001600160a01b0316146112335760405162461bcd60e51b81526004016105c3906141ca565b3360009081526013602081905260409091208054620151809061125690426142ea565b1061126657600060018201554281555b600381600101541061128a5760405162461bcd60e51b81526004016105c39061449d565b60018101805490600061129c836144c4565b9091555050600f54600160a01b900460ff161580156112c457506018546001600160a01b0316155b80156112cf57503315155b6113095760405162461bcd60e51b815260206004820152600b60248201526a6261642072656e74696e6760a81b60448201526064016105c3565b306000908152600a602052604081208054611323906140b1565b905011801561134e5750306000908152600a60205260408120600101805461134a906140b1565b9050115b61136a5760405162461bcd60e51b81526004016105c39061420d565b6000611376878961435d565b6005546040516370a0823160e01b815230600482015291925082916001600160a01b03909116906370a0823190602401602060405180830381865afa1580156113c3573d6000803e3d6000fd5b505050506040513d601f19601f820116820180604052508101906113e79190614110565b10156114055760405162461bcd60e51b81526004016105c390614442565b60008080885b60165483101561184757336001600160a01b03166016848154811061143257611432614324565b60009182526020909120600160089092020101546001600160a01b0316036118355760006016848154811061146957611469614324565b600091825260209182902060408051610100810182526008909302909101805480845260018201546001600160a01b0316948401949094526002810154918301919091526003810154606083015260048101546080830152600581015460a0830152600681015460c083015260079081015460ff16151560e083015254909250906114f490426142ea565b11156115125760405162461bcd60e51b81526004016105c390614303565b8060e001511561154f5760405162461bcd60e51b81526020600482015260086024820152671858d8d95c1d195960c21b60448201526064016105c3565b6127106006548e61156091906144dd565b61156b9060646144dd565b101561157657600080fd5b60008d90508160600151935060006127106006548361159591906144dd565b6115a09060646144dd565b6115aa919061450a565b905060018360e00190151590811515815250506001600f60146101000a81548160ff02191690831515021790555060008c905060008f905060008a905060176000336001600160a01b03166001600160a01b03168152602001908152602001600020604051806101400160405280858152602001898152602001878152602001848152602001868152602001600015158152602001600015158152602001600015158152602001600015158152602001604051806020016040528060008152508152509080600181540180825580915050600190039060005260206000209060070201600090919091909150600082015181600001556020820151816001015560408201518160020155606082015181600301556080820151816004015560a08201518160050160006101000a81548160ff02191690831515021790555060c08201518160050160016101000a81548160ff02191690831515021790555060e08201518160050160026101000a81548160ff0219169083151502179055506101008201518160050160036101000a81548160ff02191690831515021790555061012082015181600601908161175f9190614581565b5050601880546001600160a01b0319163317905550600080549080611783836144c4565b909155506117939050878461435d565b6117a0906202a30061435d565b6001556005546117ba906001600160a01b0316338d613592565b601854608087810151604080518781526020810192909252810188905260608101859052908101839052600060a08201526001600160a01b039091169033907f087203a8efe3f1cbaf620bc456ac2e3ce7b11303af6d2187b376cccbb769b25c9060c00160405180910390a360019950505050505050611847565b8261183f816144c4565b93505061140b565b8361187f5760405162461bcd60e51b8152602060048201526008602482015267139bc8199bdd5b9960c21b60448201526064016105c3565b611888836135f5565b5060005b6016548110156118f4578381141580156118d257506118ab828461435d565b601682815481106118be576118be614324565b906000526020600020906008020160000154105b156118e2576118e0816135f5565b505b806118ec816144c4565b91505061188c565b5050505050505050505050505050565b600454600160a01b900460ff161561192e5760405162461bcd60e51b81526004016105c3906140eb565b600e546040516370a0823160e01b81526001600160a01b03808516600483015284926000929116906370a0823190602401602060405180830381865afa15801561197c573d6000803e3d6000fd5b505050506040513d601f19601f820116820180604052508101906119a09190614110565b116119bd5760405162461bcd60e51b81526004016105c390614129565b600f54601580546001600160a01b0319166001600160a01b0392831690811790915560405162d9267b60e31b81529183166004830152906306c933d890602401606060405180830381865afa158015611a1a573d6000803e3d6000fd5b505050506040513d601f19601f82011682018060405250810190611a3e919061415f565b51611a5b5760405162461bcd60e51b81526004016105c3906141ca565b60155460405162d9267b60e31b81526001600160a01b038381166004830152339216906306c933d890602401606060405180830381865afa158015611aa4573d6000803e3d6000fd5b505050506040513d601f19601f82011682018060405250810190611ac8919061415f565b602001516001600160a01b031614611af25760405162461bcd60e51b81526004016105c3906141ca565b600f54600160a01b900460ff168015611b1557506018546001600160a01b031615155b611b315760405162461bcd60e51b81526004016105c3906141ea565b306000908152600a602052604081208054611b4b906140b1565b9050118015611b765750306000908152600a602052604081206001018054611b72906140b1565b9050115b611b925760405162461bcd60e51b81526004016105c39061420d565b60008411611bd35760405162461bcd60e51b815260206004820152600e60248201526d125b9d985b1a59081c99599d5b9960921b60448201526064016105c3565b611bde8484846137e0565b50505050565b600454600160a01b900460ff1615611c0e5760405162461bcd60e51b81526004016105c3906140eb565b600554604051636eb1769f60e11b8152336004820152306024820152829182916001600160a01b039091169063dd62ed3e90604401602060405180830381865afa158015611c60573d6000803e3d6000fd5b505050506040513d601f19601f82011682018060405250810190611c849190614110565b1015611cbd5760405162461bcd60e51b8152602060048201526008602482015267185c1c1c9bdd985b60c21b60448201526064016105c3565b60008211611cf35760405162461bcd60e51b815260206004820152600360248201526218985960ea1b60448201526064016105c3565b6005546040516370a0823160e01b815233600482015283916001600160a01b0316906370a0823190602401602060405180830381865afa158015611d3b573d6000803e3d6000fd5b505050506040513d601f19601f82011682018060405250810190611d5f9190614110565b1015611d7d5760405162461bcd60e51b81526004016105c390614442565b600554611d95906001600160a01b0316333085613a28565b60408051838152426020820152309133917f224b1db9c133c01e120ca7551e3b56fec93a1f208e1c0509c23361a560a61026910160405180910390a35050565b600d546000906001600160a01b03163314611e175760405162461bcd60e51b81526020600482015260026024820152611ddb60f21b60448201526064016105c3565b600154421015611e515760405162461bcd60e51b815260206004820152600560248201526464656c617960d81b60448201526064016105c3565b6004805460ff60a01b1916600160a01b1781556009805460ff191660011790556005546040516370a0823160e01b815230928101929092526000916001600160a01b03909116906370a0823190602401602060405180830381865afa158015611ebe573d6000803e3d6000fd5b505050506040513d601f19601f82011682018060405250810190611ee29190614110565b1115611f7557600480546005546040516370a0823160e01b81523093810193909352611f75926001600160a01b0392831692909116906370a0823190602401602060405180830381865afa158015611f3e573d6000803e3d6000fd5b505050506040513d601f19601f82011682018060405250810190611f629190614110565b6005546001600160a01b03169190613592565b60035415611ff457600380546000909155600b546004805460405163255d23d760e11b81526001600160a01b03918216928101929092526024820184905290911690634aba47ae90604401600060405180830381600087803b158015611fda57600080fd5b505af1158015611fee573d6000803e3d6000fd5b50505050505b604051428152309033907f05bec130a67bc2853b0a7f5cfe8590b473fcc3342360d8933fb7064b1ebf8b6d9060200160405180910390a350600190565b600454600160a01b900460ff161561205b5760405162461bcd60e51b81526004016105c3906140eb565b6004546001600160a01b031633146120855760405162461bcd60e51b81526004016105c39061441e565b600f54600160a01b900460ff1680156120a857506018546001600160a01b031615155b6120c45760405162461bcd60e51b81526004016105c3906141ea565b306000908152600a6020526040812080546120de906140b1565b90501180156121095750306000908152600a602052604081206001018054612105906140b1565b9050115b6121255760405162461bcd60e51b81526004016105c39061420d565b61213260008060006137e0565b565b600454600160a01b900460ff161561215e5760405162461bcd60e51b81526004016105c3906140eb565b6004546001600160a01b031633146121885760405162461bcd60e51b81526004016105c39061441e565b6001600160a01b038116158015906121ae57506004546001600160a01b03828116911614155b80156121c357506001600160a01b0381163014155b6121df5760405162461bcd60e51b81526004016105c3906142b3565b6016546122195760405162461bcd60e51b8152602060048201526008602482015267139bc8199bdd5b9960c21b60448201526064016105c3565b60005b6016548110156122e757816001600160a01b03166016828154811061224357612243614324565b60009182526020909120600160089092020101546001600160a01b0316036122d5576016818154811061227857612278614324565b600091825260209091206007600890920201015460ff16156122c75760405162461bcd60e51b81526020600482015260086024820152671858d8d95c1d195960c21b60448201526064016105c3565b6122d0816135f5565b505050565b806122df816144c4565b91505061221c565b5050565b600454600160a01b900460ff16156123155760405162461bcd60e51b81526004016105c3906140eb565b600e546040516370a0823160e01b81526001600160a01b03808616600483015285926000929116906370a0823190602401602060405180830381865afa158015612363573d6000803e3d6000fd5b505050506040513d601f19601f820116820180604052508101906123879190614110565b116123a45760405162461bcd60e51b81526004016105c390614129565b600f54601580546001600160a01b0319166001600160a01b0392831690811790915560405162d9267b60e31b81529183166004830152906306c933d890602401606060405180830381865afa158015612401573d6000803e3d6000fd5b505050506040513d601f19601f82011682018060405250810190612425919061415f565b516124425760405162461bcd60e51b81526004016105c3906141ca565b60155460405162d9267b60e31b81526001600160a01b038381166004830152339216906306c933d890602401606060405180830381865afa15801561248b573d6000803e3d6000fd5b505050506040513d601f19601f820116820180604052508101906124af919061415f565b602001516001600160a01b0316146124d95760405162461bcd60e51b81526004016105c3906141ca565b600f54600160a01b900460ff1680156124fc57506018546001600160a01b031615155b6125185760405162461bcd60e51b81526004016105c3906141ea565b306000908152600a602052604081208054612532906140b1565b905011801561255d5750306000908152600a602052604081206001018054612559906140b1565b9050115b6125795760405162461bcd60e51b81526004016105c39061420d565b601854839083906001600160a01b031633146125c55760405162461bcd60e51b815260206004820152600b60248201526a27b7363c903632b73232b960a91b60448201526064016105c3565b601180546125d2906140b1565b9050601e1480156125e35750601e81145b801561263d57506040516125fc9060119060200161422d565b6040516020818303038152906040528051906020012082826040516020016126259291906142a3565b60405160208183030381529060405280519060200120145b6126595760405162461bcd60e51b81526004016105c3906142b3565b601054158015906126785750601054603c9061267590426142ea565b11155b6126945760405162461bcd60e51b81526004016105c390614303565b6018546001600160a01b0316600090815260176020526040812080546126bc906001906142ea565b815481106126cc576126cc614324565b906000526020600020906007020190508060050160039054906101000a900460ff16156127235760405162461bcd60e51b81526020600482015260056024820152643a30b5b2b760d91b60448201526064016105c3565b60058101805463ff000000191663010000001790556006810161274760118261463b565b50601854306000818152600a602052604090819020905191926001600160a01b0316917f58441e06988866f5582b245c6d5073b65d386d56d2d7f2ee714ae642aba451bf9161279d914291906001820190614468565b60405180910390a350505050505050565b6004546001600160a01b031633146127d85760405162461bcd60e51b81526004016105c39061441e565b600454600160a01b900460ff16156128025760405162461bcd60e51b81526004016105c3906140eb565b600f54600160a01b900460ff16801561282557506018546001600160a01b031615155b6128415760405162461bcd60e51b81526004016105c3906141ea565b306000908152600a60205260408120805461285b906140b1565b90501180156128865750306000908152600a602052604081206001018054612882906140b1565b9050115b6128a25760405162461bcd60e51b81526004016105c39061420d565b336000908152601460208190526040909120805462015180906128c590426142ea565b106128d557600060018201554281555b60038160010154106128f95760405162461bcd60e51b81526004016105c39061449d565b60018101805490600061290b836144c4565b9091555050426010556011612921848683614708565b5050505050565b6004546001600160a01b031633146129525760405162461bcd60e51b81526004016105c39061441e565b600454600160a01b900460ff16801561296e575060095460ff16155b6129a85760405162461bcd60e51b815260206004820152600b60248201526a756e617661696c61626c6560a81b60448201526064016105c3565b82158015906129b657508015155b6129d25760405162461bcd60e51b81526004016105c39061420d565b6129de84848484612b54565b6004805460ff60a01b19169055604051428152309033907f975a71b6f0e7c3037baf066252bb3dde490161b5536420b1954b32b39316f7b79060200160405180910390a350505050565b600a60205260009081526040902080548190612a43906140b1565b80601f0160208091040260200160405190810160405280929190818152602001828054612a6f906140b1565b8015612abc5780601f10612a9157610100808354040283529160200191612abc565b820191906000526020600020905b815481529060010190602001808311612a9f57829003601f168201915b505050505090806001018054612ad1906140b1565b80601f0160208091040260200160405190810160405280929190818152602001828054612afd906140b1565b8015612b4a5780601f10612b1f57610100808354040283529160200191612b4a565b820191906000526020600020905b815481529060010190602001808311612b2d57829003601f168201915b5050505050905082565b6004546001600160a01b03163314612b7e5760405162461bcd60e51b81526004016105c39061441e565b60095460ff1615612bbd5760405162461bcd60e51b815260206004820152600960248201526819195cdd1c9bde595960ba1b60448201526064016105c3565b8215801590612bcb57508015155b612be75760405162461bcd60e51b81526004016105c39061420d565b306000908152600a6020526040902080612c02858783614708565b5060018101612c12838583614708565b50604051309033907f6cad0fcdfd6b730f10e1bef22b48067bd4880a9e9bec47880bceb85733be339690612c4f9042908a908a908a908a906147eb565b60405180910390a35050505050565b600454600160a01b900460ff1615612c885760405162461bcd60e51b81526004016105c3906140eb565b6004546001600160a01b03163314612cb25760405162461bcd60e51b81526004016105c39061441e565b33600090815260126020819052604090912080546201518090612cd590426142ea565b10612ce557600060018201554281555b6003816001015410612d095760405162461bcd60e51b81526004016105c39061449d565b600181018054906000612d1b836144c4565b90915550506001600160a01b03861615801590612d4657506004546001600160a01b03878116911614155b8015612d5b57506001600160a01b0386163014155b612d995760405162461bcd60e51b815260206004820152600f60248201526e496e76616c6964206164647265737360881b60448201526064016105c3565b612da1613a60565b612daa57600080fd5b60005b601654811015612e3f57866001600160a01b031660168281548110612dd457612dd4614324565b60009182526020909120600160089092020101546001600160a01b031603612e2d5760405162461bcd60e51b815260206004820152600c60248201526b616c7265616479206d61646560a01b60448201526064016105c3565b80612e37816144c4565b915050612dad565b50600083118015612e505750600085115b8015612e5c5750600084115b612e955760405162461bcd60e51b815260206004820152600a6024820152696261642076616c75657360b01b60448201526064016105c3565b612ea14261271061435d565b8511612eda5760405162461bcd60e51b81526020600482015260086024820152673a37b79039b7b7b760c11b60448201526064016105c3565b612ee76201518084614824565b158015612ef657506008548310155b8015612f0d5750612a30612f0a86866142ea565b10155b8015612f24575061a8c0612f2186866142ea565b11155b612f5b5760405162461bcd60e51b81526020600482015260086024820152676261642074696d6560c01b60448201526064016105c3565b601654600311612f965760405162461bcd60e51b81526020600482015260066024820152654f6e6c79203360d01b60448201526064016105c3565b306000908152600a602052604081208054612fb0906140b1565b9050118015612fdb5750306000908152600a602052604081206001018054612fd7906140b1565b9050115b612ff75760405162461bcd60e51b81526004016105c39061420d565b600c80546001600160a01b0319166001600160a01b0388169081179091556040805163bc378a7360e01b815290516005929163bc378a739160048083019260209291908290030181865afa158015613053573d6000803e3d6000fd5b505050506040513d601f19601f820116820180604052508101906130779190614110565b106130ad5760405162461bcd60e51b81526020600482015260066024820152654f6e6c79203560d01b60448201526064016105c3565b600c60009054906101000a90046001600160a01b03166001600160a01b031663b8f58f726040518163ffffffff1660e01b8152600401602060405180830381865afa158015613100573d6000803e3d6000fd5b505050506040513d601f19601f820116820180604052508101906131249190614110565b83111561315e5760405162461bcd60e51b8152602060048201526008602482015267746f6f206c6f6e6760c01b60448201526064016105c3565b600c5460408051631627391760e11b815290516000926001600160a01b031691632c4e722e9160048083019260209291908290030181865afa1580156131a8573d6000803e3d6000fd5b505050506040513d601f19601f820116820180604052508101906131cc9190614110565b90506000600c60009054906101000a90046001600160a01b03166001600160a01b031663419759f56040518163ffffffff1660e01b8152600401602060405180830381865afa158015613223573d6000803e3d6000fd5b505050506040513d601f19601f820116820180604052508101906132479190614110565b9050613256620151808661450a565b61326090836144dd565b61326a908261435d565b6005546040516370a0823160e01b81523060048201526001600160a01b03909116906370a0823190602401602060405180830381865afa1580156132b2573d6000803e3d6000fd5b505050506040513d601f19601f820116820180604052508101906132d69190614110565b10156133115760405162461bcd60e51b815260206004820152600a60248201526909cdee840cadcdeeaced60b31b60448201526064016105c3565b600c5460048054306000908152600a6020526040908190209051633a92dc9160e11b81526001600160a01b0394851694637525b9229461336794909116928d928d928d928b928b92429291600183019101614838565b600060405180830381600087803b15801561338157600080fd5b505af1158015613395573d6000803e3d6000fd5b5050505060166040518061010001604052804281526020018a6001600160a01b031681526020018981526020018881526020018781526020018481526020018381526020016000151581525090806001815401808255809150506001900390600052602060002090600802016000909190919091506000820151816000015560208201518160010160006101000a8154816001600160a01b0302191690836001600160a01b0316021790555060408201518160020155606082015181600301556080820151816004015560a0820151816005015560c0820151816006015560e08201518160070160006101000a81548160ff0219169083151502179055505050876001600160a01b0316306001600160a01b03167fa43440595d7811afa24adc4304a5e6a508929db4628903410c266549444b5b8d428a8a8a8888600a6000306001600160a01b03166001600160a01b03168152602001908152602001600020600001600a6000306001600160a01b03166001600160a01b03168152602001908152602001600020600101604051610a829897969594939291906148a3565b600454600090600160a01b900460ff16156135615760405162461bcd60e51b81526004016105c3906140eb565b6004546001600160a01b0316331461358b5760405162461bcd60e51b81526004016105c39061441e565b5060035490565b6040516001600160a01b0383166024820152604481018290526122d090849063a9059cbb60e01b906064015b60408051601f198184030181529190526020810180516001600160e01b03166001600160e01b031990931692909217909152613ad0565b6000806016838154811061360b5761360b614324565b60009182526020822060016008909202010154601680546001600160a01b039092169350908590811061364057613640614324565b90600052602060002090600802016000015490506016600160168054905061366891906142ea565b8154811061367857613678614324565b90600052602060002090600802016016858154811061369957613699614324565b60009182526020909120825460089092020190815560018083015490820180546001600160a01b0319166001600160a01b0390921691909117905560028083015490820155600380830154908201556004808301549082015560058083015490820155600680830154908201556007918201549101805460ff909216151560ff199092169190911790556016805480613734576137346148fe565b6000828152602081206008600019909301928302018181556001810180546001600160a01b0319169055600281018290556003810182905560048101829055600581018290556006810191909155600701805460ff1916905590556040516001600160a01b0383169030907f1a07a16d411b1999de40db18a15f956f20021655f5dc8cf7685cdb7c9447710f906137ce9085815260200190565b60405180910390a35060019392505050565b6018546001600160a01b031660009081526017602052604081208054613808906001906142ea565b8154811061381857613818614324565b906000526020600020906007020190508060050160039054906101000a900460ff1615801561384c5750600581015460ff16155b6138685760405162461bcd60e51b81526004016105c39061433a565b836000036138d257600081600201548260030154613886919061435d565b825490915061389890611c20906142ea565b4210156138a557806138ce565b61271082600201546103e86138ba91906144dd565b6138c4919061450a565b6138ce90826142ea565b9450505b6001600160a01b03831615613929576018546001600160a01b031633146139245760405162461bcd60e51b81526020600482015260066024820152653632b73232b960d11b60448201526064016105c3565b6139a4565b816139a457601854600c80546001600160a01b0319166001600160a01b0392831690811790915560048054604051630c6986b360e01b815293169083015290630c6986b390602401600060405180830381600087803b15801561398b57600080fd5b505af115801561399f573d6000803e3d6000fd5b505050505b60058101805460ff19166001908117909155600f805460ff60a01b191690554290819055601880546001600160a01b03198116909155825460408051918252602082018890528101929092526001600160a01b031690309082907fc24589c44dcd993689e1ebe33a62cf11f093640e6a7ffe971f50703b5a440e4890606001612c4f565b6040516001600160a01b0380851660248301528316604482015260648101829052611bde9085906323b872dd60e01b906084016135be565b6000805b601654811015613ac85760075460168281548110613a8457613a84614324565b90600052602060002090600802016000015442613aa191906142ea565b1115613ab657613ab0816135f5565b50613a64565b80613ac0816144c4565b915050613a64565b600191505090565b6000613b25826040518060400160405280602081526020017f5361666545524332303a206c6f772d6c6576656c2063616c6c206661696c6564815250856001600160a01b0316613ba29092919063ffffffff16565b8051909150156122d05780806020019051810190613b439190614914565b6122d05760405162461bcd60e51b815260206004820152602a60248201527f5361666545524332303a204552433230206f7065726174696f6e20646964206e6044820152691bdd081cdd58d8d9595960b21b60648201526084016105c3565b6060613bb18484600085613bb9565b949350505050565b606082471015613c1a5760405162461bcd60e51b815260206004820152602660248201527f416464726573733a20696e73756666696369656e742062616c616e636520666f6044820152651c8818d85b1b60d21b60648201526084016105c3565b600080866001600160a01b03168587604051613c369190614931565b60006040518083038185875af1925050503d8060008114613c73576040519150601f19603f3d011682016040523d82523d6000602084013e613c78565b606091505b5091509150613c8987838387613c94565b979650505050505050565b60608315613d03578251600003613cfc576001600160a01b0385163b613cfc5760405162461bcd60e51b815260206004820152601d60248201527f416464726573733a2063616c6c20746f206e6f6e2d636f6e747261637400000060448201526064016105c3565b5081613bb1565b613bb18383815115613d185781518083602001fd5b8060405162461bcd60e51b81526004016105c3919061494d565b6001600160a01b0381168114613d4757600080fd5b50565b60008060408385031215613d5d57600080fd5b8235613d6881613d32565b946020939093013593505050565b60005b83811015613d91578181015183820152602001613d79565b50506000910152565b60008151808452613db2816020860160208601613d76565b601f01601f19169290920160200192915050565b60006101408c83528b60208401528a604084015289606084015288608084015287151560a084015286151560c084015285151560e084015284151561010084015280610120840152613e1a81840185613d9a565b9d9c50505050505050505050505050565b60008083601f840112613e3d57600080fd5b50813567ffffffffffffffff811115613e5557600080fd5b602083019150836020828501011115613e6d57600080fd5b9250929050565b600080600060408486031215613e8957600080fd5b8335613e9481613d32565b9250602084013567ffffffffffffffff811115613eb057600080fd5b613ebc86828701613e2b565b9497909650939450505050565b600060208284031215613edb57600080fd5b5035919050565b600060208284031215613ef457600080fd5b8135613eff81613d32565b9392505050565b600080600080600060a08688031215613f1e57600080fd5b8535613f2981613d32565b97602087013597506040870135966060810135965060800135945092505050565b8015158114613d4757600080fd5b600080600060608486031215613f6d57600080fd5b833592506020840135613f7f81613d32565b91506040840135613f8f81613f4a565b809150509250925092565b60008060208385031215613fad57600080fd5b823567ffffffffffffffff811115613fc457600080fd5b613fd085828601613e2b565b90969095509350505050565b60008060008060408587031215613ff257600080fd5b843567ffffffffffffffff8082111561400a57600080fd5b61401688838901613e2b565b9096509450602087013591508082111561402f57600080fd5b5061403c87828801613e2b565b95989497509550505050565b60408152600061405b6040830185613d9a565b828103602084015261406d8185613d9a565b95945050505050565b6000806000806080858703121561408c57600080fd5b843561409781613d32565b966020860135965060408601359560600135945092505050565b600181811c908216806140c557607f821691505b6020821081036140e557634e487b7160e01b600052602260045260246000fd5b50919050565b6020808252600b908201526a19195858dd1a5d985d195960aa1b604082015260600190565b60006020828403121561412257600080fd5b5051919050565b602080825260069082015265139bc813919560d21b604082015260600190565b634e487b7160e01b600052604160045260246000fd5b60006060828403121561417157600080fd5b6040516060810181811067ffffffffffffffff8211171561419457614194614149565b60405282516141a281613f4a565b815260208301516141b281613d32565b60208201526040928301519281019290925250919050565b602080825260069082015265139bdd081ddb60d21b604082015260600190565b6020808252600990820152682737903632b73232b960b91b604082015260600190565b6020808252600690820152656e6f2047505360d01b604082015260600190565b600080835461423b816140b1565b60018281168015614253576001811461426857614297565b60ff1984168752821515830287019450614297565b8760005260208060002060005b8581101561428e5781548a820152908401908201614275565b50505082870194505b50929695505050505050565b8183823760009101908152919050565b602080825260079082015266125b9d985b1a5960ca1b604082015260600190565b634e487b7160e01b600052601160045260246000fd5b818103818111156142fd576142fd6142d4565b92915050565b602080825260079082015266195e1c1a5c995960ca1b604082015260600190565b634e487b7160e01b600052603260045260246000fd5b60208082526009908201526862616420737461746560b81b604082015260600190565b808201808211156142fd576142fd6142d4565b6000815461437d816140b1565b80855260206001838116801561439a57600181146143b4576143e2565b60ff1985168884015283151560051b8801830195506143e2565b866000528260002060005b858110156143da5781548a82018601529083019084016143bf565b890184019650505b505050505092915050565b84815283602082015260806040820152600061440c6080830185614370565b8281036060840152613c898185614370565b6020808252600a908201526937b7363c9037bbb732b960b11b604082015260600190565b6020808252600c908201526b125b9cdd59999a58da595b9d60a21b604082015260600190565b8381526060602082015260006144816060830185614370565b82810360408401526144938185614370565b9695505050505050565b6020808252600d908201526c131a5b5a5d081c995858da1959609a1b604082015260600190565b6000600182016144d6576144d66142d4565b5060010190565b80820281158282048414176142fd576142fd6142d4565b634e487b7160e01b600052601260045260246000fd5b600082614519576145196144f4565b500490565b601f8211156122d057600081815260208120601f850160051c810160208610156145455750805b601f850160051c820191505b8181101561456457828155600101614551565b505050505050565b600019600383901b1c191660019190911b1790565b815167ffffffffffffffff81111561459b5761459b614149565b6145af816145a984546140b1565b8461451e565b602080601f8311600181146145de57600084156145cc5750858301515b6145d6858261456c565b865550614564565b600085815260208120601f198616915b8281101561460d578886015182559484019460019091019084016145ee565b508582101561462b5787850151600019600388901b60f8161c191681555b5050505050600190811b01905550565b818103614646575050565b61465082546140b1565b67ffffffffffffffff81111561466857614668614149565b614676816145a984546140b1565b6000601f8211600181146146a457600083156146925750848201545b61469c848261456c565b855550612921565b600085815260209020601f19841690600086815260209020845b838110156146de57828601548255600195860195909101906020016146be565b508583101561462b5793015460001960f8600387901b161c19169092555050600190811b01905550565b67ffffffffffffffff83111561472057614720614149565b6147348361472e83546140b1565b8361451e565b6000601f84116001811461476257600085156147505750838201355b61475a868261456c565b845550612921565b600083815260209020601f19861690835b828110156147935786850135825560209485019460019092019101614773565b50868210156147b05760001960f88860031b161c19848701351681555b505060018560011b0183555050505050565b81835281816020850137506000828201602090810191909152601f909101601f19169091010190565b8581526060602082015260006148056060830186886147c2565b82810360408401526148188185876147c2565b98975050505050505050565b600082614833576148336144f4565b500690565b600061012060018060a01b038c1683528a60208401528960408401528860608401528760808401528660a08401528560c08401528060e084015261487e81840186614370565b90508281036101008401526148938185614370565b9c9b505050505050505050505050565b60006101008a83528960208401528860408401528760608401528660808401528560a08401528060c08401526148db81840186614370565b905082810360e08401526148ef8185614370565b9b9a5050505050505050505050565b634e487b7160e01b600052603160045260246000fd5b60006020828403121561492657600080fd5b8151613eff81613f4a565b60008251614943818460208701613d76565b9190910192915050565b602081526000613eff6020830184613d9a56fea26469706673582212203758edafad99753c0a7fc4bc2f77c0d8e7a85365ccefe1534bb35001adb0560464736f6c63430008120033",
  "immutableReferences": {},
  "source": "// SPDX-License-Identifier: CC-BY-4.0\npragma solidity ^0.8.17;\n\n//import \"@openzeppelin/contracts/interfaces/IERC721.sol\";\nimport \"../node_modules/@openzeppelin/contracts/token/ERC721/IERC721.sol\";\nimport \"./Utilities.sol\";\n\n/**\n * @dev Interface of the WhitelistRenters contract.\n */\n\ninterface IlenderWhitelist {\n    struct Lender {\n        bool isWhitelisted;\n        address bikeShareContract;\n        uint NFTId;\n    }\n\n    function whitelistedAddresses(\n        address\n    ) external view returns (Lender memory);\n}\n\n/**\n * @dev Interface of the BikeShare contract.\n */\n\ninterface IBikeShare {\n    // to call the function setProposal of the BikeShare contract\n    function setProposal(\n        address _owner,\n        uint _dateMin,\n        uint _dateMax,\n        uint _rentalTime,\n        uint _rate,\n        uint depositAmount,\n        uint date,\n        string calldata _latitude,\n        string calldata _longitude\n    ) external;\n\n    function returnedBike(address _bikeRentOwner) external;\n\n    function maximumRental() external view returns (uint);\n\n    function rate() external view returns (uint);\n\n    function depositAmount() external view returns (uint);\n\n    function cancelledRenting(address _bikeRentOwner) external;\n\n    function getProposalsLength() external view returns (uint);\n}\n\n/**\n * @title BikeRent\n * @author Crypt0zaurus https://www.linkedin.com/in/maxence-a-a82081260\n * @dev The contract interacts with BikeShare contracts, LenderWhitelist, and VaultW2R contracts.\n * It uses the Utilities contract as a base and implements SafeERC20 to handle token transfers.\n */\n\ncontract BikeRent is Utilities {\n    using SafeERC20 for IERC20;\n    IBikeShare bikeShare;\n    address whitelistRenter;\n    address lenderNFT;\n    address whitelistLender;\n    bool public isRenting;\n\n    event ProposalMade(\n        address indexed renter,\n        uint date,\n        address indexed lender,\n        uint rentalDateMin,\n        uint rentalDateMax,\n        uint rentalTime,\n        uint rate,\n        uint depositAmount,\n        string latitude,\n        string longitude\n    );\n\n    event RentalStarted(\n        address indexed renter,\n        uint date,\n        uint rentalTime,\n        uint rentalPrice,\n        uint deposit,\n        uint amountRequired,\n        bool _propalCancellation,\n        address indexed lender\n    );\n\n    event RentalCancelled(\n        address indexed lender,\n        uint date,\n        uint refund,\n        uint returnDate,\n        address indexed renter\n    );\n\n    event RentalDeclaredAsReturned(\n        address indexed lender,\n        uint date,\n        address indexed renter,\n        string latitude,\n        string longitude\n    );\n    event RentalReturned(\n        uint rentalDate,\n        address indexed lender,\n        uint date,\n        address indexed renter,\n        string latitude,\n        string longitude\n    );\n\n    event BikeTaken(\n        address indexed lender,\n        uint date,\n        address indexed renter,\n        string latitude,\n        string longitude\n    );\n\n    struct Rental {\n        uint date;\n        uint rentalTime;\n        uint rentalPrice;\n        uint depositAmount;\n        uint rewardExpected;\n        bool isReturned;\n        bool isRefunded;\n        bool seemsReturned;\n        bool cantCancel;\n        string rentalToken;\n    }\n\n    struct RentalToken {\n        uint time;\n        string rentalToken;\n    }\n\n    RentalToken private rentalToken;\n\n    struct ProposalsMade {\n        uint date; // time of the proposal\n        address lender; // address of the lender\n        uint rentalDateMin; // date of the rental, minimum hour of RDV\n        uint rentalDateMax; // date of the rental, maximum hour of RDV\n        uint rentalTime; // rental time proposed\n        uint rate; // rate of the rental\n        uint depositAmount; // deposit amount\n        bool isAccepted; // boolen pour savoir si la proposition a t accepte\n    }\n\n    struct DailyCalls {\n        uint256 lastResetTimestamp;\n        uint256 dailyCallCount;\n    }\n    mapping(address => DailyCalls) private userProposalCalls;\n    mapping(address => DailyCalls) private userRentalCalls;\n    mapping(address => DailyCalls) private userTokenCalls;\n    uint private constant DAY_SECONDS = 24 hours;\n    uint private constant DAILY_CALL_LIMIT = 3;\n\n    // instantiate IlenderWhitelist interface\n    IlenderWhitelist private LenderWhitelist;\n\n    ProposalsMade[] public proposalsMade;\n\n    // mapping of the address of the lender to an array of Rental structs (one for each rental)\n    // as a lender can have multiple rentals from a renter\n    mapping(address => Rental[]) public rentals;\n\n    address public currentLender;\n\n    constructor(\n        address _renter,\n        address _W2Rtoken,\n        address _lenderNFT,\n        address _whitelistRenter,\n        address _vaultW2R,\n        address _whitelistLender\n    ) Utilities(_renter, _W2Rtoken, _vaultW2R) {\n        require(\n            _lenderNFT != address(0) &&\n                _whitelistRenter != address(0) &&\n                _whitelistLender != address(0),\n            \"bad address\"\n        );\n        require(msg.sender == _whitelistRenter, \"Only wl\");\n        lenderNFT = _lenderNFT;\n        whitelistRenter = _whitelistRenter;\n        whitelistLender = _whitelistLender;\n    }\n\n    /**\n     * @dev Modifier to check if the bikeShare owner has a valid NFT and if the bikeShare contract is whitelisted.\n     * @param _bikeShareOwner The address of the bikeShare owner.\n     */\n\n    modifier checkLenderNFT(address _bikeShareOwner) {\n        require(IERC721(lenderNFT).balanceOf(_bikeShareOwner) > 0, \"No NFT\");\n        LenderWhitelist = IlenderWhitelist(whitelistLender);\n        require(\n            LenderWhitelist.whitelistedAddresses(_bikeShareOwner).isWhitelisted,\n            \"Not wl\"\n        );\n        // check if msg.sender corresponding to bikeshare contract in struct of whitelisted _bikeShareOwner\n        require(\n            LenderWhitelist\n                .whitelistedAddresses(_bikeShareOwner)\n                .bikeShareContract == msg.sender,\n            \"Not wl\"\n        );\n        _;\n    }\n\n    /**\n     * @dev Modifier to check if the contract is in a renting state.\n     */\n\n    modifier renting() {\n        require(isRenting && currentLender != address(0), \"No lender\");\n        require(\n            bytes(gpsData[address(this)].latitude).length > 0 &&\n                bytes(gpsData[address(this)].longitude).length > 0,\n            \"no GPS\"\n        );\n        _;\n    }\n\n    /**\n     * @dev Modifier to limit the rate of user actions.\n     * @param userAction The mapping of the user action to check.\n     */\n\n    modifier rateLimited(mapping(address => DailyCalls) storage userAction) {\n        DailyCalls storage dailyCalls = userAction[msg.sender];\n        if (block.timestamp - dailyCalls.lastResetTimestamp >= DAY_SECONDS) {\n            dailyCalls.dailyCallCount = 0;\n            dailyCalls.lastResetTimestamp = block.timestamp;\n        }\n        require(dailyCalls.dailyCallCount < DAILY_CALL_LIMIT, \"Limit reached\");\n        dailyCalls.dailyCallCount++;\n        _;\n    }\n\n    modifier validToken(string calldata lenderTempToken) {\n        require(msg.sender == currentLender, \"Only lender\");\n        require(\n            bytes(rentalToken.rentalToken).length == 30 &&\n                bytes(lenderTempToken).length == 30 &&\n                keccak256(abi.encodePacked(lenderTempToken)) ==\n                keccak256(abi.encodePacked(rentalToken.rentalToken)),\n            \"Invalid\"\n        );\n        require(\n            rentalToken.time > 0 &&\n                block.timestamp - rentalToken.time <= 1 minutes,\n            \"expired\"\n        );\n        _;\n    }\n\n    /**\n     * @notice Retrieve the number of rentals for a given renter's address.\n     * @param renter The address of the renter.\n     */\n\n    function getRentalsByAdresses(address renter) external view returns (uint) {\n        return rentals[renter].length;\n    }\n\n    /**\n     * @notice Retrieve expired proposals made from bikeShare contracts and delete them.\n     * @dev Helper function to delete expired proposals.\n     */\n\n    function deleteOldProposals() private returns (bool) {\n        uint i;\n        while (i < proposalsMade.length) {\n            if (block.timestamp - proposalsMade[i].date > proposalDuration) {\n                cancelUselessProposals(i);\n            } else {\n                i++;\n            }\n        }\n        return true;\n    }\n\n    /**\n    @notice Allows renters to make rental proposals for bikes available on the platform.\n    @dev The proposal must include all necessary details such as the desired meeting for rental dates range and rental duration.\n    @dev Call the setProposal function of the bikeShare contract to set the proposal.\n    @param _bikeShareContract The address of the bikeShare contract.\n    @param _dateMin The minimum date of the meeting for rental.\n    @param _dateMax The maximum date of the meeting for rental.\n    @param _rentalTime The rental time proposed.\n    */\n\n    function makeProposal(\n        address _bikeShareContract,\n        uint _dateMin,\n        uint _dateMax,\n        uint _rentalTime\n    ) public isActivated onlyOwner rateLimited(userProposalCalls) {\n        require(\n            _bikeShareContract != address(0) &&\n                _bikeShareContract != owner &&\n                _bikeShareContract != address(this),\n            \"Invalid address\"\n        );\n        require(deleteOldProposals());\n        for (uint i; i < proposalsMade.length; i++) {\n            if (proposalsMade[i].lender == _bikeShareContract) {\n                revert(\"already made\");\n            }\n        }\n        require(_rentalTime > 0 && _dateMin > 0 && _dateMax > 0, \"bad values\");\n        require(_dateMin > block.timestamp + 10000, \"too soon\");\n        require(\n            _rentalTime % 1 days == 0 &&\n                _rentalTime >= minimalRental &&\n                _dateMax - _dateMin >= 3 hours &&\n                _dateMax - _dateMin <= 12 hours,\n            \"bad time\"\n        );\n        require(proposalsMade.length < 3, \"Only 3\");\n        require(\n            bytes(gpsData[address(this)].latitude).length > 0 &&\n                bytes(gpsData[address(this)].longitude).length > 0,\n            \"no GPS\"\n        );\n        bikeShare = IBikeShare(_bikeShareContract);\n        require(bikeShare.getProposalsLength() < 5, \"Only 5\");\n        require(_rentalTime <= bikeShare.maximumRental(), \"too long\");\n        uint _rate = bikeShare.rate();\n        uint _depositAmount = bikeShare.depositAmount();\n        require(\n            W2R.balanceOf(address(this)) >=\n                _depositAmount + _rate * (_rentalTime / 1 days),\n            \"Not enough\"\n        );\n        // call the setProposal function of the BikeShare contract\n        bikeShare.setProposal(\n            owner,\n            _dateMin,\n            _dateMax,\n            _rentalTime,\n            _rate,\n            _depositAmount,\n            block.timestamp,\n            gpsData[address(this)].latitude,\n            gpsData[address(this)].longitude\n        );\n        // push the proposal to the proposalsMade array\n        proposalsMade.push(\n            ProposalsMade(\n                block.timestamp, // date of the proposal\n                _bikeShareContract, // address of the BikeShare contract\n                _dateMin, // date of the rental proposed, minimum hour\n                _dateMax, // date of the rental proposed, maximum hour\n                _rentalTime, // rental time proposed\n                _rate, // rate at the time of the proposal\n                _depositAmount, // depositAmount at the time of the proposal\n                false // isAccepted\n            )\n        );\n        emit ProposalMade(\n            address(this), // address of the renter contract\n            block.timestamp, // date of the proposal\n            _bikeShareContract, // address of the BikeShare contract\n            _dateMin, // date of the rental proposed, minimum hour\n            _dateMax, // date of the rental proposed, maximum hour\n            _rentalTime, // rental time proposed\n            _rate, // rate at the time of the proposal\n            _depositAmount,\n            gpsData[address(this)].latitude,\n            gpsData[address(this)].longitude\n        );\n    }\n\n    /**\n     * @notice Retrieve the number of proposals in proposalsMade array.\n     */\n\n    function getProposalsLength() external view returns (uint) {\n        return proposalsMade.length;\n    }\n\n    /**\n     * @notice Returns the length of rentals array for a specific lender\n     * @param lender The address of the lender\n     * @return Length of rentals array for the given lender\n     */\n\n    function getRentalsLength(address lender) external view returns (uint) {\n        return rentals[lender].length;\n    }\n\n    function setRentalToken(\n        string calldata _rentalToken\n    ) external onlyOwner isActivated renting rateLimited(userTokenCalls) {\n        rentalToken.time = block.timestamp;\n        rentalToken.rentalToken = _rentalToken;\n    }\n\n    /**\n     * @notice Rent a bike after accepting a proposal\n     * @dev The lender's BikeShare must have accepted a proposal, and this function is remotely called\n     * from the BikeShare contract.\n     * @param _bikeShareOwner The address of the bike share owner\n     * @param _rentalPrice The rental price of the bike\n     * @param _depositAmount The deposit amount for the bike\n     * @param _rentalTime The rental time for the bike\n     * @param _rentalDate The date when the rental begins\n     */\n\n    function rentBike(\n        address _bikeShareOwner,\n        uint _rentalPrice,\n        uint _depositAmount,\n        uint _rentalTime,\n        uint _rentalDate\n    )\n        external\n        isActivated\n        checkLenderNFT(_bikeShareOwner)\n        rateLimited(userRentalCalls)\n    {\n        require(\n            !isRenting &&\n                currentLender == address(0) &&\n                msg.sender != address(0),\n            \"bad renting\"\n        );\n        require(\n            bytes(gpsData[address(this)].latitude).length > 0 &&\n                bytes(gpsData[address(this)].longitude).length > 0,\n            \"no GPS\"\n        );\n        uint _amountRequired = _rentalPrice + _depositAmount;\n        require(\n            W2R.balanceOf(address(this)) >= _amountRequired,\n            \"Insufficient\"\n        );\n        bool proposalFound;\n        uint i;\n        uint dateMax;\n        uint rentalTime = _rentalTime;\n        for (i = 0; i < proposalsMade.length; i++) {\n            if (proposalsMade[i].lender == msg.sender) {\n                ProposalsMade memory proposal = proposalsMade[i];\n                require(\n                    block.timestamp - proposal.date <= proposalDuration,\n                    \"expired\"\n                );\n                require(!proposal.isAccepted, \"accepted\");\n                require((_rentalPrice * rewardAmount * 100) >= 10000);\n                uint rentalPrice = _rentalPrice;\n                dateMax = proposal.rentalDateMax;\n                uint reward = (rentalPrice * rewardAmount * 100) / 10000;\n                proposal.isAccepted = true;\n                isRenting = true;\n                uint rentalDate = _rentalDate;\n                uint depositAmount = _depositAmount;\n                uint amountRequired = _amountRequired;\n                rentals[msg.sender].push(\n                    Rental(\n                        rentalDate,\n                        rentalTime,\n                        rentalPrice,\n                        depositAmount,\n                        reward,\n                        false,\n                        false,\n                        false,\n                        false,\n                        \"\"\n                    )\n                );\n                currentLender = msg.sender;\n                totalRentals++;\n                safeDate = rentalDate + rentalTime + 2 days;\n                W2R.safeTransfer(msg.sender, _amountRequired);\n                emit RentalStarted(\n                    msg.sender,\n                    rentalDate,\n                    proposal.rentalTime,\n                    rentalPrice,\n                    depositAmount,\n                    amountRequired,\n                    false,\n                    currentLender\n                );\n                proposalFound = true;\n                break;\n            }\n        }\n        require(proposalFound, \"No found\");\n        // delete proposal from the renter as it has been accepted\n        cancelUselessProposals(i);\n        //delete proposal which date is before the rental date\n        for (uint j; j < proposalsMade.length; j++) {\n            if (j != i && proposalsMade[j].date < (dateMax + rentalTime)) {\n                cancelUselessProposals(j);\n            }\n        }\n    }\n\n    /**\n     * @notice Cancel proposals that are no longer useful\n     * @dev This is a helper function\n     * @param index The index of the proposal in proposalsMade array\n     * @return true if the proposal is successfully cancelled, false otherwise\n     */\n\n    function cancelUselessProposals(uint index) private returns (bool) {\n        address lender = proposalsMade[index].lender;\n        uint256 date = proposalsMade[index].date;\n        proposalsMade[index] = proposalsMade[proposalsMade.length - 1];\n        proposalsMade.pop();\n        emit ProposalCancelled(address(this), date, lender);\n        return true;\n    }\n\n    /**\n     * @notice Cancel a proposal made by the owner\n     * @param _bikeShareContract The address of the bike share contract\n     */\n\n    function cancelProposal(\n        address _bikeShareContract\n    ) public isActivated onlyOwner {\n        require(\n            _bikeShareContract != address(0) &&\n                _bikeShareContract != owner &&\n                _bikeShareContract != address(this),\n            \"Invalid\"\n        );\n        require(proposalsMade.length > 0, \"No found\");\n        uint i;\n        while (i < proposalsMade.length) {\n            if (proposalsMade[i].lender == _bikeShareContract) {\n                require(proposalsMade[i].isAccepted == false, \"accepted\");\n                cancelUselessProposals(i);\n                break;\n            } else {\n                i++;\n            }\n        }\n    }\n\n    /**\n     * @notice Confirm the bike is in renter's hands\n     * @dev This function is called by the lender's BikeShare contract to confirm that the bike is taken\n     * @param _bikeShareOwner The address of the bike share owner\n     */\n\n    function confirmBikeInHands(\n        address _bikeShareOwner,\n        string calldata lenderTempToken\n    )\n        external\n        isActivated\n        checkLenderNFT(_bikeShareOwner)\n        renting\n        validToken(lenderTempToken)\n    {\n        Rental storage rental = rentals[currentLender][\n            rentals[currentLender].length - 1\n        ];\n        require(!rental.cantCancel, \"taken\");\n        rental.cantCancel = true;\n        rental.rentalToken = rentalToken.rentalToken;\n        emit BikeTaken(\n            currentLender,\n            block.timestamp,\n            address(this),\n            gpsData[address(this)].latitude,\n            gpsData[address(this)].longitude\n        );\n    }\n\n    /**\n     * @dev This function call the BikeShare contract to pretend that the bike is returned\n     * @notice Declare the return of the rented bike, people have to be physically present at the meeting point\n     */\n\n    function returnBike() external isActivated renting onlyOwner {\n        Rental storage rental = rentals[currentLender][\n            rentals[currentLender].length - 1\n        ];\n        require(\n            rental.cantCancel && !rental.seemsReturned && !rental.isReturned,\n            \"bad state\"\n        );\n        require(\n            rentalToken.time > 0 &&\n                block.timestamp - rentalToken.time <= 1 minutes,\n            \"expired\"\n        );\n        bikeShare = IBikeShare(currentLender);\n        bikeShare.returnedBike(owner);\n        rental.seemsReturned = true;\n        emit RentalDeclaredAsReturned(\n            currentLender,\n            block.timestamp,\n            address(this),\n            gpsData[address(this)].latitude,\n            gpsData[address(this)].longitude\n        );\n    }\n\n    /**\n     * @notice Confirm the return of the bike\n     * @dev This function is called by the lender's BikeShare contract to confirm definitaly that the bike is returned\n     * @param _bikeShareOwner The address of the bike share owner\n     */\n\n    function returnConfirmed(\n        address _bikeShareOwner,\n        string calldata lenderTempToken\n    )\n        external\n        isActivated\n        checkLenderNFT(_bikeShareOwner)\n        renting\n        validToken(lenderTempToken)\n    {\n        Rental storage rental = rentals[msg.sender][\n            rentals[msg.sender].length - 1\n        ];\n        require(rental.seemsReturned && !rental.isReturned, \"bad state\");\n        rental.isReturned = true;\n        uint reward = rental.rewardExpected;\n        // update rewards mapping\n        rewards[msg.sender] += reward;\n        // increase total rewards\n        totalRewards += reward;\n        isRenting = false;\n        currentLender = address(0);\n        emit RentalReturned(\n            rental.date,\n            msg.sender,\n            block.timestamp,\n            address(this),\n            gpsData[address(this)].latitude,\n            gpsData[address(this)].longitude\n        );\n    }\n\n    /**\n     * @notice Cancel a rental\n     * @dev This function is called by the lender's BikeShare contract to cancel a rental\n     * @param _refund The refund amount to be given\n     * @param _bikeShareOwner The address of the bike share owner\n     * @param _isCancelledByLender Indicates whether the rental is cancelled by the lender or not\n     */\n\n    function cancelledLending(\n        uint _refund,\n        address _bikeShareOwner,\n        bool _isCancelledByLender\n    ) external isActivated checkLenderNFT(_bikeShareOwner) renting {\n        require(_refund > 0, \"Invalid refund\");\n        handleRentalCancellation(\n            _refund,\n            _bikeShareOwner,\n            _isCancelledByLender\n        );\n    }\n\n    /**\n     * @dev This function is called by this renter contract to cancel a rental\n     * @notice Cancel renting before it begins\n     */\n\n    function cancelRenting() external isActivated onlyOwner renting {\n        handleRentalCancellation(0, address(0), false);\n    }\n\n    /**\n     * @notice Helper function to handle rental cancellation\n     * @param _refund The refund amount to be given\n     * @param _bikeShareOwner The address of the bike share owner\n     * @param _isCancelledByLender Indicates whether the rental is cancelled by the lender or not\n     */\n\n    function handleRentalCancellation(\n        uint _refund,\n        address _bikeShareOwner,\n        bool _isCancelledByLender\n    ) private {\n        Rental storage rental = rentals[currentLender][\n            rentals[currentLender].length - 1\n        ];\n        require(!rental.cantCancel && !rental.isReturned, \"bad state\");\n        if (_refund == 0) {\n            uint basis = rental.depositAmount + rental.rentalPrice;\n            _refund = block.timestamp >= rental.date - 2 hours\n                ? basis - (rental.rentalPrice * 1000) / 10000\n                : basis;\n        }\n        if (_bikeShareOwner != address(0)) {\n            require(msg.sender == currentLender, \"lender\");\n        } else {\n            if (!_isCancelledByLender) {\n                bikeShare = IBikeShare(currentLender);\n                bikeShare.cancelledRenting(owner);\n            }\n        }\n        // set rental as returned\n        rental.isReturned = true;\n        isRenting = false;\n        safeDate = block.timestamp;\n        address lender = currentLender;\n        currentLender = address(0);\n        emit RentalCancelled(\n            lender,\n            rental.date,\n            _refund,\n            block.timestamp,\n            address(this)\n        );\n    }\n\n    /**\n     * @notice Withdraw funds from the contract\n     * @param _amount The amount to be withdrawn\n     */\n\n    function withdrawFunds(uint _amount) external isActivated onlyOwner {\n        require(_amount > 0, \"Not 0\");\n        require(W2R.balanceOf(address(this)) >= _amount, \"Insufficient\");\n        W2R.safeTransfer(msg.sender, _amount);\n        emit W2Rwithdrawed(msg.sender, _amount, block.timestamp, address(this));\n    }\n\n    /**\n     * @notice Destroy the contract, W2R funds are transfered to the owner.\n     * @dev This function is called by the whitelist contract to destroy the contract\n     * not really destroyed as the selfdestruct expected to be used will be deprecated soon\n     * but usable anymore\n     * @return true if the contract is successfully destroyed, false otherwise\n     */\n\n    function destroy() external returns (bool) {\n        require(msg.sender == whitelistRenter, \"wl\");\n        require(block.timestamp >= safeDate, \"delay\");\n        isDeactivated = true;\n        isDestroyed = true;\n        if (W2R.balanceOf(address(this)) > 0) {\n            // transfer all balance of W2R to owner\n            W2R.safeTransfer(owner, W2R.balanceOf(address(this)));\n        }\n        if (totalRewards > 0) {\n            uint amount = totalRewards;\n            totalRewards = 0;\n            vaultW2R.distributeW2R(owner, amount);\n        }\n        emit ContractDestroyed(msg.sender, block.timestamp, address(this));\n        return true;\n    }\n}\n",
  "sourcePath": "/Users/harbinger/Dropbox/Dossier familial/Formation Blockchain/Alyra/Projet Certification/Projet Alyra 2Wheels2Rent/truffle/contracts/BikeRent.sol",
  "compiler": {
    "name": "solc",
    "version": "0.8.18+commit.87f61d96.Emscripten.clang"
  },
  "schemaVersion": "3.4.12",
  "updatedAt": "2023-05-07T15:46:00.768Z",
  "devdoc": {
    "author": "Crypt0zaurus https://www.linkedin.com/in/maxence-a-a82081260",
    "details": "The contract interacts with BikeShare contracts, LenderWhitelist, and VaultW2R contracts. It uses the Utilities contract as a base and implements SafeERC20 to handle token transfers.",
    "kind": "dev",
    "methods": {
      "activate(string,string)": {
        "params": {
          "_latitude": "The latitude of the owner's location",
          "_longitude": "The longitude of the owner's location"
        }
      },
      "cancelProposal(address)": {
        "params": {
          "_bikeShareContract": "The address of the bike share contract"
        }
      },
      "cancelRenting()": {
        "details": "This function is called by this renter contract to cancel a rental"
      },
      "cancelledLending(uint256,address,bool)": {
        "details": "This function is called by the lender's BikeShare contract to cancel a rental",
        "params": {
          "_bikeShareOwner": "The address of the bike share owner",
          "_isCancelledByLender": "Indicates whether the rental is cancelled by the lender or not",
          "_refund": "The refund amount to be given"
        }
      },
      "claimRewards()": {
        "details": "This function can only be called by the contract owner and when the staking contract is activated. The total rewards are set to zero after claiming, and the rewards are distributed through the vault."
      },
      "confirmBikeInHands(address,string)": {
        "details": "This function is called by the lender's BikeShare contract to confirm that the bike is taken",
        "params": {
          "_bikeShareOwner": "The address of the bike share owner"
        }
      },
      "depositW2R(uint256)": {
        "params": {
          "_amount": "The amount of W2R tokens to deposit"
        }
      },
      "destroy()": {
        "details": "This function is called by the whitelist contract to destroy the contract not really destroyed as the selfdestruct expected to be used will be deprecated soon but usable anymore",
        "returns": {
          "_0": "true if the contract is successfully destroyed, false otherwise"
        }
      },
      "getRentalsByAdresses(address)": {
        "params": {
          "renter": "The address of the renter."
        }
      },
      "getRentalsLength(address)": {
        "params": {
          "lender": "The address of the lender"
        },
        "returns": {
          "_0": "Length of rentals array for the given lender"
        }
      },
      "getTotalRewards()": {
        "returns": {
          "_0": "The total rewards"
        }
      },
      "makeProposal(address,uint256,uint256,uint256)": {
        "details": "The proposal must include all necessary details such as the desired meeting for rental dates range and rental duration.Call the setProposal function of the bikeShare contract to set the proposal.",
        "params": {
          "_bikeShareContract": "The address of the bikeShare contract.",
          "_dateMax": "The maximum date of the meeting for rental.",
          "_dateMin": "The minimum date of the meeting for rental.",
          "_rentalTime": "The rental time proposed."
        }
      },
      "rentBike(address,uint256,uint256,uint256,uint256)": {
        "details": "The lender's BikeShare must have accepted a proposal, and this function is remotely called from the BikeShare contract.",
        "params": {
          "_bikeShareOwner": "The address of the bike share owner",
          "_depositAmount": "The deposit amount for the bike",
          "_rentalDate": "The date when the rental begins",
          "_rentalPrice": "The rental price of the bike",
          "_rentalTime": "The rental time for the bike"
        }
      },
      "returnBike()": {
        "details": "This function call the BikeShare contract to pretend that the bike is returned"
      },
      "returnConfirmed(address,string)": {
        "details": "This function is called by the lender's BikeShare contract to confirm definitaly that the bike is returned",
        "params": {
          "_bikeShareOwner": "The address of the bike share owner"
        }
      },
      "setGPS(string,string)": {
        "params": {
          "_latitude": "The latitude of the owner's location",
          "_longitude": "The longitude of the owner's location"
        }
      },
      "withdrawFunds(uint256)": {
        "params": {
          "_amount": "The amount to be withdrawn"
        }
      }
    },
    "title": "BikeRent",
    "version": 1
  },
  "userdoc": {
    "kind": "user",
    "methods": {
      "activate(string,string)": {
        "notice": "Activates the contract and sets the GPS location of the contract owner"
      },
      "cancelProposal(address)": {
        "notice": "Cancel a proposal made by the owner"
      },
      "cancelRenting()": {
        "notice": "Cancel renting before it begins"
      },
      "cancelledLending(uint256,address,bool)": {
        "notice": "Cancel a rental"
      },
      "claimRewards()": {
        "notice": "Claim the accumulated rewards for the contract owner."
      },
      "confirmBikeInHands(address,string)": {
        "notice": "Confirm the bike is in renter's hands"
      },
      "depositW2R(uint256)": {
        "notice": "Deposits W2R tokens to the contract"
      },
      "destroy()": {
        "notice": "Destroy the contract, W2R funds are transfered to the owner."
      },
      "getProposalsLength()": {
        "notice": "Retrieve the number of proposals in proposalsMade array."
      },
      "getRentalsByAdresses(address)": {
        "notice": "Retrieve the number of rentals for a given renter's address."
      },
      "getRentalsLength(address)": {
        "notice": "Returns the length of rentals array for a specific lender"
      },
      "getTotalRewards()": {
        "notice": "Returns the total rewards accumulated by the contract"
      },
      "makeProposal(address,uint256,uint256,uint256)": {
        "notice": "Allows renters to make rental proposals for bikes available on the platform."
      },
      "rentBike(address,uint256,uint256,uint256,uint256)": {
        "notice": "Rent a bike after accepting a proposal"
      },
      "returnBike()": {
        "notice": "Declare the return of the rented bike, people have to be physically present at the meeting point"
      },
      "returnConfirmed(address,string)": {
        "notice": "Confirm the return of the bike"
      },
      "setGPS(string,string)": {
        "notice": "Sets the GPS location of the contract owner"
      },
      "withdrawFunds(uint256)": {
        "notice": "Withdraw funds from the contract"
      }
    },
    "version": 1
  }
}