{
  "contractName": "BikeRent",
  "abi": [
    {
      "inputs": [
        {
          "internalType": "address",
          "name": "_renter",
          "type": "address"
        },
        {
          "internalType": "address",
          "name": "_W2Rtoken",
          "type": "address"
        },
        {
          "internalType": "address",
          "name": "_lenderNFT",
          "type": "address"
        },
        {
          "internalType": "address",
          "name": "_whitelistRenter",
          "type": "address"
        },
        {
          "internalType": "address",
          "name": "_vaultW2R",
          "type": "address"
        },
        {
          "internalType": "address",
          "name": "_whitelistLender",
          "type": "address"
        }
      ],
      "stateMutability": "nonpayable",
      "type": "constructor"
    },
    {
      "anonymous": false,
      "inputs": [
        {
          "indexed": true,
          "internalType": "address",
          "name": "lender",
          "type": "address"
        },
        {
          "indexed": false,
          "internalType": "uint256",
          "name": "date",
          "type": "uint256"
        },
        {
          "indexed": true,
          "internalType": "address",
          "name": "renter",
          "type": "address"
        },
        {
          "indexed": false,
          "internalType": "string",
          "name": "latitude",
          "type": "string"
        },
        {
          "indexed": false,
          "internalType": "string",
          "name": "longitude",
          "type": "string"
        }
      ],
      "name": "BikeTaken",
      "type": "event"
    },
    {
      "anonymous": false,
      "inputs": [
        {
          "indexed": true,
          "internalType": "address",
          "name": "_owner",
          "type": "address"
        },
        {
          "indexed": false,
          "internalType": "uint256",
          "name": "_date",
          "type": "uint256"
        },
        {
          "indexed": true,
          "internalType": "address",
          "name": "_contractAddress",
          "type": "address"
        }
      ],
      "name": "ContractActivated",
      "type": "event"
    },
    {
      "anonymous": false,
      "inputs": [
        {
          "indexed": true,
          "internalType": "address",
          "name": "_owner",
          "type": "address"
        },
        {
          "indexed": false,
          "internalType": "uint256",
          "name": "_date",
          "type": "uint256"
        },
        {
          "indexed": true,
          "internalType": "address",
          "name": "_contractAddress",
          "type": "address"
        }
      ],
      "name": "ContractDestroyed",
      "type": "event"
    },
    {
      "anonymous": false,
      "inputs": [
        {
          "indexed": true,
          "internalType": "address",
          "name": "_owner",
          "type": "address"
        },
        {
          "indexed": false,
          "internalType": "uint256",
          "name": "_date",
          "type": "uint256"
        },
        {
          "indexed": false,
          "internalType": "string",
          "name": "_latitude",
          "type": "string"
        },
        {
          "indexed": false,
          "internalType": "string",
          "name": "_longitude",
          "type": "string"
        },
        {
          "indexed": true,
          "internalType": "address",
          "name": "_contractAddress",
          "type": "address"
        }
      ],
      "name": "GPSupdated",
      "type": "event"
    },
    {
      "anonymous": false,
      "inputs": [
        {
          "indexed": true,
          "internalType": "address",
          "name": "renter",
          "type": "address"
        },
        {
          "indexed": false,
          "internalType": "uint256",
          "name": "date",
          "type": "uint256"
        },
        {
          "indexed": true,
          "internalType": "address",
          "name": "lender",
          "type": "address"
        }
      ],
      "name": "ProposalCancelled",
      "type": "event"
    },
    {
      "anonymous": false,
      "inputs": [
        {
          "indexed": true,
          "internalType": "address",
          "name": "renter",
          "type": "address"
        },
        {
          "indexed": false,
          "internalType": "uint256",
          "name": "date",
          "type": "uint256"
        },
        {
          "indexed": true,
          "internalType": "address",
          "name": "lender",
          "type": "address"
        },
        {
          "indexed": false,
          "internalType": "uint256",
          "name": "rentalDateMin",
          "type": "uint256"
        },
        {
          "indexed": false,
          "internalType": "uint256",
          "name": "rentalDateMax",
          "type": "uint256"
        },
        {
          "indexed": false,
          "internalType": "uint256",
          "name": "rentalTime",
          "type": "uint256"
        },
        {
          "indexed": false,
          "internalType": "uint256",
          "name": "rate",
          "type": "uint256"
        },
        {
          "indexed": false,
          "internalType": "uint256",
          "name": "depositAmount",
          "type": "uint256"
        },
        {
          "indexed": false,
          "internalType": "string",
          "name": "latitude",
          "type": "string"
        },
        {
          "indexed": false,
          "internalType": "string",
          "name": "longitude",
          "type": "string"
        }
      ],
      "name": "ProposalMade",
      "type": "event"
    },
    {
      "anonymous": false,
      "inputs": [
        {
          "indexed": true,
          "internalType": "address",
          "name": "lender",
          "type": "address"
        },
        {
          "indexed": false,
          "internalType": "uint256",
          "name": "date",
          "type": "uint256"
        },
        {
          "indexed": false,
          "internalType": "uint256",
          "name": "refund",
          "type": "uint256"
        },
        {
          "indexed": false,
          "internalType": "uint256",
          "name": "returnDate",
          "type": "uint256"
        },
        {
          "indexed": true,
          "internalType": "address",
          "name": "renter",
          "type": "address"
        }
      ],
      "name": "RentalCancelled",
      "type": "event"
    },
    {
      "anonymous": false,
      "inputs": [
        {
          "indexed": true,
          "internalType": "address",
          "name": "lender",
          "type": "address"
        },
        {
          "indexed": false,
          "internalType": "uint256",
          "name": "date",
          "type": "uint256"
        },
        {
          "indexed": true,
          "internalType": "address",
          "name": "renter",
          "type": "address"
        },
        {
          "indexed": false,
          "internalType": "string",
          "name": "latitude",
          "type": "string"
        },
        {
          "indexed": false,
          "internalType": "string",
          "name": "longitude",
          "type": "string"
        }
      ],
      "name": "RentalDeclaredAsReturned",
      "type": "event"
    },
    {
      "anonymous": false,
      "inputs": [
        {
          "indexed": false,
          "internalType": "uint256",
          "name": "rentalDate",
          "type": "uint256"
        },
        {
          "indexed": true,
          "internalType": "address",
          "name": "lender",
          "type": "address"
        },
        {
          "indexed": false,
          "internalType": "uint256",
          "name": "date",
          "type": "uint256"
        },
        {
          "indexed": true,
          "internalType": "address",
          "name": "renter",
          "type": "address"
        },
        {
          "indexed": false,
          "internalType": "string",
          "name": "latitude",
          "type": "string"
        },
        {
          "indexed": false,
          "internalType": "string",
          "name": "longitude",
          "type": "string"
        }
      ],
      "name": "RentalReturned",
      "type": "event"
    },
    {
      "anonymous": false,
      "inputs": [
        {
          "indexed": true,
          "internalType": "address",
          "name": "renter",
          "type": "address"
        },
        {
          "indexed": false,
          "internalType": "uint256",
          "name": "date",
          "type": "uint256"
        },
        {
          "indexed": false,
          "internalType": "uint256",
          "name": "rentalTime",
          "type": "uint256"
        },
        {
          "indexed": false,
          "internalType": "uint256",
          "name": "rentalPrice",
          "type": "uint256"
        },
        {
          "indexed": false,
          "internalType": "uint256",
          "name": "deposit",
          "type": "uint256"
        },
        {
          "indexed": false,
          "internalType": "uint256",
          "name": "amountRequired",
          "type": "uint256"
        },
        {
          "indexed": false,
          "internalType": "bool",
          "name": "_propalCancellation",
          "type": "bool"
        },
        {
          "indexed": true,
          "internalType": "address",
          "name": "lender",
          "type": "address"
        }
      ],
      "name": "RentalStarted",
      "type": "event"
    },
    {
      "anonymous": false,
      "inputs": [
        {
          "indexed": true,
          "internalType": "address",
          "name": "_owner",
          "type": "address"
        },
        {
          "indexed": false,
          "internalType": "uint256",
          "name": "_amount",
          "type": "uint256"
        },
        {
          "indexed": false,
          "internalType": "uint256",
          "name": "_date",
          "type": "uint256"
        },
        {
          "indexed": true,
          "internalType": "address",
          "name": "_contractAddress",
          "type": "address"
        }
      ],
      "name": "W2Rdeposited",
      "type": "event"
    },
    {
      "anonymous": false,
      "inputs": [
        {
          "indexed": true,
          "internalType": "address",
          "name": "_owner",
          "type": "address"
        },
        {
          "indexed": false,
          "internalType": "uint256",
          "name": "_amount",
          "type": "uint256"
        },
        {
          "indexed": false,
          "internalType": "uint256",
          "name": "_date",
          "type": "uint256"
        },
        {
          "indexed": true,
          "internalType": "address",
          "name": "_contractAddress",
          "type": "address"
        }
      ],
      "name": "W2Rwithdrawed",
      "type": "event"
    },
    {
      "inputs": [],
      "name": "W2R",
      "outputs": [
        {
          "internalType": "contract IERC20",
          "name": "",
          "type": "address"
        }
      ],
      "stateMutability": "view",
      "type": "function"
    },
    {
      "inputs": [
        {
          "internalType": "string",
          "name": "_latitude",
          "type": "string"
        },
        {
          "internalType": "string",
          "name": "_longitude",
          "type": "string"
        }
      ],
      "name": "activate",
      "outputs": [],
      "stateMutability": "nonpayable",
      "type": "function"
    },
    {
      "inputs": [],
      "name": "currentLender",
      "outputs": [
        {
          "internalType": "address",
          "name": "",
          "type": "address"
        }
      ],
      "stateMutability": "view",
      "type": "function"
    },
    {
      "inputs": [
        {
          "internalType": "uint256",
          "name": "_amount",
          "type": "uint256"
        }
      ],
      "name": "depositW2R",
      "outputs": [],
      "stateMutability": "nonpayable",
      "type": "function"
    },
    {
      "inputs": [],
      "name": "getTotalRewards",
      "outputs": [
        {
          "internalType": "uint256",
          "name": "",
          "type": "uint256"
        }
      ],
      "stateMutability": "view",
      "type": "function"
    },
    {
      "inputs": [
        {
          "internalType": "address",
          "name": "",
          "type": "address"
        }
      ],
      "name": "gpsData",
      "outputs": [
        {
          "internalType": "string",
          "name": "latitude",
          "type": "string"
        },
        {
          "internalType": "string",
          "name": "longitude",
          "type": "string"
        }
      ],
      "stateMutability": "view",
      "type": "function"
    },
    {
      "inputs": [],
      "name": "isDeactivated",
      "outputs": [
        {
          "internalType": "bool",
          "name": "",
          "type": "bool"
        }
      ],
      "stateMutability": "view",
      "type": "function"
    },
    {
      "inputs": [],
      "name": "isRenting",
      "outputs": [
        {
          "internalType": "bool",
          "name": "",
          "type": "bool"
        }
      ],
      "stateMutability": "view",
      "type": "function"
    },
    {
      "inputs": [],
      "name": "minimalRental",
      "outputs": [
        {
          "internalType": "uint256",
          "name": "",
          "type": "uint256"
        }
      ],
      "stateMutability": "view",
      "type": "function"
    },
    {
      "inputs": [],
      "name": "owner",
      "outputs": [
        {
          "internalType": "address",
          "name": "",
          "type": "address"
        }
      ],
      "stateMutability": "view",
      "type": "function"
    },
    {
      "inputs": [],
      "name": "proposalDuration",
      "outputs": [
        {
          "internalType": "uint256",
          "name": "",
          "type": "uint256"
        }
      ],
      "stateMutability": "view",
      "type": "function"
    },
    {
      "inputs": [
        {
          "internalType": "uint256",
          "name": "",
          "type": "uint256"
        }
      ],
      "name": "proposalsMade",
      "outputs": [
        {
          "internalType": "uint256",
          "name": "date",
          "type": "uint256"
        },
        {
          "internalType": "address",
          "name": "lender",
          "type": "address"
        },
        {
          "internalType": "uint256",
          "name": "rentalDateMin",
          "type": "uint256"
        },
        {
          "internalType": "uint256",
          "name": "rentalDateMax",
          "type": "uint256"
        },
        {
          "internalType": "uint256",
          "name": "rentalTime",
          "type": "uint256"
        },
        {
          "internalType": "uint256",
          "name": "rate",
          "type": "uint256"
        },
        {
          "internalType": "uint256",
          "name": "depositAmount",
          "type": "uint256"
        },
        {
          "internalType": "bool",
          "name": "isAccepted",
          "type": "bool"
        }
      ],
      "stateMutability": "view",
      "type": "function"
    },
    {
      "inputs": [
        {
          "internalType": "address",
          "name": "",
          "type": "address"
        },
        {
          "internalType": "uint256",
          "name": "",
          "type": "uint256"
        }
      ],
      "name": "rentals",
      "outputs": [
        {
          "internalType": "uint256",
          "name": "date",
          "type": "uint256"
        },
        {
          "internalType": "uint256",
          "name": "rentalTime",
          "type": "uint256"
        },
        {
          "internalType": "uint256",
          "name": "rentalPrice",
          "type": "uint256"
        },
        {
          "internalType": "uint256",
          "name": "depositAmount",
          "type": "uint256"
        },
        {
          "internalType": "uint256",
          "name": "rewardExpected",
          "type": "uint256"
        },
        {
          "internalType": "bool",
          "name": "isReturned",
          "type": "bool"
        },
        {
          "internalType": "bool",
          "name": "isRefunded",
          "type": "bool"
        },
        {
          "internalType": "bool",
          "name": "seemsReturned",
          "type": "bool"
        },
        {
          "internalType": "bool",
          "name": "cantCancel",
          "type": "bool"
        }
      ],
      "stateMutability": "view",
      "type": "function"
    },
    {
      "inputs": [],
      "name": "rewardAmount",
      "outputs": [
        {
          "internalType": "uint256",
          "name": "",
          "type": "uint256"
        }
      ],
      "stateMutability": "view",
      "type": "function"
    },
    {
      "inputs": [
        {
          "internalType": "string",
          "name": "_latitude",
          "type": "string"
        },
        {
          "internalType": "string",
          "name": "_longitude",
          "type": "string"
        }
      ],
      "name": "setGPS",
      "outputs": [],
      "stateMutability": "nonpayable",
      "type": "function"
    },
    {
      "inputs": [],
      "name": "totalRentals",
      "outputs": [
        {
          "internalType": "uint256",
          "name": "",
          "type": "uint256"
        }
      ],
      "stateMutability": "view",
      "type": "function"
    },
    {
      "inputs": [
        {
          "internalType": "address",
          "name": "renter",
          "type": "address"
        }
      ],
      "name": "getRentalsByAdresses",
      "outputs": [
        {
          "internalType": "uint256",
          "name": "",
          "type": "uint256"
        }
      ],
      "stateMutability": "view",
      "type": "function"
    },
    {
      "inputs": [
        {
          "internalType": "address",
          "name": "_bikeShareContract",
          "type": "address"
        },
        {
          "internalType": "uint256",
          "name": "_dateMin",
          "type": "uint256"
        },
        {
          "internalType": "uint256",
          "name": "_dateMax",
          "type": "uint256"
        },
        {
          "internalType": "uint256",
          "name": "_rentalTime",
          "type": "uint256"
        }
      ],
      "name": "makeProposal",
      "outputs": [],
      "stateMutability": "nonpayable",
      "type": "function"
    },
    {
      "inputs": [],
      "name": "getProposalsLength",
      "outputs": [
        {
          "internalType": "uint256",
          "name": "",
          "type": "uint256"
        }
      ],
      "stateMutability": "view",
      "type": "function"
    },
    {
      "inputs": [
        {
          "internalType": "address",
          "name": "lender",
          "type": "address"
        }
      ],
      "name": "getRentalsLength",
      "outputs": [
        {
          "internalType": "uint256",
          "name": "",
          "type": "uint256"
        }
      ],
      "stateMutability": "view",
      "type": "function"
    },
    {
      "inputs": [
        {
          "internalType": "address",
          "name": "_bikeShareOwner",
          "type": "address"
        },
        {
          "internalType": "uint256",
          "name": "_rentalPrice",
          "type": "uint256"
        },
        {
          "internalType": "uint256",
          "name": "_depositAmount",
          "type": "uint256"
        },
        {
          "internalType": "uint256",
          "name": "_rentalTime",
          "type": "uint256"
        },
        {
          "internalType": "uint256",
          "name": "_rentalDate",
          "type": "uint256"
        }
      ],
      "name": "rentBike",
      "outputs": [],
      "stateMutability": "nonpayable",
      "type": "function"
    },
    {
      "inputs": [
        {
          "internalType": "address",
          "name": "_bikeShareContract",
          "type": "address"
        }
      ],
      "name": "cancelProposal",
      "outputs": [],
      "stateMutability": "nonpayable",
      "type": "function"
    },
    {
      "inputs": [
        {
          "internalType": "address",
          "name": "_bikeShareOwner",
          "type": "address"
        }
      ],
      "name": "confirmBikeInHands",
      "outputs": [],
      "stateMutability": "nonpayable",
      "type": "function"
    },
    {
      "inputs": [],
      "name": "returnBike",
      "outputs": [],
      "stateMutability": "nonpayable",
      "type": "function"
    },
    {
      "inputs": [
        {
          "internalType": "address",
          "name": "_bikeShareOwner",
          "type": "address"
        }
      ],
      "name": "returnConfirmed",
      "outputs": [],
      "stateMutability": "nonpayable",
      "type": "function"
    },
    {
      "inputs": [
        {
          "internalType": "uint256",
          "name": "_refund",
          "type": "uint256"
        },
        {
          "internalType": "address",
          "name": "_bikeShareOwner",
          "type": "address"
        },
        {
          "internalType": "bool",
          "name": "_isCancelledByLender",
          "type": "bool"
        }
      ],
      "name": "cancelledLending",
      "outputs": [],
      "stateMutability": "nonpayable",
      "type": "function"
    },
    {
      "inputs": [],
      "name": "cancelRenting",
      "outputs": [],
      "stateMutability": "nonpayable",
      "type": "function"
    },
    {
      "inputs": [
        {
          "internalType": "uint256",
          "name": "_amount",
          "type": "uint256"
        }
      ],
      "name": "withdrawFunds",
      "outputs": [],
      "stateMutability": "nonpayable",
      "type": "function"
    },
    {
      "inputs": [],
      "name": "destroy",
      "outputs": [
        {
          "internalType": "bool",
          "name": "",
          "type": "bool"
        }
      ],
      "stateMutability": "nonpayable",
      "type": "function"
    }
  ],
  "bytecode": "0x6080604052600a6005556202a300600655620151806007553480156200002457600080fd5b5060405162004a1e38038062004a1e8339810160408190526200004791620001c6565b85856001600160a01b0382166200005d57600080fd5b6001600160a01b0381166200007157600080fd5b60038054600480546001600160a01b0319166001600160a01b03948516179055600160a01b9383166001600160a81b031990911617929092179091558416620000b957600080fd5b6001600160a01b038316620000cd57600080fd5b336001600160a01b038416146200012a5760405162461bcd60e51b815260206004820152601960248201527f4f6e6c792077686974656c6973742063616e206465706c6f7900000000000000604482015260640160405180910390fd5b6001600160a01b0382166200013e57600080fd5b6001600160a01b0381166200015257600080fd5b600c80546001600160a01b039586166001600160a01b031991821617909155600b8054948616948216949094179093556010805492851692841692909217909155600d805491909316911617905550620002479050565b80516001600160a01b0381168114620001c157600080fd5b919050565b60008060008060008060c08789031215620001e057600080fd5b620001eb87620001a9565b9550620001fb60208801620001a9565b94506200020b60408801620001a9565b93506200021b60608801620001a9565b92506200022b60808801620001a9565b91506200023b60a08801620001a9565b90509295509295509295565b6147c780620002576000396000f3fe608060405234801561001057600080fd5b50600436106101cf5760003560e01c8063834ca8f411610104578063bf0058d0116100a2578063d9536d4c11610071578063d9536d4c14610450578063dd4b22d114610463578063e627f2db1461046c578063f7b2a7be1461047457600080fd5b8063bf0058d014610400578063c520e74a14610413578063c95dee7914610434578063d771642a1461044757600080fd5b8063af0654b7116100de578063af0654b7146103dd578063af8df99d146103e5578063b465c3c01461031e578063bc378a73146103f857600080fd5b8063834ca8f4146103a45780638da5cb5b146103b75780638f036072146103ca57600080fd5b80633e146417116101715780637486f8a01161014b5780637486f8a014610363578063778f520b146103765780638046c8ac1461038957806383197ef01461039c57600080fd5b80633e1464171461031e57806360a6673c146103475780636dcf811d1461034f57600080fd5b806328ab10fc116101ad57806328ab10fc146102715780632c678ca51461029c5780632e10a6c6146102f4578063301099621461030757600080fd5b8063090fc58b146101d45780631401c5f914610238578063155dd5ee1461025c575b600080fd5b6101e76101e2366004613eb5565b61047d565b60408051998a5260208a01989098529688019590955260608701939093526080860191909152151560a0850152151560c0840152151560e08301521515610100820152610120015b60405180910390f35b600d5461024c90600160a01b900460ff1681565b604051901515815260200161022f565b61026f61026a366004613ee1565b6104f0565b005b601454610284906001600160a01b031681565b6040516001600160a01b03909116815260200161022f565b6102af6102aa366004613ee1565b61066b565b604080519889526001600160a01b039097166020890152958701949094526060860192909252608085015260a084015260c0830152151560e08201526101000161022f565b61026f610302366004613efa565b6106ce565b61031060065481565b60405190815260200161022f565b61031061032c366004613efa565b6001600160a01b031660009081526013602052604090205490565b61026f610ac4565b60035461024c90600160a01b900460ff1681565b61026f610371366004613f1e565b610db9565b61026f610384366004613f70565b61179c565b61026f610397366004613ee1565b611a4d565b61024c611c50565b61026f6103b2366004613efa565b611f41565b600354610284906001600160a01b031681565b600454610284906001600160a01b031681565b61026f612420565b61026f6103f3366004613efa565b612535565b601254610310565b61026f61040e366004613ffb565b612712565b610426610421366004613efa565b61283a565b60405161022f9291906140b7565b61026f610442366004613ffb565b612966565b61031060075481565b61026f61045e3660046140e5565b612a8c565b61031060005481565b610310613464565b61031060055481565b6013602052816000526040600020818154811061049957600080fd5b600091825260209091206006909102018054600182015460028301546003840154600485015460059095015493965091945092909160ff808216916101008104821691620100008204811691630100000090041689565b600354600160a01b900460ff16156105235760405162461bcd60e51b815260040161051a90614120565b60405180910390fd5b6003546001600160a01b0316331461054d5760405162461bcd60e51b815260040161051a9061414e565b600081116105855760405162461bcd60e51b815260206004820152600560248201526404e6f7420360dc1b604482015260640161051a565b600480546040516370a0823160e01b8152309281019290925282916001600160a01b03909116906370a0823190602401602060405180830381865afa1580156105d2573d6000803e3d6000fd5b505050506040513d601f19601f820116820180604052508101906105f69190614172565b10156106145760405162461bcd60e51b815260040161051a9061418b565b60045461062b906001600160a01b031633836134c2565b60408051828152426020820152309133917fb933d9f5921d73b25377b9ffc45ea2914238b8379c2098a3178e766cb8f326d491015b60405180910390a350565b6012818154811061067b57600080fd5b6000918252602090912060089091020180546001820154600283015460038401546004850154600586015460068701546007909701549597506001600160a01b0390941695929491939092909160ff1688565b600354600160a01b900460ff16156106f85760405162461bcd60e51b815260040161051a90614120565b600c546040516370a0823160e01b81526001600160a01b03808416600483015283926000929116906370a0823190602401602060405180830381865afa158015610746573d6000803e3d6000fd5b505050506040513d601f19601f8201168201806040525081019061076a9190614172565b116107875760405162461bcd60e51b815260040161051a906141b5565b600d54601180546001600160a01b0319166001600160a01b0392831690811790915560405162d9267b60e31b81529183166004830152906306c933d890602401606060405180830381865afa1580156107e4573d6000803e3d6000fd5b505050506040513d601f19601f8201168201806040525081019061080891906141eb565b516108255760405162461bcd60e51b815260040161051a90614256565b60115460405162d9267b60e31b81526001600160a01b038381166004830152339216906306c933d890602401606060405180830381865afa15801561086e573d6000803e3d6000fd5b505050506040513d601f19601f8201168201806040525081019061089291906141eb565b602001516001600160a01b0316146108bc5760405162461bcd60e51b815260040161051a90614256565b600d54600160a01b900460ff166108e55760405162461bcd60e51b815260040161051a9061427f565b6014546001600160a01b031661090d5760405162461bcd60e51b815260040161051a906142a3565b3060009081526009602052604081208054610927906142c6565b90501180156109525750306000908152600960205260408120600101805461094e906142c6565b9050115b61096e5760405162461bcd60e51b815260040161051a90614300565b6014546001600160a01b031633146109b65760405162461bcd60e51b815260206004820152600b60248201526a27b7363c903632b73232b960a91b604482015260640161051a565b6014546001600160a01b0316600090815260136020526040812080546109de9060019061433b565b815481106109ee576109ee614354565b6000918252602090912060069091020160058101549091506301000000900460ff1615610a4d5760405162461bcd60e51b815260206004820152600d60248201526c20b63932b0b23c903a30b5b2b760991b604482015260640161051a565b60058101805463ff000000191663010000001790556014543060008181526009602052604090819020905191926001600160a01b0316917f58441e06988866f5582b245c6d5073b65d386d56d2d7f2ee714ae642aba451bf91610ab79142919060018201906143e7565b60405180910390a3505050565b600354600160a01b900460ff1615610aee5760405162461bcd60e51b815260040161051a90614120565b600d54600160a01b900460ff16610b175760405162461bcd60e51b815260040161051a9061427f565b6014546001600160a01b0316610b3f5760405162461bcd60e51b815260040161051a906142a3565b3060009081526009602052604081208054610b59906142c6565b9050118015610b8457503060009081526009602052604081206001018054610b80906142c6565b9050115b610ba05760405162461bcd60e51b815260040161051a90614300565b6003546001600160a01b03163314610bca5760405162461bcd60e51b815260040161051a9061414e565b6014546001600160a01b031660009081526013602052604081208054610bf29060019061433b565b81548110610c0257610c02614354565b906000526020600020906006020190508060050160039054906101000a900460ff1615156001151514610c635760405162461bcd60e51b81526020600482015260096024820152682737ba103a30b5b2b760b91b604482015260640161051a565b600581015462010000900460ff1615610cb75760405162461bcd60e51b8152602060048201526016602482015275105b1c9958591e481cd9595b5cc81c995d1d5c9b995960521b604482015260640161051a565b600581015460ff1615610cdc5760405162461bcd60e51b815260040161051a9061441c565b601454600a80546001600160a01b0319166001600160a01b039283169081179091556003546040516370cf9d7760e11b8152921660048301529063e19f3aee90602401600060405180830381600087803b158015610d3957600080fd5b505af1158015610d4d573d6000803e3d6000fd5b50505060058201805462ff0000191662010000179055506014543060008181526009602052604090819020905191926001600160a01b0316917f0cd92eec05e4f2840efd243f3a73e91e5f9af26e52ab39532ce64b1b9fe91001916106609142919060018201906143e7565b600354600160a01b900460ff1615610de35760405162461bcd60e51b815260040161051a90614120565b600c546040516370a0823160e01b81526001600160a01b03808816600483015287926000929116906370a0823190602401602060405180830381865afa158015610e31573d6000803e3d6000fd5b505050506040513d601f19601f82011682018060405250810190610e559190614172565b11610e725760405162461bcd60e51b815260040161051a906141b5565b600d54601180546001600160a01b0319166001600160a01b0392831690811790915560405162d9267b60e31b81529183166004830152906306c933d890602401606060405180830381865afa158015610ecf573d6000803e3d6000fd5b505050506040513d601f19601f82011682018060405250810190610ef391906141eb565b51610f105760405162461bcd60e51b815260040161051a90614256565b60115460405162d9267b60e31b81526001600160a01b038381166004830152339216906306c933d890602401606060405180830381865afa158015610f59573d6000803e3d6000fd5b505050506040513d601f19601f82011682018060405250810190610f7d91906141eb565b602001516001600160a01b031614610fa75760405162461bcd60e51b815260040161051a90614256565b336000908152600f6020819052604090912080546201518090610fca904261433b565b10610fda57600060018201554281555b600281600101541061101e5760405162461bcd60e51b815260206004820152600d60248201526c131a5b5a5d081c995858da1959609a1b604482015260640161051a565b60018101805490600061103083614446565b9091555050600d54600160a01b900460ff16156110815760405162461bcd60e51b815260206004820152600f60248201526e416c72656164792072656e74696e6760881b604482015260640161051a565b6014546001600160a01b0316156110c85760405162461bcd60e51b815260206004820152600b60248201526a4e6f742072656e74696e6760a81b604482015260640161051a565b336110d257600080fd5b30600090815260096020526040812080546110ec906142c6565b905011801561111757503060009081526009602052604081206001018054611113906142c6565b9050115b6111335760405162461bcd60e51b815260040161051a90614300565b600061113f878961445f565b600480546040516370a0823160e01b8152309281019290925291925082916001600160a01b0316906370a0823190602401602060405180830381865afa15801561118d573d6000803e3d6000fd5b505050506040513d601f19601f820116820180604052508101906111b19190614172565b10156111cf5760405162461bcd60e51b815260040161051a9061418b565b60008080885b60125483101561160e57336001600160a01b0316601284815481106111fc576111fc614354565b60009182526020909120600160089092020101546001600160a01b0316036115fc5760006012848154811061123357611233614354565b600091825260209182902060408051610100810182526008909302909101805480845260018201546001600160a01b0316948401949094526002810154918301919091526003810154606083015260048101546080830152600581015460a083015260068082015460c084015260079091015460ff16151560e083015254909250906112bf904261433b565b11156113005760405162461bcd60e51b815260206004820152601060248201526f141c9bdc1bdcd85b08195e1c1a5c995960821b604482015260640161051a565b60e0810151156113455760405162461bcd60e51b815260206004820152601060248201526f105b1c9958591e481858d8d95c1d195960821b604482015260640161051a565b6127106005548e6113569190614472565b611361906064614472565b101561136c57600080fd5b60008d90508160600151935060006127106005548361138b9190614472565b611396906064614472565b6113a0919061449f565b905060018360e00190151590811515815250506001600d60146101000a81548160ff02191690831515021790555060008c905060008f905060008a905060136000336001600160a01b03166001600160a01b03168152602001908152602001600020604051806101200160405280858152602001898152602001878152602001848152602001868152602001600015158152602001600015158152602001600015158152602001600015158152509080600181540180825580915050600190039060005260206000209060060201600090919091909150600082015181600001556020820151816001015560408201518160020155606082015181600301556080820151816004015560a08201518160050160006101000a81548160ff02191690831515021790555060c08201518160050160016101000a81548160ff02191690831515021790555060e08201518160050160026101000a81548160ff0219169083151502179055506101008201518160050160036101000a81548160ff021916908315150217905550505033601460006101000a8154816001600160a01b0302191690836001600160a01b0316021790555060008081548092919061156590614446565b9091555050600454611581906001600160a01b0316338d6134c2565b601454608087810151604080518781526020810192909252810188905260608101859052908101839052600060a08201526001600160a01b039091169033907f087203a8efe3f1cbaf620bc456ac2e3ce7b11303af6d2187b376cccbb769b25c9060c00160405180910390a36001995050505050505061160e565b8261160681614446565b9350506111d5565b8361164f5760405162461bcd60e51b8152602060048201526011602482015270139bc81c1c9bdc1bdcd85b08199bdd5b99607a1b604482015260640161051a565b60125483101561172157601454601280546001600160a01b03909216918590811061167c5761167c614354565b60009182526020909120600160089092020101546001600160a01b03160361170f57601283815481106116b1576116b1614354565b600091825260209091206007600890920201015460ff16156117005760405162461bcd60e51b81526020600482015260086024820152671858d8d95c1d195960c21b604482015260640161051a565b61170983613525565b50611721565b8261171981614446565b93505061164f565b60005b60125481101561178c5783811415801561176a5750611743828461445f565b6012828154811061175657611756614354565b906000526020600020906008020160000154105b1561177a5761177881613525565b505b8061178481614446565b915050611724565b5050505050505050505050505050565b600354600160a01b900460ff16156117c65760405162461bcd60e51b815260040161051a90614120565b600c546040516370a0823160e01b81526001600160a01b03808516600483015284926000929116906370a0823190602401602060405180830381865afa158015611814573d6000803e3d6000fd5b505050506040513d601f19601f820116820180604052508101906118389190614172565b116118555760405162461bcd60e51b815260040161051a906141b5565b600d54601180546001600160a01b0319166001600160a01b0392831690811790915560405162d9267b60e31b81529183166004830152906306c933d890602401606060405180830381865afa1580156118b2573d6000803e3d6000fd5b505050506040513d601f19601f820116820180604052508101906118d691906141eb565b516118f35760405162461bcd60e51b815260040161051a90614256565b60115460405162d9267b60e31b81526001600160a01b038381166004830152339216906306c933d890602401606060405180830381865afa15801561193c573d6000803e3d6000fd5b505050506040513d601f19601f8201168201806040525081019061196091906141eb565b602001516001600160a01b03161461198a5760405162461bcd60e51b815260040161051a90614256565b600d54600160a01b900460ff166119b35760405162461bcd60e51b815260040161051a9061427f565b6014546001600160a01b03166119db5760405162461bcd60e51b815260040161051a906142a3565b30600090815260096020526040812080546119f5906142c6565b9050118015611a2057503060009081526009602052604081206001018054611a1c906142c6565b9050115b611a3c5760405162461bcd60e51b815260040161051a90614300565b611a47848484613710565b50505050565b600354600160a01b900460ff1615611a775760405162461bcd60e51b815260040161051a90614120565b60048054604051636eb1769f60e11b81523392810192909252306024830152829182916001600160a01b03169063dd62ed3e90604401602060405180830381865afa158015611aca573d6000803e3d6000fd5b505050506040513d601f19601f82011682018060405250810190611aee9190614172565b1015611b2c5760405162461bcd60e51b815260206004820152600d60248201526c1399595908185c1c1c9bdd985b609a1b604482015260640161051a565b60008211611b695760405162461bcd60e51b815260206004820152600a60248201526910985908185b5bdd5b9d60b21b604482015260640161051a565b600480546040516370a0823160e01b8152339281019290925283916001600160a01b03909116906370a0823190602401602060405180830381865afa158015611bb6573d6000803e3d6000fd5b505050506040513d601f19601f82011682018060405250810190611bda9190614172565b1015611bf85760405162461bcd60e51b815260040161051a9061418b565b600454611c10906001600160a01b0316333085613997565b60408051838152426020820152309133917f224b1db9c133c01e120ca7551e3b56fec93a1f208e1c0509c23361a560a61026910160405180910390a35050565b600b546000906001600160a01b03163314611ca65760405162461bcd60e51b815260206004820152601660248201527513db9b1e481dda1a5d195b1a5cdd10dbdb9d1c9858dd60521b604482015260640161051a565b600d54600160a01b900460ff168015611cc957506014546001600160a01b031615155b15611de0576014546001600160a01b031660009081526013602052604081208054611cf69060019061433b565b81548110611d0657611d06614354565b6000918252602091829020604080516101208101825260069093029091018054808452600182015494840185905260028201549284019290925260038101546060840152600481015460808401526005015460ff808216151560a08501526101008083048216151560c08601526201000083048216151560e0860152630100000090920416151590830152909250611d9e919061445f565b4211611dde5760405162461bcd60e51b815260206004820152600f60248201526e2932b73a30b6102737ba1037bb32b960891b604482015260640161051a565b505b6003805460ff60a01b1916600160a01b1790556008805460ff19166001179055600480546040516370a0823160e01b815230928101929092526000916001600160a01b03909116906370a0823190602401602060405180830381865afa158015611e4e573d6000803e3d6000fd5b505050506040513d601f19601f82011682018060405250810190611e729190614172565b1115611f0457600354600480546040516370a0823160e01b81523092810192909252611f04926001600160a01b03908116929116906370a0823190602401602060405180830381865afa158015611ecd573d6000803e3d6000fd5b505050506040513d601f19601f82011682018060405250810190611ef19190614172565b6004546001600160a01b031691906134c2565b604051428152309033907f05bec130a67bc2853b0a7f5cfe8590b473fcc3342360d8933fb7064b1ebf8b6d9060200160405180910390a350600190565b600354600160a01b900460ff1615611f6b5760405162461bcd60e51b815260040161051a90614120565b600c546040516370a0823160e01b81526001600160a01b03808416600483015283926000929116906370a0823190602401602060405180830381865afa158015611fb9573d6000803e3d6000fd5b505050506040513d601f19601f82011682018060405250810190611fdd9190614172565b11611ffa5760405162461bcd60e51b815260040161051a906141b5565b600d54601180546001600160a01b0319166001600160a01b0392831690811790915560405162d9267b60e31b81529183166004830152906306c933d890602401606060405180830381865afa158015612057573d6000803e3d6000fd5b505050506040513d601f19601f8201168201806040525081019061207b91906141eb565b516120985760405162461bcd60e51b815260040161051a90614256565b60115460405162d9267b60e31b81526001600160a01b038381166004830152339216906306c933d890602401606060405180830381865afa1580156120e1573d6000803e3d6000fd5b505050506040513d601f19601f8201168201806040525081019061210591906141eb565b602001516001600160a01b03161461212f5760405162461bcd60e51b815260040161051a90614256565b600d54600160a01b900460ff166121585760405162461bcd60e51b815260040161051a9061427f565b6014546001600160a01b03166121805760405162461bcd60e51b815260040161051a906142a3565b306000908152600960205260408120805461219a906142c6565b90501180156121c5575030600090815260096020526040812060010180546121c1906142c6565b9050115b6121e15760405162461bcd60e51b815260040161051a90614300565b6014546001600160a01b031633146122315760405162461bcd60e51b815260206004820152601360248201527227b7363c9031bab93932b73a103632b73232b960691b604482015260640161051a565b336000908152601360205260408120805461224e9060019061433b565b8154811061225e5761225e614354565b906000526020600020906006020190508060050160029054906101000a900460ff16151560011515146122c85760405162461bcd60e51b815260206004820152601260248201527114d9595b5cc8139bdd081c995d1d5c9b995960721b604482015260640161051a565b600581015460ff16156122ed5760405162461bcd60e51b815260040161051a9061441c565b60058101805460ff1916600117905560048082015460105460405163255d23d760e11b815230938101939093526024830182905290916001600160a01b0390911690634aba47ae90604401600060405180830381600087803b15801561235257600080fd5b505af1158015612366573d6000803e3d6000fd5b5050336000908152600160205260408120805485945090925061238a90849061445f565b9250508190555080600260008282546123a3919061445f565b9091555050600d805460ff60a01b19169055601480546001600160a01b0319169055815430600081815260096020526040908190209051919233927fe37fd6880e9c45f86a337efb15d4a7f39b28518286c32b05f9eeac6b550adcd692612412929142919060018201906144b3565b60405180910390a350505050565b600354600160a01b900460ff161561244a5760405162461bcd60e51b815260040161051a90614120565b6003546001600160a01b031633146124745760405162461bcd60e51b815260040161051a9061414e565b600d54600160a01b900460ff1661249d5760405162461bcd60e51b815260040161051a9061427f565b6014546001600160a01b03166124c55760405162461bcd60e51b815260040161051a906142a3565b30600090815260096020526040812080546124df906142c6565b905011801561250a57503060009081526009602052604081206001018054612506906142c6565b9050115b6125265760405162461bcd60e51b815260040161051a90614300565b6125336000806000613710565b565b600354600160a01b900460ff161561255f5760405162461bcd60e51b815260040161051a90614120565b6003546001600160a01b031633146125895760405162461bcd60e51b815260040161051a9061414e565b6001600160a01b038116158015906125af57506003546001600160a01b03828116911614155b80156125c457506001600160a01b0381163014155b6126025760405162461bcd60e51b815260206004820152600f60248201526e496e76616c6964206164647265737360881b604482015260640161051a565b6012546126405760405162461bcd60e51b815260206004820152600c60248201526b4e6f2070726f706f73616c7360a01b604482015260640161051a565b60005b60125481101561270e57816001600160a01b03166012828154811061266a5761266a614354565b60009182526020909120600160089092020101546001600160a01b0316036126fc576012818154811061269f5761269f614354565b600091825260209091206007600890920201015460ff16156126ee5760405162461bcd60e51b81526020600482015260086024820152671858d8d95c1d195960c21b604482015260640161051a565b6126f781613525565b505050565b8061270681614446565b915050612643565b5050565b6003546001600160a01b0316331461273c5760405162461bcd60e51b815260040161051a9061414e565b600354600160a01b900460ff168015612758575060085460ff16155b61279d5760405162461bcd60e51b81526020600482015260166024820152751058dd1a5d985d1959081bdc8819195cdd1c9bde595960521b604482015260640161051a565b82158015906127ab57508015155b6127ed5760405162461bcd60e51b81526020600482015260136024820152724750532063616e6e6f7420626520656d70747960681b604482015260640161051a565b6127f984848484612966565b6003805460ff60a01b19169055604051428152309033907f975a71b6f0e7c3037baf066252bb3dde490161b5536420b1954b32b39316f7b790602001612412565b600960205260009081526040902080548190612855906142c6565b80601f0160208091040260200160405190810160405280929190818152602001828054612881906142c6565b80156128ce5780601f106128a3576101008083540402835291602001916128ce565b820191906000526020600020905b8154815290600101906020018083116128b157829003601f168201915b5050505050908060010180546128e3906142c6565b80601f016020809104026020016040519081016040528092919081815260200182805461290f906142c6565b801561295c5780601f106129315761010080835404028352916020019161295c565b820191906000526020600020905b81548152906001019060200180831161293f57829003601f168201915b5050505050905082565b6003546001600160a01b031633146129905760405162461bcd60e51b815260040161051a9061414e565b60085460ff16156129cf5760405162461bcd60e51b815260206004820152600960248201526811195cdd1c9bde595960ba1b604482015260640161051a565b82158015906129dd57508015155b612a155760405162461bcd60e51b815260206004820152600960248201526847505320656d70747960b81b604482015260640161051a565b30600090815260096020526040902080612a30858783614532565b5060018101612a40838583614532565b50604051309033907f6cad0fcdfd6b730f10e1bef22b48067bd4880a9e9bec47880bceb85733be339690612a7d9042908a908a908a908a9061461c565b60405180910390a35050505050565b600354600160a01b900460ff1615612ab65760405162461bcd60e51b815260040161051a90614120565b6003546001600160a01b03163314612ae05760405162461bcd60e51b815260040161051a9061414e565b336000908152600e6020819052604090912080546201518090612b03904261433b565b10612b1357600060018201554281555b6002816001015410612b575760405162461bcd60e51b815260206004820152600d60248201526c131a5b5a5d081c995858da1959609a1b604482015260640161051a565b600181018054906000612b6983614446565b90915550506001600160a01b03861615801590612b9457506003546001600160a01b03878116911614155b8015612ba957506001600160a01b0386163014155b612be75760405162461bcd60e51b815260206004820152600f60248201526e496e76616c6964206164647265737360881b604482015260640161051a565b612bef6139cf565b612bf857600080fd5b60005b601254811015612c9657866001600160a01b031660128281548110612c2257612c22614354565b60009182526020909120600160089092020101546001600160a01b031603612c845760405162461bcd60e51b815260206004820152601560248201527450726f706f73616c20616c7265616479206d61646560581b604482015260640161051a565b80612c8e81614446565b915050612bfb565b50600083118015612ca75750600085115b8015612cb35750600084115b612cf05760405162461bcd60e51b815260206004820152600e60248201526d151a5b59481d1bdbc81cda1bdc9d60921b604482015260640161051a565b612cfc4261271061445f565b8511612d3a5760405162461bcd60e51b815260206004820152600d60248201526c2230ba32903a37b79039b7b7b760991b604482015260640161051a565b600754831015612d7d5760405162461bcd60e51b815260206004820152600e60248201526d151a5b59481d1bdbc81cda1bdc9d60921b604482015260640161051a565b612a30612d8a868661433b565b1015612dc45760405162461bcd60e51b8152602060048201526009602482015268151bdbc81cda1bdc9d60ba1b604482015260640161051a565b61a8c0612dd1868661433b565b1115612e0a5760405162461bcd60e51b8152602060048201526008602482015267546f6f206c6f6e6760c01b604482015260640161051a565b601254600311612e4f5760405162461bcd60e51b815260206004820152601060248201526f4f6e6c7920332070726f706f73616c7360801b604482015260640161051a565b3060009081526009602052604081208054612e69906142c6565b9050118015612e9457503060009081526009602052604081206001018054612e90906142c6565b9050115b612eb05760405162461bcd60e51b815260040161051a90614300565b600a80546001600160a01b0319166001600160a01b0388169081179091556040805163bc378a7360e01b815290516005929163bc378a739160048083019260209291908290030181865afa158015612f0c573d6000803e3d6000fd5b505050506040513d601f19601f82011682018060405250810190612f309190614172565b10612f705760405162461bcd60e51b815260206004820152601060248201526f4f6e6c7920352070726f706f73616c7360801b604482015260640161051a565b600a60009054906101000a90046001600160a01b03166001600160a01b031663b8f58f726040518163ffffffff1660e01b8152600401602060405180830381865afa158015612fc3573d6000803e3d6000fd5b505050506040513d601f19601f82011682018060405250810190612fe79190614172565b8311156130265760405162461bcd60e51b815260206004820152600d60248201526c54696d6520746f6f206c6f6e6760981b604482015260640161051a565b600a5460408051631627391760e11b815290516000926001600160a01b031691632c4e722e9160048083019260209291908290030181865afa158015613070573d6000803e3d6000fd5b505050506040513d601f19601f820116820180604052508101906130949190614172565b90506000600a60009054906101000a90046001600160a01b03166001600160a01b031663419759f56040518163ffffffff1660e01b8152600401602060405180830381865afa1580156130eb573d6000803e3d6000fd5b505050506040513d601f19601f8201168201806040525081019061310f9190614172565b905061311e6201518086614655565b156131635760405162461bcd60e51b81526020600482015260156024820152744e6f74206d756c7469706c65206f6620312064617960581b604482015260640161051a565b613170620151808661449f565b61317a9083614472565b613184908261445f565b600480546040516370a0823160e01b815230928101929092526001600160a01b0316906370a0823190602401602060405180830381865afa1580156131cd573d6000803e3d6000fd5b505050506040513d601f19601f820116820180604052508101906131f19190614172565b10156132305760405162461bcd60e51b815260206004820152600e60248201526d2737ba1032b737bab3b4102b992960911b604482015260640161051a565b600a5460035430600090815260096020526040908190209051633a92dc9160e11b81526001600160a01b0393841693637525b92293613285939116918c918c918c918a918a9142916001820190600401614669565b600060405180830381600087803b15801561329f57600080fd5b505af11580156132b3573d6000803e3d6000fd5b5050505060126040518061010001604052804281526020018a6001600160a01b031681526020018981526020018881526020018781526020018481526020018381526020016000151581525090806001815401808255809150506001900390600052602060002090600802016000909190919091506000820151816000015560208201518160010160006101000a8154816001600160a01b0302191690836001600160a01b0316021790555060408201518160020155606082015181600301556080820151816004015560a0820151816005015560c0820151816006015560e08201518160070160006101000a81548160ff0219169083151502179055505050876001600160a01b0316306001600160a01b03167fa43440595d7811afa24adc4304a5e6a508929db4628903410c266549444b5b8d428a8a8a888860096000306001600160a01b03166001600160a01b0316815260200190815260200160002060000160096000306001600160a01b03166001600160a01b031681526020019081526020016000206001016040516134529897969594939291906146d4565b60405180910390a35050505050505050565b600354600090600160a01b900460ff16156134915760405162461bcd60e51b815260040161051a90614120565b6003546001600160a01b031633146134bb5760405162461bcd60e51b815260040161051a9061414e565b5060025490565b6040516001600160a01b0383166024820152604481018290526126f790849063a9059cbb60e01b906064015b60408051601f198184030181529190526020810180516001600160e01b03166001600160e01b031990931692909217909152613c3b565b6000806012838154811061353b5761353b614354565b60009182526020822060016008909202010154601280546001600160a01b039092169350908590811061357057613570614354565b906000526020600020906008020160000154905060126001601280549050613598919061433b565b815481106135a8576135a8614354565b9060005260206000209060080201601285815481106135c9576135c9614354565b60009182526020909120825460089092020190815560018083015490820180546001600160a01b0319166001600160a01b0390921691909117905560028083015490820155600380830154908201556004808301549082015560058083015490820155600680830154908201556007918201549101805460ff909216151560ff1990921691909117905560128054806136645761366461472f565b6000828152602081206008600019909301928302018181556001810180546001600160a01b0319169055600281018290556003810182905560048101829055600581018290556006810191909155600701805460ff1916905590556040516001600160a01b0383169030907f1a07a16d411b1999de40db18a15f956f20021655f5dc8cf7685cdb7c9447710f906136fe9085815260200190565b60405180910390a35060019392505050565b6014546001600160a01b0316600090815260136020526040812080546137389060019061433b565b8154811061374857613748614354565b6000918252602090912060069091020160058101549091506301000000900460ff16156137a75760405162461bcd60e51b815260206004820152600d60248201526c10d85b9b9bdd0818d85b98d95b609a1b604482015260640161051a565b600581015460ff16156137cc5760405162461bcd60e51b815260040161051a9061441c565b83600003613836576000816002015482600301546137ea919061445f565b82549091506137fc90611c209061433b565b4210156138095780613832565b61271082600201546103e861381e9190614472565b613828919061449f565b613832908261433b565b9450505b6001600160a01b0383161561389a576014546001600160a01b031633146138955760405162461bcd60e51b815260206004820152601360248201527227b7363c9031bab93932b73a103632b73232b960691b604482015260640161051a565b61391a565b81151560000361391a57601454600a80546001600160a01b0319166001600160a01b03928316908117909155600354604051630c6986b360e01b81529216600483015290630c6986b390602401600060405180830381600087803b15801561390157600080fd5b505af1158015613915573d6000803e3d6000fd5b505050505b60058101805460ff19166001179055600d805460ff60a01b19169055601480546001600160a01b031981169091558154604080519182526020820187905242908201526001600160a01b0390911690309082907fc24589c44dcd993689e1ebe33a62cf11f093640e6a7ffe971f50703b5a440e4890606001612a7d565b6040516001600160a01b0380851660248301528316604482015260648101829052611a479085906323b872dd60e01b906084016134ee565b6000805b601254811015613c3357600654601282815481106139f3576139f3614354565b90600052602060002090600802016000015442613a10919061433b565b1115613c2157805b601254613a279060019061433b565b811015613c1b57600060128281548110613a4357613a43614354565b60009182526020822060016008909202010154601280546001600160a01b0390921693509084908110613a7857613a78614354565b600091825260209091206008909102015490506012613a9884600161445f565b81548110613aa857613aa8614354565b906000526020600020906008020160128481548110613ac957613ac9614354565b60009182526020909120825460089092020190815560018083015490820180546001600160a01b0319166001600160a01b0390921691909117905560028083015490820155600380830154908201556004808301549082015560058083015490820155600680830154908201556007918201549101805460ff909216151560ff199092169190911790556012805480613b6457613b6461472f565b6000828152602081206008600019909301928302018181556001810180546001600160a01b0319169055600281018290556003810182905560048101829055600581018290556006810191909155600701805460ff1916905590556040516001600160a01b0383169030907f1a07a16d411b1999de40db18a15f956f20021655f5dc8cf7685cdb7c9447710f90613bfe9085815260200190565b60405180910390a350508080613c1390614446565b915050613a18565b506139d3565b80613c2b81614446565b9150506139d3565b600191505090565b6000613c90826040518060400160405280602081526020017f5361666545524332303a206c6f772d6c6576656c2063616c6c206661696c6564815250856001600160a01b0316613d0d9092919063ffffffff16565b8051909150156126f75780806020019051810190613cae9190614745565b6126f75760405162461bcd60e51b815260206004820152602a60248201527f5361666545524332303a204552433230206f7065726174696f6e20646964206e6044820152691bdd081cdd58d8d9595960b21b606482015260840161051a565b6060613d1c8484600085613d24565b949350505050565b606082471015613d855760405162461bcd60e51b815260206004820152602660248201527f416464726573733a20696e73756666696369656e742062616c616e636520666f6044820152651c8818d85b1b60d21b606482015260840161051a565b600080866001600160a01b03168587604051613da19190614762565b60006040518083038185875af1925050503d8060008114613dde576040519150601f19603f3d011682016040523d82523d6000602084013e613de3565b606091505b5091509150613df487838387613dff565b979650505050505050565b60608315613e6e578251600003613e67576001600160a01b0385163b613e675760405162461bcd60e51b815260206004820152601d60248201527f416464726573733a2063616c6c20746f206e6f6e2d636f6e7472616374000000604482015260640161051a565b5081613d1c565b613d1c8383815115613e835781518083602001fd5b8060405162461bcd60e51b815260040161051a919061477e565b6001600160a01b0381168114613eb257600080fd5b50565b60008060408385031215613ec857600080fd5b8235613ed381613e9d565b946020939093013593505050565b600060208284031215613ef357600080fd5b5035919050565b600060208284031215613f0c57600080fd5b8135613f1781613e9d565b9392505050565b600080600080600060a08688031215613f3657600080fd5b8535613f4181613e9d565b97602087013597506040870135966060810135965060800135945092505050565b8015158114613eb257600080fd5b600080600060608486031215613f8557600080fd5b833592506020840135613f9781613e9d565b91506040840135613fa781613f62565b809150509250925092565b60008083601f840112613fc457600080fd5b50813567ffffffffffffffff811115613fdc57600080fd5b602083019150836020828501011115613ff457600080fd5b9250929050565b6000806000806040858703121561401157600080fd5b843567ffffffffffffffff8082111561402957600080fd5b61403588838901613fb2565b9096509450602087013591508082111561404e57600080fd5b5061405b87828801613fb2565b95989497509550505050565b60005b8381101561408257818101518382015260200161406a565b50506000910152565b600081518084526140a3816020860160208601614067565b601f01601f19169290920160200192915050565b6040815260006140ca604083018561408b565b82810360208401526140dc818561408b565b95945050505050565b600080600080608085870312156140fb57600080fd5b843561410681613e9d565b966020860135965060408601359560600135945092505050565b60208082526014908201527310dbdb9d1c9858dd0819195858dd1a5d985d195960621b604082015260600190565b6020808252600a908201526937b7363c9037bbb732b960b11b604082015260600190565b60006020828403121561418457600080fd5b5051919050565b60208082526010908201526f24b739bab33334b1b4b2b73a102b992960811b604082015260600190565b602080825260069082015265139bc813919560d21b604082015260600190565b634e487b7160e01b600052604160045260246000fd5b6000606082840312156141fd57600080fd5b6040516060810181811067ffffffffffffffff82111715614220576142206141d5565b604052825161422e81613f62565b8152602083015161423e81613e9d565b60208201526040928301519281019290925250919050565b6020808252600f908201526e139bdd081dda1a5d195b1a5cdd1959608a1b604082015260600190565b6020808252600a9082015269139bdd081c995b9d195960b21b604082015260600190565b6020808252600990820152682737903632b73232b960b91b604082015260600190565b600181811c908216806142da57607f821691505b6020821081036142fa57634e487b7160e01b600052602260045260246000fd5b50919050565b6020808252600b908201526a11d414c81b9bdd081cd95d60aa1b604082015260600190565b634e487b7160e01b600052601160045260246000fd5b8181038181111561434e5761434e614325565b92915050565b634e487b7160e01b600052603260045260246000fd5b60008154614377816142c6565b80855260206001838116801561439457600181146143ae576143dc565b60ff1985168884015283151560051b8801830195506143dc565b866000528260002060005b858110156143d45781548a82018601529083019084016143b9565b890184019650505b505050505092915050565b838152606060208201526000614400606083018561436a565b8281036040840152614412818561436a565b9695505050505050565b60208082526010908201526f105b1c9958591e481c995d1d5c9b995960821b604082015260600190565b60006001820161445857614458614325565b5060010190565b8082018082111561434e5761434e614325565b808202811582820484141761434e5761434e614325565b634e487b7160e01b600052601260045260246000fd5b6000826144ae576144ae614489565b500490565b8481528360208201526080604082015260006144d2608083018561436a565b8281036060840152613df4818561436a565b601f8211156126f757600081815260208120601f850160051c8101602086101561450b5750805b601f850160051c820191505b8181101561452a57828155600101614517565b505050505050565b67ffffffffffffffff83111561454a5761454a6141d5565b61455e8361455883546142c6565b836144e4565b6000601f841160018114614592576000851561457a5750838201355b600019600387901b1c1916600186901b1783556145ec565b600083815260209020601f19861690835b828110156145c357868501358255602094850194600190920191016145a3565b50868210156145e05760001960f88860031b161c19848701351681555b505060018560011b0183555b5050505050565b81835281816020850137506000828201602090810191909152601f909101601f19169091010190565b8581526060602082015260006146366060830186886145f3565b82810360408401526146498185876145f3565b98975050505050505050565b60008261466457614664614489565b500690565b600061012060018060a01b038c1683528a60208401528960408401528860608401528760808401528660a08401528560c08401528060e08401526146af8184018661436a565b90508281036101008401526146c4818561436a565b9c9b505050505050505050505050565b60006101008a83528960208401528860408401528760608401528660808401528560a08401528060c084015261470c8184018661436a565b905082810360e0840152614720818561436a565b9b9a5050505050505050505050565b634e487b7160e01b600052603160045260246000fd5b60006020828403121561475757600080fd5b8151613f1781613f62565b60008251614774818460208701614067565b9190910192915050565b602081526000613f17602083018461408b56fea2646970667358221220bc79652929d14cb19ba819e3942426fa8d25657ba69e7852986ea33dca324fe164736f6c63430008120033",
  "immutableReferences": {},
  "source": "// SPDX-License-Identifier: MIT\npragma solidity ^0.8.17;\n\n//import \"@openzeppelin/contracts/interfaces/IERC721.sol\";\nimport \"../node_modules/@openzeppelin/contracts/token/ERC721/IERC721.sol\";\nimport \"./Utilities.sol\";\n\ninterface I4VaultW2R {\n    function distributeW2R(address receiver, uint256 amount) external;\n}\n\ninterface IlenderWhitelist {\n    struct Lender {\n        bool isWhitelisted;\n        address bikeShareContract;\n        uint NFTId;\n    }\n\n    function whitelistedAddresses(\n        address\n    ) external view returns (Lender memory);\n}\n\ninterface IBikeShare {\n    // to call the function setProposal of the BikeShare contract\n    function setProposal(\n        address _owner,\n        uint _dateMin,\n        uint _dateMax,\n        uint _rentalTime,\n        uint _rate,\n        uint depositAmount,\n        uint date,\n        string calldata _latitude,\n        string calldata _longitude\n    ) external;\n\n    // // to call the function returnBike of the BikeShare contract\n    function returnedBike(address _bikeRentOwner) external;\n\n    // to retrieve the maximum rental duration set in the BikeShare contract\n    function maximumRental() external view returns (uint);\n\n    // to retrieve the rate of W2R tokens per day set in the BikeShare contract\n    function rate() external view returns (uint);\n\n    // to retrieve the rate of W2R tokens per day set in the BikeShare contract for the deposit\n    function depositAmount() external view returns (uint);\n\n    function cancelledRenting(address _bikeRentOwner) external;\n\n    function getProposalsLength() external view returns (uint);\n}\n\ncontract BikeRent is Utilities {\n    using SafeERC20 for IERC20;\n    IBikeShare bikeShare;\n    address whitelistRenter;\n    address lenderNFT;\n    address whitelistLender;\n    bool public isRenting;\n\n    event ProposalMade(\n        address indexed renter, // address du contrat locataire\n        uint date, // date de la proposition\n        address indexed lender, // address du contrat propritaire\n        uint rentalDateMin, // date de la location souhaite\n        uint rentalDateMax, // date de la location souhaite\n        uint rentalTime, // dure de la location souhaite\n        uint rate, // taux de location au moment de la proposition\n        uint depositAmount, // taux de dpt au moment de la proposition\n        string latitude,\n        string longitude\n    );\n\n    event RentalStarted(\n        address indexed renter,\n        uint date,\n        uint rentalTime,\n        uint rentalPrice,\n        uint deposit,\n        uint amountRequired,\n        bool _propalCancellation,\n        address indexed lender\n    );\n\n    event RentalCancelled(\n        address indexed lender,\n        uint date,\n        uint refund,\n        uint returnDate,\n        address indexed renter\n    );\n\n    event RentalDeclaredAsReturned(\n        address indexed lender,\n        uint date,\n        address indexed renter,\n        string latitude,\n        string longitude\n    );\n    event RentalReturned(\n        uint rentalDate,\n        address indexed lender,\n        uint date,\n        address indexed renter,\n        string latitude,\n        string longitude\n    );\n\n    event BikeTaken(\n        address indexed lender,\n        uint date,\n        address indexed renter,\n        string latitude,\n        string longitude\n    );\n\n    struct Rental {\n        uint date; // date de la location\n        uint rentalTime; // dure de la location\n        uint rentalPrice; // prix de la location\n        uint depositAmount; // montant du dpt\n        uint rewardExpected; // montant de la rcompense attendue\n        bool isReturned; // boolen pour savoir si le vlo a t rendu\n        bool isRefunded; // boolen pour savoir si la location a t rembourse\n        bool seemsReturned; // boolen pour savoir si le vlo est dclar comme rendu\n        bool cantCancel; // boolen pour savoir si la location ne peut pas tre annule\n    }\n\n    struct ProposalsMade {\n        uint date; // time of the proposal\n        address lender; // address of the lender\n        uint rentalDateMin; // date of the rental, minimum hour of RDV\n        uint rentalDateMax; // date of the rental, maximum hour of RDV\n        uint rentalTime; // rental time proposed\n        uint rate; // rate of the rental\n        uint depositAmount; // deposit amount\n        bool isAccepted; // boolen pour savoir si la proposition a t accepte\n    }\n\n    struct DailyCalls {\n        uint256 lastResetTimestamp;\n        uint256 dailyCallCount;\n    }\n    mapping(address => DailyCalls) private userProposalCalls;\n    mapping(address => DailyCalls) private userRentalCalls;\n    uint private constant DAY_SECONDS = 24 hours;\n    uint private constant DAILY_CALL_LIMIT = 2;\n\n    // import VaultW2R interface\n    I4VaultW2R private vaultW2R;\n\n    // instantiate IlenderWhitelist interface\n    IlenderWhitelist private LenderWhitelist;\n\n    ProposalsMade[] public proposalsMade;\n\n    // mapping of the address of the lender to an array of Rental structs (one for each rental)\n    // as a lender can have multiple rentals from a renter\n    mapping(address => Rental[]) public rentals;\n\n    address public currentLender;\n\n    constructor(\n        address _renter,\n        address _W2Rtoken,\n        address _lenderNFT,\n        address _whitelistRenter,\n        address _vaultW2R,\n        address _whitelistLender\n    ) Utilities(_renter, _W2Rtoken) {\n        require(_lenderNFT != address(0));\n        require(_whitelistRenter != address(0));\n        require(msg.sender == _whitelistRenter, \"Only whitelist can deploy\");\n        require(_vaultW2R != address(0));\n        require(_whitelistLender != address(0));\n        lenderNFT = _lenderNFT;\n        whitelistRenter = _whitelistRenter;\n        vaultW2R = I4VaultW2R(_vaultW2R);\n        whitelistLender = _whitelistLender;\n    }\n\n    // modifier to check if a bikeShare owner has really a Nft and if the bikeShare contract is whitelisted\n    modifier checkLenderNFT(address _bikeShareOwner) {\n        require(IERC721(lenderNFT).balanceOf(_bikeShareOwner) > 0, \"No NFT\");\n        LenderWhitelist = IlenderWhitelist(whitelistLender);\n        require(\n            LenderWhitelist.whitelistedAddresses(_bikeShareOwner).isWhitelisted,\n            \"Not whitelisted\"\n        );\n        // check if msg.sender corresponding to bikeshare contract in struct of whitelisted _bikeShareOwner\n        require(\n            LenderWhitelist\n                .whitelistedAddresses(_bikeShareOwner)\n                .bikeShareContract == msg.sender,\n            \"Not whitelisted\"\n        );\n        _;\n    }\n\n    modifier renting() {\n        require(isRenting, \"Not rented\");\n        require(currentLender != address(0), \"No lender\");\n        require(\n            bytes(gpsData[address(this)].latitude).length > 0 &&\n                bytes(gpsData[address(this)].longitude).length > 0,\n            \"GPS not set\"\n        );\n        _;\n    }\n\n    modifier rateLimited(mapping(address => DailyCalls) storage userAction) {\n        DailyCalls storage dailyCalls = userAction[msg.sender];\n        if (block.timestamp - dailyCalls.lastResetTimestamp >= DAY_SECONDS) {\n            dailyCalls.dailyCallCount = 0;\n            dailyCalls.lastResetTimestamp = block.timestamp;\n        }\n        require(dailyCalls.dailyCallCount < DAILY_CALL_LIMIT, \"Limit reached\");\n        dailyCalls.dailyCallCount++;\n        _;\n    }\n\n    function getRentalsByAdresses(address renter) external view returns (uint) {\n        return rentals[renter].length;\n    }\n\n    function deleteOldProposals() private returns (bool) {\n        uint i = 0;\n        while (i < proposalsMade.length) {\n            if (block.timestamp - proposalsMade[i].date > proposalDuration) {\n                for (uint j = i; j < proposalsMade.length - 1; j++) {\n                    address _bikeShareContract = proposalsMade[j].lender;\n                    uint date = proposalsMade[j].date;\n                    proposalsMade[j] = proposalsMade[j + 1];\n                    proposalsMade.pop();\n                    emit ProposalCancelled(\n                        address(this),\n                        date,\n                        _bikeShareContract\n                    );\n                }\n            } else {\n                i++;\n            }\n        }\n        return true;\n    }\n\n    // fonction pour que le locataire puisse proposer une location\n    function makeProposal(\n        address _bikeShareContract, // adresse du contrat BikeShare\n        uint _dateMin, // date de la location souhaite, heure de RDV minimum\n        uint _dateMax, // date de la location souhaite, heure de RDV maximum\n        uint _rentalTime // dure de la location\n    ) public isActivated onlyOwner rateLimited(userProposalCalls) {\n        require(\n            _bikeShareContract != address(0) &&\n                _bikeShareContract != owner &&\n                _bikeShareContract != address(this),\n            \"Invalid address\"\n        );\n        require(deleteOldProposals());\n        for (uint i = 0; i < proposalsMade.length; i++) {\n            if (proposalsMade[i].lender == _bikeShareContract) {\n                revert(\"Proposal already made\");\n            }\n        }\n        require(\n            _rentalTime > 0 && _dateMin > 0 && _dateMax > 0,\n            \"Time too short\"\n        );\n        require(_dateMin > block.timestamp + 10000, \"Date too soon\");\n        require(_rentalTime >= minimalRental, \"Time too short\");\n        require(_dateMax - _dateMin >= 3 hours, \"Too short\");\n        require(_dateMax - _dateMin <= 12 hours, \"Too long\");\n        require(proposalsMade.length < 3, \"Only 3 proposals\");\n        require(\n            bytes(gpsData[address(this)].latitude).length > 0 &&\n                bytes(gpsData[address(this)].longitude).length > 0,\n            \"GPS not set\"\n        );\n        bikeShare = IBikeShare(_bikeShareContract);\n        require(bikeShare.getProposalsLength() < 5, \"Only 5 proposals\");\n        require(_rentalTime <= bikeShare.maximumRental(), \"Time too long\");\n        uint _rate = bikeShare.rate();\n        uint _depositAmount = bikeShare.depositAmount();\n        require(_rentalTime % 1 days == 0, \"Not multiple of 1 day\");\n        require(\n            W2R.balanceOf(address(this)) >=\n                _depositAmount + _rate * (_rentalTime / 1 days),\n            \"Not enough W2R\"\n        );\n        // call the setProposal function of the BikeShare contract\n        bikeShare.setProposal(\n            owner,\n            _dateMin, // date de la location souhaite, heure de RDV minimum\n            _dateMax, // date de la location souhaite, heure de RDV maximum\n            _rentalTime, // dure de la location souhaite\n            _rate, // taux de location au moment de la proposition\n            _depositAmount, // taux du dpt de garantie au moment de la proposition\n            block.timestamp, // date de la proposition\n            gpsData[address(this)].latitude,\n            gpsData[address(this)].longitude\n        );\n        // push the proposal to the proposalsMade array\n        proposalsMade.push(\n            ProposalsMade(\n                block.timestamp, // date of the proposal\n                _bikeShareContract, // address of the BikeShare contract\n                _dateMin, // date of the rental proposed, minimum hour\n                _dateMax, // date of the rental proposed, maximum hour\n                _rentalTime, // rental time proposed\n                _rate, // rate at the time of the proposal\n                _depositAmount, // depositAmount at the time of the proposal\n                false // isAccepted\n            )\n        );\n        emit ProposalMade(\n            address(this), // address of the renter contract\n            block.timestamp, // date of the proposal\n            _bikeShareContract, // address of the BikeShare contract\n            _dateMin, // date of the rental proposed, minimum hour\n            _dateMax, // date of the rental proposed, maximum hour\n            _rentalTime, // rental time proposed\n            _rate, // rate at the time of the proposal\n            _depositAmount,\n            gpsData[address(this)].latitude,\n            gpsData[address(this)].longitude\n        );\n    }\n\n    function getProposalsLength() external view returns (uint) {\n        return proposalsMade.length;\n    }\n\n    function getRentalsLength(address lender) external view returns (uint) {\n        return rentals[lender].length;\n    }\n\n    // fonction active par le loueur lorsqu'il accepte une proposition de location\n    function rentBike(\n        address _bikeShareOwner,\n        uint _rentalPrice,\n        uint _depositAmount,\n        uint _rentalTime,\n        uint _rentalDate\n    )\n        external\n        isActivated\n        checkLenderNFT(_bikeShareOwner)\n        rateLimited(userRentalCalls)\n    {\n        require(isRenting == false, \"Already renting\");\n        require(currentLender == address(0), \"Not renting\");\n        require(msg.sender != address(0));\n        require(\n            bytes(gpsData[address(this)].latitude).length > 0 &&\n                bytes(gpsData[address(this)].longitude).length > 0,\n            \"GPS not set\"\n        );\n        uint _amountRequired = _rentalPrice + _depositAmount;\n        require(\n            W2R.balanceOf(address(this)) >= _amountRequired,\n            \"Insufficient W2R\"\n        );\n        bool proposalFound;\n        uint i;\n        uint dateMax;\n        uint rentalTime = _rentalTime;\n        for (i = 0; i < proposalsMade.length; i++) {\n            if (proposalsMade[i].lender == msg.sender) {\n                ProposalsMade memory proposal = proposalsMade[i];\n                require(\n                    block.timestamp - proposal.date <= proposalDuration,\n                    \"Proposal expired\"\n                );\n                require(proposal.isAccepted == false, \"Already accepted\");\n                require((_rentalPrice * rewardAmount * 100) >= 10000);\n                uint rentalPrice = _rentalPrice;\n                dateMax = proposal.rentalDateMax;\n                uint reward = (rentalPrice * rewardAmount * 100) / 10000;\n                proposal.isAccepted = true;\n                isRenting = true;\n                uint rentalDate = _rentalDate;\n                uint depositAmount = _depositAmount;\n                uint amountRequired = _amountRequired;\n                rentals[msg.sender].push(\n                    Rental(\n                        rentalDate,\n                        rentalTime,\n                        rentalPrice,\n                        depositAmount,\n                        reward,\n                        false,\n                        false,\n                        false,\n                        false\n                    )\n                );\n                currentLender = msg.sender;\n                totalRentals++;\n                W2R.safeTransfer(msg.sender, _amountRequired);\n                emit RentalStarted(\n                    msg.sender,\n                    rentalDate,\n                    proposal.rentalTime,\n                    rentalPrice,\n                    depositAmount,\n                    amountRequired,\n                    false,\n                    currentLender\n                );\n                proposalFound = true;\n                break;\n            }\n        }\n        require(proposalFound, \"No proposal found\");\n        // delete proposal from the renter as it has been accepted\n        while (i < proposalsMade.length) {\n            if (proposalsMade[i].lender == currentLender) {\n                require(proposalsMade[i].isAccepted == false, \"accepted\");\n                cancelUselessProposals(i);\n                break;\n            } else {\n                i++;\n            }\n        }\n        //delete proposal which date is before the rental date\n        for (uint j = 0; j < proposalsMade.length; j++) {\n            if (j != i && proposalsMade[j].date < (dateMax + rentalTime)) {\n                cancelUselessProposals(j);\n            }\n        }\n    }\n\n    function cancelUselessProposals(uint index) private returns (bool) {\n        address lender = proposalsMade[index].lender;\n        uint256 date = proposalsMade[index].date;\n        proposalsMade[index] = proposalsMade[proposalsMade.length - 1];\n        proposalsMade.pop();\n        emit ProposalCancelled(address(this), date, lender);\n        return true;\n    }\n\n    // function to cancel proposal made\n    function cancelProposal(\n        address _bikeShareContract\n    ) public isActivated onlyOwner {\n        require(\n            _bikeShareContract != address(0) &&\n                _bikeShareContract != owner &&\n                _bikeShareContract != address(this),\n            \"Invalid address\"\n        );\n        require(proposalsMade.length > 0, \"No proposals\");\n        uint i = 0;\n        while (i < proposalsMade.length) {\n            if (proposalsMade[i].lender == _bikeShareContract) {\n                require(proposalsMade[i].isAccepted == false, \"accepted\");\n                cancelUselessProposals(i);\n                break;\n            } else {\n                i++;\n            }\n        }\n    }\n\n    // fonction pour confirmer la prise du vlo appele par le BikeShare\n    function confirmBikeInHands(\n        address _bikeShareOwner\n    ) external isActivated checkLenderNFT(_bikeShareOwner) renting {\n        require(msg.sender == currentLender, \"Only lender\");\n        Rental storage rental = rentals[currentLender][\n            rentals[currentLender].length - 1\n        ];\n        require(rental.cantCancel == false, \"Already taken\");\n        rental.cantCancel = true;\n        emit BikeTaken(\n            currentLender,\n            block.timestamp,\n            address(this),\n            gpsData[address(this)].latitude,\n            gpsData[address(this)].longitude\n        );\n    }\n\n    // fonction pour confirmer le retour du vlo\n    // it is strongly advised that people were physically present at the meeting point\n    function returnBike() external isActivated renting onlyOwner {\n        Rental storage rental = rentals[currentLender][\n            rentals[currentLender].length - 1\n        ];\n        require(rental.cantCancel == true, \"Not taken\");\n        require(rental.seemsReturned == false, \"Already seems returned\");\n        require(rental.isReturned == false, \"Already returned\");\n        bikeShare = IBikeShare(currentLender);\n        bikeShare.returnedBike(owner);\n        rental.seemsReturned = true;\n        emit RentalDeclaredAsReturned(\n            currentLender,\n            block.timestamp,\n            address(this),\n            gpsData[address(this)].latitude,\n            gpsData[address(this)].longitude\n        );\n    }\n\n    // function called by Lender contract to definitely confirm the return of the bike\n    function returnConfirmed(\n        address _bikeShareOwner\n    ) external isActivated checkLenderNFT(_bikeShareOwner) renting {\n        require(msg.sender == currentLender, \"Only current lender\");\n        Rental storage rental = rentals[msg.sender][\n            rentals[msg.sender].length - 1\n        ];\n        require(rental.seemsReturned == true, \"Seems Not returned\");\n        require(rental.isReturned == false, \"Already returned\");\n        // set rental as returned\n        rental.isReturned = true;\n        uint reward = rental.rewardExpected;\n        // transfer reward from vault to this contract\n        vaultW2R.distributeW2R(address(this), reward);\n        // update rewards mapping\n        rewards[msg.sender] += reward;\n        // increase total rewards\n        totalRewards += reward;\n        isRenting = false;\n        currentLender = address(0);\n        emit RentalReturned(\n            rental.date,\n            msg.sender,\n            block.timestamp,\n            address(this),\n            gpsData[address(this)].latitude,\n            gpsData[address(this)].longitude\n        );\n    }\n\n    // function called by Lender contract to cancel the rental\n    function cancelledLending(\n        uint _refund,\n        address _bikeShareOwner,\n        bool _isCancelledByLender\n    ) external isActivated checkLenderNFT(_bikeShareOwner) renting {\n        handleRentalCancellation(\n            _refund,\n            _bikeShareOwner,\n            _isCancelledByLender\n        );\n    }\n\n    // function to cancel renting before renting began\n    function cancelRenting() external isActivated onlyOwner renting {\n        handleRentalCancellation(0, address(0), false);\n    }\n\n    // helper function to cancel renting\n    function handleRentalCancellation(\n        uint _refund,\n        address _bikeShareOwner,\n        bool _isCancelledByLender\n    ) private {\n        Rental storage rental = rentals[currentLender][\n            rentals[currentLender].length - 1\n        ];\n        require(rental.cantCancel == false, \"Cannot cancel\");\n        require(rental.isReturned == false, \"Already returned\");\n        if (_refund == 0) {\n            uint basis = rental.depositAmount + rental.rentalPrice;\n            _refund = block.timestamp >= rental.date - 2 hours\n                ? basis - (rental.rentalPrice * 1000) / 10000\n                : basis;\n        }\n        if (_bikeShareOwner != address(0)) {\n            require(msg.sender == currentLender, \"Only current lender\");\n        } else {\n            if (_isCancelledByLender == false) {\n                bikeShare = IBikeShare(currentLender);\n                bikeShare.cancelledRenting(owner);\n            }\n        }\n        // set rental as returned\n        rental.isReturned = true;\n        isRenting = false;\n        address lender = currentLender;\n        currentLender = address(0);\n        emit RentalCancelled(\n            lender,\n            rental.date,\n            _refund,\n            block.timestamp,\n            address(this)\n        );\n    }\n\n    function withdrawFunds(uint _amount) external isActivated onlyOwner {\n        require(_amount > 0, \"Not 0\");\n        require(W2R.balanceOf(address(this)) >= _amount, \"Insufficient W2R\");\n        W2R.safeTransfer(msg.sender, _amount);\n        emit W2Rwithdrawed(msg.sender, _amount, block.timestamp, address(this));\n    }\n\n    // function called by whitelist contract to destroy the contract\n    function destroy() external returns (bool) {\n        require(msg.sender == whitelistRenter, \"Only whitelistContract\");\n        // if is renting and rental duration is not over, revert\n        if (isRenting && currentLender != address(0)) {\n            Rental memory rental = rentals[currentLender][\n                rentals[currentLender].length - 1\n            ];\n            require(\n                block.timestamp > rental.date + rental.rentalTime,\n                \"Rental Not over\"\n            );\n        }\n        isDeactivated = true;\n        isDestroyed = true;\n        if (W2R.balanceOf(address(this)) > 0) {\n            // transfer all balance of W2R to owner\n            W2R.safeTransfer(owner, W2R.balanceOf(address(this)));\n        }\n        emit ContractDestroyed(msg.sender, block.timestamp, address(this));\n        return true;\n    }\n}\n",
  "sourcePath": "/Users/harbinger/Dropbox/Dossier familial/Formation Blockchain/Alyra/Projet Certification/Projet Alyra 2Wheels2Rent/truffle/contracts/BikeRent.sol",
  "compiler": {
    "name": "solc",
    "version": "0.8.18+commit.87f61d96.Emscripten.clang"
  },
  "schemaVersion": "3.4.12",
  "updatedAt": "2023-04-08T14:08:42.636Z",
  "devdoc": {
    "kind": "dev",
    "methods": {},
    "version": 1
  },
  "userdoc": {
    "kind": "user",
    "methods": {},
    "version": 1
  }
}