{
  "contractName": "LenderWhitelist",
  "abi": [
    {
      "inputs": [
        {
          "internalType": "address",
          "name": "_TW2RL",
          "type": "address"
        },
        {
          "internalType": "address",
          "name": "_W2R",
          "type": "address"
        },
        {
          "internalType": "address",
          "name": "_TW2RRenterNFT",
          "type": "address"
        },
        {
          "internalType": "contract IVaultW2R",
          "name": "_vaultW2R",
          "type": "address"
        }
      ],
      "stateMutability": "nonpayable",
      "type": "constructor"
    },
    {
      "anonymous": false,
      "inputs": [
        {
          "indexed": true,
          "internalType": "address",
          "name": "lender",
          "type": "address"
        },
        {
          "indexed": false,
          "internalType": "uint256",
          "name": "NFTId",
          "type": "uint256"
        }
      ],
      "name": "LenderBlacklisted",
      "type": "event"
    },
    {
      "anonymous": false,
      "inputs": [
        {
          "indexed": true,
          "internalType": "address",
          "name": "lender",
          "type": "address"
        }
      ],
      "name": "LenderRemovedFromBlacklist",
      "type": "event"
    },
    {
      "anonymous": false,
      "inputs": [
        {
          "indexed": true,
          "internalType": "address",
          "name": "lender",
          "type": "address"
        },
        {
          "indexed": false,
          "internalType": "uint256",
          "name": "NFTId",
          "type": "uint256"
        }
      ],
      "name": "LenderRemovedFromWhitelist",
      "type": "event"
    },
    {
      "anonymous": false,
      "inputs": [
        {
          "indexed": true,
          "internalType": "address",
          "name": "lender",
          "type": "address"
        },
        {
          "indexed": false,
          "internalType": "uint256",
          "name": "NFTId",
          "type": "uint256"
        }
      ],
      "name": "LenderWhitelisted",
      "type": "event"
    },
    {
      "anonymous": false,
      "inputs": [
        {
          "indexed": true,
          "internalType": "address",
          "name": "previousOwner",
          "type": "address"
        },
        {
          "indexed": true,
          "internalType": "address",
          "name": "newOwner",
          "type": "address"
        }
      ],
      "name": "OwnershipTransferred",
      "type": "event"
    },
    {
      "inputs": [],
      "name": "W2R",
      "outputs": [
        {
          "internalType": "contract ERC20",
          "name": "",
          "type": "address"
        }
      ],
      "stateMutability": "view",
      "type": "function",
      "constant": true
    },
    {
      "inputs": [
        {
          "internalType": "address",
          "name": "",
          "type": "address"
        }
      ],
      "name": "blacklistedAddresses",
      "outputs": [
        {
          "internalType": "bool",
          "name": "",
          "type": "bool"
        }
      ],
      "stateMutability": "view",
      "type": "function",
      "constant": true
    },
    {
      "inputs": [],
      "name": "numAddressesWhitelisted",
      "outputs": [
        {
          "internalType": "uint8",
          "name": "",
          "type": "uint8"
        }
      ],
      "stateMutability": "view",
      "type": "function",
      "constant": true
    },
    {
      "inputs": [],
      "name": "owner",
      "outputs": [
        {
          "internalType": "address",
          "name": "",
          "type": "address"
        }
      ],
      "stateMutability": "view",
      "type": "function",
      "constant": true
    },
    {
      "inputs": [
        {
          "internalType": "address",
          "name": "newOwner",
          "type": "address"
        }
      ],
      "name": "transferOwnership",
      "outputs": [],
      "stateMutability": "nonpayable",
      "type": "function"
    },
    {
      "inputs": [
        {
          "internalType": "address",
          "name": "",
          "type": "address"
        }
      ],
      "name": "whitelistedAddresses",
      "outputs": [
        {
          "internalType": "bool",
          "name": "isWhitelisted",
          "type": "bool"
        },
        {
          "internalType": "address",
          "name": "bikeShareContract",
          "type": "address"
        },
        {
          "internalType": "uint256",
          "name": "NFTId",
          "type": "uint256"
        }
      ],
      "stateMutability": "view",
      "type": "function",
      "constant": true
    },
    {
      "inputs": [
        {
          "internalType": "address",
          "name": "_renterWhitelist",
          "type": "address"
        }
      ],
      "name": "setRenterWhitelistAddress",
      "outputs": [],
      "stateMutability": "nonpayable",
      "type": "function"
    },
    {
      "inputs": [
        {
          "internalType": "string",
          "name": "name",
          "type": "string"
        },
        {
          "internalType": "string",
          "name": "brand",
          "type": "string"
        },
        {
          "internalType": "string",
          "name": "model",
          "type": "string"
        },
        {
          "internalType": "string",
          "name": "serial",
          "type": "string"
        },
        {
          "internalType": "string",
          "name": "registration",
          "type": "string"
        }
      ],
      "name": "setBikeInfoAndMint",
      "outputs": [],
      "stateMutability": "nonpayable",
      "type": "function"
    },
    {
      "inputs": [],
      "name": "removeAddressFromWhitelist",
      "outputs": [],
      "stateMutability": "nonpayable",
      "type": "function"
    },
    {
      "inputs": [
        {
          "internalType": "address",
          "name": "_address",
          "type": "address"
        }
      ],
      "name": "addToBlacklist",
      "outputs": [],
      "stateMutability": "nonpayable",
      "type": "function"
    },
    {
      "inputs": [
        {
          "internalType": "address",
          "name": "_address",
          "type": "address"
        }
      ],
      "name": "removeFromBlacklist",
      "outputs": [],
      "stateMutability": "nonpayable",
      "type": "function"
    },
    {
      "inputs": [],
      "name": "renounceOwnership",
      "outputs": [],
      "stateMutability": "view",
      "type": "function",
      "constant": true
    }
  ],
  "bytecode": "0x60806040523480156200001157600080fd5b50604051620061f5380380620061f5833981016040819052620000349162000183565b6200003f336200011a565b6001600160a01b038416158015906200006057506001600160a01b03831615155b80156200007557506001600160a01b03821615155b80156200008a57506001600160a01b03811615155b620000c95760405162461bcd60e51b815260206004820152600b60248201526a626164206164647265737360a81b604482015260640160405180910390fd5b600480546001600160a01b03199081166001600160a01b03938416179091556008805482169583169590951790945560038054851693821693909317909255600180549093169116179055620001eb565b600080546001600160a01b038381166001600160a01b0319831681178455604051919092169283917f8be0079c531659141344cd1fd0a4f28419497f9722a3daafe3b4186f6b6457e09190a35050565b6001600160a01b03811681146200018057600080fd5b50565b600080600080608085870312156200019a57600080fd5b8451620001a7816200016a565b6020860151909450620001ba816200016a565b6040860151909350620001cd816200016a565b6060860151909250620001e0816200016a565b939692955090935050565b615ffa80620001fb6000396000f3fe60806040523480156200001157600080fd5b5060043610620000c35760003560e01c8063715018a6116200007a578063715018a614620001b65780638da5cb5b14620001c05780638f03607214620001e6578063bde9768714620001fa578063d5749d421462000204578063f2fde38b146200023b57600080fd5b806306c933d814620000c85780632084c35014620001305780634011d7cd146200014957806344337ea11462000171578063537df3b614620001885780635d477f32146200019f575b600080fd5b62000106620000d936600462001084565b6005602052600090815260409020805460019091015460ff82169161010090046001600160a01b03169083565b6040805193151584526001600160a01b039092166020840152908201526060015b60405180910390f35b620001476200014136600462001161565b62000252565b005b6000546200015e90600160a01b900460ff1681565b60405160ff909116815260200162000127565b620001476200018236600462001084565b620006e9565b620001476200019936600462001084565b620007fb565b62000147620001b036600462001084565b620008a1565b62000147620008e1565b6000546001600160a01b03165b6040516001600160a01b03909116815260200162000127565b600354620001cd906001600160a01b031681565b6200014762000924565b6200022a6200021536600462001084565b60066020526000908152604090205460ff1681565b604051901515815260200162000127565b620001476200024c36600462001084565b620009f6565b3360009081526006602052604090205460ff16156200028e5760405162461bcd60e51b8152600401620002859062001243565b60405180910390fd5b3360009081526005602052604090205460ff1615620002d55760405162461bcd60e51b81526020600482015260026024820152611ddb60f21b604482015260640162000285565b3360009081526007602052604090205442906202a30090620002f8908362001275565b1015620003395760405162461bcd60e51b815260206004820152600e60248201526d6f6e636520696e2032206461797360901b604482015260640162000285565b3360009081526005602052604090205461010090046001600160a01b031615620003915760405162461bcd60e51b815260206004820152600860248201526719195c1b1bde595960c21b604482015260640162000285565b3360009081526005602052604090206001015415620003dc5760405162461bcd60e51b81526020600482015260066024820152651b5a5b9d195960d21b604482015260640162000285565b60008651118015620003ef575060008551115b8015620003fd575060008451115b80156200040b575060008351115b801562000419575060008251115b6200044f5760405162461bcd60e51b8152602060048201526005602482015264656d70747960d81b604482015260640162000285565b60288651111580156200046457506028855111155b80156200047357506028845111155b80156200048257506028835111155b80156200049157506028825111155b620004ca5760405162461bcd60e51b8152602060048201526008602482015267546f6f206c6f6e6760c01b604482015260640162000285565b600860009054906101000a90046001600160a01b03166001600160a01b031663402199456040518163ffffffff1660e01b8152600401602060405180830381865afa1580156200051e573d6000803e3d6000fd5b505050506040513d601f19601f8201168201806040525081019062000544919062001291565b6200057c5760405162461bcd60e51b81526020600482015260076024820152666e6f204950465360c81b604482015260640162000285565b6040805160a081018252878152602080820188905281830187905260608201869052608082018590523360009081526005909152918220805460ff1916600117905581549091600160a01b90910460ff16906014620005db83620012b5565b825460ff9182166101009390930a92830291909202199091161790555060085460405163df54bc7d60e01b81526001600160a01b039091169063df54bc7d906200062c90339085906004016200131f565b6020604051808303816000875af11580156200064c573d6000803e3d6000fd5b505050506040513d601f19601f82011682018060405250810190620006729190620013d3565b336000908152600560205260409020600101556200068f62000a72565b33600081815260076020908152604080832086905560058252918290206001015491519182527f741fddb52b438ae67c305c126b93c8bd6908e85edde1df05b368280b4bedce85910160405180910390a250505050505050565b620006f362000d0f565b6001600160a01b03811660009081526006602052604090205460ff16156200072f5760405162461bcd60e51b8152600401620002859062001243565b6001600160a01b03811660009081526005602052604090205460ff1615620007f8576200075c8162000d6d565b620007925760405162461bcd60e51b815260206004820152600560248201526422b93937b960d91b604482015260640162000285565b6001600160a01b0381166000818152600660209081526040808320805460ff1916600190811790915560058352928190209092015491519182527fe03cac1af31e06f8a3f8807bfe0e351bbf731880f309f9a8eebe0861a5de3a95910160405180910390a25b50565b6200080562000d0f565b6001600160a01b03811660009081526006602052604090205460ff16620008585760405162461bcd60e51b8152602060048201526006602482015265139bdd08189b60d21b604482015260640162000285565b6001600160a01b038116600081815260066020526040808220805460ff19169055517f1028c66f436fb7e41e5c662d4bb9cd9759a20532ae5bb2a3fa6ffc2c3e0c536c9190a250565b620008ab62000d0f565b6001600160a01b038116620008bf57600080fd5b600280546001600160a01b0319166001600160a01b0392909216919091179055565b620008eb62000d0f565b60405162461bcd60e51b815260206004820152600d60248201526c63616e742072656e6f756e636560981b604482015260640162000285565b3360009081526006602052604090205460ff1615620009575760405162461bcd60e51b8152600401620002859062001243565b3360009081526005602052604090205460ff16620009a15760405162461bcd60e51b8152602060048201526006602482015265139bdd081ddb60d21b604482015260640162000285565b620009ac3362000d6d565b50336000818152600560209081526040918290206001015491519182527f0607b543799f537b75d9e50a645de8d5ccc7f56dd377a3fda80c69a7d8d0aabf910160405180910390a2565b62000a0062000d0f565b6001600160a01b03811662000a675760405162461bcd60e51b815260206004820152602660248201527f4f776e61626c653a206e6577206f776e657220697320746865207a65726f206160448201526564647265737360d01b606482015260840162000285565b620007f88162001026565b3360009081526006602052604090205460ff161562000aa55760405162461bcd60e51b8152600401620002859062001243565b3360009081526005602052604090205460ff1662000aef5760405162461bcd60e51b8152602060048201526006602482015265139bdd081ddb60d21b604482015260640162000285565b3360009081526005602052604090205461010090046001600160a01b03161562000b475760405162461bcd60e51b815260206004820152600860248201526719195c1b1bde595960c21b604482015260640162000285565b33600090815260056020526040812060010154900362000b975760405162461bcd60e51b815260206004820152600a602482015269139bdd081b5a5b9d195960b21b604482015260640162000285565b6002546001600160a01b031662000bdb5760405162461bcd60e51b81526020600482015260076024820152661b9bdd081cd95d60ca1b604482015260640162000285565b60035460015460045460025460405133946001600160a01b039081169481169330939082169291169062000c0f9062001076565b6001600160a01b0396871681529486166020860152928516604085015290841660608401528316608083015290911660a082015260c001604051809103906000f08015801562000c63573d6000803e3d6000fd5b50600980546001600160a01b0319166001600160a01b03928316908117825533600090815260056020526040908190208054610100600160a81b031916610100909302929092179091556004805492549151635ffd993b60e01b81529184169082015260016024820152911690635ffd993b90604401600060405180830381600087803b15801562000cf457600080fd5b505af115801562000d09573d6000803e3d6000fd5b50505050565b6000546001600160a01b0316331462000d6b5760405162461bcd60e51b815260206004820181905260248201527f4f776e61626c653a2063616c6c6572206973206e6f7420746865206f776e6572604482015260640162000285565b565b6008546001600160a01b03828116600090815260056020526040808220600101549051632890e0d760e01b8152600481019190915290929190911690632890e0d7906024016020604051808303816000875af115801562000dd2573d6000803e3d6000fd5b505050506040513d601f19601f8201168201806040525081019062000df8919062001291565b62000e335760405162461bcd60e51b815260206004820152600a60248201526921b0b713ba10313ab93760b11b604482015260640162000285565b6001600160a01b03808316600090815260056020908152604080832054600980546001600160a01b031916610100909204909516908117909455805163083197ef60e41b815290516383197ef0936004808401949383900301908290875af115801562000ea4573d6000803e3d6000fd5b505050506040513d601f19601f8201168201806040525081019062000eca919062001291565b62000f085760405162461bcd60e51b815260206004820152600d60248201526c43616e27742064657374726f7960981b604482015260640162000285565b60048054600954604051639eea227960e01b81526001600160a01b03918216938101939093521690639eea2279906024016020604051808303816000875af115801562000f59573d6000803e3d6000fd5b505050506040513d601f19601f8201168201806040525081019062000f7f919062001291565b62000fbe5760405162461bcd60e51b815260206004820152600e60248201526d6572726f722072656d6f76696e6760901b604482015260640162000285565b6001600160a01b038216600090815260056020526040812080546001600160a81b03191681556001018190558054600160a01b900460ff169060146200100483620013ed565b91906101000a81548160ff021916908360ff1602179055505060019050919050565b600080546001600160a01b038381166001600160a01b0319831681178455604051919092169283917f8be0079c531659141344cd1fd0a4f28419497f9722a3daafe3b4186f6b6457e09190a35050565b614bb7806200140e83390190565b6000602082840312156200109757600080fd5b81356001600160a01b0381168114620010af57600080fd5b9392505050565b634e487b7160e01b600052604160045260246000fd5b600082601f830112620010de57600080fd5b813567ffffffffffffffff80821115620010fc57620010fc620010b6565b604051601f8301601f19908116603f01168101908282118183101715620011275762001127620010b6565b816040528381528660208588010111156200114157600080fd5b836020870160208301376000602085830101528094505050505092915050565b600080600080600060a086880312156200117a57600080fd5b853567ffffffffffffffff808211156200119357600080fd5b620011a189838a01620010cc565b96506020880135915080821115620011b857600080fd5b620011c689838a01620010cc565b95506040880135915080821115620011dd57600080fd5b620011eb89838a01620010cc565b945060608801359150808211156200120257600080fd5b6200121089838a01620010cc565b935060808801359150808211156200122757600080fd5b506200123688828901620010cc565b9150509295509295909350565b602080825260029082015261189b60f21b604082015260600190565b634e487b7160e01b600052601160045260246000fd5b818103818111156200128b576200128b6200125f565b92915050565b600060208284031215620012a457600080fd5b81518015158114620010af57600080fd5b600060ff821660ff8103620012ce57620012ce6200125f565b60010192915050565b6000815180845260005b81811015620012ff57602081850181015186830182015201620012e1565b506000602082860101526020601f19601f83011685010191505092915050565b60018060a01b0383168152604060208201526000825160a060408401526200134b60e0840182620012d7565b90506020840151603f19808584030160608601526200136b8383620012d7565b925060408601519150808584030160808601526200138a8383620012d7565b925060608601519150808584030160a0860152620013a98383620012d7565b925060808601519150808584030160c086015250620013c98282620012d7565b9695505050505050565b600060208284031215620013e657600080fd5b5051919050565b600060ff8216806200140357620014036200125f565b600019019291505056fe6080604052600a6006556202a300600755620151806008553480156200002457600080fd5b5060405162004bb738038062004bb783398101604081905262000047916200020d565b8585836001600160a01b038316158015906200006b57506001600160a01b03821615155b80156200008057506001600160a01b03811615155b6200008a57600080fd5b60048054600580546001600160a01b039586166001600160a01b031991821617909155600b805494861694909116939093179092556001600160a81b031990911692821692909217600160a01b17909155841615801590620000f457506001600160a01b03831615155b80156200010957506001600160a01b03811615155b620001495760405162461bcd60e51b815260206004820152600b60248201526a626164206164647265737360a81b60448201526064015b60405180910390fd5b336001600160a01b03841614620001885760405162461bcd60e51b81526020600482015260026024820152611ddb60f21b604482015260640162000140565b600d80546001600160a01b03199081166001600160a01b0396871617909155600c8054821694861694909417909355600e805490931693169290921790555050620151806011555068056bc75e2d63100000600f55680ad78ebc5ac62000006010556200028e565b80516001600160a01b03811681146200020857600080fd5b919050565b60008060008060008060c087890312156200022757600080fd5b6200023287620001f0565b95506200024260208801620001f0565b94506200025260408801620001f0565b93506200026260608801620001f0565b92506200027260808801620001f0565b91506200028260a08801620001f0565b90509295509295509295565b614919806200029e6000396000f3fe608060405234801561001057600080fd5b506004361061023d5760003560e01c806383197ef01161013b578063c520e74a116100b8578063dd4b22d11161007c578063dd4b22d1146104fb578063e19f3aee14610504578063e627f2db14610517578063f476e8c71461051f578063f7b2a7be1461053257600080fd5b8063c520e74a146104bc578063c95dee79146104cf578063cdaa4192146104e2578063d0759c56146104ea578063d771642a146104f257600080fd5b8063af8df99d116100ff578063af8df99d14610485578063b465c3c01461037e578063b8f58f7214610498578063bc378a73146104a1578063bf0058d0146104a957600080fd5b806383197ef0146104415780638da5cb5b146104495780638f0360721461045c57806393736bb41461046f578063a63049521461047857600080fd5b8063372500ab116101c9578063660353901161018d57806366035390146103c35780636d8cee56146103e45780636dcf811d146103f75780637525b9221461041b5780638046c8ac1461042e57600080fd5b8063372500ab146103635780633bafdcbc1461036b5780633e1464171461037e578063419759f5146103a757806358b2d207146103b057600080fd5b80631f54257e116102105780631f54257e146102f2578063242f17a9146103055780632c4e722e14610330578063301099621461034757806334fcf4371461035057600080fd5b8063013cf08b14610242578063090fc58b1461029f5780630c6986b3146102ca578063155dd5ee146102df575b600080fd5b610255610250366004613e6d565b61053b565b604080519889526001600160a01b039097166020890152958701949094526060860192909252608085015260a084015260c0830152151560e0820152610100015b60405180910390f35b6102b26102ad366004613e9e565b61059e565b6040516102969c9b9a99989796959493929190613f1a565b6102dd6102d8366004613f91565b6106b8565b005b6102dd6102ed366004613e6d565b61096c565b6102dd610300366004613ffe565b610cd0565b601854610318906001600160a01b031681565b6040516001600160a01b039091168152602001610296565b610339600f5481565b604051908152602001610296565b61033960075481565b6102dd61035e366004613e6d565b610f84565b6102dd610fc0565b6102dd610379366004614040565b6110fd565b61033961038c366004613f91565b6001600160a01b031660009081526017602052604090205490565b61033960105481565b6102dd6103be366004613e6d565b611781565b6103d66103d1366004613f91565b6117f9565b6040516102969291906140cc565b6102dd6103f2366004613e6d565b611925565b60045461040b90600160a01b900460ff1681565b6040519015158152602001610296565b6102dd6104293660046140fa565b6119bb565b6102dd61043c366004613e6d565b611f1c565b61040b61210d565b600454610318906001600160a01b031681565b600554610318906001600160a01b031681565b61033960015481565b60125461040b9060ff1681565b6102dd610493366004613f91565b612628565b61033960115481565b601354610339565b6102dd6104b73660046141bf565b6127f8565b6103d66104ca366004613f91565b6128f8565b6102dd6104dd3660046141bf565b612913565b6102dd612a1d565b61040b612b2c565b61033960085481565b61033960005481565b6102dd610512366004613f91565b612bf2565b610339612fbb565b6102dd61052d366004613ffe565b613019565b61033960065481565b6013818154811061054b57600080fd5b6000918252602090912060089091020180546001820154600283015460038401546004850154600586015460068701546007909701549597506001600160a01b0390941695929491939092909160ff1688565b601760205281600052604060002081815481106105ba57600080fd5b600091825260209091206008909102018054600182015460028301546003840154600485015460058601546006870154600788018054979a50959850939692959194909360ff80821694610100830482169462010000840483169463010000008504841694640100000000900490931692906106359061422b565b80601f01602080910402602001604051908101604052809291908181526020018280546106619061422b565b80156106ae5780601f10610683576101008083540402835291602001916106ae565b820191906000526020600020905b81548152906001019060200180831161069157829003601f168201915b505050505090508c565b600454600160a01b900460ff16156106eb5760405162461bcd60e51b81526004016106e290614265565b60405180910390fd5b600d546040516370a0823160e01b81526001600160a01b03808416600483015283926000929116906370a0823190602401602060405180830381865afa158015610739573d6000803e3d6000fd5b505050506040513d601f19601f8201168201806040525081019061075d919061428a565b1161077a5760405162461bcd60e51b81526004016106e2906142a3565b600e54601580546001600160a01b0319166001600160a01b0392831690811790915560405162d9267b60e31b81529183166004830152906306c933d890602401606060405180830381865afa1580156107d7573d6000803e3d6000fd5b505050506040513d601f19601f820116820180604052508101906107fb91906142ee565b516108185760405162461bcd60e51b81526004016106e290614357565b60155460405162d9267b60e31b81526001600160a01b038381166004830152339216906306c933d890602401606060405180830381865afa158015610861573d6000803e3d6000fd5b505050506040513d601f19601f8201168201806040525081019061088591906142ee565b602001516001600160a01b0316146108af5760405162461bcd60e51b81526004016106e290614357565b60125460ff1680156108cb57506018546001600160a01b031615155b6108e75760405162461bcd60e51b81526004016106e290614373565b6018546001600160a01b03166000908152601660205260408120805461090c9061422b565b905011801561094257506018546001600160a01b03166000908152601660205260408120600101805461093e9061422b565b9050115b61095e5760405162461bcd60e51b81526004016106e290614398565b6109686001613417565b5050565b600454600160a01b900460ff16156109965760405162461bcd60e51b81526004016106e290614265565b6004546001600160a01b031633146109c05760405162461bcd60e51b81526004016106e2906143b8565b600081116109f85760405162461bcd60e51b815260206004820152600560248201526404e6f7420360dc1b60448201526064016106e2565b6005546040516370a0823160e01b81523060048201526000916001600160a01b0316906370a0823190602401602060405180830381865afa158015610a41573d6000803e3d6000fd5b505050506040513d601f19601f82011682018060405250810190610a65919061428a565b60125490915060009060ff168015610a8757506018546001600160a01b031615155b15610c2c576018546001600160a01b031660009081526017602052604081208054610ab4906001906143f2565b81548110610ac457610ac461440b565b600091825260209182902060408051610180810182526008909302909101805483526001810154938301939093526002830154908201526003820154606082015260048201546080820152600582015460a0820152600682015460ff808216151560c08401526101008083048216151560e08501526201000083048216151590840152630100000082048116151561012084015264010000000090910416151561014082015260078201805491929161016084019190610b839061422b565b80601f0160208091040260200160405190810160405280929190818152602001828054610baf9061422b565b8015610bfc5780601f10610bd157610100808354040283529160200191610bfc565b820191906000526020600020905b815481529060010190602001808311610bdf57829003601f168201915b505050505081525050905080610120015115156001151514610c22578060a00151610c28565b80606001515b9150505b82610c3782846143f2565b11610c715760405162461bcd60e51b815260206004820152600a60248201526909cdee840cadcdeeaced60b31b60448201526064016106e2565b600454600554610c8e916001600160a01b03918216911685613737565b60408051848152426020820152309133917fb933d9f5921d73b25377b9ffc45ea2914238b8379c2098a3178e766cb8f326d491015b60405180910390a3505050565b600454600160a01b900460ff1615610cfa5760405162461bcd60e51b81526004016106e290614265565b6004546001600160a01b03163314610d245760405162461bcd60e51b81526004016106e2906143b8565b60125460ff168015610d4057506018546001600160a01b031615155b610d5c5760405162461bcd60e51b81526004016106e290614373565b6018546001600160a01b031660009081526016602052604081208054610d819061422b565b9050118015610db757506018546001600160a01b031660009081526016602052604081206001018054610db39061422b565b9050115b610dd35760405162461bcd60e51b81526004016106e290614398565b6018546001600160a01b031660009081526017602052604081208054610dfb906001906143f2565b81548110610e0b57610e0b61440b565b906000526020600020906008020190508060060160039054906101000a900460ff1615610e625760405162461bcd60e51b81526020600482015260056024820152643a30b5b2b760d91b60448201526064016106e2565b601e8214610e9c5760405162461bcd60e51b81526020600482015260076024820152661a5b9d985b1a5960ca1b60448201526064016106e2565b601854601480546001600160a01b0319166001600160a01b039283169081179091556004805460405163be3f22eb60e01b8152929363be3f22eb93610eea939290911691889188910161444a565b600060405180830381600087803b158015610f0457600080fd5b505af1158015610f18573d6000803e3d6000fd5b50505060068201805463ff00000019166301000000179055506018546001600160a01b03166000818152601660205260409081902090513092917f58441e06988866f5582b245c6d5073b65d386d56d2d7f2ee714ae642aba451bf91610cc391429160018201906144ec565b6004546001600160a01b03163314610fae5760405162461bcd60e51b81526004016106e2906143b8565b60008111610fbb57600080fd5b600f55565b600454600160a01b900460ff1615610fea5760405162461bcd60e51b81526004016106e290614265565b6004546001600160a01b031633146110145760405162461bcd60e51b81526004016106e2906143b8565b6000600354116110505760405162461bcd60e51b81526020600482015260076024820152666e6f7468696e6760c81b60448201526064016106e2565b600380546000909155600b5460405163255d23d760e11b8152336004820152602481018390526001600160a01b0390911690634aba47ae90604401600060405180830381600087803b1580156110a557600080fd5b505af11580156110b9573d6000803e3d6000fd5b505060408051428152602081018590523093503392507f4bbe6b9abde3c57178a72bffd1868d868a0562c805a8effd250d9f76a2bd8280910160405180910390a350565b600454600160a01b900460ff16156111275760405162461bcd60e51b81526004016106e290614265565b6004546001600160a01b031633146111515760405162461bcd60e51b81526004016106e2906143b8565b60125460ff161580156111645750600085115b8015611171575060135415155b6111aa5760405162461bcd60e51b815260206004820152600a6024820152696261642076616c75657360b01b60448201526064016106e2565b6001600160a01b038616158015906111d057506004546001600160a01b03878116911614155b80156111e557506001600160a01b0386163014155b61121f5760405162461bcd60e51b815260206004820152600b60248201526a626164206164647265737360a81b60448201526064016106e2565b821580159061122d57508015155b6112495760405162461bcd60e51b81526004016106e290614398565b60008080805b6013548310156116c657896001600160a01b0316601384815481106112765761127661440b565b60009182526020909120600160089092020101546001600160a01b0316036116b4576000601384815481106112ad576112ad61440b565b6000918252602091829020604080516101008101825260089093029091018054835260018101546001600160a01b03169383019390935260028301549082018190526003830154606083015260048301546080830152600583015460a0830152600683015460c083015260079092015460ff16151560e082015291508a1080159061133c575080606001518a11155b6113735760405162461bcd60e51b81526020600482015260086024820152673130b2103437bab960c11b60448201526064016106e2565b60008160a0015162015180836080015161138d9190614537565b611397919061454b565b606083015160808401516020850151601480546001600160a01b0319166001600160a01b0390921691909117905560c085015191965094509091506113dc9082614562565b60055460208401516040516370a0823160e01b81526001600160a01b0391821660048201529116906370a0823190602401602060405180830381865afa15801561142a573d6000803e3d6000fd5b505050506040513d601f19601f8201168201806040525081019061144e919061428a565b10156114895760405162461bcd60e51b815260206004820152600a60248201526909cdee840cadcdeeaced60b31b60448201526064016106e2565b6014546004805460c08501516040516303a437c560e51b81526001600160a01b039283169381019390935260248301859052604483015260648201869052608482018e90528d921690637486f8a09060a401600060405180830381600087803b1580156114f557600080fd5b505af1158015611509573d6000803e3d6000fd5b5050505061152281846020015186858760c0015161379a565b600160e084018190526012805460ff191690911790556115428482614562565b61154f906202a300614562565b600155602083810151601880546001600160a01b0319166001600160a01b0390921691909117905560408051601f8d018390049092028201606090810182529082018c815282918e908e9081908501838280828437600092019190915250505090825250604080516020601f8d018190048102820181019092528b815291810191908c908c908190840183828082843760009201829052509390945250506018546001600160a01b031681526016602052604090208251909150819061161590826145c3565b506020820151600182019061162a90826145c3565b50506000805491508061163c83614683565b909155505060208084015160a08086015160c0870151604080518a81529586018790528501919091526060840152608083018590526001600160a01b03909116917f5b9d750bc091c053cf6d861d7a8c4708db4a61c03df21830c1e604ff82c3c467910160405180910390a2600196505050506116c6565b826116be81614683565b93505061124f565b836116ff5760405162461bcd60e51b81526020600482015260096024820152681b9bdd08199bdd5b9960ba1b60448201526064016106e2565b611708836139e2565b5060005b60135481101561177457838114158015611752575061172b8284614562565b6013828154811061173e5761173e61440b565b906000526020600020906008020160000154105b1561176257611760816139e2565b505b8061176c81614683565b91505061170c565b5050505050505050505050565b600454600160a01b900460ff16156117ab5760405162461bcd60e51b81526004016106e290614265565b6004546001600160a01b031633146117d55760405162461bcd60e51b81526004016106e2906143b8565b6201518081101580156117eb575062093a808111155b6117f457600080fd5b601155565b6016602052600090815260409020805481906118149061422b565b80601f01602080910402602001604051908101604052809291908181526020018280546118409061422b565b801561188d5780601f106118625761010080835404028352916020019161188d565b820191906000526020600020905b81548152906001019060200180831161187057829003601f168201915b5050505050908060010180546118a29061422b565b80601f01602080910402602001604051908101604052809291908181526020018280546118ce9061422b565b801561191b5780601f106118f05761010080835404028352916020019161191b565b820191906000526020600020905b8154815290600101906020018083116118fe57829003601f168201915b5050505050905082565b600454600160a01b900460ff161561194f5760405162461bcd60e51b81526004016106e290614265565b6004546001600160a01b031633146119795760405162461bcd60e51b81526004016106e2906143b8565b600081116119b65760405162461bcd60e51b815260206004820152600a60248201526904d757374206e6f7420360b41b60448201526064016106e2565b601055565b600454600160a01b900460ff16156119e55760405162461bcd60e51b81526004016106e290614265565b600d546040516370a0823160e01b81526001600160a01b03808e1660048301528d926000929116906370a0823190602401602060405180830381865afa158015611a33573d6000803e3d6000fd5b505050506040513d601f19601f82011682018060405250810190611a57919061428a565b11611a745760405162461bcd60e51b81526004016106e2906142a3565b600e54601580546001600160a01b0319166001600160a01b0392831690811790915560405162d9267b60e31b81529183166004830152906306c933d890602401606060405180830381865afa158015611ad1573d6000803e3d6000fd5b505050506040513d601f19601f82011682018060405250810190611af591906142ee565b51611b125760405162461bcd60e51b81526004016106e290614357565b60155460405162d9267b60e31b81526001600160a01b038381166004830152339216906306c933d890602401606060405180830381865afa158015611b5b573d6000803e3d6000fd5b505050506040513d601f19601f82011682018060405250810190611b7f91906142ee565b602001516001600160a01b031614611ba95760405162461bcd60e51b81526004016106e290614357565b60005b601354811015611c3e57336001600160a01b031660138281548110611bd357611bd361440b565b60009182526020909120600160089092020101546001600160a01b031603611c2c5760405162461bcd60e51b815260206004820152600c60248201526b616c726561647920646f6e6560a01b60448201526064016106e2565b80611c3681614683565b915050611bac565b5060135460051015611c7d5760405162461bcd60e51b8152602060048201526008602482015267546f6f206d616e7960c01b60448201526064016106e2565b611c8a620151808a61469c565b158015611c9957506008548910155b8015611ca757506011548911155b611cde5760405162461bcd60e51b81526020600482015260086024820152676261642074696d6560c01b60448201526064016106e2565b611cea42611c20614562565b8b118015611d03575061a8c0611d008c8c6143f2565b11155b611d3b5760405162461bcd60e51b815260206004820152600960248201526862616420646174657360b81b60448201526064016106e2565b600088118015611d4d57506000601054115b611d855760405162461bcd60e51b81526020600482015260096024820152686261642076616c756560b81b60448201526064016106e2565b8315801590611d9357508115155b611daf5760405162461bcd60e51b81526004016106e290614398565b6000604051806101000160405280888152602001336001600160a01b031681526020018d81526020018c81526020018b81526020018a815260200189815260200160001515815250905060138190806001815401808255809150506001900390600052602060002090600802016000909190919091506000820151816000015560208201518160010160006101000a8154816001600160a01b0302191690836001600160a01b0316021790555060408201518160020155606082015181600301556080820151816004015560a0820151816005015560c0820151816006015560e08201518160070160006101000a81548160ff0219169083151502179055505050306001600160a01b0316336001600160a01b03167fa525a3c742fc5bd56efc0e8bb27f6fb6037555aa4b86113bb39e7929b18d14e3898f8f8f8f8f8e8e8e8e604051611f059a999897969594939291906146b0565b60405180910390a350505050505050505050505050565b600454600160a01b900460ff1615611f465760405162461bcd60e51b81526004016106e290614265565b600554604051636eb1769f60e11b8152336004820152306024820152829182916001600160a01b039091169063dd62ed3e90604401602060405180830381865afa158015611f98573d6000803e3d6000fd5b505050506040513d601f19601f82011682018060405250810190611fbc919061428a565b1015611ff55760405162461bcd60e51b8152602060048201526008602482015267185c1c1c9bdd985b60c21b60448201526064016106e2565b6000821161202b5760405162461bcd60e51b815260206004820152600360248201526218985960ea1b60448201526064016106e2565b6005546040516370a0823160e01b815233600482015283916001600160a01b0316906370a0823190602401602060405180830381865afa158015612073573d6000803e3d6000fd5b505050506040513d601f19601f82011682018060405250810190612097919061428a565b10156120b55760405162461bcd60e51b81526004016106e29061470f565b6005546120cd906001600160a01b0316333085613bcd565b60408051838152426020820152309133917f224b1db9c133c01e120ca7551e3b56fec93a1f208e1c0509c23361a560a61026910160405180910390a35050565b600c546000906001600160a01b0316331461213a5760405162461bcd60e51b81526004016106e290614357565b6001544210156121745760405162461bcd60e51b815260206004820152600560248201526464656c617960d81b60448201526064016106e2565b60125460ff16801561219057506018546001600160a01b031615155b15612448576018546001600160a01b0316600090815260176020526040812080546121bd906001906143f2565b815481106121cd576121cd61440b565b600091825260209182902060408051610180810182526008909302909101805483526001810154938301939093526002830154908201526003820154606082015260048201546080820152600582015460a0820152600682015460ff808216151560c08401526101008083048216151560e0850152620100008304821615159084015263010000008204811615156101208401526401000000009091041615156101408201526007820180549192916101608401919061228c9061422b565b80601f01602080910402602001604051908101604052809291908181526020018280546122b89061422b565b80156123055780601f106122da57610100808354040283529160200191612305565b820191906000526020600020905b8154815290600101906020018083116122e857829003601f168201915b505050919092525050601854601480546001600160a01b0319166001600160a01b03928316908117909155600b546004805460408051638da5cb5b60e01b815290519798509285169663293e301996509416938392638da5cb5b92818101926020929091908290030181865afa158015612383573d6000803e3d6000fd5b505050506040513d601f19601f820116820180604052508101906123a79190614735565b60608601516040516001600160e01b031960e087901b1681526001600160a01b039485166004820152928416602484015292166044820152426064820152608481019190915260a401600060405180830381600087803b15801561240a57600080fd5b505af115801561241e573d6000803e3d6000fd5b5050600b54606084015160055461244694506001600160a01b03908116935090911690613737565b505b6004805460ff60a01b1916600160a01b1781556009805460ff191660011790556005546040516370a0823160e01b815230928101929092526000916001600160a01b03909116906370a0823190602401602060405180830381865afa1580156124b5573d6000803e3d6000fd5b505050506040513d601f19601f820116820180604052508101906124d9919061428a565b111561256c57600480546005546040516370a0823160e01b8152309381019390935261256c926001600160a01b0392831692909116906370a0823190602401602060405180830381865afa158015612535573d6000803e3d6000fd5b505050506040513d601f19601f82011682018060405250810190612559919061428a565b6005546001600160a01b03169190613737565b600354156125eb57600380546000909155600b546004805460405163255d23d760e11b81526001600160a01b03918216928101929092526024820184905290911690634aba47ae90604401600060405180830381600087803b1580156125d157600080fd5b505af11580156125e5573d6000803e3d6000fd5b50505050505b604051428152309033907f05bec130a67bc2853b0a7f5cfe8590b473fcc3342360d8933fb7064b1ebf8b6d9060200160405180910390a350600190565b600454600160a01b900460ff16156126525760405162461bcd60e51b81526004016106e290614265565b6004546001600160a01b0316331461267c5760405162461bcd60e51b81526004016106e2906143b8565b6001600160a01b038116158015906126a257506004546001600160a01b03828116911614155b80156126b757506001600160a01b0381163014155b6126f15760405162461bcd60e51b815260206004820152600b60248201526a626164206164647265737360a81b60448201526064016106e2565b60135461272a5760405162461bcd60e51b81526020600482015260076024820152666e6f7468696e6760c81b60448201526064016106e2565b60005b60135481101561096857816001600160a01b0316601382815481106127545761275461440b565b60009182526020909120600160089092020101546001600160a01b0316036127e657601381815481106127895761278961440b565b600091825260209091206007600890920201015460ff16156127d85760405162461bcd60e51b81526020600482015260086024820152671858d8d95c1d195960c21b60448201526064016106e2565b6127e1816139e2565b505050565b806127f081614683565b91505061272d565b6004546001600160a01b031633146128225760405162461bcd60e51b81526004016106e2906143b8565b600454600160a01b900460ff16801561283e575060095460ff16155b6128785760405162461bcd60e51b815260206004820152600b60248201526a756e617661696c61626c6560a81b60448201526064016106e2565b821580159061288657508015155b6128a25760405162461bcd60e51b81526004016106e290614398565b6128ae84848484612913565b6004805460ff60a01b19169055604051428152309033907f975a71b6f0e7c3037baf066252bb3dde490161b5536420b1954b32b39316f7b79060200160405180910390a350505050565b600a602052600090815260409020805481906118149061422b565b6004546001600160a01b0316331461293d5760405162461bcd60e51b81526004016106e2906143b8565b60095460ff161561297c5760405162461bcd60e51b815260206004820152600960248201526819195cdd1c9bde595960ba1b60448201526064016106e2565b821580159061298a57508015155b6129a65760405162461bcd60e51b81526004016106e290614398565b306000908152600a60205260409020806129c1858783614752565b50600181016129d1838583614752565b50604051309033907f6cad0fcdfd6b730f10e1bef22b48067bd4880a9e9bec47880bceb85733be339690612a0e9042908a908a908a908a90614813565b60405180910390a35050505050565b600454600160a01b900460ff1615612a475760405162461bcd60e51b81526004016106e290614265565b60125460ff168015612a6357506018546001600160a01b031615155b612a7f5760405162461bcd60e51b81526004016106e290614373565b6018546001600160a01b031660009081526016602052604081208054612aa49061422b565b9050118015612ada57506018546001600160a01b031660009081526016602052604081206001018054612ad69061422b565b9050115b612af65760405162461bcd60e51b81526004016106e290614398565b6004546001600160a01b03163314612b205760405162461bcd60e51b81526004016106e2906143b8565b612b2a6000613417565b565b600454600090600160a01b900460ff1615612b595760405162461bcd60e51b81526004016106e290614265565b6004546001600160a01b03163314612b835760405162461bcd60e51b81526004016106e2906143b8565b60005b601354811015612bea5760075460138281548110612ba657612ba661440b565b90600052602060002090600802016000015442612bc391906143f2565b1115612bd857612bd2816139e2565b50612b86565b80612be281614683565b915050612b86565b600191505090565b600454600160a01b900460ff1615612c1c5760405162461bcd60e51b81526004016106e290614265565b600d546040516370a0823160e01b81526001600160a01b03808416600483015283926000929116906370a0823190602401602060405180830381865afa158015612c6a573d6000803e3d6000fd5b505050506040513d601f19601f82011682018060405250810190612c8e919061428a565b11612cab5760405162461bcd60e51b81526004016106e2906142a3565b600e54601580546001600160a01b0319166001600160a01b0392831690811790915560405162d9267b60e31b81529183166004830152906306c933d890602401606060405180830381865afa158015612d08573d6000803e3d6000fd5b505050506040513d601f19601f82011682018060405250810190612d2c91906142ee565b51612d495760405162461bcd60e51b81526004016106e290614357565b60155460405162d9267b60e31b81526001600160a01b038381166004830152339216906306c933d890602401606060405180830381865afa158015612d92573d6000803e3d6000fd5b505050506040513d601f19601f82011682018060405250810190612db691906142ee565b602001516001600160a01b031614612de05760405162461bcd60e51b81526004016106e290614357565b60125460ff168015612dfc57506018546001600160a01b031615155b612e185760405162461bcd60e51b81526004016106e290614373565b6018546001600160a01b031660009081526016602052604081208054612e3d9061422b565b9050118015612e7357506018546001600160a01b031660009081526016602052604081206001018054612e6f9061422b565b9050115b612e8f5760405162461bcd60e51b81526004016106e290614398565b6018546001600160a01b03163314612eda5760405162461bcd60e51b815260206004820152600e60248201526d31bab93932b73a103932b73a32b960911b60448201526064016106e2565b6018546001600160a01b031660009081526017602052604081208054612f02906001906143f2565b81548110612f1257612f1261440b565b906000526020600020906008020190508060060160029054906101000a900460ff1615612f725760405162461bcd60e51b815260206004820152600e60248201526d1cd9595b5cc81c995d1d5c9b995960921b60448201526064016106e2565b60068101805462ff0000191662010000179055604051309033907f729121cdd407f14c64c9ac6675d96b747e07df398480f86c9ff9ce27d72291b590610cc39042815260200190565b600454600090600160a01b900460ff1615612fe85760405162461bcd60e51b81526004016106e290614265565b6004546001600160a01b031633146130125760405162461bcd60e51b81526004016106e2906143b8565b5060035490565b600454600160a01b900460ff16156130435760405162461bcd60e51b81526004016106e290614265565b6004546001600160a01b0316331461306d5760405162461bcd60e51b81526004016106e2906143b8565b60125460ff16801561308957506018546001600160a01b031615155b6130a55760405162461bcd60e51b81526004016106e290614373565b6018546001600160a01b0316600090815260166020526040812080546130ca9061422b565b905011801561310057506018546001600160a01b0316600090815260166020526040812060010180546130fc9061422b565b9050115b61311c5760405162461bcd60e51b81526004016106e290614398565b601e81146131565760405162461bcd60e51b81526020600482015260076024820152661a5b9d985b1a5960ca1b60448201526064016106e2565b6018546001600160a01b03166000908152601760205260408120805461317e906001906143f2565b8154811061318e5761318e61440b565b906000526020600020906008020190508060060160029054906101000a900460ff1680156131c957506006810154640100000000900460ff16155b6132015760405162461bcd60e51b815260206004820152600960248201526862616420737461746560b81b60448201526064016106e2565b60038101546005546040516370a0823160e01b815230600482015282916001600160a01b0316906370a0823190602401602060405180830381865afa15801561324e573d6000803e3d6000fd5b505050506040513d601f19601f82011682018060405250810190613272919061428a565b10156132905760405162461bcd60e51b81526004016106e29061470f565b601854601480546001600160a01b0319166001600160a01b0392831690811790915560048054604051630bfcef3560e01b81529293630bfcef35936132de939290911691899189910161444a565b600060405180830381600087803b1580156132f857600080fd5b505af115801561330c573d6000803e3d6000fd5b50505060068301805464ff0000000019166401000000001790555060048201546018546001600160a01b031660009081526002602052604081208054839290613356908490614562565b92505081905550806003600082825461336f9190614562565b90915550506012805460ff19169055601880546001600160a01b031981169091556005546001600160a01b03918216916133ab91168285613737565b83546018546001600160a01b039081166000908152601660205260409081902090513093928516927fd1f1a30283b7ed6d050782e027445c7aa39a1666d996d3e3bf09ec20ac74800b926134079289914291600182019061484c565b60405180910390a3505050505050565b6018546001600160a01b03166000908152601760205260408120805461343f906001906143f2565b8154811061344f5761344f61440b565b906000526020600020906008020190508060060160039054906101000a900460ff1615801561348857506006810154610100900460ff16155b6134c05760405162461bcd60e51b815260206004820152600960248201526862616420737461746560b81b60448201526064016106e2565b600080826002015483600301546134d79190614562565b90508315613522576018546001600160a01b031633146135225760405162461bcd60e51b81526020600482015260066024820152653932b73a32b960d11b60448201526064016106e2565b83801561353957506018546001600160a01b031633145b80156135535750825461354f90611c20906143f2565b4210155b61355d5780613586565b61271083600201546103e8613572919061454b565b61357c9190614537565b61358690826143f2565b6005546040516370a0823160e01b815230600482015291935083916001600160a01b03909116906370a0823190602401602060405180830381865afa1580156135d3573d6000803e3d6000fd5b505050506040513d601f19601f820116820180604052508101906135f7919061428a565b10156136155760405162461bcd60e51b81526004016106e29061470f565b8361369f57601854601480546001600160a01b0319166001600160a01b039283169081179091556004805460405163778f520b60e01b81529182018690529092166024830152600160448301529063778f520b90606401600060405180830381600087803b15801561368657600080fd5b505af115801561369a573d6000803e3d6000fd5b505050505b60068301805461ff0019166101001790556012805460ff1916905542600155601880546001600160a01b031981169091556005546001600160a01b03918216916136eb91168285613737565b83546040805191825260208201859052429082015230906001600160a01b038316907f8dba7674f4ebd6a9e5e12953a7582d0a9dd220e6c27941dec40f27ff52d6722f90606001612a0e565b6040516001600160a01b0383166024820152604481018290526127e190849063a9059cbb60e01b906064015b60408051601f198184030181529190526020810180516001600160e01b03166001600160e01b031990931692909217909152613c0b565b600454600160a01b900460ff16156137c45760405162461bcd60e51b81526004016106e290614265565b612710600654836137d5919061454b565b6137e090606461454b565b10156137eb57600080fd5b6000612710600654846137fe919061454b565b61380990606461454b565b6138139190614537565b905060006138218385614562565b905060176000876001600160a01b03166001600160a01b03168152602001908152602001600020604051806101800160405280898152602001878152602001868152602001858152602001848152602001838152602001600115158152602001600015158152602001600015158152602001600015158152602001600015158152602001604051806020016040528060008152508152509080600181540180825580915050600190039060005260206000209060080201600090919091909150600082015181600001556020820151816001015560408201518160020155606082015181600301556080820151816004015560a0820151816005015560c08201518160060160006101000a81548160ff02191690831515021790555060e08201518160060160016101000a81548160ff0219169083151502179055506101008201518160060160026101000a81548160ff0219169083151502179055506101208201518160060160036101000a81548160ff0219169083151502179055506101408201518160060160046101000a81548160ff0219169083151502179055506101608201518160070190816139d691906145c3565b50505050505050505050565b600080601383815481106139f8576139f861440b565b60009182526020822060016008909202010154601380546001600160a01b0390921693509085908110613a2d57613a2d61440b565b906000526020600020906008020160000154905060136001601380549050613a5591906143f2565b81548110613a6557613a6561440b565b906000526020600020906008020160138581548110613a8657613a8661440b565b60009182526020909120825460089092020190815560018083015490820180546001600160a01b0319166001600160a01b0390921691909117905560028083015490820155600380830154908201556004808301549082015560058083015490820155600680830154908201556007918201549101805460ff909216151560ff199092169190911790556013805480613b2157613b21614883565b6000828152602081206008600019909301928302018181556001810180546001600160a01b0319169055600281018290556003810182905560048101829055600581018290556006810191909155600701805460ff19169055905560405130906001600160a01b038416907f1a07a16d411b1999de40db18a15f956f20021655f5dc8cf7685cdb7c9447710f90613bbb9085815260200190565b60405180910390a35060019392505050565b6040516001600160a01b0380851660248301528316604482015260648101829052613c059085906323b872dd60e01b90608401613763565b50505050565b6000613c60826040518060400160405280602081526020017f5361666545524332303a206c6f772d6c6576656c2063616c6c206661696c6564815250856001600160a01b0316613cdd9092919063ffffffff16565b8051909150156127e15780806020019051810190613c7e9190614899565b6127e15760405162461bcd60e51b815260206004820152602a60248201527f5361666545524332303a204552433230206f7065726174696f6e20646964206e6044820152691bdd081cdd58d8d9595960b21b60648201526084016106e2565b6060613cec8484600085613cf4565b949350505050565b606082471015613d555760405162461bcd60e51b815260206004820152602660248201527f416464726573733a20696e73756666696369656e742062616c616e636520666f6044820152651c8818d85b1b60d21b60648201526084016106e2565b600080866001600160a01b03168587604051613d7191906148b4565b60006040518083038185875af1925050503d8060008114613dae576040519150601f19603f3d011682016040523d82523d6000602084013e613db3565b606091505b5091509150613dc487838387613dcf565b979650505050505050565b60608315613e3e578251600003613e37576001600160a01b0385163b613e375760405162461bcd60e51b815260206004820152601d60248201527f416464726573733a2063616c6c20746f206e6f6e2d636f6e747261637400000060448201526064016106e2565b5081613cec565b613cec8383815115613e535781518083602001fd5b8060405162461bcd60e51b81526004016106e291906148d0565b600060208284031215613e7f57600080fd5b5035919050565b6001600160a01b0381168114613e9b57600080fd5b50565b60008060408385031215613eb157600080fd5b8235613ebc81613e86565b946020939093013593505050565b60005b83811015613ee5578181015183820152602001613ecd565b50506000910152565b60008151808452613f06816020860160208601613eca565b601f01601f19169290920160200192915050565b60006101808e83528d60208401528c60408401528b60608401528a60808401528960a084015288151560c084015287151560e084015286151561010084015285151561012084015284151561014084015280610160840152613f7e81840185613eee565b9f9e505050505050505050505050505050565b600060208284031215613fa357600080fd5b8135613fae81613e86565b9392505050565b60008083601f840112613fc757600080fd5b50813567ffffffffffffffff811115613fdf57600080fd5b602083019150836020828501011115613ff757600080fd5b9250929050565b6000806020838503121561401157600080fd5b823567ffffffffffffffff81111561402857600080fd5b61403485828601613fb5565b90969095509350505050565b6000806000806000806080878903121561405957600080fd5b863561406481613e86565b955060208701359450604087013567ffffffffffffffff8082111561408857600080fd5b6140948a838b01613fb5565b909650945060608901359150808211156140ad57600080fd5b506140ba89828a01613fb5565b979a9699509497509295939492505050565b6040815260006140df6040830185613eee565b82810360208401526140f18185613eee565b95945050505050565b60008060008060008060008060008060006101208c8e03121561411c57600080fd5b6141268c35613e86565b8b359a5060208c0135995060408c0135985060608c0135975060808c0135965060a08c0135955060c08c0135945067ffffffffffffffff8060e08e0135111561416e57600080fd5b61417e8e60e08f01358f01613fb5565b90955093506101008d013581101561419557600080fd5b506141a78d6101008e01358e01613fb5565b81935080925050509295989b509295989b9093969950565b600080600080604085870312156141d557600080fd5b843567ffffffffffffffff808211156141ed57600080fd5b6141f988838901613fb5565b9096509450602087013591508082111561421257600080fd5b5061421f87828801613fb5565b95989497509550505050565b600181811c9082168061423f57607f821691505b60208210810361425f57634e487b7160e01b600052602260045260246000fd5b50919050565b6020808252600b908201526a19195858dd1a5d985d195960aa1b604082015260600190565b60006020828403121561429c57600080fd5b5051919050565b602080825260069082015265139bc813919560d21b604082015260600190565b634e487b7160e01b600052604160045260246000fd5b805180151581146142e957600080fd5b919050565b60006060828403121561430057600080fd5b6040516060810181811067ffffffffffffffff82111715614323576143236142c3565b60405261432f836142d9565b8152602083015161433f81613e86565b60208201526040928301519281019290925250919050565b6020808252600290820152611ddb60f21b604082015260600190565b6020808252600b908201526a626164206c656e64696e6760a81b604082015260600190565b6020808252600690820152656e6f2047505360d01b604082015260600190565b6020808252600a908201526937b7363c9037bbb732b960b11b604082015260600190565b634e487b7160e01b600052601160045260246000fd5b81810381811115614405576144056143dc565b92915050565b634e487b7160e01b600052603260045260246000fd5b81835281816020850137506000828201602090810191909152601f909101601f19169091010190565b6001600160a01b03841681526040602082018190526000906140f19083018486614421565b6000815461447c8161422b565b80855260206001838116801561449957600181146144b3576144e1565b60ff1985168884015283151560051b8801830195506144e1565b866000528260002060005b858110156144d95781548a82018601529083019084016144be565b890184019650505b505050505092915050565b838152606060208201526000614505606083018561446f565b8281036040840152614517818561446f565b9695505050505050565b634e487b7160e01b600052601260045260246000fd5b60008261454657614546614521565b500490565b8082028115828204841417614405576144056143dc565b80820180821115614405576144056143dc565b601f8211156127e157600081815260208120601f850160051c8101602086101561459c5750805b601f850160051c820191505b818110156145bb578281556001016145a8565b505050505050565b815167ffffffffffffffff8111156145dd576145dd6142c3565b6145f1816145eb845461422b565b84614575565b602080601f831160018114614626576000841561460e5750858301515b600019600386901b1c1916600185901b1785556145bb565b600085815260208120601f198616915b8281101561465557888601518255948401946001909101908401614636565b50858210156146735787850151600019600388901b60f8161c191681555b5050505050600190811b01905550565b600060018201614695576146956143dc565b5060010190565b6000826146ab576146ab614521565b500690565b60006101008c83528b60208401528a60408401528960608401528860808401528760a08401528060c08401526146e98184018789614421565b905082810360e08401526146fe818587614421565b9d9c50505050505050505050505050565b6020808252600c908201526b125b9cdd59999a58da595b9d60a21b604082015260600190565b60006020828403121561474757600080fd5b8151613fae81613e86565b67ffffffffffffffff83111561476a5761476a6142c3565b61477e83614778835461422b565b83614575565b6000601f8411600181146147b2576000851561479a5750838201355b600019600387901b1c1916600186901b17835561480c565b600083815260209020601f19861690835b828110156147e357868501358255602094850194600190920191016147c3565b50868210156148005760001960f88860031b161c19848701351681555b505060018560011b0183555b5050505050565b85815260606020820152600061482d606083018688614421565b8281036040840152614840818587614421565b98975050505050505050565b85815284602082015283604082015260a06060820152600061487160a083018561446f565b8281036080840152614840818561446f565b634e487b7160e01b600052603160045260246000fd5b6000602082840312156148ab57600080fd5b613fae826142d9565b600082516148c6818460208701613eca565b9190910192915050565b602081526000613fae6020830184613eee56fea2646970667358221220d8f9c75779d554c5dda8f92ec21c631a01881f26e4c0545f9a117b7f80aa054764736f6c63430008120033a264697066735822122012efa0cb668703fc5950562197669425b0622cbb3cf097d4ec17f66933b3db6c64736f6c63430008120033",
  "immutableReferences": {},
  "source": "// SPDX-License-Identifier: CC-BY-4.0\npragma solidity ^0.8.17;\n\n//import \"@openzeppelin/contracts/token/ERC20/ERC20.sol\";\n//import \"@openzeppelin/contracts/access/Ownable.sol\";\nimport \"../node_modules/@openzeppelin/contracts/token/ERC20/ERC20.sol\";\nimport \"../node_modules/@openzeppelin/contracts/access/Ownable.sol\";\nimport \"./BikeShare.sol\";\n\n/**\n@dev This interface is used to interact with the Vault contract.\n */\n\ninterface IVaultW2R {\n    function setApprovedContract(address contractAddress, bool status) external;\n\n    function removeApprovedContract(\n        address contractAddress\n    ) external returns (bool);\n}\n\n/**\n@dev This interface is used to interact with the TwoWheels2RentLender contract.\n */\n\ninterface I1TwoWheels2RentLender {\n    struct BikeInfo {\n        string name;\n        string brand;\n        string model;\n        string serial;\n        string registration;\n    }\n\n    // import string ipfsHash length from TwoWheels2RentLender.sol\n    function getIpfsHashLength() external view returns (bool);\n\n    function mintNFT(\n        address recipient,\n        BikeInfo calldata bikeInfo\n    ) external returns (uint);\n\n    function burnNFT(uint tokenId) external returns (bool);\n}\n\n/**\n\n* @title LenderWhitelist\n* @author Crypt0zaurus https://www.linkedin.com/in/maxence-a-a82081260\n* @notice LenderWhitelist is a contract for managing a whitelist of approved lenders for the TwoWheels2Rent platform. \n* It allows lenders to register their bikes, mint NFTs representing their bikes, and deploy BikeShare contracts.\n* @dev This contract is responsible for maintaining the whitelist of lenders, handling the creation of BikeShare contracts, \n* and interacting with the TwoWheels2RentLender, W2R token, and RenterWhitelist contracts. \n* It also manages the lender blacklist.\n*/\n\ncontract LenderWhitelist is Ownable {\n    // keep track of the number of whitelisted addresses\n    uint8 public numAddressesWhitelisted;\n\n    // address of the renter NFT contract\n    address TW2RRenterNFT;\n\n    // address of the renter whitelist contract\n    address renterWhitelist;\n\n    // import W2R token contract\n    ERC20 public W2R;\n\n    // import VaultW2R interface\n    IVaultW2R private vaultW2R;\n\n    // struct of whitelisted addresses\n    struct Lender {\n        bool isWhitelisted;\n        address bikeShareContract;\n        uint NFTId;\n    }\n\n    // mapping of whitelisted addresses, starting false for all addresses\n    mapping(address => Lender) public whitelistedAddresses;\n    // blacklist mapping\n    mapping(address => bool) public blacklistedAddresses;\n    // mapping of last subscription timestamp\n    mapping(address => uint) private lastSubscriptionTimestamp;\n\n    I1TwoWheels2RentLender TW2RL;\n\n    BikeShare bikeShare;\n\n    event LenderWhitelisted(address indexed lender, uint NFTId);\n    event LenderBlacklisted(address indexed lender, uint NFTId);\n    event LenderRemovedFromBlacklist(address indexed lender);\n    event LenderRemovedFromWhitelist(address indexed lender, uint NFTId);\n\n    /**\n     * @notice Constructor that initializes the contract with the TwoWheels2RentLender, W2R token, Renter NFT contract, and VaultW2R contract addresses.\n     * @param _TW2RL The address of the TwoWheels2RentLender contract.\n     * @param _W2R The address of the W2R token contract.\n     * @param _TW2RRenterNFT The address of the Renter NFT contract.\n     * @param _vaultW2R The address of the VaultW2R contract.\n     */\n    constructor(\n        address _TW2RL,\n        address _W2R,\n        address _TW2RRenterNFT,\n        IVaultW2R _vaultW2R\n    ) {\n        require(\n            _TW2RL != address(0) &&\n                _W2R != address(0) &&\n                _TW2RRenterNFT != address(0) &&\n                address(_vaultW2R) != address(0),\n            \"bad address\"\n        );\n        vaultW2R = _vaultW2R;\n        // set the address of the TwoWheels2RentLender contract\n        TW2RL = I1TwoWheels2RentLender(_TW2RL);\n        // set the address of the W2R token contract\n        W2R = ERC20(_W2R);\n        // set the address of the lender NFT contract\n        TW2RRenterNFT = _TW2RRenterNFT;\n    }\n\n    /**\n     * @notice Sets the RenterWhitelist contract address.\n     * @param _renterWhitelist The address of the RenterWhitelist contract.\n     */\n    function setRenterWhitelistAddress(\n        address _renterWhitelist\n    ) external onlyOwner {\n        require(_renterWhitelist != address(0));\n        // set the address of the TwoWheels2RentrenterWhitelist contract\n        renterWhitelist = _renterWhitelist;\n    }\n\n    /**\n    @notice Whitelists a lender, sets bike information, and mints a new NFT representing the bike.\n    @param name The name of the bike.\n    @param brand The brand of the bike.\n    @param model The model of the bike.\n    @param serial The serial number of the bike.\n    @param registration The registration number of the bike.\n    */\n    function setBikeInfoAndMint(\n        string memory name,\n        string memory brand,\n        string memory model,\n        string memory serial,\n        string memory registration\n    ) external {\n        require(!blacklistedAddresses[msg.sender], \"bl\");\n        require(!whitelistedAddresses[msg.sender].isWhitelisted, \"wl\");\n        uint currentTime = block.timestamp;\n        require(\n            currentTime - lastSubscriptionTimestamp[msg.sender] >= 2 days,\n            \"once in 2 days\"\n        );\n        require(\n            whitelistedAddresses[msg.sender].bikeShareContract == address(0),\n            \"deployed\"\n        );\n        require(whitelistedAddresses[msg.sender].NFTId == 0, \"minted\");\n        require(\n            bytes(name).length > 0 &&\n                bytes(brand).length > 0 &&\n                bytes(model).length > 0 &&\n                bytes(serial).length > 0 &&\n                bytes(registration).length > 0,\n            \"empty\"\n        );\n        require(\n            bytes(name).length <= 40 &&\n                bytes(brand).length <= 40 &&\n                bytes(model).length <= 40 &&\n                bytes(serial).length <= 40 &&\n                bytes(registration).length <= 40,\n            \"Too long\"\n        );\n        // check if the image is set\n        require(TW2RL.getIpfsHashLength(), \"no IPFS\");\n        // set the BikeInfo struct\n        I1TwoWheels2RentLender.BikeInfo memory bikeInfo = I1TwoWheels2RentLender\n            .BikeInfo(name, brand, model, serial, registration);\n        // add the address to the whitelist\n        whitelistedAddresses[msg.sender].isWhitelisted = true;\n        numAddressesWhitelisted++;\n        // mint and add the NFT id to the mapping\n        whitelistedAddresses[msg.sender].NFTId = TW2RL.mintNFT(\n            msg.sender,\n            bikeInfo\n        );\n        // deploy bikeShare contract\n        deployBikeShareContract();\n        lastSubscriptionTimestamp[msg.sender] = currentTime;\n        emit LenderWhitelisted(\n            msg.sender,\n            whitelistedAddresses[msg.sender].NFTId\n        );\n    }\n\n    /**\n    @notice Deploys a new BikeShare contract for the lender.\n    */\n\n    function deployBikeShareContract() private {\n        require(!blacklistedAddresses[msg.sender], \"bl\");\n        require(whitelistedAddresses[msg.sender].isWhitelisted, \"Not wl\");\n        require(\n            whitelistedAddresses[msg.sender].bikeShareContract == address(0),\n            \"deployed\"\n        );\n        require(whitelistedAddresses[msg.sender].NFTId != 0, \"Not minted\");\n        require(renterWhitelist != address(0), \"not set\");\n        bikeShare = new BikeShare(\n            // the address of the caller of this function\n            msg.sender,\n            // the address of the W2R token contract\n            address(W2R),\n            // the address of the Renter NFT contract\n            TW2RRenterNFT,\n            // address of this contract\n            address(this),\n            // address of vaultW2R\n            address(vaultW2R),\n            // address of renterWhitelist\n            renterWhitelist\n        );\n        // add the bikeShare contract address to the mapping\n        whitelistedAddresses[msg.sender].bikeShareContract = address(bikeShare);\n        // authorize the bikeShare contract to spend vault W2R tokens\n        vaultW2R.setApprovedContract(address(bikeShare), true);\n    }\n\n    /**\n    @notice Removes a lender from the whitelist, burns their NFT, and destroys their BikeShare contract.\n    */\n\n    function removeAddressFromWhitelist() external {\n        require(!blacklistedAddresses[msg.sender], \"bl\");\n        // msg.sender is the address of the caller of this function\n        require(whitelistedAddresses[msg.sender].isWhitelisted, \"Not wl\");\n        doRemoveStuff(msg.sender);\n        // emit event\n        emit LenderRemovedFromWhitelist(\n            msg.sender,\n            whitelistedAddresses[msg.sender].NFTId\n        );\n    }\n\n    /**\n    @notice Adds a lender's address to the blacklist.\n    @param _address The address of the lender to be blacklisted.\n    */\n\n    function addToBlacklist(address _address) external onlyOwner {\n        require(!blacklistedAddresses[_address], \"bl\");\n        // if address was whitelisted\n        if (whitelistedAddresses[_address].isWhitelisted) {\n            require(doRemoveStuff(_address), \"Error\");\n            // add address to blacklist\n            blacklistedAddresses[_address] = true;\n            // emit event\n            emit LenderBlacklisted(\n                _address,\n                whitelistedAddresses[_address].NFTId\n            );\n        }\n    }\n\n    /**\n    @notice Removes a lender's address from the blacklist.\n    @param _address The address of the lender to be removed from the blacklist.\n    */\n\n    function removeFromBlacklist(address _address) external onlyOwner {\n        require(blacklistedAddresses[_address], \"Not bl\");\n        // remove address from blacklist\n        delete blacklistedAddresses[_address];\n        // emit event\n        emit LenderRemovedFromBlacklist(_address);\n    }\n\n    /**\n    @notice Helper function that handles the removal of a lender from the whitelist and performs necessary actions like burning their NFT and destroying their BikeShare contract.\n    @param _address The address of the lender to be removed.\n    @return true if the operation is successful, false otherwise.\n    */\n\n    function doRemoveStuff(address _address) private returns (bool) {\n        // burn NFT\n        require(\n            TW2RL.burnNFT(whitelistedAddresses[_address].NFTId),\n            \"Can't burn\"\n        );\n        // destroy bikeShare contract\n        bikeShare = BikeShare(whitelistedAddresses[_address].bikeShareContract);\n        require(bikeShare.destroy(), \"Can't destroy\");\n        require(\n            vaultW2R.removeApprovedContract(address(bikeShare)),\n            \"error removing\"\n        );\n        // remove address from whitelist\n        delete whitelistedAddresses[_address];\n        numAddressesWhitelisted--;\n        return true;\n    }\n\n    /**\n    @notice Disallows renouncing ownership of the contract.\n    */\n\n    function renounceOwnership() public view override onlyOwner {\n        revert(\"cant renounce\");\n    }\n}\n",
  "sourcePath": "/Users/harbinger/Library/CloudStorage/Dropbox/Dossier familial/Formation Blockchain/Alyra/Projet Certification/Projet Alyra 2Wheels2Rent/truffle/contracts/LenderWhitelist.sol",
  "compiler": {
    "name": "solc",
    "version": "0.8.18+commit.87f61d96.Emscripten.clang"
  },
  "schemaVersion": "3.4.16",
  "updatedAt": "2024-05-27T21:47:58.681Z",
  "networkType": "ethereum",
  "devdoc": {
    "author": "Crypt0zaurus https://www.linkedin.com/in/maxence-a-a82081260",
    "details": "This contract is responsible for maintaining the whitelist of lenders, handling the creation of BikeShare contracts,  and interacting with the TwoWheels2RentLender, W2R token, and RenterWhitelist contracts.  It also manages the lender blacklist.",
    "kind": "dev",
    "methods": {
      "addToBlacklist(address)": {
        "params": {
          "_address": "The address of the lender to be blacklisted."
        }
      },
      "constructor": {
        "params": {
          "_TW2RL": "The address of the TwoWheels2RentLender contract.",
          "_TW2RRenterNFT": "The address of the Renter NFT contract.",
          "_W2R": "The address of the W2R token contract.",
          "_vaultW2R": "The address of the VaultW2R contract."
        }
      },
      "owner()": {
        "details": "Returns the address of the current owner."
      },
      "removeFromBlacklist(address)": {
        "params": {
          "_address": "The address of the lender to be removed from the blacklist."
        }
      },
      "setBikeInfoAndMint(string,string,string,string,string)": {
        "params": {
          "brand": "The brand of the bike.",
          "model": "The model of the bike.",
          "name": "The name of the bike.",
          "registration": "The registration number of the bike.",
          "serial": "The serial number of the bike."
        }
      },
      "setRenterWhitelistAddress(address)": {
        "params": {
          "_renterWhitelist": "The address of the RenterWhitelist contract."
        }
      },
      "transferOwnership(address)": {
        "details": "Transfers ownership of the contract to a new account (`newOwner`). Can only be called by the current owner."
      }
    },
    "title": "LenderWhitelist",
    "version": 1
  },
  "userdoc": {
    "kind": "user",
    "methods": {
      "addToBlacklist(address)": {
        "notice": "Adds a lender's address to the blacklist."
      },
      "constructor": {
        "notice": "Constructor that initializes the contract with the TwoWheels2RentLender, W2R token, Renter NFT contract, and VaultW2R contract addresses."
      },
      "removeAddressFromWhitelist()": {
        "notice": "Removes a lender from the whitelist, burns their NFT, and destroys their BikeShare contract."
      },
      "removeFromBlacklist(address)": {
        "notice": "Removes a lender's address from the blacklist."
      },
      "renounceOwnership()": {
        "notice": "Disallows renouncing ownership of the contract."
      },
      "setBikeInfoAndMint(string,string,string,string,string)": {
        "notice": "Whitelists a lender, sets bike information, and mints a new NFT representing the bike."
      },
      "setRenterWhitelistAddress(address)": {
        "notice": "Sets the RenterWhitelist contract address."
      }
    },
    "notice": "LenderWhitelist is a contract for managing a whitelist of approved lenders for the TwoWheels2Rent platform.  It allows lenders to register their bikes, mint NFTs representing their bikes, and deploy BikeShare contracts.",
    "version": 1
  }
}