{
  "contractName": "LenderWhitelist",
  "abi": [
    {
      "inputs": [
        {
          "internalType": "address",
          "name": "_TW2RL",
          "type": "address"
        },
        {
          "internalType": "address",
          "name": "_W2R",
          "type": "address"
        },
        {
          "internalType": "address",
          "name": "_TW2RRenterNFT",
          "type": "address"
        },
        {
          "internalType": "contract IVaultW2R",
          "name": "_vaultW2R",
          "type": "address"
        }
      ],
      "stateMutability": "nonpayable",
      "type": "constructor"
    },
    {
      "anonymous": false,
      "inputs": [
        {
          "indexed": true,
          "internalType": "address",
          "name": "lender",
          "type": "address"
        },
        {
          "indexed": false,
          "internalType": "uint256",
          "name": "NFTId",
          "type": "uint256"
        }
      ],
      "name": "LenderBlacklisted",
      "type": "event"
    },
    {
      "anonymous": false,
      "inputs": [
        {
          "indexed": true,
          "internalType": "address",
          "name": "lender",
          "type": "address"
        }
      ],
      "name": "LenderRemovedFromBlacklist",
      "type": "event"
    },
    {
      "anonymous": false,
      "inputs": [
        {
          "indexed": true,
          "internalType": "address",
          "name": "lender",
          "type": "address"
        },
        {
          "indexed": false,
          "internalType": "uint256",
          "name": "NFTId",
          "type": "uint256"
        }
      ],
      "name": "LenderRemovedFromWhitelist",
      "type": "event"
    },
    {
      "anonymous": false,
      "inputs": [
        {
          "indexed": true,
          "internalType": "address",
          "name": "lender",
          "type": "address"
        },
        {
          "indexed": false,
          "internalType": "uint256",
          "name": "NFTId",
          "type": "uint256"
        }
      ],
      "name": "LenderWhitelisted",
      "type": "event"
    },
    {
      "anonymous": false,
      "inputs": [
        {
          "indexed": true,
          "internalType": "address",
          "name": "previousOwner",
          "type": "address"
        },
        {
          "indexed": true,
          "internalType": "address",
          "name": "newOwner",
          "type": "address"
        }
      ],
      "name": "OwnershipTransferred",
      "type": "event"
    },
    {
      "inputs": [],
      "name": "W2R",
      "outputs": [
        {
          "internalType": "contract ERC20",
          "name": "",
          "type": "address"
        }
      ],
      "stateMutability": "view",
      "type": "function",
      "constant": true
    },
    {
      "inputs": [
        {
          "internalType": "address",
          "name": "",
          "type": "address"
        }
      ],
      "name": "blacklistedAddresses",
      "outputs": [
        {
          "internalType": "bool",
          "name": "",
          "type": "bool"
        }
      ],
      "stateMutability": "view",
      "type": "function",
      "constant": true
    },
    {
      "inputs": [],
      "name": "numAddressesWhitelisted",
      "outputs": [
        {
          "internalType": "uint8",
          "name": "",
          "type": "uint8"
        }
      ],
      "stateMutability": "view",
      "type": "function",
      "constant": true
    },
    {
      "inputs": [],
      "name": "owner",
      "outputs": [
        {
          "internalType": "address",
          "name": "",
          "type": "address"
        }
      ],
      "stateMutability": "view",
      "type": "function",
      "constant": true
    },
    {
      "inputs": [
        {
          "internalType": "address",
          "name": "newOwner",
          "type": "address"
        }
      ],
      "name": "transferOwnership",
      "outputs": [],
      "stateMutability": "nonpayable",
      "type": "function"
    },
    {
      "inputs": [
        {
          "internalType": "address",
          "name": "",
          "type": "address"
        }
      ],
      "name": "whitelistedAddresses",
      "outputs": [
        {
          "internalType": "bool",
          "name": "isWhitelisted",
          "type": "bool"
        },
        {
          "internalType": "address",
          "name": "bikeShareContract",
          "type": "address"
        },
        {
          "internalType": "uint256",
          "name": "NFTId",
          "type": "uint256"
        }
      ],
      "stateMutability": "view",
      "type": "function",
      "constant": true
    },
    {
      "inputs": [
        {
          "internalType": "address",
          "name": "_renterWhitelist",
          "type": "address"
        }
      ],
      "name": "setRenterWhitelistAddress",
      "outputs": [],
      "stateMutability": "nonpayable",
      "type": "function"
    },
    {
      "inputs": [
        {
          "internalType": "string",
          "name": "name",
          "type": "string"
        },
        {
          "internalType": "string",
          "name": "brand",
          "type": "string"
        },
        {
          "internalType": "string",
          "name": "model",
          "type": "string"
        },
        {
          "internalType": "string",
          "name": "serial",
          "type": "string"
        },
        {
          "internalType": "string",
          "name": "registration",
          "type": "string"
        }
      ],
      "name": "setBikeInfoAndMint",
      "outputs": [],
      "stateMutability": "nonpayable",
      "type": "function"
    },
    {
      "inputs": [],
      "name": "removeAddressFromWhitelist",
      "outputs": [],
      "stateMutability": "nonpayable",
      "type": "function"
    },
    {
      "inputs": [
        {
          "internalType": "address",
          "name": "_address",
          "type": "address"
        }
      ],
      "name": "addToBlacklist",
      "outputs": [],
      "stateMutability": "nonpayable",
      "type": "function"
    },
    {
      "inputs": [
        {
          "internalType": "address",
          "name": "_address",
          "type": "address"
        }
      ],
      "name": "removeFromBlacklist",
      "outputs": [],
      "stateMutability": "nonpayable",
      "type": "function"
    },
    {
      "inputs": [],
      "name": "renounceOwnership",
      "outputs": [],
      "stateMutability": "view",
      "type": "function",
      "constant": true
    }
  ],
  "bytecode": "0x60806040523480156200001157600080fd5b5060405162005f5538038062005f55833981016040819052620000349162000149565b6200003f33620000e0565b6001600160a01b0384166200005357600080fd5b6001600160a01b0383166200006757600080fd5b6001600160a01b0382166200007b57600080fd5b6001600160a01b0381166200008f57600080fd5b600480546001600160a01b03199081166001600160a01b03938416179091556007805482169583169590951790945560038054851693821693909317909255600180549093169116179055620001b1565b600080546001600160a01b038381166001600160a01b0319831681178455604051919092169283917f8be0079c531659141344cd1fd0a4f28419497f9722a3daafe3b4186f6b6457e09190a35050565b6001600160a01b03811681146200014657600080fd5b50565b600080600080608085870312156200016057600080fd5b84516200016d8162000130565b6020860151909450620001808162000130565b6040860151909350620001938162000130565b6060860151909250620001a68162000130565b939692955090935050565b615d9480620001c16000396000f3fe60806040523480156200001157600080fd5b5060043610620000c35760003560e01c8063715018a6116200007a578063715018a614620001b65780638da5cb5b14620001c05780638f03607214620001e6578063bde9768714620001fa578063d5749d421462000204578063f2fde38b146200023b57600080fd5b806306c933d814620000c85780632084c35014620001305780634011d7cd146200014957806344337ea11462000171578063537df3b614620001885780635d477f32146200019f575b600080fd5b62000106620000d93660046200107d565b6005602052600090815260409020805460019091015460ff82169161010090046001600160a01b03169083565b6040805193151584526001600160a01b039092166020840152908201526060015b60405180910390f35b62000147620001413660046200115a565b62000252565b005b6000546200015e90600160a01b900460ff1681565b60405160ff909116815260200162000127565b62000147620001823660046200107d565b620006a7565b62000147620001993660046200107d565b620007b9565b62000147620001b03660046200107d565b62000868565b62000147620008a8565b6000546001600160a01b03165b6040516001600160a01b03909116815260200162000127565b600354620001cd906001600160a01b031681565b62000147620008f1565b6200022a620002153660046200107d565b60066020526000908152604090205460ff1681565b604051901515815260200162000127565b620001476200024c3660046200107d565b620009cc565b3360009081526006602052604090205460ff16156200028e5760405162461bcd60e51b815260040162000285906200123c565b60405180910390fd5b3360009081526005602052604090205460ff1615620002e65760405162461bcd60e51b8152602060048201526013602482015272105b1c9958591e481dda1a5d195b1a5cdd1959606a1b604482015260640162000285565b3360009081526005602052604090205461010090046001600160a01b031615620003465760405162461bcd60e51b815260206004820152601060248201526f105b1c9958591e4819195c1b1bde595960821b604482015260640162000285565b3360009081526005602052604090206001015415620003995760405162461bcd60e51b815260206004820152600e60248201526d105b1c9958591e481b5a5b9d195960921b604482015260640162000285565b60008551118015620003ac575060008451115b8015620003ba575060008351115b8015620003c8575060008251115b8015620003d6575060008151115b620004135760405162461bcd60e51b815260206004820152600c60248201526b456d707479206669656c647360a01b604482015260640162000285565b60288551111580156200042857506028845111155b80156200043757506028835111155b80156200044657506028825111155b80156200045557506028815111155b6200048e5760405162461bcd60e51b8152602060048201526008602482015267546f6f206c6f6e6760c01b604482015260640162000285565b600760009054906101000a90046001600160a01b03166001600160a01b031663402199456040518163ffffffff1660e01b8152600401602060405180830381865afa158015620004e2573d6000803e3d6000fd5b505050506040513d601f19601f8201168201806040525081019062000508919062001261565b620005455760405162461bcd60e51b815260206004820152600c60248201526b12541194c81b9bdd081cd95d60a21b604482015260640162000285565b6040805160a081018252868152602080820187905281830186905260608201859052608082018490523360009081526005909152918220805460ff1916600117905581549091600160a01b90910460ff16906014620005a4836200129b565b825460ff9182166101009390930a92830291909202199091161790555060075460405163df54bc7d60e01b81526001600160a01b039091169063df54bc7d90620005f5903390859060040162001305565b6020604051808303816000875af115801562000615573d6000803e3d6000fd5b505050506040513d601f19601f820116820180604052508101906200063b9190620013b9565b336000908152600560205260409020600101556200065862000a48565b336000818152600560209081526040918290206001015491519182527f741fddb52b438ae67c305c126b93c8bd6908e85edde1df05b368280b4bedce85910160405180910390a2505050505050565b620006b162000cf6565b6001600160a01b03811660009081526006602052604090205460ff1615620006ed5760405162461bcd60e51b815260040162000285906200123c565b6001600160a01b03811660009081526005602052604090205460ff1615620007b6576200071a8162000d54565b620007505760405162461bcd60e51b815260206004820152600560248201526422b93937b960d91b604482015260640162000285565b6001600160a01b0381166000818152600660209081526040808320805460ff1916600190811790915560058352928190209092015491519182527fe03cac1af31e06f8a3f8807bfe0e351bbf731880f309f9a8eebe0861a5de3a95910160405180910390a25b50565b620007c362000cf6565b6001600160a01b03811660009081526006602052604090205460ff166200081f5760405162461bcd60e51b815260206004820152600f60248201526e139bdd08189b1858dadb1a5cdd1959608a1b604482015260640162000285565b6001600160a01b038116600081815260066020526040808220805460ff19169055517f1028c66f436fb7e41e5c662d4bb9cd9759a20532ae5bb2a3fa6ffc2c3e0c536c9190a250565b6200087262000cf6565b6001600160a01b0381166200088657600080fd5b600280546001600160a01b0319166001600160a01b0392909216919091179055565b620008b262000cf6565b60405162461bcd60e51b815260206004820152601360248201527218d85b9b9bdd081899481c995b9bdd5b98d959606a1b604482015260640162000285565b3360009081526006602052604090205460ff1615620009245760405162461bcd60e51b815260040162000285906200123c565b3360009081526005602052604090205460ff16620009775760405162461bcd60e51b815260206004820152600f60248201526e139bdd081dda1a5d195b1a5cdd1959608a1b604482015260640162000285565b620009823362000d54565b50336000818152600560209081526040918290206001015491519182527f0607b543799f537b75d9e50a645de8d5ccc7f56dd377a3fda80c69a7d8d0aabf910160405180910390a2565b620009d662000cf6565b6001600160a01b03811662000a3d5760405162461bcd60e51b815260206004820152602660248201527f4f776e61626c653a206e6577206f776e657220697320746865207a65726f206160448201526564647265737360d01b606482015260840162000285565b620007b6816200101f565b3360009081526006602052604090205460ff161562000a7b5760405162461bcd60e51b815260040162000285906200123c565b3360009081526005602052604090205460ff1662000ace5760405162461bcd60e51b815260206004820152600f60248201526e139bdd081dda1a5d195b1a5cdd1959608a1b604482015260640162000285565b3360009081526005602052604090205461010090046001600160a01b03161562000b2e5760405162461bcd60e51b815260206004820152601060248201526f105b1c9958591e4819195c1b1bde595960821b604482015260640162000285565b33600090815260056020526040812060010154900362000b7e5760405162461bcd60e51b815260206004820152600a602482015269139bdd081b5a5b9d195960b21b604482015260640162000285565b6002546001600160a01b031662000bc25760405162461bcd60e51b81526020600482015260076024820152661b9bdd081cd95d60ca1b604482015260640162000285565b60035460015460045460025460405133946001600160a01b039081169481169330939082169291169062000bf6906200106f565b6001600160a01b0396871681529486166020860152928516604085015290841660608401528316608083015290911660a082015260c001604051809103906000f08015801562000c4a573d6000803e3d6000fd5b50600880546001600160a01b0319166001600160a01b03928316908117825533600090815260056020526040908190208054610100600160a81b031916610100909302929092179091556004805492549151635ffd993b60e01b81529184169082015260016024820152911690635ffd993b90604401600060405180830381600087803b15801562000cdb57600080fd5b505af115801562000cf0573d6000803e3d6000fd5b50505050565b6000546001600160a01b0316331462000d525760405162461bcd60e51b815260206004820181905260248201527f4f776e61626c653a2063616c6c6572206973206e6f7420746865206f776e6572604482015260640162000285565b565b6007546001600160a01b03828116600090815260056020526040808220600101549051632890e0d760e01b8152600481019190915290929190911690632890e0d7906024016020604051808303816000875af115801562000db9573d6000803e3d6000fd5b505050506040513d601f19601f8201168201806040525081019062000ddf919062001261565b62000e1e5760405162461bcd60e51b815260206004820152600e60248201526d10d85b89dd08189d5c9b8813919560921b604482015260640162000285565b6001600160a01b038281166000908152600560205260409081902054600880546001600160a01b03191661010090920484169182179055600480549251639eea227960e01b815290810191909152911690639eea2279906024016020604051808303816000875af115801562000e98573d6000803e3d6000fd5b505050506040513d601f19601f8201168201806040525081019062000ebe919062001261565b62000efd5760405162461bcd60e51b815260206004820152600e60248201526d4572726f722072656d6f76696e6760901b604482015260640162000285565b600860009054906101000a90046001600160a01b03166001600160a01b03166383197ef06040518163ffffffff1660e01b81526004016020604051808303816000875af115801562000f53573d6000803e3d6000fd5b505050506040513d601f19601f8201168201806040525081019062000f79919062001261565b62000fb75760405162461bcd60e51b815260206004820152600d60248201526c43616e27742064657374726f7960981b604482015260640162000285565b6001600160a01b038216600090815260056020526040812080546001600160a81b03191681556001018190558054600160a01b900460ff1690601462000ffd83620013d3565b91906101000a81548160ff021916908360ff1602179055505060019050919050565b600080546001600160a01b038381166001600160a01b0319831681178455604051919092169283917f8be0079c531659141344cd1fd0a4f28419497f9722a3daafe3b4186f6b6457e09190a35050565b61496b80620013f483390190565b6000602082840312156200109057600080fd5b81356001600160a01b0381168114620010a857600080fd5b9392505050565b634e487b7160e01b600052604160045260246000fd5b600082601f830112620010d757600080fd5b813567ffffffffffffffff80821115620010f557620010f5620010af565b604051601f8301601f19908116603f01168101908282118183101715620011205762001120620010af565b816040528381528660208588010111156200113a57600080fd5b836020870160208301376000602085830101528094505050505092915050565b600080600080600060a086880312156200117357600080fd5b853567ffffffffffffffff808211156200118c57600080fd5b6200119a89838a01620010c5565b96506020880135915080821115620011b157600080fd5b620011bf89838a01620010c5565b95506040880135915080821115620011d657600080fd5b620011e489838a01620010c5565b94506060880135915080821115620011fb57600080fd5b6200120989838a01620010c5565b935060808801359150808211156200122057600080fd5b506200122f88828901620010c5565b9150509295509295909350565b6020808252600b908201526a189b1858dadb1a5cdd195960aa1b604082015260600190565b6000602082840312156200127457600080fd5b81518015158114620010a857600080fd5b634e487b7160e01b600052601160045260246000fd5b600060ff821660ff8103620012b457620012b462001285565b60010192915050565b6000815180845260005b81811015620012e557602081850181015186830182015201620012c7565b506000602082860101526020601f19601f83011685010191505092915050565b60018060a01b0383168152604060208201526000825160a060408401526200133160e0840182620012bd565b90506020840151603f1980858403016060860152620013518383620012bd565b92506040860151915080858403016080860152620013708383620012bd565b925060608601519150808584030160a08601526200138f8383620012bd565b925060808601519150808584030160c086015250620013af8282620012bd565b9695505050505050565b600060208284031215620013cc57600080fd5b5051919050565b600060ff821680620013e957620013e962001285565b600019019291505056fe6080604052600a6005556202a300600655620151806007553480156200002457600080fd5b506040516200496b3803806200496b8339810160408190526200004791620001d2565b85856001600160a01b0382166200005d57600080fd5b6001600160a01b0381166200007157600080fd5b60038054600480546001600160a01b0319166001600160a01b03948516179055600160a01b9383166001600160a81b031990911617929092179091558416620000b957600080fd5b336001600160a01b03841614620001165760405162461bcd60e51b815260206004820152601d60248201527f4f6e6c79207468652077686974656c6973742063616e206465706c6f79000000604482015260640160405180910390fd5b6001600160a01b0382166200012a57600080fd5b6001600160a01b0381166200013e57600080fd5b600b80546001600160a01b039586166001600160a01b031991821617909155600a8054948616948216949094179093556012805492851692841692909217909155600c8054919093169116179055505062015180600f5568056bc75e2d63100000600d55680ad78ebc5ac6200000600e5562000253565b80516001600160a01b0381168114620001cd57600080fd5b919050565b60008060008060008060c08789031215620001ec57600080fd5b620001f787620001b5565b95506200020760208801620001b5565b94506200021760408801620001b5565b93506200022760608801620001b5565b92506200023760808801620001b5565b91506200024760a08801620001b5565b90509295509295509295565b61470880620002636000396000f3fe608060405234801561001057600080fd5b50600436106102275760003560e01c806383197ef011610130578063bf0058d0116100b8578063d771642a1161007c578063d771642a1461050d578063dd4b22d114610516578063e19f3aee1461051f578063e627f2db14610532578063f7b2a7be1461053a57600080fd5b8063bf0058d0146104c4578063c520e74a146104d7578063c95dee79146104ea578063cdaa4192146104fd578063d0759c561461050557600080fd5b8063af8df99d116100ff578063af8df99d14610498578063b11f62ca146104ab578063b465c3c014610392578063b8f58f72146104b3578063bc378a73146104bc57600080fd5b806383197ef01461045d5780638da5cb5b146104655780638f03607214610478578063a63049521461048b57600080fd5b80633e146417116101b35780636d8cee56116101825780636d8cee56146103f85780636dcf811d1461040b5780637525b9221461042f5780638046c8ac1461044257806381c39a7d1461045557600080fd5b80633e14641714610392578063419759f5146103bb57806358b2d207146103c457806366035390146103d757600080fd5b8063242f17a9116101fa578063242f17a9146103215780632c4e722e1461034c578063301099621461036357806334fcf4371461036c5780633bafdcbc1461037f57600080fd5b8063013cf08b1461022c578063090fc58b146102895780630c6986b3146102f9578063155dd5ee1461030e575b600080fd5b61023f61023a366004613d16565b610543565b604080519889526001600160a01b039097166020890152958701949094526060860192909252608085015260a084015260c0830152151560e0820152610100015b60405180910390f35b61029c610297366004613d47565b6105a6565b604080519b8c5260208c019a909a52988a01979097526060890195909552608088019390935260a0870191909152151560c0860152151560e085015215156101008401521515610120830152151561014082015261016001610280565b61030c610307366004613d73565b61062b565b005b61030c61031c366004613d16565b6108f1565b601754610334906001600160a01b031681565b6040516001600160a01b039091168152602001610280565b610355600d5481565b604051908152602001610280565b61035560065481565b61030c61037a366004613d16565b610b18565b61030c61038d366004613de0565b610b54565b6103556103a0366004613d73565b6001600160a01b031660009081526016602052604090205490565b610355600e5481565b61030c6103d2366004613d16565b611278565b6103ea6103e5366004613d73565b6112f0565b604051610280929190613ebc565b61030c610406366004613d16565b61141c565b60035461041f90600160a01b900460ff1681565b6040519015158152602001610280565b61030c61043d366004613eea565b6114b2565b61030c610450366004613d16565b611a2f565b61030c611c32565b61041f611ec7565b600354610334906001600160a01b031681565b600454610334906001600160a01b031681565b60105461041f9060ff1681565b61030c6104a6366004613d73565b6121ce565b61030c6123a7565b610355600f5481565b601154610355565b61030c6104d2366004613faf565b612823565b6103ea6104e5366004613d73565b61294b565b61030c6104f8366004613faf565b612966565b61030c612a8c565b61041f612bad565b61035560075481565b61035560005481565b61030c61052d366004613d73565b612e6f565b610355613249565b61035560055481565b6011818154811061055357600080fd5b6000918252602090912060089091020180546001820154600283015460038401546004850154600586015460068701546007909701549597506001600160a01b0390941695929491939092909160ff1688565b601660205281600052604060002081815481106105c257600080fd5b600091825260209091206007909102018054600182015460028301546003840154600485015460058601546006909601549497509295509093909260ff80821691610100810482169162010000820481169163010000008104821691640100000000909104168b565b600354600160a01b900460ff161561065e5760405162461bcd60e51b81526004016106559061401b565b60405180910390fd5b600b546040516370a0823160e01b81526001600160a01b03808416600483015283926000929116906370a0823190602401602060405180830381865afa1580156106ac573d6000803e3d6000fd5b505050506040513d601f19601f820116820180604052508101906106d09190614049565b116106ed5760405162461bcd60e51b815260040161065590614062565b600c54601480546001600160a01b0319166001600160a01b0392831690811790915560405162d9267b60e31b81529183166004830152906306c933d890602401606060405180830381865afa15801561074a573d6000803e3d6000fd5b505050506040513d601f19601f8201168201806040525081019061076e91906140ad565b5161078b5760405162461bcd60e51b815260040161065590614116565b60145460405162d9267b60e31b81526001600160a01b038381166004830152339216906306c933d890602401606060405180830381865afa1580156107d4573d6000803e3d6000fd5b505050506040513d601f19601f820116820180604052508101906107f891906140ad565b602001516001600160a01b0316146108225760405162461bcd60e51b815260040161065590614116565b60105460ff166108445760405162461bcd60e51b81526004016106559061413f565b6017546001600160a01b031661086c5760405162461bcd60e51b815260040161065590614163565b6017546001600160a01b03166000908152601560205260408120805461089190614186565b90501180156108c757506017546001600160a01b0316600090815260156020526040812060010180546108c390614186565b9050115b6108e35760405162461bcd60e51b8152600401610655906141c0565b6108ed60016132a7565b5050565b600354600160a01b900460ff161561091b5760405162461bcd60e51b81526004016106559061401b565b6003546001600160a01b031633146109455760405162461bcd60e51b8152600401610655906141e5565b6000811161098e5760405162461bcd60e51b815260206004820152601660248201527504d7573742062652067726561746572207468616e20360541b6044820152606401610655565b600480546040516370a0823160e01b815230928101929092526000916001600160a01b03909116906370a0823190602401602060405180830381865afa1580156109dc573d6000803e3d6000fd5b505050506040513d601f19601f82011682018060405250810190610a009190614049565b60105490915060009060ff168015610a2257506017546001600160a01b031615155b15610a74576017546001600160a01b031660009081526016602052604090208054610a4f9060019061421f565b81548110610a5f57610a5f614238565b90600052602060002090600702016003015490505b82610a7f828461421f565b11610ab95760405162461bcd60e51b815260206004820152600a60248201526909cdee840cadcdeeaced60b31b6044820152606401610655565b600354600454610ad6916001600160a01b0391821691168561360c565b60408051848152426020820152309133917fb933d9f5921d73b25377b9ffc45ea2914238b8379c2098a3178e766cb8f326d491015b60405180910390a3505050565b6003546001600160a01b03163314610b425760405162461bcd60e51b8152600401610655906141e5565b60008111610b4f57600080fd5b600d55565b600354600160a01b900460ff1615610b7e5760405162461bcd60e51b81526004016106559061401b565b6003546001600160a01b03163314610ba85760405162461bcd60e51b8152600401610655906141e5565b60105460ff1615610bec5760405162461bcd60e51b815260206004820152600e60248201526d105b1c9958591e481c995b9d195960921b6044820152606401610655565b60008511610bf957600080fd5b6001600160a01b03861615801590610c1f57506003546001600160a01b03878116911614155b8015610c3457506001600160a01b0386163014155b610c725760405162461bcd60e51b815260206004820152600f60248201526e496e76616c6964206164647265737360881b6044820152606401610655565b601154610cb05760405162461bcd60e51b815260206004820152600c60248201526b4e6f2070726f706f73616c7360a01b6044820152606401610655565b8215801590610cbe57508015155b610cda5760405162461bcd60e51b8152600401610655906141c0565b60008080805b60115483101561115757896001600160a01b031660118481548110610d0757610d07614238565b60009182526020909120600160089092020101546001600160a01b03160361114557600060118481548110610d3e57610d3e614238565b6000918252602091829020604080516101008101825260089093029091018054835260018101546001600160a01b03169383019390935260028301549082018190526003830154606083015260048301546080830152600583015460a0830152600683015460c083015260079092015460ff16151560e082015291508a10801590610dcd575080606001518a11155b610e085760405162461bcd60e51b815260206004820152600c60248201526b34b73b30b634b2103437bab960a11b6044820152606401610655565b60008160a00151620151808360800151610e229190614264565b610e2c9190614278565b606083015160808401516020850151601380546001600160a01b0319166001600160a01b0390921691909117905560c08501519196509450909150610e71908261428f565b6004805460208501516040516370a0823160e01b81526001600160a01b039182169381019390935216906370a0823190602401602060405180830381865afa158015610ec1573d6000803e3d6000fd5b505050506040513d601f19601f82011682018060405250810190610ee59190614049565b1015610f245760405162461bcd60e51b815260206004820152600e60248201526d2737ba1032b737bab3b4102b992960911b6044820152606401610655565b60008b9050610f3e81846020015186858760c0015161366f565b60135460035460c08501516040516303a437c560e51b81526001600160a01b0392831660048201526024810186905260448101919091526064810187905260848101849052911690637486f8a09060a401600060405180830381600087803b158015610fa957600080fd5b505af1158015610fbd573d6000803e3d6000fd5b5050600160e086018190526010805460ff191690911790555050602080840151601780546001600160a01b0319166001600160a01b0390921691909117905560408051601f8d018390049092028201606090810182529082018c815282918e908e9081908501838280828437600092019190915250505090825250604080516020601f8d018190048102820181019092528b815291810191908c908c908190840183828082843760009201829052509390945250506017546001600160a01b031681526015602052604090208251909150819061109a90826142f0565b50602082015160018201906110af90826142f0565b5050600080549150806110c1836143b0565b919050555082602001516001600160a01b03167f5b9d750bc091c053cf6d861d7a8c4708db4a61c03df21830c1e604ff82c3c467858e8660a001518760c0015187604051611131959493929190948552602085019390935260408401919091526060830152608082015260a00190565b60405180910390a260019650505050611157565b8261114f816143b0565b935050610ce0565b836111905760405162461bcd60e51b81526020600482015260096024820152681b9bdd08199bdd5b9960ba1b6044820152606401610655565b60115483101561120057601754601180546001600160a01b0390921691859081106111bd576111bd614238565b60009182526020909120600160089092020101546001600160a01b0316036111ee576111e88361388b565b50611200565b826111f8816143b0565b935050611190565b60005b60115481101561126b578381141580156112495750611222828461428f565b6011828154811061123557611235614238565b906000526020600020906008020160000154105b15611259576112578161388b565b505b80611263816143b0565b915050611203565b5050505050505050505050565b600354600160a01b900460ff16156112a25760405162461bcd60e51b81526004016106559061401b565b6003546001600160a01b031633146112cc5760405162461bcd60e51b8152600401610655906141e5565b6201518081101580156112e2575062093a808111155b6112eb57600080fd5b600f55565b60156020526000908152604090208054819061130b90614186565b80601f016020809104026020016040519081016040528092919081815260200182805461133790614186565b80156113845780601f1061135957610100808354040283529160200191611384565b820191906000526020600020905b81548152906001019060200180831161136757829003601f168201915b50505050509080600101805461139990614186565b80601f01602080910402602001604051908101604052809291908181526020018280546113c590614186565b80156114125780601f106113e757610100808354040283529160200191611412565b820191906000526020600020905b8154815290600101906020018083116113f557829003601f168201915b5050505050905082565b600354600160a01b900460ff16156114465760405162461bcd60e51b81526004016106559061401b565b6003546001600160a01b031633146114705760405162461bcd60e51b8152600401610655906141e5565b600081116114ad5760405162461bcd60e51b815260206004820152600a60248201526904d757374206e6f7420360b41b6044820152606401610655565b600e55565b600354600160a01b900460ff16156114dc5760405162461bcd60e51b81526004016106559061401b565b600b546040516370a0823160e01b81526001600160a01b03808e1660048301528d926000929116906370a0823190602401602060405180830381865afa15801561152a573d6000803e3d6000fd5b505050506040513d601f19601f8201168201806040525081019061154e9190614049565b1161156b5760405162461bcd60e51b815260040161065590614062565b600c54601480546001600160a01b0319166001600160a01b0392831690811790915560405162d9267b60e31b81529183166004830152906306c933d890602401606060405180830381865afa1580156115c8573d6000803e3d6000fd5b505050506040513d601f19601f820116820180604052508101906115ec91906140ad565b516116095760405162461bcd60e51b815260040161065590614116565b60145460405162d9267b60e31b81526001600160a01b038381166004830152339216906306c933d890602401606060405180830381865afa158015611652573d6000803e3d6000fd5b505050506040513d601f19601f8201168201806040525081019061167691906140ad565b602001516001600160a01b0316146116a05760405162461bcd60e51b815260040161065590614116565b60005b60115481101561173957336001600160a01b0316601182815481106116ca576116ca614238565b60009182526020909120600160089092020101546001600160a01b0316036117275760405162461bcd60e51b815260206004820152601060248201526f105b1c9958591e481c1c9bdc1bdcd95960821b6044820152606401610655565b80611731816143b0565b9150506116a3565b50601154600510156117785760405162461bcd60e51b8152602060048201526008602482015267546f6f206d616e7960c01b6044820152606401610655565b611785620151808a6143c9565b1580156117955750620151808910155b6117d35760405162461bcd60e51b815260206004820152600f60248201526e4261642072656e74616c2074696d6560881b6044820152606401610655565b6117df42611c2061428f565b8b1180156117f8575061a8c06117f58c8c61421f565b11155b6118305760405162461bcd60e51b815260206004820152600960248201526842616420646174657360b81b6044820152606401610655565b60075489101580156118445750600f548911155b61187c5760405162461bcd60e51b8152602060048201526009602482015268151bdbc81cda1bdc9d60ba1b6044820152606401610655565b6000881161188957600080fd5b6000600e541161189857600080fd5b83158015906118a657508115155b6118c25760405162461bcd60e51b8152600401610655906141c0565b6000604051806101000160405280888152602001336001600160a01b031681526020018d81526020018c81526020018b81526020018a815260200189815260200160001515815250905060118190806001815401808255809150506001900390600052602060002090600802016000909190919091506000820151816000015560208201518160010160006101000a8154816001600160a01b0302191690836001600160a01b0316021790555060408201518160020155606082015181600301556080820151816004015560a0820151816005015560c0820151816006015560e08201518160070160006101000a81548160ff0219169083151502179055505050306001600160a01b0316336001600160a01b03167fa525a3c742fc5bd56efc0e8bb27f6fb6037555aa4b86113bb39e7929b18d14e3898f8f8f8f8f8e8e8e8e604051611a189a99989796959493929190614406565b60405180910390a350505050505050505050505050565b600354600160a01b900460ff1615611a595760405162461bcd60e51b81526004016106559061401b565b60048054604051636eb1769f60e11b81523392810192909252306024830152829182916001600160a01b03169063dd62ed3e90604401602060405180830381865afa158015611aac573d6000803e3d6000fd5b505050506040513d601f19601f82011682018060405250810190611ad09190614049565b1015611b0e5760405162461bcd60e51b815260206004820152600d60248201526c1399595908185c1c1c9bdd985b609a1b6044820152606401610655565b60008211611b4b5760405162461bcd60e51b815260206004820152600a60248201526910985908185b5bdd5b9d60b21b6044820152606401610655565b600480546040516370a0823160e01b8152339281019290925283916001600160a01b03909116906370a0823190602401602060405180830381865afa158015611b98573d6000803e3d6000fd5b505050506040513d601f19601f82011682018060405250810190611bbc9190614049565b1015611bda5760405162461bcd60e51b815260040161065590614465565b600454611bf2906001600160a01b0316333085613a76565b60408051838152426020820152309133917f224b1db9c133c01e120ca7551e3b56fec93a1f208e1c0509c23361a560a61026910160405180910390a35050565b600354600160a01b900460ff1615611c5c5760405162461bcd60e51b81526004016106559061401b565b6003546001600160a01b03163314611c865760405162461bcd60e51b8152600401610655906141e5565b60105460ff16611ca85760405162461bcd60e51b81526004016106559061413f565b6017546001600160a01b0316611cd05760405162461bcd60e51b815260040161065590614163565b6017546001600160a01b031660009081526015602052604081208054611cf590614186565b9050118015611d2b57506017546001600160a01b031660009081526015602052604081206001018054611d2790614186565b9050115b611d475760405162461bcd60e51b8152600401610655906141c0565b6017546001600160a01b031660009081526016602052604081208054611d6f9060019061421f565b81548110611d7f57611d7f614238565b6000918252602090912060079091020160068101549091506301000000900460ff1615611dde5760405162461bcd60e51b815260206004820152600d60248201526c30b63932b0b23c903a30b5b2b760991b6044820152606401610655565b60068101805463ff00000019166301000000179055601754601380546001600160a01b0319166001600160a01b03928316908117909155600354604051631708536360e11b81529216600483015290632e10a6c690602401600060405180830381600087803b158015611e5057600080fd5b505af1158015611e64573d6000803e3d6000fd5b50506017546001600160a01b03166000818152601560205260409081902090513094509192507f58441e06988866f5582b245c6d5073b65d386d56d2d7f2ee714ae642aba451bf91611ebc914291600182019061450c565b60405180910390a350565b600a546000906001600160a01b03163314611f1d5760405162461bcd60e51b815260206004820152601660248201527513db9b1e481dda1a5d195b1a5cdd10dbdb9d1c9858dd60521b6044820152606401610655565b60105460ff168015611f3957506017546001600160a01b031615155b1561206d576017546001600160a01b031660009081526016602052604081208054611f669060019061421f565b81548110611f7657611f76614238565b600091825260209182902060408051610160810182526007909302909101805480845260018201549484018590526002820154928401929092526003810154606084015260048101546080840152600581015460a08401526006015460ff808216151560c08501526101008083048216151560e08601526201000083048216151590850152630100000082048116151561012085015264010000000090910416151561014083015290925061202b919061428f565b421161206b5760405162461bcd60e51b815260206004820152600f60248201526e2932b73a30b6103737ba1037bb32b960891b6044820152606401610655565b505b6003805460ff60a01b1916600160a01b1790556008805460ff19166001179055600480546040516370a0823160e01b815230928101929092526000916001600160a01b03909116906370a0823190602401602060405180830381865afa1580156120db573d6000803e3d6000fd5b505050506040513d601f19601f820116820180604052508101906120ff9190614049565b111561219157600354600480546040516370a0823160e01b81523092810192909252612191926001600160a01b03908116929116906370a0823190602401602060405180830381865afa15801561215a573d6000803e3d6000fd5b505050506040513d601f19601f8201168201806040525081019061217e9190614049565b6004546001600160a01b0316919061360c565b604051428152309033907f05bec130a67bc2853b0a7f5cfe8590b473fcc3342360d8933fb7064b1ebf8b6d9060200160405180910390a350600190565b600354600160a01b900460ff16156121f85760405162461bcd60e51b81526004016106559061401b565b6003546001600160a01b031633146122225760405162461bcd60e51b8152600401610655906141e5565b6001600160a01b0381161580159061224857506003546001600160a01b03828116911614155b801561225d57506001600160a01b0381163014155b61229b5760405162461bcd60e51b815260206004820152600f60248201526e496e76616c6964206164647265737360881b6044820152606401610655565b6011546122d95760405162461bcd60e51b815260206004820152600c60248201526b4e6f2070726f706f73616c7360a01b6044820152606401610655565b60005b6011548110156108ed57816001600160a01b03166011828154811061230357612303614238565b60009182526020909120600160089092020101546001600160a01b031603612395576011818154811061233857612338614238565b600091825260209091206007600890920201015460ff16156123875760405162461bcd60e51b81526020600482015260086024820152671858d8d95c1d195960c21b6044820152606401610655565b6123908161388b565b505050565b8061239f816143b0565b9150506122dc565b600354600160a01b900460ff16156123d15760405162461bcd60e51b81526004016106559061401b565b6003546001600160a01b031633146123fb5760405162461bcd60e51b8152600401610655906141e5565b60105460ff1661241d5760405162461bcd60e51b81526004016106559061413f565b6017546001600160a01b03166124455760405162461bcd60e51b815260040161065590614163565b6017546001600160a01b03166000908152601560205260408120805461246a90614186565b90501180156124a057506017546001600160a01b03166000908152601560205260408120600101805461249c90614186565b9050115b6124bc5760405162461bcd60e51b8152600401610655906141c0565b6017546001600160a01b0316600090815260166020526040812080546124e49060019061421f565b815481106124f4576124f4614238565b906000526020600020906007020190508060060160029054906101000a900460ff161515600115151461255e5760405162461bcd60e51b815260206004820152601260248201527114d9595b5cc81b9bdd081c995d1d5c9b995960721b6044820152606401610655565b6006810154640100000000900460ff16156125ae5760405162461bcd60e51b815260206004820152601060248201526f105b1c9958591e481c995d1d5c9b995960821b6044820152606401610655565b6003810154600480546040516370a0823160e01b8152309281019290925282916001600160a01b03909116906370a0823190602401602060405180830381865afa158015612600573d6000803e3d6000fd5b505050506040513d601f19601f820116820180604052508101906126249190614049565b10156126425760405162461bcd60e51b815260040161065590614465565b601754601380546001600160a01b0319166001600160a01b039283169081179091556003546040516320d32a3d60e21b8152921660048301529063834ca8f490602401600060405180830381600087803b15801561269f57600080fd5b505af11580156126b3573d6000803e3d6000fd5b50505060068301805464ff0000000019166401000000001790555060048201546017546001600160a01b0316600090815260016020526040812080548392906126fd90849061428f565b925050819055508060026000828254612716919061428f565b90915550506010805460ff19169055601780546001600160a01b031981169091556004546001600160a01b03918216916127529116828561360c565b60125460405163255d23d760e11b8152306004820152602481018490526001600160a01b0390911690634aba47ae90604401600060405180830381600087803b15801561279e57600080fd5b505af11580156127b2573d6000803e3d6000fd5b505085546017546001600160a01b0390811660009081526015602052604090819020905130955091861693507fd1f1a30283b7ed6d050782e027445c7aa39a1666d996d3e3bf09ec20ac74800b9261281592909189914291906001820190614541565b60405180910390a350505050565b6003546001600160a01b0316331461284d5760405162461bcd60e51b8152600401610655906141e5565b600354600160a01b900460ff168015612869575060085460ff16155b6128ae5760405162461bcd60e51b81526020600482015260166024820152751058dd1a5d985d1959081bdc8819195cdd1c9bde595960521b6044820152606401610655565b82158015906128bc57508015155b6128fe5760405162461bcd60e51b81526020600482015260136024820152724750532063616e6e6f7420626520656d70747960681b6044820152606401610655565b61290a84848484612966565b6003805460ff60a01b19169055604051428152309033907f975a71b6f0e7c3037baf066252bb3dde490161b5536420b1954b32b39316f7b790602001612815565b60096020526000908152604090208054819061130b90614186565b6003546001600160a01b031633146129905760405162461bcd60e51b8152600401610655906141e5565b60085460ff16156129cf5760405162461bcd60e51b815260206004820152600960248201526811195cdd1c9bde595960ba1b6044820152606401610655565b82158015906129dd57508015155b612a155760405162461bcd60e51b815260206004820152600960248201526847505320656d70747960b81b6044820152606401610655565b30600090815260096020526040902080612a30858783614584565b5060018101612a40838583614584565b50604051309033907f6cad0fcdfd6b730f10e1bef22b48067bd4880a9e9bec47880bceb85733be339690612a7d9042908a908a908a908a90614645565b60405180910390a35050505050565b600354600160a01b900460ff1615612ab65760405162461bcd60e51b81526004016106559061401b565b60105460ff16612ad85760405162461bcd60e51b81526004016106559061413f565b6017546001600160a01b0316612b005760405162461bcd60e51b815260040161065590614163565b6017546001600160a01b031660009081526015602052604081208054612b2590614186565b9050118015612b5b57506017546001600160a01b031660009081526015602052604081206001018054612b5790614186565b9050115b612b775760405162461bcd60e51b8152600401610655906141c0565b6003546001600160a01b03163314612ba15760405162461bcd60e51b8152600401610655906141e5565b612bab60006132a7565b565b600354600090600160a01b900460ff1615612bda5760405162461bcd60e51b81526004016106559061401b565b6003546001600160a01b03163314612c045760405162461bcd60e51b8152600401610655906141e5565b60005b601154811015612e675760065460118281548110612c2757612c27614238565b90600052602060002090600802016000015442612c44919061421f565b1115612e5557805b601154612c5b9060019061421f565b811015612e4f57600060118281548110612c7757612c77614238565b60009182526020822060016008909202010154601180546001600160a01b0390921693509084908110612cac57612cac614238565b600091825260209091206008909102015490506011612ccc84600161428f565b81548110612cdc57612cdc614238565b906000526020600020906008020160118481548110612cfd57612cfd614238565b60009182526020909120825460089092020190815560018083015490820180546001600160a01b0319166001600160a01b0390921691909117905560028083015490820155600380830154908201556004808301549082015560058083015490820155600680830154908201556007918201549101805460ff909216151560ff199092169190911790556011805480612d9857612d98614672565b6000828152602081206008600019909301928302018181556001810180546001600160a01b0319169055600281018290556003810182905560048101829055600581018290556006810191909155600701805460ff19169055905560405130906001600160a01b038416907f1a07a16d411b1999de40db18a15f956f20021655f5dc8cf7685cdb7c9447710f90612e329085815260200190565b60405180910390a350508080612e47906143b0565b915050612c4c565b50612c07565b80612e5f816143b0565b915050612c07565b600191505090565b600354600160a01b900460ff1615612e995760405162461bcd60e51b81526004016106559061401b565b600b546040516370a0823160e01b81526001600160a01b03808416600483015283926000929116906370a0823190602401602060405180830381865afa158015612ee7573d6000803e3d6000fd5b505050506040513d601f19601f82011682018060405250810190612f0b9190614049565b11612f285760405162461bcd60e51b815260040161065590614062565b600c54601480546001600160a01b0319166001600160a01b0392831690811790915560405162d9267b60e31b81529183166004830152906306c933d890602401606060405180830381865afa158015612f85573d6000803e3d6000fd5b505050506040513d601f19601f82011682018060405250810190612fa991906140ad565b51612fc65760405162461bcd60e51b815260040161065590614116565b60145460405162d9267b60e31b81526001600160a01b038381166004830152339216906306c933d890602401606060405180830381865afa15801561300f573d6000803e3d6000fd5b505050506040513d601f19601f8201168201806040525081019061303391906140ad565b602001516001600160a01b03161461305d5760405162461bcd60e51b815260040161065590614116565b60105460ff1661307f5760405162461bcd60e51b81526004016106559061413f565b6017546001600160a01b03166130a75760405162461bcd60e51b815260040161065590614163565b6017546001600160a01b0316600090815260156020526040812080546130cc90614186565b905011801561310257506017546001600160a01b0316600090815260156020526040812060010180546130fe90614186565b9050115b61311e5760405162461bcd60e51b8152600401610655906141c0565b6017546001600160a01b031633146131695760405162461bcd60e51b815260206004820152600e60248201526d31bab93932b73a103932b73a32b960911b6044820152606401610655565b6017546001600160a01b0316600090815260166020526040812080546131919060019061421f565b815481106131a1576131a1614238565b60009182526020909120600790910201600681015490915062010000900460ff16156132005760405162461bcd60e51b815260206004820152600e60248201526d1cd9595b5cc81c995d1d5c9b995960921b6044820152606401610655565b60068101805462ff0000191662010000179055604051309033907f729121cdd407f14c64c9ac6675d96b747e07df398480f86c9ff9ce27d72291b590610b0b9042815260200190565b600354600090600160a01b900460ff16156132765760405162461bcd60e51b81526004016106559061401b565b6003546001600160a01b031633146132a05760405162461bcd60e51b8152600401610655906141e5565b5060025490565b6017546001600160a01b0316600090815260166020526040812080546132cf9060019061421f565b815481106132df576132df614238565b6000918252602090912060079091020160068101549091506301000000900460ff161561333e5760405162461bcd60e51b815260206004820152600d60248201526c10d85b9b9bdd0818d85b98d95b609a1b6044820152606401610655565b6006810154610100900460ff161561338b5760405162461bcd60e51b815260206004820152601060248201526f105b1c9958591e481c99599d5b99195960821b6044820152606401610655565b600080826002015483600301546133a2919061428f565b90508315156001036133f6576017546001600160a01b031633146133f65760405162461bcd60e51b815260206004820152600b60248201526a27b7363c903932b73a32b960a91b6044820152606401610655565b83801561340d57506017546001600160a01b031633145b80156134275750825461342390611c209061421f565b4210155b613431578061345a565b61271083600201546103e86134469190614278565b6134509190614264565b61345a908261421f565b600480546040516370a0823160e01b8152309281019290925291935083916001600160a01b0316906370a0823190602401602060405180830381865afa1580156134a8573d6000803e3d6000fd5b505050506040513d601f19601f820116820180604052508101906134cc9190614049565b10156134ea5760405162461bcd60e51b815260040161065590614465565b83151560000361357857601754601380546001600160a01b0319166001600160a01b0392831690811790915560035460405163778f520b60e01b81526004810186905292166024830152600160448301529063778f520b90606401600060405180830381600087803b15801561355f57600080fd5b505af1158015613573573d6000803e3d6000fd5b505050505b60068301805461ff0019166101001790556010805460ff19169055601780546001600160a01b031981169091556004546001600160a01b03918216916135c09116828561360c565b83546040805191825260208201859052429082015230906001600160a01b038316907f8dba7674f4ebd6a9e5e12953a7582d0a9dd220e6c27941dec40f27ff52d6722f90606001612a7d565b6040516001600160a01b03831660248201526044810182905261239090849063a9059cbb60e01b906064015b60408051601f198184030181529190526020810180516001600160e01b03166001600160e01b031990931692909217909152613ab4565b600354600160a01b900460ff16156136995760405162461bcd60e51b81526004016106559061401b565b612710600554836136aa9190614278565b6136b5906064614278565b10156136c057600080fd5b6000612710600554846136d39190614278565b6136de906064614278565b6136e89190614264565b905060006136f6838561428f565b905060166000876001600160a01b03166001600160a01b03168152602001908152602001600020604051806101600160405280898152602001878152602001868152602001858152602001848152602001838152602001600115158152602001600015158152602001600015158152602001600015158152602001600015158152509080600181540180825580915050600190039060005260206000209060070201600090919091909150600082015181600001556020820151816001015560408201518160020155606082015181600301556080820151816004015560a0820151816005015560c08201518160060160006101000a81548160ff02191690831515021790555060e08201518160060160016101000a81548160ff0219169083151502179055506101008201518160060160026101000a81548160ff0219169083151502179055506101208201518160060160036101000a81548160ff0219169083151502179055506101408201518160060160046101000a81548160ff021916908315150217905550505050505050505050565b600080601183815481106138a1576138a1614238565b60009182526020822060016008909202010154601180546001600160a01b03909216935090859081106138d6576138d6614238565b9060005260206000209060080201600001549050601160016011805490506138fe919061421f565b8154811061390e5761390e614238565b90600052602060002090600802016011858154811061392f5761392f614238565b60009182526020909120825460089092020190815560018083015490820180546001600160a01b0319166001600160a01b0390921691909117905560028083015490820155600380830154908201556004808301549082015560058083015490820155600680830154908201556007918201549101805460ff909216151560ff1990921691909117905560118054806139ca576139ca614672565b6000828152602081206008600019909301928302018181556001810180546001600160a01b0319169055600281018290556003810182905560048101829055600581018290556006810191909155600701805460ff19169055905560405130906001600160a01b038416907f1a07a16d411b1999de40db18a15f956f20021655f5dc8cf7685cdb7c9447710f90613a649085815260200190565b60405180910390a35060019392505050565b6040516001600160a01b0380851660248301528316604482015260648101829052613aae9085906323b872dd60e01b90608401613638565b50505050565b6000613b09826040518060400160405280602081526020017f5361666545524332303a206c6f772d6c6576656c2063616c6c206661696c6564815250856001600160a01b0316613b869092919063ffffffff16565b8051909150156123905780806020019051810190613b279190614688565b6123905760405162461bcd60e51b815260206004820152602a60248201527f5361666545524332303a204552433230206f7065726174696f6e20646964206e6044820152691bdd081cdd58d8d9595960b21b6064820152608401610655565b6060613b958484600085613b9d565b949350505050565b606082471015613bfe5760405162461bcd60e51b815260206004820152602660248201527f416464726573733a20696e73756666696369656e742062616c616e636520666f6044820152651c8818d85b1b60d21b6064820152608401610655565b600080866001600160a01b03168587604051613c1a91906146a3565b60006040518083038185875af1925050503d8060008114613c57576040519150601f19603f3d011682016040523d82523d6000602084013e613c5c565b606091505b5091509150613c6d87838387613c78565b979650505050505050565b60608315613ce7578251600003613ce0576001600160a01b0385163b613ce05760405162461bcd60e51b815260206004820152601d60248201527f416464726573733a2063616c6c20746f206e6f6e2d636f6e74726163740000006044820152606401610655565b5081613b95565b613b958383815115613cfc5781518083602001fd5b8060405162461bcd60e51b815260040161065591906146bf565b600060208284031215613d2857600080fd5b5035919050565b6001600160a01b0381168114613d4457600080fd5b50565b60008060408385031215613d5a57600080fd5b8235613d6581613d2f565b946020939093013593505050565b600060208284031215613d8557600080fd5b8135613d9081613d2f565b9392505050565b60008083601f840112613da957600080fd5b50813567ffffffffffffffff811115613dc157600080fd5b602083019150836020828501011115613dd957600080fd5b9250929050565b60008060008060008060808789031215613df957600080fd5b8635613e0481613d2f565b955060208701359450604087013567ffffffffffffffff80821115613e2857600080fd5b613e348a838b01613d97565b90965094506060890135915080821115613e4d57600080fd5b50613e5a89828a01613d97565b979a9699509497509295939492505050565b60005b83811015613e87578181015183820152602001613e6f565b50506000910152565b60008151808452613ea8816020860160208601613e6c565b601f01601f19169290920160200192915050565b604081526000613ecf6040830185613e90565b8281036020840152613ee18185613e90565b95945050505050565b60008060008060008060008060008060006101208c8e031215613f0c57600080fd5b613f168c35613d2f565b8b359a5060208c0135995060408c0135985060608c0135975060808c0135965060a08c0135955060c08c0135945067ffffffffffffffff8060e08e01351115613f5e57600080fd5b613f6e8e60e08f01358f01613d97565b90955093506101008d0135811015613f8557600080fd5b50613f978d6101008e01358e01613d97565b81935080925050509295989b509295989b9093969950565b60008060008060408587031215613fc557600080fd5b843567ffffffffffffffff80821115613fdd57600080fd5b613fe988838901613d97565b9096509450602087013591508082111561400257600080fd5b5061400f87828801613d97565b95989497509550505050565b60208082526014908201527310dbdb9d1c9858dd0819195858dd1a5d985d195960621b604082015260600190565b60006020828403121561405b57600080fd5b5051919050565b602080825260069082015265139bc813919560d21b604082015260600190565b634e487b7160e01b600052604160045260246000fd5b805180151581146140a857600080fd5b919050565b6000606082840312156140bf57600080fd5b6040516060810181811067ffffffffffffffff821117156140e2576140e2614082565b6040526140ee83614098565b815260208301516140fe81613d2f565b60208201526040928301519281019290925250919050565b6020808252600f908201526e139bdd081dda1a5d195b1a5cdd1959608a1b604082015260600190565b6020808252600a9082015269139bdd081c995b9d195960b21b604082015260600190565b6020808252600990820152682737903632b73232b960b91b604082015260600190565b600181811c9082168061419a57607f821691505b6020821081036141ba57634e487b7160e01b600052602260045260246000fd5b50919050565b6020808252600b908201526a11d414c81b9bdd081cd95d60aa1b604082015260600190565b6020808252600a908201526937b7363c9037bbb732b960b11b604082015260600190565b634e487b7160e01b600052601160045260246000fd5b8181038181111561423257614232614209565b92915050565b634e487b7160e01b600052603260045260246000fd5b634e487b7160e01b600052601260045260246000fd5b6000826142735761427361424e565b500490565b808202811582820484141761423257614232614209565b8082018082111561423257614232614209565b601f82111561239057600081815260208120601f850160051c810160208610156142c95750805b601f850160051c820191505b818110156142e8578281556001016142d5565b505050505050565b815167ffffffffffffffff81111561430a5761430a614082565b61431e816143188454614186565b846142a2565b602080601f831160018114614353576000841561433b5750858301515b600019600386901b1c1916600185901b1785556142e8565b600085815260208120601f198616915b8281101561438257888601518255948401946001909101908401614363565b50858210156143a05787850151600019600388901b60f8161c191681555b5050505050600190811b01905550565b6000600182016143c2576143c2614209565b5060010190565b6000826143d8576143d861424e565b500690565b81835281816020850137506000828201602090810191909152601f909101601f19169091010190565b60006101008c83528b60208401528a60408401528960608401528860808401528760a08401528060c084015261443f81840187896143dd565b905082810360e08401526144548185876143dd565b9d9c50505050505050505050505050565b60208082526010908201526f24b739bab33334b1b4b2b73a102b992960811b604082015260600190565b6000815461449c81614186565b8085526020600183811680156144b957600181146144d357614501565b60ff1985168884015283151560051b880183019550614501565b866000528260002060005b858110156144f95781548a82018601529083019084016144de565b890184019650505b505050505092915050565b838152606060208201526000614525606083018561448f565b8281036040840152614537818561448f565b9695505050505050565b85815284602082015283604082015260a06060820152600061456660a083018561448f565b8281036080840152614578818561448f565b98975050505050505050565b67ffffffffffffffff83111561459c5761459c614082565b6145b0836145aa8354614186565b836142a2565b6000601f8411600181146145e457600085156145cc5750838201355b600019600387901b1c1916600186901b17835561463e565b600083815260209020601f19861690835b8281101561461557868501358255602094850194600190920191016145f5565b50868210156146325760001960f88860031b161c19848701351681555b505060018560011b0183555b5050505050565b85815260606020820152600061465f6060830186886143dd565b82810360408401526145788185876143dd565b634e487b7160e01b600052603160045260246000fd5b60006020828403121561469a57600080fd5b613d9082614098565b600082516146b5818460208701613e6c565b9190910192915050565b602081526000613d906020830184613e9056fea2646970667358221220468f02ccefb1de045429b316b5606d368e5064851d1e629eff14515232101e1d64736f6c63430008120033a2646970667358221220a13d5db62be4d9ffbc84921f395460edb9c1000dd4bbcf0bdd2cd8ba18c7c33164736f6c63430008120033",
  "immutableReferences": {},
  "source": "// SPDX-License-Identifier: MIT\npragma solidity ^0.8.17;\n\n// import ERC20.sol\n//import \"@openzeppelin/contracts/token/ERC20/ERC20.sol\";\n//import \"@openzeppelin/contracts/access/Ownable.sol\";\nimport \"../node_modules/@openzeppelin/contracts/token/ERC20/ERC20.sol\";\nimport \"../node_modules/@openzeppelin/contracts/access/Ownable.sol\";\nimport \"./BikeShare.sol\";\n\ninterface IVaultW2R {\n    function setApprovedContract(address contractAddress, bool status) external;\n\n    function removeApprovedContract(\n        address contractAddress\n    ) external returns (bool);\n}\n\ninterface I1TwoWheels2RentLender {\n    struct BikeInfo {\n        string name;\n        string brand;\n        string model;\n        string serial;\n        string registration;\n    }\n\n    // import string ipfsHash length from TwoWheels2RentLender.sol\n    function getIpfsHashLength() external view returns (bool);\n\n    function mintNFT(\n        address recipient,\n        BikeInfo calldata bikeInfo\n    ) external returns (uint);\n\n    function burnNFT(uint tokenId) external returns (bool);\n}\n\ncontract LenderWhitelist is Ownable {\n    // keep track of the number of whitelisted addresses\n    uint8 public numAddressesWhitelisted;\n\n    // address of the renter NFT contract\n    address TW2RRenterNFT;\n\n    // address of the renter whitelist contract\n    address renterWhitelist;\n\n    // import W2R token contract\n    ERC20 public W2R;\n\n    // import VaultW2R interface\n    IVaultW2R private vaultW2R;\n\n    // struct of whitelisted addresses\n    struct Lender {\n        bool isWhitelisted;\n        address bikeShareContract;\n        uint NFTId;\n    }\n\n    // mapping of whitelisted addresses, starting false for all addresses\n    mapping(address => Lender) public whitelistedAddresses;\n    // blacklist mapping\n    mapping(address => bool) public blacklistedAddresses;\n\n    I1TwoWheels2RentLender TW2RL;\n\n    BikeShare bikeShare;\n\n    event LenderWhitelisted(address indexed lender, uint NFTId);\n    event LenderBlacklisted(address indexed lender, uint NFTId);\n    event LenderRemovedFromBlacklist(address indexed lender);\n    event LenderRemovedFromWhitelist(address indexed lender, uint NFTId);\n\n    // constructor with the address of the TwoWheels2RentLender contract and the W2R token contract\n    constructor(\n        address _TW2RL,\n        address _W2R,\n        address _TW2RRenterNFT,\n        IVaultW2R _vaultW2R\n    ) {\n        require(_TW2RL != address(0));\n        require(_W2R != address(0));\n        require(_TW2RRenterNFT != address(0));\n        require(address(_vaultW2R) != address(0));\n        vaultW2R = _vaultW2R;\n        // set the address of the TwoWheels2RentLender contract\n        TW2RL = I1TwoWheels2RentLender(_TW2RL);\n        // set the address of the W2R token contract\n        W2R = ERC20(_W2R);\n        // set the address of the lender NFT contract\n        TW2RRenterNFT = _TW2RRenterNFT;\n    }\n\n    // set RenterWhitelist contract address\n    function setRenterWhitelistAddress(\n        address _renterWhitelist\n    ) external onlyOwner {\n        require(_renterWhitelist != address(0));\n        // set the address of the TwoWheels2RentrenterWhitelist contract\n        renterWhitelist = _renterWhitelist;\n    }\n\n    // add to whitelist, set BikeInfo struct and call mintNFT\n    function setBikeInfoAndMint(\n        string memory name,\n        string memory brand,\n        string memory model,\n        string memory serial,\n        string memory registration\n    ) external {\n        require(!blacklistedAddresses[msg.sender], \"blacklisted\");\n        require(\n            !whitelistedAddresses[msg.sender].isWhitelisted,\n            \"Already whitelisted\"\n        );\n        require(\n            whitelistedAddresses[msg.sender].bikeShareContract == address(0),\n            \"Already deployed\"\n        );\n        require(whitelistedAddresses[msg.sender].NFTId == 0, \"Already minted\");\n        require(\n            bytes(name).length > 0 &&\n                bytes(brand).length > 0 &&\n                bytes(model).length > 0 &&\n                bytes(serial).length > 0 &&\n                bytes(registration).length > 0,\n            \"Empty fields\"\n        );\n        require(\n            bytes(name).length <= 40 &&\n                bytes(brand).length <= 40 &&\n                bytes(model).length <= 40 &&\n                bytes(serial).length <= 40 &&\n                bytes(registration).length <= 40,\n            \"Too long\"\n        );\n        // check if the image is set\n        require(TW2RL.getIpfsHashLength(), \"IPFS not set\");\n        // set the BikeInfo struct\n        I1TwoWheels2RentLender.BikeInfo memory bikeInfo = I1TwoWheels2RentLender\n            .BikeInfo(name, brand, model, serial, registration);\n        // add the address to the whitelist\n        whitelistedAddresses[msg.sender].isWhitelisted = true;\n        numAddressesWhitelisted++;\n        // mint and add the NFT id to the mapping\n        whitelistedAddresses[msg.sender].NFTId = TW2RL.mintNFT(\n            msg.sender,\n            bikeInfo\n        );\n        // deploy bikeShare contract\n        deployBikeShareContract();\n        // emit event\n        emit LenderWhitelisted(\n            msg.sender,\n            whitelistedAddresses[msg.sender].NFTId\n        );\n    }\n\n    function deployBikeShareContract() private {\n        require(!blacklistedAddresses[msg.sender], \"blacklisted\");\n        require(\n            whitelistedAddresses[msg.sender].isWhitelisted,\n            \"Not whitelisted\"\n        );\n        require(\n            whitelistedAddresses[msg.sender].bikeShareContract == address(0),\n            \"Already deployed\"\n        );\n        require(whitelistedAddresses[msg.sender].NFTId != 0, \"Not minted\");\n        require(renterWhitelist != address(0), \"not set\");\n        bikeShare = new BikeShare(\n            // the address of the caller of this function\n            msg.sender,\n            // the address of the W2R token contract\n            address(W2R),\n            // the address of the Renter NFT contract\n            TW2RRenterNFT,\n            // address of this contract\n            address(this),\n            // address of vaultW2R\n            address(vaultW2R),\n            // address of renterWhitelist\n            renterWhitelist\n        );\n        // add the bikeShare contract address to the mapping\n        whitelistedAddresses[msg.sender].bikeShareContract = address(bikeShare);\n        // authorize the bikeShare contract to spend vault W2R tokens\n        vaultW2R.setApprovedContract(address(bikeShare), true);\n    }\n\n    function removeAddressFromWhitelist() external {\n        require(!blacklistedAddresses[msg.sender], \"blacklisted\");\n        // msg.sender is the address of the caller of this function\n        require(\n            whitelistedAddresses[msg.sender].isWhitelisted,\n            \"Not whitelisted\"\n        );\n        doRemoveStuff(msg.sender);\n        // emit event\n        emit LenderRemovedFromWhitelist(\n            msg.sender,\n            whitelistedAddresses[msg.sender].NFTId\n        );\n    }\n\n    function addToBlacklist(address _address) external onlyOwner {\n        require(!blacklistedAddresses[_address], \"blacklisted\");\n        // if address was whitelisted\n        if (whitelistedAddresses[_address].isWhitelisted) {\n            require(doRemoveStuff(_address), \"Error\");\n            // add address to blacklist\n            blacklistedAddresses[_address] = true;\n            // emit event\n            emit LenderBlacklisted(\n                _address,\n                whitelistedAddresses[_address].NFTId\n            );\n        }\n    }\n\n    function removeFromBlacklist(address _address) external onlyOwner {\n        require(blacklistedAddresses[_address], \"Not blacklisted\");\n        // remove address from blacklist\n        delete blacklistedAddresses[_address];\n        // emit event\n        emit LenderRemovedFromBlacklist(_address);\n    }\n\n    function doRemoveStuff(address _address) private returns (bool) {\n        // burn NFT\n        require(\n            TW2RL.burnNFT(whitelistedAddresses[_address].NFTId),\n            \"Can't burn NFT\"\n        );\n        // destroy bikeShare contract\n        bikeShare = BikeShare(whitelistedAddresses[_address].bikeShareContract);\n        require(\n            vaultW2R.removeApprovedContract(address(bikeShare)),\n            \"Error removing\"\n        );\n        require(bikeShare.destroy(), \"Can't destroy\");\n        // remove address from whitelist\n        delete whitelistedAddresses[_address];\n        numAddressesWhitelisted--;\n        return true;\n    }\n\n    function renounceOwnership() public view override onlyOwner {\n        revert(\"cannot be renounced\");\n    }\n}\n",
  "sourcePath": "/Users/harbinger/Dropbox/Dossier familial/Formation Blockchain/Alyra/Projet Certification/Projet Alyra 2Wheels2Rent/truffle/contracts/LenderWhitelist.sol",
  "compiler": {
    "name": "solc",
    "version": "0.8.18+commit.87f61d96.Emscripten.clang"
  },
  "schemaVersion": "3.4.12",
  "updatedAt": "2023-04-08T14:17:56.524Z",
  "networkType": "ethereum",
  "devdoc": {
    "kind": "dev",
    "methods": {
      "owner()": {
        "details": "Returns the address of the current owner."
      },
      "renounceOwnership()": {
        "details": "Leaves the contract without owner. It will not be possible to call `onlyOwner` functions anymore. Can only be called by the current owner. NOTE: Renouncing ownership will leave the contract without an owner, thereby removing any functionality that is only available to the owner."
      },
      "transferOwnership(address)": {
        "details": "Transfers ownership of the contract to a new account (`newOwner`). Can only be called by the current owner."
      }
    },
    "version": 1
  },
  "userdoc": {
    "kind": "user",
    "methods": {},
    "version": 1
  }
}