{
  "contractName": "MaticW2RPairToken",
  "abi": [
    {
      "inputs": [],
      "stateMutability": "nonpayable",
      "type": "constructor"
    },
    {
      "anonymous": false,
      "inputs": [
        {
          "indexed": true,
          "internalType": "address",
          "name": "owner",
          "type": "address"
        },
        {
          "indexed": true,
          "internalType": "address",
          "name": "spender",
          "type": "address"
        },
        {
          "indexed": false,
          "internalType": "uint256",
          "name": "value",
          "type": "uint256"
        }
      ],
      "name": "Approval",
      "type": "event"
    },
    {
      "anonymous": false,
      "inputs": [
        {
          "indexed": true,
          "internalType": "address",
          "name": "previousOwner",
          "type": "address"
        },
        {
          "indexed": true,
          "internalType": "address",
          "name": "newOwner",
          "type": "address"
        }
      ],
      "name": "OwnershipTransferred",
      "type": "event"
    },
    {
      "anonymous": false,
      "inputs": [
        {
          "indexed": true,
          "internalType": "address",
          "name": "from",
          "type": "address"
        },
        {
          "indexed": true,
          "internalType": "address",
          "name": "to",
          "type": "address"
        },
        {
          "indexed": false,
          "internalType": "uint256",
          "name": "value",
          "type": "uint256"
        }
      ],
      "name": "Transfer",
      "type": "event"
    },
    {
      "inputs": [
        {
          "internalType": "address",
          "name": "owner",
          "type": "address"
        },
        {
          "internalType": "address",
          "name": "spender",
          "type": "address"
        }
      ],
      "name": "allowance",
      "outputs": [
        {
          "internalType": "uint256",
          "name": "",
          "type": "uint256"
        }
      ],
      "stateMutability": "view",
      "type": "function",
      "constant": true
    },
    {
      "inputs": [
        {
          "internalType": "address",
          "name": "spender",
          "type": "address"
        },
        {
          "internalType": "uint256",
          "name": "amount",
          "type": "uint256"
        }
      ],
      "name": "approve",
      "outputs": [
        {
          "internalType": "bool",
          "name": "",
          "type": "bool"
        }
      ],
      "stateMutability": "nonpayable",
      "type": "function"
    },
    {
      "inputs": [
        {
          "internalType": "address",
          "name": "account",
          "type": "address"
        }
      ],
      "name": "balanceOf",
      "outputs": [
        {
          "internalType": "uint256",
          "name": "",
          "type": "uint256"
        }
      ],
      "stateMutability": "view",
      "type": "function",
      "constant": true
    },
    {
      "inputs": [
        {
          "internalType": "address",
          "name": "account",
          "type": "address"
        },
        {
          "internalType": "uint256",
          "name": "amount",
          "type": "uint256"
        }
      ],
      "name": "burnFrom",
      "outputs": [],
      "stateMutability": "nonpayable",
      "type": "function"
    },
    {
      "inputs": [],
      "name": "decimals",
      "outputs": [
        {
          "internalType": "uint8",
          "name": "",
          "type": "uint8"
        }
      ],
      "stateMutability": "view",
      "type": "function",
      "constant": true
    },
    {
      "inputs": [
        {
          "internalType": "address",
          "name": "spender",
          "type": "address"
        },
        {
          "internalType": "uint256",
          "name": "subtractedValue",
          "type": "uint256"
        }
      ],
      "name": "decreaseAllowance",
      "outputs": [
        {
          "internalType": "bool",
          "name": "",
          "type": "bool"
        }
      ],
      "stateMutability": "nonpayable",
      "type": "function"
    },
    {
      "inputs": [
        {
          "internalType": "address",
          "name": "spender",
          "type": "address"
        },
        {
          "internalType": "uint256",
          "name": "addedValue",
          "type": "uint256"
        }
      ],
      "name": "increaseAllowance",
      "outputs": [
        {
          "internalType": "bool",
          "name": "",
          "type": "bool"
        }
      ],
      "stateMutability": "nonpayable",
      "type": "function"
    },
    {
      "inputs": [],
      "name": "name",
      "outputs": [
        {
          "internalType": "string",
          "name": "",
          "type": "string"
        }
      ],
      "stateMutability": "view",
      "type": "function",
      "constant": true
    },
    {
      "inputs": [],
      "name": "owner",
      "outputs": [
        {
          "internalType": "address",
          "name": "",
          "type": "address"
        }
      ],
      "stateMutability": "view",
      "type": "function",
      "constant": true
    },
    {
      "inputs": [],
      "name": "renounceOwnership",
      "outputs": [],
      "stateMutability": "nonpayable",
      "type": "function"
    },
    {
      "inputs": [],
      "name": "symbol",
      "outputs": [
        {
          "internalType": "string",
          "name": "",
          "type": "string"
        }
      ],
      "stateMutability": "view",
      "type": "function",
      "constant": true
    },
    {
      "inputs": [],
      "name": "totalSupply",
      "outputs": [
        {
          "internalType": "uint256",
          "name": "",
          "type": "uint256"
        }
      ],
      "stateMutability": "view",
      "type": "function",
      "constant": true
    },
    {
      "inputs": [
        {
          "internalType": "address",
          "name": "to",
          "type": "address"
        },
        {
          "internalType": "uint256",
          "name": "amount",
          "type": "uint256"
        }
      ],
      "name": "transfer",
      "outputs": [
        {
          "internalType": "bool",
          "name": "",
          "type": "bool"
        }
      ],
      "stateMutability": "nonpayable",
      "type": "function"
    },
    {
      "inputs": [
        {
          "internalType": "address",
          "name": "from",
          "type": "address"
        },
        {
          "internalType": "address",
          "name": "to",
          "type": "address"
        },
        {
          "internalType": "uint256",
          "name": "amount",
          "type": "uint256"
        }
      ],
      "name": "transferFrom",
      "outputs": [
        {
          "internalType": "bool",
          "name": "",
          "type": "bool"
        }
      ],
      "stateMutability": "nonpayable",
      "type": "function"
    },
    {
      "inputs": [
        {
          "internalType": "address",
          "name": "newOwner",
          "type": "address"
        }
      ],
      "name": "transferOwnership",
      "outputs": [],
      "stateMutability": "nonpayable",
      "type": "function"
    },
    {
      "inputs": [
        {
          "internalType": "address",
          "name": "authorized",
          "type": "address"
        }
      ],
      "name": "checkMinterAndBurner",
      "outputs": [
        {
          "internalType": "bool",
          "name": "",
          "type": "bool"
        }
      ],
      "stateMutability": "view",
      "type": "function",
      "constant": true
    },
    {
      "inputs": [
        {
          "internalType": "address",
          "name": "authorized",
          "type": "address"
        }
      ],
      "name": "addMinterAndBurner",
      "outputs": [],
      "stateMutability": "nonpayable",
      "type": "function"
    },
    {
      "inputs": [
        {
          "internalType": "address",
          "name": "authorized",
          "type": "address"
        }
      ],
      "name": "removeMinterAndBurner",
      "outputs": [],
      "stateMutability": "nonpayable",
      "type": "function"
    },
    {
      "inputs": [
        {
          "internalType": "address",
          "name": "to",
          "type": "address"
        },
        {
          "internalType": "uint256",
          "name": "amount",
          "type": "uint256"
        }
      ],
      "name": "mint",
      "outputs": [],
      "stateMutability": "nonpayable",
      "type": "function"
    },
    {
      "inputs": [
        {
          "internalType": "uint256",
          "name": "amount",
          "type": "uint256"
        }
      ],
      "name": "burn",
      "outputs": [],
      "stateMutability": "nonpayable",
      "type": "function"
    }
  ],
  "bytecode": "0x60806040523480156200001157600080fd5b506040518060400160405280601281526020017126b0ba34b196ab9929102628102a37b5b2b760711b8152506040518060400160405280600981526020016826a0aa24a196ab992960b91b8152508160039081620000709190620001b7565b5060046200007f8282620001b7565b5050506200009c62000096620000bc60201b60201c565b620000c0565b336000908152600660205260409020805460ff1916600117905562000283565b3390565b600580546001600160a01b038381166001600160a01b0319831681179093556040519116919082907f8be0079c531659141344cd1fd0a4f28419497f9722a3daafe3b4186f6b6457e090600090a35050565b634e487b7160e01b600052604160045260246000fd5b600181811c908216806200013d57607f821691505b6020821081036200015e57634e487b7160e01b600052602260045260246000fd5b50919050565b601f821115620001b257600081815260208120601f850160051c810160208610156200018d5750805b601f850160051c820191505b81811015620001ae5782815560010162000199565b5050505b505050565b81516001600160401b03811115620001d357620001d362000112565b620001eb81620001e4845462000128565b8462000164565b602080601f8311600181146200022357600084156200020a5750858301515b600019600386901b1c1916600185901b178555620001ae565b600085815260208120601f198616915b82811015620002545788860151825594840194600190910190840162000233565b5085821015620002735787850151600019600388901b60f8161c191681555b5050505050600190811b01905550565b61109b80620002936000396000f3fe608060405234801561001057600080fd5b506004361061012c5760003560e01c806370a08231116100ad578063a457c2d711610071578063a457c2d71461026e578063a9059cbb14610281578063dd62ed3e14610294578063f2fde38b146102a7578063f97f3c2c146102ba57600080fd5b806370a0823114610207578063715018a61461023057806379cc6790146102385780638da5cb5b1461024b57806395d89b411461026657600080fd5b8063313ce567116100f4578063313ce567146101aa57806339509351146101b957806340c10f19146101cc57806342966c68146101e157806358b80e35146101f457600080fd5b806306fdde0314610131578063095ea7b31461014f57806318160ddd1461017257806323b872dd146101845780632b2540bd14610197575b600080fd5b6101396102cd565b6040516101469190610ed1565b60405180910390f35b61016261015d366004610f36565b61035f565b6040519015158152602001610146565b6002545b604051908152602001610146565b610162610192366004610f60565b610379565b6101626101a5366004610f9c565b61039d565b60405160128152602001610146565b6101626101c7366004610f36565b6103ca565b6101df6101da366004610f36565b6103ec565b005b6101df6101ef366004610fbe565b610455565b6101df610202366004610f9c565b6104b7565b610176610215366004610f9c565b6001600160a01b031660009081526020819052604090205490565b6101df61059a565b6101df610246366004610f36565b6105ae565b6005546040516001600160a01b039091168152602001610146565b6101396105c3565b61016261027c366004610f36565b6105d2565b61016261028f366004610f36565b61064d565b6101766102a2366004610fd7565b61065b565b6101df6102b5366004610f9c565b610686565b6101df6102c8366004610f9c565b6106fc565b6060600380546102dc9061100a565b80601f01602080910402602001604051908101604052809291908181526020018280546103089061100a565b80156103555780601f1061032a57610100808354040283529160200191610355565b820191906000526020600020905b81548152906001019060200180831161033857829003601f168201915b5050505050905090565b60003361036d8185856107db565b60019150505b92915050565b600033610387858285610900565b61039285858561097a565b506001949350505050565b60006103a7610b29565b506001600160a01b03811660009081526006602052604090205460ff165b919050565b60003361036d8185856103dd838361065b565b6103e79190611044565b6107db565b3360009081526006602052604090205460ff166104475760405162461bcd60e51b81526020600482015260146024820152732cb7ba9030b932903737ba10309036b4b73a32b960611b60448201526064015b60405180910390fd5b6104518282610b83565b5050565b3360009081526006602052604090205460ff166104ab5760405162461bcd60e51b81526020600482015260146024820152732cb7ba9030b932903737ba103090313ab93732b960611b604482015260640161043e565b6104b481610c4e565b50565b6104bf610b29565b6001600160a01b03811660009081526006602052604090205460ff16156105205760405162461bcd60e51b81526020600482015260156024820152744d696e74657220616c72656164792065786973747360581b604482015260640161043e565b6001600160a01b0381166105765760405162461bcd60e51b815260206004820152601c60248201527f4d696e74657220616464726573732063616e6e6f742062652030783000000000604482015260640161043e565b6001600160a01b03166000908152600660205260409020805460ff19166001179055565b6105a2610b29565b6105ac6000610c58565b565b6105b9823383610900565b6104518282610caa565b6060600480546102dc9061100a565b600033816105e0828661065b565b9050838110156106405760405162461bcd60e51b815260206004820152602560248201527f45524332303a2064656372656173656420616c6c6f77616e63652062656c6f77604482015264207a65726f60d81b606482015260840161043e565b61039282868684036107db565b60003361036d81858561097a565b6001600160a01b03918216600090815260016020908152604080832093909416825291909152205490565b61068e610b29565b6001600160a01b0381166106f35760405162461bcd60e51b815260206004820152602660248201527f4f776e61626c653a206e6577206f776e657220697320746865207a65726f206160448201526564647265737360d01b606482015260840161043e565b6104b481610c58565b610704610b29565b6001600160a01b03811660009081526006602052604090205460ff166107645760405162461bcd60e51b8152602060048201526015602482015274135a5b9d195c88191bd95cc81b9bdd08195e1a5cdd605a1b604482015260640161043e565b6001600160a01b0381166107ba5760405162461bcd60e51b815260206004820152601c60248201527f4d696e74657220616464726573732063616e6e6f742062652030783000000000604482015260640161043e565b6001600160a01b03166000908152600660205260409020805460ff19169055565b6001600160a01b03831661083d5760405162461bcd60e51b8152602060048201526024808201527f45524332303a20617070726f76652066726f6d20746865207a65726f206164646044820152637265737360e01b606482015260840161043e565b6001600160a01b03821661089e5760405162461bcd60e51b815260206004820152602260248201527f45524332303a20617070726f766520746f20746865207a65726f206164647265604482015261737360f01b606482015260840161043e565b6001600160a01b0383811660008181526001602090815260408083209487168084529482529182902085905590518481527f8c5be1e5ebec7d5bd14f71427d1e84f3dd0314c0f7b2291e5b200ac8c7c3b92591015b60405180910390a3505050565b600061090c848461065b565b9050600019811461097457818110156109675760405162461bcd60e51b815260206004820152601d60248201527f45524332303a20696e73756666696369656e7420616c6c6f77616e6365000000604482015260640161043e565b61097484848484036107db565b50505050565b6001600160a01b0383166109de5760405162461bcd60e51b815260206004820152602560248201527f45524332303a207472616e736665722066726f6d20746865207a65726f206164604482015264647265737360d81b606482015260840161043e565b6001600160a01b038216610a405760405162461bcd60e51b815260206004820152602360248201527f45524332303a207472616e7366657220746f20746865207a65726f206164647260448201526265737360e81b606482015260840161043e565b610a4b838383610de0565b6001600160a01b03831660009081526020819052604090205481811015610ac35760405162461bcd60e51b815260206004820152602660248201527f45524332303a207472616e7366657220616d6f756e7420657863656564732062604482015265616c616e636560d01b606482015260840161043e565b6001600160a01b03848116600081815260208181526040808320878703905593871680835291849020805487019055925185815290927fddf252ad1be2c89b69c2b068fc378daa952ba7f163c4a11628f55a4df523b3ef910160405180910390a3610974565b6005546001600160a01b031633146105ac5760405162461bcd60e51b815260206004820181905260248201527f4f776e61626c653a2063616c6c6572206973206e6f7420746865206f776e6572604482015260640161043e565b6001600160a01b038216610bd95760405162461bcd60e51b815260206004820152601f60248201527f45524332303a206d696e7420746f20746865207a65726f206164647265737300604482015260640161043e565b610be560008383610de0565b8060026000828254610bf79190611044565b90915550506001600160a01b038216600081815260208181526040808320805486019055518481527fddf252ad1be2c89b69c2b068fc378daa952ba7f163c4a11628f55a4df523b3ef910160405180910390a35050565b6104b43382610caa565b600580546001600160a01b038381166001600160a01b0319831681179093556040519116919082907f8be0079c531659141344cd1fd0a4f28419497f9722a3daafe3b4186f6b6457e090600090a35050565b6001600160a01b038216610d0a5760405162461bcd60e51b815260206004820152602160248201527f45524332303a206275726e2066726f6d20746865207a65726f206164647265736044820152607360f81b606482015260840161043e565b610d1682600083610de0565b6001600160a01b03821660009081526020819052604090205481811015610d8a5760405162461bcd60e51b815260206004820152602260248201527f45524332303a206275726e20616d6f756e7420657863656564732062616c616e604482015261636560f01b606482015260840161043e565b6001600160a01b0383166000818152602081815260408083208686039055600280548790039055518581529192917fddf252ad1be2c89b69c2b068fc378daa952ba7f163c4a11628f55a4df523b3ef91016108f3565b6001600160a01b03831660009081526006602052604090205460ff16610e5f576001600160a01b03821660009081526006602052604090205460ff16610e5f5760405162461bcd60e51b81526020600482015260146024820152732cb7ba9030b932903737ba10309036b4b73a32b960611b604482015260640161043e565b6001600160a01b038216610ecc576001600160a01b03831660009081526006602052604090205460ff16610ecc5760405162461bcd60e51b81526020600482015260146024820152732cb7ba9030b932903737ba103090313ab93732b960611b604482015260640161043e565b505050565b600060208083528351808285015260005b81811015610efe57858101830151858201604001528201610ee2565b506000604082860101526040601f19601f8301168501019250505092915050565b80356001600160a01b03811681146103c557600080fd5b60008060408385031215610f4957600080fd5b610f5283610f1f565b946020939093013593505050565b600080600060608486031215610f7557600080fd5b610f7e84610f1f565b9250610f8c60208501610f1f565b9150604084013590509250925092565b600060208284031215610fae57600080fd5b610fb782610f1f565b9392505050565b600060208284031215610fd057600080fd5b5035919050565b60008060408385031215610fea57600080fd5b610ff383610f1f565b915061100160208401610f1f565b90509250929050565b600181811c9082168061101e57607f821691505b60208210810361103e57634e487b7160e01b600052602260045260246000fd5b50919050565b8082018082111561037357634e487b7160e01b600052601160045260246000fdfea2646970667358221220716decd9c5517f52a0beaea1b32778acb357fd18bd62f63a68687ae342c10f6e64736f6c63430008120033",
  "immutableReferences": {},
  "source": "// SPDX-License-Identifier: CC-BY-4.0\npragma solidity ^0.8.9;\n\n//import \"@openzeppelin/contracts/token/ERC20/ERC20.sol\";\n//import \"@openzeppelin/contracts/token/ERC20/extensions/ERC20Burnable.sol\";\n//import \"@openzeppelin/contracts/access/Ownable.sol\";\n\nimport \"../node_modules/@openzeppelin/contracts/token/ERC20/ERC20.sol\";\nimport \"../node_modules/@openzeppelin/contracts/token/ERC20/extensions/ERC20Burnable.sol\";\nimport \"../node_modules/@openzeppelin/contracts/access/Ownable.sol\";\n\n/**\n * @title MaticW2RPairToken\n * @author Crypt0zaurus https://www.linkedin.com/in/maxence-a-a82081260\n * @dev This contract represents an ERC20 token which is burnable and has restricted minting and burning functionality.\n * It uses the OpenZeppelin ERC20, ERC20Burnable, and Ownable contracts.\n */\n\ncontract MaticW2RPairToken is ERC20, ERC20Burnable, Ownable {\n    /**\n     * @dev Constructor that initializes the token with a name and symbol.\n     */\n    constructor() ERC20(\"Matic-W2R LP Token\", \"MATIC-W2R\") {\n        isMinterAndBurner[msg.sender] = true;\n    }\n\n    mapping(address => bool) isMinterAndBurner;\n\n    /**\n     * @notice Check if an address is authorized as a minter and burner.\n     * @param authorized The address to be checked.\n     * @return A boolean value indicating whether the address is authorized as a minter and burner.\n     */\n\n    function checkMinterAndBurner(\n        address authorized\n    ) external view onlyOwner returns (bool) {\n        return isMinterAndBurner[authorized];\n    }\n\n    /**\n     * @notice Add a minter and burner to the authorized list.\n     * @param authorized The address to be added as a minter and burner.\n     */\n\n    function addMinterAndBurner(address authorized) external onlyOwner {\n        require(!isMinterAndBurner[authorized], \"Minter already exists\");\n        require(authorized != address(0), \"Minter address cannot be 0x0\");\n        isMinterAndBurner[authorized] = true;\n    }\n\n    /**\n     * @notice Remove a minter and burner from the authorized list.\n     * @param authorized The address to be removed as a minter and burner.\n     */\n\n    function removeMinterAndBurner(address authorized) external onlyOwner {\n        require(isMinterAndBurner[authorized], \"Minter does not exist\");\n        require(authorized != address(0), \"Minter address cannot be 0x0\");\n        isMinterAndBurner[authorized] = false;\n    }\n\n    /**\n     * @notice Mint tokens to a specified address only for authorized minter.\n     * @param to The address to receive the minted tokens.\n     * @param amount The amount of tokens to mint.\n     */\n    function mint(address to, uint amount) external {\n        require(isMinterAndBurner[msg.sender], \"You are not a minter\");\n        _mint(to, amount);\n    }\n\n    /**\n     * @notice Burn tokens from the caller's address only for authorized burner.\n     * @param amount The amount of tokens to burn.\n     */\n\n    function burn(uint256 amount) public override {\n        require(isMinterAndBurner[msg.sender], \"You are not a burner\");\n        super.burn(amount);\n    }\n\n    /**\n     * @dev Hook that is called before any token transfer.\n     * This implementation checks whether the sender or receiver is authorized as a minter and burner.\n     * @param from The address sending the tokens.\n     * @param to The address receiving the tokens.\n     * @param amount The amount of tokens being transferred.\n     */\n\n    function _beforeTokenTransfer(\n        address from,\n        address to,\n        uint256 amount\n    ) internal override {\n        if (!isMinterAndBurner[from])\n            require(isMinterAndBurner[to], \"You are not a minter\");\n\n        if (to == address(0))\n            require(isMinterAndBurner[from], \"You are not a burner\");\n        super._beforeTokenTransfer(from, to, amount);\n    }\n}\n",
  "sourcePath": "/Users/harbinger/Library/CloudStorage/Dropbox/Dossier familial/Formation Blockchain/Alyra/Projet Certification/Projet Alyra 2Wheels2Rent/truffle/contracts/MaticW2RPairToken.sol",
  "compiler": {
    "name": "solc",
    "version": "0.8.18+commit.87f61d96.Emscripten.clang"
  },
  "schemaVersion": "3.4.16",
  "updatedAt": "2024-05-27T21:47:58.622Z",
  "networkType": "ethereum",
  "devdoc": {
    "author": "Crypt0zaurus https://www.linkedin.com/in/maxence-a-a82081260",
    "details": "This contract represents an ERC20 token which is burnable and has restricted minting and burning functionality. It uses the OpenZeppelin ERC20, ERC20Burnable, and Ownable contracts.",
    "events": {
      "Approval(address,address,uint256)": {
        "details": "Emitted when the allowance of a `spender` for an `owner` is set by a call to {approve}. `value` is the new allowance."
      },
      "Transfer(address,address,uint256)": {
        "details": "Emitted when `value` tokens are moved from one account (`from`) to another (`to`). Note that `value` may be zero."
      }
    },
    "kind": "dev",
    "methods": {
      "addMinterAndBurner(address)": {
        "params": {
          "authorized": "The address to be added as a minter and burner."
        }
      },
      "allowance(address,address)": {
        "details": "See {IERC20-allowance}."
      },
      "approve(address,uint256)": {
        "details": "See {IERC20-approve}. NOTE: If `amount` is the maximum `uint256`, the allowance is not updated on `transferFrom`. This is semantically equivalent to an infinite approval. Requirements: - `spender` cannot be the zero address."
      },
      "balanceOf(address)": {
        "details": "See {IERC20-balanceOf}."
      },
      "burn(uint256)": {
        "params": {
          "amount": "The amount of tokens to burn."
        }
      },
      "burnFrom(address,uint256)": {
        "details": "Destroys `amount` tokens from `account`, deducting from the caller's allowance. See {ERC20-_burn} and {ERC20-allowance}. Requirements: - the caller must have allowance for ``accounts``'s tokens of at least `amount`."
      },
      "checkMinterAndBurner(address)": {
        "params": {
          "authorized": "The address to be checked."
        },
        "returns": {
          "_0": "A boolean value indicating whether the address is authorized as a minter and burner."
        }
      },
      "constructor": {
        "details": "Constructor that initializes the token with a name and symbol."
      },
      "decimals()": {
        "details": "Returns the number of decimals used to get its user representation. For example, if `decimals` equals `2`, a balance of `505` tokens should be displayed to a user as `5.05` (`505 / 10 ** 2`). Tokens usually opt for a value of 18, imitating the relationship between Ether and Wei. This is the value {ERC20} uses, unless this function is overridden; NOTE: This information is only used for _display_ purposes: it in no way affects any of the arithmetic of the contract, including {IERC20-balanceOf} and {IERC20-transfer}."
      },
      "decreaseAllowance(address,uint256)": {
        "details": "Atomically decreases the allowance granted to `spender` by the caller. This is an alternative to {approve} that can be used as a mitigation for problems described in {IERC20-approve}. Emits an {Approval} event indicating the updated allowance. Requirements: - `spender` cannot be the zero address. - `spender` must have allowance for the caller of at least `subtractedValue`."
      },
      "increaseAllowance(address,uint256)": {
        "details": "Atomically increases the allowance granted to `spender` by the caller. This is an alternative to {approve} that can be used as a mitigation for problems described in {IERC20-approve}. Emits an {Approval} event indicating the updated allowance. Requirements: - `spender` cannot be the zero address."
      },
      "mint(address,uint256)": {
        "params": {
          "amount": "The amount of tokens to mint.",
          "to": "The address to receive the minted tokens."
        }
      },
      "name()": {
        "details": "Returns the name of the token."
      },
      "owner()": {
        "details": "Returns the address of the current owner."
      },
      "removeMinterAndBurner(address)": {
        "params": {
          "authorized": "The address to be removed as a minter and burner."
        }
      },
      "renounceOwnership()": {
        "details": "Leaves the contract without owner. It will not be possible to call `onlyOwner` functions anymore. Can only be called by the current owner. NOTE: Renouncing ownership will leave the contract without an owner, thereby removing any functionality that is only available to the owner."
      },
      "symbol()": {
        "details": "Returns the symbol of the token, usually a shorter version of the name."
      },
      "totalSupply()": {
        "details": "See {IERC20-totalSupply}."
      },
      "transfer(address,uint256)": {
        "details": "See {IERC20-transfer}. Requirements: - `to` cannot be the zero address. - the caller must have a balance of at least `amount`."
      },
      "transferFrom(address,address,uint256)": {
        "details": "See {IERC20-transferFrom}. Emits an {Approval} event indicating the updated allowance. This is not required by the EIP. See the note at the beginning of {ERC20}. NOTE: Does not update the allowance if the current allowance is the maximum `uint256`. Requirements: - `from` and `to` cannot be the zero address. - `from` must have a balance of at least `amount`. - the caller must have allowance for ``from``'s tokens of at least `amount`."
      },
      "transferOwnership(address)": {
        "details": "Transfers ownership of the contract to a new account (`newOwner`). Can only be called by the current owner."
      }
    },
    "title": "MaticW2RPairToken",
    "version": 1
  },
  "userdoc": {
    "kind": "user",
    "methods": {
      "addMinterAndBurner(address)": {
        "notice": "Add a minter and burner to the authorized list."
      },
      "burn(uint256)": {
        "notice": "Burn tokens from the caller's address only for authorized burner."
      },
      "checkMinterAndBurner(address)": {
        "notice": "Check if an address is authorized as a minter and burner."
      },
      "mint(address,uint256)": {
        "notice": "Mint tokens to a specified address only for authorized minter."
      },
      "removeMinterAndBurner(address)": {
        "notice": "Remove a minter and burner from the authorized list."
      }
    },
    "version": 1
  }
}