{
  "contractName": "MaticW2Rdex",
  "abi": [
    {
      "inputs": [
        {
          "internalType": "address",
          "name": "W2RAddress",
          "type": "address"
        },
        {
          "internalType": "uint256",
          "name": "initialSwapRate",
          "type": "uint256"
        },
        {
          "internalType": "address",
          "name": "vaultW2RAddress",
          "type": "address"
        },
        {
          "internalType": "address",
          "name": "lpTokenAddress",
          "type": "address"
        }
      ],
      "stateMutability": "nonpayable",
      "type": "constructor"
    },
    {
      "anonymous": false,
      "inputs": [
        {
          "indexed": true,
          "internalType": "address",
          "name": "user",
          "type": "address"
        },
        {
          "indexed": false,
          "internalType": "uint256",
          "name": "maticAmount",
          "type": "uint256"
        },
        {
          "indexed": false,
          "internalType": "uint256",
          "name": "w2rAmount",
          "type": "uint256"
        },
        {
          "indexed": false,
          "internalType": "uint256",
          "name": "lpAmount",
          "type": "uint256"
        }
      ],
      "name": "AddLiquidity",
      "type": "event"
    },
    {
      "anonymous": false,
      "inputs": [
        {
          "indexed": true,
          "internalType": "address",
          "name": "user",
          "type": "address"
        },
        {
          "indexed": false,
          "internalType": "uint256",
          "name": "lpAmount",
          "type": "uint256"
        },
        {
          "indexed": false,
          "internalType": "uint256",
          "name": "date",
          "type": "uint256"
        }
      ],
      "name": "ExitFarm",
      "type": "event"
    },
    {
      "anonymous": false,
      "inputs": [
        {
          "indexed": true,
          "internalType": "address",
          "name": "user",
          "type": "address"
        },
        {
          "indexed": false,
          "internalType": "uint256",
          "name": "lpAmount",
          "type": "uint256"
        },
        {
          "indexed": false,
          "internalType": "uint256",
          "name": "date",
          "type": "uint256"
        }
      ],
      "name": "Farm",
      "type": "event"
    },
    {
      "anonymous": false,
      "inputs": [
        {
          "indexed": true,
          "internalType": "address",
          "name": "user",
          "type": "address"
        },
        {
          "indexed": false,
          "internalType": "uint256",
          "name": "rewards",
          "type": "uint256"
        },
        {
          "indexed": false,
          "internalType": "uint256",
          "name": "date",
          "type": "uint256"
        }
      ],
      "name": "Harvest",
      "type": "event"
    },
    {
      "anonymous": false,
      "inputs": [
        {
          "indexed": true,
          "internalType": "address",
          "name": "previousOwner",
          "type": "address"
        },
        {
          "indexed": true,
          "internalType": "address",
          "name": "newOwner",
          "type": "address"
        }
      ],
      "name": "OwnershipTransferred",
      "type": "event"
    },
    {
      "anonymous": false,
      "inputs": [
        {
          "indexed": true,
          "internalType": "address",
          "name": "user",
          "type": "address"
        },
        {
          "indexed": false,
          "internalType": "uint256",
          "name": "lpAmount",
          "type": "uint256"
        },
        {
          "indexed": false,
          "internalType": "uint256",
          "name": "maticAmount",
          "type": "uint256"
        },
        {
          "indexed": false,
          "internalType": "uint256",
          "name": "w2rAmount",
          "type": "uint256"
        }
      ],
      "name": "RemoveLiquidity",
      "type": "event"
    },
    {
      "anonymous": false,
      "inputs": [
        {
          "indexed": true,
          "internalType": "address",
          "name": "user",
          "type": "address"
        },
        {
          "indexed": false,
          "internalType": "uint256",
          "name": "maticAmount",
          "type": "uint256"
        },
        {
          "indexed": false,
          "internalType": "uint256",
          "name": "w2rAmount",
          "type": "uint256"
        },
        {
          "indexed": false,
          "internalType": "uint256",
          "name": "date",
          "type": "uint256"
        }
      ],
      "name": "SwapMaticForW2R",
      "type": "event"
    },
    {
      "anonymous": false,
      "inputs": [
        {
          "indexed": true,
          "internalType": "address",
          "name": "user",
          "type": "address"
        },
        {
          "indexed": false,
          "internalType": "uint256",
          "name": "w2rAmount",
          "type": "uint256"
        },
        {
          "indexed": false,
          "internalType": "uint256",
          "name": "maticAmount",
          "type": "uint256"
        },
        {
          "indexed": false,
          "internalType": "uint256",
          "name": "date",
          "type": "uint256"
        }
      ],
      "name": "SwapW2RForMatic",
      "type": "event"
    },
    {
      "inputs": [
        {
          "internalType": "address",
          "name": "",
          "type": "address"
        }
      ],
      "name": "LPBalance",
      "outputs": [
        {
          "internalType": "uint256",
          "name": "",
          "type": "uint256"
        }
      ],
      "stateMutability": "view",
      "type": "function",
      "constant": true
    },
    {
      "inputs": [],
      "name": "W2R",
      "outputs": [
        {
          "internalType": "contract IERC20",
          "name": "",
          "type": "address"
        }
      ],
      "stateMutability": "view",
      "type": "function",
      "constant": true
    },
    {
      "inputs": [
        {
          "internalType": "address",
          "name": "",
          "type": "address"
        }
      ],
      "name": "farming",
      "outputs": [
        {
          "internalType": "uint256",
          "name": "lastTime",
          "type": "uint256"
        },
        {
          "internalType": "uint256",
          "name": "lpAmount",
          "type": "uint256"
        }
      ],
      "stateMutability": "view",
      "type": "function",
      "constant": true
    },
    {
      "inputs": [],
      "name": "feesPercent",
      "outputs": [
        {
          "internalType": "uint256",
          "name": "",
          "type": "uint256"
        }
      ],
      "stateMutability": "view",
      "type": "function",
      "constant": true
    },
    {
      "inputs": [],
      "name": "lpToken",
      "outputs": [
        {
          "internalType": "contract IMaticW2RPairToken",
          "name": "",
          "type": "address"
        }
      ],
      "stateMutability": "view",
      "type": "function",
      "constant": true
    },
    {
      "inputs": [],
      "name": "owner",
      "outputs": [
        {
          "internalType": "address",
          "name": "",
          "type": "address"
        }
      ],
      "stateMutability": "view",
      "type": "function",
      "constant": true
    },
    {
      "inputs": [],
      "name": "renounceOwnership",
      "outputs": [],
      "stateMutability": "nonpayable",
      "type": "function"
    },
    {
      "inputs": [],
      "name": "rewardRatePerSecond",
      "outputs": [
        {
          "internalType": "uint256",
          "name": "",
          "type": "uint256"
        }
      ],
      "stateMutability": "view",
      "type": "function",
      "constant": true
    },
    {
      "inputs": [],
      "name": "securityPercentage",
      "outputs": [
        {
          "internalType": "uint256",
          "name": "",
          "type": "uint256"
        }
      ],
      "stateMutability": "view",
      "type": "function",
      "constant": true
    },
    {
      "inputs": [],
      "name": "swapRate",
      "outputs": [
        {
          "internalType": "uint256",
          "name": "",
          "type": "uint256"
        }
      ],
      "stateMutability": "view",
      "type": "function",
      "constant": true
    },
    {
      "inputs": [],
      "name": "totalMaticFees",
      "outputs": [
        {
          "internalType": "uint256",
          "name": "",
          "type": "uint256"
        }
      ],
      "stateMutability": "view",
      "type": "function",
      "constant": true
    },
    {
      "inputs": [],
      "name": "totalMaticLiquidity",
      "outputs": [
        {
          "internalType": "uint256",
          "name": "",
          "type": "uint256"
        }
      ],
      "stateMutability": "view",
      "type": "function",
      "constant": true
    },
    {
      "inputs": [],
      "name": "totalW2RFees",
      "outputs": [
        {
          "internalType": "uint256",
          "name": "",
          "type": "uint256"
        }
      ],
      "stateMutability": "view",
      "type": "function",
      "constant": true
    },
    {
      "inputs": [],
      "name": "totalW2RLiquidity",
      "outputs": [
        {
          "internalType": "uint256",
          "name": "",
          "type": "uint256"
        }
      ],
      "stateMutability": "view",
      "type": "function",
      "constant": true
    },
    {
      "inputs": [
        {
          "internalType": "address",
          "name": "newOwner",
          "type": "address"
        }
      ],
      "name": "transferOwnership",
      "outputs": [],
      "stateMutability": "nonpayable",
      "type": "function"
    },
    {
      "stateMutability": "payable",
      "type": "receive",
      "payable": true
    },
    {
      "inputs": [],
      "name": "getContractBalances",
      "outputs": [
        {
          "internalType": "uint256",
          "name": "",
          "type": "uint256"
        },
        {
          "internalType": "uint256",
          "name": "",
          "type": "uint256"
        },
        {
          "internalType": "uint256",
          "name": "",
          "type": "uint256"
        }
      ],
      "stateMutability": "view",
      "type": "function",
      "constant": true
    },
    {
      "inputs": [],
      "name": "getUserBalances",
      "outputs": [
        {
          "internalType": "uint256",
          "name": "",
          "type": "uint256"
        },
        {
          "internalType": "uint256",
          "name": "",
          "type": "uint256"
        },
        {
          "internalType": "uint256",
          "name": "",
          "type": "uint256"
        }
      ],
      "stateMutability": "view",
      "type": "function",
      "constant": true
    },
    {
      "inputs": [
        {
          "internalType": "address",
          "name": "_toCheck",
          "type": "address"
        }
      ],
      "name": "checkIfAuthorizedInLPcontract",
      "outputs": [
        {
          "internalType": "bool",
          "name": "",
          "type": "bool"
        }
      ],
      "stateMutability": "view",
      "type": "function",
      "constant": true
    },
    {
      "inputs": [
        {
          "internalType": "address",
          "name": "_authorized",
          "type": "address"
        }
      ],
      "name": "setAuthorizedInLPcontract",
      "outputs": [],
      "stateMutability": "nonpayable",
      "type": "function"
    },
    {
      "inputs": [
        {
          "internalType": "address",
          "name": "_authorized",
          "type": "address"
        }
      ],
      "name": "removeAuthorizedInLPcontract",
      "outputs": [],
      "stateMutability": "nonpayable",
      "type": "function"
    },
    {
      "inputs": [
        {
          "internalType": "address",
          "name": "_W2Rowner",
          "type": "address"
        }
      ],
      "name": "checkW2Rallowance",
      "outputs": [
        {
          "internalType": "uint256",
          "name": "",
          "type": "uint256"
        }
      ],
      "stateMutability": "view",
      "type": "function",
      "constant": true
    },
    {
      "inputs": [
        {
          "internalType": "address",
          "name": "_LPowner",
          "type": "address"
        }
      ],
      "name": "checkLPAllowance",
      "outputs": [
        {
          "internalType": "uint256",
          "name": "",
          "type": "uint256"
        }
      ],
      "stateMutability": "view",
      "type": "function",
      "constant": true
    },
    {
      "inputs": [],
      "name": "swapMaticForW2R",
      "outputs": [],
      "stateMutability": "payable",
      "type": "function",
      "payable": true
    },
    {
      "inputs": [
        {
          "internalType": "uint256",
          "name": "w2rAmount",
          "type": "uint256"
        }
      ],
      "name": "swapW2RForMatic",
      "outputs": [],
      "stateMutability": "nonpayable",
      "type": "function"
    },
    {
      "inputs": [
        {
          "internalType": "uint256",
          "name": "w2rAmount",
          "type": "uint256"
        }
      ],
      "name": "addLiquidity",
      "outputs": [],
      "stateMutability": "payable",
      "type": "function",
      "payable": true
    },
    {
      "inputs": [
        {
          "internalType": "uint256",
          "name": "lpAmount",
          "type": "uint256"
        }
      ],
      "name": "removeLiquidity",
      "outputs": [],
      "stateMutability": "nonpayable",
      "type": "function"
    },
    {
      "inputs": [
        {
          "internalType": "uint256",
          "name": "lpAmount",
          "type": "uint256"
        }
      ],
      "name": "farm",
      "outputs": [],
      "stateMutability": "nonpayable",
      "type": "function"
    },
    {
      "inputs": [],
      "name": "exitFarm",
      "outputs": [],
      "stateMutability": "nonpayable",
      "type": "function"
    },
    {
      "inputs": [],
      "name": "harvest",
      "outputs": [],
      "stateMutability": "nonpayable",
      "type": "function"
    },
    {
      "inputs": [
        {
          "internalType": "uint256",
          "name": "newSwapRate",
          "type": "uint256"
        }
      ],
      "name": "setSwapRate",
      "outputs": [],
      "stateMutability": "nonpayable",
      "type": "function"
    },
    {
      "inputs": [
        {
          "internalType": "uint256",
          "name": "_newRewardRate",
          "type": "uint256"
        }
      ],
      "name": "setRewardRate",
      "outputs": [],
      "stateMutability": "nonpayable",
      "type": "function"
    },
    {
      "inputs": [
        {
          "internalType": "uint256",
          "name": "_newSecurityPercentage",
          "type": "uint256"
        }
      ],
      "name": "setSecurityPercentage",
      "outputs": [],
      "stateMutability": "nonpayable",
      "type": "function"
    },
    {
      "inputs": [],
      "name": "withdrawFees",
      "outputs": [],
      "stateMutability": "nonpayable",
      "type": "function"
    }
  ],
  "bytecode": "0x60806040523480156200001157600080fd5b5060405162002b0338038062002b0383398101604081905262000034916200020c565b6200003f336200019f565b6001600160a01b0384166200009b5760405162461bcd60e51b815260206004820152601960248201527f57325220616464726573732063616e6e6f74206265203078300000000000000060448201526064015b60405180910390fd5b60008311620000ed5760405162461bcd60e51b815260206004820181905260248201527f537761702072617465206d7573742062652067726561746572207468616e2030604482015260640162000092565b6001600160a01b038216620001455760405162461bcd60e51b815260206004820152601f60248201527f5661756c742057325220616464726573732063616e6e6f742062652030783000604482015260640162000092565b600180546001600160a01b039586166001600160a01b0319918216178255600280549387169382169390931790925560039390935564174876e800600655600b8054929094169116179091556005600755600a5562000260565b600080546001600160a01b038381166001600160a01b0319831681178455604051919092169283917f8be0079c531659141344cd1fd0a4f28419497f9722a3daafe3b4186f6b6457e09190a35050565b80516001600160a01b03811681146200020757600080fd5b919050565b600080600080608085870312156200022357600080fd5b6200022e85620001ef565b9350602085015192506200024560408601620001ef565b91506200025560608601620001ef565b905092959194509250565b61289380620002706000396000f3fe6080604052600436106101f25760003560e01c80637c6dba8e1161010d578063cddaf358116100a0578063f2fde38b1161006f578063f2fde38b14610572578063f3c070f714610592578063f4cde469146105a8578063f9ef2c6b146105c8578063ffd2a7d3146105de57600080fd5b8063cddaf35814610511578063d1ef1beb14610526578063de6d7a721461053c578063dfbfbab31461055c57600080fd5b80639c8f9f23116100dc5780639c8f9f23146104815780639e447fc6146104a1578063bd6edba5146104c1578063c00d2700146104f157600080fd5b80637c6dba8e1461041b5780637f2e4f2a1461043b5780638da5cb5b146104435780638f0360721461046157600080fd5b806351c6590a116101855780635fcbd285116101545780635fcbd28514610398578063698518e5146103d0578063715018a6146103e65780637bec8e2d146103fb57600080fd5b806351c6590a14610339578063538a85a11461034c5780635a18f4bc1461036c5780635d773b2c1461038257600080fd5b806328d6dbcd116101c157806328d6dbcd1461029957806330cb7bfb146102e25780634641257d1461030f578063476343ee1461032457600080fd5b806302b74970146101fe5780630b544a8c1461022057806316578dc614610249578063177953831461026957600080fd5b366101f957005b600080fd5b34801561020a57600080fd5b5061021e6102193660046125e5565b6105f3565b005b34801561022c57600080fd5b5061023660095481565b6040519081526020015b60405180910390f35b34801561025557600080fd5b5061021e6102643660046125e5565b610921565b34801561027557600080fd5b506102896102843660046125fe565b6109c2565b6040519015158152602001610240565b3480156102a557600080fd5b506102cd6102b43660046125fe565b600d602052600090815260409020805460019091015482565b60408051928352602083019190915201610240565b3480156102ee57600080fd5b506102366102fd3660046125fe565b600c6020526000908152604090205481565b34801561031b57600080fd5b5061021e610a37565b34801561033057600080fd5b5061021e610ba2565b61021e6103473660046125e5565b610d07565b34801561035857600080fd5b5061021e6103673660046125e5565b6111e6565b34801561037857600080fd5b5061023660045481565b34801561038e57600080fd5b5061023660065481565b3480156103a457600080fd5b506002546103b8906001600160a01b031681565b6040516001600160a01b039091168152602001610240565b3480156103dc57600080fd5b5061023660035481565b3480156103f257600080fd5b5061021e611406565b34801561040757600080fd5b5061021e6104163660046125fe565b61141a565b34801561042757600080fd5b506102366104363660046125fe565b611485565b61021e6114fb565b34801561044f57600080fd5b506000546001600160a01b03166103b8565b34801561046d57600080fd5b506001546103b8906001600160a01b031681565b34801561048d57600080fd5b5061021e61049c3660046125e5565b61170f565b3480156104ad57600080fd5b5061021e6104bc3660046125e5565b611cd7565b3480156104cd57600080fd5b506104d6611d3f565b60408051938452602084019290925290820152606001610240565b3480156104fd57600080fd5b5061021e61050c3660046125fe565b611e2a565b34801561051d57600080fd5b5061021e611e64565b34801561053257600080fd5b5061023660055481565b34801561054857600080fd5b506102366105573660046125fe565b611f6b565b34801561056857600080fd5b50610236600a5481565b34801561057e57600080fd5b5061021e61058d3660046125fe565b611fa4565b34801561059e57600080fd5b5061023660075481565b3480156105b457600080fd5b5061021e6105c33660046125e5565b61201a565b3480156105d457600080fd5b5061023660085481565b3480156105ea57600080fd5b506104d6612077565b6000610603565b60405180910390fd5b333161065d5760405162461bcd60e51b8152602060048201526024808201527f4d415449432062616c616e6365206d75737420626520677265617465722074686044820152630616e20360e41b60648201526084016105fa565b6000821161067d5760405162461bcd60e51b81526004016105fa9061262e565b8161068733611485565b10156106d55760405162461bcd60e51b815260206004820152601d60248201527f596f75206e65656420746f20617070726f76652057325220666972737400000060448201526064016105fa565b6000600354836106e59190612685565b9050612710600a54826106f891906126a7565b6107039060646126a7565b101561070e57600080fd5b6000612710600a548361072191906126a7565b61072c9060646126a7565b6107369190612685565b90508161271060075460045461074c91906126a7565b6107579060646126a7565b6107619190612685565b10156107d55760405162461bcd60e51b815260206004820152603d60248201527f596f752063616e27742073776170206d6f7265207468616e203525206f66207460448201527f686520636f6e74726163742773204d41544943206c697175696469747900000060648201526084016105fa565b80600860008282546107e791906126be565b909155506107f7905081836126d1565b6004600082825461080891906126d1565b92505081905550836005600082825461082191906126be565b909155505060015461083e906001600160a01b0316333087612118565b6001925060003361084f83856126d1565b604051600081818185875af1925050503d806000811461088b576040519150601f19603f3d011682016040523d82523d6000602084013e610890565b606091505b5050905060009350806108d85760405162461bcd60e51b815260206004820152601060248201526f2a3930b739b332b9103330b4b632b21760811b60448201526064016105fa565b60408051868152602081018590524281830152905133917fa5753ab11bf99f3fce97d5d308a4fa395f21cddb5de19469d996a1f391905d73919081900360600190a25050505050565b610929612189565b60008111801561093a575060648111155b6109bd5760405162461bcd60e51b815260206004820152604860248201527f53656375726974792070657263656e74616765206d757374206265206772656160448201527f746572207468616e203020616e64206c657373207468616e206f72206571756160648201526706c20746f203130360c41b608482015260a4016105fa565b600755565b600254604051632b2540bd60e01b81526001600160a01b0383811660048301526000921690632b2540bd90602401602060405180830381865afa158015610a0d573d6000803e3d6000fd5b505050506040513d601f19601f82011682018060405250810190610a3191906126e4565b92915050565b336000908152600d602052604090206001015480610a975760405162461bcd60e51b815260206004820152601d60248201527f4e6f204c5020746f6b656e7320746f20636c61696d207265776172647300000060448201526064016105fa565b6000610aa2336121e3565b905060008111610aeb5760405162461bcd60e51b81526020600482015260146024820152734e6f207265776172647320617661696c61626c6560601b60448201526064016105fa565b600b5460405163255d23d760e11b8152336004820152602481018390526001600160a01b0390911690634aba47ae90604401600060405180830381600087803b158015610b3757600080fd5b505af1158015610b4b573d6000803e3d6000fd5b5050336000818152600d602090815260409182902042908190558251878152918201529193507f71bab65ced2e5750775a0613be067df48ef06cf92a496ebf7663ae06609249549250015b60405180910390a25050565b610baa612189565b60095415610c2057600b5460095460405163255d23d760e11b815233600482015260248101919091526001600160a01b0390911690634aba47ae90604401600060405180830381600087803b158015610c0257600080fd5b505af1158015610c16573d6000803e3d6000fd5b5050600060095550505b600060085411610c685760405162461bcd60e51b81526020600482015260136024820152724e6f206665657320746f20776974686472617760681b60448201526064016105fa565b60006008819055604051339082908181818181875af1925050503d8060008114610cae576040519150601f19603f3d011682016040523d82523d6000602084013e610cb3565b606091505b5050905080610d045760405162461bcd60e51b815260206004820152601760248201527f4661696c656420746f207769746864726177206665657300000000000000000060448201526064016105fa565b50565b60008111610d275760405162461bcd60e51b81526004016105fa9061262e565b60003411610d475760405162461bcd60e51b81526004016105fa90612706565b80610d5133611485565b1015610d9f5760405162461bcd60e51b815260206004820152601d60248201527f596f75206e65656420746f20617070726f76652057325220666972737400000060448201526064016105fa565b34612710610daf8361012c6126a7565b1015610dba57600080fd5b612710610dc98361012c6126a7565b610dd39190612685565b610ddd90836126d1565b600354610dea90836126a7565b10158015610e265750612710610e028361012c6126a7565b610e0c9190612685565b610e1690836126be565b600354610e2390836126a7565b11155b610e8d5760405162461bcd60e51b815260206004820152603260248201527f4d415449432d57325220726174696f206973206e6f742077697468696e2074686044820152716520616c6c6f77656420736c69707061676560701b60648201526084016105fa565b60006004546000148015610ea15750600554155b15610eb7575060048190556005829055806110e6565b6000600354600554610ec99190612685565b600454610ed691906126be565b905080610eeb84670de0b6b3a76400006126a7565b610ef59190612685565b9150612710600754600260009054906101000a90046001600160a01b03166001600160a01b03166318160ddd6040518163ffffffff1660e01b8152600401602060405180830381865afa158015610f50573d6000803e3d6000fd5b505050506040513d601f19601f82011682018060405250810190610f749190612749565b610f7e91906126a7565b610f899060646126a7565b1015610f9457600080fd5b600754600254604080516318160ddd60e01b8152905161271093926001600160a01b0316916318160ddd9160048083019260209291908290030181865afa158015610fe3573d6000803e3d6000fd5b505050506040513d601f19601f820116820180604052508101906110079190612749565b61101191906126a7565b61101c9060646126a7565b6110269190612685565b336000908152600c602052604090205461104090846126be565b11156110b45760405162461bcd60e51b815260206004820152603d60248201527f596f752063616e277420616464206d6f7265207468616e20746865207365637560448201527f726974792025206f662074686520746f74616c204c5020737570706c7900000060648201526084016105fa565b82600460008282546110c691906126be565b9250508190555083600560008282546110df91906126be565b9091555050505b336000908152600c6020526040812080548392906111059084906126be565b90915550506002546040516340c10f1960e01b8152306004820152602481018390526001600160a01b03909116906340c10f1990604401600060405180830381600087803b15801561115657600080fd5b505af115801561116a573d6000803e3d6000fd5b505060025461118692506001600160a01b0316905033836122fe565b60015461119e906001600160a01b0316333086612118565b604080518381526020810185905290810182905233907fbeb3885786d637a474cbc287c0a44587231633a077f0bd30354d5a4b18996fce9060600160405180910390a2505050565b80600081116112375760405162461bcd60e51b815260206004820181905260248201527f4c5020616d6f756e74206d7573742062652067726561746572207468616e203060448201526064016105fa565b8061124133611f6b565b101561125f5760405162461bcd60e51b81526004016105fa90612762565b336000908152600c602052604090205481118015906112e857506002546040516370a0823160e01b815233600482015282916001600160a01b0316906370a0823190602401602060405180830381865afa1580156112c1573d6000803e3d6000fd5b505050506040513d601f19601f820116820180604052508101906112e59190612749565b10155b6113045760405162461bcd60e51b81526004016105fa906127a4565b336000908152600c602052604090205481111561135a5760405162461bcd60e51b81526020600482015260146024820152734e6f7420656e6f756768204c5020746f6b656e7360601b60448201526064016105fa565b336000908152600c6020526040812080548492906113799084906126d1565b9091555050336000908152600d6020526040812060010180548492906113a09084906126be565b90915550506002546113bd906001600160a01b0316333085612118565b336000818152600d602090815260409182902042908190558251868152918201527f9fc16615f48f603b9164a63f0ff1c7bc4c2b67fb3a51ecfd9856b0c843c9c0229101610b96565b61140e612189565b6114186000612333565b565b611422612189565b6002546040516358b80e3560e01b81526001600160a01b038381166004830152909116906358b80e35906024015b600060405180830381600087803b15801561146a57600080fd5b505af115801561147e573d6000803e3d6000fd5b5050505050565b600154604051636eb1769f60e11b81526001600160a01b038381166004830152306024830152600092169063dd62ed3e906044015b602060405180830381865afa1580156114d7573d6000803e3d6000fd5b505050506040513d601f19601f82011682018060405250810190610a319190612749565b6000341161151b5760405162461bcd60e51b81526004016105fa90612706565b612710600a543461152c91906126a7565b6115379060646126a7565b101561154257600080fd5b6000612710600a543461155591906126a7565b6115609060646126a7565b61156a9190612685565b90506000600354823461157d91906126d1565b61158791906126a7565b9050600081116115a95760405162461bcd60e51b81526004016105fa9061262e565b6127106007546005546115bc91906126a7565b6115c79060646126a7565b10156115d257600080fd5b806127106007546005546115e691906126a7565b6115f19060646126a7565b6115fb9190612685565b10156116655760405162461bcd60e51b815260206004820152603360248201527f596f752063616e27742073776170206d6f7265207468616e203525206f662074604482015272686520746f74616c2057325220737570706c7960681b60648201526084016105fa565b816008600082825461167791906126be565b90915550611687905082346126d1565b6004600082825461169891906126be565b9250508190555080600560008282546116b191906126d1565b90915550506001546116cd906001600160a01b031633836122fe565b6040805134815260208101839052429181019190915233907f228d47c99c3df2f0352ef63baed152c51569c5547cb3c098f724742633b5eb2790606001610b96565b80600081116117605760405162461bcd60e51b815260206004820181905260248201527f4c5020616d6f756e74206d7573742062652067726561746572207468616e203060448201526064016105fa565b8061176a33611f6b565b10156117885760405162461bcd60e51b81526004016105fa90612762565b336000908152600c6020526040902054811180159061181157506002546040516370a0823160e01b815233600482015282916001600160a01b0316906370a0823190602401602060405180830381865afa1580156117ea573d6000803e3d6000fd5b505050506040513d601f19601f8201168201806040525081019061180e9190612749565b10155b61182d5760405162461bcd60e51b81526004016105fa906127a4565b336000908152600c60205260409020548111156118835760405162461bcd60e51b81526020600482015260146024820152734e6f7420656e6f756768204c5020746f6b656e7360601b60448201526064016105fa565b6000600254604080516318160ddd60e01b815290516000926001600160a01b0316916318160ddd9160048083019260209291908290030181865afa1580156118cf573d6000803e3d6000fd5b505050506040513d601f19601f820116820180604052508101906118f39190612749565b116119395760405162461bcd60e51b81526020600482015260166024820152754e6f206c697175696469747920746f2072656d6f766560501b60448201526064016105fa565b600060045411801561194d57506000600554115b6119925760405162461bcd60e51b81526020600482015260166024820152754e6f206c697175696469747920746f2072656d6f766560501b60448201526064016105fa565b600254604080516318160ddd60e01b815290516000926001600160a01b0316916318160ddd9160048083019260209291908290030181865afa1580156119dc573d6000803e3d6000fd5b505050506040513d601f19601f82011682018060405250810190611a009190612749565b600454611a0d90866126a7565b611a179190612685565b90506000600260009054906101000a90046001600160a01b03166001600160a01b03166318160ddd6040518163ffffffff1660e01b8152600401602060405180830381865afa158015611a6e573d6000803e3d6000fd5b505050506040513d601f19601f82011682018060405250810190611a929190612749565b600554611a9f90876126a7565b611aa99190612685565b336000908152600c6020526040812080549293508792909190611acd9084906126d1565b925050819055508160046000828254611ae691906126d1565b925050819055508060056000828254611aff91906126d1565b9091555050600154611b1b906001600160a01b031633836122fe565b6002546040516323b872dd60e01b8152336004820152306024820152604481018790526001600160a01b03909116906323b872dd906064016020604051808303816000875af1158015611b72573d6000803e3d6000fd5b505050506040513d601f19601f82011682018060405250810190611b9691906126e4565b50600254604051630852cd8d60e31b8152600481018790526001600160a01b03909116906342966c6890602401600060405180830381600087803b158015611bdd57600080fd5b505af1158015611bf1573d6000803e3d6000fd5b5050604051600195506000925033915084908381818185875af1925050503d8060008114611c3b576040519150601f19603f3d011682016040523d82523d6000602084013e611c40565b606091505b505090506000935080611c8c5760405162461bcd60e51b81526020600482015260146024820152734661696c656420746f2073656e64204d4154494360601b60448201526064016105fa565b604080518481526020810184905290810187905233907f59c3a0b60c6ab7deb62e1440c9e72441db6db7dfe514dba8cb18e60c0d896efa9060600160405180910390a2505050505050565b611cdf612189565b60008111611d3a5760405162461bcd60e51b815260206004820152602260248201527f5265776172642072617465206d7573742062652067726561746572207468616e604482015261020360f41b60648201526084016105fa565b600655565b6001546040516370a0823160e01b8152336004820152600091829182916001600160a01b0316906370a0823190602401602060405180830381865afa158015611d8c573d6000803e3d6000fd5b505050506040513d601f19601f82011682018060405250810190611db09190612749565b6002546040516370a0823160e01b8152336004820181905231916001600160a01b0316906370a08231906024015b602060405180830381865afa158015611dfb573d6000803e3d6000fd5b505050506040513d601f19601f82011682018060405250810190611e1f9190612749565b925092509250909192565b611e32612189565b600254604051633e5fcf0b60e21b81526001600160a01b0383811660048301529091169063f97f3c2c90602401611450565b336000908152600d602052604090206001015480611ec45760405162461bcd60e51b815260206004820152601d60248201527f4e6f204c5020746f6b656e7320746f20636c61696d207265776172647300000060448201526064016105fa565b611ecc610a37565b336000908152600d602052604081206001018054839290611eee9084906126d1565b9091555050336000908152600c602052604081208054839290611f129084906126be565b9091555050600254611f2e906001600160a01b031633836122fe565b6040805182815242602082015233917f9c17b9b1252c31bf8727169baa67751ad5869f505488283af0f2c09cb26320bc910160405180910390a250565b600254604051636eb1769f60e11b81526001600160a01b038381166004830152306024830152600092169063dd62ed3e906044016114ba565b611fac612189565b6001600160a01b0381166120115760405162461bcd60e51b815260206004820152602660248201527f4f776e61626c653a206e6577206f776e657220697320746865207a65726f206160448201526564647265737360d01b60648201526084016105fa565b610d0481612333565b612022612189565b600081116120725760405162461bcd60e51b815260206004820181905260248201527f537761702072617465206d7573742062652067726561746572207468616e203060448201526064016105fa565b600355565b6001546040516370a0823160e01b8152306004820152600091829182916001600160a01b0316906370a0823190602401602060405180830381865afa1580156120c4573d6000803e3d6000fd5b505050506040513d601f19601f820116820180604052508101906120e89190612749565b6002546040516370a0823160e01b815230600482015247916001600160a01b0316906370a0823190602401611dde565b6040516001600160a01b03808516602483015283166044820152606481018290526121839085906323b872dd60e01b906084015b60408051601f198184030181529190526020810180516001600160e01b03166001600160e01b031990931692909217909152612383565b50505050565b6000546001600160a01b031633146114185760405162461bcd60e51b815260206004820181905260248201527f4f776e61626c653a2063616c6c6572206973206e6f7420746865206f776e657260448201526064016105fa565b60006001600160a01b03821661222d5760405162461bcd60e51b815260206004820152600f60248201526e496e76616c6964206164647265737360881b60448201526064016105fa565b336000908152600d6020526040808220600101546001600160a01b03851683529082205490919061225e90426126d1565b90506000600654828461227191906126a7565b61227b91906126a7565b9050612710600a548261228e91906126a7565b6122999060646126a7565b10156122a457600080fd5b6000612710600a54836122b791906126a7565b6122c29060646126a7565b6122cc9190612685565b905060006122da82846126d1565b905081600960008282546122ee91906126be565b9091555090979650505050505050565b6040516001600160a01b03831660248201526044810182905261232e90849063a9059cbb60e01b9060640161214c565b505050565b600080546001600160a01b038381166001600160a01b0319831681178455604051919092169283917f8be0079c531659141344cd1fd0a4f28419497f9722a3daafe3b4186f6b6457e09190a35050565b60006123d8826040518060400160405280602081526020017f5361666545524332303a206c6f772d6c6576656c2063616c6c206661696c6564815250856001600160a01b03166124559092919063ffffffff16565b80519091501561232e57808060200190518101906123f691906126e4565b61232e5760405162461bcd60e51b815260206004820152602a60248201527f5361666545524332303a204552433230206f7065726174696f6e20646964206e6044820152691bdd081cdd58d8d9595960b21b60648201526084016105fa565b6060612464848460008561246c565b949350505050565b6060824710156124cd5760405162461bcd60e51b815260206004820152602660248201527f416464726573733a20696e73756666696369656e742062616c616e636520666f6044820152651c8818d85b1b60d21b60648201526084016105fa565b600080866001600160a01b031685876040516124e9919061280e565b60006040518083038185875af1925050503d8060008114612526576040519150601f19603f3d011682016040523d82523d6000602084013e61252b565b606091505b509150915061253c87838387612547565b979650505050505050565b606083156125b65782516000036125af576001600160a01b0385163b6125af5760405162461bcd60e51b815260206004820152601d60248201527f416464726573733a2063616c6c20746f206e6f6e2d636f6e747261637400000060448201526064016105fa565b5081612464565b61246483838151156125cb5781518083602001fd5b8060405162461bcd60e51b81526004016105fa919061282a565b6000602082840312156125f757600080fd5b5035919050565b60006020828403121561261057600080fd5b81356001600160a01b038116811461262757600080fd5b9392505050565b60208082526021908201527f57325220616d6f756e74206d7573742062652067726561746572207468616e206040820152600360fc1b606082015260800190565b634e487b7160e01b600052601160045260246000fd5b6000826126a257634e487b7160e01b600052601260045260246000fd5b500490565b8082028115828204841417610a3157610a3161266f565b80820180821115610a3157610a3161266f565b81810381811115610a3157610a3161266f565b6000602082840312156126f657600080fd5b8151801515811461262757600080fd5b60208082526023908201527f4d4154494320616d6f756e74206d75737420626520677265617465722074686160408201526206e20360ec1b606082015260800190565b60006020828403121561275b57600080fd5b5051919050565b60208082526022908201527f596f75206e65656420746f20617070726f7665204c5020746f6b656e206669726040820152611cdd60f21b606082015260800190565b60208082526026908201527f596f7520646f6e2774206861766520616e79204c5020746f6b656e7320746f2060408201526572656d6f766560d01b606082015260800190565b60005b838110156128055781810151838201526020016127ed565b50506000910152565b600082516128208184602087016127ea565b9190910192915050565b60208152600082518060208401526128498160408501602087016127ea565b601f01601f1916919091016040019291505056fea26469706673582212200b79a081086a61faeabd330e6162c937dd99a1d90e2197753378b99b57e3a69864736f6c63430008120033",
  "immutableReferences": {},
  "source": "// SPDX-License-Identifier: MIT\npragma solidity ^0.8.9;\n\nimport \"@openzeppelin/contracts/token/ERC20/ERC20.sol\";\nimport \"@openzeppelin/contracts/token/ERC20/extensions/ERC20Burnable.sol\";\nimport \"@openzeppelin/contracts/token/ERC20/utils/SafeERC20.sol\";\nimport \"@openzeppelin/contracts/access/Ownable.sol\";\n\ninterface I5VaultW2R {\n    function distributeW2R(address receiver, uint amount) external;\n}\n\ninterface IMaticW2RPairToken is IERC20 {\n    function checkMinterAndBurner(\n        address authorized\n    ) external view returns (bool);\n\n    function addMinterAndBurner(address authorized) external;\n\n    function removeMinterAndBurner(address authorized) external;\n\n    function mint(address to, uint amount) external;\n\n    function burn(uint256 amount) external;\n}\n\ncontract MaticW2Rdex is Ownable {\n    using SafeERC20 for IERC20;\n    using SafeERC20 for IMaticW2RPairToken;\n    IERC20 public W2R;\n    IMaticW2RPairToken public lpToken;\n    uint public swapRate;\n    uint public totalMaticLiquidity;\n    uint public totalW2RLiquidity;\n    uint public rewardRatePerSecond;\n    uint public securityPercentage;\n    uint public totalMaticFees;\n    uint public totalW2RFees;\n    uint public feesPercent;\n\n    I5VaultW2R vaultW2R;\n\n    mapping(address => uint) public LPBalance;\n    mapping(address => Farming) public farming;\n\n    struct Farming {\n        uint lastTime;\n        uint lpAmount;\n    }\n\n    event SwapMaticForW2R(\n        address indexed user,\n        uint maticAmount,\n        uint w2rAmount,\n        uint date\n    );\n    event SwapW2RForMatic(\n        address indexed user,\n        uint w2rAmount,\n        uint maticAmount,\n        uint date\n    );\n\n    event AddLiquidity(\n        address indexed user,\n        uint maticAmount,\n        uint w2rAmount,\n        uint lpAmount\n    );\n    event RemoveLiquidity(\n        address indexed user,\n        uint lpAmount,\n        uint maticAmount,\n        uint w2rAmount\n    );\n    event Farm(address indexed user, uint lpAmount, uint date);\n    event Harvest(address indexed user, uint rewards, uint date);\n    event ExitFarm(address indexed user, uint lpAmount, uint date);\n\n    constructor(\n        address W2RAddress,\n        uint initialSwapRate,\n        address vaultW2RAddress,\n        address lpTokenAddress\n    ) {\n        require(W2RAddress != address(0), \"W2R address cannot be 0x0\");\n        require(initialSwapRate > 0, \"Swap rate must be greater than 0\");\n        require(\n            vaultW2RAddress != address(0),\n            \"Vault W2R address cannot be 0x0\"\n        );\n        W2R = IERC20(W2RAddress);\n        lpToken = IMaticW2RPairToken(lpTokenAddress);\n        swapRate = initialSwapRate;\n        rewardRatePerSecond = 10 ** 11; // 30% de la valeur initiale MATIC-W2R rcompense en W2R par an\n        vaultW2R = I5VaultW2R(vaultW2RAddress);\n        securityPercentage = 5;\n        feesPercent = 1;\n    }\n\n    modifier checkLPAmount(uint lpAmount) {\n        require(lpAmount > 0, \"LP amount must be greater than 0\");\n\n        require(\n            checkLPAllowance(msg.sender) >= lpAmount,\n            \"You need to approve LP token first\"\n        );\n        require(\n            LPBalance[msg.sender] >= lpAmount &&\n                lpToken.balanceOf(msg.sender) >= lpAmount,\n            \"You don't have any LP tokens to remove\"\n        );\n        require(lpAmount <= LPBalance[msg.sender], \"Not enough LP tokens\");\n\n        _;\n    }\n\n    function getContractBalances() external view returns (uint, uint, uint) {\n        // W2R, MATIC, LP\n        return (\n            W2R.balanceOf(address(this)),\n            address(this).balance,\n            lpToken.balanceOf(address(this))\n        );\n    }\n\n    function getUserBalances() external view returns (uint, uint, uint) {\n        return (\n            W2R.balanceOf(msg.sender),\n            msg.sender.balance,\n            lpToken.balanceOf(msg.sender)\n        );\n    }\n\n    function checkIfAuthorizedInLPcontract(\n        address _toCheck\n    ) public view returns (bool) {\n        return lpToken.checkMinterAndBurner(_toCheck);\n    }\n\n    function setAuthorizedInLPcontract(address _authorized) external onlyOwner {\n        lpToken.addMinterAndBurner(_authorized);\n    }\n\n    function removeAuthorizedInLPcontract(\n        address _authorized\n    ) external onlyOwner {\n        lpToken.removeMinterAndBurner(_authorized);\n    }\n\n    function checkW2Rallowance(address _W2Rowner) public view returns (uint) {\n        return W2R.allowance(_W2Rowner, address(this));\n    }\n\n    function checkLPAllowance(address _LPowner) public view returns (uint) {\n        return lpToken.allowance(_LPowner, address(this));\n    }\n\n    function swapMaticForW2R() external payable {\n        require(msg.value > 0, \"MATIC amount must be greater than 0\");\n        require((msg.value * feesPercent * 100) >= 10000);\n        uint fees = (msg.value * feesPercent * 100) / 10000;\n        uint w2rAmount = (msg.value - fees) * swapRate;\n        require(w2rAmount > 0, \"W2R amount must be greater than 0\");\n        require((totalW2RLiquidity * securityPercentage * 100) >= 10000);\n        require(\n            (totalW2RLiquidity * securityPercentage * 100) / 10000 >= w2rAmount,\n            \"You can't swap more than 5% of the total W2R supply\"\n        );\n        totalMaticFees += fees;\n        totalMaticLiquidity += (msg.value - fees);\n        totalW2RLiquidity -= w2rAmount;\n        // transfer w2r to user\n        W2R.safeTransfer(msg.sender, w2rAmount);\n        emit SwapMaticForW2R(msg.sender, msg.value, w2rAmount, block.timestamp);\n    }\n\n    // entrer un montant incluant les dcimales, en wei, pour matic et W2R\n    function swapW2RForMatic(uint w2rAmount) external {\n        bool guard;\n        require(!guard, \"ReentrancyGuard: reentrant call\");\n        require(msg.sender.balance > 0, \"MATIC balance must be greater than 0\");\n        require(w2rAmount > 0, \"W2R amount must be greater than 0\");\n        require(\n            checkW2Rallowance(msg.sender) >= w2rAmount,\n            \"You need to approve W2R first\"\n        );\n        uint maticAmount = w2rAmount / swapRate;\n        require((maticAmount * feesPercent * 100) >= 10000);\n        uint fee = (maticAmount * feesPercent * 100) / 10000;\n        require(\n            (totalMaticLiquidity * securityPercentage * 100) / 10000 >=\n                maticAmount,\n            \"You can't swap more than 5% of the contract's MATIC liquidity\"\n        );\n        totalMaticFees += fee;\n        totalMaticLiquidity -= (maticAmount - fee);\n        totalW2RLiquidity += w2rAmount;\n        W2R.safeTransferFrom(msg.sender, address(this), w2rAmount);\n        guard = true;\n        (bool success, ) = payable(msg.sender).call{value: maticAmount - fee}(\n            \"\"\n        );\n        guard = false;\n        require(success, \"Transfer failed.\");\n        emit SwapW2RForMatic(\n            msg.sender,\n            w2rAmount,\n            maticAmount,\n            block.timestamp\n        );\n    }\n\n    function addLiquidity(uint w2rAmount) external payable {\n        require(w2rAmount > 0, \"W2R amount must be greater than 0\");\n        require(msg.value > 0, \"MATIC amount must be greater than 0\");\n        require(\n            checkW2Rallowance(msg.sender) >= w2rAmount,\n            \"You need to approve W2R first\"\n        );\n        uint maticAmount = msg.value;\n        require((w2rAmount * 300) >= 10000);\n        // limit tolerance to 3% for MATIC-W2R ratio of 10\n        require(\n            maticAmount * swapRate >= w2rAmount - ((w2rAmount * 300) / 10000) &&\n                maticAmount * swapRate <=\n                w2rAmount + ((w2rAmount * 300) / 10000),\n            \"MATIC-W2R ratio is not within the allowed slippage\"\n        );\n        uint lpAmount;\n        if (totalMaticLiquidity == 0 && totalW2RLiquidity == 0) {\n            lpAmount = maticAmount; // Initial liquidity is 1:1\n            totalMaticLiquidity = maticAmount;\n            totalW2RLiquidity = w2rAmount;\n        } else {\n            uint totalLiquidity = totalMaticLiquidity +\n                totalW2RLiquidity /\n                swapRate;\n            lpAmount = (maticAmount * 1e18) / totalLiquidity;\n            // prevent a user to have too much power on the contract\n            require(\n                (lpToken.totalSupply() * securityPercentage * 100) >= 10000\n            );\n            require(\n                lpAmount + LPBalance[msg.sender] <=\n                    (lpToken.totalSupply() * securityPercentage * 100) / 10000,\n                \"You can't add more than the security % of the total LP supply\"\n            );\n            totalMaticLiquidity += maticAmount;\n            totalW2RLiquidity += w2rAmount;\n        }\n        LPBalance[msg.sender] += lpAmount;\n        lpToken.mint(address(this), lpAmount);\n        lpToken.safeTransfer(msg.sender, lpAmount);\n        W2R.safeTransferFrom(msg.sender, address(this), w2rAmount);\n        emit AddLiquidity(msg.sender, maticAmount, w2rAmount, lpAmount);\n    }\n\n    function removeLiquidity(uint lpAmount) external checkLPAmount(lpAmount) {\n        bool guard;\n        require(!guard, \"ReentrancyGuard: reentrant call\");\n        require(lpToken.totalSupply() > 0, \"No liquidity to remove\");\n        require(\n            totalMaticLiquidity > 0 && totalW2RLiquidity > 0,\n            \"No liquidity to remove\"\n        );\n        // Calculate the amount of MATIC and W2R to refund to the user based on existing LP tokens\n        uint maticAmount = (lpAmount * totalMaticLiquidity) /\n            lpToken.totalSupply();\n        uint w2rAmount = (lpAmount * totalW2RLiquidity) / lpToken.totalSupply();\n        // update liquidity\n        LPBalance[msg.sender] -= lpAmount;\n        totalMaticLiquidity -= maticAmount;\n        totalW2RLiquidity -= w2rAmount;\n        W2R.safeTransfer(msg.sender, w2rAmount);\n        lpToken.transferFrom(msg.sender, address(this), lpAmount);\n        lpToken.burn(lpAmount);\n        // Send MATIC funds using call instead of transfer\n        guard = true;\n        (bool success, ) = payable(msg.sender).call{value: maticAmount}(\"\");\n        guard = false;\n        require(success, \"Failed to send MATIC\");\n        emit RemoveLiquidity(msg.sender, maticAmount, w2rAmount, lpAmount);\n    }\n\n    function farm(uint lpAmount) external checkLPAmount(lpAmount) {\n        // check if user has already farmed\n        LPBalance[msg.sender] -= lpAmount;\n        // update farming struct\n        farming[msg.sender].lpAmount += lpAmount;\n        lpToken.safeTransferFrom(msg.sender, address(this), lpAmount);\n        farming[msg.sender].lastTime = block.timestamp;\n        emit Farm(msg.sender, lpAmount, block.timestamp);\n    }\n\n    function exitFarm() external {\n        uint lpBalance = farming[msg.sender].lpAmount;\n        require(lpBalance > 0, \"No LP tokens to claim rewards\");\n        harvest();\n        farming[msg.sender].lpAmount -= lpBalance;\n        LPBalance[msg.sender] += lpBalance;\n        lpToken.safeTransfer(msg.sender, lpBalance);\n        emit ExitFarm(msg.sender, lpBalance, block.timestamp);\n    }\n\n    function calculateReward(address user) private returns (uint) {\n        require(user != address(0), \"Invalid address\");\n        uint lpBalance = farming[msg.sender].lpAmount;\n        uint timeElapsed = block.timestamp - farming[user].lastTime;\n        uint basis = lpBalance * timeElapsed * rewardRatePerSecond;\n        require((basis * feesPercent * 100) >= 10000);\n        uint fees = (basis * feesPercent * 100) / 10000;\n        uint reward = basis - fees;\n        totalW2RFees += fees;\n        return reward;\n    }\n\n    function harvest() public {\n        uint lpBalance = farming[msg.sender].lpAmount;\n        require(lpBalance > 0, \"No LP tokens to claim rewards\");\n        uint reward = calculateReward(msg.sender);\n        require(reward > 0, \"No rewards available\");\n        // distribute rewards from vault to user\n        vaultW2R.distributeW2R(msg.sender, reward);\n        farming[msg.sender].lastTime = block.timestamp;\n        emit Harvest(msg.sender, reward, block.timestamp);\n    }\n\n    function setSwapRate(uint newSwapRate) external onlyOwner {\n        require(newSwapRate > 0, \"Swap rate must be greater than 0\");\n        swapRate = newSwapRate;\n    }\n\n    function setRewardRate(uint _newRewardRate) external onlyOwner {\n        require(_newRewardRate > 0, \"Reward rate must be greater than 0\");\n        rewardRatePerSecond = _newRewardRate;\n    }\n\n    function setSecurityPercentage(\n        uint _newSecurityPercentage\n    ) external onlyOwner {\n        require(\n            _newSecurityPercentage > 0 && _newSecurityPercentage <= 100,\n            \"Security percentage must be greater than 0 and less than or equal to 100\"\n        );\n        securityPercentage = _newSecurityPercentage;\n    }\n\n    function withdrawFees() external onlyOwner {\n        if (totalW2RFees > 0) {\n            vaultW2R.distributeW2R(msg.sender, totalW2RFees);\n            totalW2RFees = 0;\n        }\n        require(totalMaticFees > 0, \"No fees to withdraw\");\n        totalMaticFees = 0;\n        (bool success, ) = payable(msg.sender).call{value: totalMaticFees}(\"\");\n        require(success, \"Failed to withdraw fees\");\n    }\n\n    receive() external payable {}\n}\n",
  "sourcePath": "/Users/harbinger/Dropbox/Dossier familial/Formation Blockchain/Alyra/Projet Certification/Application/truffle/contracts/MaticW2Rdex.sol",
  "compiler": {
    "name": "solc",
    "version": "0.8.18+commit.87f61d96.Emscripten.clang"
  },
  "schemaVersion": "3.4.12",
  "updatedAt": "2023-04-03T15:50:07.589Z",
  "networkType": "ethereum",
  "devdoc": {
    "kind": "dev",
    "methods": {
      "owner()": {
        "details": "Returns the address of the current owner."
      },
      "renounceOwnership()": {
        "details": "Leaves the contract without owner. It will not be possible to call `onlyOwner` functions anymore. Can only be called by the current owner. NOTE: Renouncing ownership will leave the contract without an owner, thereby removing any functionality that is only available to the owner."
      },
      "transferOwnership(address)": {
        "details": "Transfers ownership of the contract to a new account (`newOwner`). Can only be called by the current owner."
      }
    },
    "version": 1
  },
  "userdoc": {
    "kind": "user",
    "methods": {},
    "version": 1
  }
}