{
  "contractName": "MaticW2Rdex",
  "abi": [
    {
      "inputs": [
        {
          "internalType": "address",
          "name": "W2RAddress",
          "type": "address"
        },
        {
          "internalType": "uint256",
          "name": "initialSwapRate",
          "type": "uint256"
        },
        {
          "internalType": "address",
          "name": "_vaultW2RAddress",
          "type": "address"
        },
        {
          "internalType": "address",
          "name": "lpTokenAddress",
          "type": "address"
        }
      ],
      "stateMutability": "nonpayable",
      "type": "constructor"
    },
    {
      "anonymous": false,
      "inputs": [
        {
          "indexed": true,
          "internalType": "address",
          "name": "user",
          "type": "address"
        },
        {
          "indexed": false,
          "internalType": "uint256",
          "name": "maticAmount",
          "type": "uint256"
        },
        {
          "indexed": false,
          "internalType": "uint256",
          "name": "w2rAmount",
          "type": "uint256"
        },
        {
          "indexed": false,
          "internalType": "uint256",
          "name": "lpAmount",
          "type": "uint256"
        }
      ],
      "name": "AddLiquidity",
      "type": "event"
    },
    {
      "anonymous": false,
      "inputs": [
        {
          "indexed": true,
          "internalType": "address",
          "name": "user",
          "type": "address"
        },
        {
          "indexed": false,
          "internalType": "uint256",
          "name": "lpAmount",
          "type": "uint256"
        },
        {
          "indexed": false,
          "internalType": "uint256",
          "name": "date",
          "type": "uint256"
        }
      ],
      "name": "ExitFarm",
      "type": "event"
    },
    {
      "anonymous": false,
      "inputs": [
        {
          "indexed": true,
          "internalType": "address",
          "name": "user",
          "type": "address"
        },
        {
          "indexed": false,
          "internalType": "uint256",
          "name": "lpAmount",
          "type": "uint256"
        },
        {
          "indexed": false,
          "internalType": "uint256",
          "name": "date",
          "type": "uint256"
        }
      ],
      "name": "Farm",
      "type": "event"
    },
    {
      "anonymous": false,
      "inputs": [
        {
          "indexed": true,
          "internalType": "address",
          "name": "user",
          "type": "address"
        },
        {
          "indexed": false,
          "internalType": "uint256",
          "name": "rewards",
          "type": "uint256"
        },
        {
          "indexed": false,
          "internalType": "uint256",
          "name": "date",
          "type": "uint256"
        }
      ],
      "name": "Harvest",
      "type": "event"
    },
    {
      "anonymous": false,
      "inputs": [
        {
          "indexed": true,
          "internalType": "address",
          "name": "previousOwner",
          "type": "address"
        },
        {
          "indexed": true,
          "internalType": "address",
          "name": "newOwner",
          "type": "address"
        }
      ],
      "name": "OwnershipTransferred",
      "type": "event"
    },
    {
      "anonymous": false,
      "inputs": [
        {
          "indexed": true,
          "internalType": "address",
          "name": "user",
          "type": "address"
        },
        {
          "indexed": false,
          "internalType": "uint256",
          "name": "lpAmount",
          "type": "uint256"
        },
        {
          "indexed": false,
          "internalType": "uint256",
          "name": "maticAmount",
          "type": "uint256"
        },
        {
          "indexed": false,
          "internalType": "uint256",
          "name": "w2rAmount",
          "type": "uint256"
        }
      ],
      "name": "RemoveLiquidity",
      "type": "event"
    },
    {
      "anonymous": false,
      "inputs": [
        {
          "indexed": true,
          "internalType": "address",
          "name": "user",
          "type": "address"
        },
        {
          "indexed": false,
          "internalType": "uint256",
          "name": "maticAmount",
          "type": "uint256"
        },
        {
          "indexed": false,
          "internalType": "uint256",
          "name": "w2rAmount",
          "type": "uint256"
        },
        {
          "indexed": false,
          "internalType": "uint256",
          "name": "date",
          "type": "uint256"
        }
      ],
      "name": "SwapMaticForW2R",
      "type": "event"
    },
    {
      "anonymous": false,
      "inputs": [
        {
          "indexed": true,
          "internalType": "address",
          "name": "user",
          "type": "address"
        },
        {
          "indexed": false,
          "internalType": "uint256",
          "name": "w2rAmount",
          "type": "uint256"
        },
        {
          "indexed": false,
          "internalType": "uint256",
          "name": "maticAmount",
          "type": "uint256"
        },
        {
          "indexed": false,
          "internalType": "uint256",
          "name": "date",
          "type": "uint256"
        }
      ],
      "name": "SwapW2RForMatic",
      "type": "event"
    },
    {
      "inputs": [
        {
          "internalType": "address",
          "name": "",
          "type": "address"
        }
      ],
      "name": "LPBalance",
      "outputs": [
        {
          "internalType": "uint256",
          "name": "",
          "type": "uint256"
        }
      ],
      "stateMutability": "view",
      "type": "function",
      "constant": true
    },
    {
      "inputs": [],
      "name": "W2R",
      "outputs": [
        {
          "internalType": "contract IERC20",
          "name": "",
          "type": "address"
        }
      ],
      "stateMutability": "view",
      "type": "function",
      "constant": true
    },
    {
      "inputs": [],
      "name": "annualYieldPercentage",
      "outputs": [
        {
          "internalType": "uint256",
          "name": "",
          "type": "uint256"
        }
      ],
      "stateMutability": "view",
      "type": "function",
      "constant": true
    },
    {
      "inputs": [
        {
          "internalType": "address",
          "name": "",
          "type": "address"
        }
      ],
      "name": "farming",
      "outputs": [
        {
          "internalType": "uint256",
          "name": "lastTime",
          "type": "uint256"
        },
        {
          "internalType": "uint256",
          "name": "lpAmount",
          "type": "uint256"
        },
        {
          "internalType": "uint256",
          "name": "rewards",
          "type": "uint256"
        }
      ],
      "stateMutability": "view",
      "type": "function",
      "constant": true
    },
    {
      "inputs": [],
      "name": "feesPercent",
      "outputs": [
        {
          "internalType": "uint256",
          "name": "",
          "type": "uint256"
        }
      ],
      "stateMutability": "view",
      "type": "function",
      "constant": true
    },
    {
      "inputs": [],
      "name": "lpToken",
      "outputs": [
        {
          "internalType": "contract IMaticW2RPairToken",
          "name": "",
          "type": "address"
        }
      ],
      "stateMutability": "view",
      "type": "function",
      "constant": true
    },
    {
      "inputs": [],
      "name": "owner",
      "outputs": [
        {
          "internalType": "address",
          "name": "",
          "type": "address"
        }
      ],
      "stateMutability": "view",
      "type": "function",
      "constant": true
    },
    {
      "inputs": [],
      "name": "renounceOwnership",
      "outputs": [],
      "stateMutability": "nonpayable",
      "type": "function"
    },
    {
      "inputs": [],
      "name": "securityPercentage",
      "outputs": [
        {
          "internalType": "uint256",
          "name": "",
          "type": "uint256"
        }
      ],
      "stateMutability": "view",
      "type": "function",
      "constant": true
    },
    {
      "inputs": [],
      "name": "swapRate",
      "outputs": [
        {
          "internalType": "uint256",
          "name": "",
          "type": "uint256"
        }
      ],
      "stateMutability": "view",
      "type": "function",
      "constant": true
    },
    {
      "inputs": [],
      "name": "testAmount",
      "outputs": [
        {
          "internalType": "uint256",
          "name": "",
          "type": "uint256"
        }
      ],
      "stateMutability": "view",
      "type": "function",
      "constant": true
    },
    {
      "inputs": [],
      "name": "totalMaticFees",
      "outputs": [
        {
          "internalType": "uint256",
          "name": "",
          "type": "uint256"
        }
      ],
      "stateMutability": "view",
      "type": "function",
      "constant": true
    },
    {
      "inputs": [],
      "name": "totalMaticLiquidity",
      "outputs": [
        {
          "internalType": "uint256",
          "name": "",
          "type": "uint256"
        }
      ],
      "stateMutability": "view",
      "type": "function",
      "constant": true
    },
    {
      "inputs": [],
      "name": "totalW2RFees",
      "outputs": [
        {
          "internalType": "uint256",
          "name": "",
          "type": "uint256"
        }
      ],
      "stateMutability": "view",
      "type": "function",
      "constant": true
    },
    {
      "inputs": [],
      "name": "totalW2RLiquidity",
      "outputs": [
        {
          "internalType": "uint256",
          "name": "",
          "type": "uint256"
        }
      ],
      "stateMutability": "view",
      "type": "function",
      "constant": true
    },
    {
      "inputs": [
        {
          "internalType": "address",
          "name": "newOwner",
          "type": "address"
        }
      ],
      "name": "transferOwnership",
      "outputs": [],
      "stateMutability": "nonpayable",
      "type": "function"
    },
    {
      "inputs": [],
      "name": "vaultW2RAddress",
      "outputs": [
        {
          "internalType": "address",
          "name": "",
          "type": "address"
        }
      ],
      "stateMutability": "view",
      "type": "function",
      "constant": true
    },
    {
      "stateMutability": "payable",
      "type": "receive",
      "payable": true
    },
    {
      "inputs": [
        {
          "internalType": "bytes32",
          "name": "ipHash",
          "type": "bytes32"
        }
      ],
      "name": "distributeTestW2R",
      "outputs": [],
      "stateMutability": "nonpayable",
      "type": "function"
    },
    {
      "inputs": [
        {
          "internalType": "uint256",
          "name": "_amount",
          "type": "uint256"
        }
      ],
      "name": "setTestAmount",
      "outputs": [],
      "stateMutability": "nonpayable",
      "type": "function"
    },
    {
      "inputs": [],
      "name": "getContractBalances",
      "outputs": [
        {
          "internalType": "uint256",
          "name": "",
          "type": "uint256"
        },
        {
          "internalType": "uint256",
          "name": "",
          "type": "uint256"
        },
        {
          "internalType": "uint256",
          "name": "",
          "type": "uint256"
        }
      ],
      "stateMutability": "view",
      "type": "function",
      "constant": true
    },
    {
      "inputs": [],
      "name": "getUserBalances",
      "outputs": [
        {
          "internalType": "uint256",
          "name": "",
          "type": "uint256"
        },
        {
          "internalType": "uint256",
          "name": "",
          "type": "uint256"
        }
      ],
      "stateMutability": "view",
      "type": "function",
      "constant": true
    },
    {
      "inputs": [
        {
          "internalType": "address",
          "name": "_toCheck",
          "type": "address"
        }
      ],
      "name": "checkIfAuthorizedInLPcontract",
      "outputs": [
        {
          "internalType": "bool",
          "name": "",
          "type": "bool"
        }
      ],
      "stateMutability": "view",
      "type": "function",
      "constant": true
    },
    {
      "inputs": [],
      "name": "swapMaticForW2R",
      "outputs": [],
      "stateMutability": "payable",
      "type": "function",
      "payable": true
    },
    {
      "inputs": [
        {
          "internalType": "uint256",
          "name": "w2rAmount",
          "type": "uint256"
        }
      ],
      "name": "swapW2RForMatic",
      "outputs": [],
      "stateMutability": "nonpayable",
      "type": "function"
    },
    {
      "inputs": [
        {
          "internalType": "uint256",
          "name": "w2rAmount",
          "type": "uint256"
        }
      ],
      "name": "addLiquidity",
      "outputs": [],
      "stateMutability": "payable",
      "type": "function",
      "payable": true
    },
    {
      "inputs": [
        {
          "internalType": "uint256",
          "name": "lpAmount",
          "type": "uint256"
        }
      ],
      "name": "removeLiquidity",
      "outputs": [],
      "stateMutability": "nonpayable",
      "type": "function"
    },
    {
      "inputs": [
        {
          "internalType": "uint256",
          "name": "lpAmount",
          "type": "uint256"
        }
      ],
      "name": "farm",
      "outputs": [],
      "stateMutability": "nonpayable",
      "type": "function"
    },
    {
      "inputs": [],
      "name": "exitFarm",
      "outputs": [],
      "stateMutability": "nonpayable",
      "type": "function"
    },
    {
      "inputs": [],
      "name": "viewRewards",
      "outputs": [
        {
          "internalType": "uint256",
          "name": "",
          "type": "uint256"
        }
      ],
      "stateMutability": "view",
      "type": "function",
      "constant": true
    },
    {
      "inputs": [],
      "name": "harvest",
      "outputs": [],
      "stateMutability": "nonpayable",
      "type": "function"
    },
    {
      "inputs": [
        {
          "internalType": "uint256",
          "name": "newSwapRate",
          "type": "uint256"
        }
      ],
      "name": "setSwapRate",
      "outputs": [],
      "stateMutability": "nonpayable",
      "type": "function"
    },
    {
      "inputs": [
        {
          "internalType": "uint256",
          "name": "_newPercentage",
          "type": "uint256"
        }
      ],
      "name": "setAnnualYieldPercentage",
      "outputs": [],
      "stateMutability": "nonpayable",
      "type": "function"
    },
    {
      "inputs": [
        {
          "internalType": "uint256",
          "name": "_newSecurityPercentage",
          "type": "uint256"
        }
      ],
      "name": "setSecurityPercentage",
      "outputs": [],
      "stateMutability": "nonpayable",
      "type": "function"
    },
    {
      "inputs": [],
      "name": "withdrawMaticFeesToVault",
      "outputs": [],
      "stateMutability": "nonpayable",
      "type": "function"
    },
    {
      "inputs": [],
      "name": "withdrawW2RFeesToVault",
      "outputs": [],
      "stateMutability": "nonpayable",
      "type": "function"
    }
  ],
  "bytecode": "0x60806040523480156200001157600080fd5b506040516200329b3803806200329b833981016040819052620000349162000227565b6200003f33620001ba565b600180556001600160a01b0384166200009f5760405162461bcd60e51b815260206004820152601960248201527f57325220616464726573732063616e6e6f74206265203078300000000000000060448201526064015b60405180910390fd5b60008311620000f15760405162461bcd60e51b815260206004820181905260248201527f537761702072617465206d7573742062652067726561746572207468616e2030604482015260640162000096565b6001600160a01b038216620001495760405162461bcd60e51b815260206004820152601f60248201527f5661756c742057325220616464726573732063616e6e6f742062652030783000604482015260640162000096565b600280546001600160a01b03199081166001600160a01b039687161790915560038054821692861692909217909155600d80548216929094169182179093556004919091556014600755600c805490921617905560056008556001600b55683635c9adc5dea000006012556200027b565b600080546001600160a01b038381166001600160a01b0319831681178455604051919092169283917f8be0079c531659141344cd1fd0a4f28419497f9722a3daafe3b4186f6b6457e09190a35050565b80516001600160a01b03811681146200022257600080fd5b919050565b600080600080608085870312156200023e57600080fd5b62000249856200020a565b93506020850151925062000260604086016200020a565b915062000270606086016200020a565b905092959194509250565b613010806200028b6000396000f3fe6080604052600436106102085760003560e01c80637f2e4f2a11610118578063bd6edba5116100a0578063f2fde38b1161006f578063f2fde38b146105b0578063f3c070f7146105d0578063f4cde469146105e6578063f9ef2c6b14610606578063ffd2a7d31461061c57600080fd5b8063bd6edba514610545578063cddaf3581461056f578063d1ef1beb14610584578063dfbfbab31461059a57600080fd5b80638f036072116100e75780638f036072146104af5780639a3b7b65146104cf5780639c8f9f23146104ef578063a6766a791461050f578063bd4cc58f1461052557600080fd5b80637f2e4f2a1461045e5780637f698c29146104665780638698cab91461047c5780638da5cb5b1461049157600080fd5b80633dfa83b31161019b5780635a18f4bc1161016a5780635a18f4bc146103c55780635fcbd285146103db578063672b265514610413578063698518e514610433578063715018a61461044957600080fd5b80633dfa83b3146103685780634641257d1461037d57806351c6590a14610392578063538a85a1146103a557600080fd5b806317795383116101d7578063177953831461029457806328d6dbcd146102c45780632d058b531461031b57806330cb7bfb1461033b57600080fd5b806302b7497014610214578063065bc154146102365780630b544a8c1461024b57806316578dc61461027457600080fd5b3661020f57005b600080fd5b34801561022057600080fd5b5061023461022f366004612d4e565b610631565b005b34801561024257600080fd5b50610234610a54565b34801561025757600080fd5b50610261600a5481565b6040519081526020015b60405180910390f35b34801561028057600080fd5b5061023461028f366004612d4e565b610b90565b3480156102a057600080fd5b506102b46102af366004612d67565b610c31565b604051901515815260200161026b565b3480156102d057600080fd5b506103006102df366004612d67565b600f6020526000908152604090208054600182015460029092015490919083565b6040805193845260208401929092529082015260600161026b565b34801561032757600080fd5b50610234610336366004612d4e565b610ca6565b34801561034757600080fd5b50610261610356366004612d67565b600e6020526000908152604090205481565b34801561037457600080fd5b50610261610f08565b34801561038957600080fd5b50610234610fc8565b6102346103a0366004612d4e565b61112a565b3480156103b157600080fd5b506102346103c0366004612d4e565b611736565b3480156103d157600080fd5b5061026160055481565b3480156103e757600080fd5b506003546103fb906001600160a01b031681565b6040516001600160a01b03909116815260200161026b565b34801561041f57600080fd5b5061023461042e366004612d4e565b6119b4565b34801561043f57600080fd5b5061026160045481565b34801561045557600080fd5b50610234611a1c565b610234611a2e565b34801561047257600080fd5b5061026160125481565b34801561048857600080fd5b50610234611ce1565b34801561049d57600080fd5b506000546001600160a01b03166103fb565b3480156104bb57600080fd5b506002546103fb906001600160a01b031681565b3480156104db57600080fd5b506102346104ea366004612d4e565b611ded565b3480156104fb57600080fd5b5061023461050a366004612d4e565b611e5f565b34801561051b57600080fd5b5061026160075481565b34801561053157600080fd5b50600d546103fb906001600160a01b031681565b34801561055157600080fd5b5061055a61245c565b6040805192835260208301919091520161026b565b34801561057b57600080fd5b50610234612541565b34801561059057600080fd5b5061026160065481565b3480156105a657600080fd5b50610261600b5481565b3480156105bc57600080fd5b506102346105cb366004612d67565b612661565b3480156105dc57600080fd5b5061026160085481565b3480156105f257600080fd5b50610234610601366004612d4e565b6126d7565b34801561061257600080fd5b5061026160095481565b34801561062857600080fd5b50610300612734565b61063961281c565b333161067d5760405162461bcd60e51b815260206004820152600e60248201526d666f72204d41544943206665657360901b60448201526064015b60405180910390fd5b6000811161069d5760405162461bcd60e51b815260040161067490612d97565b600254604051636eb1769f60e11b815233600482015230602482015282916001600160a01b03169063dd62ed3e90604401602060405180830381865afa1580156106eb573d6000803e3d6000fd5b505050506040513d601f19601f8201168201806040525081019061070f9190612dd8565b101561075d5760405162461bcd60e51b815260206004820152601d60248201527f596f75206e65656420746f20617070726f7665205732522066697273740000006044820152606401610674565b6002546040516370a0823160e01b815233600482015282916001600160a01b0316906370a0823190602401602060405180830381865afa1580156107a5573d6000803e3d6000fd5b505050506040513d601f19601f820116820180604052508101906107c99190612dd8565b10156108085760405162461bcd60e51b815260206004820152600e60248201526d2737ba1032b737bab3b4102b992960911b6044820152606401610674565b6000600454826108189190612e07565b9050612710600b548261082b9190612e29565b610836906064612e29565b101561084157600080fd5b6000612710600b54836108549190612e29565b61085f906064612e29565b6108699190612e07565b90508161271060085460055461087f9190612e29565b61088a906064612e29565b6108949190612e07565b10156109085760405162461bcd60e51b815260206004820152603d60248201527f596f752063616e27742073776170206d6f7265207468616e203525206f66207460448201527f686520636f6e74726163742773204d41544943206c69717569646974790000006064820152608401610674565b806009600082825461091a9190612e40565b9091555061092a90508183612e53565b6005600082825461093b9190612e53565b9250508190555082600660008282546109549190612e40565b9091555050600254610971906001600160a01b0316333086612875565b60003361097e8385612e53565b604051600081818185875af1925050503d80600081146109ba576040519150601f19603f3d011682016040523d82523d6000602084013e6109bf565b606091505b5050905080610a035760405162461bcd60e51b815260206004820152601060248201526f2a3930b739b332b9103330b4b632b21760811b6044820152606401610674565b60408051858152602081018590524281830152905133917fa5753ab11bf99f3fce97d5d308a4fa395f21cddb5de19469d996a1f391905d73919081900360600190a2505050610a5160018055565b50565b610a5c6128e6565b610a6461281c565b600d546001600160a01b0316610a8c5760405162461bcd60e51b815260040161067490612e66565b600060095411610ad45760405162461bcd60e51b81526020600482015260136024820152724e6f206665657320746f20776974686472617760681b6044820152606401610674565b60098054600091829055600d546040519192916001600160a01b039091169083908381818185875af1925050503d8060008114610b2d576040519150601f19603f3d011682016040523d82523d6000602084013e610b32565b606091505b5050905080610b835760405162461bcd60e51b815260206004820152601760248201527f4661696c656420746f20776974686472617720666565730000000000000000006044820152606401610674565b5050610b8e60018055565b565b610b986128e6565b600081118015610ba9575060648111155b610c2c5760405162461bcd60e51b815260206004820152604860248201527f53656375726974792070657263656e74616765206d757374206265206772656160448201527f746572207468616e203020616e64206c657373207468616e206f72206571756160648201526706c20746f203130360c41b608482015260a401610674565b600855565b600354604051632b2540bd60e01b81526001600160a01b0383811660048301526000921690632b2540bd90602401602060405180830381865afa158015610c7c573d6000803e3d6000fd5b505050506040513d601f19601f82011682018060405250810190610ca09190612e8f565b92915050565b600060125411610d035760405162461bcd60e51b815260206004820152602260248201527f5465737420616d6f756e74206d7573742062652067726561746572207468616e604482015261020360f41b6064820152608401610674565b46620138828114610d715760405162461bcd60e51b815260206004820152603260248201527f546869732066756e6374696f6e2063616e206f6e6c792062652075736564206f6044820152711b881d1a1948105b5bde4815195cdd1b995d60721b6064820152608401610674565b60008281526011602052604090205442906201518090610d919083612e53565b1015610df95760405162461bcd60e51b815260206004820152603160248201527f596f752063616e206f6e6c792063616c6c20746869732066756e6374696f6e2060448201527006f6e63652061206461792070657220495607c1b6064820152608401610674565b600083815260116020908152604080832084905533835260109091529020546201518090610e279083612e53565b1015610e885760405162461bcd60e51b815260206004820152602a60248201527f596f752063616e206f6e6c792063616c6c20746869732066756e6374696f6e206044820152696f6e636520612064617960b01b6064820152608401610674565b3360008181526010602052604090819020839055600c54601254915163255d23d760e11b8152600481019390935260248301919091526001600160a01b031690634aba47ae90604401600060405180830381600087803b158015610eeb57600080fd5b505af1158015610eff573d6000803e3d6000fd5b50505050505050565b600033610f275760405162461bcd60e51b815260040161067490612e66565b336000908152600f60205260408120600181015490549091610f498242612e53565b90506000600754662386f26fc10000610f629190612e29565b90506000610f746301e1338083612e07565b336000908152600f602052604081206002015491925090670de0b6b3a764000083610f9f878a612e29565b610fa99190612e29565b610fb39190612e07565b610fbd9190612e40565b979650505050505050565b33610fe55760405162461bcd60e51b815260040161067490612e66565b336000908152600f6020526040902060010154806110455760405162461bcd60e51b815260206004820152601d60248201527f4e6f204c5020746f6b656e7320746f20636c61696d20726577617264730000006044820152606401610674565b336000908152600f602052604081209061105d612940565b8260020160008282546110709190612e40565b918290555042845560006002850155600c5460405163255d23d760e11b8152336004820152602481018390529193506001600160a01b03169150634aba47ae90604401600060405180830381600087803b1580156110cd57600080fd5b505af11580156110e1573d6000803e3d6000fd5b5050505060028201546040805191825242602083015233917f71bab65ced2e5750775a0613be067df48ef06cf92a496ebf7663ae066092495491015b60405180910390a2505050565b6000811161114a5760405162461bcd60e51b815260040161067490612d97565b600034116111a65760405162461bcd60e51b815260206004820152602360248201527f4d4154494320616d6f756e74206d75737420626520677265617465722074686160448201526206e20360ec1b6064820152608401610674565b600254604051636eb1769f60e11b815233600482015230602482015282916001600160a01b03169063dd62ed3e90604401602060405180830381865afa1580156111f4573d6000803e3d6000fd5b505050506040513d601f19601f820116820180604052508101906112189190612dd8565b10156112665760405162461bcd60e51b815260206004820152601d60248201527f596f75206e65656420746f20617070726f7665205732522066697273740000006044820152606401610674565b346127106112768361012c612e29565b101561128157600080fd5b6127106112908361012c612e29565b61129a9190612e07565b6112a49083612e53565b6004546112b19083612e29565b101580156112ed57506127106112c98361012c612e29565b6112d39190612e07565b6112dd9083612e40565b6004546112ea9083612e29565b11155b6113545760405162461bcd60e51b815260206004820152603260248201527f4d415449432d57325220726174696f206973206e6f742077697468696e2074686044820152716520616c6c6f77656420736c69707061676560701b6064820152608401610674565b600060055460001480156113685750600654155b156113d8576000546001600160a01b031633146113c75760405162461bcd60e51b815260206004820152601c60248201527f4f6e6c79206f776e65722063616e20616464206c6971756964697479000000006044820152606401610674565b50600581905560068290558061163e565b60006006546005546113ea9190612e29565b905082600560008282546113fe9190612e40565b9250508190555083600660008282546114179190612e40565b909155505060065460055460009161142e91612e29565b90508161143b8183612e53565b600360009054906101000a90046001600160a01b03166001600160a01b03166318160ddd6040518163ffffffff1660e01b8152600401602060405180830381865afa15801561148e573d6000803e3d6000fd5b505050506040513d601f19601f820116820180604052508101906114b29190612dd8565b6114bc9190612e29565b6114c69190612e07565b92506064600854600360009054906101000a90046001600160a01b03166001600160a01b03166318160ddd6040518163ffffffff1660e01b8152600401602060405180830381865afa158015611520573d6000803e3d6000fd5b505050506040513d601f19601f820116820180604052508101906115449190612dd8565b61154e9190612e29565b101561155957600080fd5b61271060085460065461156c9190612e29565b611577906064612e29565b6115819190612e07565b8511158061159957506000546001600160a01b031633145b61160b5760405162461bcd60e51b815260206004820152603d60248201527f596f752063616e277420616464206d6f7265207468616e20746865207365637560448201527f726974792025206f662074686520746f74616c204c5020737570706c790000006064820152608401610674565b836005600082825461161d9190612e40565b9250508190555084600660008282546116369190612e40565b909155505050505b336000908152600e60205260408120805483929061165d908490612e40565b90915550506003546040516340c10f1960e01b8152306004820152602481018390526001600160a01b03909116906340c10f1990604401600060405180830381600087803b1580156116ae57600080fd5b505af11580156116c2573d6000803e3d6000fd5b50506003546116de92506001600160a01b031690503383612a77565b6002546116f6906001600160a01b0316333086612875565b604080518381526020810185905290810182905233907fbeb3885786d637a474cbc287c0a44587231633a077f0bd30354d5a4b18996fce9060600161111d565b80600081116117875760405162461bcd60e51b815260206004820181905260248201527f4c5020616d6f756e74206d7573742062652067726561746572207468616e20306044820152606401610674565b600354604051636eb1769f60e11b815233600482015230602482015282916001600160a01b03169063dd62ed3e90604401602060405180830381865afa1580156117d5573d6000803e3d6000fd5b505050506040513d601f19601f820116820180604052508101906117f99190612dd8565b10156118175760405162461bcd60e51b815260040161067490612eb1565b336000908152600e602052604090205481118015906118a057506003546040516370a0823160e01b815233600482015282916001600160a01b0316906370a0823190602401602060405180830381865afa158015611879573d6000803e3d6000fd5b505050506040513d601f19601f8201168201806040525081019061189d9190612dd8565b10155b6118bc5760405162461bcd60e51b815260040161067490612ef3565b336000908152600e60205260409020548111156118eb5760405162461bcd60e51b815260040161067490612f39565b336000908152600e60205260408120805484929061190a908490612e53565b9091555050336000908152600f6020526040902060018101541561194957611930612940565b8160020160008282546119439190612e40565b90915550505b8281600101600082825461195d9190612e40565b909155505042815560035461197d906001600160a01b0316333086612875565b6040805184815242602082015233917f9fc16615f48f603b9164a63f0ff1c7bc4c2b67fb3a51ecfd9856b0c843c9c022910161111d565b6119bc6128e6565b60008111611a175760405162461bcd60e51b815260206004820152602260248201527f5265776172642072617465206d7573742062652067726561746572207468616e604482015261020360f41b6064820152608401610674565b600755565b611a246128e6565b610b8e6000612aac565b60003411611a725760405162461bcd60e51b815260206004820152601160248201527006d7573742062652067726561746572203607c1b6044820152606401610674565b612710600b5434611a839190612e29565b611a8e906064612e29565b1015611a9957600080fd5b6000612710600b5434611aac9190612e29565b611ab7906064612e29565b611ac19190612e07565b9050611acd8134612e40565b333111611b0f5760405162461bcd60e51b815260206004820152601060248201526f6e6f7420656e6f756768204d6174696360801b6044820152606401610674565b600454600090611b1f8334612e53565b611b299190612e29565b905060008111611b735760405162461bcd60e51b81526020600482015260156024820152740573252206d7573742062652067726561746572203605c1b6044820152606401610674565b612710600854600654611b869190612e29565b611b91906064612e29565b1015611b9c57600080fd5b80612710600854600654611bb09190612e29565b611bbb906064612e29565b611bc59190612e07565b1015611c2f5760405162461bcd60e51b815260206004820152603360248201527f596f752063616e27742073776170206d6f7265207468616e203525206f662074604482015272686520746f74616c2057325220737570706c7960681b6064820152608401610674565b8160096000828254611c419190612e40565b90915550611c5190508234612e53565b60056000828254611c629190612e40565b925050819055508060066000828254611c7b9190612e53565b9091555050600254611c97906001600160a01b03163383612a77565b6040805134815260208101839052429181019190915233907f228d47c99c3df2f0352ef63baed152c51569c5547cb3c098f724742633b5eb27906060015b60405180910390a25050565b611ce96128e6565b600d546001600160a01b0316611d115760405162461bcd60e51b815260040161067490612e66565b6000600a5411611d595760405162461bcd60e51b81526020600482015260136024820152724e6f206665657320746f20776974686472617760681b6044820152606401610674565b600a80546000909155600d54600254611d7f916001600160a01b03918216911683612a77565b600c54604051633b87d57560e01b815260006004820152602481018390524260448201526001600160a01b0390911690633b87d57590606401600060405180830381600087803b158015611dd257600080fd5b505af1158015611de6573d6000803e3d6000fd5b5050505050565b611df56128e6565b69021e19e0c9bab2400000811115611e5a5760405162461bcd60e51b815260206004820152602260248201527f416d6f756e74206d757374206265206c657373207468616e2031303030302057604482015261192960f11b6064820152608401610674565b601255565b8060008111611eb05760405162461bcd60e51b815260206004820181905260248201527f4c5020616d6f756e74206d7573742062652067726561746572207468616e20306044820152606401610674565b600354604051636eb1769f60e11b815233600482015230602482015282916001600160a01b03169063dd62ed3e90604401602060405180830381865afa158015611efe573d6000803e3d6000fd5b505050506040513d601f19601f82011682018060405250810190611f229190612dd8565b1015611f405760405162461bcd60e51b815260040161067490612eb1565b336000908152600e60205260409020548111801590611fc957506003546040516370a0823160e01b815233600482015282916001600160a01b0316906370a0823190602401602060405180830381865afa158015611fa2573d6000803e3d6000fd5b505050506040513d601f19601f82011682018060405250810190611fc69190612dd8565b10155b611fe55760405162461bcd60e51b815260040161067490612ef3565b336000908152600e60205260409020548111156120145760405162461bcd60e51b815260040161067490612f39565b61201c61281c565b600354604080516318160ddd60e01b815290516000926001600160a01b0316916318160ddd9160048083019260209291908290030181865afa158015612066573d6000803e3d6000fd5b505050506040513d601f19601f8201168201806040525081019061208a9190612dd8565b116120d05760405162461bcd60e51b81526020600482015260166024820152754e6f206c697175696469747920746f2072656d6f766560501b6044820152606401610674565b60006005541180156120e457506000600654115b6121295760405162461bcd60e51b81526020600482015260166024820152754e6f206c697175696469747920746f2072656d6f766560501b6044820152606401610674565b336000908152600e60205260409020548211156121585760405162461bcd60e51b815260040161067490612f39565b600354604080516318160ddd60e01b815290516000926001600160a01b0316916318160ddd9160048083019260209291908290030181865afa1580156121a2573d6000803e3d6000fd5b505050506040513d601f19601f820116820180604052508101906121c69190612dd8565b6121d884670de0b6b3a7640000612e29565b6121e29190612e07565b90506000670de0b6b3a7640000826005546121fd9190612e29565b6122079190612e07565b90506000670de0b6b3a7640000836006546122229190612e29565b61222c9190612e07565b336000908152600e6020526040812080549293508792909190612250908490612e53565b9250508190555081600560008282546122699190612e53565b9250508190555080600660008282546122829190612e53565b90915550506003546040516323b872dd60e01b8152336004820152306024820152604481018790526001600160a01b03909116906323b872dd906064016020604051808303816000875af11580156122de573d6000803e3d6000fd5b505050506040513d601f19601f820116820180604052508101906123029190612e8f565b50600354604051630852cd8d60e31b8152600481018790526001600160a01b03909116906342966c6890602401600060405180830381600087803b15801561234957600080fd5b505af115801561235d573d6000803e3d6000fd5b505060025461237992506001600160a01b031690503383612a77565b604051600090339084908381818185875af1925050503d80600081146123bb576040519150601f19603f3d011682016040523d82523d6000602084013e6123c0565b606091505b50509050806124085760405162461bcd60e51b81526020600482015260146024820152734661696c656420746f2073656e64204d4154494360601b6044820152606401610674565b604080518481526020810184905290810187905233907f59c3a0b60c6ab7deb62e1440c9e72441db6db7dfe514dba8cb18e60c0d896efa9060600160405180910390a25050505061245860018055565b5050565b6002546040516370a0823160e01b815233600482015260009182916001600160a01b03909116906370a0823190602401602060405180830381865afa1580156124a9573d6000803e3d6000fd5b505050506040513d601f19601f820116820180604052508101906124cd9190612dd8565b6003546040516370a0823160e01b81523360048201526001600160a01b03909116906370a0823190602401602060405180830381865afa158015612515573d6000803e3d6000fd5b505050506040513d601f19601f820116820180604052508101906125399190612dd8565b915091509091565b3361255e5760405162461bcd60e51b815260040161067490612e66565b336000908152600f6020526040902060010154806125be5760405162461bcd60e51b815260206004820152601d60248201527f4e6f204c5020746f6b656e7320746f20636c61696d20726577617264730000006044820152606401610674565b6125c6610fc8565b336000908152600f60205260408120600181018054919284926125ea908490612e53565b9091555050336000908152600e60205260408120805484929061260e908490612e40565b909155505060035461262a906001600160a01b03163384612a77565b6040805183815242602082015233917f9c17b9b1252c31bf8727169baa67751ad5869f505488283af0f2c09cb26320bc9101611cd5565b6126696128e6565b6001600160a01b0381166126ce5760405162461bcd60e51b815260206004820152602660248201527f4f776e61626c653a206e6577206f776e657220697320746865207a65726f206160448201526564647265737360d01b6064820152608401610674565b610a5181612aac565b6126df6128e6565b6000811161272f5760405162461bcd60e51b815260206004820181905260248201527f537761702072617465206d7573742062652067726561746572207468616e20306044820152606401610674565b600455565b6002546040516370a0823160e01b8152306004820152600091829182916001600160a01b0316906370a0823190602401602060405180830381865afa158015612781573d6000803e3d6000fd5b505050506040513d601f19601f820116820180604052508101906127a59190612dd8565b6003546040516370a0823160e01b815230600482015247916001600160a01b0316906370a0823190602401602060405180830381865afa1580156127ed573d6000803e3d6000fd5b505050506040513d601f19601f820116820180604052508101906128119190612dd8565b925092509250909192565b60026001540361286e5760405162461bcd60e51b815260206004820152601f60248201527f5265656e7472616e637947756172643a207265656e7472616e742063616c6c006044820152606401610674565b6002600155565b6040516001600160a01b03808516602483015283166044820152606481018290526128e09085906323b872dd60e01b906084015b60408051601f198184030181529190526020810180516001600160e01b03166001600160e01b031990931692909217909152612afc565b50505050565b6000546001600160a01b03163314610b8e5760405162461bcd60e51b815260206004820181905260248201527f4f776e61626c653a2063616c6c6572206973206e6f7420746865206f776e65726044820152606401610674565b336000908152600f602052604081206001810154905482906129629042612e53565b90506000600754662386f26fc1000061297b9190612e29565b9050600061298d6301e1338083612e07565b90506000670de0b6b3a7640000826129a58688612e29565b6129af9190612e29565b6129b99190612e07565b9050612710600b54826129cc9190612e29565b6129d7906064612e29565b1015612a1c5760405162461bcd60e51b81526020600482015260146024820152735269736b206f662062616420726f756e64696e6760601b6044820152606401610674565b6000612710600b5483612a2f9190612e29565b612a3a906064612e29565b612a449190612e07565b90506000612a528284612e53565b905081600a6000828254612a669190612e40565b909155509098975050505050505050565b6040516001600160a01b038316602482015260448101829052612aa790849063a9059cbb60e01b906064016128a9565b505050565b600080546001600160a01b038381166001600160a01b0319831681178455604051919092169283917f8be0079c531659141344cd1fd0a4f28419497f9722a3daafe3b4186f6b6457e09190a35050565b6000612b51826040518060400160405280602081526020017f5361666545524332303a206c6f772d6c6576656c2063616c6c206661696c6564815250856001600160a01b0316612bce9092919063ffffffff16565b805190915015612aa75780806020019051810190612b6f9190612e8f565b612aa75760405162461bcd60e51b815260206004820152602a60248201527f5361666545524332303a204552433230206f7065726174696f6e20646964206e6044820152691bdd081cdd58d8d9595960b21b6064820152608401610674565b6060612bdd8484600085612be5565b949350505050565b606082471015612c465760405162461bcd60e51b815260206004820152602660248201527f416464726573733a20696e73756666696369656e742062616c616e636520666f6044820152651c8818d85b1b60d21b6064820152608401610674565b600080866001600160a01b03168587604051612c629190612f8b565b60006040518083038185875af1925050503d8060008114612c9f576040519150601f19603f3d011682016040523d82523d6000602084013e612ca4565b606091505b5091509150610fbd8783838760608315612d1f578251600003612d18576001600160a01b0385163b612d185760405162461bcd60e51b815260206004820152601d60248201527f416464726573733a2063616c6c20746f206e6f6e2d636f6e74726163740000006044820152606401610674565b5081612bdd565b612bdd8383815115612d345781518083602001fd5b8060405162461bcd60e51b81526004016106749190612fa7565b600060208284031215612d6057600080fd5b5035919050565b600060208284031215612d7957600080fd5b81356001600160a01b0381168114612d9057600080fd5b9392505050565b60208082526021908201527f57325220616d6f756e74206d7573742062652067726561746572207468616e206040820152600360fc1b606082015260800190565b600060208284031215612dea57600080fd5b5051919050565b634e487b7160e01b600052601160045260246000fd5b600082612e2457634e487b7160e01b600052601260045260246000fd5b500490565b8082028115828204841417610ca057610ca0612df1565b80820180821115610ca057610ca0612df1565b81810381811115610ca057610ca0612df1565b6020808252600f908201526e496e76616c6964206164647265737360881b604082015260600190565b600060208284031215612ea157600080fd5b81518015158114612d9057600080fd5b60208082526022908201527f596f75206e65656420746f20617070726f7665204c5020746f6b656e206669726040820152611cdd60f21b606082015260800190565b60208082526026908201527f596f7520646f6e2774206861766520616e79204c5020746f6b656e7320746f2060408201526572656d6f766560d01b606082015260800190565b6020808252601490820152734e6f7420656e6f756768204c5020746f6b656e7360601b604082015260600190565b60005b83811015612f82578181015183820152602001612f6a565b50506000910152565b60008251612f9d818460208701612f67565b9190910192915050565b6020815260008251806020840152612fc6816040850160208701612f67565b601f01601f1916919091016040019291505056fea2646970667358221220f5163b12052b9ab6f576c04aac8f6c17af603e0d70456a3695dfc60a1a25b3c064736f6c63430008120033",
  "immutableReferences": {},
  "source": "// SPDX-License-Identifier: CC-BY-4.0\npragma solidity ^0.8.9;\n\n//import \"@openzeppelin/contracts/token/ERC20/ERC20.sol\";\n//import \"@openzeppelin/contracts/token/ERC20/extensions/ERC20Burnable.sol\";\n//import \"@openzeppelin/contracts/token/ERC20/utils/SafeERC20.sol\";\n//import \"@openzeppelin/contracts/access/Ownable.sol\";\n//import \"@openzeppelin/contracts/security/ReentrancyGuard.sol\";\nimport \"../node_modules/@openzeppelin/contracts/token/ERC20/ERC20.sol\";\nimport \"../node_modules/@openzeppelin/contracts/token/ERC20/extensions/ERC20Burnable.sol\";\nimport \"../node_modules/@openzeppelin/contracts/token/ERC20/utils/SafeERC20.sol\";\nimport \"../node_modules/@openzeppelin/contracts/access/Ownable.sol\";\nimport \"../node_modules/@openzeppelin/contracts/security/ReentrancyGuard.sol\";\n\n/**\n * @dev Interface for the W2R Vault contract.\n */\n\ninterface I5VaultW2R {\n    function distributeW2R(address receiver, uint amount) external;\n\n    function updateIncomes(\n        uint _maticIncome,\n        uint _w2rIncome,\n        uint _date\n    ) external;\n}\n\n/**\n * @dev Interface for the Matic-W2R LP token contract.\n */\n\ninterface IMaticW2RPairToken is IERC20 {\n    function checkMinterAndBurner(\n        address authorized\n    ) external view returns (bool);\n\n    function mint(address to, uint amount) external;\n\n    function burn(uint256 amount) external;\n}\n\n/**\n * @title MaticW2Rdex\n * @author Crypt0zaurus https://www.linkedin.com/in/maxence-a-a82081260\n * @dev A decentralized exchange for swapping Matic and W2R tokens, providing liquidity and farming.\n */\n\ncontract MaticW2Rdex is Ownable, ReentrancyGuard {\n    using SafeERC20 for IERC20;\n    using SafeERC20 for IMaticW2RPairToken;\n    IERC20 public W2R;\n    IMaticW2RPairToken public lpToken;\n    uint public swapRate;\n    uint public totalMaticLiquidity;\n    uint public totalW2RLiquidity;\n    uint public annualYieldPercentage;\n    uint public securityPercentage;\n    uint public totalMaticFees;\n    uint public totalW2RFees;\n    uint public feesPercent;\n\n    I5VaultW2R vaultW2R;\n    address public vaultW2RAddress;\n\n    mapping(address => uint) public LPBalance;\n    mapping(address => Farming) public farming;\n\n    // Mappings and uint for Tests on Amoy\n    mapping(address => uint) private lastDistributeTimestamp;\n    mapping(bytes32 => uint) private lastIPDistributeTimestamp;\n    uint public testAmount;\n    // End of Mappings and uint for Tests on Amoy\n\n    struct Farming {\n        uint lastTime;\n        uint lpAmount;\n        uint rewards;\n    }\n\n    event SwapMaticForW2R(\n        address indexed user,\n        uint maticAmount,\n        uint w2rAmount,\n        uint date\n    );\n    event SwapW2RForMatic(\n        address indexed user,\n        uint w2rAmount,\n        uint maticAmount,\n        uint date\n    );\n\n    event AddLiquidity(\n        address indexed user,\n        uint maticAmount,\n        uint w2rAmount,\n        uint lpAmount\n    );\n    event RemoveLiquidity(\n        address indexed user,\n        uint lpAmount,\n        uint maticAmount,\n        uint w2rAmount\n    );\n    event Farm(address indexed user, uint lpAmount, uint date);\n    event Harvest(address indexed user, uint rewards, uint date);\n    event ExitFarm(address indexed user, uint lpAmount, uint date);\n\n    /**\n     * @dev Constructor that initializes the contract with the token addresses, initial swap rate, Vault W2R address, and LP token address.\n     * @param W2RAddress Address of the W2R token contract.\n     * @param initialSwapRate Initial swap rate for Matic to W2R conversion.\n     * @param _vaultW2RAddress Address of the Vault W2R contract.\n     * @param lpTokenAddress Address of the LP token contract.\n     */\n\n    constructor(\n        address W2RAddress,\n        uint initialSwapRate,\n        address _vaultW2RAddress,\n        address lpTokenAddress\n    ) {\n        require(W2RAddress != address(0), \"W2R address cannot be 0x0\");\n        require(initialSwapRate > 0, \"Swap rate must be greater than 0\");\n        require(\n            _vaultW2RAddress != address(0),\n            \"Vault W2R address cannot be 0x0\"\n        );\n        W2R = IERC20(W2RAddress);\n        lpToken = IMaticW2RPairToken(lpTokenAddress);\n        vaultW2RAddress = _vaultW2RAddress;\n        swapRate = initialSwapRate;\n        annualYieldPercentage = 20;\n        vaultW2R = I5VaultW2R(_vaultW2RAddress);\n        securityPercentage = 5;\n        feesPercent = 1;\n        testAmount = 1000 * 10 ** 18;\n    }\n\n    /**\n     * @dev Modifier to check the LP token amount ans allowance for the calling user.\n     * @param lpAmount Amount of LP tokens to check.\n     */\n\n    modifier checkLPAmount(uint lpAmount) {\n        require(lpAmount > 0, \"LP amount must be greater than 0\");\n\n        require(\n            lpToken.allowance(msg.sender, address(this)) >= lpAmount,\n            \"You need to approve LP token first\"\n        );\n        require(\n            LPBalance[msg.sender] >= lpAmount &&\n                lpToken.balanceOf(msg.sender) >= lpAmount,\n            \"You don't have any LP tokens to remove\"\n        );\n        require(lpAmount <= LPBalance[msg.sender], \"Not enough LP tokens\");\n\n        _;\n    }\n\n    /**\n     * @dev Distribute 2000 W2R tokens to the caller as a tester once per day, only on Amoy Testnet.\n     * Owner can set testAmount to 0 to disable this function.\n     * @param ipHash The keccak256 hash of the caller's IP address.\n     */\n    function distributeTestW2R(bytes32 ipHash) external {\n        require(testAmount > 0, \"Test amount must be greater than 0\");\n        // Make sure this function is only callable on Amoy Testnet\n        uint chainId;\n        assembly {\n            chainId := chainid()\n        }\n        require(\n            chainId == 80002,\n            \"This function can only be used on the Amoy Testnet\"\n        );\n        uint currentTime = block.timestamp;\n        // Check IP limit\n        require(\n            currentTime - lastIPDistributeTimestamp[ipHash] >= 1 days,\n            \"You can only call this function once a day per IP\"\n        );\n        lastIPDistributeTimestamp[ipHash] = currentTime;\n        // Check address limit\n        require(\n            currentTime - lastDistributeTimestamp[msg.sender] >= 1 days,\n            \"You can only call this function once a day\"\n        );\n        lastDistributeTimestamp[msg.sender] = currentTime;\n        vaultW2R.distributeW2R(msg.sender, testAmount);\n    }\n\n    /**\n     * @dev Set the amount of W2R tokens to be distributed during testing.\n     * Can only be called by the contract owner.\n     * @param _amount The new test amount to be distributed (in W2R tokens).\n     * Must be greater or equal to 0 and less than or equal to 10,000 W2R.\n     */\n    function setTestAmount(uint _amount) external onlyOwner {\n        require(_amount >= 0, \"Amount must be greater or equal to 0\");\n        require(\n            _amount <= 10000 * 10 ** 18,\n            \"Amount must be less than 10000 W2R\"\n        );\n        testAmount = _amount;\n    }\n\n    /**\n     * @dev Get the contract balances for W2R, MATIC, and LP tokens.\n     * @return A tuple containing the W2R, MATIC, and LP token balances of the contract.\n     */\n\n    function getContractBalances() external view returns (uint, uint, uint) {\n        // W2R, MATIC, LP\n        return (\n            W2R.balanceOf(address(this)),\n            address(this).balance,\n            lpToken.balanceOf(address(this))\n        );\n    }\n\n    /**\n     * @dev Get the user balances for W2R and LP tokens.\n     * @return A tuple containing the W2R and LP token balances of the caller.\n     */\n\n    function getUserBalances() external view returns (uint, uint) {\n        return (W2R.balanceOf(msg.sender), lpToken.balanceOf(msg.sender));\n    }\n\n    /**\n     * @dev Check if the given address is authorized as a minter and burner in the LP token contract.\n     * @param _toCheck The address to check for authorization in the LP token contract.\n     * @return A boolean value indicating whether the address is authorized as a minter and burner.\n     */\n\n    function checkIfAuthorizedInLPcontract(\n        address _toCheck\n    ) public view returns (bool) {\n        return lpToken.checkMinterAndBurner(_toCheck);\n    }\n\n    /**\n     * @dev Swap Matic for W2R tokens. Requires sending Matic along with the transaction.\n     * Emits a SwapMaticForW2R event.\n     */\n\n    function swapMaticForW2R() external payable {\n        require(msg.value > 0, \"must be greater 0\");\n        require((msg.value * feesPercent * 100) >= 10000);\n        uint fees = (msg.value * feesPercent * 100) / 10000;\n        require(msg.sender.balance > msg.value + fees, \"not enough Matic\");\n        uint w2rAmount = (msg.value - fees) * swapRate;\n        require(w2rAmount > 0, \"W2R must be greater 0\");\n        require((totalW2RLiquidity * securityPercentage * 100) >= 10000);\n        require(\n            (totalW2RLiquidity * securityPercentage * 100) / 10000 >= w2rAmount,\n            \"You can't swap more than 5% of the total W2R supply\"\n        );\n        totalMaticFees += fees;\n        totalMaticLiquidity += (msg.value - fees);\n        totalW2RLiquidity -= w2rAmount;\n        // transfer w2r to user\n        W2R.safeTransfer(msg.sender, w2rAmount);\n        emit SwapMaticForW2R(msg.sender, msg.value, w2rAmount, block.timestamp);\n    }\n\n    /**\n     * @dev Swap W2R tokens for Matic tokens.\n     * @param w2rAmount Amount of W2R tokens to swap for Matic tokens.\n     * Emits a SwapW2RForMatic event.\n     */\n    function swapW2RForMatic(uint w2rAmount) external nonReentrant {\n        require(msg.sender.balance > 0, \"for MATIC fees\");\n        require(w2rAmount > 0, \"W2R amount must be greater than 0\");\n        require(\n            W2R.allowance(msg.sender, address(this)) >= w2rAmount,\n            \"You need to approve W2R first\"\n        );\n        require(W2R.balanceOf(msg.sender) >= w2rAmount, \"Not enough W2R\");\n        uint maticAmount = w2rAmount / swapRate;\n        require((maticAmount * feesPercent * 100) >= 10000);\n        uint fee = (maticAmount * feesPercent * 100) / 10000;\n        require(\n            (totalMaticLiquidity * securityPercentage * 100) / 10000 >=\n                maticAmount,\n            \"You can't swap more than 5% of the contract's MATIC liquidity\"\n        );\n        totalMaticFees += fee;\n        totalMaticLiquidity -= (maticAmount - fee);\n        totalW2RLiquidity += w2rAmount;\n        W2R.safeTransferFrom(msg.sender, address(this), w2rAmount);\n        (bool success, ) = payable(msg.sender).call{value: maticAmount - fee}(\n            \"\"\n        );\n        require(success, \"Transfer failed.\");\n        emit SwapW2RForMatic(\n            msg.sender,\n            w2rAmount,\n            maticAmount,\n            block.timestamp\n        );\n    }\n\n    /**\n     * @dev Add liquidity to the contract.\n     * @param w2rAmount Amount of W2R tokens to add as liquidity.\n     * Requires sending Matic along with the transaction.\n     * Emits an AddLiquidity event.\n     */\n\n    function addLiquidity(uint w2rAmount) external payable {\n        require(w2rAmount > 0, \"W2R amount must be greater than 0\");\n        require(msg.value > 0, \"MATIC amount must be greater than 0\");\n        require(\n            W2R.allowance(msg.sender, address(this)) >= w2rAmount,\n            \"You need to approve W2R first\"\n        );\n        uint maticAmount = msg.value;\n        require((w2rAmount * 300) >= 10000);\n        // limit tolerance to 3% for MATIC-W2R ratio of 10\n        require(\n            maticAmount * swapRate >= w2rAmount - ((w2rAmount * 300) / 10000) &&\n                maticAmount * swapRate <=\n                w2rAmount + ((w2rAmount * 300) / 10000),\n            \"MATIC-W2R ratio is not within the allowed slippage\"\n        );\n        uint lpAmount;\n        if (totalMaticLiquidity == 0 && totalW2RLiquidity == 0) {\n            // the team has to bring the first (huge) liquidity\n            require(msg.sender == owner(), \"Only owner can add liquidity\");\n            lpAmount = maticAmount;\n            totalMaticLiquidity = maticAmount;\n            totalW2RLiquidity = w2rAmount;\n        } else {\n            // constant invariant formula\n            uint k = totalMaticLiquidity * totalW2RLiquidity;\n            totalMaticLiquidity += maticAmount;\n            totalW2RLiquidity += w2rAmount;\n            uint newK = totalMaticLiquidity * totalW2RLiquidity;\n            lpAmount = (lpToken.totalSupply() * (newK - k)) / k;\n            // prevent a user to have too much power on the contract\n            require((lpToken.totalSupply() * securityPercentage) >= 100);\n            require(\n                w2rAmount <=\n                    (totalW2RLiquidity * securityPercentage * 100) / 10000 ||\n                    msg.sender == owner(),\n                \"You can't add more than the security % of the total LP supply\"\n            );\n            totalMaticLiquidity += maticAmount;\n            totalW2RLiquidity += w2rAmount;\n        }\n        LPBalance[msg.sender] += lpAmount;\n        lpToken.mint(address(this), lpAmount);\n        lpToken.safeTransfer(msg.sender, lpAmount);\n        W2R.safeTransferFrom(msg.sender, address(this), w2rAmount);\n        emit AddLiquidity(msg.sender, maticAmount, w2rAmount, lpAmount);\n    }\n\n    /**\n     * @dev Remove liquidity from the contract.\n     * @param lpAmount Amount of LP tokens to remove liquidity.\n     * Emits a RemoveLiquidity event.\n     */\n\n    function removeLiquidity(\n        uint lpAmount\n    ) external checkLPAmount(lpAmount) nonReentrant {\n        require(lpToken.totalSupply() > 0, \"No liquidity to remove\");\n        require(\n            totalMaticLiquidity > 0 && totalW2RLiquidity > 0,\n            \"No liquidity to remove\"\n        );\n        require(LPBalance[msg.sender] >= lpAmount, \"Not enough LP tokens\");\n        // Calculate the proportion of LP tokens the user is removing\n        uint proportion = (lpAmount * 1e18) / lpToken.totalSupply();\n        // Calculate the amount of MATIC and W2R to refund\n        uint maticAmount = (totalMaticLiquidity * proportion) / 1e18;\n        uint w2rAmount = (totalW2RLiquidity * proportion) / 1e18;\n        LPBalance[msg.sender] -= lpAmount;\n        totalMaticLiquidity -= maticAmount;\n        totalW2RLiquidity -= w2rAmount;\n        lpToken.transferFrom(msg.sender, address(this), lpAmount);\n        lpToken.burn(lpAmount);\n        W2R.safeTransfer(msg.sender, w2rAmount);\n        (bool success, ) = payable(msg.sender).call{value: maticAmount}(\"\");\n        require(success, \"Failed to send MATIC\");\n        emit RemoveLiquidity(msg.sender, maticAmount, w2rAmount, lpAmount);\n    }\n\n    /**\n     * @dev Farm LP tokens to earn W2R rewards.\n     * @param lpAmount Amount of LP tokens to farm.\n     * Emits a Farm event.\n     */\n\n    function farm(uint lpAmount) external checkLPAmount(lpAmount) {\n        // check if user has already farmed\n        LPBalance[msg.sender] -= lpAmount;\n        // update farming struct\n        Farming storage user = farming[msg.sender];\n        if (user.lpAmount > 0) {\n            user.rewards += calculateReward();\n        }\n        user.lpAmount += lpAmount;\n        user.lastTime = block.timestamp;\n        lpToken.safeTransferFrom(msg.sender, address(this), lpAmount);\n        emit Farm(msg.sender, lpAmount, block.timestamp);\n    }\n\n    /**\n     * @dev Exit farm and claim LP tokens back.\n     * Emits an ExitFarm event.\n     */\n\n    function exitFarm() external {\n        require(msg.sender != address(0), \"Invalid address\");\n        uint lpBalance = farming[msg.sender].lpAmount;\n        require(lpBalance > 0, \"No LP tokens to claim rewards\");\n        harvest();\n        Farming storage user = farming[msg.sender];\n        user.lpAmount -= lpBalance;\n        LPBalance[msg.sender] += lpBalance;\n        lpToken.safeTransfer(msg.sender, lpBalance);\n        emit ExitFarm(msg.sender, lpBalance, block.timestamp);\n    }\n\n    /**\n     * @dev View the pending W2R rewards for the user.\n     * @return reward The pending W2R rewards for the user.\n     */\n\n    function viewRewards() external view returns (uint) {\n        require(msg.sender != address(0), \"Invalid address\");\n        uint lpBalance = farming[msg.sender].lpAmount;\n        uint lastTime = farming[msg.sender].lastTime;\n        uint timeElapsed = block.timestamp - lastTime;\n        uint annualYieldDecimal = annualYieldPercentage * 10 ** 16;\n        uint rewardRatePerSecond = annualYieldDecimal / 31536000;\n        uint reward = ((lpBalance * timeElapsed * rewardRatePerSecond) /\n            10 ** 18) + farming[msg.sender].rewards;\n        return reward;\n    }\n\n    /**\n     * @notice Calculates the reward for a user based on their LP balance, time elapsed, and the global reward rate.\n     * @dev This function is private and should only be called within the contract.\n     * @return The calculated reward amount for the user.\n     */\n\n    function calculateReward() private returns (uint) {\n        uint lpBalance = farming[msg.sender].lpAmount;\n        uint timeElapsed = block.timestamp - farming[msg.sender].lastTime;\n        uint annualYieldDecimal = annualYieldPercentage * 10 ** 16;\n        uint rewardRatePerSecond = annualYieldDecimal / 31536000;\n        uint basis = (lpBalance * timeElapsed * rewardRatePerSecond) / 10 ** 18;\n        require((basis * feesPercent * 100) >= 10000, \"Risk of bad rounding\");\n        uint fees = (basis * feesPercent * 100) / 10000;\n        uint reward = basis - fees;\n        totalW2RFees += fees;\n        return reward;\n    }\n\n    /**\n     * @dev Claim W2R rewards from farming.\n     * Emits a Harvest event.\n     */\n\n    function harvest() public {\n        require(msg.sender != address(0), \"Invalid address\");\n        uint lpBalance = farming[msg.sender].lpAmount;\n        require(lpBalance > 0, \"No LP tokens to claim rewards\");\n        Farming storage user = farming[msg.sender];\n        uint reward = user.rewards += calculateReward();\n        user.lastTime = block.timestamp;\n        user.rewards = 0;\n        vaultW2R.distributeW2R(msg.sender, reward);\n        emit Harvest(msg.sender, user.rewards, block.timestamp);\n    }\n\n    /**\n     * @dev Update the Matic to W2R swap rate.\n     * @param newSwapRate New swap rate for Matic to W2R conversion.\n     */\n\n    function setSwapRate(uint newSwapRate) external onlyOwner {\n        require(newSwapRate > 0, \"Swap rate must be greater than 0\");\n        swapRate = newSwapRate;\n    }\n\n    /**\n     * @dev Set the reward rate for farming.\n     * @param _newPercentage New annual yield percentage.\n     */\n\n    function setAnnualYieldPercentage(uint _newPercentage) external onlyOwner {\n        require(_newPercentage > 0, \"Reward rate must be greater than 0\");\n        annualYieldPercentage = _newPercentage;\n    }\n\n    /**\n     * @dev Set the security percentage for the contract.\n     * @param _newSecurityPercentage New security percentage (must be greater than 0 and less than or equal to 100).\n     */\n\n    function setSecurityPercentage(\n        uint _newSecurityPercentage\n    ) external onlyOwner {\n        require(\n            _newSecurityPercentage > 0 && _newSecurityPercentage <= 100,\n            \"Security percentage must be greater than 0 and less than or equal to 100\"\n        );\n        securityPercentage = _newSecurityPercentage;\n    }\n\n    /**\n     * @dev Withdraw accumulated Matic fees for the vault.\n     */\n    function withdrawMaticFeesToVault() external onlyOwner nonReentrant {\n        require(vaultW2RAddress != address(0), \"Invalid address\");\n        require(totalMaticFees > 0, \"No fees to withdraw\");\n        uint amount = totalMaticFees;\n        totalMaticFees = 0;\n        (bool success, ) = payable(vaultW2RAddress).call{value: amount}(\"\");\n        require(success, \"Failed to withdraw fees\");\n    }\n\n    /**\n     * @dev Withdraw accumulated W2R fees to the vault.\n     */\n    function withdrawW2RFeesToVault() external onlyOwner {\n        require(vaultW2RAddress != address(0), \"Invalid address\");\n        require(totalW2RFees > 0, \"No fees to withdraw\");\n        uint w2rToSend = totalW2RFees;\n        totalW2RFees = 0;\n        W2R.safeTransfer(vaultW2RAddress, w2rToSend);\n        vaultW2R.updateIncomes(0, w2rToSend, block.timestamp);\n    }\n\n    /**\n     * @dev Fallback function to receive Matic payments.\n     */\n\n    receive() external payable {}\n}\n",
  "sourcePath": "/Users/harbinger/Library/CloudStorage/Dropbox/Dossier familial/Formation Blockchain/Alyra/Projet Certification/Projet Alyra 2Wheels2Rent/truffle/contracts/MaticW2Rdex.sol",
  "compiler": {
    "name": "solc",
    "version": "0.8.18+commit.87f61d96.Emscripten.clang"
  },
  "schemaVersion": "3.4.16",
  "updatedAt": "2024-05-27T21:47:58.638Z",
  "networkType": "ethereum",
  "devdoc": {
    "author": "Crypt0zaurus https://www.linkedin.com/in/maxence-a-a82081260",
    "details": "A decentralized exchange for swapping Matic and W2R tokens, providing liquidity and farming.",
    "kind": "dev",
    "methods": {
      "addLiquidity(uint256)": {
        "details": "Add liquidity to the contract.",
        "params": {
          "w2rAmount": "Amount of W2R tokens to add as liquidity. Requires sending Matic along with the transaction. Emits an AddLiquidity event."
        }
      },
      "checkIfAuthorizedInLPcontract(address)": {
        "details": "Check if the given address is authorized as a minter and burner in the LP token contract.",
        "params": {
          "_toCheck": "The address to check for authorization in the LP token contract."
        },
        "returns": {
          "_0": "A boolean value indicating whether the address is authorized as a minter and burner."
        }
      },
      "constructor": {
        "details": "Constructor that initializes the contract with the token addresses, initial swap rate, Vault W2R address, and LP token address.",
        "params": {
          "W2RAddress": "Address of the W2R token contract.",
          "_vaultW2RAddress": "Address of the Vault W2R contract.",
          "initialSwapRate": "Initial swap rate for Matic to W2R conversion.",
          "lpTokenAddress": "Address of the LP token contract."
        }
      },
      "distributeTestW2R(bytes32)": {
        "details": "Distribute 2000 W2R tokens to the caller as a tester once per day, only on Amoy Testnet. Owner can set testAmount to 0 to disable this function.",
        "params": {
          "ipHash": "The keccak256 hash of the caller's IP address."
        }
      },
      "exitFarm()": {
        "details": "Exit farm and claim LP tokens back. Emits an ExitFarm event."
      },
      "farm(uint256)": {
        "details": "Farm LP tokens to earn W2R rewards.",
        "params": {
          "lpAmount": "Amount of LP tokens to farm. Emits a Farm event."
        }
      },
      "getContractBalances()": {
        "details": "Get the contract balances for W2R, MATIC, and LP tokens.",
        "returns": {
          "_0": "A tuple containing the W2R, MATIC, and LP token balances of the contract."
        }
      },
      "getUserBalances()": {
        "details": "Get the user balances for W2R and LP tokens.",
        "returns": {
          "_0": "A tuple containing the W2R and LP token balances of the caller."
        }
      },
      "harvest()": {
        "details": "Claim W2R rewards from farming. Emits a Harvest event."
      },
      "owner()": {
        "details": "Returns the address of the current owner."
      },
      "removeLiquidity(uint256)": {
        "details": "Remove liquidity from the contract.",
        "params": {
          "lpAmount": "Amount of LP tokens to remove liquidity. Emits a RemoveLiquidity event."
        }
      },
      "renounceOwnership()": {
        "details": "Leaves the contract without owner. It will not be possible to call `onlyOwner` functions anymore. Can only be called by the current owner. NOTE: Renouncing ownership will leave the contract without an owner, thereby removing any functionality that is only available to the owner."
      },
      "setAnnualYieldPercentage(uint256)": {
        "details": "Set the reward rate for farming.",
        "params": {
          "_newPercentage": "New annual yield percentage."
        }
      },
      "setSecurityPercentage(uint256)": {
        "details": "Set the security percentage for the contract.",
        "params": {
          "_newSecurityPercentage": "New security percentage (must be greater than 0 and less than or equal to 100)."
        }
      },
      "setSwapRate(uint256)": {
        "details": "Update the Matic to W2R swap rate.",
        "params": {
          "newSwapRate": "New swap rate for Matic to W2R conversion."
        }
      },
      "setTestAmount(uint256)": {
        "details": "Set the amount of W2R tokens to be distributed during testing. Can only be called by the contract owner.",
        "params": {
          "_amount": "The new test amount to be distributed (in W2R tokens). Must be greater or equal to 0 and less than or equal to 10,000 W2R."
        }
      },
      "swapMaticForW2R()": {
        "details": "Swap Matic for W2R tokens. Requires sending Matic along with the transaction. Emits a SwapMaticForW2R event."
      },
      "swapW2RForMatic(uint256)": {
        "details": "Swap W2R tokens for Matic tokens.",
        "params": {
          "w2rAmount": "Amount of W2R tokens to swap for Matic tokens. Emits a SwapW2RForMatic event."
        }
      },
      "transferOwnership(address)": {
        "details": "Transfers ownership of the contract to a new account (`newOwner`). Can only be called by the current owner."
      },
      "viewRewards()": {
        "details": "View the pending W2R rewards for the user.",
        "returns": {
          "_0": "reward The pending W2R rewards for the user."
        }
      },
      "withdrawMaticFeesToVault()": {
        "details": "Withdraw accumulated Matic fees for the vault."
      },
      "withdrawW2RFeesToVault()": {
        "details": "Withdraw accumulated W2R fees to the vault."
      }
    },
    "title": "MaticW2Rdex",
    "version": 1
  },
  "userdoc": {
    "kind": "user",
    "methods": {},
    "version": 1
  }
}