{
  "contractName": "MaticW2Rdex",
  "abi": [
    {
      "inputs": [
        {
          "internalType": "address",
          "name": "W2RAddress",
          "type": "address"
        },
        {
          "internalType": "uint256",
          "name": "initialSwapRate",
          "type": "uint256"
        },
        {
          "internalType": "address",
          "name": "vaultW2RAddress",
          "type": "address"
        },
        {
          "internalType": "address",
          "name": "lpTokenAddress",
          "type": "address"
        }
      ],
      "stateMutability": "nonpayable",
      "type": "constructor"
    },
    {
      "anonymous": false,
      "inputs": [
        {
          "indexed": true,
          "internalType": "address",
          "name": "user",
          "type": "address"
        },
        {
          "indexed": false,
          "internalType": "uint256",
          "name": "maticAmount",
          "type": "uint256"
        },
        {
          "indexed": false,
          "internalType": "uint256",
          "name": "w2rAmount",
          "type": "uint256"
        },
        {
          "indexed": false,
          "internalType": "uint256",
          "name": "lpAmount",
          "type": "uint256"
        }
      ],
      "name": "AddLiquidity",
      "type": "event"
    },
    {
      "anonymous": false,
      "inputs": [
        {
          "indexed": true,
          "internalType": "address",
          "name": "user",
          "type": "address"
        },
        {
          "indexed": false,
          "internalType": "uint256",
          "name": "lpAmount",
          "type": "uint256"
        },
        {
          "indexed": false,
          "internalType": "uint256",
          "name": "date",
          "type": "uint256"
        }
      ],
      "name": "ExitFarm",
      "type": "event"
    },
    {
      "anonymous": false,
      "inputs": [
        {
          "indexed": true,
          "internalType": "address",
          "name": "user",
          "type": "address"
        },
        {
          "indexed": false,
          "internalType": "uint256",
          "name": "lpAmount",
          "type": "uint256"
        },
        {
          "indexed": false,
          "internalType": "uint256",
          "name": "date",
          "type": "uint256"
        }
      ],
      "name": "Farm",
      "type": "event"
    },
    {
      "anonymous": false,
      "inputs": [
        {
          "indexed": true,
          "internalType": "address",
          "name": "user",
          "type": "address"
        },
        {
          "indexed": false,
          "internalType": "uint256",
          "name": "rewards",
          "type": "uint256"
        },
        {
          "indexed": false,
          "internalType": "uint256",
          "name": "date",
          "type": "uint256"
        }
      ],
      "name": "Harvest",
      "type": "event"
    },
    {
      "anonymous": false,
      "inputs": [
        {
          "indexed": true,
          "internalType": "address",
          "name": "previousOwner",
          "type": "address"
        },
        {
          "indexed": true,
          "internalType": "address",
          "name": "newOwner",
          "type": "address"
        }
      ],
      "name": "OwnershipTransferred",
      "type": "event"
    },
    {
      "anonymous": false,
      "inputs": [
        {
          "indexed": true,
          "internalType": "address",
          "name": "user",
          "type": "address"
        },
        {
          "indexed": false,
          "internalType": "uint256",
          "name": "lpAmount",
          "type": "uint256"
        },
        {
          "indexed": false,
          "internalType": "uint256",
          "name": "maticAmount",
          "type": "uint256"
        },
        {
          "indexed": false,
          "internalType": "uint256",
          "name": "w2rAmount",
          "type": "uint256"
        }
      ],
      "name": "RemoveLiquidity",
      "type": "event"
    },
    {
      "anonymous": false,
      "inputs": [
        {
          "indexed": true,
          "internalType": "address",
          "name": "user",
          "type": "address"
        },
        {
          "indexed": false,
          "internalType": "uint256",
          "name": "maticAmount",
          "type": "uint256"
        },
        {
          "indexed": false,
          "internalType": "uint256",
          "name": "w2rAmount",
          "type": "uint256"
        },
        {
          "indexed": false,
          "internalType": "uint256",
          "name": "date",
          "type": "uint256"
        }
      ],
      "name": "SwapMaticForW2R",
      "type": "event"
    },
    {
      "anonymous": false,
      "inputs": [
        {
          "indexed": true,
          "internalType": "address",
          "name": "user",
          "type": "address"
        },
        {
          "indexed": false,
          "internalType": "uint256",
          "name": "w2rAmount",
          "type": "uint256"
        },
        {
          "indexed": false,
          "internalType": "uint256",
          "name": "maticAmount",
          "type": "uint256"
        },
        {
          "indexed": false,
          "internalType": "uint256",
          "name": "date",
          "type": "uint256"
        }
      ],
      "name": "SwapW2RForMatic",
      "type": "event"
    },
    {
      "inputs": [
        {
          "internalType": "address",
          "name": "",
          "type": "address"
        }
      ],
      "name": "LPBalance",
      "outputs": [
        {
          "internalType": "uint256",
          "name": "",
          "type": "uint256"
        }
      ],
      "stateMutability": "view",
      "type": "function",
      "constant": true
    },
    {
      "inputs": [],
      "name": "W2R",
      "outputs": [
        {
          "internalType": "contract IERC20",
          "name": "",
          "type": "address"
        }
      ],
      "stateMutability": "view",
      "type": "function",
      "constant": true
    },
    {
      "inputs": [
        {
          "internalType": "address",
          "name": "",
          "type": "address"
        }
      ],
      "name": "farming",
      "outputs": [
        {
          "internalType": "uint256",
          "name": "lastTime",
          "type": "uint256"
        },
        {
          "internalType": "uint256",
          "name": "lpAmount",
          "type": "uint256"
        },
        {
          "internalType": "uint256",
          "name": "rewards",
          "type": "uint256"
        }
      ],
      "stateMutability": "view",
      "type": "function",
      "constant": true
    },
    {
      "inputs": [],
      "name": "feesPercent",
      "outputs": [
        {
          "internalType": "uint256",
          "name": "",
          "type": "uint256"
        }
      ],
      "stateMutability": "view",
      "type": "function",
      "constant": true
    },
    {
      "inputs": [],
      "name": "lpToken",
      "outputs": [
        {
          "internalType": "contract IMaticW2RPairToken",
          "name": "",
          "type": "address"
        }
      ],
      "stateMutability": "view",
      "type": "function",
      "constant": true
    },
    {
      "inputs": [],
      "name": "owner",
      "outputs": [
        {
          "internalType": "address",
          "name": "",
          "type": "address"
        }
      ],
      "stateMutability": "view",
      "type": "function",
      "constant": true
    },
    {
      "inputs": [],
      "name": "renounceOwnership",
      "outputs": [],
      "stateMutability": "nonpayable",
      "type": "function"
    },
    {
      "inputs": [],
      "name": "rewardRatePerSecond",
      "outputs": [
        {
          "internalType": "uint256",
          "name": "",
          "type": "uint256"
        }
      ],
      "stateMutability": "view",
      "type": "function",
      "constant": true
    },
    {
      "inputs": [],
      "name": "securityPercentage",
      "outputs": [
        {
          "internalType": "uint256",
          "name": "",
          "type": "uint256"
        }
      ],
      "stateMutability": "view",
      "type": "function",
      "constant": true
    },
    {
      "inputs": [],
      "name": "swapRate",
      "outputs": [
        {
          "internalType": "uint256",
          "name": "",
          "type": "uint256"
        }
      ],
      "stateMutability": "view",
      "type": "function",
      "constant": true
    },
    {
      "inputs": [],
      "name": "testAmount",
      "outputs": [
        {
          "internalType": "uint256",
          "name": "",
          "type": "uint256"
        }
      ],
      "stateMutability": "view",
      "type": "function",
      "constant": true
    },
    {
      "inputs": [],
      "name": "totalMaticFees",
      "outputs": [
        {
          "internalType": "uint256",
          "name": "",
          "type": "uint256"
        }
      ],
      "stateMutability": "view",
      "type": "function",
      "constant": true
    },
    {
      "inputs": [],
      "name": "totalMaticLiquidity",
      "outputs": [
        {
          "internalType": "uint256",
          "name": "",
          "type": "uint256"
        }
      ],
      "stateMutability": "view",
      "type": "function",
      "constant": true
    },
    {
      "inputs": [],
      "name": "totalW2RFees",
      "outputs": [
        {
          "internalType": "uint256",
          "name": "",
          "type": "uint256"
        }
      ],
      "stateMutability": "view",
      "type": "function",
      "constant": true
    },
    {
      "inputs": [],
      "name": "totalW2RLiquidity",
      "outputs": [
        {
          "internalType": "uint256",
          "name": "",
          "type": "uint256"
        }
      ],
      "stateMutability": "view",
      "type": "function",
      "constant": true
    },
    {
      "inputs": [
        {
          "internalType": "address",
          "name": "newOwner",
          "type": "address"
        }
      ],
      "name": "transferOwnership",
      "outputs": [],
      "stateMutability": "nonpayable",
      "type": "function"
    },
    {
      "stateMutability": "payable",
      "type": "receive",
      "payable": true
    },
    {
      "inputs": [
        {
          "internalType": "bytes32",
          "name": "ipHash",
          "type": "bytes32"
        }
      ],
      "name": "distributeTestW2R",
      "outputs": [],
      "stateMutability": "nonpayable",
      "type": "function"
    },
    {
      "inputs": [
        {
          "internalType": "uint256",
          "name": "_amount",
          "type": "uint256"
        }
      ],
      "name": "setTestAmount",
      "outputs": [],
      "stateMutability": "nonpayable",
      "type": "function"
    },
    {
      "inputs": [],
      "name": "getContractBalances",
      "outputs": [
        {
          "internalType": "uint256",
          "name": "",
          "type": "uint256"
        },
        {
          "internalType": "uint256",
          "name": "",
          "type": "uint256"
        },
        {
          "internalType": "uint256",
          "name": "",
          "type": "uint256"
        }
      ],
      "stateMutability": "view",
      "type": "function",
      "constant": true
    },
    {
      "inputs": [],
      "name": "getUserBalances",
      "outputs": [
        {
          "internalType": "uint256",
          "name": "",
          "type": "uint256"
        },
        {
          "internalType": "uint256",
          "name": "",
          "type": "uint256"
        }
      ],
      "stateMutability": "view",
      "type": "function",
      "constant": true
    },
    {
      "inputs": [
        {
          "internalType": "address",
          "name": "_toCheck",
          "type": "address"
        }
      ],
      "name": "checkIfAuthorizedInLPcontract",
      "outputs": [
        {
          "internalType": "bool",
          "name": "",
          "type": "bool"
        }
      ],
      "stateMutability": "view",
      "type": "function",
      "constant": true
    },
    {
      "inputs": [],
      "name": "swapMaticForW2R",
      "outputs": [],
      "stateMutability": "payable",
      "type": "function",
      "payable": true
    },
    {
      "inputs": [
        {
          "internalType": "uint256",
          "name": "w2rAmount",
          "type": "uint256"
        }
      ],
      "name": "swapW2RForMatic",
      "outputs": [],
      "stateMutability": "nonpayable",
      "type": "function"
    },
    {
      "inputs": [
        {
          "internalType": "uint256",
          "name": "w2rAmount",
          "type": "uint256"
        }
      ],
      "name": "addLiquidity",
      "outputs": [],
      "stateMutability": "payable",
      "type": "function",
      "payable": true
    },
    {
      "inputs": [
        {
          "internalType": "uint256",
          "name": "lpAmount",
          "type": "uint256"
        }
      ],
      "name": "removeLiquidity",
      "outputs": [],
      "stateMutability": "nonpayable",
      "type": "function"
    },
    {
      "inputs": [
        {
          "internalType": "uint256",
          "name": "lpAmount",
          "type": "uint256"
        }
      ],
      "name": "farm",
      "outputs": [],
      "stateMutability": "nonpayable",
      "type": "function"
    },
    {
      "inputs": [],
      "name": "exitFarm",
      "outputs": [],
      "stateMutability": "nonpayable",
      "type": "function"
    },
    {
      "inputs": [],
      "name": "viewRewards",
      "outputs": [
        {
          "internalType": "uint256",
          "name": "",
          "type": "uint256"
        }
      ],
      "stateMutability": "view",
      "type": "function",
      "constant": true
    },
    {
      "inputs": [],
      "name": "harvest",
      "outputs": [],
      "stateMutability": "nonpayable",
      "type": "function"
    },
    {
      "inputs": [
        {
          "internalType": "uint256",
          "name": "newSwapRate",
          "type": "uint256"
        }
      ],
      "name": "setSwapRate",
      "outputs": [],
      "stateMutability": "nonpayable",
      "type": "function"
    },
    {
      "inputs": [
        {
          "internalType": "uint256",
          "name": "_newRewardRate",
          "type": "uint256"
        }
      ],
      "name": "setRewardRate",
      "outputs": [],
      "stateMutability": "nonpayable",
      "type": "function"
    },
    {
      "inputs": [
        {
          "internalType": "uint256",
          "name": "_newSecurityPercentage",
          "type": "uint256"
        }
      ],
      "name": "setSecurityPercentage",
      "outputs": [],
      "stateMutability": "nonpayable",
      "type": "function"
    },
    {
      "inputs": [],
      "name": "withdrawFees",
      "outputs": [],
      "stateMutability": "nonpayable",
      "type": "function"
    }
  ],
  "bytecode": "0x60806040523480156200001157600080fd5b50604051620030a8380380620030a8833981016040819052620000349162000218565b6200003f33620001ab565b6001600160a01b0384166200009b5760405162461bcd60e51b815260206004820152601960248201527f57325220616464726573732063616e6e6f74206265203078300000000000000060448201526064015b60405180910390fd5b60008311620000ed5760405162461bcd60e51b815260206004820181905260248201527f537761702072617465206d7573742062652067726561746572207468616e2030604482015260640162000092565b6001600160a01b038216620001455760405162461bcd60e51b815260206004820152601f60248201527f5661756c742057325220616464726573732063616e6e6f742062652030783000604482015260640162000092565b600180546001600160a01b039586166001600160a01b03199182161782556002805493871693821693909317909255600393909355633b9aca00600655600b8054929094169116179091556005600755600a55683635c9adc5dea000006010556200026c565b600080546001600160a01b038381166001600160a01b0319831681178455604051919092169283917f8be0079c531659141344cd1fd0a4f28419497f9722a3daafe3b4186f6b6457e09190a35050565b80516001600160a01b03811681146200021357600080fd5b919050565b600080600080608085870312156200022f57600080fd5b6200023a85620001fb565b9350602085015192506200025160408601620001fb565b91506200026160608601620001fb565b905092959194509250565b612e2c806200027c6000396000f3fe6080604052600436106101f25760003560e01c8063715018a61161010d578063bd6edba5116100a0578063f2fde38b1161006f578063f2fde38b14610565578063f3c070f714610585578063f4cde4691461059b578063f9ef2c6b146105bb578063ffd2a7d3146105d157600080fd5b8063bd6edba5146104fa578063cddaf35814610524578063d1ef1beb14610539578063dfbfbab31461054f57600080fd5b80638f036072116100dc5780638f0360721461047a5780639a3b7b651461049a5780639c8f9f23146104ba5780639e447fc6146104da57600080fd5b8063715018a6146104295780637f2e4f2a1461043e5780637f698c29146104465780638da5cb5b1461045c57600080fd5b80634641257d116101855780635a18f4bc116101545780635a18f4bc146103af5780635d773b2c146103c55780635fcbd285146103db578063698518e51461041357600080fd5b80634641257d14610352578063476343ee1461036757806351c6590a1461037c578063538a85a11461038f57600080fd5b806328d6dbcd116101c157806328d6dbcd146102995780632d058b53146102f057806330cb7bfb146103105780633dfa83b31461033d57600080fd5b806302b74970146101fe5780630b544a8c1461022057806316578dc614610249578063177953831461026957600080fd5b366101f957005b600080fd5b34801561020a57600080fd5b5061021e610219366004612b6a565b6105e6565b005b34801561022c57600080fd5b5061023660095481565b6040519081526020015b60405180910390f35b34801561025557600080fd5b5061021e610264366004612b6a565b610a0c565b34801561027557600080fd5b50610289610284366004612b83565b610aad565b6040519015158152602001610240565b3480156102a557600080fd5b506102d56102b4366004612b83565b600d6020526000908152604090208054600182015460029092015490919083565b60408051938452602084019290925290820152606001610240565b3480156102fc57600080fd5b5061021e61030b366004612b6a565b610b22565b34801561031c57600080fd5b5061023661032b366004612b83565b600c6020526000908152604090205481565b34801561034957600080fd5b50610236610d86565b34801561035e57600080fd5b5061021e610e1d565b34801561037357600080fd5b5061021e610f7f565b61021e61038a366004612b6a565b6110d1565b34801561039b57600080fd5b5061021e6103aa366004612b6a565b6116dd565b3480156103bb57600080fd5b5061023660045481565b3480156103d157600080fd5b5061023660065481565b3480156103e757600080fd5b506002546103fb906001600160a01b031681565b6040516001600160a01b039091168152602001610240565b34801561041f57600080fd5b5061023660035481565b34801561043557600080fd5b5061021e61195b565b61021e61196f565b34801561045257600080fd5b5061023660105481565b34801561046857600080fd5b506000546001600160a01b03166103fb565b34801561048657600080fd5b506001546103fb906001600160a01b031681565b3480156104a657600080fd5b5061021e6104b5366004612b6a565b611c22565b3480156104c657600080fd5b5061021e6104d5366004612b6a565b611c94565b3480156104e657600080fd5b5061021e6104f5366004612b6a565b61228a565b34801561050657600080fd5b5061050f6122f2565b60408051928352602083019190915201610240565b34801561053057600080fd5b5061021e6123d7565b34801561054557600080fd5b5061023660055481565b34801561055b57600080fd5b50610236600a5481565b34801561057157600080fd5b5061021e610580366004612b83565b6124f7565b34801561059157600080fd5b5061023660075481565b3480156105a757600080fd5b5061021e6105b6366004612b6a565b61256d565b3480156105c757600080fd5b5061023660085481565b3480156105dd57600080fd5b506102d56125ca565b60006105f6565b60405180910390fd5b33316106355760405162461bcd60e51b815260206004820152600e60248201526d666f72204d41544943206665657360901b60448201526064016105ed565b600082116106555760405162461bcd60e51b81526004016105ed90612bb3565b600154604051636eb1769f60e11b815233600482015230602482015283916001600160a01b03169063dd62ed3e90604401602060405180830381865afa1580156106a3573d6000803e3d6000fd5b505050506040513d601f19601f820116820180604052508101906106c79190612bf4565b10156107155760405162461bcd60e51b815260206004820152601d60248201527f596f75206e65656420746f20617070726f76652057325220666972737400000060448201526064016105ed565b6001546040516370a0823160e01b815233600482015283916001600160a01b0316906370a0823190602401602060405180830381865afa15801561075d573d6000803e3d6000fd5b505050506040513d601f19601f820116820180604052508101906107819190612bf4565b10156107c05760405162461bcd60e51b815260206004820152600e60248201526d2737ba1032b737bab3b4102b992960911b60448201526064016105ed565b6000600354836107d09190612c23565b9050612710600a54826107e39190612c45565b6107ee906064612c45565b10156107f957600080fd5b6000612710600a548361080c9190612c45565b610817906064612c45565b6108219190612c23565b9050816127106007546004546108379190612c45565b610842906064612c45565b61084c9190612c23565b10156108c05760405162461bcd60e51b815260206004820152603d60248201527f596f752063616e27742073776170206d6f7265207468616e203525206f66207460448201527f686520636f6e74726163742773204d41544943206c697175696469747900000060648201526084016105ed565b80600860008282546108d29190612c5c565b909155506108e290508183612c6f565b600460008282546108f39190612c6f565b92505081905550836005600082825461090c9190612c5c565b9091555050600154610929906001600160a01b03163330876126b2565b6001925060003361093a8385612c6f565b604051600081818185875af1925050503d8060008114610976576040519150601f19603f3d011682016040523d82523d6000602084013e61097b565b606091505b5050905060009350806109c35760405162461bcd60e51b815260206004820152601060248201526f2a3930b739b332b9103330b4b632b21760811b60448201526064016105ed565b60408051868152602081018590524281830152905133917fa5753ab11bf99f3fce97d5d308a4fa395f21cddb5de19469d996a1f391905d73919081900360600190a25050505050565b610a14612723565b600081118015610a25575060648111155b610aa85760405162461bcd60e51b815260206004820152604860248201527f53656375726974792070657263656e74616765206d757374206265206772656160448201527f746572207468616e203020616e64206c657373207468616e206f72206571756160648201526706c20746f203130360c41b608482015260a4016105ed565b600755565b600254604051632b2540bd60e01b81526001600160a01b0383811660048301526000921690632b2540bd90602401602060405180830381865afa158015610af8573d6000803e3d6000fd5b505050506040513d601f19601f82011682018060405250810190610b1c9190612c82565b92915050565b600060105411610b7f5760405162461bcd60e51b815260206004820152602260248201527f5465737420616d6f756e74206d7573742062652067726561746572207468616e604482015261020360f41b60648201526084016105ed565b46620138818114610bef5760405162461bcd60e51b815260206004820152603460248201527f546869732066756e6374696f6e2063616e206f6e6c792062652075736564206f6044820152731b881d1a1948135d5b58985a4815195cdd1b995d60621b60648201526084016105ed565b6000828152600f602052604090205442906201518090610c0f9083612c6f565b1015610c775760405162461bcd60e51b815260206004820152603160248201527f596f752063616e206f6e6c792063616c6c20746869732066756e6374696f6e2060448201527006f6e63652061206461792070657220495607c1b60648201526084016105ed565b6000838152600f60209081526040808320849055338352600e9091529020546201518090610ca59083612c6f565b1015610d065760405162461bcd60e51b815260206004820152602a60248201527f596f752063616e206f6e6c792063616c6c20746869732066756e6374696f6e206044820152696f6e636520612064617960b01b60648201526084016105ed565b336000818152600e602052604090819020839055600b54601054915163255d23d760e11b8152600481019390935260248301919091526001600160a01b031690634aba47ae90604401600060405180830381600087803b158015610d6957600080fd5b505af1158015610d7d573d6000803e3d6000fd5b50505050505050565b600033610da55760405162461bcd60e51b81526004016105ed90612ca4565b336000908152600d60205260408120600181015490549091610dc78242612c6f565b336000908152600d60205260408120600201546006549293509091670de0b6b3a764000090610df68588612c45565b610e009190612c45565b610e0a9190612c23565b610e149190612c5c565b95945050505050565b33610e3a5760405162461bcd60e51b81526004016105ed90612ca4565b336000908152600d602052604090206001015480610e9a5760405162461bcd60e51b815260206004820152601d60248201527f4e6f204c5020746f6b656e7320746f20636c61696d207265776172647300000060448201526064016105ed565b336000908152600d6020526040812090610eb261277d565b826002016000828254610ec59190612c5c565b918290555042845560006002850155600b5460405163255d23d760e11b8152336004820152602481018390529193506001600160a01b03169150634aba47ae90604401600060405180830381600087803b158015610f2257600080fd5b505af1158015610f36573d6000803e3d6000fd5b5050505060028201546040805191825242602083015233917f71bab65ced2e5750775a0613be067df48ef06cf92a496ebf7663ae066092495491015b60405180910390a2505050565b610f87612723565b33610fa45760405162461bcd60e51b81526004016105ed90612ca4565b60006009541561101d57600980546000909155600b5460405163255d23d760e11b8152336004820152602481018390526001600160a01b0390911690634aba47ae90604401600060405180830381600087803b15801561100357600080fd5b505af1158015611017573d6000803e3d6000fd5b50505050505b600854156110ce5760088054600091829055604051909190339083908381818185875af1925050503d8060008114611071576040519150601f19603f3d011682016040523d82523d6000602084013e611076565b606091505b5050905060019250806110cb5760405162461bcd60e51b815260206004820152601760248201527f4661696c656420746f207769746864726177206665657300000000000000000060448201526064016105ed565b50505b50565b600081116110f15760405162461bcd60e51b81526004016105ed90612bb3565b6000341161114d5760405162461bcd60e51b815260206004820152602360248201527f4d4154494320616d6f756e74206d75737420626520677265617465722074686160448201526206e20360ec1b60648201526084016105ed565b600154604051636eb1769f60e11b815233600482015230602482015282916001600160a01b03169063dd62ed3e90604401602060405180830381865afa15801561119b573d6000803e3d6000fd5b505050506040513d601f19601f820116820180604052508101906111bf9190612bf4565b101561120d5760405162461bcd60e51b815260206004820152601d60248201527f596f75206e65656420746f20617070726f76652057325220666972737400000060448201526064016105ed565b3461271061121d8361012c612c45565b101561122857600080fd5b6127106112378361012c612c45565b6112419190612c23565b61124b9083612c6f565b6003546112589083612c45565b1015801561129457506127106112708361012c612c45565b61127a9190612c23565b6112849083612c5c565b6003546112919083612c45565b11155b6112fb5760405162461bcd60e51b815260206004820152603260248201527f4d415449432d57325220726174696f206973206e6f742077697468696e2074686044820152716520616c6c6f77656420736c69707061676560701b60648201526084016105ed565b6000600454600014801561130f5750600554155b1561137f576000546001600160a01b0316331461136e5760405162461bcd60e51b815260206004820152601c60248201527f4f6e6c79206f776e65722063616e20616464206c69717569646974790000000060448201526064016105ed565b5060048190556005829055806115e5565b60006005546004546113919190612c45565b905082600460008282546113a59190612c5c565b9250508190555083600560008282546113be9190612c5c565b90915550506005546004546000916113d591612c45565b9050816113e28183612c6f565b600260009054906101000a90046001600160a01b03166001600160a01b03166318160ddd6040518163ffffffff1660e01b8152600401602060405180830381865afa158015611435573d6000803e3d6000fd5b505050506040513d601f19601f820116820180604052508101906114599190612bf4565b6114639190612c45565b61146d9190612c23565b92506064600754600260009054906101000a90046001600160a01b03166001600160a01b03166318160ddd6040518163ffffffff1660e01b8152600401602060405180830381865afa1580156114c7573d6000803e3d6000fd5b505050506040513d601f19601f820116820180604052508101906114eb9190612bf4565b6114f59190612c45565b101561150057600080fd5b6127106007546005546115139190612c45565b61151e906064612c45565b6115289190612c23565b8511158061154057506000546001600160a01b031633145b6115b25760405162461bcd60e51b815260206004820152603d60248201527f596f752063616e277420616464206d6f7265207468616e20746865207365637560448201527f726974792025206f662074686520746f74616c204c5020737570706c7900000060648201526084016105ed565b83600460008282546115c49190612c5c565b9250508190555084600560008282546115dd9190612c5c565b909155505050505b336000908152600c602052604081208054839290611604908490612c5c565b90915550506002546040516340c10f1960e01b8152306004820152602481018390526001600160a01b03909116906340c10f1990604401600060405180830381600087803b15801561165557600080fd5b505af1158015611669573d6000803e3d6000fd5b505060025461168592506001600160a01b031690503383612888565b60015461169d906001600160a01b03163330866126b2565b604080518381526020810185905290810182905233907fbeb3885786d637a474cbc287c0a44587231633a077f0bd30354d5a4b18996fce90606001610f72565b806000811161172e5760405162461bcd60e51b815260206004820181905260248201527f4c5020616d6f756e74206d7573742062652067726561746572207468616e203060448201526064016105ed565b600254604051636eb1769f60e11b815233600482015230602482015282916001600160a01b03169063dd62ed3e90604401602060405180830381865afa15801561177c573d6000803e3d6000fd5b505050506040513d601f19601f820116820180604052508101906117a09190612bf4565b10156117be5760405162461bcd60e51b81526004016105ed90612ccd565b336000908152600c6020526040902054811180159061184757506002546040516370a0823160e01b815233600482015282916001600160a01b0316906370a0823190602401602060405180830381865afa158015611820573d6000803e3d6000fd5b505050506040513d601f19601f820116820180604052508101906118449190612bf4565b10155b6118635760405162461bcd60e51b81526004016105ed90612d0f565b336000908152600c60205260409020548111156118925760405162461bcd60e51b81526004016105ed90612d55565b336000908152600c6020526040812080548492906118b1908490612c6f565b9091555050336000908152600d602052604090206001810154156118f0576118d761277d565b8160020160008282546118ea9190612c5c565b90915550505b828160010160008282546119049190612c5c565b9091555050428155600254611924906001600160a01b03163330866126b2565b6040805184815242602082015233917f9fc16615f48f603b9164a63f0ff1c7bc4c2b67fb3a51ecfd9856b0c843c9c0229101610f72565b611963612723565b61196d60006128b8565b565b600034116119b35760405162461bcd60e51b815260206004820152601160248201527006d7573742062652067726561746572203607c1b60448201526064016105ed565b612710600a54346119c49190612c45565b6119cf906064612c45565b10156119da57600080fd5b6000612710600a54346119ed9190612c45565b6119f8906064612c45565b611a029190612c23565b9050611a0e8134612c5c565b333111611a505760405162461bcd60e51b815260206004820152601060248201526f6e6f7420656e6f756768204d6174696360801b60448201526064016105ed565b600354600090611a608334612c6f565b611a6a9190612c45565b905060008111611ab45760405162461bcd60e51b81526020600482015260156024820152740573252206d7573742062652067726561746572203605c1b60448201526064016105ed565b612710600754600554611ac79190612c45565b611ad2906064612c45565b1015611add57600080fd5b80612710600754600554611af19190612c45565b611afc906064612c45565b611b069190612c23565b1015611b705760405162461bcd60e51b815260206004820152603360248201527f596f752063616e27742073776170206d6f7265207468616e203525206f662074604482015272686520746f74616c2057325220737570706c7960681b60648201526084016105ed565b8160086000828254611b829190612c5c565b90915550611b9290508234612c6f565b60046000828254611ba39190612c5c565b925050819055508060056000828254611bbc9190612c6f565b9091555050600154611bd8906001600160a01b03163383612888565b6040805134815260208101839052429181019190915233907f228d47c99c3df2f0352ef63baed152c51569c5547cb3c098f724742633b5eb27906060015b60405180910390a25050565b611c2a612723565b69021e19e0c9bab2400000811115611c8f5760405162461bcd60e51b815260206004820152602260248201527f416d6f756e74206d757374206265206c657373207468616e2031303030302057604482015261192960f11b60648201526084016105ed565b601055565b8060008111611ce55760405162461bcd60e51b815260206004820181905260248201527f4c5020616d6f756e74206d7573742062652067726561746572207468616e203060448201526064016105ed565b600254604051636eb1769f60e11b815233600482015230602482015282916001600160a01b03169063dd62ed3e90604401602060405180830381865afa158015611d33573d6000803e3d6000fd5b505050506040513d601f19601f82011682018060405250810190611d579190612bf4565b1015611d755760405162461bcd60e51b81526004016105ed90612ccd565b336000908152600c60205260409020548111801590611dfe57506002546040516370a0823160e01b815233600482015282916001600160a01b0316906370a0823190602401602060405180830381865afa158015611dd7573d6000803e3d6000fd5b505050506040513d601f19601f82011682018060405250810190611dfb9190612bf4565b10155b611e1a5760405162461bcd60e51b81526004016105ed90612d0f565b336000908152600c6020526040902054811115611e495760405162461bcd60e51b81526004016105ed90612d55565b6000600254604080516318160ddd60e01b815290516000926001600160a01b0316916318160ddd9160048083019260209291908290030181865afa158015611e95573d6000803e3d6000fd5b505050506040513d601f19601f82011682018060405250810190611eb99190612bf4565b11611eff5760405162461bcd60e51b81526020600482015260166024820152754e6f206c697175696469747920746f2072656d6f766560501b60448201526064016105ed565b6000600454118015611f1357506000600554115b611f585760405162461bcd60e51b81526020600482015260166024820152754e6f206c697175696469747920746f2072656d6f766560501b60448201526064016105ed565b336000908152600c6020526040902054831115611f875760405162461bcd60e51b81526004016105ed90612d55565b600254604080516318160ddd60e01b815290516000926001600160a01b0316916318160ddd9160048083019260209291908290030181865afa158015611fd1573d6000803e3d6000fd5b505050506040513d601f19601f82011682018060405250810190611ff59190612bf4565b61200785670de0b6b3a7640000612c45565b6120119190612c23565b90506000670de0b6b3a76400008260045461202c9190612c45565b6120369190612c23565b90506000670de0b6b3a7640000836005546120519190612c45565b61205b9190612c23565b336000908152600c602052604081208054929350889290919061207f908490612c6f565b9250508190555081600460008282546120989190612c6f565b9250508190555080600560008282546120b19190612c6f565b90915550506001546120cd906001600160a01b03163383612888565b6002546040516323b872dd60e01b8152336004820152306024820152604481018890526001600160a01b03909116906323b872dd906064016020604051808303816000875af1158015612124573d6000803e3d6000fd5b505050506040513d601f19601f820116820180604052508101906121489190612c82565b50600254604051630852cd8d60e31b8152600481018890526001600160a01b03909116906342966c6890602401600060405180830381600087803b15801561218f57600080fd5b505af11580156121a3573d6000803e3d6000fd5b5050604051600196506000925033915084908381818185875af1925050503d80600081146121ed576040519150601f19603f3d011682016040523d82523d6000602084013e6121f2565b606091505b50509050600094508061223e5760405162461bcd60e51b81526020600482015260146024820152734661696c656420746f2073656e64204d4154494360601b60448201526064016105ed565b604080518481526020810184905290810188905233907f59c3a0b60c6ab7deb62e1440c9e72441db6db7dfe514dba8cb18e60c0d896efa9060600160405180910390a250505050505050565b612292612723565b600081116122ed5760405162461bcd60e51b815260206004820152602260248201527f5265776172642072617465206d7573742062652067726561746572207468616e604482015261020360f41b60648201526084016105ed565b600655565b6001546040516370a0823160e01b815233600482015260009182916001600160a01b03909116906370a0823190602401602060405180830381865afa15801561233f573d6000803e3d6000fd5b505050506040513d601f19601f820116820180604052508101906123639190612bf4565b6002546040516370a0823160e01b81523360048201526001600160a01b03909116906370a0823190602401602060405180830381865afa1580156123ab573d6000803e3d6000fd5b505050506040513d601f19601f820116820180604052508101906123cf9190612bf4565b915091509091565b336123f45760405162461bcd60e51b81526004016105ed90612ca4565b336000908152600d6020526040902060010154806124545760405162461bcd60e51b815260206004820152601d60248201527f4e6f204c5020746f6b656e7320746f20636c61696d207265776172647300000060448201526064016105ed565b61245c610e1d565b336000908152600d6020526040812060018101805491928492612480908490612c6f565b9091555050336000908152600c6020526040812080548492906124a4908490612c5c565b90915550506002546124c0906001600160a01b03163384612888565b6040805183815242602082015233917f9c17b9b1252c31bf8727169baa67751ad5869f505488283af0f2c09cb26320bc9101611c16565b6124ff612723565b6001600160a01b0381166125645760405162461bcd60e51b815260206004820152602660248201527f4f776e61626c653a206e6577206f776e657220697320746865207a65726f206160448201526564647265737360d01b60648201526084016105ed565b6110ce816128b8565b612575612723565b600081116125c55760405162461bcd60e51b815260206004820181905260248201527f537761702072617465206d7573742062652067726561746572207468616e203060448201526064016105ed565b600355565b6001546040516370a0823160e01b8152306004820152600091829182916001600160a01b0316906370a0823190602401602060405180830381865afa158015612617573d6000803e3d6000fd5b505050506040513d601f19601f8201168201806040525081019061263b9190612bf4565b6002546040516370a0823160e01b815230600482015247916001600160a01b0316906370a0823190602401602060405180830381865afa158015612683573d6000803e3d6000fd5b505050506040513d601f19601f820116820180604052508101906126a79190612bf4565b925092509250909192565b6040516001600160a01b038085166024830152831660448201526064810182905261271d9085906323b872dd60e01b906084015b60408051601f198184030181529190526020810180516001600160e01b03166001600160e01b031990931692909217909152612908565b50505050565b6000546001600160a01b0316331461196d5760405162461bcd60e51b815260206004820181905260248201527f4f776e61626c653a2063616c6c6572206973206e6f7420746865206f776e657260448201526064016105ed565b336000908152600d6020526040812060018101549054829061279f9042612c6f565b90506000670de0b6b3a764000060065483856127bb9190612c45565b6127c59190612c45565b6127cf9190612c23565b9050612710600a54826127e29190612c45565b6127ed906064612c45565b101561282f5760405162461bcd60e51b815260206004820152601160248201527008ccacae640c2e4ca40e8dede40d0d2ced607b1b60448201526064016105ed565b6000612710600a54836128429190612c45565b61284d906064612c45565b6128579190612c23565b905060006128658284612c6f565b905081600960008282546128799190612c5c565b90915550909695505050505050565b6040516001600160a01b0383166024820152604481018290526110cb90849063a9059cbb60e01b906064016126e6565b600080546001600160a01b038381166001600160a01b0319831681178455604051919092169283917f8be0079c531659141344cd1fd0a4f28419497f9722a3daafe3b4186f6b6457e09190a35050565b600061295d826040518060400160405280602081526020017f5361666545524332303a206c6f772d6c6576656c2063616c6c206661696c6564815250856001600160a01b03166129da9092919063ffffffff16565b8051909150156110cb578080602001905181019061297b9190612c82565b6110cb5760405162461bcd60e51b815260206004820152602a60248201527f5361666545524332303a204552433230206f7065726174696f6e20646964206e6044820152691bdd081cdd58d8d9595960b21b60648201526084016105ed565b60606129e984846000856129f1565b949350505050565b606082471015612a525760405162461bcd60e51b815260206004820152602660248201527f416464726573733a20696e73756666696369656e742062616c616e636520666f6044820152651c8818d85b1b60d21b60648201526084016105ed565b600080866001600160a01b03168587604051612a6e9190612da7565b60006040518083038185875af1925050503d8060008114612aab576040519150601f19603f3d011682016040523d82523d6000602084013e612ab0565b606091505b5091509150612ac187838387612acc565b979650505050505050565b60608315612b3b578251600003612b34576001600160a01b0385163b612b345760405162461bcd60e51b815260206004820152601d60248201527f416464726573733a2063616c6c20746f206e6f6e2d636f6e747261637400000060448201526064016105ed565b50816129e9565b6129e98383815115612b505781518083602001fd5b8060405162461bcd60e51b81526004016105ed9190612dc3565b600060208284031215612b7c57600080fd5b5035919050565b600060208284031215612b9557600080fd5b81356001600160a01b0381168114612bac57600080fd5b9392505050565b60208082526021908201527f57325220616d6f756e74206d7573742062652067726561746572207468616e206040820152600360fc1b606082015260800190565b600060208284031215612c0657600080fd5b5051919050565b634e487b7160e01b600052601160045260246000fd5b600082612c4057634e487b7160e01b600052601260045260246000fd5b500490565b8082028115828204841417610b1c57610b1c612c0d565b80820180821115610b1c57610b1c612c0d565b81810381811115610b1c57610b1c612c0d565b600060208284031215612c9457600080fd5b81518015158114612bac57600080fd5b6020808252600f908201526e496e76616c6964206164647265737360881b604082015260600190565b60208082526022908201527f596f75206e65656420746f20617070726f7665204c5020746f6b656e206669726040820152611cdd60f21b606082015260800190565b60208082526026908201527f596f7520646f6e2774206861766520616e79204c5020746f6b656e7320746f2060408201526572656d6f766560d01b606082015260800190565b6020808252601490820152734e6f7420656e6f756768204c5020746f6b656e7360601b604082015260600190565b60005b83811015612d9e578181015183820152602001612d86565b50506000910152565b60008251612db9818460208701612d83565b9190910192915050565b6020815260008251806020840152612de2816040850160208701612d83565b601f01601f1916919091016040019291505056fea264697066735822122038f0a89f316f49d9b5253e5371bb3b59b7f8614441d57a0b5e8124234b99357f64736f6c63430008120033",
  "immutableReferences": {},
  "source": "// SPDX-License-Identifier: CC-BY-4.0\npragma solidity ^0.8.9;\n\n//import \"@openzeppelin/contracts/token/ERC20/ERC20.sol\";\n//import \"@openzeppelin/contracts/token/ERC20/extensions/ERC20Burnable.sol\";\n//import \"@openzeppelin/contracts/token/ERC20/utils/SafeERC20.sol\";\n//import \"@openzeppelin/contracts/access/Ownable.sol\";\nimport \"../node_modules/@openzeppelin/contracts/token/ERC20/ERC20.sol\";\nimport \"../node_modules/@openzeppelin/contracts/token/ERC20/extensions/ERC20Burnable.sol\";\nimport \"../node_modules/@openzeppelin/contracts/token/ERC20/utils/SafeERC20.sol\";\nimport \"../node_modules/@openzeppelin/contracts/access/Ownable.sol\";\n\n/**\n * @dev Interface for the W2R Vault contract.\n */\n\ninterface I5VaultW2R {\n    function distributeW2R(address receiver, uint amount) external;\n}\n\n/**\n * @dev Interface for the Matic-W2R LP token contract.\n */\n\ninterface IMaticW2RPairToken is IERC20 {\n    function checkMinterAndBurner(\n        address authorized\n    ) external view returns (bool);\n\n    function mint(address to, uint amount) external;\n\n    function burn(uint256 amount) external;\n}\n\n/**\n * @title MaticW2Rdex\n * @dev A decentralized exchange for swapping Matic and W2R tokens, providing liquidity and farming.\n */\n\ncontract MaticW2Rdex is Ownable {\n    using SafeERC20 for IERC20;\n    using SafeERC20 for IMaticW2RPairToken;\n    IERC20 public W2R;\n    IMaticW2RPairToken public lpToken;\n    uint public swapRate;\n    uint public totalMaticLiquidity;\n    uint public totalW2RLiquidity;\n    uint public rewardRatePerSecond;\n    uint public securityPercentage;\n    uint public totalMaticFees;\n    uint public totalW2RFees;\n    uint public feesPercent;\n\n    I5VaultW2R vaultW2R;\n\n    mapping(address => uint) public LPBalance;\n    mapping(address => Farming) public farming;\n\n    // Mappings and uint for Tests on Mumbai\n    mapping(address => uint) private lastDistributeTimestamp;\n    mapping(bytes32 => uint) private lastIPDistributeTimestamp;\n    uint public testAmount;\n    // End of Mappings and uint for Tests on Mumbai\n\n    struct Farming {\n        uint lastTime;\n        uint lpAmount;\n        uint rewards;\n    }\n\n    event SwapMaticForW2R(\n        address indexed user,\n        uint maticAmount,\n        uint w2rAmount,\n        uint date\n    );\n    event SwapW2RForMatic(\n        address indexed user,\n        uint w2rAmount,\n        uint maticAmount,\n        uint date\n    );\n\n    event AddLiquidity(\n        address indexed user,\n        uint maticAmount,\n        uint w2rAmount,\n        uint lpAmount\n    );\n    event RemoveLiquidity(\n        address indexed user,\n        uint lpAmount,\n        uint maticAmount,\n        uint w2rAmount\n    );\n    event Farm(address indexed user, uint lpAmount, uint date);\n    event Harvest(address indexed user, uint rewards, uint date);\n    event ExitFarm(address indexed user, uint lpAmount, uint date);\n\n    /**\n     * @dev Constructor that initializes the contract with the token addresses, initial swap rate, Vault W2R address, and LP token address.\n     * @param W2RAddress Address of the W2R token contract.\n     * @param initialSwapRate Initial swap rate for Matic to W2R conversion.\n     * @param vaultW2RAddress Address of the Vault W2R contract.\n     * @param lpTokenAddress Address of the LP token contract.\n     */\n\n    constructor(\n        address W2RAddress,\n        uint initialSwapRate,\n        address vaultW2RAddress,\n        address lpTokenAddress\n    ) {\n        require(W2RAddress != address(0), \"W2R address cannot be 0x0\");\n        require(initialSwapRate > 0, \"Swap rate must be greater than 0\");\n        require(\n            vaultW2RAddress != address(0),\n            \"Vault W2R address cannot be 0x0\"\n        );\n        W2R = IERC20(W2RAddress);\n        lpToken = IMaticW2RPairToken(lpTokenAddress);\n        swapRate = initialSwapRate;\n        rewardRatePerSecond = 10 ** 9; // w2r reward rate per second at the launch of the dex\n        vaultW2R = I5VaultW2R(vaultW2RAddress);\n        securityPercentage = 5;\n        feesPercent = 1;\n        testAmount = 1000 * 10 ** 18;\n    }\n\n    /**\n     * @dev Modifier to check the LP token amount ans allowance for the calling user.\n     * @param lpAmount Amount of LP tokens to check.\n     */\n\n    modifier checkLPAmount(uint lpAmount) {\n        require(lpAmount > 0, \"LP amount must be greater than 0\");\n\n        require(\n            lpToken.allowance(msg.sender, address(this)) >= lpAmount,\n            \"You need to approve LP token first\"\n        );\n        require(\n            LPBalance[msg.sender] >= lpAmount &&\n                lpToken.balanceOf(msg.sender) >= lpAmount,\n            \"You don't have any LP tokens to remove\"\n        );\n        require(lpAmount <= LPBalance[msg.sender], \"Not enough LP tokens\");\n\n        _;\n    }\n\n    /**\n     * @dev Distribute 2000 W2R tokens to the caller as a tester once per day, only on Mumbai Testnet.\n     * Owner can set testAmount to 0 to disable this function.\n     * @param ipHash The keccak256 hash of the caller's IP address.\n     */\n    function distributeTestW2R(bytes32 ipHash) external {\n        require(testAmount > 0, \"Test amount must be greater than 0\");\n        // Make sure this function is only callable on Mumbai Testnet\n        uint chainId;\n        assembly {\n            chainId := chainid()\n        }\n        require(\n            chainId == 80001,\n            \"This function can only be used on the Mumbai Testnet\"\n        );\n        uint currentTime = block.timestamp;\n        // Check IP limit\n        require(\n            currentTime - lastIPDistributeTimestamp[ipHash] >= 1 days,\n            \"You can only call this function once a day per IP\"\n        );\n        lastIPDistributeTimestamp[ipHash] = currentTime;\n        // Check address limit\n        require(\n            currentTime - lastDistributeTimestamp[msg.sender] >= 1 days,\n            \"You can only call this function once a day\"\n        );\n        lastDistributeTimestamp[msg.sender] = currentTime;\n        vaultW2R.distributeW2R(msg.sender, testAmount);\n    }\n\n    /**\n     * @dev Set the amount of W2R tokens to be distributed during testing.\n     * Can only be called by the contract owner.\n     * @param _amount The new test amount to be distributed (in W2R tokens).\n     * Must be greater or equal to 0 and less than or equal to 10,000 W2R.\n     */\n    function setTestAmount(uint _amount) external onlyOwner {\n        require(_amount >= 0, \"Amount must be greater or equal to 0\");\n        require(\n            _amount <= 10000 * 10 ** 18,\n            \"Amount must be less than 10000 W2R\"\n        );\n        testAmount = _amount;\n    }\n\n    /**\n     * @dev Get the contract balances for W2R, MATIC, and LP tokens.\n     * @return A tuple containing the W2R, MATIC, and LP token balances of the contract.\n     */\n\n    function getContractBalances() external view returns (uint, uint, uint) {\n        // W2R, MATIC, LP\n        return (\n            W2R.balanceOf(address(this)),\n            address(this).balance,\n            lpToken.balanceOf(address(this))\n        );\n    }\n\n    /**\n     * @dev Get the user balances for W2R and LP tokens.\n     * @return A tuple containing the W2R and LP token balances of the caller.\n     */\n\n    function getUserBalances() external view returns (uint, uint) {\n        return (W2R.balanceOf(msg.sender), lpToken.balanceOf(msg.sender));\n    }\n\n    /**\n     * @dev Check if the given address is authorized as a minter and burner in the LP token contract.\n     * @param _toCheck The address to check for authorization in the LP token contract.\n     * @return A boolean value indicating whether the address is authorized as a minter and burner.\n     */\n\n    function checkIfAuthorizedInLPcontract(\n        address _toCheck\n    ) public view returns (bool) {\n        return lpToken.checkMinterAndBurner(_toCheck);\n    }\n\n    /**\n     * @dev Swap Matic for W2R tokens. Requires sending Matic along with the transaction.\n     * Emits a SwapMaticForW2R event.\n     */\n\n    function swapMaticForW2R() external payable {\n        require(msg.value > 0, \"must be greater 0\");\n        require((msg.value * feesPercent * 100) >= 10000);\n        uint fees = (msg.value * feesPercent * 100) / 10000;\n        require(msg.sender.balance > msg.value + fees, \"not enough Matic\");\n        uint w2rAmount = (msg.value - fees) * swapRate;\n        require(w2rAmount > 0, \"W2R must be greater 0\");\n        require((totalW2RLiquidity * securityPercentage * 100) >= 10000);\n        require(\n            (totalW2RLiquidity * securityPercentage * 100) / 10000 >= w2rAmount,\n            \"You can't swap more than 5% of the total W2R supply\"\n        );\n        totalMaticFees += fees;\n        totalMaticLiquidity += (msg.value - fees);\n        totalW2RLiquidity -= w2rAmount;\n        // transfer w2r to user\n        W2R.safeTransfer(msg.sender, w2rAmount);\n        emit SwapMaticForW2R(msg.sender, msg.value, w2rAmount, block.timestamp);\n    }\n\n    /**\n     * @dev Swap W2R tokens for Matic tokens.\n     * @param w2rAmount Amount of W2R tokens to swap for Matic tokens.\n     * Emits a SwapW2RForMatic event.\n     */\n    function swapW2RForMatic(uint w2rAmount) external {\n        bool guard;\n        require(!guard, \"ReentrancyGuard: reentrant call\");\n        require(msg.sender.balance > 0, \"for MATIC fees\");\n        require(w2rAmount > 0, \"W2R amount must be greater than 0\");\n        require(\n            W2R.allowance(msg.sender, address(this)) >= w2rAmount,\n            \"You need to approve W2R first\"\n        );\n        require(W2R.balanceOf(msg.sender) >= w2rAmount, \"Not enough W2R\");\n        uint maticAmount = w2rAmount / swapRate;\n        require((maticAmount * feesPercent * 100) >= 10000);\n        uint fee = (maticAmount * feesPercent * 100) / 10000;\n        require(\n            (totalMaticLiquidity * securityPercentage * 100) / 10000 >=\n                maticAmount,\n            \"You can't swap more than 5% of the contract's MATIC liquidity\"\n        );\n        totalMaticFees += fee;\n        totalMaticLiquidity -= (maticAmount - fee);\n        totalW2RLiquidity += w2rAmount;\n        W2R.safeTransferFrom(msg.sender, address(this), w2rAmount);\n        guard = true;\n        (bool success, ) = payable(msg.sender).call{value: maticAmount - fee}(\n            \"\"\n        );\n        guard = false;\n        require(success, \"Transfer failed.\");\n        emit SwapW2RForMatic(\n            msg.sender,\n            w2rAmount,\n            maticAmount,\n            block.timestamp\n        );\n    }\n\n    /**\n     * @dev Add liquidity to the contract.\n     * @param w2rAmount Amount of W2R tokens to add as liquidity.\n     * Requires sending Matic along with the transaction.\n     * Emits an AddLiquidity event.\n     */\n\n    function addLiquidity(uint w2rAmount) external payable {\n        require(w2rAmount > 0, \"W2R amount must be greater than 0\");\n        require(msg.value > 0, \"MATIC amount must be greater than 0\");\n        require(\n            W2R.allowance(msg.sender, address(this)) >= w2rAmount,\n            \"You need to approve W2R first\"\n        );\n        uint maticAmount = msg.value;\n        require((w2rAmount * 300) >= 10000);\n        // limit tolerance to 3% for MATIC-W2R ratio of 10\n        require(\n            maticAmount * swapRate >= w2rAmount - ((w2rAmount * 300) / 10000) &&\n                maticAmount * swapRate <=\n                w2rAmount + ((w2rAmount * 300) / 10000),\n            \"MATIC-W2R ratio is not within the allowed slippage\"\n        );\n        uint lpAmount;\n        if (totalMaticLiquidity == 0 && totalW2RLiquidity == 0) {\n            // the team has to bring the first (huge) liquidity\n            require(msg.sender == owner(), \"Only owner can add liquidity\");\n            lpAmount = maticAmount;\n            totalMaticLiquidity = maticAmount;\n            totalW2RLiquidity = w2rAmount;\n        } else {\n            // constant invariant formula\n            uint k = totalMaticLiquidity * totalW2RLiquidity;\n            totalMaticLiquidity += maticAmount;\n            totalW2RLiquidity += w2rAmount;\n            uint newK = totalMaticLiquidity * totalW2RLiquidity;\n            lpAmount = (lpToken.totalSupply() * (newK - k)) / k;\n            // prevent a user to have too much power on the contract\n            require((lpToken.totalSupply() * securityPercentage) >= 100);\n            require(\n                w2rAmount <=\n                    (totalW2RLiquidity * securityPercentage * 100) / 10000 ||\n                    msg.sender == owner(),\n                \"You can't add more than the security % of the total LP supply\"\n            );\n            totalMaticLiquidity += maticAmount;\n            totalW2RLiquidity += w2rAmount;\n        }\n        LPBalance[msg.sender] += lpAmount;\n        lpToken.mint(address(this), lpAmount);\n        lpToken.safeTransfer(msg.sender, lpAmount);\n        W2R.safeTransferFrom(msg.sender, address(this), w2rAmount);\n        emit AddLiquidity(msg.sender, maticAmount, w2rAmount, lpAmount);\n    }\n\n    /**\n     * @dev Remove liquidity from the contract.\n     * @param lpAmount Amount of LP tokens to remove liquidity.\n     * Emits a RemoveLiquidity event.\n     */\n\n    function removeLiquidity(uint lpAmount) external checkLPAmount(lpAmount) {\n        bool guard;\n        require(!guard, \"ReentrancyGuard: reentrant call\");\n        require(lpToken.totalSupply() > 0, \"No liquidity to remove\");\n        require(\n            totalMaticLiquidity > 0 && totalW2RLiquidity > 0,\n            \"No liquidity to remove\"\n        );\n        require(LPBalance[msg.sender] >= lpAmount, \"Not enough LP tokens\");\n        // Calculate the proportion of LP tokens the user is removing\n        uint proportion = (lpAmount * 1e18) / lpToken.totalSupply();\n        // Calculate the amount of MATIC and W2R to refund\n        uint maticAmount = (totalMaticLiquidity * proportion) / 1e18;\n        uint w2rAmount = (totalW2RLiquidity * proportion) / 1e18;\n        // update data\n        LPBalance[msg.sender] -= lpAmount;\n        totalMaticLiquidity -= maticAmount;\n        totalW2RLiquidity -= w2rAmount;\n        W2R.safeTransfer(msg.sender, w2rAmount);\n        lpToken.transferFrom(msg.sender, address(this), lpAmount);\n        lpToken.burn(lpAmount);\n        guard = true;\n        (bool success, ) = payable(msg.sender).call{value: maticAmount}(\"\");\n        guard = false;\n        require(success, \"Failed to send MATIC\");\n        emit RemoveLiquidity(msg.sender, maticAmount, w2rAmount, lpAmount);\n    }\n\n    /**\n     * @dev Farm LP tokens to earn W2R rewards.\n     * @param lpAmount Amount of LP tokens to farm.\n     * Emits a Farm event.\n     */\n\n    function farm(uint lpAmount) external checkLPAmount(lpAmount) {\n        // check if user has already farmed\n        LPBalance[msg.sender] -= lpAmount;\n        // update farming struct\n        Farming storage user = farming[msg.sender];\n        if (user.lpAmount > 0) {\n            user.rewards += calculateReward();\n        }\n        user.lpAmount += lpAmount;\n        user.lastTime = block.timestamp;\n        lpToken.safeTransferFrom(msg.sender, address(this), lpAmount);\n        emit Farm(msg.sender, lpAmount, block.timestamp);\n    }\n\n    /**\n     * @dev Exit farm and claim LP tokens back.\n     * Emits an ExitFarm event.\n     */\n\n    function exitFarm() external {\n        require(msg.sender != address(0), \"Invalid address\");\n        uint lpBalance = farming[msg.sender].lpAmount;\n        require(lpBalance > 0, \"No LP tokens to claim rewards\");\n        harvest();\n        Farming storage user = farming[msg.sender];\n        user.lpAmount -= lpBalance;\n        LPBalance[msg.sender] += lpBalance;\n        lpToken.safeTransfer(msg.sender, lpBalance);\n        emit ExitFarm(msg.sender, lpBalance, block.timestamp);\n    }\n\n    /**\n     * @dev View the pending W2R rewards for the user.\n     * @return reward The pending W2R rewards for the user.\n     */\n\n    function viewRewards() external view returns (uint) {\n        require(msg.sender != address(0), \"Invalid address\");\n        uint lpBalance = farming[msg.sender].lpAmount;\n        uint lastTime = farming[msg.sender].lastTime;\n        uint timeElapsed = block.timestamp - lastTime;\n        uint reward = ((lpBalance * timeElapsed * rewardRatePerSecond) /\n            10 ** 18) + farming[msg.sender].rewards;\n        return reward;\n    }\n\n    /**\n     * @notice Calculates the reward for a user based on their LP balance, time elapsed, and the global reward rate.\n     * @dev This function is private and should only be called within the contract.\n     * @return The calculated reward amount for the user.\n     */\n\n    function calculateReward() private returns (uint) {\n        uint lpBalance = farming[msg.sender].lpAmount;\n        uint timeElapsed = block.timestamp - farming[msg.sender].lastTime;\n        uint basis = (lpBalance * timeElapsed * rewardRatePerSecond) / 10 ** 18;\n        require((basis * feesPercent * 100) >= 10000, \"Fees are too high\");\n        uint fees = (basis * feesPercent * 100) / 10000;\n        uint reward = basis - fees;\n        totalW2RFees += fees;\n        return reward;\n    }\n\n    /**\n     * @dev Claim W2R rewards from farming.\n     * Emits a Harvest event.\n     */\n\n    function harvest() public {\n        require(msg.sender != address(0), \"Invalid address\");\n        uint lpBalance = farming[msg.sender].lpAmount;\n        require(lpBalance > 0, \"No LP tokens to claim rewards\");\n        Farming storage user = farming[msg.sender];\n        uint reward = user.rewards += calculateReward();\n        user.lastTime = block.timestamp;\n        user.rewards = 0;\n        vaultW2R.distributeW2R(msg.sender, reward);\n        emit Harvest(msg.sender, user.rewards, block.timestamp);\n    }\n\n    /**\n     * @dev Update the Matic to W2R swap rate.\n     * @param newSwapRate New swap rate for Matic to W2R conversion.\n     */\n\n    function setSwapRate(uint newSwapRate) external onlyOwner {\n        require(newSwapRate > 0, \"Swap rate must be greater than 0\");\n        swapRate = newSwapRate;\n    }\n\n    /**\n     * @dev Set the reward rate for farming.\n     * @param _newRewardRate New reward rate per second.\n     */\n\n    function setRewardRate(uint _newRewardRate) external onlyOwner {\n        require(_newRewardRate > 0, \"Reward rate must be greater than 0\");\n        rewardRatePerSecond = _newRewardRate;\n    }\n\n    /**\n     * @dev Set the security percentage for the contract.\n     * @param _newSecurityPercentage New security percentage (must be greater than 0 and less than or equal to 100).\n     */\n\n    function setSecurityPercentage(\n        uint _newSecurityPercentage\n    ) external onlyOwner {\n        require(\n            _newSecurityPercentage > 0 && _newSecurityPercentage <= 100,\n            \"Security percentage must be greater than 0 and less than or equal to 100\"\n        );\n        securityPercentage = _newSecurityPercentage;\n    }\n\n    /**\n     * @dev Withdraw accumulated fees (W2R and Matic) for the contract owner.\n     */\n    function withdrawFees() external onlyOwner {\n        require(msg.sender != address(0), \"Invalid address\");\n        bool guard; // even if it's the owner, we don't want reentrancy !\n        require(!guard, \"ReentrancyGuard: reentrant call\");\n        if (totalW2RFees > 0) {\n            uint w2rToSend = totalW2RFees;\n            totalW2RFees = 0;\n            vaultW2R.distributeW2R(msg.sender, w2rToSend);\n        }\n        if (totalMaticFees > 0) {\n            uint amount = totalMaticFees;\n            totalMaticFees = 0;\n            (bool success, ) = payable(msg.sender).call{value: amount}(\"\");\n            guard = true;\n            require(success, \"Failed to withdraw fees\");\n        }\n    }\n\n    /**\n     * @dev Fallback function to receive Matic payments.\n     */\n\n    receive() external payable {}\n}\n",
  "sourcePath": "/Users/harbinger/Dropbox/Dossier familial/Formation Blockchain/Alyra/Projet Certification/Projet Alyra 2Wheels2Rent/truffle/contracts/MaticW2Rdex.sol",
  "compiler": {
    "name": "solc",
    "version": "0.8.18+commit.87f61d96.Emscripten.clang"
  },
  "schemaVersion": "3.4.12",
  "updatedAt": "2023-04-23T17:19:46.628Z",
  "networkType": "ethereum",
  "devdoc": {
    "details": "A decentralized exchange for swapping Matic and W2R tokens, providing liquidity and farming.",
    "kind": "dev",
    "methods": {
      "addLiquidity(uint256)": {
        "details": "Add liquidity to the contract.",
        "params": {
          "w2rAmount": "Amount of W2R tokens to add as liquidity. Requires sending Matic along with the transaction. Emits an AddLiquidity event."
        }
      },
      "checkIfAuthorizedInLPcontract(address)": {
        "details": "Check if the given address is authorized as a minter and burner in the LP token contract.",
        "params": {
          "_toCheck": "The address to check for authorization in the LP token contract."
        },
        "returns": {
          "_0": "A boolean value indicating whether the address is authorized as a minter and burner."
        }
      },
      "constructor": {
        "details": "Constructor that initializes the contract with the token addresses, initial swap rate, Vault W2R address, and LP token address.",
        "params": {
          "W2RAddress": "Address of the W2R token contract.",
          "initialSwapRate": "Initial swap rate for Matic to W2R conversion.",
          "lpTokenAddress": "Address of the LP token contract.",
          "vaultW2RAddress": "Address of the Vault W2R contract."
        }
      },
      "distributeTestW2R(bytes32)": {
        "details": "Distribute 2000 W2R tokens to the caller as a tester once per day, only on Mumbai Testnet. Owner can set testAmount to 0 to disable this function.",
        "params": {
          "ipHash": "The keccak256 hash of the caller's IP address."
        }
      },
      "exitFarm()": {
        "details": "Exit farm and claim LP tokens back. Emits an ExitFarm event."
      },
      "farm(uint256)": {
        "details": "Farm LP tokens to earn W2R rewards.",
        "params": {
          "lpAmount": "Amount of LP tokens to farm. Emits a Farm event."
        }
      },
      "getContractBalances()": {
        "details": "Get the contract balances for W2R, MATIC, and LP tokens.",
        "returns": {
          "_0": "A tuple containing the W2R, MATIC, and LP token balances of the contract."
        }
      },
      "getUserBalances()": {
        "details": "Get the user balances for W2R and LP tokens.",
        "returns": {
          "_0": "A tuple containing the W2R and LP token balances of the caller."
        }
      },
      "harvest()": {
        "details": "Claim W2R rewards from farming. Emits a Harvest event."
      },
      "owner()": {
        "details": "Returns the address of the current owner."
      },
      "removeLiquidity(uint256)": {
        "details": "Remove liquidity from the contract.",
        "params": {
          "lpAmount": "Amount of LP tokens to remove liquidity. Emits a RemoveLiquidity event."
        }
      },
      "renounceOwnership()": {
        "details": "Leaves the contract without owner. It will not be possible to call `onlyOwner` functions anymore. Can only be called by the current owner. NOTE: Renouncing ownership will leave the contract without an owner, thereby removing any functionality that is only available to the owner."
      },
      "setRewardRate(uint256)": {
        "details": "Set the reward rate for farming.",
        "params": {
          "_newRewardRate": "New reward rate per second."
        }
      },
      "setSecurityPercentage(uint256)": {
        "details": "Set the security percentage for the contract.",
        "params": {
          "_newSecurityPercentage": "New security percentage (must be greater than 0 and less than or equal to 100)."
        }
      },
      "setSwapRate(uint256)": {
        "details": "Update the Matic to W2R swap rate.",
        "params": {
          "newSwapRate": "New swap rate for Matic to W2R conversion."
        }
      },
      "setTestAmount(uint256)": {
        "details": "Set the amount of W2R tokens to be distributed during testing. Can only be called by the contract owner.",
        "params": {
          "_amount": "The new test amount to be distributed (in W2R tokens). Must be greater or equal to 0 and less than or equal to 10,000 W2R."
        }
      },
      "swapMaticForW2R()": {
        "details": "Swap Matic for W2R tokens. Requires sending Matic along with the transaction. Emits a SwapMaticForW2R event."
      },
      "swapW2RForMatic(uint256)": {
        "details": "Swap W2R tokens for Matic tokens.",
        "params": {
          "w2rAmount": "Amount of W2R tokens to swap for Matic tokens. Emits a SwapW2RForMatic event."
        }
      },
      "transferOwnership(address)": {
        "details": "Transfers ownership of the contract to a new account (`newOwner`). Can only be called by the current owner."
      },
      "viewRewards()": {
        "details": "View the pending W2R rewards for the user.",
        "returns": {
          "_0": "reward The pending W2R rewards for the user."
        }
      },
      "withdrawFees()": {
        "details": "Withdraw accumulated fees (W2R and Matic) for the contract owner."
      }
    },
    "title": "MaticW2Rdex",
    "version": 1
  },
  "userdoc": {
    "kind": "user",
    "methods": {},
    "version": 1
  }
}