{
  "contractName": "MaticW2Rdex",
  "abi": [
    {
      "inputs": [
        {
          "internalType": "address",
          "name": "W2RAddress",
          "type": "address"
        },
        {
          "internalType": "uint256",
          "name": "initialSwapRate",
          "type": "uint256"
        },
        {
          "internalType": "address",
          "name": "vaultW2RAddress",
          "type": "address"
        },
        {
          "internalType": "address",
          "name": "lpTokenAddress",
          "type": "address"
        }
      ],
      "stateMutability": "nonpayable",
      "type": "constructor"
    },
    {
      "anonymous": false,
      "inputs": [
        {
          "indexed": true,
          "internalType": "address",
          "name": "user",
          "type": "address"
        },
        {
          "indexed": false,
          "internalType": "uint256",
          "name": "maticAmount",
          "type": "uint256"
        },
        {
          "indexed": false,
          "internalType": "uint256",
          "name": "w2rAmount",
          "type": "uint256"
        },
        {
          "indexed": false,
          "internalType": "uint256",
          "name": "lpAmount",
          "type": "uint256"
        }
      ],
      "name": "AddLiquidity",
      "type": "event"
    },
    {
      "anonymous": false,
      "inputs": [
        {
          "indexed": true,
          "internalType": "address",
          "name": "user",
          "type": "address"
        },
        {
          "indexed": false,
          "internalType": "uint256",
          "name": "lpAmount",
          "type": "uint256"
        },
        {
          "indexed": false,
          "internalType": "uint256",
          "name": "date",
          "type": "uint256"
        }
      ],
      "name": "ExitFarm",
      "type": "event"
    },
    {
      "anonymous": false,
      "inputs": [
        {
          "indexed": true,
          "internalType": "address",
          "name": "user",
          "type": "address"
        },
        {
          "indexed": false,
          "internalType": "uint256",
          "name": "lpAmount",
          "type": "uint256"
        },
        {
          "indexed": false,
          "internalType": "uint256",
          "name": "date",
          "type": "uint256"
        }
      ],
      "name": "Farm",
      "type": "event"
    },
    {
      "anonymous": false,
      "inputs": [
        {
          "indexed": true,
          "internalType": "address",
          "name": "user",
          "type": "address"
        },
        {
          "indexed": false,
          "internalType": "uint256",
          "name": "rewards",
          "type": "uint256"
        },
        {
          "indexed": false,
          "internalType": "uint256",
          "name": "date",
          "type": "uint256"
        }
      ],
      "name": "Harvest",
      "type": "event"
    },
    {
      "anonymous": false,
      "inputs": [
        {
          "indexed": true,
          "internalType": "address",
          "name": "previousOwner",
          "type": "address"
        },
        {
          "indexed": true,
          "internalType": "address",
          "name": "newOwner",
          "type": "address"
        }
      ],
      "name": "OwnershipTransferred",
      "type": "event"
    },
    {
      "anonymous": false,
      "inputs": [
        {
          "indexed": true,
          "internalType": "address",
          "name": "user",
          "type": "address"
        },
        {
          "indexed": false,
          "internalType": "uint256",
          "name": "lpAmount",
          "type": "uint256"
        },
        {
          "indexed": false,
          "internalType": "uint256",
          "name": "maticAmount",
          "type": "uint256"
        },
        {
          "indexed": false,
          "internalType": "uint256",
          "name": "w2rAmount",
          "type": "uint256"
        }
      ],
      "name": "RemoveLiquidity",
      "type": "event"
    },
    {
      "anonymous": false,
      "inputs": [
        {
          "indexed": true,
          "internalType": "address",
          "name": "user",
          "type": "address"
        },
        {
          "indexed": false,
          "internalType": "uint256",
          "name": "maticAmount",
          "type": "uint256"
        },
        {
          "indexed": false,
          "internalType": "uint256",
          "name": "w2rAmount",
          "type": "uint256"
        },
        {
          "indexed": false,
          "internalType": "uint256",
          "name": "date",
          "type": "uint256"
        }
      ],
      "name": "SwapMaticForW2R",
      "type": "event"
    },
    {
      "anonymous": false,
      "inputs": [
        {
          "indexed": true,
          "internalType": "address",
          "name": "user",
          "type": "address"
        },
        {
          "indexed": false,
          "internalType": "uint256",
          "name": "w2rAmount",
          "type": "uint256"
        },
        {
          "indexed": false,
          "internalType": "uint256",
          "name": "maticAmount",
          "type": "uint256"
        },
        {
          "indexed": false,
          "internalType": "uint256",
          "name": "date",
          "type": "uint256"
        }
      ],
      "name": "SwapW2RForMatic",
      "type": "event"
    },
    {
      "inputs": [
        {
          "internalType": "address",
          "name": "",
          "type": "address"
        }
      ],
      "name": "LPBalance",
      "outputs": [
        {
          "internalType": "uint256",
          "name": "",
          "type": "uint256"
        }
      ],
      "stateMutability": "view",
      "type": "function",
      "constant": true
    },
    {
      "inputs": [],
      "name": "W2R",
      "outputs": [
        {
          "internalType": "contract IERC20",
          "name": "",
          "type": "address"
        }
      ],
      "stateMutability": "view",
      "type": "function",
      "constant": true
    },
    {
      "inputs": [
        {
          "internalType": "address",
          "name": "",
          "type": "address"
        }
      ],
      "name": "farming",
      "outputs": [
        {
          "internalType": "uint256",
          "name": "lastTime",
          "type": "uint256"
        },
        {
          "internalType": "uint256",
          "name": "lpAmount",
          "type": "uint256"
        },
        {
          "internalType": "uint256",
          "name": "rewards",
          "type": "uint256"
        }
      ],
      "stateMutability": "view",
      "type": "function",
      "constant": true
    },
    {
      "inputs": [],
      "name": "feesPercent",
      "outputs": [
        {
          "internalType": "uint256",
          "name": "",
          "type": "uint256"
        }
      ],
      "stateMutability": "view",
      "type": "function",
      "constant": true
    },
    {
      "inputs": [],
      "name": "lpToken",
      "outputs": [
        {
          "internalType": "contract IMaticW2RPairToken",
          "name": "",
          "type": "address"
        }
      ],
      "stateMutability": "view",
      "type": "function",
      "constant": true
    },
    {
      "inputs": [],
      "name": "owner",
      "outputs": [
        {
          "internalType": "address",
          "name": "",
          "type": "address"
        }
      ],
      "stateMutability": "view",
      "type": "function",
      "constant": true
    },
    {
      "inputs": [],
      "name": "renounceOwnership",
      "outputs": [],
      "stateMutability": "nonpayable",
      "type": "function"
    },
    {
      "inputs": [],
      "name": "rewardRatePerSecond",
      "outputs": [
        {
          "internalType": "uint256",
          "name": "",
          "type": "uint256"
        }
      ],
      "stateMutability": "view",
      "type": "function",
      "constant": true
    },
    {
      "inputs": [],
      "name": "securityPercentage",
      "outputs": [
        {
          "internalType": "uint256",
          "name": "",
          "type": "uint256"
        }
      ],
      "stateMutability": "view",
      "type": "function",
      "constant": true
    },
    {
      "inputs": [],
      "name": "swapRate",
      "outputs": [
        {
          "internalType": "uint256",
          "name": "",
          "type": "uint256"
        }
      ],
      "stateMutability": "view",
      "type": "function",
      "constant": true
    },
    {
      "inputs": [],
      "name": "totalMaticFees",
      "outputs": [
        {
          "internalType": "uint256",
          "name": "",
          "type": "uint256"
        }
      ],
      "stateMutability": "view",
      "type": "function",
      "constant": true
    },
    {
      "inputs": [],
      "name": "totalMaticLiquidity",
      "outputs": [
        {
          "internalType": "uint256",
          "name": "",
          "type": "uint256"
        }
      ],
      "stateMutability": "view",
      "type": "function",
      "constant": true
    },
    {
      "inputs": [],
      "name": "totalW2RFees",
      "outputs": [
        {
          "internalType": "uint256",
          "name": "",
          "type": "uint256"
        }
      ],
      "stateMutability": "view",
      "type": "function",
      "constant": true
    },
    {
      "inputs": [],
      "name": "totalW2RLiquidity",
      "outputs": [
        {
          "internalType": "uint256",
          "name": "",
          "type": "uint256"
        }
      ],
      "stateMutability": "view",
      "type": "function",
      "constant": true
    },
    {
      "inputs": [
        {
          "internalType": "address",
          "name": "newOwner",
          "type": "address"
        }
      ],
      "name": "transferOwnership",
      "outputs": [],
      "stateMutability": "nonpayable",
      "type": "function"
    },
    {
      "stateMutability": "payable",
      "type": "receive",
      "payable": true
    },
    {
      "inputs": [],
      "name": "getContractBalances",
      "outputs": [
        {
          "internalType": "uint256",
          "name": "",
          "type": "uint256"
        },
        {
          "internalType": "uint256",
          "name": "",
          "type": "uint256"
        },
        {
          "internalType": "uint256",
          "name": "",
          "type": "uint256"
        }
      ],
      "stateMutability": "view",
      "type": "function",
      "constant": true
    },
    {
      "inputs": [],
      "name": "getUserBalances",
      "outputs": [
        {
          "internalType": "uint256",
          "name": "",
          "type": "uint256"
        },
        {
          "internalType": "uint256",
          "name": "",
          "type": "uint256"
        }
      ],
      "stateMutability": "view",
      "type": "function",
      "constant": true
    },
    {
      "inputs": [
        {
          "internalType": "address",
          "name": "_toCheck",
          "type": "address"
        }
      ],
      "name": "checkIfAuthorizedInLPcontract",
      "outputs": [
        {
          "internalType": "bool",
          "name": "",
          "type": "bool"
        }
      ],
      "stateMutability": "view",
      "type": "function",
      "constant": true
    },
    {
      "inputs": [],
      "name": "swapMaticForW2R",
      "outputs": [],
      "stateMutability": "payable",
      "type": "function",
      "payable": true
    },
    {
      "inputs": [
        {
          "internalType": "uint256",
          "name": "w2rAmount",
          "type": "uint256"
        }
      ],
      "name": "swapW2RForMatic",
      "outputs": [],
      "stateMutability": "nonpayable",
      "type": "function"
    },
    {
      "inputs": [
        {
          "internalType": "uint256",
          "name": "w2rAmount",
          "type": "uint256"
        }
      ],
      "name": "addLiquidity",
      "outputs": [],
      "stateMutability": "payable",
      "type": "function",
      "payable": true
    },
    {
      "inputs": [
        {
          "internalType": "uint256",
          "name": "lpAmount",
          "type": "uint256"
        }
      ],
      "name": "removeLiquidity",
      "outputs": [],
      "stateMutability": "nonpayable",
      "type": "function"
    },
    {
      "inputs": [
        {
          "internalType": "uint256",
          "name": "lpAmount",
          "type": "uint256"
        }
      ],
      "name": "farm",
      "outputs": [],
      "stateMutability": "nonpayable",
      "type": "function"
    },
    {
      "inputs": [],
      "name": "exitFarm",
      "outputs": [],
      "stateMutability": "nonpayable",
      "type": "function"
    },
    {
      "inputs": [],
      "name": "viewRewards",
      "outputs": [
        {
          "internalType": "uint256",
          "name": "",
          "type": "uint256"
        }
      ],
      "stateMutability": "view",
      "type": "function",
      "constant": true
    },
    {
      "inputs": [],
      "name": "harvest",
      "outputs": [],
      "stateMutability": "nonpayable",
      "type": "function"
    },
    {
      "inputs": [
        {
          "internalType": "uint256",
          "name": "newSwapRate",
          "type": "uint256"
        }
      ],
      "name": "setSwapRate",
      "outputs": [],
      "stateMutability": "nonpayable",
      "type": "function"
    },
    {
      "inputs": [
        {
          "internalType": "uint256",
          "name": "_newRewardRate",
          "type": "uint256"
        }
      ],
      "name": "setRewardRate",
      "outputs": [],
      "stateMutability": "nonpayable",
      "type": "function"
    },
    {
      "inputs": [
        {
          "internalType": "uint256",
          "name": "_newSecurityPercentage",
          "type": "uint256"
        }
      ],
      "name": "setSecurityPercentage",
      "outputs": [],
      "stateMutability": "nonpayable",
      "type": "function"
    },
    {
      "inputs": [],
      "name": "withdrawFees",
      "outputs": [],
      "stateMutability": "nonpayable",
      "type": "function"
    }
  ],
  "bytecode": "0x60806040523480156200001157600080fd5b5060405162002d4e38038062002d4e83398101604081905262000034916200020b565b6200003f336200019e565b6001600160a01b0384166200009b5760405162461bcd60e51b815260206004820152601960248201527f57325220616464726573732063616e6e6f74206265203078300000000000000060448201526064015b60405180910390fd5b60008311620000ed5760405162461bcd60e51b815260206004820181905260248201527f537761702072617465206d7573742062652067726561746572207468616e2030604482015260640162000092565b6001600160a01b038216620001455760405162461bcd60e51b815260206004820152601f60248201527f5661756c742057325220616464726573732063616e6e6f742062652030783000604482015260640162000092565b600180546001600160a01b039586166001600160a01b03199182161782556002805493871693821693909317909255600393909355633b9aca00600655600b8054929094169116179091556005600755600a556200025f565b600080546001600160a01b038381166001600160a01b0319831681178455604051919092169283917f8be0079c531659141344cd1fd0a4f28419497f9722a3daafe3b4186f6b6457e09190a35050565b80516001600160a01b03811681146200020657600080fd5b919050565b600080600080608085870312156200022257600080fd5b6200022d85620001ee565b9350602085015192506200024460408601620001ee565b91506200025460608601620001ee565b905092959194509250565b612adf806200026f6000396000f3fe6080604052600436106101d15760003560e01c8063715018a6116100f7578063cddaf35811610095578063f3c070f711610064578063f3c070f71461050e578063f4cde46914610524578063f9ef2c6b14610544578063ffd2a7d31461055a57600080fd5b8063cddaf358146104ad578063d1ef1beb146104c2578063dfbfbab3146104d8578063f2fde38b146104ee57600080fd5b80638f036072116100d15780638f036072146104235780639c8f9f23146104435780639e447fc614610463578063bd6edba51461048357600080fd5b8063715018a6146103e85780637f2e4f2a146103fd5780638da5cb5b1461040557600080fd5b80634641257d1161016f5780635a18f4bc1161013e5780635a18f4bc1461036e5780635d773b2c146103845780635fcbd2851461039a578063698518e5146103d257600080fd5b80634641257d14610311578063476343ee1461032657806351c6590a1461033b578063538a85a11461034e57600080fd5b806317795383116101ab578063177953831461024857806328d6dbcd1461027857806330cb7bfb146102cf5780633dfa83b3146102fc57600080fd5b806302b74970146101dd5780630b544a8c146101ff57806316578dc61461022857600080fd5b366101d857005b600080fd5b3480156101e957600080fd5b506101fd6101f836600461281d565b61056f565b005b34801561020b57600080fd5b5061021560095481565b6040519081526020015b60405180910390f35b34801561023457600080fd5b506101fd61024336600461281d565b610995565b34801561025457600080fd5b50610268610263366004612836565b610a36565b604051901515815260200161021f565b34801561028457600080fd5b506102b4610293366004612836565b600d6020526000908152604090208054600182015460029092015490919083565b6040805193845260208401929092529082015260600161021f565b3480156102db57600080fd5b506102156102ea366004612836565b600c6020526000908152604090205481565b34801561030857600080fd5b50610215610aab565b34801561031d57600080fd5b506101fd610b42565b34801561033257600080fd5b506101fd610ca4565b6101fd61034936600461281d565b610df6565b34801561035a57600080fd5b506101fd61036936600461281d565b611402565b34801561037a57600080fd5b5061021560045481565b34801561039057600080fd5b5061021560065481565b3480156103a657600080fd5b506002546103ba906001600160a01b031681565b6040516001600160a01b03909116815260200161021f565b3480156103de57600080fd5b5061021560035481565b3480156103f457600080fd5b506101fd611680565b6101fd611694565b34801561041157600080fd5b506000546001600160a01b03166103ba565b34801561042f57600080fd5b506001546103ba906001600160a01b031681565b34801561044f57600080fd5b506101fd61045e36600461281d565b611947565b34801561046f57600080fd5b506101fd61047e36600461281d565b611f3d565b34801561048f57600080fd5b50610498611fa5565b6040805192835260208301919091520161021f565b3480156104b957600080fd5b506101fd61208a565b3480156104ce57600080fd5b5061021560055481565b3480156104e457600080fd5b50610215600a5481565b3480156104fa57600080fd5b506101fd610509366004612836565b6121aa565b34801561051a57600080fd5b5061021560075481565b34801561053057600080fd5b506101fd61053f36600461281d565b612220565b34801561055057600080fd5b5061021560085481565b34801561056657600080fd5b506102b461227d565b600061057f565b60405180910390fd5b33316105be5760405162461bcd60e51b815260206004820152600e60248201526d666f72204d41544943206665657360901b6044820152606401610576565b600082116105de5760405162461bcd60e51b815260040161057690612866565b600154604051636eb1769f60e11b815233600482015230602482015283916001600160a01b03169063dd62ed3e90604401602060405180830381865afa15801561062c573d6000803e3d6000fd5b505050506040513d601f19601f8201168201806040525081019061065091906128a7565b101561069e5760405162461bcd60e51b815260206004820152601d60248201527f596f75206e65656420746f20617070726f7665205732522066697273740000006044820152606401610576565b6001546040516370a0823160e01b815233600482015283916001600160a01b0316906370a0823190602401602060405180830381865afa1580156106e6573d6000803e3d6000fd5b505050506040513d601f19601f8201168201806040525081019061070a91906128a7565b10156107495760405162461bcd60e51b815260206004820152600e60248201526d2737ba1032b737bab3b4102b992960911b6044820152606401610576565b60006003548361075991906128d6565b9050612710600a548261076c91906128f8565b6107779060646128f8565b101561078257600080fd5b6000612710600a548361079591906128f8565b6107a09060646128f8565b6107aa91906128d6565b9050816127106007546004546107c091906128f8565b6107cb9060646128f8565b6107d591906128d6565b10156108495760405162461bcd60e51b815260206004820152603d60248201527f596f752063616e27742073776170206d6f7265207468616e203525206f66207460448201527f686520636f6e74726163742773204d41544943206c69717569646974790000006064820152608401610576565b806008600082825461085b919061290f565b9091555061086b90508183612922565b6004600082825461087c9190612922565b925050819055508360056000828254610895919061290f565b90915550506001546108b2906001600160a01b0316333087612365565b600192506000336108c38385612922565b604051600081818185875af1925050503d80600081146108ff576040519150601f19603f3d011682016040523d82523d6000602084013e610904565b606091505b50509050600093508061094c5760405162461bcd60e51b815260206004820152601060248201526f2a3930b739b332b9103330b4b632b21760811b6044820152606401610576565b60408051868152602081018590524281830152905133917fa5753ab11bf99f3fce97d5d308a4fa395f21cddb5de19469d996a1f391905d73919081900360600190a25050505050565b61099d6123d6565b6000811180156109ae575060648111155b610a315760405162461bcd60e51b815260206004820152604860248201527f53656375726974792070657263656e74616765206d757374206265206772656160448201527f746572207468616e203020616e64206c657373207468616e206f72206571756160648201526706c20746f203130360c41b608482015260a401610576565b600755565b600254604051632b2540bd60e01b81526001600160a01b0383811660048301526000921690632b2540bd90602401602060405180830381865afa158015610a81573d6000803e3d6000fd5b505050506040513d601f19601f82011682018060405250810190610aa59190612935565b92915050565b600033610aca5760405162461bcd60e51b815260040161057690612957565b336000908152600d60205260408120600181015490549091610aec8242612922565b336000908152600d60205260408120600201546006549293509091670de0b6b3a764000090610b1b85886128f8565b610b2591906128f8565b610b2f91906128d6565b610b39919061290f565b95945050505050565b33610b5f5760405162461bcd60e51b815260040161057690612957565b336000908152600d602052604090206001015480610bbf5760405162461bcd60e51b815260206004820152601d60248201527f4e6f204c5020746f6b656e7320746f20636c61696d20726577617264730000006044820152606401610576565b336000908152600d6020526040812090610bd7612430565b826002016000828254610bea919061290f565b918290555042845560006002850155600b5460405163255d23d760e11b8152336004820152602481018390529193506001600160a01b03169150634aba47ae90604401600060405180830381600087803b158015610c4757600080fd5b505af1158015610c5b573d6000803e3d6000fd5b5050505060028201546040805191825242602083015233917f71bab65ced2e5750775a0613be067df48ef06cf92a496ebf7663ae066092495491015b60405180910390a2505050565b610cac6123d6565b33610cc95760405162461bcd60e51b815260040161057690612957565b600060095415610d4257600980546000909155600b5460405163255d23d760e11b8152336004820152602481018390526001600160a01b0390911690634aba47ae90604401600060405180830381600087803b158015610d2857600080fd5b505af1158015610d3c573d6000803e3d6000fd5b50505050505b60085415610df35760088054600091829055604051909190339083908381818185875af1925050503d8060008114610d96576040519150601f19603f3d011682016040523d82523d6000602084013e610d9b565b606091505b505090506001925080610df05760405162461bcd60e51b815260206004820152601760248201527f4661696c656420746f20776974686472617720666565730000000000000000006044820152606401610576565b50505b50565b60008111610e165760405162461bcd60e51b815260040161057690612866565b60003411610e725760405162461bcd60e51b815260206004820152602360248201527f4d4154494320616d6f756e74206d75737420626520677265617465722074686160448201526206e20360ec1b6064820152608401610576565b600154604051636eb1769f60e11b815233600482015230602482015282916001600160a01b03169063dd62ed3e90604401602060405180830381865afa158015610ec0573d6000803e3d6000fd5b505050506040513d601f19601f82011682018060405250810190610ee491906128a7565b1015610f325760405162461bcd60e51b815260206004820152601d60248201527f596f75206e65656420746f20617070726f7665205732522066697273740000006044820152606401610576565b34612710610f428361012c6128f8565b1015610f4d57600080fd5b612710610f5c8361012c6128f8565b610f6691906128d6565b610f709083612922565b600354610f7d90836128f8565b10158015610fb95750612710610f958361012c6128f8565b610f9f91906128d6565b610fa9908361290f565b600354610fb690836128f8565b11155b6110205760405162461bcd60e51b815260206004820152603260248201527f4d415449432d57325220726174696f206973206e6f742077697468696e2074686044820152716520616c6c6f77656420736c69707061676560701b6064820152608401610576565b600060045460001480156110345750600554155b156110a4576000546001600160a01b031633146110935760405162461bcd60e51b815260206004820152601c60248201527f4f6e6c79206f776e65722063616e20616464206c6971756964697479000000006044820152606401610576565b50600481905560058290558061130a565b60006005546004546110b691906128f8565b905082600460008282546110ca919061290f565b9250508190555083600560008282546110e3919061290f565b90915550506005546004546000916110fa916128f8565b9050816111078183612922565b600260009054906101000a90046001600160a01b03166001600160a01b03166318160ddd6040518163ffffffff1660e01b8152600401602060405180830381865afa15801561115a573d6000803e3d6000fd5b505050506040513d601f19601f8201168201806040525081019061117e91906128a7565b61118891906128f8565b61119291906128d6565b92506064600754600260009054906101000a90046001600160a01b03166001600160a01b03166318160ddd6040518163ffffffff1660e01b8152600401602060405180830381865afa1580156111ec573d6000803e3d6000fd5b505050506040513d601f19601f8201168201806040525081019061121091906128a7565b61121a91906128f8565b101561122557600080fd5b61271060075460055461123891906128f8565b6112439060646128f8565b61124d91906128d6565b8511158061126557506000546001600160a01b031633145b6112d75760405162461bcd60e51b815260206004820152603d60248201527f596f752063616e277420616464206d6f7265207468616e20746865207365637560448201527f726974792025206f662074686520746f74616c204c5020737570706c790000006064820152608401610576565b83600460008282546112e9919061290f565b925050819055508460056000828254611302919061290f565b909155505050505b336000908152600c60205260408120805483929061132990849061290f565b90915550506002546040516340c10f1960e01b8152306004820152602481018390526001600160a01b03909116906340c10f1990604401600060405180830381600087803b15801561137a57600080fd5b505af115801561138e573d6000803e3d6000fd5b50506002546113aa92506001600160a01b03169050338361253b565b6001546113c2906001600160a01b0316333086612365565b604080518381526020810185905290810182905233907fbeb3885786d637a474cbc287c0a44587231633a077f0bd30354d5a4b18996fce90606001610c97565b80600081116114535760405162461bcd60e51b815260206004820181905260248201527f4c5020616d6f756e74206d7573742062652067726561746572207468616e20306044820152606401610576565b600254604051636eb1769f60e11b815233600482015230602482015282916001600160a01b03169063dd62ed3e90604401602060405180830381865afa1580156114a1573d6000803e3d6000fd5b505050506040513d601f19601f820116820180604052508101906114c591906128a7565b10156114e35760405162461bcd60e51b815260040161057690612980565b336000908152600c6020526040902054811180159061156c57506002546040516370a0823160e01b815233600482015282916001600160a01b0316906370a0823190602401602060405180830381865afa158015611545573d6000803e3d6000fd5b505050506040513d601f19601f8201168201806040525081019061156991906128a7565b10155b6115885760405162461bcd60e51b8152600401610576906129c2565b336000908152600c60205260409020548111156115b75760405162461bcd60e51b815260040161057690612a08565b336000908152600c6020526040812080548492906115d6908490612922565b9091555050336000908152600d60205260409020600181015415611615576115fc612430565b81600201600082825461160f919061290f565b90915550505b82816001016000828254611629919061290f565b9091555050428155600254611649906001600160a01b0316333086612365565b6040805184815242602082015233917f9fc16615f48f603b9164a63f0ff1c7bc4c2b67fb3a51ecfd9856b0c843c9c0229101610c97565b6116886123d6565b611692600061256b565b565b600034116116d85760405162461bcd60e51b815260206004820152601160248201527006d7573742062652067726561746572203607c1b6044820152606401610576565b612710600a54346116e991906128f8565b6116f49060646128f8565b10156116ff57600080fd5b6000612710600a543461171291906128f8565b61171d9060646128f8565b61172791906128d6565b9050611733813461290f565b3331116117755760405162461bcd60e51b815260206004820152601060248201526f6e6f7420656e6f756768204d6174696360801b6044820152606401610576565b6003546000906117858334612922565b61178f91906128f8565b9050600081116117d95760405162461bcd60e51b81526020600482015260156024820152740573252206d7573742062652067726561746572203605c1b6044820152606401610576565b6127106007546005546117ec91906128f8565b6117f79060646128f8565b101561180257600080fd5b8061271060075460055461181691906128f8565b6118219060646128f8565b61182b91906128d6565b10156118955760405162461bcd60e51b815260206004820152603360248201527f596f752063616e27742073776170206d6f7265207468616e203525206f662074604482015272686520746f74616c2057325220737570706c7960681b6064820152608401610576565b81600860008282546118a7919061290f565b909155506118b790508234612922565b600460008282546118c8919061290f565b9250508190555080600560008282546118e19190612922565b90915550506001546118fd906001600160a01b0316338361253b565b6040805134815260208101839052429181019190915233907f228d47c99c3df2f0352ef63baed152c51569c5547cb3c098f724742633b5eb27906060015b60405180910390a25050565b80600081116119985760405162461bcd60e51b815260206004820181905260248201527f4c5020616d6f756e74206d7573742062652067726561746572207468616e20306044820152606401610576565b600254604051636eb1769f60e11b815233600482015230602482015282916001600160a01b03169063dd62ed3e90604401602060405180830381865afa1580156119e6573d6000803e3d6000fd5b505050506040513d601f19601f82011682018060405250810190611a0a91906128a7565b1015611a285760405162461bcd60e51b815260040161057690612980565b336000908152600c60205260409020548111801590611ab157506002546040516370a0823160e01b815233600482015282916001600160a01b0316906370a0823190602401602060405180830381865afa158015611a8a573d6000803e3d6000fd5b505050506040513d601f19601f82011682018060405250810190611aae91906128a7565b10155b611acd5760405162461bcd60e51b8152600401610576906129c2565b336000908152600c6020526040902054811115611afc5760405162461bcd60e51b815260040161057690612a08565b6000600254604080516318160ddd60e01b815290516000926001600160a01b0316916318160ddd9160048083019260209291908290030181865afa158015611b48573d6000803e3d6000fd5b505050506040513d601f19601f82011682018060405250810190611b6c91906128a7565b11611bb25760405162461bcd60e51b81526020600482015260166024820152754e6f206c697175696469747920746f2072656d6f766560501b6044820152606401610576565b6000600454118015611bc657506000600554115b611c0b5760405162461bcd60e51b81526020600482015260166024820152754e6f206c697175696469747920746f2072656d6f766560501b6044820152606401610576565b336000908152600c6020526040902054831115611c3a5760405162461bcd60e51b815260040161057690612a08565b600254604080516318160ddd60e01b815290516000926001600160a01b0316916318160ddd9160048083019260209291908290030181865afa158015611c84573d6000803e3d6000fd5b505050506040513d601f19601f82011682018060405250810190611ca891906128a7565b611cba85670de0b6b3a76400006128f8565b611cc491906128d6565b90506000670de0b6b3a764000082600454611cdf91906128f8565b611ce991906128d6565b90506000670de0b6b3a764000083600554611d0491906128f8565b611d0e91906128d6565b336000908152600c6020526040812080549293508892909190611d32908490612922565b925050819055508160046000828254611d4b9190612922565b925050819055508060056000828254611d649190612922565b9091555050600154611d80906001600160a01b0316338361253b565b6002546040516323b872dd60e01b8152336004820152306024820152604481018890526001600160a01b03909116906323b872dd906064016020604051808303816000875af1158015611dd7573d6000803e3d6000fd5b505050506040513d601f19601f82011682018060405250810190611dfb9190612935565b50600254604051630852cd8d60e31b8152600481018890526001600160a01b03909116906342966c6890602401600060405180830381600087803b158015611e4257600080fd5b505af1158015611e56573d6000803e3d6000fd5b5050604051600196506000925033915084908381818185875af1925050503d8060008114611ea0576040519150601f19603f3d011682016040523d82523d6000602084013e611ea5565b606091505b505090506000945080611ef15760405162461bcd60e51b81526020600482015260146024820152734661696c656420746f2073656e64204d4154494360601b6044820152606401610576565b604080518481526020810184905290810188905233907f59c3a0b60c6ab7deb62e1440c9e72441db6db7dfe514dba8cb18e60c0d896efa9060600160405180910390a250505050505050565b611f456123d6565b60008111611fa05760405162461bcd60e51b815260206004820152602260248201527f5265776172642072617465206d7573742062652067726561746572207468616e604482015261020360f41b6064820152608401610576565b600655565b6001546040516370a0823160e01b815233600482015260009182916001600160a01b03909116906370a0823190602401602060405180830381865afa158015611ff2573d6000803e3d6000fd5b505050506040513d601f19601f8201168201806040525081019061201691906128a7565b6002546040516370a0823160e01b81523360048201526001600160a01b03909116906370a0823190602401602060405180830381865afa15801561205e573d6000803e3d6000fd5b505050506040513d601f19601f8201168201806040525081019061208291906128a7565b915091509091565b336120a75760405162461bcd60e51b815260040161057690612957565b336000908152600d6020526040902060010154806121075760405162461bcd60e51b815260206004820152601d60248201527f4e6f204c5020746f6b656e7320746f20636c61696d20726577617264730000006044820152606401610576565b61210f610b42565b336000908152600d6020526040812060018101805491928492612133908490612922565b9091555050336000908152600c60205260408120805484929061215790849061290f565b9091555050600254612173906001600160a01b0316338461253b565b6040805183815242602082015233917f9c17b9b1252c31bf8727169baa67751ad5869f505488283af0f2c09cb26320bc910161193b565b6121b26123d6565b6001600160a01b0381166122175760405162461bcd60e51b815260206004820152602660248201527f4f776e61626c653a206e6577206f776e657220697320746865207a65726f206160448201526564647265737360d01b6064820152608401610576565b610df38161256b565b6122286123d6565b600081116122785760405162461bcd60e51b815260206004820181905260248201527f537761702072617465206d7573742062652067726561746572207468616e20306044820152606401610576565b600355565b6001546040516370a0823160e01b8152306004820152600091829182916001600160a01b0316906370a0823190602401602060405180830381865afa1580156122ca573d6000803e3d6000fd5b505050506040513d601f19601f820116820180604052508101906122ee91906128a7565b6002546040516370a0823160e01b815230600482015247916001600160a01b0316906370a0823190602401602060405180830381865afa158015612336573d6000803e3d6000fd5b505050506040513d601f19601f8201168201806040525081019061235a91906128a7565b925092509250909192565b6040516001600160a01b03808516602483015283166044820152606481018290526123d09085906323b872dd60e01b906084015b60408051601f198184030181529190526020810180516001600160e01b03166001600160e01b0319909316929092179091526125bb565b50505050565b6000546001600160a01b031633146116925760405162461bcd60e51b815260206004820181905260248201527f4f776e61626c653a2063616c6c6572206973206e6f7420746865206f776e65726044820152606401610576565b336000908152600d602052604081206001810154905482906124529042612922565b90506000670de0b6b3a7640000600654838561246e91906128f8565b61247891906128f8565b61248291906128d6565b9050612710600a548261249591906128f8565b6124a09060646128f8565b10156124e25760405162461bcd60e51b815260206004820152601160248201527008ccacae640c2e4ca40e8dede40d0d2ced607b1b6044820152606401610576565b6000612710600a54836124f591906128f8565b6125009060646128f8565b61250a91906128d6565b905060006125188284612922565b9050816009600082825461252c919061290f565b90915550909695505050505050565b6040516001600160a01b038316602482015260448101829052610df090849063a9059cbb60e01b90606401612399565b600080546001600160a01b038381166001600160a01b0319831681178455604051919092169283917f8be0079c531659141344cd1fd0a4f28419497f9722a3daafe3b4186f6b6457e09190a35050565b6000612610826040518060400160405280602081526020017f5361666545524332303a206c6f772d6c6576656c2063616c6c206661696c6564815250856001600160a01b031661268d9092919063ffffffff16565b805190915015610df0578080602001905181019061262e9190612935565b610df05760405162461bcd60e51b815260206004820152602a60248201527f5361666545524332303a204552433230206f7065726174696f6e20646964206e6044820152691bdd081cdd58d8d9595960b21b6064820152608401610576565b606061269c84846000856126a4565b949350505050565b6060824710156127055760405162461bcd60e51b815260206004820152602660248201527f416464726573733a20696e73756666696369656e742062616c616e636520666f6044820152651c8818d85b1b60d21b6064820152608401610576565b600080866001600160a01b031685876040516127219190612a5a565b60006040518083038185875af1925050503d806000811461275e576040519150601f19603f3d011682016040523d82523d6000602084013e612763565b606091505b50915091506127748783838761277f565b979650505050505050565b606083156127ee5782516000036127e7576001600160a01b0385163b6127e75760405162461bcd60e51b815260206004820152601d60248201527f416464726573733a2063616c6c20746f206e6f6e2d636f6e74726163740000006044820152606401610576565b508161269c565b61269c83838151156128035781518083602001fd5b8060405162461bcd60e51b81526004016105769190612a76565b60006020828403121561282f57600080fd5b5035919050565b60006020828403121561284857600080fd5b81356001600160a01b038116811461285f57600080fd5b9392505050565b60208082526021908201527f57325220616d6f756e74206d7573742062652067726561746572207468616e206040820152600360fc1b606082015260800190565b6000602082840312156128b957600080fd5b5051919050565b634e487b7160e01b600052601160045260246000fd5b6000826128f357634e487b7160e01b600052601260045260246000fd5b500490565b8082028115828204841417610aa557610aa56128c0565b80820180821115610aa557610aa56128c0565b81810381811115610aa557610aa56128c0565b60006020828403121561294757600080fd5b8151801515811461285f57600080fd5b6020808252600f908201526e496e76616c6964206164647265737360881b604082015260600190565b60208082526022908201527f596f75206e65656420746f20617070726f7665204c5020746f6b656e206669726040820152611cdd60f21b606082015260800190565b60208082526026908201527f596f7520646f6e2774206861766520616e79204c5020746f6b656e7320746f2060408201526572656d6f766560d01b606082015260800190565b6020808252601490820152734e6f7420656e6f756768204c5020746f6b656e7360601b604082015260600190565b60005b83811015612a51578181015183820152602001612a39565b50506000910152565b60008251612a6c818460208701612a36565b9190910192915050565b6020815260008251806020840152612a95816040850160208701612a36565b601f01601f1916919091016040019291505056fea2646970667358221220ac1b55d63cb66fb115f72608bbdcc4ed4c8f491722db93351e659519d81d397964736f6c63430008120033",
  "immutableReferences": {},
  "source": "// SPDX-License-Identifier: MIT\npragma solidity ^0.8.9;\n\n//import \"@openzeppelin/contracts/token/ERC20/ERC20.sol\";\n//import \"@openzeppelin/contracts/token/ERC20/extensions/ERC20Burnable.sol\";\n//import \"@openzeppelin/contracts/token/ERC20/utils/SafeERC20.sol\";\n//import \"@openzeppelin/contracts/access/Ownable.sol\";\nimport \"../node_modules/@openzeppelin/contracts/token/ERC20/ERC20.sol\";\nimport \"../node_modules/@openzeppelin/contracts/token/ERC20/extensions/ERC20Burnable.sol\";\nimport \"../node_modules/@openzeppelin/contracts/token/ERC20/utils/SafeERC20.sol\";\nimport \"../node_modules/@openzeppelin/contracts/access/Ownable.sol\";\n\ninterface I5VaultW2R {\n    function distributeW2R(address receiver, uint amount) external;\n}\n\ninterface IMaticW2RPairToken is IERC20 {\n    function checkMinterAndBurner(\n        address authorized\n    ) external view returns (bool);\n\n    function mint(address to, uint amount) external;\n\n    function burn(uint256 amount) external;\n}\n\ncontract MaticW2Rdex is Ownable {\n    using SafeERC20 for IERC20;\n    using SafeERC20 for IMaticW2RPairToken;\n    IERC20 public W2R;\n    IMaticW2RPairToken public lpToken;\n    uint public swapRate;\n    uint public totalMaticLiquidity;\n    uint public totalW2RLiquidity;\n    uint public rewardRatePerSecond;\n    uint public securityPercentage;\n    uint public totalMaticFees;\n    uint public totalW2RFees;\n    uint public feesPercent;\n\n    I5VaultW2R vaultW2R;\n\n    // balance de LP Token sur les Wallets\n    mapping(address => uint) public LPBalance;\n    // caractristiques du farming\n    mapping(address => Farming) public farming;\n\n    struct Farming {\n        uint lastTime;\n        uint lpAmount;\n        uint rewards;\n    }\n\n    event SwapMaticForW2R(\n        address indexed user,\n        uint maticAmount,\n        uint w2rAmount,\n        uint date\n    );\n    event SwapW2RForMatic(\n        address indexed user,\n        uint w2rAmount,\n        uint maticAmount,\n        uint date\n    );\n\n    event AddLiquidity(\n        address indexed user,\n        uint maticAmount,\n        uint w2rAmount,\n        uint lpAmount\n    );\n    event RemoveLiquidity(\n        address indexed user,\n        uint lpAmount,\n        uint maticAmount,\n        uint w2rAmount\n    );\n    event Farm(address indexed user, uint lpAmount, uint date);\n    event Harvest(address indexed user, uint rewards, uint date);\n    event ExitFarm(address indexed user, uint lpAmount, uint date);\n\n    constructor(\n        address W2RAddress,\n        uint initialSwapRate,\n        address vaultW2RAddress,\n        address lpTokenAddress\n    ) {\n        require(W2RAddress != address(0), \"W2R address cannot be 0x0\");\n        require(initialSwapRate > 0, \"Swap rate must be greater than 0\");\n        require(\n            vaultW2RAddress != address(0),\n            \"Vault W2R address cannot be 0x0\"\n        );\n        W2R = IERC20(W2RAddress);\n        lpToken = IMaticW2RPairToken(lpTokenAddress);\n        swapRate = initialSwapRate;\n        rewardRatePerSecond = 10 ** 9; // w2r reward rate per second at the launch of the dex\n        vaultW2R = I5VaultW2R(vaultW2RAddress);\n        securityPercentage = 5;\n        feesPercent = 1;\n    }\n\n    modifier checkLPAmount(uint lpAmount) {\n        require(lpAmount > 0, \"LP amount must be greater than 0\");\n\n        require(\n            lpToken.allowance(msg.sender, address(this)) >= lpAmount,\n            \"You need to approve LP token first\"\n        );\n        require(\n            LPBalance[msg.sender] >= lpAmount &&\n                lpToken.balanceOf(msg.sender) >= lpAmount,\n            \"You don't have any LP tokens to remove\"\n        );\n        require(lpAmount <= LPBalance[msg.sender], \"Not enough LP tokens\");\n\n        _;\n    }\n\n    function getContractBalances() external view returns (uint, uint, uint) {\n        // W2R, MATIC, LP\n        return (\n            W2R.balanceOf(address(this)),\n            address(this).balance,\n            lpToken.balanceOf(address(this))\n        );\n    }\n\n    function getUserBalances() external view returns (uint, uint) {\n        return (W2R.balanceOf(msg.sender), lpToken.balanceOf(msg.sender));\n    }\n\n    function checkIfAuthorizedInLPcontract(\n        address _toCheck\n    ) public view returns (bool) {\n        return lpToken.checkMinterAndBurner(_toCheck);\n    }\n\n    function swapMaticForW2R() external payable {\n        require(msg.value > 0, \"must be greater 0\");\n        require((msg.value * feesPercent * 100) >= 10000);\n        uint fees = (msg.value * feesPercent * 100) / 10000;\n        require(msg.sender.balance > msg.value + fees, \"not enough Matic\");\n        uint w2rAmount = (msg.value - fees) * swapRate;\n        require(w2rAmount > 0, \"W2R must be greater 0\");\n        require((totalW2RLiquidity * securityPercentage * 100) >= 10000);\n        require(\n            (totalW2RLiquidity * securityPercentage * 100) / 10000 >= w2rAmount,\n            \"You can't swap more than 5% of the total W2R supply\"\n        );\n        totalMaticFees += fees;\n        totalMaticLiquidity += (msg.value - fees);\n        totalW2RLiquidity -= w2rAmount;\n        // transfer w2r to user\n        W2R.safeTransfer(msg.sender, w2rAmount);\n        emit SwapMaticForW2R(msg.sender, msg.value, w2rAmount, block.timestamp);\n    }\n\n    // entrer un montant incluant les dcimales, en wei, pour matic et W2R\n    function swapW2RForMatic(uint w2rAmount) external {\n        bool guard;\n        require(!guard, \"ReentrancyGuard: reentrant call\");\n        require(msg.sender.balance > 0, \"for MATIC fees\");\n        require(w2rAmount > 0, \"W2R amount must be greater than 0\");\n        require(\n            W2R.allowance(msg.sender, address(this)) >= w2rAmount,\n            \"You need to approve W2R first\"\n        );\n        require(W2R.balanceOf(msg.sender) >= w2rAmount, \"Not enough W2R\");\n        uint maticAmount = w2rAmount / swapRate;\n        require((maticAmount * feesPercent * 100) >= 10000);\n        uint fee = (maticAmount * feesPercent * 100) / 10000;\n        require(\n            (totalMaticLiquidity * securityPercentage * 100) / 10000 >=\n                maticAmount,\n            \"You can't swap more than 5% of the contract's MATIC liquidity\"\n        );\n        totalMaticFees += fee;\n        totalMaticLiquidity -= (maticAmount - fee);\n        totalW2RLiquidity += w2rAmount;\n        W2R.safeTransferFrom(msg.sender, address(this), w2rAmount);\n        guard = true;\n        (bool success, ) = payable(msg.sender).call{value: maticAmount - fee}(\n            \"\"\n        );\n        guard = false;\n        require(success, \"Transfer failed.\");\n        emit SwapW2RForMatic(\n            msg.sender,\n            w2rAmount,\n            maticAmount,\n            block.timestamp\n        );\n    }\n\n    function addLiquidity(uint w2rAmount) external payable {\n        require(w2rAmount > 0, \"W2R amount must be greater than 0\");\n        require(msg.value > 0, \"MATIC amount must be greater than 0\");\n        require(\n            W2R.allowance(msg.sender, address(this)) >= w2rAmount,\n            \"You need to approve W2R first\"\n        );\n        uint maticAmount = msg.value;\n        require((w2rAmount * 300) >= 10000);\n        // limit tolerance to 3% for MATIC-W2R ratio of 10\n        require(\n            maticAmount * swapRate >= w2rAmount - ((w2rAmount * 300) / 10000) &&\n                maticAmount * swapRate <=\n                w2rAmount + ((w2rAmount * 300) / 10000),\n            \"MATIC-W2R ratio is not within the allowed slippage\"\n        );\n        uint lpAmount;\n        if (totalMaticLiquidity == 0 && totalW2RLiquidity == 0) {\n            // the team has to bring the first (huge) liquidity\n            require(msg.sender == owner(), \"Only owner can add liquidity\");\n            lpAmount = maticAmount;\n            totalMaticLiquidity = maticAmount;\n            totalW2RLiquidity = w2rAmount;\n        } else {\n            // constant invariant formula\n            uint k = totalMaticLiquidity * totalW2RLiquidity;\n            totalMaticLiquidity += maticAmount;\n            totalW2RLiquidity += w2rAmount;\n            uint newK = totalMaticLiquidity * totalW2RLiquidity;\n            lpAmount = (lpToken.totalSupply() * (newK - k)) / k;\n            // prevent a user to have too much power on the contract\n            require((lpToken.totalSupply() * securityPercentage) >= 100);\n            require(\n                w2rAmount <=\n                    (totalW2RLiquidity * securityPercentage * 100) / 10000 ||\n                    msg.sender == owner(),\n                \"You can't add more than the security % of the total LP supply\"\n            );\n            totalMaticLiquidity += maticAmount;\n            totalW2RLiquidity += w2rAmount;\n        }\n        LPBalance[msg.sender] += lpAmount;\n        lpToken.mint(address(this), lpAmount);\n        lpToken.safeTransfer(msg.sender, lpAmount);\n        W2R.safeTransferFrom(msg.sender, address(this), w2rAmount);\n        emit AddLiquidity(msg.sender, maticAmount, w2rAmount, lpAmount);\n    }\n\n    function removeLiquidity(uint lpAmount) external checkLPAmount(lpAmount) {\n        bool guard;\n        require(!guard, \"ReentrancyGuard: reentrant call\");\n        require(lpToken.totalSupply() > 0, \"No liquidity to remove\");\n        require(\n            totalMaticLiquidity > 0 && totalW2RLiquidity > 0,\n            \"No liquidity to remove\"\n        );\n        require(LPBalance[msg.sender] >= lpAmount, \"Not enough LP tokens\");\n        // Calculate the proportion of LP tokens the user is removing\n        uint proportion = (lpAmount * 1e18) / lpToken.totalSupply();\n        // Calculate the amount of MATIC and W2R to refund\n        uint maticAmount = (totalMaticLiquidity * proportion) / 1e18;\n        uint w2rAmount = (totalW2RLiquidity * proportion) / 1e18;\n        // update data\n        LPBalance[msg.sender] -= lpAmount;\n        totalMaticLiquidity -= maticAmount;\n        totalW2RLiquidity -= w2rAmount;\n        W2R.safeTransfer(msg.sender, w2rAmount);\n        lpToken.transferFrom(msg.sender, address(this), lpAmount);\n        lpToken.burn(lpAmount);\n        guard = true;\n        (bool success, ) = payable(msg.sender).call{value: maticAmount}(\"\");\n        guard = false;\n        require(success, \"Failed to send MATIC\");\n        emit RemoveLiquidity(msg.sender, maticAmount, w2rAmount, lpAmount);\n    }\n\n    function farm(uint lpAmount) external checkLPAmount(lpAmount) {\n        // check if user has already farmed\n        LPBalance[msg.sender] -= lpAmount;\n        // update farming struct\n        Farming storage user = farming[msg.sender];\n        if (user.lpAmount > 0) {\n            user.rewards += calculateReward();\n        }\n        user.lpAmount += lpAmount;\n        user.lastTime = block.timestamp;\n        lpToken.safeTransferFrom(msg.sender, address(this), lpAmount);\n        emit Farm(msg.sender, lpAmount, block.timestamp);\n    }\n\n    function exitFarm() external {\n        require(msg.sender != address(0), \"Invalid address\");\n        uint lpBalance = farming[msg.sender].lpAmount;\n        require(lpBalance > 0, \"No LP tokens to claim rewards\");\n        harvest();\n        Farming storage user = farming[msg.sender];\n        user.lpAmount -= lpBalance;\n        LPBalance[msg.sender] += lpBalance;\n        lpToken.safeTransfer(msg.sender, lpBalance);\n        emit ExitFarm(msg.sender, lpBalance, block.timestamp);\n    }\n\n    function viewRewards() external view returns (uint) {\n        require(msg.sender != address(0), \"Invalid address\");\n        uint lpBalance = farming[msg.sender].lpAmount;\n        uint lastTime = farming[msg.sender].lastTime;\n        uint timeElapsed = block.timestamp - lastTime;\n        uint reward = ((lpBalance * timeElapsed * rewardRatePerSecond) /\n            10 ** 18) + farming[msg.sender].rewards;\n        return reward;\n    }\n\n    function calculateReward() private returns (uint) {\n        uint lpBalance = farming[msg.sender].lpAmount;\n        uint timeElapsed = block.timestamp - farming[msg.sender].lastTime;\n        uint basis = (lpBalance * timeElapsed * rewardRatePerSecond) / 10 ** 18;\n        require((basis * feesPercent * 100) >= 10000, \"Fees are too high\");\n        uint fees = (basis * feesPercent * 100) / 10000;\n        uint reward = basis - fees;\n        totalW2RFees += fees;\n        return reward;\n    }\n\n    function harvest() public {\n        require(msg.sender != address(0), \"Invalid address\");\n        uint lpBalance = farming[msg.sender].lpAmount;\n        require(lpBalance > 0, \"No LP tokens to claim rewards\");\n        Farming storage user = farming[msg.sender];\n        uint reward = user.rewards += calculateReward();\n        user.lastTime = block.timestamp;\n        user.rewards = 0;\n        vaultW2R.distributeW2R(msg.sender, reward);\n        emit Harvest(msg.sender, user.rewards, block.timestamp);\n    }\n\n    function setSwapRate(uint newSwapRate) external onlyOwner {\n        require(newSwapRate > 0, \"Swap rate must be greater than 0\");\n        swapRate = newSwapRate;\n    }\n\n    function setRewardRate(uint _newRewardRate) external onlyOwner {\n        require(_newRewardRate > 0, \"Reward rate must be greater than 0\");\n        rewardRatePerSecond = _newRewardRate;\n    }\n\n    function setSecurityPercentage(\n        uint _newSecurityPercentage\n    ) external onlyOwner {\n        require(\n            _newSecurityPercentage > 0 && _newSecurityPercentage <= 100,\n            \"Security percentage must be greater than 0 and less than or equal to 100\"\n        );\n        securityPercentage = _newSecurityPercentage;\n    }\n\n    function withdrawFees() external onlyOwner {\n        require(msg.sender != address(0), \"Invalid address\");\n        bool guard; // even if it's the owner, we don't want reentrancy !\n        require(!guard, \"ReentrancyGuard: reentrant call\");\n        if (totalW2RFees > 0) {\n            uint w2rToSend = totalW2RFees;\n            totalW2RFees = 0;\n            vaultW2R.distributeW2R(msg.sender, w2rToSend);\n        }\n        if (totalMaticFees > 0) {\n            uint amount = totalMaticFees;\n            totalMaticFees = 0;\n            (bool success, ) = payable(msg.sender).call{value: amount}(\"\");\n            guard = true;\n            require(success, \"Failed to withdraw fees\");\n        }\n    }\n\n    receive() external payable {}\n}\n",
  "sourcePath": "/Users/harbinger/Dropbox/Dossier familial/Formation Blockchain/Alyra/Projet Certification/Projet Alyra 2Wheels2Rent/truffle/contracts/MaticW2Rdex.sol",
  "compiler": {
    "name": "solc",
    "version": "0.8.18+commit.87f61d96.Emscripten.clang"
  },
  "schemaVersion": "3.4.12",
  "updatedAt": "2023-04-08T14:17:56.504Z",
  "networkType": "ethereum",
  "devdoc": {
    "kind": "dev",
    "methods": {
      "owner()": {
        "details": "Returns the address of the current owner."
      },
      "renounceOwnership()": {
        "details": "Leaves the contract without owner. It will not be possible to call `onlyOwner` functions anymore. Can only be called by the current owner. NOTE: Renouncing ownership will leave the contract without an owner, thereby removing any functionality that is only available to the owner."
      },
      "transferOwnership(address)": {
        "details": "Transfers ownership of the contract to a new account (`newOwner`). Can only be called by the current owner."
      }
    },
    "version": 1
  },
  "userdoc": {
    "kind": "user",
    "methods": {},
    "version": 1
  }
}