{
  "contractName": "MaticW2Rdex",
  "abi": [
    {
      "inputs": [
        {
          "internalType": "address",
          "name": "W2RAddress",
          "type": "address"
        },
        {
          "internalType": "uint256",
          "name": "initialSwapRate",
          "type": "uint256"
        },
        {
          "internalType": "address",
          "name": "vaultW2RAddress",
          "type": "address"
        },
        {
          "internalType": "address",
          "name": "lpTokenAddress",
          "type": "address"
        }
      ],
      "stateMutability": "nonpayable",
      "type": "constructor"
    },
    {
      "anonymous": false,
      "inputs": [
        {
          "indexed": true,
          "internalType": "address",
          "name": "user",
          "type": "address"
        },
        {
          "indexed": false,
          "internalType": "uint256",
          "name": "maticAmount",
          "type": "uint256"
        },
        {
          "indexed": false,
          "internalType": "uint256",
          "name": "w2rAmount",
          "type": "uint256"
        },
        {
          "indexed": false,
          "internalType": "uint256",
          "name": "lpAmount",
          "type": "uint256"
        }
      ],
      "name": "AddLiquidity",
      "type": "event"
    },
    {
      "anonymous": false,
      "inputs": [
        {
          "indexed": true,
          "internalType": "address",
          "name": "user",
          "type": "address"
        },
        {
          "indexed": false,
          "internalType": "uint256",
          "name": "lpAmount",
          "type": "uint256"
        },
        {
          "indexed": false,
          "internalType": "uint256",
          "name": "date",
          "type": "uint256"
        }
      ],
      "name": "ExitFarm",
      "type": "event"
    },
    {
      "anonymous": false,
      "inputs": [
        {
          "indexed": true,
          "internalType": "address",
          "name": "user",
          "type": "address"
        },
        {
          "indexed": false,
          "internalType": "uint256",
          "name": "lpAmount",
          "type": "uint256"
        },
        {
          "indexed": false,
          "internalType": "uint256",
          "name": "date",
          "type": "uint256"
        }
      ],
      "name": "Farm",
      "type": "event"
    },
    {
      "anonymous": false,
      "inputs": [
        {
          "indexed": true,
          "internalType": "address",
          "name": "user",
          "type": "address"
        },
        {
          "indexed": false,
          "internalType": "uint256",
          "name": "rewards",
          "type": "uint256"
        },
        {
          "indexed": false,
          "internalType": "uint256",
          "name": "date",
          "type": "uint256"
        }
      ],
      "name": "Harvest",
      "type": "event"
    },
    {
      "anonymous": false,
      "inputs": [
        {
          "indexed": true,
          "internalType": "address",
          "name": "previousOwner",
          "type": "address"
        },
        {
          "indexed": true,
          "internalType": "address",
          "name": "newOwner",
          "type": "address"
        }
      ],
      "name": "OwnershipTransferred",
      "type": "event"
    },
    {
      "anonymous": false,
      "inputs": [
        {
          "indexed": true,
          "internalType": "address",
          "name": "user",
          "type": "address"
        },
        {
          "indexed": false,
          "internalType": "uint256",
          "name": "lpAmount",
          "type": "uint256"
        },
        {
          "indexed": false,
          "internalType": "uint256",
          "name": "maticAmount",
          "type": "uint256"
        },
        {
          "indexed": false,
          "internalType": "uint256",
          "name": "w2rAmount",
          "type": "uint256"
        }
      ],
      "name": "RemoveLiquidity",
      "type": "event"
    },
    {
      "anonymous": false,
      "inputs": [
        {
          "indexed": true,
          "internalType": "address",
          "name": "user",
          "type": "address"
        },
        {
          "indexed": false,
          "internalType": "uint256",
          "name": "maticAmount",
          "type": "uint256"
        },
        {
          "indexed": false,
          "internalType": "uint256",
          "name": "w2rAmount",
          "type": "uint256"
        },
        {
          "indexed": false,
          "internalType": "uint256",
          "name": "date",
          "type": "uint256"
        }
      ],
      "name": "SwapMaticForW2R",
      "type": "event"
    },
    {
      "anonymous": false,
      "inputs": [
        {
          "indexed": true,
          "internalType": "address",
          "name": "user",
          "type": "address"
        },
        {
          "indexed": false,
          "internalType": "uint256",
          "name": "w2rAmount",
          "type": "uint256"
        },
        {
          "indexed": false,
          "internalType": "uint256",
          "name": "maticAmount",
          "type": "uint256"
        },
        {
          "indexed": false,
          "internalType": "uint256",
          "name": "date",
          "type": "uint256"
        }
      ],
      "name": "SwapW2RForMatic",
      "type": "event"
    },
    {
      "inputs": [
        {
          "internalType": "address",
          "name": "",
          "type": "address"
        }
      ],
      "name": "LPBalance",
      "outputs": [
        {
          "internalType": "uint256",
          "name": "",
          "type": "uint256"
        }
      ],
      "stateMutability": "view",
      "type": "function",
      "constant": true
    },
    {
      "inputs": [],
      "name": "W2R",
      "outputs": [
        {
          "internalType": "contract IERC20",
          "name": "",
          "type": "address"
        }
      ],
      "stateMutability": "view",
      "type": "function",
      "constant": true
    },
    {
      "inputs": [
        {
          "internalType": "address",
          "name": "",
          "type": "address"
        }
      ],
      "name": "farming",
      "outputs": [
        {
          "internalType": "uint256",
          "name": "lastTime",
          "type": "uint256"
        },
        {
          "internalType": "uint256",
          "name": "lpAmount",
          "type": "uint256"
        }
      ],
      "stateMutability": "view",
      "type": "function",
      "constant": true
    },
    {
      "inputs": [],
      "name": "feesPercent",
      "outputs": [
        {
          "internalType": "uint256",
          "name": "",
          "type": "uint256"
        }
      ],
      "stateMutability": "view",
      "type": "function",
      "constant": true
    },
    {
      "inputs": [],
      "name": "lpToken",
      "outputs": [
        {
          "internalType": "contract IMaticW2RPairToken",
          "name": "",
          "type": "address"
        }
      ],
      "stateMutability": "view",
      "type": "function",
      "constant": true
    },
    {
      "inputs": [],
      "name": "owner",
      "outputs": [
        {
          "internalType": "address",
          "name": "",
          "type": "address"
        }
      ],
      "stateMutability": "view",
      "type": "function",
      "constant": true
    },
    {
      "inputs": [],
      "name": "renounceOwnership",
      "outputs": [],
      "stateMutability": "nonpayable",
      "type": "function"
    },
    {
      "inputs": [],
      "name": "rewardRatePerSecond",
      "outputs": [
        {
          "internalType": "uint256",
          "name": "",
          "type": "uint256"
        }
      ],
      "stateMutability": "view",
      "type": "function",
      "constant": true
    },
    {
      "inputs": [],
      "name": "securityPercentage",
      "outputs": [
        {
          "internalType": "uint256",
          "name": "",
          "type": "uint256"
        }
      ],
      "stateMutability": "view",
      "type": "function",
      "constant": true
    },
    {
      "inputs": [],
      "name": "swapRate",
      "outputs": [
        {
          "internalType": "uint256",
          "name": "",
          "type": "uint256"
        }
      ],
      "stateMutability": "view",
      "type": "function",
      "constant": true
    },
    {
      "inputs": [],
      "name": "totalMaticFees",
      "outputs": [
        {
          "internalType": "uint256",
          "name": "",
          "type": "uint256"
        }
      ],
      "stateMutability": "view",
      "type": "function",
      "constant": true
    },
    {
      "inputs": [],
      "name": "totalMaticLiquidity",
      "outputs": [
        {
          "internalType": "uint256",
          "name": "",
          "type": "uint256"
        }
      ],
      "stateMutability": "view",
      "type": "function",
      "constant": true
    },
    {
      "inputs": [],
      "name": "totalW2RFees",
      "outputs": [
        {
          "internalType": "uint256",
          "name": "",
          "type": "uint256"
        }
      ],
      "stateMutability": "view",
      "type": "function",
      "constant": true
    },
    {
      "inputs": [],
      "name": "totalW2RLiquidity",
      "outputs": [
        {
          "internalType": "uint256",
          "name": "",
          "type": "uint256"
        }
      ],
      "stateMutability": "view",
      "type": "function",
      "constant": true
    },
    {
      "inputs": [
        {
          "internalType": "address",
          "name": "newOwner",
          "type": "address"
        }
      ],
      "name": "transferOwnership",
      "outputs": [],
      "stateMutability": "nonpayable",
      "type": "function"
    },
    {
      "stateMutability": "payable",
      "type": "receive",
      "payable": true
    },
    {
      "inputs": [],
      "name": "getContractBalances",
      "outputs": [
        {
          "internalType": "uint256",
          "name": "",
          "type": "uint256"
        },
        {
          "internalType": "uint256",
          "name": "",
          "type": "uint256"
        },
        {
          "internalType": "uint256",
          "name": "",
          "type": "uint256"
        }
      ],
      "stateMutability": "view",
      "type": "function",
      "constant": true
    },
    {
      "inputs": [],
      "name": "getUserBalances",
      "outputs": [
        {
          "internalType": "uint256",
          "name": "",
          "type": "uint256"
        },
        {
          "internalType": "uint256",
          "name": "",
          "type": "uint256"
        }
      ],
      "stateMutability": "view",
      "type": "function",
      "constant": true
    },
    {
      "inputs": [
        {
          "internalType": "address",
          "name": "_toCheck",
          "type": "address"
        }
      ],
      "name": "checkIfAuthorizedInLPcontract",
      "outputs": [
        {
          "internalType": "bool",
          "name": "",
          "type": "bool"
        }
      ],
      "stateMutability": "view",
      "type": "function",
      "constant": true
    },
    {
      "inputs": [],
      "name": "swapMaticForW2R",
      "outputs": [],
      "stateMutability": "payable",
      "type": "function",
      "payable": true
    },
    {
      "inputs": [
        {
          "internalType": "uint256",
          "name": "w2rAmount",
          "type": "uint256"
        }
      ],
      "name": "swapW2RForMatic",
      "outputs": [],
      "stateMutability": "nonpayable",
      "type": "function"
    },
    {
      "inputs": [
        {
          "internalType": "uint256",
          "name": "w2rAmount",
          "type": "uint256"
        }
      ],
      "name": "addLiquidity",
      "outputs": [],
      "stateMutability": "payable",
      "type": "function",
      "payable": true
    },
    {
      "inputs": [
        {
          "internalType": "uint256",
          "name": "lpAmount",
          "type": "uint256"
        }
      ],
      "name": "removeLiquidity",
      "outputs": [],
      "stateMutability": "nonpayable",
      "type": "function"
    },
    {
      "inputs": [
        {
          "internalType": "uint256",
          "name": "lpAmount",
          "type": "uint256"
        }
      ],
      "name": "farm",
      "outputs": [],
      "stateMutability": "nonpayable",
      "type": "function"
    },
    {
      "inputs": [],
      "name": "exitFarm",
      "outputs": [],
      "stateMutability": "nonpayable",
      "type": "function"
    },
    {
      "inputs": [],
      "name": "viewRewards",
      "outputs": [
        {
          "internalType": "uint256",
          "name": "",
          "type": "uint256"
        }
      ],
      "stateMutability": "view",
      "type": "function",
      "constant": true
    },
    {
      "inputs": [],
      "name": "harvest",
      "outputs": [],
      "stateMutability": "nonpayable",
      "type": "function"
    },
    {
      "inputs": [
        {
          "internalType": "uint256",
          "name": "newSwapRate",
          "type": "uint256"
        }
      ],
      "name": "setSwapRate",
      "outputs": [],
      "stateMutability": "nonpayable",
      "type": "function"
    },
    {
      "inputs": [
        {
          "internalType": "uint256",
          "name": "_newRewardRate",
          "type": "uint256"
        }
      ],
      "name": "setRewardRate",
      "outputs": [],
      "stateMutability": "nonpayable",
      "type": "function"
    },
    {
      "inputs": [
        {
          "internalType": "uint256",
          "name": "_newSecurityPercentage",
          "type": "uint256"
        }
      ],
      "name": "setSecurityPercentage",
      "outputs": [],
      "stateMutability": "nonpayable",
      "type": "function"
    },
    {
      "inputs": [],
      "name": "withdrawFees",
      "outputs": [],
      "stateMutability": "nonpayable",
      "type": "function"
    }
  ],
  "bytecode": "0x60806040523480156200001157600080fd5b5060405162002b0038038062002b0083398101604081905262000034916200020c565b6200003f336200019f565b6001600160a01b0384166200009b5760405162461bcd60e51b815260206004820152601960248201527f57325220616464726573732063616e6e6f74206265203078300000000000000060448201526064015b60405180910390fd5b60008311620000ed5760405162461bcd60e51b815260206004820181905260248201527f537761702072617465206d7573742062652067726561746572207468616e2030604482015260640162000092565b6001600160a01b038216620001455760405162461bcd60e51b815260206004820152601f60248201527f5661756c742057325220616464726573732063616e6e6f742062652030783000604482015260640162000092565b600180546001600160a01b039586166001600160a01b031991821617825560028054938716938216939093179092556003939093556402540be400600655600b8054929094169116179091556005600755600a5562000260565b600080546001600160a01b038381166001600160a01b0319831681178455604051919092169283917f8be0079c531659141344cd1fd0a4f28419497f9722a3daafe3b4186f6b6457e09190a35050565b80516001600160a01b03811681146200020757600080fd5b919050565b600080600080608085870312156200022357600080fd5b6200022e85620001ef565b9350602085015192506200024560408601620001ef565b91506200025560608601620001ef565b905092959194509250565b61289080620002706000396000f3fe6080604052600436106101d15760003560e01c8063715018a6116100f7578063cddaf35811610095578063f3c070f711610064578063f3c070f7146104eb578063f4cde46914610501578063f9ef2c6b14610521578063ffd2a7d31461053757600080fd5b8063cddaf3581461048a578063d1ef1beb1461049f578063dfbfbab3146104b5578063f2fde38b146104cb57600080fd5b80638f036072116100d15780638f036072146104155780639c8f9f23146104355780639e447fc614610455578063bd6edba51461047557600080fd5b8063715018a6146103da5780637f2e4f2a146103ef5780638da5cb5b146103f757600080fd5b80634641257d1161016f5780635a18f4bc1161013e5780635a18f4bc146103605780635d773b2c146103765780635fcbd2851461038c578063698518e5146103c457600080fd5b80634641257d14610303578063476343ee1461031857806351c6590a1461032d578063538a85a11461034057600080fd5b806317795383116101ab578063177953831461024857806328d6dbcd1461027857806330cb7bfb146102c15780633dfa83b3146102ee57600080fd5b806302b74970146101dd5780630b544a8c146101ff57806316578dc61461022857600080fd5b366101d857005b600080fd5b3480156101e957600080fd5b506101fd6101f83660046125b9565b610567565b005b34801561020b57600080fd5b5061021560095481565b6040519081526020015b60405180910390f35b34801561023457600080fd5b506101fd6102433660046125b9565b6108e2565b34801561025457600080fd5b506102686102633660046125d2565b610983565b604051901515815260200161021f565b34801561028457600080fd5b506102ac6102933660046125d2565b600d602052600090815260409020805460019091015482565b6040805192835260208301919091520161021f565b3480156102cd57600080fd5b506102156102dc3660046125d2565b600c6020526000908152604090205481565b3480156102fa57600080fd5b506102156109f8565b34801561030f57600080fd5b506101fd610a72565b34801561032457600080fd5b506101fd610bfc565b6101fd61033b3660046125b9565b610d4e565b34801561034c57600080fd5b506101fd61035b3660046125b9565b6111fe565b34801561036c57600080fd5b5061021560045481565b34801561038257600080fd5b5061021560065481565b34801561039857600080fd5b506002546103ac906001600160a01b031681565b6040516001600160a01b03909116815260200161021f565b3480156103d057600080fd5b5061021560035481565b3480156103e657600080fd5b506101fd611479565b6101fd61148d565b34801561040357600080fd5b506000546001600160a01b03166103ac565b34801561042157600080fd5b506001546103ac906001600160a01b031681565b34801561044157600080fd5b506101fd6104503660046125b9565b6116a9565b34801561046157600080fd5b506101fd6104703660046125b9565b611cd9565b34801561048157600080fd5b506102ac611d41565b34801561049657600080fd5b506101fd611e26565b3480156104ab57600080fd5b5061021560055481565b3480156104c157600080fd5b50610215600a5481565b3480156104d757600080fd5b506101fd6104e63660046125d2565b611f46565b3480156104f757600080fd5b5061021560075481565b34801561050d57600080fd5b506101fd61051c3660046125b9565b611fbc565b34801561052d57600080fd5b5061021560085481565b34801561054357600080fd5b5061054c612019565b6040805193845260208401929092529082015260600161021f565b6000610577565b60405180910390fd5b33316105b65760405162461bcd60e51b815260206004820152600e60248201526d666f72204d41544943206665657360901b604482015260640161056e565b600082116105d65760405162461bcd60e51b815260040161056e90612602565b600154604051636eb1769f60e11b815233600482015230602482015283916001600160a01b03169063dd62ed3e90604401602060405180830381865afa158015610624573d6000803e3d6000fd5b505050506040513d601f19601f820116820180604052508101906106489190612643565b10156106965760405162461bcd60e51b815260206004820152601d60248201527f596f75206e65656420746f20617070726f766520573252206669727374000000604482015260640161056e565b6000600354836106a69190612672565b9050612710600a54826106b99190612694565b6106c4906064612694565b10156106cf57600080fd5b6000612710600a54836106e29190612694565b6106ed906064612694565b6106f79190612672565b90508161271060075460045461070d9190612694565b610718906064612694565b6107229190612672565b10156107965760405162461bcd60e51b815260206004820152603d60248201527f596f752063616e27742073776170206d6f7265207468616e203525206f66207460448201527f686520636f6e74726163742773204d41544943206c6971756964697479000000606482015260840161056e565b80600860008282546107a891906126ab565b909155506107b8905081836126be565b600460008282546107c991906126be565b9250508190555083600560008282546107e291906126ab565b90915550506001546107ff906001600160a01b0316333087612101565b6001925060003361081083856126be565b604051600081818185875af1925050503d806000811461084c576040519150601f19603f3d011682016040523d82523d6000602084013e610851565b606091505b5050905060009350806108995760405162461bcd60e51b815260206004820152601060248201526f2a3930b739b332b9103330b4b632b21760811b604482015260640161056e565b60408051868152602081018590524281830152905133917fa5753ab11bf99f3fce97d5d308a4fa395f21cddb5de19469d996a1f391905d73919081900360600190a25050505050565b6108ea612172565b6000811180156108fb575060648111155b61097e5760405162461bcd60e51b815260206004820152604860248201527f53656375726974792070657263656e74616765206d757374206265206772656160448201527f746572207468616e203020616e64206c657373207468616e206f72206571756160648201526706c20746f203130360c41b608482015260a40161056e565b600755565b600254604051632b2540bd60e01b81526001600160a01b0383811660048301526000921690632b2540bd90602401602060405180830381865afa1580156109ce573d6000803e3d6000fd5b505050506040513d601f19601f820116820180604052508101906109f291906126d1565b92915050565b600033610a175760405162461bcd60e51b815260040161056e906126f3565b336000908152600d60205260408120600181015490549091610a3982426126be565b90506000670de0b6b3a76400006006548386610a559190612694565b610a5f9190612694565b610a699190612672565b95945050505050565b33610a8f5760405162461bcd60e51b815260040161056e906126f3565b336000908152600d602052604090206001015480610aef5760405162461bcd60e51b815260206004820152601d60248201527f4e6f204c5020746f6b656e7320746f20636c61696d2072657761726473000000604482015260640161056e565b6000610af96121cc565b905060008111610b425760405162461bcd60e51b81526020600482015260146024820152734e6f207265776172647320617661696c61626c6560601b604482015260640161056e565b336000818152600d602052604090819020428155600b54915163255d23d760e11b8152600481019390935260248301849052916001600160a01b0390911690634aba47ae90604401600060405180830381600087803b158015610ba457600080fd5b505af1158015610bb8573d6000803e3d6000fd5b5050604080518581524260208201523393507f71bab65ced2e5750775a0613be067df48ef06cf92a496ebf7663ae06609249549250015b60405180910390a2505050565b610c04612172565b33610c215760405162461bcd60e51b815260040161056e906126f3565b600060095415610c9a57600980546000909155600b5460405163255d23d760e11b8152336004820152602481018390526001600160a01b0390911690634aba47ae90604401600060405180830381600087803b158015610c8057600080fd5b505af1158015610c94573d6000803e3d6000fd5b50505050505b60085415610d4b5760088054600091829055604051909190339083908381818185875af1925050503d8060008114610cee576040519150601f19603f3d011682016040523d82523d6000602084013e610cf3565b606091505b505090506001925080610d485760405162461bcd60e51b815260206004820152601760248201527f4661696c656420746f2077697468647261772066656573000000000000000000604482015260640161056e565b50505b50565b60008111610d6e5760405162461bcd60e51b815260040161056e90612602565b60003411610d8e5760405162461bcd60e51b815260040161056e9061271c565b600154604051636eb1769f60e11b815233600482015230602482015282916001600160a01b03169063dd62ed3e90604401602060405180830381865afa158015610ddc573d6000803e3d6000fd5b505050506040513d601f19601f82011682018060405250810190610e009190612643565b1015610e4e5760405162461bcd60e51b815260206004820152601d60248201527f596f75206e65656420746f20617070726f766520573252206669727374000000604482015260640161056e565b34612710610e5e8361012c612694565b1015610e6957600080fd5b612710610e788361012c612694565b610e829190612672565b610e8c90836126be565b600354610e999083612694565b10158015610ed55750612710610eb18361012c612694565b610ebb9190612672565b610ec590836126ab565b600354610ed29083612694565b11155b610f3c5760405162461bcd60e51b815260206004820152603260248201527f4d415449432d57325220726174696f206973206e6f742077697468696e2074686044820152716520616c6c6f77656420736c69707061676560701b606482015260840161056e565b60006004546000148015610f505750600554155b15610f6657506004819055600582905580611106565b6000600354600554610f789190612672565b600454610f8591906126ab565b905080610f9a84670de0b6b3a7640000612694565b610fa49190612672565b91506064600754600260009054906101000a90046001600160a01b03166001600160a01b03166318160ddd6040518163ffffffff1660e01b8152600401602060405180830381865afa158015610ffe573d6000803e3d6000fd5b505050506040513d601f19601f820116820180604052508101906110229190612643565b61102c9190612694565b101561103757600080fd5b61271060075460055461104a9190612694565b611055906064612694565b61105f9190612672565b8411156110d45760405162461bcd60e51b815260206004820152603d60248201527f596f752063616e277420616464206d6f7265207468616e20746865207365637560448201527f726974792025206f662074686520746f74616c204c5020737570706c79000000606482015260840161056e565b82600460008282546110e691906126ab565b9250508190555083600560008282546110ff91906126ab565b9091555050505b336000908152600c6020526040812080548392906111259084906126ab565b90915550506002546040516340c10f1960e01b8152306004820152602481018390526001600160a01b03909116906340c10f1990604401600060405180830381600087803b15801561117657600080fd5b505af115801561118a573d6000803e3d6000fd5b50506002546111a692506001600160a01b0316905033836122d7565b6001546111be906001600160a01b0316333086612101565b604080518381526020810185905290810182905233907fbeb3885786d637a474cbc287c0a44587231633a077f0bd30354d5a4b18996fce90606001610bef565b806000811161124f5760405162461bcd60e51b815260206004820181905260248201527f4c5020616d6f756e74206d7573742062652067726561746572207468616e2030604482015260640161056e565b600254604051636eb1769f60e11b815233600482015230602482015282916001600160a01b03169063dd62ed3e90604401602060405180830381865afa15801561129d573d6000803e3d6000fd5b505050506040513d601f19601f820116820180604052508101906112c19190612643565b10156112df5760405162461bcd60e51b815260040161056e9061275f565b336000908152600c6020526040902054811180159061136857506002546040516370a0823160e01b815233600482015282916001600160a01b0316906370a0823190602401602060405180830381865afa158015611341573d6000803e3d6000fd5b505050506040513d601f19601f820116820180604052508101906113659190612643565b10155b6113845760405162461bcd60e51b815260040161056e906127a1565b336000908152600c60205260409020548111156113da5760405162461bcd60e51b81526020600482015260146024820152734e6f7420656e6f756768204c5020746f6b656e7360601b604482015260640161056e565b336000908152600c6020526040812080548492906113f99084906126be565b9091555050336000908152600d60205260408120600181018054919285926114229084906126ab565b9091555050428155600254611442906001600160a01b0316333086612101565b6040805184815242602082015233917f9fc16615f48f603b9164a63f0ff1c7bc4c2b67fb3a51ecfd9856b0c843c9c0229101610bef565b611481612172565b61148b6000612307565b565b600034116114ad5760405162461bcd60e51b815260040161056e9061271c565b612710600a54346114be9190612694565b6114c9906064612694565b10156114d457600080fd5b6000612710600a54346114e79190612694565b6114f2906064612694565b6114fc9190612672565b90506000600354823461150f91906126be565b6115199190612694565b90506000811161153b5760405162461bcd60e51b815260040161056e90612602565b61271060075460055461154e9190612694565b611559906064612694565b101561156457600080fd5b806127106007546005546115789190612694565b611583906064612694565b61158d9190612672565b10156115f75760405162461bcd60e51b815260206004820152603360248201527f596f752063616e27742073776170206d6f7265207468616e203525206f662074604482015272686520746f74616c2057325220737570706c7960681b606482015260840161056e565b816008600082825461160991906126ab565b90915550611619905082346126be565b6004600082825461162a91906126ab565b92505081905550806005600082825461164391906126be565b909155505060015461165f906001600160a01b031633836122d7565b6040805134815260208101839052429181019190915233907f228d47c99c3df2f0352ef63baed152c51569c5547cb3c098f724742633b5eb27906060015b60405180910390a25050565b80600081116116fa5760405162461bcd60e51b815260206004820181905260248201527f4c5020616d6f756e74206d7573742062652067726561746572207468616e2030604482015260640161056e565b600254604051636eb1769f60e11b815233600482015230602482015282916001600160a01b03169063dd62ed3e90604401602060405180830381865afa158015611748573d6000803e3d6000fd5b505050506040513d601f19601f8201168201806040525081019061176c9190612643565b101561178a5760405162461bcd60e51b815260040161056e9061275f565b336000908152600c6020526040902054811180159061181357506002546040516370a0823160e01b815233600482015282916001600160a01b0316906370a0823190602401602060405180830381865afa1580156117ec573d6000803e3d6000fd5b505050506040513d601f19601f820116820180604052508101906118109190612643565b10155b61182f5760405162461bcd60e51b815260040161056e906127a1565b336000908152600c60205260409020548111156118855760405162461bcd60e51b81526020600482015260146024820152734e6f7420656e6f756768204c5020746f6b656e7360601b604482015260640161056e565b6000600254604080516318160ddd60e01b815290516000926001600160a01b0316916318160ddd9160048083019260209291908290030181865afa1580156118d1573d6000803e3d6000fd5b505050506040513d601f19601f820116820180604052508101906118f59190612643565b1161193b5760405162461bcd60e51b81526020600482015260166024820152754e6f206c697175696469747920746f2072656d6f766560501b604482015260640161056e565b600060045411801561194f57506000600554115b6119945760405162461bcd60e51b81526020600482015260166024820152754e6f206c697175696469747920746f2072656d6f766560501b604482015260640161056e565b600254604080516318160ddd60e01b815290516000926001600160a01b0316916318160ddd9160048083019260209291908290030181865afa1580156119de573d6000803e3d6000fd5b505050506040513d601f19601f82011682018060405250810190611a029190612643565b600454611a0f9086612694565b611a199190612672565b90506000600260009054906101000a90046001600160a01b03166001600160a01b03166318160ddd6040518163ffffffff1660e01b8152600401602060405180830381865afa158015611a70573d6000803e3d6000fd5b505050506040513d601f19601f82011682018060405250810190611a949190612643565b600554611aa19087612694565b611aab9190612672565b336000908152600c6020526040812080549293508792909190611acf9084906126be565b925050819055508160046000828254611ae891906126be565b925050819055508060056000828254611b0191906126be565b9091555050600154611b1d906001600160a01b031633836122d7565b6002546040516323b872dd60e01b8152336004820152306024820152604481018790526001600160a01b03909116906323b872dd906064016020604051808303816000875af1158015611b74573d6000803e3d6000fd5b505050506040513d601f19601f82011682018060405250810190611b9891906126d1565b50600254604051630852cd8d60e31b8152600481018790526001600160a01b03909116906342966c6890602401600060405180830381600087803b158015611bdf57600080fd5b505af1158015611bf3573d6000803e3d6000fd5b5050604051600195506000925033915084908381818185875af1925050503d8060008114611c3d576040519150601f19603f3d011682016040523d82523d6000602084013e611c42565b606091505b505090506000935080611c8e5760405162461bcd60e51b81526020600482015260146024820152734661696c656420746f2073656e64204d4154494360601b604482015260640161056e565b604080518481526020810184905290810187905233907f59c3a0b60c6ab7deb62e1440c9e72441db6db7dfe514dba8cb18e60c0d896efa9060600160405180910390a2505050505050565b611ce1612172565b60008111611d3c5760405162461bcd60e51b815260206004820152602260248201527f5265776172642072617465206d7573742062652067726561746572207468616e604482015261020360f41b606482015260840161056e565b600655565b6001546040516370a0823160e01b815233600482015260009182916001600160a01b03909116906370a0823190602401602060405180830381865afa158015611d8e573d6000803e3d6000fd5b505050506040513d601f19601f82011682018060405250810190611db29190612643565b6002546040516370a0823160e01b81523360048201526001600160a01b03909116906370a0823190602401602060405180830381865afa158015611dfa573d6000803e3d6000fd5b505050506040513d601f19601f82011682018060405250810190611e1e9190612643565b915091509091565b33611e435760405162461bcd60e51b815260040161056e906126f3565b336000908152600d602052604090206001015480611ea35760405162461bcd60e51b815260206004820152601d60248201527f4e6f204c5020746f6b656e7320746f20636c61696d2072657761726473000000604482015260640161056e565b611eab610a72565b336000908152600d6020526040812060018101805491928492611ecf9084906126be565b9091555050336000908152600c602052604081208054849290611ef39084906126ab565b9091555050600254611f0f906001600160a01b031633846122d7565b6040805183815242602082015233917f9c17b9b1252c31bf8727169baa67751ad5869f505488283af0f2c09cb26320bc910161169d565b611f4e612172565b6001600160a01b038116611fb35760405162461bcd60e51b815260206004820152602660248201527f4f776e61626c653a206e6577206f776e657220697320746865207a65726f206160448201526564647265737360d01b606482015260840161056e565b610d4b81612307565b611fc4612172565b600081116120145760405162461bcd60e51b815260206004820181905260248201527f537761702072617465206d7573742062652067726561746572207468616e2030604482015260640161056e565b600355565b6001546040516370a0823160e01b8152306004820152600091829182916001600160a01b0316906370a0823190602401602060405180830381865afa158015612066573d6000803e3d6000fd5b505050506040513d601f19601f8201168201806040525081019061208a9190612643565b6002546040516370a0823160e01b815230600482015247916001600160a01b0316906370a0823190602401602060405180830381865afa1580156120d2573d6000803e3d6000fd5b505050506040513d601f19601f820116820180604052508101906120f69190612643565b925092509250909192565b6040516001600160a01b038085166024830152831660448201526064810182905261216c9085906323b872dd60e01b906084015b60408051601f198184030181529190526020810180516001600160e01b03166001600160e01b031990931692909217909152612357565b50505050565b6000546001600160a01b0316331461148b5760405162461bcd60e51b815260206004820181905260248201527f4f776e61626c653a2063616c6c6572206973206e6f7420746865206f776e6572604482015260640161056e565b336000908152600d602052604081206001810154905482906121ee90426126be565b90506000670de0b6b3a7640000600654838561220a9190612694565b6122149190612694565b61221e9190612672565b9050612710600a54826122319190612694565b61223c906064612694565b101561227e5760405162461bcd60e51b815260206004820152601160248201527008ccacae640c2e4ca40e8dede40d0d2ced607b1b604482015260640161056e565b6000612710600a54836122919190612694565b61229c906064612694565b6122a69190612672565b905060006122b482846126be565b905081600960008282546122c891906126ab565b90915550909695505050505050565b6040516001600160a01b038316602482015260448101829052610d4890849063a9059cbb60e01b90606401612135565b600080546001600160a01b038381166001600160a01b0319831681178455604051919092169283917f8be0079c531659141344cd1fd0a4f28419497f9722a3daafe3b4186f6b6457e09190a35050565b60006123ac826040518060400160405280602081526020017f5361666545524332303a206c6f772d6c6576656c2063616c6c206661696c6564815250856001600160a01b03166124299092919063ffffffff16565b805190915015610d4857808060200190518101906123ca91906126d1565b610d485760405162461bcd60e51b815260206004820152602a60248201527f5361666545524332303a204552433230206f7065726174696f6e20646964206e6044820152691bdd081cdd58d8d9595960b21b606482015260840161056e565b60606124388484600085612440565b949350505050565b6060824710156124a15760405162461bcd60e51b815260206004820152602660248201527f416464726573733a20696e73756666696369656e742062616c616e636520666f6044820152651c8818d85b1b60d21b606482015260840161056e565b600080866001600160a01b031685876040516124bd919061280b565b60006040518083038185875af1925050503d80600081146124fa576040519150601f19603f3d011682016040523d82523d6000602084013e6124ff565b606091505b50915091506125108783838761251b565b979650505050505050565b6060831561258a578251600003612583576001600160a01b0385163b6125835760405162461bcd60e51b815260206004820152601d60248201527f416464726573733a2063616c6c20746f206e6f6e2d636f6e7472616374000000604482015260640161056e565b5081612438565b612438838381511561259f5781518083602001fd5b8060405162461bcd60e51b815260040161056e9190612827565b6000602082840312156125cb57600080fd5b5035919050565b6000602082840312156125e457600080fd5b81356001600160a01b03811681146125fb57600080fd5b9392505050565b60208082526021908201527f57325220616d6f756e74206d7573742062652067726561746572207468616e206040820152600360fc1b606082015260800190565b60006020828403121561265557600080fd5b5051919050565b634e487b7160e01b600052601160045260246000fd5b60008261268f57634e487b7160e01b600052601260045260246000fd5b500490565b80820281158282048414176109f2576109f261265c565b808201808211156109f2576109f261265c565b818103818111156109f2576109f261265c565b6000602082840312156126e357600080fd5b815180151581146125fb57600080fd5b6020808252600f908201526e496e76616c6964206164647265737360881b604082015260600190565b60208082526023908201527f4d4154494320616d6f756e74206d75737420626520677265617465722074686160408201526206e20360ec1b606082015260800190565b60208082526022908201527f596f75206e65656420746f20617070726f7665204c5020746f6b656e206669726040820152611cdd60f21b606082015260800190565b60208082526026908201527f596f7520646f6e2774206861766520616e79204c5020746f6b656e7320746f2060408201526572656d6f766560d01b606082015260800190565b60005b838110156128025781810151838201526020016127ea565b50506000910152565b6000825161281d8184602087016127e7565b9190910192915050565b60208152600082518060208401526128468160408501602087016127e7565b601f01601f1916919091016040019291505056fea26469706673582212201df665d96d1e55d0efe42b3c5fbb5bf55b12d022aa676dcb8c1f9ea26226f57564736f6c63430008120033",
  "immutableReferences": {},
  "source": "// SPDX-License-Identifier: MIT\npragma solidity ^0.8.9;\n\nimport \"@openzeppelin/contracts/token/ERC20/ERC20.sol\";\nimport \"@openzeppelin/contracts/token/ERC20/extensions/ERC20Burnable.sol\";\nimport \"@openzeppelin/contracts/token/ERC20/utils/SafeERC20.sol\";\nimport \"@openzeppelin/contracts/access/Ownable.sol\";\n\ninterface I5VaultW2R {\n    function distributeW2R(address receiver, uint amount) external;\n}\n\ninterface IMaticW2RPairToken is IERC20 {\n    function checkMinterAndBurner(\n        address authorized\n    ) external view returns (bool);\n\n    function mint(address to, uint amount) external;\n\n    function burn(uint256 amount) external;\n}\n\ncontract MaticW2Rdex is Ownable {\n    using SafeERC20 for IERC20;\n    using SafeERC20 for IMaticW2RPairToken;\n    IERC20 public W2R;\n    IMaticW2RPairToken public lpToken;\n    uint public swapRate;\n    uint public totalMaticLiquidity;\n    uint public totalW2RLiquidity;\n    uint public rewardRatePerSecond;\n    uint public securityPercentage;\n    uint public totalMaticFees;\n    uint public totalW2RFees;\n    uint public feesPercent;\n\n    I5VaultW2R vaultW2R;\n\n    // balance de LP Token sur les Wallets\n    mapping(address => uint) public LPBalance;\n    // caractristiques du farming\n    mapping(address => Farming) public farming;\n\n    struct Farming {\n        uint lastTime;\n        uint lpAmount;\n    }\n\n    event SwapMaticForW2R(\n        address indexed user,\n        uint maticAmount,\n        uint w2rAmount,\n        uint date\n    );\n    event SwapW2RForMatic(\n        address indexed user,\n        uint w2rAmount,\n        uint maticAmount,\n        uint date\n    );\n\n    event AddLiquidity(\n        address indexed user,\n        uint maticAmount,\n        uint w2rAmount,\n        uint lpAmount\n    );\n    event RemoveLiquidity(\n        address indexed user,\n        uint lpAmount,\n        uint maticAmount,\n        uint w2rAmount\n    );\n    event Farm(address indexed user, uint lpAmount, uint date);\n    event Harvest(address indexed user, uint rewards, uint date);\n    event ExitFarm(address indexed user, uint lpAmount, uint date);\n\n    constructor(\n        address W2RAddress,\n        uint initialSwapRate,\n        address vaultW2RAddress,\n        address lpTokenAddress\n    ) {\n        require(W2RAddress != address(0), \"W2R address cannot be 0x0\");\n        require(initialSwapRate > 0, \"Swap rate must be greater than 0\");\n        require(\n            vaultW2RAddress != address(0),\n            \"Vault W2R address cannot be 0x0\"\n        );\n        W2R = IERC20(W2RAddress);\n        lpToken = IMaticW2RPairToken(lpTokenAddress);\n        swapRate = initialSwapRate;\n        rewardRatePerSecond = 10 ** 10; // 30% de la valeur initiale MATIC-W2R rcompense en W2R par an\n        vaultW2R = I5VaultW2R(vaultW2RAddress);\n        securityPercentage = 5;\n        feesPercent = 1;\n    }\n\n    modifier checkLPAmount(uint lpAmount) {\n        require(lpAmount > 0, \"LP amount must be greater than 0\");\n\n        require(\n            lpToken.allowance(msg.sender, address(this)) >= lpAmount,\n            \"You need to approve LP token first\"\n        );\n        require(\n            LPBalance[msg.sender] >= lpAmount &&\n                lpToken.balanceOf(msg.sender) >= lpAmount,\n            \"You don't have any LP tokens to remove\"\n        );\n        require(lpAmount <= LPBalance[msg.sender], \"Not enough LP tokens\");\n\n        _;\n    }\n\n    function getContractBalances() external view returns (uint, uint, uint) {\n        // W2R, MATIC, LP\n        return (\n            W2R.balanceOf(address(this)),\n            address(this).balance,\n            lpToken.balanceOf(address(this))\n        );\n    }\n\n    function getUserBalances() external view returns (uint, uint) {\n        return (W2R.balanceOf(msg.sender), lpToken.balanceOf(msg.sender));\n    }\n\n    function checkIfAuthorizedInLPcontract(\n        address _toCheck\n    ) public view returns (bool) {\n        return lpToken.checkMinterAndBurner(_toCheck);\n    }\n\n    function swapMaticForW2R() external payable {\n        require(msg.value > 0, \"MATIC amount must be greater than 0\");\n        require((msg.value * feesPercent * 100) >= 10000);\n        uint fees = (msg.value * feesPercent * 100) / 10000;\n        uint w2rAmount = (msg.value - fees) * swapRate;\n        require(w2rAmount > 0, \"W2R amount must be greater than 0\");\n        require((totalW2RLiquidity * securityPercentage * 100) >= 10000);\n        require(\n            (totalW2RLiquidity * securityPercentage * 100) / 10000 >= w2rAmount,\n            \"You can't swap more than 5% of the total W2R supply\"\n        );\n        totalMaticFees += fees;\n        totalMaticLiquidity += (msg.value - fees);\n        totalW2RLiquidity -= w2rAmount;\n        // transfer w2r to user\n        W2R.safeTransfer(msg.sender, w2rAmount);\n        emit SwapMaticForW2R(msg.sender, msg.value, w2rAmount, block.timestamp);\n    }\n\n    // entrer un montant incluant les dcimales, en wei, pour matic et W2R\n    function swapW2RForMatic(uint w2rAmount) external {\n        bool guard;\n        require(!guard, \"ReentrancyGuard: reentrant call\");\n        require(msg.sender.balance > 0, \"for MATIC fees\");\n        require(w2rAmount > 0, \"W2R amount must be greater than 0\");\n        require(\n            W2R.allowance(msg.sender, address(this)) >= w2rAmount,\n            \"You need to approve W2R first\"\n        );\n        uint maticAmount = w2rAmount / swapRate;\n        require((maticAmount * feesPercent * 100) >= 10000);\n        uint fee = (maticAmount * feesPercent * 100) / 10000;\n        require(\n            (totalMaticLiquidity * securityPercentage * 100) / 10000 >=\n                maticAmount,\n            \"You can't swap more than 5% of the contract's MATIC liquidity\"\n        );\n        totalMaticFees += fee;\n        totalMaticLiquidity -= (maticAmount - fee);\n        totalW2RLiquidity += w2rAmount;\n        W2R.safeTransferFrom(msg.sender, address(this), w2rAmount);\n        guard = true;\n        (bool success, ) = payable(msg.sender).call{value: maticAmount - fee}(\n            \"\"\n        );\n        guard = false;\n        require(success, \"Transfer failed.\");\n        emit SwapW2RForMatic(\n            msg.sender,\n            w2rAmount,\n            maticAmount,\n            block.timestamp\n        );\n    }\n\n    function addLiquidity(uint w2rAmount) external payable {\n        require(w2rAmount > 0, \"W2R amount must be greater than 0\");\n        require(msg.value > 0, \"MATIC amount must be greater than 0\");\n        require(\n            W2R.allowance(msg.sender, address(this)) >= w2rAmount,\n            \"You need to approve W2R first\"\n        );\n        uint maticAmount = msg.value;\n        require((w2rAmount * 300) >= 10000);\n        // limit tolerance to 3% for MATIC-W2R ratio of 10\n        require(\n            maticAmount * swapRate >= w2rAmount - ((w2rAmount * 300) / 10000) &&\n                maticAmount * swapRate <=\n                w2rAmount + ((w2rAmount * 300) / 10000),\n            \"MATIC-W2R ratio is not within the allowed slippage\"\n        );\n        uint lpAmount;\n        if (totalMaticLiquidity == 0 && totalW2RLiquidity == 0) {\n            lpAmount = maticAmount; // Initial liquidity is 1:1\n            totalMaticLiquidity = maticAmount;\n            totalW2RLiquidity = w2rAmount;\n        } else {\n            uint totalLiquidity = totalMaticLiquidity +\n                totalW2RLiquidity /\n                swapRate;\n            lpAmount = (maticAmount * 1e18) / totalLiquidity;\n            // prevent a user to have too much power on the contract\n            require((lpToken.totalSupply() * securityPercentage) >= 100);\n            require(\n                w2rAmount <=\n                    (totalW2RLiquidity * securityPercentage * 100) / 10000,\n                \"You can't add more than the security % of the total LP supply\"\n            );\n            totalMaticLiquidity += maticAmount;\n            totalW2RLiquidity += w2rAmount;\n        }\n        LPBalance[msg.sender] += lpAmount;\n        lpToken.mint(address(this), lpAmount);\n        lpToken.safeTransfer(msg.sender, lpAmount);\n        W2R.safeTransferFrom(msg.sender, address(this), w2rAmount);\n        emit AddLiquidity(msg.sender, maticAmount, w2rAmount, lpAmount);\n    }\n\n    function removeLiquidity(uint lpAmount) external checkLPAmount(lpAmount) {\n        bool guard;\n        require(!guard, \"ReentrancyGuard: reentrant call\");\n        require(lpToken.totalSupply() > 0, \"No liquidity to remove\");\n        require(\n            totalMaticLiquidity > 0 && totalW2RLiquidity > 0,\n            \"No liquidity to remove\"\n        );\n        // Calculate the amount of MATIC and W2R to refund to the user based on existing LP tokens\n        uint maticAmount = (lpAmount * totalMaticLiquidity) /\n            lpToken.totalSupply();\n        uint w2rAmount = (lpAmount * totalW2RLiquidity) / lpToken.totalSupply();\n        // update liquidity\n        LPBalance[msg.sender] -= lpAmount;\n        totalMaticLiquidity -= maticAmount;\n        totalW2RLiquidity -= w2rAmount;\n        W2R.safeTransfer(msg.sender, w2rAmount);\n        lpToken.transferFrom(msg.sender, address(this), lpAmount);\n        lpToken.burn(lpAmount);\n        guard = true;\n        (bool success, ) = payable(msg.sender).call{value: maticAmount}(\"\");\n        guard = false;\n        require(success, \"Failed to send MATIC\");\n        emit RemoveLiquidity(msg.sender, maticAmount, w2rAmount, lpAmount);\n    }\n\n    function farm(uint lpAmount) external checkLPAmount(lpAmount) {\n        // check if user has already farmed\n        LPBalance[msg.sender] -= lpAmount;\n        // update farming struct\n        Farming storage user = farming[msg.sender];\n        user.lpAmount += lpAmount;\n        user.lastTime = block.timestamp;\n        lpToken.safeTransferFrom(msg.sender, address(this), lpAmount);\n        emit Farm(msg.sender, lpAmount, block.timestamp);\n    }\n\n    function exitFarm() external {\n        require(msg.sender != address(0), \"Invalid address\");\n        uint lpBalance = farming[msg.sender].lpAmount;\n        require(lpBalance > 0, \"No LP tokens to claim rewards\");\n        harvest();\n        Farming storage user = farming[msg.sender];\n        user.lpAmount -= lpBalance;\n        LPBalance[msg.sender] += lpBalance;\n        lpToken.safeTransfer(msg.sender, lpBalance);\n        emit ExitFarm(msg.sender, lpBalance, block.timestamp);\n    }\n\n    function viewRewards() external view returns (uint) {\n        require(msg.sender != address(0), \"Invalid address\");\n        uint lpBalance = farming[msg.sender].lpAmount;\n        uint lastTime = farming[msg.sender].lastTime;\n        uint timeElapsed = block.timestamp - lastTime;\n        uint reward = (lpBalance * timeElapsed * rewardRatePerSecond) /\n            10 ** 18;\n        return reward;\n    }\n\n    function calculateReward() private returns (uint) {\n        uint lpBalance = farming[msg.sender].lpAmount;\n        uint timeElapsed = block.timestamp - farming[msg.sender].lastTime;\n        uint basis = (lpBalance * timeElapsed * rewardRatePerSecond) / 10 ** 18;\n        require((basis * feesPercent * 100) >= 10000, \"Fees are too high\");\n        uint fees = (basis * feesPercent * 100) / 10000;\n        uint reward = basis - fees;\n        totalW2RFees += fees;\n        return reward;\n    }\n\n    function harvest() public {\n        require(msg.sender != address(0), \"Invalid address\");\n        uint lpBalance = farming[msg.sender].lpAmount;\n        require(lpBalance > 0, \"No LP tokens to claim rewards\");\n        uint reward = calculateReward();\n        require(reward > 0, \"No rewards available\");\n        Farming storage user = farming[msg.sender];\n        user.lastTime = block.timestamp;\n        vaultW2R.distributeW2R(msg.sender, reward);\n        emit Harvest(msg.sender, reward, block.timestamp);\n    }\n\n    function setSwapRate(uint newSwapRate) external onlyOwner {\n        require(newSwapRate > 0, \"Swap rate must be greater than 0\");\n        swapRate = newSwapRate;\n    }\n\n    function setRewardRate(uint _newRewardRate) external onlyOwner {\n        require(_newRewardRate > 0, \"Reward rate must be greater than 0\");\n        rewardRatePerSecond = _newRewardRate;\n    }\n\n    function setSecurityPercentage(\n        uint _newSecurityPercentage\n    ) external onlyOwner {\n        require(\n            _newSecurityPercentage > 0 && _newSecurityPercentage <= 100,\n            \"Security percentage must be greater than 0 and less than or equal to 100\"\n        );\n        securityPercentage = _newSecurityPercentage;\n    }\n\n    function withdrawFees() external onlyOwner {\n        require(msg.sender != address(0), \"Invalid address\");\n        bool guard; // even if it's the owner, we don't want reentrancy !\n        require(!guard, \"ReentrancyGuard: reentrant call\");\n        if (totalW2RFees > 0) {\n            uint w2rToSend = totalW2RFees;\n            totalW2RFees = 0;\n            vaultW2R.distributeW2R(msg.sender, w2rToSend);\n        }\n        if (totalMaticFees > 0) {\n            uint amount = totalMaticFees;\n            totalMaticFees = 0;\n            (bool success, ) = payable(msg.sender).call{value: amount}(\"\");\n            guard = true;\n            require(success, \"Failed to withdraw fees\");\n        }\n    }\n\n    receive() external payable {}\n}\n",
  "sourcePath": "/Users/harbinger/Dropbox/Dossier familial/Formation Blockchain/Alyra/Projet Certification/Projet Alyra 2Wheels2Rent/truffle/contracts/MaticW2Rdex.sol",
  "compiler": {
    "name": "solc",
    "version": "0.8.18+commit.87f61d96.Emscripten.clang"
  },
  "schemaVersion": "3.4.12",
  "updatedAt": "2023-04-04T21:15:51.616Z",
  "networkType": "ethereum",
  "devdoc": {
    "kind": "dev",
    "methods": {
      "owner()": {
        "details": "Returns the address of the current owner."
      },
      "renounceOwnership()": {
        "details": "Leaves the contract without owner. It will not be possible to call `onlyOwner` functions anymore. Can only be called by the current owner. NOTE: Renouncing ownership will leave the contract without an owner, thereby removing any functionality that is only available to the owner."
      },
      "transferOwnership(address)": {
        "details": "Transfers ownership of the contract to a new account (`newOwner`). Can only be called by the current owner."
      }
    },
    "version": 1
  },
  "userdoc": {
    "kind": "user",
    "methods": {},
    "version": 1
  }
}