{
  "contractName": "MockPriceFeed",
  "abi": [
    {
      "inputs": [
        {
          "internalType": "uint8",
          "name": "_decimals",
          "type": "uint8"
        },
        {
          "internalType": "int256",
          "name": "_initialAnswer",
          "type": "int256"
        }
      ],
      "stateMutability": "nonpayable",
      "type": "constructor"
    },
    {
      "anonymous": false,
      "inputs": [
        {
          "indexed": true,
          "internalType": "int256",
          "name": "current",
          "type": "int256"
        },
        {
          "indexed": true,
          "internalType": "uint256",
          "name": "roundId",
          "type": "uint256"
        },
        {
          "indexed": false,
          "internalType": "uint256",
          "name": "updatedAt",
          "type": "uint256"
        }
      ],
      "name": "AnswerUpdated",
      "type": "event"
    },
    {
      "anonymous": false,
      "inputs": [
        {
          "indexed": true,
          "internalType": "uint256",
          "name": "roundId",
          "type": "uint256"
        },
        {
          "indexed": true,
          "internalType": "address",
          "name": "startedBy",
          "type": "address"
        },
        {
          "indexed": false,
          "internalType": "uint256",
          "name": "startedAt",
          "type": "uint256"
        }
      ],
      "name": "NewRound",
      "type": "event"
    },
    {
      "inputs": [],
      "name": "decimals",
      "outputs": [
        {
          "internalType": "uint8",
          "name": "",
          "type": "uint8"
        }
      ],
      "stateMutability": "view",
      "type": "function",
      "constant": true
    },
    {
      "inputs": [],
      "name": "description",
      "outputs": [
        {
          "internalType": "string",
          "name": "",
          "type": "string"
        }
      ],
      "stateMutability": "pure",
      "type": "function",
      "constant": true
    },
    {
      "inputs": [
        {
          "internalType": "uint256",
          "name": "",
          "type": "uint256"
        }
      ],
      "name": "getAnswer",
      "outputs": [
        {
          "internalType": "int256",
          "name": "",
          "type": "int256"
        }
      ],
      "stateMutability": "view",
      "type": "function",
      "constant": true
    },
    {
      "inputs": [
        {
          "internalType": "uint80",
          "name": "_roundId",
          "type": "uint80"
        }
      ],
      "name": "getRoundData",
      "outputs": [
        {
          "internalType": "uint80",
          "name": "roundId",
          "type": "uint80"
        },
        {
          "internalType": "int256",
          "name": "answer",
          "type": "int256"
        },
        {
          "internalType": "uint256",
          "name": "startedAt",
          "type": "uint256"
        },
        {
          "internalType": "uint256",
          "name": "updatedAt",
          "type": "uint256"
        },
        {
          "internalType": "uint80",
          "name": "answeredInRound",
          "type": "uint80"
        }
      ],
      "stateMutability": "view",
      "type": "function",
      "constant": true
    },
    {
      "inputs": [
        {
          "internalType": "uint256",
          "name": "",
          "type": "uint256"
        }
      ],
      "name": "getTimestamp",
      "outputs": [
        {
          "internalType": "uint256",
          "name": "",
          "type": "uint256"
        }
      ],
      "stateMutability": "view",
      "type": "function",
      "constant": true
    },
    {
      "inputs": [],
      "name": "latestAnswer",
      "outputs": [
        {
          "internalType": "int256",
          "name": "",
          "type": "int256"
        }
      ],
      "stateMutability": "view",
      "type": "function",
      "constant": true
    },
    {
      "inputs": [],
      "name": "latestRound",
      "outputs": [
        {
          "internalType": "uint256",
          "name": "",
          "type": "uint256"
        }
      ],
      "stateMutability": "view",
      "type": "function",
      "constant": true
    },
    {
      "inputs": [],
      "name": "latestRoundData",
      "outputs": [
        {
          "internalType": "uint80",
          "name": "roundId",
          "type": "uint80"
        },
        {
          "internalType": "int256",
          "name": "answer",
          "type": "int256"
        },
        {
          "internalType": "uint256",
          "name": "startedAt",
          "type": "uint256"
        },
        {
          "internalType": "uint256",
          "name": "updatedAt",
          "type": "uint256"
        },
        {
          "internalType": "uint80",
          "name": "answeredInRound",
          "type": "uint80"
        }
      ],
      "stateMutability": "view",
      "type": "function",
      "constant": true
    },
    {
      "inputs": [],
      "name": "latestTimestamp",
      "outputs": [
        {
          "internalType": "uint256",
          "name": "",
          "type": "uint256"
        }
      ],
      "stateMutability": "view",
      "type": "function",
      "constant": true
    },
    {
      "inputs": [
        {
          "internalType": "int256",
          "name": "_answer",
          "type": "int256"
        }
      ],
      "name": "updateAnswer",
      "outputs": [],
      "stateMutability": "nonpayable",
      "type": "function"
    },
    {
      "inputs": [
        {
          "internalType": "uint80",
          "name": "_roundId",
          "type": "uint80"
        },
        {
          "internalType": "int256",
          "name": "_answer",
          "type": "int256"
        },
        {
          "internalType": "uint256",
          "name": "_timestamp",
          "type": "uint256"
        },
        {
          "internalType": "uint256",
          "name": "_startedAt",
          "type": "uint256"
        }
      ],
      "name": "updateRoundData",
      "outputs": [],
      "stateMutability": "nonpayable",
      "type": "function"
    },
    {
      "inputs": [],
      "name": "version",
      "outputs": [
        {
          "internalType": "uint256",
          "name": "",
          "type": "uint256"
        }
      ],
      "stateMutability": "view",
      "type": "function",
      "constant": true
    }
  ],
  "bytecode": "0x608060405234801561001057600080fd5b5060405161054c38038061054c83398101604081905261002f916100a8565b6000805460ff191660ff8416179055818161004981610052565b50505050610103565b6001819055426002556003805490600061006b836100dc565b9091555050600380546000908152600460209081526040808320949094558254825260058152838220429081905592548252600690529190912055565b600080604083850312156100bb57600080fd5b825160ff811681146100cc57600080fd5b6020939093015192949293505050565b6000600182016100fc57634e487b7160e01b600052601160045260246000fd5b5060010190565b61043a806101126000396000f3fe608060405234801561001057600080fd5b50600436106100b45760003560e01c80638205bf6a116100715780638205bf6a146101a15780639a6fc8f5146101aa578063a87a20ce14610228578063b5ab58dc1461023b578063b633620c1461025b578063feaf968c1461027b57600080fd5b8063313ce567146100b95780634aa2011f146100dd57806350d25bcd1461013a57806354fd4d5014610151578063668a0f02146101595780637284e41614610162575b600080fd5b6000546100c69060ff1681565b60405160ff90911681526020015b60405180910390f35b6101386100eb36600461031b565b69ffffffffffffffffffff90931660038181556001849055600283905560009182526004602090815260408084209590955581548352600581528483209390935554815260069091522055565b005b61014360015481565b6040519081526020016100d4565b610143600081565b61014360035481565b604080518082018252601f81527f76302e382f74657374732f4d6f636b563341676772656761746f722e736f6c00602082015290516100d49190610354565b61014360025481565b6101f16101b83660046103a2565b69ffffffffffffffffffff8116600090815260046020908152604080832054600683528184205460059093529220549293919290918490565b6040805169ffffffffffffffffffff968716815260208101959095528401929092526060830152909116608082015260a0016100d4565b6101386102363660046103c4565b6102a6565b6101436102493660046103c4565b60046020526000908152604090205481565b6101436102693660046103c4565b60056020526000908152604090205481565b60035460008181526004602090815260408083205460068352818420546005909352922054836101f1565b600181905542600255600380549060006102bf836103dd565b9091555050600380546000908152600460209081526040808320949094558254825260058152838220429081905592548252600690529190912055565b803569ffffffffffffffffffff8116811461031657600080fd5b919050565b6000806000806080858703121561033157600080fd5b61033a856102fc565b966020860135965060408601359560600135945092505050565b600060208083528351808285015260005b8181101561038157858101830151858201604001528201610365565b506000604082860101526040601f19601f8301168501019250505092915050565b6000602082840312156103b457600080fd5b6103bd826102fc565b9392505050565b6000602082840312156103d657600080fd5b5035919050565b6000600182016103fd57634e487b7160e01b600052601160045260246000fd5b506001019056fea2646970667358221220f35d0f9dbd8047df94c92750bdfa3c9a4aedfac8e6bc33c2959c483ba54b279a64736f6c63430008120033",
  "immutableReferences": {},
  "source": "// SPDX-License-Identifier: CC-BY-4.0\npragma solidity ^0.8.0;\n\n/**\n * @title Mock Chainlink Aggregator V3 Interface\n * @author Crypt0zaurus https://www.linkedin.com/in/maxence-a-a82081260\n * @notice This contract is a mock implementation of the Chainlink Aggregator V3 Interface for testing purposes.\n * @dev This contract imports the MockV3Aggregator from the Chainlink library.\n */\n//import \"@chainlink/contracts/src/v0.8/tests/MockV3Aggregator.sol\";\nimport \"../node_modules/@chainlink/contracts/src/v0.8/tests/MockV3Aggregator.sol\";\n\ncontract MockPriceFeed is MockV3Aggregator {\n    constructor(\n        uint8 _decimals,\n        int256 _initialAnswer\n    ) MockV3Aggregator(_decimals, _initialAnswer) {}\n}\n",
  "sourcePath": "/Users/harbinger/Dropbox/Dossier familial/Formation Blockchain/Alyra/Projet Certification/Projet Alyra 2Wheels2Rent/truffle/contracts/MockPriceFeed.sol",
  "compiler": {
    "name": "solc",
    "version": "0.8.18+commit.87f61d96.Emscripten.clang"
  },
  "schemaVersion": "3.4.12",
  "updatedAt": "2023-05-07T15:50:19.849Z",
  "networkType": "ethereum",
  "devdoc": {
    "kind": "dev",
    "methods": {},
    "version": 1
  },
  "userdoc": {
    "kind": "user",
    "methods": {},
    "version": 1
  }
}