{
  "contractName": "RenterWhitelist",
  "abi": [
    {
      "inputs": [
        {
          "internalType": "address",
          "name": "_TW2RR",
          "type": "address"
        },
        {
          "internalType": "address",
          "name": "_W2R",
          "type": "address"
        },
        {
          "internalType": "address",
          "name": "_TW2RLenderNFT",
          "type": "address"
        },
        {
          "internalType": "contract I2VaultW2R",
          "name": "_vaultW2R",
          "type": "address"
        }
      ],
      "stateMutability": "nonpayable",
      "type": "constructor"
    },
    {
      "anonymous": false,
      "inputs": [
        {
          "indexed": true,
          "internalType": "address",
          "name": "previousOwner",
          "type": "address"
        },
        {
          "indexed": true,
          "internalType": "address",
          "name": "newOwner",
          "type": "address"
        }
      ],
      "name": "OwnershipTransferred",
      "type": "event"
    },
    {
      "anonymous": false,
      "inputs": [
        {
          "indexed": true,
          "internalType": "address",
          "name": "renter",
          "type": "address"
        },
        {
          "indexed": false,
          "internalType": "uint256",
          "name": "NFTId",
          "type": "uint256"
        }
      ],
      "name": "RenterBlacklisted",
      "type": "event"
    },
    {
      "anonymous": false,
      "inputs": [
        {
          "indexed": true,
          "internalType": "address",
          "name": "renter",
          "type": "address"
        }
      ],
      "name": "RenterRemovedFromBlacklist",
      "type": "event"
    },
    {
      "anonymous": false,
      "inputs": [
        {
          "indexed": true,
          "internalType": "address",
          "name": "renter",
          "type": "address"
        },
        {
          "indexed": false,
          "internalType": "uint256",
          "name": "NFTId",
          "type": "uint256"
        }
      ],
      "name": "RenterRemovedFromWhitelist",
      "type": "event"
    },
    {
      "anonymous": false,
      "inputs": [
        {
          "indexed": true,
          "internalType": "address",
          "name": "renter",
          "type": "address"
        },
        {
          "indexed": false,
          "internalType": "uint256",
          "name": "NFTId",
          "type": "uint256"
        }
      ],
      "name": "RenterWhitelisted",
      "type": "event"
    },
    {
      "inputs": [],
      "name": "W2R",
      "outputs": [
        {
          "internalType": "contract ERC20",
          "name": "",
          "type": "address"
        }
      ],
      "stateMutability": "view",
      "type": "function",
      "constant": true
    },
    {
      "inputs": [
        {
          "internalType": "address",
          "name": "",
          "type": "address"
        }
      ],
      "name": "blacklistedAddresses",
      "outputs": [
        {
          "internalType": "bool",
          "name": "",
          "type": "bool"
        }
      ],
      "stateMutability": "view",
      "type": "function",
      "constant": true
    },
    {
      "inputs": [],
      "name": "numAddressesWhitelisted",
      "outputs": [
        {
          "internalType": "uint8",
          "name": "",
          "type": "uint8"
        }
      ],
      "stateMutability": "view",
      "type": "function",
      "constant": true
    },
    {
      "inputs": [],
      "name": "owner",
      "outputs": [
        {
          "internalType": "address",
          "name": "",
          "type": "address"
        }
      ],
      "stateMutability": "view",
      "type": "function",
      "constant": true
    },
    {
      "inputs": [
        {
          "internalType": "address",
          "name": "newOwner",
          "type": "address"
        }
      ],
      "name": "transferOwnership",
      "outputs": [],
      "stateMutability": "nonpayable",
      "type": "function"
    },
    {
      "inputs": [
        {
          "internalType": "address",
          "name": "",
          "type": "address"
        }
      ],
      "name": "whitelistedAddresses",
      "outputs": [
        {
          "internalType": "bool",
          "name": "isWhitelisted",
          "type": "bool"
        },
        {
          "internalType": "address",
          "name": "bikeRentContract",
          "type": "address"
        },
        {
          "internalType": "uint256",
          "name": "NFTId",
          "type": "uint256"
        }
      ],
      "stateMutability": "view",
      "type": "function",
      "constant": true
    },
    {
      "inputs": [
        {
          "internalType": "address",
          "name": "_lenderWhitelist",
          "type": "address"
        }
      ],
      "name": "setLenderWhitelistAddress",
      "outputs": [],
      "stateMutability": "nonpayable",
      "type": "function"
    },
    {
      "inputs": [
        {
          "internalType": "string",
          "name": "name",
          "type": "string"
        },
        {
          "internalType": "string",
          "name": "rather",
          "type": "string"
        }
      ],
      "name": "setRenterInfoAndMint",
      "outputs": [],
      "stateMutability": "nonpayable",
      "type": "function"
    },
    {
      "inputs": [],
      "name": "removeAddressFromWhitelist",
      "outputs": [],
      "stateMutability": "nonpayable",
      "type": "function"
    },
    {
      "inputs": [
        {
          "internalType": "address",
          "name": "_address",
          "type": "address"
        }
      ],
      "name": "addToBlacklist",
      "outputs": [],
      "stateMutability": "nonpayable",
      "type": "function"
    },
    {
      "inputs": [
        {
          "internalType": "address",
          "name": "_address",
          "type": "address"
        }
      ],
      "name": "removeFromBlacklist",
      "outputs": [],
      "stateMutability": "nonpayable",
      "type": "function"
    },
    {
      "inputs": [],
      "name": "renounceOwnership",
      "outputs": [],
      "stateMutability": "view",
      "type": "function",
      "constant": true
    }
  ],
  "bytecode": "0x60806040523480156200001157600080fd5b50604051620060e7380380620060e7833981016040819052620000349162000183565b6200003f336200011a565b6001600160a01b038416158015906200006057506001600160a01b03831615155b80156200007557506001600160a01b03821615155b80156200008a57506001600160a01b03811615155b620000c95760405162461bcd60e51b815260206004820152600b60248201526a626164206164647265737360a81b604482015260640160405180910390fd5b600480546001600160a01b03199081166001600160a01b03938416179091556008805482169583169590951790945560038054851693821693909317909255600180549093169116179055620001eb565b600080546001600160a01b038381166001600160a01b0319831681178455604051919092169283917f8be0079c531659141344cd1fd0a4f28419497f9722a3daafe3b4186f6b6457e09190a35050565b6001600160a01b03811681146200018057600080fd5b50565b600080600080608085870312156200019a57600080fd5b8451620001a7816200016a565b6020860151909450620001ba816200016a565b6040860151909350620001cd816200016a565b6060860151909250620001e0816200016a565b939692955090935050565b615eec80620001fb6000396000f3fe60806040523480156200001157600080fd5b5060043610620000c35760003560e01c80638f036072116200007a5780638f03607214620001b8578063a226481b14620001cc578063bde9768714620001e3578063d5749d4214620001ed578063de8f2ba81462000224578063f2fde38b146200023b57600080fd5b806306c933d814620000c85780634011d7cd146200013057806344337ea11462000158578063537df3b61462000171578063715018a614620001885780638da5cb5b1462000192575b600080fd5b62000106620000d936600462000feb565b6005602052600090815260409020805460019091015460ff82169161010090046001600160a01b03169083565b6040805193151584526001600160a01b039092166020840152908201526060015b60405180910390f35b6000546200014590600160a01b900460ff1681565b60405160ff909116815260200162000127565b6200016f6200016936600462000feb565b62000252565b005b6200016f6200018236600462000feb565b6200036d565b6200016f62000413565b6000546001600160a01b03165b6040516001600160a01b03909116815260200162000127565b6003546200019f906001600160a01b031681565b6200016f620001dd36600462000feb565b6200045a565b6200016f6200049a565b62000213620001fe36600462000feb565b60066020526000908152604090205460ff1681565b604051901515815260200162000127565b6200016f62000235366004620010c8565b6200056c565b6200016f6200024c36600462000feb565b6200098b565b6200025c62000a07565b6001600160a01b03811660009081526006602052604090205460ff1615620002a15760405162461bcd60e51b8152600401620002989062001133565b60405180910390fd5b6001600160a01b03811660009081526005602052604090205460ff16156200036a57620002ce8162000a65565b620003045760405162461bcd60e51b815260206004820152600560248201526432b93937b960d91b604482015260640162000298565b6001600160a01b0381166000818152600660209081526040808320805460ff1916600190811790915560058352928190209092015491519182527f2521e1d2181ef8de636f6830a509e2813fb22c1822a283dad266e756f0e3c2ec910160405180910390a25b50565b6200037762000a07565b6001600160a01b03811660009081526006602052604090205460ff16620003ca5760405162461bcd60e51b81526020600482015260066024820152651b9bdd08189b60d21b604482015260640162000298565b6001600160a01b038116600081815260066020526040808220805460ff19169055517f62576b323defc6105d3c96bae5da2a00a7aae3f8f875d27b27da03d0c3cac2d79190a250565b6200041d62000a07565b60405162461bcd60e51b815260206004820152601160248201527010d85b9d081899481c995b9bdd5b98d959607a1b604482015260640162000298565b6200046462000a07565b6001600160a01b0381166200047857600080fd5b600280546001600160a01b0319166001600160a01b0392909216919091179055565b3360009081526006602052604090205460ff1615620004cd5760405162461bcd60e51b8152600401620002989062001133565b3360009081526005602052604090205460ff16620005175760405162461bcd60e51b81526020600482015260066024820152651b9bdd081ddb60d21b604482015260640162000298565b620005223362000a65565b50336000818152600560209081526040918290206001015491519182527f2521e1d2181ef8de636f6830a509e2813fb22c1822a283dad266e756f0e3c2ec910160405180910390a2565b3360009081526006602052604090205460ff16156200059f5760405162461bcd60e51b8152600401620002989062001133565b3360009081526005602052604090205460ff1615620005e65760405162461bcd60e51b81526020600482015260026024820152611ddb60f21b604482015260640162000298565b3360009081526007602052604090205442906202a3009062000609908362001165565b10156200064a5760405162461bcd60e51b815260206004820152600e60248201526d6f6e636520696e2032206461797360901b604482015260640162000298565b3360009081526005602052604090205461010090046001600160a01b031615620006a25760405162461bcd60e51b815260206004820152600860248201526719195c1b1bde595960c21b604482015260640162000298565b3360009081526005602052604090206001015415620006ed5760405162461bcd60e51b81526020600482015260066024820152651b5a5b9d195960d21b604482015260640162000298565b6000835111801562000700575060008251115b620007365760405162461bcd60e51b8152602060048201526005602482015264656d70747960d81b604482015260640162000298565b60288351111580156200074b57506028825111155b620007845760405162461bcd60e51b8152602060048201526008602482015267746f6f206c6f6e6760c01b604482015260640162000298565b600860009054906101000a90046001600160a01b03166001600160a01b031663402199456040518163ffffffff1660e01b8152600401602060405180830381865afa158015620007d8573d6000803e3d6000fd5b505050506040513d601f19601f82011682018060405250810190620007fe919062001181565b620008365760405162461bcd60e51b81526020600482015260076024820152666e6f204950465360c81b604482015260640162000298565b60408051808201825284815260208082018590523360009081526005909152918220805460ff1916600117905581549091600160a01b90910460ff169060146200088083620011a5565b825460ff9182166101009390930a92830291909202199091161790555060085460405163e8c3bc0560e01b81526001600160a01b039091169063e8c3bc0590620008d190339085906004016200120f565b6020604051808303816000875af1158015620008f1573d6000803e3d6000fd5b505050506040513d601f19601f8201168201806040525081019062000917919062001263565b336000908152600560205260409020600101556200093462000d1e565b33600081815260076020908152604080832086905560058252918290206001015491519182527fdf1fc30c9a67ee41e3e4e2050611e3d7aef8c0921a69a171a465272ae1952da6910160405180910390a250505050565b6200099562000a07565b6001600160a01b038116620009fc5760405162461bcd60e51b815260206004820152602660248201527f4f776e61626c653a206e6577206f776e657220697320746865207a65726f206160448201526564647265737360d01b606482015260840162000298565b6200036a8162000f8d565b6000546001600160a01b0316331462000a635760405162461bcd60e51b815260206004820181905260248201527f4f776e61626c653a2063616c6c6572206973206e6f7420746865206f776e6572604482015260640162000298565b565b6008546001600160a01b03828116600090815260056020526040808220600101549051632890e0d760e01b8152600481019190915290929190911690632890e0d7906024016020604051808303816000875af115801562000aca573d6000803e3d6000fd5b505050506040513d601f19601f8201168201806040525081019062000af0919062001181565b62000b2b5760405162461bcd60e51b815260206004820152600a602482015269313ab9371032b93937b960b11b604482015260640162000298565b6001600160a01b03808316600090815260056020908152604080832054600980546001600160a01b031916610100909204909516908117909455805163083197ef60e41b815290516383197ef0936004808401949383900301908290875af115801562000b9c573d6000803e3d6000fd5b505050506040513d601f19601f8201168201806040525081019062000bc2919062001181565b62000c005760405162461bcd60e51b815260206004820152600d60248201526c6572726f722064657374726f7960981b604482015260640162000298565b60048054600954604051639eea227960e01b81526001600160a01b03918216938101939093521690639eea2279906024016020604051808303816000875af115801562000c51573d6000803e3d6000fd5b505050506040513d601f19601f8201168201806040525081019062000c77919062001181565b62000cb65760405162461bcd60e51b815260206004820152600e60248201526d4572726f722072656d6f76696e6760901b604482015260640162000298565b6001600160a01b038216600090815260056020526040812080546001600160a81b03191681556001018190558054600160a01b900460ff1690601462000cfc836200127d565b91906101000a81548160ff021916908360ff1602179055505060019050919050565b3360009081526006602052604090205460ff161562000d515760405162461bcd60e51b8152600401620002989062001133565b3360009081526005602052604090205460ff1662000d9b5760405162461bcd60e51b81526020600482015260066024820152651b9bdd081ddb60d21b604482015260640162000298565b3360009081526005602052604090205461010090046001600160a01b03161562000df35760405162461bcd60e51b815260206004820152600860248201526719195c1b1bde595960c21b604482015260640162000298565b33600090815260056020526040812060010154900362000e435760405162461bcd60e51b815260206004820152600a6024820152691b9bdd081b5a5b9d195960b21b604482015260640162000298565b6002546001600160a01b031662000e5957600080fd5b60035460015460045460025460405133946001600160a01b039081169481169330939082169291169062000e8d9062000fdd565b6001600160a01b0396871681529486166020860152928516604085015290841660608401528316608083015290911660a082015260c001604051809103906000f08015801562000ee1573d6000803e3d6000fd5b50600980546001600160a01b0319166001600160a01b03928316908117825533600090815260056020526040908190208054610100600160a81b031916610100909302929092179091556004805492549151635ffd993b60e01b81529184169082015260016024820152911690635ffd993b90604401600060405180830381600087803b15801562000f7257600080fd5b505af115801562000f87573d6000803e3d6000fd5b50505050565b600080546001600160a01b038381166001600160a01b0319831681178455604051919092169283917f8be0079c531659141344cd1fd0a4f28419497f9722a3daafe3b4186f6b6457e09190a35050565b614c19806200129e83390190565b60006020828403121562000ffe57600080fd5b81356001600160a01b03811681146200101657600080fd5b9392505050565b634e487b7160e01b600052604160045260246000fd5b600082601f8301126200104557600080fd5b813567ffffffffffffffff808211156200106357620010636200101d565b604051601f8301601f19908116603f011681019082821181831017156200108e576200108e6200101d565b81604052838152866020858801011115620010a857600080fd5b836020870160208301376000602085830101528094505050505092915050565b60008060408385031215620010dc57600080fd5b823567ffffffffffffffff80821115620010f557600080fd5b620011038683870162001033565b935060208501359150808211156200111a57600080fd5b50620011298582860162001033565b9150509250929050565b602080825260029082015261189b60f21b604082015260600190565b634e487b7160e01b600052601160045260246000fd5b818103818111156200117b576200117b6200114f565b92915050565b6000602082840312156200119457600080fd5b815180151581146200101657600080fd5b600060ff821660ff8103620011be57620011be6200114f565b60010192915050565b6000815180845260005b81811015620011ef57602081850181015186830182015201620011d1565b506000602082860101526020601f19601f83011685010191505092915050565b60018060a01b038316815260406020820152600082516040808401526200123a6080840182620011c7565b90506020840151603f19848303016060850152620012598282620011c7565b9695505050505050565b6000602082840312156200127657600080fd5b5051919050565b600060ff8216806200129357620012936200114f565b600019019291505056fe6080604052600a6006556202a300600755620151806008553480156200002457600080fd5b5060405162004c1938038062004c198339810160408190526200004791620001f2565b8585836001600160a01b038316158015906200006b57506001600160a01b03821615155b80156200008057506001600160a01b03811615155b6200008a57600080fd5b60048054600580546001600160a01b039586166001600160a01b031991821617909155600b805494861694909116939093179092556001600160a81b031990911692821692909217600160a01b17909155841615801590620000f457506001600160a01b03831615155b80156200010957506001600160a01b03811615155b620001495760405162461bcd60e51b815260206004820152600b60248201526a626164206164647265737360a81b60448201526064015b60405180910390fd5b336001600160a01b038416146200018d5760405162461bcd60e51b815260206004820152600760248201526613db9b1e481ddb60ca1b604482015260640162000140565b600e80546001600160a01b03199081166001600160a01b0396871617909155600d8054821694861694909417909355600f805490931693169290921790555062000273915050565b80516001600160a01b0381168114620001ed57600080fd5b919050565b60008060008060008060c087890312156200020c57600080fd5b6200021787620001d5565b95506200022760208801620001d5565b94506200023760408801620001d5565b93506200024760608801620001d5565b92506200025760808801620001d5565b91506200026760a08801620001d5565b90509295509295509295565b61499680620002836000396000f3fe608060405234801561001057600080fd5b50600436106101f05760003560e01c80638f0360721161010f578063bf0058d0116100a2578063d9536d4c11610071578063d9536d4c14610463578063dd4b22d114610476578063e627f2db1461047f578063f7b2a7be1461048757600080fd5b8063bf0058d014610413578063c520e74a14610426578063c95dee7914610447578063d771642a1461045a57600080fd5b8063b465c3c0116100de578063b465c3c014610315578063bc378a73146103e5578063be3f22eb146103ed578063befc09211461040057600080fd5b80638f036072146103ae57806393736bb4146103c1578063af0654b7146103ca578063af8df99d146103d257600080fd5b80633e14641711610187578063778f520b11610156578063778f520b1461036d5780638046c8ac1461038057806383197ef0146103935780638da5cb5b1461039b57600080fd5b80633e1464171461031557806360a6673c1461033e5780636dcf811d146103465780637486f8a01461035a57600080fd5b806328ab10fc116101c357806328ab10fc146102735780632c678ca51461029e57806330109962146102f6578063372500ab1461030d57600080fd5b8063090fc58b146101f55780630bfcef35146102275780631401c5f91461023c578063155dd5ee14610260575b600080fd5b610208610203366004613d4a565b610490565b60405161021e9a99989796959493929190613dc6565b60405180910390f35b61023a610235366004613e74565b610599565b005b600f5461025090600160a01b900460ff1681565b604051901515815260200161021e565b61023a61026e366004613ec9565b610a94565b601854610286906001600160a01b031681565b6040516001600160a01b03909116815260200161021e565b6102b16102ac366004613ec9565b610c01565b604080519889526001600160a01b039097166020890152958701949094526060860192909252608085015260a084015260c0830152151560e08201526101000161021e565b6102ff60075481565b60405190815260200161021e565b61023a610c64565b6102ff610323366004613ee2565b6001600160a01b031660009081526017602052604090205490565b61023a610d9b565b60045461025090600160a01b900460ff1681565b61023a610368366004613f06565b611045565b61023a61037b366004613f58565b611904565b61023a61038e366004613ec9565b611be4565b610250611dd5565b600454610286906001600160a01b031681565b600554610286906001600160a01b031681565b6102ff60015481565b61023a612031565b61023a6103e0366004613ee2565b612134565b6016546102ff565b61023a6103fb366004613e74565b6122eb565b61023a61040e366004613f9a565b6127ae565b61023a610421366004613fdc565b612928565b610439610434366004613ee2565b612a28565b60405161021e929190614048565b61023a610455366004613fdc565b612b54565b6102ff60085481565b61023a610471366004614076565b612c5e565b6102ff60005481565b6102ff613534565b6102ff60065481565b601760205281600052604060002081815481106104ac57600080fd5b6000918252602090912060079091020180546001820154600283015460038401546004850154600586015460068701805496995094975092959194909360ff80851694610100810482169462010000820483169463010000009092049092169290610516906140b1565b80601f0160208091040260200160405190810160405280929190818152602001828054610542906140b1565b801561058f5780601f106105645761010080835404028352916020019161058f565b820191906000526020600020905b81548152906001019060200180831161057257829003601f168201915b505050505090508a565b600454600160a01b900460ff16156105cc5760405162461bcd60e51b81526004016105c3906140eb565b60405180910390fd5b600e546040516370a0823160e01b81526001600160a01b03808616600483015285926000929116906370a0823190602401602060405180830381865afa15801561061a573d6000803e3d6000fd5b505050506040513d601f19601f8201168201806040525081019061063e9190614110565b1161065b5760405162461bcd60e51b81526004016105c390614129565b600f54601580546001600160a01b0319166001600160a01b0392831690811790915560405162d9267b60e31b81529183166004830152906306c933d890602401606060405180830381865afa1580156106b8573d6000803e3d6000fd5b505050506040513d601f19601f820116820180604052508101906106dc919061415f565b516106f95760405162461bcd60e51b81526004016105c3906141ca565b60155460405162d9267b60e31b81526001600160a01b038381166004830152339216906306c933d890602401606060405180830381865afa158015610742573d6000803e3d6000fd5b505050506040513d601f19601f82011682018060405250810190610766919061415f565b602001516001600160a01b0316146107905760405162461bcd60e51b81526004016105c3906141ca565b600f54600160a01b900460ff1680156107b357506018546001600160a01b031615155b6107cf5760405162461bcd60e51b81526004016105c3906141ea565b306000908152600a6020526040812080546107e9906140b1565b90501180156108145750306000908152600a602052604081206001018054610810906140b1565b9050115b6108305760405162461bcd60e51b81526004016105c39061420d565b601854839083906001600160a01b0316331461087c5760405162461bcd60e51b815260206004820152600b60248201526a27b7363c903632b73232b960a91b60448201526064016105c3565b60118054610889906140b1565b9050601e14801561089a5750601e81145b80156108f457506040516108b39060119060200161422d565b6040516020818303038152906040528051906020012082826040516020016108dc9291906142a3565b60405160208183030381529060405280519060200120145b6109105760405162461bcd60e51b81526004016105c3906142b3565b6010541580159061092f5750601054603c9061092c90426142ea565b11155b61094b5760405162461bcd60e51b81526004016105c390614303565b3360009081526017602052604081208054610968906001906142ea565b8154811061097857610978614324565b906000526020600020906007020190508060050160029054906101000a900460ff1680156109ab5750600581015460ff16155b6109c75760405162461bcd60e51b81526004016105c39061433a565b60058101805460ff19166001179055600481015433600090815260026020526040812080548392906109fa90849061435d565b925050819055508060036000828254610a13919061435d565b9091555050600f805460ff60a01b19169055601880546001600160a01b03191690558154306000818152600a6020526040908190209051919233927fe37fd6880e9c45f86a337efb15d4a7f39b28518286c32b05f9eeac6b550adcd692610a82929142919060018201906143ed565b60405180910390a35050505050505050565b600454600160a01b900460ff1615610abe5760405162461bcd60e51b81526004016105c3906140eb565b6004546001600160a01b03163314610ae85760405162461bcd60e51b81526004016105c39061441e565b60008111610b205760405162461bcd60e51b815260206004820152600560248201526404e6f7420360dc1b60448201526064016105c3565b6005546040516370a0823160e01b815230600482015282916001600160a01b0316906370a0823190602401602060405180830381865afa158015610b68573d6000803e3d6000fd5b505050506040513d601f19601f82011682018060405250810190610b8c9190614110565b1015610baa5760405162461bcd60e51b81526004016105c390614442565b600554610bc1906001600160a01b03163383613592565b60408051828152426020820152309133917fb933d9f5921d73b25377b9ffc45ea2914238b8379c2098a3178e766cb8f326d491015b60405180910390a350565b60168181548110610c1157600080fd5b6000918252602090912060089091020180546001820154600283015460038401546004850154600586015460068701546007909701549597506001600160a01b0390941695929491939092909160ff1688565b600454600160a01b900460ff1615610c8e5760405162461bcd60e51b81526004016105c3906140eb565b6004546001600160a01b03163314610cb85760405162461bcd60e51b81526004016105c39061441e565b600060035411610cf45760405162461bcd60e51b81526020600482015260076024820152666e6f7468696e6760c81b60448201526064016105c3565b600380546000909155600b5460405163255d23d760e11b8152336004820152602481018390526001600160a01b0390911690634aba47ae90604401600060405180830381600087803b158015610d4957600080fd5b505af1158015610d5d573d6000803e3d6000fd5b505060408051428152602081018590523093503392507f4bbe6b9abde3c57178a72bffd1868d868a0562c805a8effd250d9f76a2bd82809101610bf6565b600454600160a01b900460ff1615610dc55760405162461bcd60e51b81526004016105c3906140eb565b600f54600160a01b900460ff168015610de857506018546001600160a01b031615155b610e045760405162461bcd60e51b81526004016105c3906141ea565b306000908152600a602052604081208054610e1e906140b1565b9050118015610e495750306000908152600a602052604081206001018054610e45906140b1565b9050115b610e655760405162461bcd60e51b81526004016105c39061420d565b6004546001600160a01b03163314610e8f5760405162461bcd60e51b81526004016105c39061441e565b6018546001600160a01b031660009081526017602052604081208054610eb7906001906142ea565b81548110610ec757610ec7614324565b906000526020600020906007020190508060050160039054906101000a900460ff168015610f005750600581015462010000900460ff16155b8015610f115750600581015460ff16155b610f2d5760405162461bcd60e51b81526004016105c39061433a565b60105415801590610f4c5750601054603c90610f4990426142ea565b11155b610f685760405162461bcd60e51b81526004016105c390614303565b601854600c80546001600160a01b0319166001600160a01b03928316908117909155600480546040516370cf9d7760e11b81529316908301529063e19f3aee90602401600060405180830381600087803b158015610fc557600080fd5b505af1158015610fd9573d6000803e3d6000fd5b50505060058201805462ff000019166201000017905550601854306000818152600a602052604090819020905191926001600160a01b0316917f0cd92eec05e4f2840efd243f3a73e91e5f9af26e52ab39532ce64b1b9fe9100191610bf6914291906001820190614468565b600454600160a01b900460ff161561106f5760405162461bcd60e51b81526004016105c3906140eb565b600e546040516370a0823160e01b81526001600160a01b03808816600483015287926000929116906370a0823190602401602060405180830381865afa1580156110bd573d6000803e3d6000fd5b505050506040513d601f19601f820116820180604052508101906110e19190614110565b116110fe5760405162461bcd60e51b81526004016105c390614129565b600f54601580546001600160a01b0319166001600160a01b0392831690811790915560405162d9267b60e31b81529183166004830152906306c933d890602401606060405180830381865afa15801561115b573d6000803e3d6000fd5b505050506040513d601f19601f8201168201806040525081019061117f919061415f565b5161119c5760405162461bcd60e51b81526004016105c3906141ca565b60155460405162d9267b60e31b81526001600160a01b038381166004830152339216906306c933d890602401606060405180830381865afa1580156111e5573d6000803e3d6000fd5b505050506040513d601f19601f82011682018060405250810190611209919061415f565b602001516001600160a01b0316146112335760405162461bcd60e51b81526004016105c3906141ca565b3360009081526013602081905260409091208054620151809061125690426142ea565b1061126657600060018201554281555b600381600101541061128a5760405162461bcd60e51b81526004016105c39061449d565b60018101805490600061129c836144c4565b9091555050600f54600160a01b900460ff161580156112c457506018546001600160a01b0316155b80156112cf57503315155b6113095760405162461bcd60e51b815260206004820152600b60248201526a6261642072656e74696e6760a81b60448201526064016105c3565b306000908152600a602052604081208054611323906140b1565b905011801561134e5750306000908152600a60205260408120600101805461134a906140b1565b9050115b61136a5760405162461bcd60e51b81526004016105c39061420d565b6000611376878961435d565b6005546040516370a0823160e01b815230600482015291925082916001600160a01b03909116906370a0823190602401602060405180830381865afa1580156113c3573d6000803e3d6000fd5b505050506040513d601f19601f820116820180604052508101906113e79190614110565b10156114055760405162461bcd60e51b81526004016105c390614442565b60008080885b60165483101561184757336001600160a01b03166016848154811061143257611432614324565b60009182526020909120600160089092020101546001600160a01b0316036118355760006016848154811061146957611469614324565b600091825260209182902060408051610100810182526008909302909101805480845260018201546001600160a01b0316948401949094526002810154918301919091526003810154606083015260048101546080830152600581015460a0830152600681015460c083015260079081015460ff16151560e083015254909250906114f490426142ea565b11156115125760405162461bcd60e51b81526004016105c390614303565b8060e001511561154f5760405162461bcd60e51b81526020600482015260086024820152671858d8d95c1d195960c21b60448201526064016105c3565b6127106006548e61156091906144dd565b61156b9060646144dd565b101561157657600080fd5b60008d90508160600151935060006127106006548361159591906144dd565b6115a09060646144dd565b6115aa919061450a565b905060018360e00190151590811515815250506001600f60146101000a81548160ff02191690831515021790555060008c905060008f905060008a905060176000336001600160a01b03166001600160a01b03168152602001908152602001600020604051806101400160405280858152602001898152602001878152602001848152602001868152602001600015158152602001600015158152602001600015158152602001600015158152602001604051806020016040528060008152508152509080600181540180825580915050600190039060005260206000209060070201600090919091909150600082015181600001556020820151816001015560408201518160020155606082015181600301556080820151816004015560a08201518160050160006101000a81548160ff02191690831515021790555060c08201518160050160016101000a81548160ff02191690831515021790555060e08201518160050160026101000a81548160ff0219169083151502179055506101008201518160050160036101000a81548160ff02191690831515021790555061012082015181600601908161175f9190614581565b5050601880546001600160a01b0319163317905550600080549080611783836144c4565b909155506117939050878461435d565b6117a0906202a30061435d565b6001556005546117ba906001600160a01b0316338d613592565b601854608087810151604080518781526020810192909252810188905260608101859052908101839052600060a08201526001600160a01b039091169033907f087203a8efe3f1cbaf620bc456ac2e3ce7b11303af6d2187b376cccbb769b25c9060c00160405180910390a360019950505050505050611847565b8261183f816144c4565b93505061140b565b8361187f5760405162461bcd60e51b8152602060048201526008602482015267139bc8199bdd5b9960c21b60448201526064016105c3565b611888836135f5565b5060005b6016548110156118f4578381141580156118d257506118ab828461435d565b601682815481106118be576118be614324565b906000526020600020906008020160000154105b156118e2576118e0816135f5565b505b806118ec816144c4565b91505061188c565b5050505050505050505050505050565b600454600160a01b900460ff161561192e5760405162461bcd60e51b81526004016105c3906140eb565b600e546040516370a0823160e01b81526001600160a01b03808516600483015284926000929116906370a0823190602401602060405180830381865afa15801561197c573d6000803e3d6000fd5b505050506040513d601f19601f820116820180604052508101906119a09190614110565b116119bd5760405162461bcd60e51b81526004016105c390614129565b600f54601580546001600160a01b0319166001600160a01b0392831690811790915560405162d9267b60e31b81529183166004830152906306c933d890602401606060405180830381865afa158015611a1a573d6000803e3d6000fd5b505050506040513d601f19601f82011682018060405250810190611a3e919061415f565b51611a5b5760405162461bcd60e51b81526004016105c3906141ca565b60155460405162d9267b60e31b81526001600160a01b038381166004830152339216906306c933d890602401606060405180830381865afa158015611aa4573d6000803e3d6000fd5b505050506040513d601f19601f82011682018060405250810190611ac8919061415f565b602001516001600160a01b031614611af25760405162461bcd60e51b81526004016105c3906141ca565b600f54600160a01b900460ff168015611b1557506018546001600160a01b031615155b611b315760405162461bcd60e51b81526004016105c3906141ea565b306000908152600a602052604081208054611b4b906140b1565b9050118015611b765750306000908152600a602052604081206001018054611b72906140b1565b9050115b611b925760405162461bcd60e51b81526004016105c39061420d565b60008411611bd35760405162461bcd60e51b815260206004820152600e60248201526d125b9d985b1a59081c99599d5b9960921b60448201526064016105c3565b611bde8484846137e0565b50505050565b600454600160a01b900460ff1615611c0e5760405162461bcd60e51b81526004016105c3906140eb565b600554604051636eb1769f60e11b8152336004820152306024820152829182916001600160a01b039091169063dd62ed3e90604401602060405180830381865afa158015611c60573d6000803e3d6000fd5b505050506040513d601f19601f82011682018060405250810190611c849190614110565b1015611cbd5760405162461bcd60e51b8152602060048201526008602482015267185c1c1c9bdd985b60c21b60448201526064016105c3565b60008211611cf35760405162461bcd60e51b815260206004820152600360248201526218985960ea1b60448201526064016105c3565b6005546040516370a0823160e01b815233600482015283916001600160a01b0316906370a0823190602401602060405180830381865afa158015611d3b573d6000803e3d6000fd5b505050506040513d601f19601f82011682018060405250810190611d5f9190614110565b1015611d7d5760405162461bcd60e51b81526004016105c390614442565b600554611d95906001600160a01b0316333085613a28565b60408051838152426020820152309133917f224b1db9c133c01e120ca7551e3b56fec93a1f208e1c0509c23361a560a61026910160405180910390a35050565b600d546000906001600160a01b03163314611e175760405162461bcd60e51b81526020600482015260026024820152611ddb60f21b60448201526064016105c3565b600154421015611e515760405162461bcd60e51b815260206004820152600560248201526464656c617960d81b60448201526064016105c3565b6004805460ff60a01b1916600160a01b1781556009805460ff191660011790556005546040516370a0823160e01b815230928101929092526000916001600160a01b03909116906370a0823190602401602060405180830381865afa158015611ebe573d6000803e3d6000fd5b505050506040513d601f19601f82011682018060405250810190611ee29190614110565b1115611f7557600480546005546040516370a0823160e01b81523093810193909352611f75926001600160a01b0392831692909116906370a0823190602401602060405180830381865afa158015611f3e573d6000803e3d6000fd5b505050506040513d601f19601f82011682018060405250810190611f629190614110565b6005546001600160a01b03169190613592565b60035415611ff457600380546000909155600b546004805460405163255d23d760e11b81526001600160a01b03918216928101929092526024820184905290911690634aba47ae90604401600060405180830381600087803b158015611fda57600080fd5b505af1158015611fee573d6000803e3d6000fd5b50505050505b604051428152309033907f05bec130a67bc2853b0a7f5cfe8590b473fcc3342360d8933fb7064b1ebf8b6d9060200160405180910390a350600190565b600454600160a01b900460ff161561205b5760405162461bcd60e51b81526004016105c3906140eb565b6004546001600160a01b031633146120855760405162461bcd60e51b81526004016105c39061441e565b600f54600160a01b900460ff1680156120a857506018546001600160a01b031615155b6120c45760405162461bcd60e51b81526004016105c3906141ea565b306000908152600a6020526040812080546120de906140b1565b90501180156121095750306000908152600a602052604081206001018054612105906140b1565b9050115b6121255760405162461bcd60e51b81526004016105c39061420d565b61213260008060006137e0565b565b600454600160a01b900460ff161561215e5760405162461bcd60e51b81526004016105c3906140eb565b6004546001600160a01b031633146121885760405162461bcd60e51b81526004016105c39061441e565b6001600160a01b038116158015906121ae57506004546001600160a01b03828116911614155b80156121c357506001600160a01b0381163014155b6121df5760405162461bcd60e51b81526004016105c3906142b3565b6016546122195760405162461bcd60e51b8152602060048201526008602482015267139bc8199bdd5b9960c21b60448201526064016105c3565b60005b6016548110156122e757816001600160a01b03166016828154811061224357612243614324565b60009182526020909120600160089092020101546001600160a01b0316036122d5576016818154811061227857612278614324565b600091825260209091206007600890920201015460ff16156122c75760405162461bcd60e51b81526020600482015260086024820152671858d8d95c1d195960c21b60448201526064016105c3565b6122d0816135f5565b505050565b806122df816144c4565b91505061221c565b5050565b600454600160a01b900460ff16156123155760405162461bcd60e51b81526004016105c3906140eb565b600e546040516370a0823160e01b81526001600160a01b03808616600483015285926000929116906370a0823190602401602060405180830381865afa158015612363573d6000803e3d6000fd5b505050506040513d601f19601f820116820180604052508101906123879190614110565b116123a45760405162461bcd60e51b81526004016105c390614129565b600f54601580546001600160a01b0319166001600160a01b0392831690811790915560405162d9267b60e31b81529183166004830152906306c933d890602401606060405180830381865afa158015612401573d6000803e3d6000fd5b505050506040513d601f19601f82011682018060405250810190612425919061415f565b516124425760405162461bcd60e51b81526004016105c3906141ca565b60155460405162d9267b60e31b81526001600160a01b038381166004830152339216906306c933d890602401606060405180830381865afa15801561248b573d6000803e3d6000fd5b505050506040513d601f19601f820116820180604052508101906124af919061415f565b602001516001600160a01b0316146124d95760405162461bcd60e51b81526004016105c3906141ca565b600f54600160a01b900460ff1680156124fc57506018546001600160a01b031615155b6125185760405162461bcd60e51b81526004016105c3906141ea565b306000908152600a602052604081208054612532906140b1565b905011801561255d5750306000908152600a602052604081206001018054612559906140b1565b9050115b6125795760405162461bcd60e51b81526004016105c39061420d565b601854839083906001600160a01b031633146125c55760405162461bcd60e51b815260206004820152600b60248201526a27b7363c903632b73232b960a91b60448201526064016105c3565b601180546125d2906140b1565b9050601e1480156125e35750601e81145b801561263d57506040516125fc9060119060200161422d565b6040516020818303038152906040528051906020012082826040516020016126259291906142a3565b60405160208183030381529060405280519060200120145b6126595760405162461bcd60e51b81526004016105c3906142b3565b601054158015906126785750601054603c9061267590426142ea565b11155b6126945760405162461bcd60e51b81526004016105c390614303565b6018546001600160a01b0316600090815260176020526040812080546126bc906001906142ea565b815481106126cc576126cc614324565b906000526020600020906007020190508060050160039054906101000a900460ff16156127235760405162461bcd60e51b81526020600482015260056024820152643a30b5b2b760d91b60448201526064016105c3565b60058101805463ff000000191663010000001790556006810161274760118261463b565b50601854306000818152600a602052604090819020905191926001600160a01b0316917f58441e06988866f5582b245c6d5073b65d386d56d2d7f2ee714ae642aba451bf9161279d914291906001820190614468565b60405180910390a350505050505050565b6004546001600160a01b031633146127d85760405162461bcd60e51b81526004016105c39061441e565b600454600160a01b900460ff16156128025760405162461bcd60e51b81526004016105c3906140eb565b600f54600160a01b900460ff16801561282557506018546001600160a01b031615155b6128415760405162461bcd60e51b81526004016105c3906141ea565b306000908152600a60205260408120805461285b906140b1565b90501180156128865750306000908152600a602052604081206001018054612882906140b1565b9050115b6128a25760405162461bcd60e51b81526004016105c39061420d565b336000908152601460208190526040909120805462015180906128c590426142ea565b106128d557600060018201554281555b60038160010154106128f95760405162461bcd60e51b81526004016105c39061449d565b60018101805490600061290b836144c4565b9091555050426010556011612921848683614708565b5050505050565b6004546001600160a01b031633146129525760405162461bcd60e51b81526004016105c39061441e565b600454600160a01b900460ff16801561296e575060095460ff16155b6129a85760405162461bcd60e51b815260206004820152600b60248201526a756e617661696c61626c6560a81b60448201526064016105c3565b82158015906129b657508015155b6129d25760405162461bcd60e51b81526004016105c39061420d565b6129de84848484612b54565b6004805460ff60a01b19169055604051428152309033907f975a71b6f0e7c3037baf066252bb3dde490161b5536420b1954b32b39316f7b79060200160405180910390a350505050565b600a60205260009081526040902080548190612a43906140b1565b80601f0160208091040260200160405190810160405280929190818152602001828054612a6f906140b1565b8015612abc5780601f10612a9157610100808354040283529160200191612abc565b820191906000526020600020905b815481529060010190602001808311612a9f57829003601f168201915b505050505090806001018054612ad1906140b1565b80601f0160208091040260200160405190810160405280929190818152602001828054612afd906140b1565b8015612b4a5780601f10612b1f57610100808354040283529160200191612b4a565b820191906000526020600020905b815481529060010190602001808311612b2d57829003601f168201915b5050505050905082565b6004546001600160a01b03163314612b7e5760405162461bcd60e51b81526004016105c39061441e565b60095460ff1615612bbd5760405162461bcd60e51b815260206004820152600960248201526819195cdd1c9bde595960ba1b60448201526064016105c3565b8215801590612bcb57508015155b612be75760405162461bcd60e51b81526004016105c39061420d565b306000908152600a6020526040902080612c02858783614708565b5060018101612c12838583614708565b50604051309033907f6cad0fcdfd6b730f10e1bef22b48067bd4880a9e9bec47880bceb85733be339690612c4f9042908a908a908a908a906147eb565b60405180910390a35050505050565b600454600160a01b900460ff1615612c885760405162461bcd60e51b81526004016105c3906140eb565b6004546001600160a01b03163314612cb25760405162461bcd60e51b81526004016105c39061441e565b33600090815260126020819052604090912080546201518090612cd590426142ea565b10612ce557600060018201554281555b6003816001015410612d095760405162461bcd60e51b81526004016105c39061449d565b600181018054906000612d1b836144c4565b90915550506001600160a01b03861615801590612d4657506004546001600160a01b03878116911614155b8015612d5b57506001600160a01b0386163014155b612d995760405162461bcd60e51b815260206004820152600f60248201526e496e76616c6964206164647265737360881b60448201526064016105c3565b612da1613a60565b612daa57600080fd5b60005b601654811015612e3f57866001600160a01b031660168281548110612dd457612dd4614324565b60009182526020909120600160089092020101546001600160a01b031603612e2d5760405162461bcd60e51b815260206004820152600c60248201526b616c7265616479206d61646560a01b60448201526064016105c3565b80612e37816144c4565b915050612dad565b50600083118015612e505750600085115b8015612e5c5750600084115b612e955760405162461bcd60e51b815260206004820152600a6024820152696261642076616c75657360b01b60448201526064016105c3565b612ea14261271061435d565b8511612eda5760405162461bcd60e51b81526020600482015260086024820152673a37b79039b7b7b760c11b60448201526064016105c3565b612ee76201518084614824565b158015612ef657506008548310155b8015612f0d5750612a30612f0a86866142ea565b10155b8015612f24575061a8c0612f2186866142ea565b11155b612f5b5760405162461bcd60e51b81526020600482015260086024820152676261642074696d6560c01b60448201526064016105c3565b601654600311612f965760405162461bcd60e51b81526020600482015260066024820152654f6e6c79203360d01b60448201526064016105c3565b306000908152600a602052604081208054612fb0906140b1565b9050118015612fdb5750306000908152600a602052604081206001018054612fd7906140b1565b9050115b612ff75760405162461bcd60e51b81526004016105c39061420d565b600c80546001600160a01b0319166001600160a01b0388169081179091556040805163bc378a7360e01b815290516005929163bc378a739160048083019260209291908290030181865afa158015613053573d6000803e3d6000fd5b505050506040513d601f19601f820116820180604052508101906130779190614110565b106130ad5760405162461bcd60e51b81526020600482015260066024820152654f6e6c79203560d01b60448201526064016105c3565b600c60009054906101000a90046001600160a01b03166001600160a01b031663b8f58f726040518163ffffffff1660e01b8152600401602060405180830381865afa158015613100573d6000803e3d6000fd5b505050506040513d601f19601f820116820180604052508101906131249190614110565b83111561315e5760405162461bcd60e51b8152602060048201526008602482015267746f6f206c6f6e6760c01b60448201526064016105c3565b600c5460408051631627391760e11b815290516000926001600160a01b031691632c4e722e9160048083019260209291908290030181865afa1580156131a8573d6000803e3d6000fd5b505050506040513d601f19601f820116820180604052508101906131cc9190614110565b90506000600c60009054906101000a90046001600160a01b03166001600160a01b031663419759f56040518163ffffffff1660e01b8152600401602060405180830381865afa158015613223573d6000803e3d6000fd5b505050506040513d601f19601f820116820180604052508101906132479190614110565b9050613256620151808661450a565b61326090836144dd565b61326a908261435d565b6005546040516370a0823160e01b81523060048201526001600160a01b03909116906370a0823190602401602060405180830381865afa1580156132b2573d6000803e3d6000fd5b505050506040513d601f19601f820116820180604052508101906132d69190614110565b10156133115760405162461bcd60e51b815260206004820152600a60248201526909cdee840cadcdeeaced60b31b60448201526064016105c3565b600c5460048054306000908152600a6020526040908190209051633a92dc9160e11b81526001600160a01b0394851694637525b9229461336794909116928d928d928d928b928b92429291600183019101614838565b600060405180830381600087803b15801561338157600080fd5b505af1158015613395573d6000803e3d6000fd5b5050505060166040518061010001604052804281526020018a6001600160a01b031681526020018981526020018881526020018781526020018481526020018381526020016000151581525090806001815401808255809150506001900390600052602060002090600802016000909190919091506000820151816000015560208201518160010160006101000a8154816001600160a01b0302191690836001600160a01b0316021790555060408201518160020155606082015181600301556080820151816004015560a0820151816005015560c0820151816006015560e08201518160070160006101000a81548160ff0219169083151502179055505050876001600160a01b0316306001600160a01b03167fa43440595d7811afa24adc4304a5e6a508929db4628903410c266549444b5b8d428a8a8a8888600a6000306001600160a01b03166001600160a01b03168152602001908152602001600020600001600a6000306001600160a01b03166001600160a01b03168152602001908152602001600020600101604051610a829897969594939291906148a3565b600454600090600160a01b900460ff16156135615760405162461bcd60e51b81526004016105c3906140eb565b6004546001600160a01b0316331461358b5760405162461bcd60e51b81526004016105c39061441e565b5060035490565b6040516001600160a01b0383166024820152604481018290526122d090849063a9059cbb60e01b906064015b60408051601f198184030181529190526020810180516001600160e01b03166001600160e01b031990931692909217909152613ad0565b6000806016838154811061360b5761360b614324565b60009182526020822060016008909202010154601680546001600160a01b039092169350908590811061364057613640614324565b90600052602060002090600802016000015490506016600160168054905061366891906142ea565b8154811061367857613678614324565b90600052602060002090600802016016858154811061369957613699614324565b60009182526020909120825460089092020190815560018083015490820180546001600160a01b0319166001600160a01b0390921691909117905560028083015490820155600380830154908201556004808301549082015560058083015490820155600680830154908201556007918201549101805460ff909216151560ff199092169190911790556016805480613734576137346148fe565b6000828152602081206008600019909301928302018181556001810180546001600160a01b0319169055600281018290556003810182905560048101829055600581018290556006810191909155600701805460ff1916905590556040516001600160a01b0383169030907f1a07a16d411b1999de40db18a15f956f20021655f5dc8cf7685cdb7c9447710f906137ce9085815260200190565b60405180910390a35060019392505050565b6018546001600160a01b031660009081526017602052604081208054613808906001906142ea565b8154811061381857613818614324565b906000526020600020906007020190508060050160039054906101000a900460ff1615801561384c5750600581015460ff16155b6138685760405162461bcd60e51b81526004016105c39061433a565b836000036138d257600081600201548260030154613886919061435d565b825490915061389890611c20906142ea565b4210156138a557806138ce565b61271082600201546103e86138ba91906144dd565b6138c4919061450a565b6138ce90826142ea565b9450505b6001600160a01b03831615613929576018546001600160a01b031633146139245760405162461bcd60e51b81526020600482015260066024820152653632b73232b960d11b60448201526064016105c3565b6139a4565b816139a457601854600c80546001600160a01b0319166001600160a01b0392831690811790915560048054604051630c6986b360e01b815293169083015290630c6986b390602401600060405180830381600087803b15801561398b57600080fd5b505af115801561399f573d6000803e3d6000fd5b505050505b60058101805460ff19166001908117909155600f805460ff60a01b191690554290819055601880546001600160a01b03198116909155825460408051918252602082018890528101929092526001600160a01b031690309082907fc24589c44dcd993689e1ebe33a62cf11f093640e6a7ffe971f50703b5a440e4890606001612c4f565b6040516001600160a01b0380851660248301528316604482015260648101829052611bde9085906323b872dd60e01b906084016135be565b6000805b601654811015613ac85760075460168281548110613a8457613a84614324565b90600052602060002090600802016000015442613aa191906142ea565b1115613ab657613ab0816135f5565b50613a64565b80613ac0816144c4565b915050613a64565b600191505090565b6000613b25826040518060400160405280602081526020017f5361666545524332303a206c6f772d6c6576656c2063616c6c206661696c6564815250856001600160a01b0316613ba29092919063ffffffff16565b8051909150156122d05780806020019051810190613b439190614914565b6122d05760405162461bcd60e51b815260206004820152602a60248201527f5361666545524332303a204552433230206f7065726174696f6e20646964206e6044820152691bdd081cdd58d8d9595960b21b60648201526084016105c3565b6060613bb18484600085613bb9565b949350505050565b606082471015613c1a5760405162461bcd60e51b815260206004820152602660248201527f416464726573733a20696e73756666696369656e742062616c616e636520666f6044820152651c8818d85b1b60d21b60648201526084016105c3565b600080866001600160a01b03168587604051613c369190614931565b60006040518083038185875af1925050503d8060008114613c73576040519150601f19603f3d011682016040523d82523d6000602084013e613c78565b606091505b5091509150613c8987838387613c94565b979650505050505050565b60608315613d03578251600003613cfc576001600160a01b0385163b613cfc5760405162461bcd60e51b815260206004820152601d60248201527f416464726573733a2063616c6c20746f206e6f6e2d636f6e747261637400000060448201526064016105c3565b5081613bb1565b613bb18383815115613d185781518083602001fd5b8060405162461bcd60e51b81526004016105c3919061494d565b6001600160a01b0381168114613d4757600080fd5b50565b60008060408385031215613d5d57600080fd5b8235613d6881613d32565b946020939093013593505050565b60005b83811015613d91578181015183820152602001613d79565b50506000910152565b60008151808452613db2816020860160208601613d76565b601f01601f19169290920160200192915050565b60006101408c83528b60208401528a604084015289606084015288608084015287151560a084015286151560c084015285151560e084015284151561010084015280610120840152613e1a81840185613d9a565b9d9c50505050505050505050505050565b60008083601f840112613e3d57600080fd5b50813567ffffffffffffffff811115613e5557600080fd5b602083019150836020828501011115613e6d57600080fd5b9250929050565b600080600060408486031215613e8957600080fd5b8335613e9481613d32565b9250602084013567ffffffffffffffff811115613eb057600080fd5b613ebc86828701613e2b565b9497909650939450505050565b600060208284031215613edb57600080fd5b5035919050565b600060208284031215613ef457600080fd5b8135613eff81613d32565b9392505050565b600080600080600060a08688031215613f1e57600080fd5b8535613f2981613d32565b97602087013597506040870135966060810135965060800135945092505050565b8015158114613d4757600080fd5b600080600060608486031215613f6d57600080fd5b833592506020840135613f7f81613d32565b91506040840135613f8f81613f4a565b809150509250925092565b60008060208385031215613fad57600080fd5b823567ffffffffffffffff811115613fc457600080fd5b613fd085828601613e2b565b90969095509350505050565b60008060008060408587031215613ff257600080fd5b843567ffffffffffffffff8082111561400a57600080fd5b61401688838901613e2b565b9096509450602087013591508082111561402f57600080fd5b5061403c87828801613e2b565b95989497509550505050565b60408152600061405b6040830185613d9a565b828103602084015261406d8185613d9a565b95945050505050565b6000806000806080858703121561408c57600080fd5b843561409781613d32565b966020860135965060408601359560600135945092505050565b600181811c908216806140c557607f821691505b6020821081036140e557634e487b7160e01b600052602260045260246000fd5b50919050565b6020808252600b908201526a19195858dd1a5d985d195960aa1b604082015260600190565b60006020828403121561412257600080fd5b5051919050565b602080825260069082015265139bc813919560d21b604082015260600190565b634e487b7160e01b600052604160045260246000fd5b60006060828403121561417157600080fd5b6040516060810181811067ffffffffffffffff8211171561419457614194614149565b60405282516141a281613f4a565b815260208301516141b281613d32565b60208201526040928301519281019290925250919050565b602080825260069082015265139bdd081ddb60d21b604082015260600190565b6020808252600990820152682737903632b73232b960b91b604082015260600190565b6020808252600690820152656e6f2047505360d01b604082015260600190565b600080835461423b816140b1565b60018281168015614253576001811461426857614297565b60ff1984168752821515830287019450614297565b8760005260208060002060005b8581101561428e5781548a820152908401908201614275565b50505082870194505b50929695505050505050565b8183823760009101908152919050565b602080825260079082015266125b9d985b1a5960ca1b604082015260600190565b634e487b7160e01b600052601160045260246000fd5b818103818111156142fd576142fd6142d4565b92915050565b602080825260079082015266195e1c1a5c995960ca1b604082015260600190565b634e487b7160e01b600052603260045260246000fd5b60208082526009908201526862616420737461746560b81b604082015260600190565b808201808211156142fd576142fd6142d4565b6000815461437d816140b1565b80855260206001838116801561439a57600181146143b4576143e2565b60ff1985168884015283151560051b8801830195506143e2565b866000528260002060005b858110156143da5781548a82018601529083019084016143bf565b890184019650505b505050505092915050565b84815283602082015260806040820152600061440c6080830185614370565b8281036060840152613c898185614370565b6020808252600a908201526937b7363c9037bbb732b960b11b604082015260600190565b6020808252600c908201526b125b9cdd59999a58da595b9d60a21b604082015260600190565b8381526060602082015260006144816060830185614370565b82810360408401526144938185614370565b9695505050505050565b6020808252600d908201526c131a5b5a5d081c995858da1959609a1b604082015260600190565b6000600182016144d6576144d66142d4565b5060010190565b80820281158282048414176142fd576142fd6142d4565b634e487b7160e01b600052601260045260246000fd5b600082614519576145196144f4565b500490565b601f8211156122d057600081815260208120601f850160051c810160208610156145455750805b601f850160051c820191505b8181101561456457828155600101614551565b505050505050565b600019600383901b1c191660019190911b1790565b815167ffffffffffffffff81111561459b5761459b614149565b6145af816145a984546140b1565b8461451e565b602080601f8311600181146145de57600084156145cc5750858301515b6145d6858261456c565b865550614564565b600085815260208120601f198616915b8281101561460d578886015182559484019460019091019084016145ee565b508582101561462b5787850151600019600388901b60f8161c191681555b5050505050600190811b01905550565b818103614646575050565b61465082546140b1565b67ffffffffffffffff81111561466857614668614149565b614676816145a984546140b1565b6000601f8211600181146146a457600083156146925750848201545b61469c848261456c565b855550612921565b600085815260209020601f19841690600086815260209020845b838110156146de57828601548255600195860195909101906020016146be565b508583101561462b5793015460001960f8600387901b161c19169092555050600190811b01905550565b67ffffffffffffffff83111561472057614720614149565b6147348361472e83546140b1565b8361451e565b6000601f84116001811461476257600085156147505750838201355b61475a868261456c565b845550612921565b600083815260209020601f19861690835b828110156147935786850135825560209485019460019092019101614773565b50868210156147b05760001960f88860031b161c19848701351681555b505060018560011b0183555050505050565b81835281816020850137506000828201602090810191909152601f909101601f19169091010190565b8581526060602082015260006148056060830186886147c2565b82810360408401526148188185876147c2565b98975050505050505050565b600082614833576148336144f4565b500690565b600061012060018060a01b038c1683528a60208401528960408401528860608401528760808401528660a08401528560c08401528060e084015261487e81840186614370565b90508281036101008401526148938185614370565b9c9b505050505050505050505050565b60006101008a83528960208401528860408401528760608401528660808401528560a08401528060c08401526148db81840186614370565b905082810360e08401526148ef8185614370565b9b9a5050505050505050505050565b634e487b7160e01b600052603160045260246000fd5b60006020828403121561492657600080fd5b8151613eff81613f4a565b60008251614943818460208701613d76565b9190910192915050565b602081526000613eff6020830184613d9a56fea26469706673582212203758edafad99753c0a7fc4bc2f77c0d8e7a85365ccefe1534bb35001adb0560464736f6c63430008120033a264697066735822122059cb5cd97fe991dd5543c87e0c6c3de3ac206cff254aa2fd1dbc6be1a08e453764736f6c63430008120033",
  "immutableReferences": {},
  "source": "// SPDX-License-Identifier: CC-BY-4.0\npragma solidity ^0.8.17;\n\n//import \"@openzeppelin/contracts/token/ERC20/ERC20.sol\";\n//import \"@openzeppelin/contracts/access/Ownable.sol\";\nimport \"../node_modules/@openzeppelin/contracts/token/ERC20/ERC20.sol\";\nimport \"../node_modules/@openzeppelin/contracts/access/Ownable.sol\";\nimport \"./BikeRent.sol\";\n\n/**\n * @title I2VaultW2R\n * @dev Interface for interacting with the VaultW2R contract.\n */\ninterface I2VaultW2R {\n    function setApprovedContract(address contractAddress, bool status) external;\n\n    function removeApprovedContract(\n        address contractAddress\n    ) external returns (bool);\n}\n\n/**\n * @title I1TwoWheels2RentRenter\n * @dev Interface for interacting with the TwoWheels2RentRenter contract.\n */\n\ninterface I1TwoWheels2RentRenter {\n    struct RenterInfo {\n        string name;\n        string rather;\n    }\n\n    function getIpfsHashLength() external view returns (bool);\n\n    function mintNFT(\n        address recipient,\n        RenterInfo calldata renterInfo\n    ) external returns (uint);\n\n    function burnNFT(uint tokenId) external returns (bool);\n}\n\n/**\n * @title RenterWhitelist\n * @author Crypt0zaurus https://www.linkedin.com/in/maxence-a-a82081260\n * @dev This contract manages a whitelist of renters and their associated BikeRent contracts.\n * It allows renters to be added to the whitelist and to deploy BikeRent contracts.\n * The contract owner can add and remove renters from the blacklist.\n */\n\ncontract RenterWhitelist is Ownable {\n    // keep track of the number of whitelisted addresses\n    uint8 public numAddressesWhitelisted;\n    // address of the lender NFT contract\n    address TW2RLenderNFT;\n    // address of the lender whitelist contract\n    address lenderWhitelist;\n    // import W2R token contract\n    ERC20 public W2R;\n    // import VaultW2R interface\n    I2VaultW2R private vaultW2R;\n\n    event RenterWhitelisted(address indexed renter, uint NFTId);\n    event RenterBlacklisted(address indexed renter, uint NFTId);\n    event RenterRemovedFromBlacklist(address indexed renter);\n    event RenterRemovedFromWhitelist(address indexed renter, uint NFTId);\n\n    // struct of whitelisted addresses\n    struct Renter {\n        bool isWhitelisted;\n        address bikeRentContract;\n        uint NFTId;\n    }\n\n    // mapping of whitelisted addresses, starting false for all addresses\n    mapping(address => Renter) public whitelistedAddresses;\n    // blacklist mapping\n    mapping(address => bool) public blacklistedAddresses;\n    // mapping of last subscription timestamp\n    mapping(address => uint) private lastSubscriptionTimestamp;\n\n    I1TwoWheels2RentRenter TW2RR;\n\n    BikeRent bikeRent;\n\n    /**\n     * @notice Constructor to set the required addresses for the contract.\n     * @param _TW2RR Address of the TwoWheels2RentRenter contract.\n     * @param _W2R Address of the W2R token contract.\n     * @param _TW2RLenderNFT Address of the Lender NFT contract.\n     * @param _vaultW2R Address of the VaultW2R contract.\n     */\n\n    constructor(\n        address _TW2RR,\n        address _W2R,\n        address _TW2RLenderNFT,\n        I2VaultW2R _vaultW2R\n    ) {\n        require(\n            _TW2RR != address(0) &&\n                _W2R != address(0) &&\n                _TW2RLenderNFT != address(0) &&\n                address(_vaultW2R) != address(0),\n            \"bad address\"\n        );\n        vaultW2R = _vaultW2R;\n        // set the address of the TwoWheels2RentRenter contract\n        TW2RR = I1TwoWheels2RentRenter(_TW2RR);\n        // set the address of the W2R token contract\n        W2R = ERC20(_W2R);\n        // set the address of the lender NFT contract\n        TW2RLenderNFT = _TW2RLenderNFT;\n    }\n\n    /**\n     * @notice Set the LenderWhitelist contract address.\n     * @param _lenderWhitelist Address of the LenderWhitelist contract.\n     */\n    function setLenderWhitelistAddress(\n        address _lenderWhitelist\n    ) external onlyOwner {\n        require(_lenderWhitelist != address(0));\n        // set the address of the TwoWheels2RentLenderWhitelist contract\n        lenderWhitelist = _lenderWhitelist;\n    }\n\n    /**\n     * @notice Add a renter to the whitelist, set Renter struct and call mintNFT.\n     * @param name Renter's name.\n     * @param rather Renter's rather.\n     */\n    function setRenterInfoAndMint(\n        string memory name,\n        string memory rather\n    ) public {\n        require(!blacklistedAddresses[msg.sender], \"bl\");\n        require(!whitelistedAddresses[msg.sender].isWhitelisted, \"wl\");\n        uint currentTime = block.timestamp;\n        require(\n            currentTime - lastSubscriptionTimestamp[msg.sender] >= 2 days,\n            \"once in 2 days\"\n        );\n        require(\n            whitelistedAddresses[msg.sender].bikeRentContract == address(0),\n            \"deployed\"\n        );\n        require(whitelistedAddresses[msg.sender].NFTId == 0, \"minted\");\n        require(bytes(name).length > 0 && bytes(rather).length > 0, \"empty\");\n        require(\n            bytes(name).length <= 40 && bytes(rather).length <= 40,\n            \"too long\"\n        );\n        // check if the image is set\n        require(TW2RR.getIpfsHashLength(), \"no IPFS\");\n        // set the RenterInfo struct\n        I1TwoWheels2RentRenter.RenterInfo\n            memory renterInfo = I1TwoWheels2RentRenter.RenterInfo(name, rather);\n        // add the address to the whitelist\n        whitelistedAddresses[msg.sender].isWhitelisted = true;\n        numAddressesWhitelisted++;\n        // mint and add the NFT id to the mapping\n        whitelistedAddresses[msg.sender].NFTId = TW2RR.mintNFT(\n            msg.sender,\n            renterInfo\n        );\n        // deploy bikeRent contract\n        deployBikeRentContract();\n        lastSubscriptionTimestamp[msg.sender] = currentTime;\n        emit RenterWhitelisted(\n            msg.sender,\n            whitelistedAddresses[msg.sender].NFTId\n        );\n    }\n\n    /**\n     * @dev Deploy a BikeRent contract for the renter.\n     */\n\n    function deployBikeRentContract() private {\n        require(!blacklistedAddresses[msg.sender], \"bl\");\n        require(whitelistedAddresses[msg.sender].isWhitelisted, \"not wl\");\n        require(\n            whitelistedAddresses[msg.sender].bikeRentContract == address(0),\n            \"deployed\"\n        );\n        require(whitelistedAddresses[msg.sender].NFTId != 0, \"not minted\");\n        require(lenderWhitelist != address(0));\n        // deploy bikeRent contract\n        bikeRent = new BikeRent(\n            // the address of the caller of this function\n            msg.sender,\n            // the address of the W2R token contract\n            address(W2R),\n            // the address of the Lender NFT contract\n            TW2RLenderNFT,\n            // address of this contract\n            address(this),\n            // address of vaultW2R\n            address(vaultW2R),\n            // address of lenderWhitelist\n            lenderWhitelist\n        );\n        // add the bikeRent contract address to the mapping\n        whitelistedAddresses[msg.sender].bikeRentContract = address(bikeRent);\n        // authorize the bikeShare contract to spend vault W2R tokens\n        vaultW2R.setApprovedContract(address(bikeRent), true);\n    }\n\n    /**\n     * @notice Remove a renter from the whitelist.\n     */\n\n    function removeAddressFromWhitelist() external {\n        require(!blacklistedAddresses[msg.sender], \"bl\");\n        // msg.sender is the address of the caller of this function\n        require(whitelistedAddresses[msg.sender].isWhitelisted, \"not wl\");\n        doRemoveStuff(msg.sender);\n        // emit event\n        emit RenterRemovedFromWhitelist(\n            msg.sender,\n            whitelistedAddresses[msg.sender].NFTId\n        );\n    }\n\n    /**\n     * @notice Add an address to the blacklist.\n     * @param _address Address to be blacklisted.\n     */\n\n    function addToBlacklist(address _address) external onlyOwner {\n        require(!blacklistedAddresses[_address], \"bl\");\n        // if address was whitelisted\n        if (whitelistedAddresses[_address].isWhitelisted) {\n            require(doRemoveStuff(_address), \"error\");\n            // add address to blacklist\n            blacklistedAddresses[_address] = true;\n            // emit event\n            emit RenterRemovedFromWhitelist(\n                _address,\n                whitelistedAddresses[_address].NFTId\n            );\n        }\n    }\n\n    /**\n     * @notice Remove an address from the blacklist.\n     * @param _address Address to be removed from the blacklist.\n     */\n\n    function removeFromBlacklist(address _address) external onlyOwner {\n        require(blacklistedAddresses[_address], \"not bl\");\n        // remove address from blacklist\n        delete blacklistedAddresses[_address];\n        // emit event\n        emit RenterRemovedFromBlacklist(_address);\n    }\n\n    /**\n     * @dev Perform necessary actions to remove a renter from the whitelist.\n     * @param _address Address of the renter to be removed.\n     * @return true if successful, false otherwise.\n     */\n\n    function doRemoveStuff(address _address) private returns (bool) {\n        // burn NFT\n        require(\n            TW2RR.burnNFT(whitelistedAddresses[_address].NFTId),\n            \"burn error\"\n        );\n        // destroy bikeRent contract\n        bikeRent = BikeRent(whitelistedAddresses[_address].bikeRentContract);\n        require(bikeRent.destroy(), \"error destroy\");\n        require(\n            vaultW2R.removeApprovedContract(address(bikeRent)),\n            \"Error removing\"\n        );\n        // remove address from whitelist\n        delete whitelistedAddresses[_address];\n        numAddressesWhitelisted--;\n        return true;\n    }\n\n    /**\n     * @notice Prevent renouncing ownership of this contract.\n     */\n\n    function renounceOwnership() public view override onlyOwner {\n        revert(\"Cant be renounced\");\n    }\n}\n",
  "sourcePath": "/Users/harbinger/Dropbox/Dossier familial/Formation Blockchain/Alyra/Projet Certification/Projet Alyra 2Wheels2Rent/truffle/contracts/RenterWhitelist.sol",
  "compiler": {
    "name": "solc",
    "version": "0.8.18+commit.87f61d96.Emscripten.clang"
  },
  "schemaVersion": "3.4.12",
  "updatedAt": "2023-05-07T15:50:19.891Z",
  "networkType": "ethereum",
  "devdoc": {
    "author": "Crypt0zaurus https://www.linkedin.com/in/maxence-a-a82081260",
    "details": "This contract manages a whitelist of renters and their associated BikeRent contracts. It allows renters to be added to the whitelist and to deploy BikeRent contracts. The contract owner can add and remove renters from the blacklist.",
    "kind": "dev",
    "methods": {
      "addToBlacklist(address)": {
        "params": {
          "_address": "Address to be blacklisted."
        }
      },
      "constructor": {
        "params": {
          "_TW2RLenderNFT": "Address of the Lender NFT contract.",
          "_TW2RR": "Address of the TwoWheels2RentRenter contract.",
          "_W2R": "Address of the W2R token contract.",
          "_vaultW2R": "Address of the VaultW2R contract."
        }
      },
      "owner()": {
        "details": "Returns the address of the current owner."
      },
      "removeFromBlacklist(address)": {
        "params": {
          "_address": "Address to be removed from the blacklist."
        }
      },
      "setLenderWhitelistAddress(address)": {
        "params": {
          "_lenderWhitelist": "Address of the LenderWhitelist contract."
        }
      },
      "setRenterInfoAndMint(string,string)": {
        "params": {
          "name": "Renter's name.",
          "rather": "Renter's rather."
        }
      },
      "transferOwnership(address)": {
        "details": "Transfers ownership of the contract to a new account (`newOwner`). Can only be called by the current owner."
      }
    },
    "title": "RenterWhitelist",
    "version": 1
  },
  "userdoc": {
    "kind": "user",
    "methods": {
      "addToBlacklist(address)": {
        "notice": "Add an address to the blacklist."
      },
      "constructor": {
        "notice": "Constructor to set the required addresses for the contract."
      },
      "removeAddressFromWhitelist()": {
        "notice": "Remove a renter from the whitelist."
      },
      "removeFromBlacklist(address)": {
        "notice": "Remove an address from the blacklist."
      },
      "renounceOwnership()": {
        "notice": "Prevent renouncing ownership of this contract."
      },
      "setLenderWhitelistAddress(address)": {
        "notice": "Set the LenderWhitelist contract address."
      },
      "setRenterInfoAndMint(string,string)": {
        "notice": "Add a renter to the whitelist, set Renter struct and call mintNFT."
      }
    },
    "version": 1
  }
}