{
  "contractName": "TwoWheels2RentRenter",
  "abi": [
    {
      "inputs": [],
      "stateMutability": "nonpayable",
      "type": "constructor"
    },
    {
      "anonymous": false,
      "inputs": [
        {
          "indexed": true,
          "internalType": "address",
          "name": "owner",
          "type": "address"
        },
        {
          "indexed": true,
          "internalType": "address",
          "name": "approved",
          "type": "address"
        },
        {
          "indexed": true,
          "internalType": "uint256",
          "name": "tokenId",
          "type": "uint256"
        }
      ],
      "name": "Approval",
      "type": "event"
    },
    {
      "anonymous": false,
      "inputs": [
        {
          "indexed": true,
          "internalType": "address",
          "name": "owner",
          "type": "address"
        },
        {
          "indexed": true,
          "internalType": "address",
          "name": "operator",
          "type": "address"
        },
        {
          "indexed": false,
          "internalType": "bool",
          "name": "approved",
          "type": "bool"
        }
      ],
      "name": "ApprovalForAll",
      "type": "event"
    },
    {
      "anonymous": false,
      "inputs": [
        {
          "indexed": false,
          "internalType": "uint256",
          "name": "tokenId",
          "type": "uint256"
        }
      ],
      "name": "BurnedNFT",
      "type": "event"
    },
    {
      "anonymous": false,
      "inputs": [
        {
          "indexed": false,
          "internalType": "address",
          "name": "recipient",
          "type": "address"
        },
        {
          "indexed": false,
          "internalType": "uint256",
          "name": "tokenId",
          "type": "uint256"
        },
        {
          "indexed": false,
          "internalType": "string",
          "name": "uri",
          "type": "string"
        }
      ],
      "name": "MintedNFTWithURI",
      "type": "event"
    },
    {
      "anonymous": false,
      "inputs": [
        {
          "indexed": true,
          "internalType": "address",
          "name": "previousOwner",
          "type": "address"
        },
        {
          "indexed": true,
          "internalType": "address",
          "name": "newOwner",
          "type": "address"
        }
      ],
      "name": "OwnershipTransferred",
      "type": "event"
    },
    {
      "anonymous": false,
      "inputs": [
        {
          "indexed": true,
          "internalType": "address",
          "name": "from",
          "type": "address"
        },
        {
          "indexed": true,
          "internalType": "address",
          "name": "to",
          "type": "address"
        },
        {
          "indexed": true,
          "internalType": "uint256",
          "name": "tokenId",
          "type": "uint256"
        }
      ],
      "name": "Transfer",
      "type": "event"
    },
    {
      "inputs": [
        {
          "internalType": "address",
          "name": "to",
          "type": "address"
        },
        {
          "internalType": "uint256",
          "name": "tokenId",
          "type": "uint256"
        }
      ],
      "name": "approve",
      "outputs": [],
      "stateMutability": "nonpayable",
      "type": "function"
    },
    {
      "inputs": [
        {
          "internalType": "address",
          "name": "owner",
          "type": "address"
        }
      ],
      "name": "balanceOf",
      "outputs": [
        {
          "internalType": "uint256",
          "name": "",
          "type": "uint256"
        }
      ],
      "stateMutability": "view",
      "type": "function",
      "constant": true
    },
    {
      "inputs": [
        {
          "internalType": "uint256",
          "name": "tokenId",
          "type": "uint256"
        }
      ],
      "name": "getApproved",
      "outputs": [
        {
          "internalType": "address",
          "name": "",
          "type": "address"
        }
      ],
      "stateMutability": "view",
      "type": "function",
      "constant": true
    },
    {
      "inputs": [
        {
          "internalType": "address",
          "name": "owner",
          "type": "address"
        },
        {
          "internalType": "address",
          "name": "operator",
          "type": "address"
        }
      ],
      "name": "isApprovedForAll",
      "outputs": [
        {
          "internalType": "bool",
          "name": "",
          "type": "bool"
        }
      ],
      "stateMutability": "view",
      "type": "function",
      "constant": true
    },
    {
      "inputs": [],
      "name": "name",
      "outputs": [
        {
          "internalType": "string",
          "name": "",
          "type": "string"
        }
      ],
      "stateMutability": "view",
      "type": "function",
      "constant": true
    },
    {
      "inputs": [],
      "name": "owner",
      "outputs": [
        {
          "internalType": "address",
          "name": "",
          "type": "address"
        }
      ],
      "stateMutability": "view",
      "type": "function",
      "constant": true
    },
    {
      "inputs": [
        {
          "internalType": "uint256",
          "name": "tokenId",
          "type": "uint256"
        }
      ],
      "name": "ownerOf",
      "outputs": [
        {
          "internalType": "address",
          "name": "",
          "type": "address"
        }
      ],
      "stateMutability": "view",
      "type": "function",
      "constant": true
    },
    {
      "inputs": [
        {
          "internalType": "address",
          "name": "from",
          "type": "address"
        },
        {
          "internalType": "address",
          "name": "to",
          "type": "address"
        },
        {
          "internalType": "uint256",
          "name": "tokenId",
          "type": "uint256"
        }
      ],
      "name": "safeTransferFrom",
      "outputs": [],
      "stateMutability": "nonpayable",
      "type": "function"
    },
    {
      "inputs": [
        {
          "internalType": "address",
          "name": "from",
          "type": "address"
        },
        {
          "internalType": "address",
          "name": "to",
          "type": "address"
        },
        {
          "internalType": "uint256",
          "name": "tokenId",
          "type": "uint256"
        },
        {
          "internalType": "bytes",
          "name": "data",
          "type": "bytes"
        }
      ],
      "name": "safeTransferFrom",
      "outputs": [],
      "stateMutability": "nonpayable",
      "type": "function"
    },
    {
      "inputs": [
        {
          "internalType": "address",
          "name": "operator",
          "type": "address"
        },
        {
          "internalType": "bool",
          "name": "approved",
          "type": "bool"
        }
      ],
      "name": "setApprovalForAll",
      "outputs": [],
      "stateMutability": "nonpayable",
      "type": "function"
    },
    {
      "inputs": [
        {
          "internalType": "bytes4",
          "name": "interfaceId",
          "type": "bytes4"
        }
      ],
      "name": "supportsInterface",
      "outputs": [
        {
          "internalType": "bool",
          "name": "",
          "type": "bool"
        }
      ],
      "stateMutability": "view",
      "type": "function",
      "constant": true
    },
    {
      "inputs": [],
      "name": "symbol",
      "outputs": [
        {
          "internalType": "string",
          "name": "",
          "type": "string"
        }
      ],
      "stateMutability": "view",
      "type": "function",
      "constant": true
    },
    {
      "inputs": [
        {
          "internalType": "uint256",
          "name": "tokenId",
          "type": "uint256"
        }
      ],
      "name": "tokenURI",
      "outputs": [
        {
          "internalType": "string",
          "name": "",
          "type": "string"
        }
      ],
      "stateMutability": "view",
      "type": "function",
      "constant": true
    },
    {
      "inputs": [
        {
          "internalType": "address",
          "name": "from",
          "type": "address"
        },
        {
          "internalType": "address",
          "name": "to",
          "type": "address"
        },
        {
          "internalType": "uint256",
          "name": "tokenId",
          "type": "uint256"
        }
      ],
      "name": "transferFrom",
      "outputs": [],
      "stateMutability": "nonpayable",
      "type": "function"
    },
    {
      "inputs": [
        {
          "internalType": "address",
          "name": "newOwner",
          "type": "address"
        }
      ],
      "name": "transferOwnership",
      "outputs": [],
      "stateMutability": "nonpayable",
      "type": "function"
    },
    {
      "inputs": [],
      "name": "whitelistContract",
      "outputs": [
        {
          "internalType": "address",
          "name": "",
          "type": "address"
        }
      ],
      "stateMutability": "view",
      "type": "function",
      "constant": true
    },
    {
      "inputs": [],
      "name": "getIpfsHashLength",
      "outputs": [
        {
          "internalType": "bool",
          "name": "",
          "type": "bool"
        }
      ],
      "stateMutability": "view",
      "type": "function",
      "constant": true
    },
    {
      "inputs": [
        {
          "internalType": "address",
          "name": "_whitelistContract",
          "type": "address"
        }
      ],
      "name": "setRenterWhitelistContract",
      "outputs": [
        {
          "internalType": "bool",
          "name": "",
          "type": "bool"
        }
      ],
      "stateMutability": "nonpayable",
      "type": "function"
    },
    {
      "inputs": [
        {
          "internalType": "string",
          "name": "_ipfsHash",
          "type": "string"
        }
      ],
      "name": "setIpfsHash",
      "outputs": [
        {
          "internalType": "bool",
          "name": "",
          "type": "bool"
        }
      ],
      "stateMutability": "nonpayable",
      "type": "function"
    },
    {
      "inputs": [
        {
          "internalType": "address",
          "name": "recipient",
          "type": "address"
        },
        {
          "components": [
            {
              "internalType": "string",
              "name": "name",
              "type": "string"
            },
            {
              "internalType": "string",
              "name": "rather",
              "type": "string"
            }
          ],
          "internalType": "struct TwoWheels2RentRenter.RenterInfo",
          "name": "renterInfo",
          "type": "tuple"
        }
      ],
      "name": "mintNFT",
      "outputs": [
        {
          "internalType": "uint256",
          "name": "",
          "type": "uint256"
        }
      ],
      "stateMutability": "nonpayable",
      "type": "function"
    },
    {
      "inputs": [
        {
          "internalType": "uint256",
          "name": "tokenId",
          "type": "uint256"
        }
      ],
      "name": "burnNFT",
      "outputs": [
        {
          "internalType": "bool",
          "name": "",
          "type": "bool"
        }
      ],
      "stateMutability": "nonpayable",
      "type": "function"
    },
    {
      "inputs": [],
      "name": "renounceOwnership",
      "outputs": [],
      "stateMutability": "view",
      "type": "function",
      "constant": true
    }
  ],
  "bytecode": "0x60806040523480156200001157600080fd5b5060405180604001604052806012815260200171192bb432b2b639992932b73a2932b73a32b960711b8152506040518060400160405280600781526020016615cc949391951560ca1b81525081600090816200006e91906200019b565b5060016200007d82826200019b565b5050506200009a62000094620000a060201b60201c565b620000a4565b62000267565b3390565b600780546001600160a01b038381166001600160a01b0319831681179093556040519116919082907f8be0079c531659141344cd1fd0a4f28419497f9722a3daafe3b4186f6b6457e090600090a35050565b634e487b7160e01b600052604160045260246000fd5b600181811c908216806200012157607f821691505b6020821081036200014257634e487b7160e01b600052602260045260246000fd5b50919050565b601f8211156200019657600081815260208120601f850160051c81016020861015620001715750805b601f850160051c820191505b8181101562000192578281556001016200017d565b5050505b505050565b81516001600160401b03811115620001b757620001b7620000f6565b620001cf81620001c884546200010c565b8462000148565b602080601f831160018114620002075760008415620001ee5750858301515b600019600386901b1c1916600185901b17855562000192565b600085815260208120601f198616915b82811015620002385788860151825594840194600190910190840162000217565b5085821015620002575787850151600019600388901b60f8161c191681555b5050505050600190811b01905550565b61233980620002776000396000f3fe608060405234801561001057600080fd5b50600436106101425760003560e01c8063715018a6116100b8578063b88d4fde1161007c578063b88d4fde14610293578063ba1e2df8146102a6578063c87b56dd146102b9578063e8c3bc05146102cc578063e985e9c5146102df578063f2fde38b1461031b57600080fd5b8063715018a61461024c57806384900b04146102545780638da5cb5b1461026757806395d89b4114610278578063a22cb4651461028057600080fd5b80632890e0d71161010a5780632890e0d7146101d757806340219945146101ea57806342842e0e146101f25780634e3b62ec146102055780636352211e1461021857806370a082311461022b57600080fd5b806301ffc9a71461014757806306fdde031461016f578063081812fc14610184578063095ea7b3146101af57806323b872dd146101c4575b600080fd5b61015a610155366004611a65565b61032e565b60405190151581526020015b60405180910390f35b610177610380565b6040516101669190611ad2565b610197610192366004611ae5565b610412565b6040516001600160a01b039091168152602001610166565b6101c26101bd366004611b15565b610439565b005b6101c26101d2366004611b3f565b610553565b61015a6101e5366004611ae5565b610584565b61015a61068f565b6101c2610200366004611b3f565b610703565b61015a610213366004611c07565b61071e565b610197610226366004611ae5565b610784565b61023e610239366004611c50565b6107e4565b604051908152602001610166565b6101c261086a565b600954610197906001600160a01b031681565b6007546001600160a01b0316610197565b6101776108ba565b6101c261028e366004611c6b565b6108c9565b6101c26102a1366004611ca7565b6108d8565b61015a6102b4366004611c50565b610910565b6101776102c7366004611ae5565b610995565b61023e6102da366004611d23565b610aa5565b61015a6102ed366004611d6d565b6001600160a01b03918216600090815260056020908152604080832093909416825291909152205460ff1690565b6101c2610329366004611c50565b610d21565b60006001600160e01b031982166380ac58cd60e01b148061035f57506001600160e01b03198216635b5e139f60e01b145b8061037a57506301ffc9a760e01b6001600160e01b03198316145b92915050565b60606000805461038f90611da0565b80601f01602080910402602001604051908101604052809291908181526020018280546103bb90611da0565b80156104085780601f106103dd57610100808354040283529160200191610408565b820191906000526020600020905b8154815290600101906020018083116103eb57829003601f168201915b5050505050905090565b600061041d82610d9a565b506000908152600460205260409020546001600160a01b031690565b600061044482610784565b9050806001600160a01b0316836001600160a01b0316036104b65760405162461bcd60e51b815260206004820152602160248201527f4552433732313a20617070726f76616c20746f2063757272656e74206f776e656044820152603960f91b60648201526084015b60405180910390fd5b336001600160a01b03821614806104d257506104d281336102ed565b6105445760405162461bcd60e51b815260206004820152603d60248201527f4552433732313a20617070726f76652063616c6c6572206973206e6f7420746f60448201527f6b656e206f776e6572206f7220617070726f76656420666f7220616c6c00000060648201526084016104ad565b61054e8383610df9565b505050565b61055d3382610e67565b6105795760405162461bcd60e51b81526004016104ad90611dda565b61054e838383610ee5565b6009546000906001600160a01b03166105df5760405162461bcd60e51b815260206004820152601a60248201527f57686974656c69737420636f6e7472616374206e6f742073657400000000000060448201526064016104ad565b6009546001600160a01b0316331461064b5760405162461bcd60e51b815260206004820152602960248201527f4f6e6c79207468652077686974656c69737420636f6e74726163742063616e206044820152686275726e204e46547360b81b60648201526084016104ad565b61065482611056565b6040518281527f13889bb0a6b63a6f3c1862927c7cceb6214b294a1effefbe38a9af56fa3438429060200160405180910390a1506001919050565b6009546000906001600160a01b031633146106ec5760405162461bcd60e51b815260206004820152601b60248201527f4f6e6c79207468652077686974656c69737420636f6e7472616374000000000060448201526064016104ad565b6000600a80546106fb90611da0565b905011905090565b61054e838383604051806020016040528060008152506108d8565b6000610728611096565b600082511161076d5760405162461bcd60e51b815260206004820152601160248201527012541194c81a185cda081b9bdd081cd95d607a1b60448201526064016104ad565b600a6107798382611e75565b50600190505b919050565b6000818152600260205260408120546001600160a01b03168061037a5760405162461bcd60e51b8152602060048201526018602482015277115490cdcc8c4e881a5b9d985b1a59081d1bdad95b88125160421b60448201526064016104ad565b60006001600160a01b03821661084e5760405162461bcd60e51b815260206004820152602960248201527f4552433732313a2061646472657373207a65726f206973206e6f7420612076616044820152683634b21037bbb732b960b91b60648201526084016104ad565b506001600160a01b031660009081526003602052604090205490565b610872611096565b60405162461bcd60e51b815260206004820152601d60248201527f4f776e6572736869702063616e6e6f742062652072656e6f756e63656400000060448201526064016104ad565b60606001805461038f90611da0565b6108d43383836110f2565b5050565b6108e23383610e67565b6108fe5760405162461bcd60e51b81526004016104ad90611dda565b61090a848484846111c0565b50505050565b600061091a611096565b6001600160a01b0382166109705760405162461bcd60e51b815260206004820152601860248201527f5a65726f2061646472657373206e6f7420616c6c6f776564000000000000000060448201526064016104ad565b50600980546001600160a01b0383166001600160a01b03199091161790556001919050565b60606109a082610d9a565b600082815260066020526040812080546109b990611da0565b80601f01602080910402602001604051908101604052809291908181526020018280546109e590611da0565b8015610a325780601f10610a0757610100808354040283529160200191610a32565b820191906000526020600020905b815481529060010190602001808311610a1557829003601f168201915b505050505090506000610a5060408051602081019091526000815290565b90508051600003610a62575092915050565b815115610a94578082604051602001610a7c929190611f35565b60405160208183030381529060405292505050919050565b610a9d846111f3565b949350505050565b6009546000906001600160a01b0316610abd57600080fd5b6001600160a01b038316610ad057600080fd5b6000600a8054610adf90611da0565b905011610b225760405162461bcd60e51b815260206004820152601160248201527012541194c81a185cda081b9bdd081cd95d607a1b60448201526064016104ad565b6009546001600160a01b03163314610b7c5760405162461bcd60e51b815260206004820152601b60248201527f4f6e6c79207468652077686974656c69737420636f6e7472616374000000000060448201526064016104ad565b6000610b888380611f64565b9050118015610ba557506000610ba16020840184611f64565b9050115b610be05760405162461bcd60e51b815260206004820152600c60248201526b456d707479206669656c647360a01b60448201526064016104ad565b6028610bec8380611f64565b905011158015610c0b57506028610c066020840184611f64565b905011155b610c425760405162461bcd60e51b8152602060048201526008602482015267546f6f206c6f6e6760c01b60448201526064016104ad565b610c50600880546001019055565b6000610c96610c5f8480611f64565b610c6c6020870187611f64565b600a604051602001610c82959493929190611fb2565b604051602081830303815290604052611267565b9050600081604051602001610cab91906120fb565b60405160208183030381529060405290506000610cc760085490565b9050610cd386826113cc565b610cdd81836113e6565b7f66a2a617f4a90250eb872d78b65d7d00459630491de269dc6edef2f622b085ca868284604051610d1093929190612140565b60405180910390a195945050505050565b610d29611096565b6001600160a01b038116610d8e5760405162461bcd60e51b815260206004820152602660248201527f4f776e61626c653a206e6577206f776e657220697320746865207a65726f206160448201526564647265737360d01b60648201526084016104ad565b610d9781611479565b50565b6000818152600260205260409020546001600160a01b0316610d975760405162461bcd60e51b8152602060048201526018602482015277115490cdcc8c4e881a5b9d985b1a59081d1bdad95b88125160421b60448201526064016104ad565b600081815260046020526040902080546001600160a01b0319166001600160a01b0384169081179091558190610e2e82610784565b6001600160a01b03167f8c5be1e5ebec7d5bd14f71427d1e84f3dd0314c0f7b2291e5b200ac8c7c3b92560405160405180910390a45050565b600080610e7383610784565b9050806001600160a01b0316846001600160a01b03161480610eba57506001600160a01b0380821660009081526005602090815260408083209388168352929052205460ff165b80610a9d5750836001600160a01b0316610ed384610412565b6001600160a01b031614949350505050565b826001600160a01b0316610ef882610784565b6001600160a01b031614610f1e5760405162461bcd60e51b81526004016104ad90612170565b6001600160a01b038216610f805760405162461bcd60e51b8152602060048201526024808201527f4552433732313a207472616e7366657220746f20746865207a65726f206164646044820152637265737360e01b60648201526084016104ad565b610f8d83838360016114cb565b826001600160a01b0316610fa082610784565b6001600160a01b031614610fc65760405162461bcd60e51b81526004016104ad90612170565b600081815260046020908152604080832080546001600160a01b03199081169091556001600160a01b0387811680865260038552838620805460001901905590871680865283862080546001019055868652600290945282852080549092168417909155905184937fddf252ad1be2c89b69c2b068fc378daa952ba7f163c4a11628f55a4df523b3ef91a4505050565b61105f81611526565b6000818152600660205260409020805461107890611da0565b159050610d97576000818152600660205260408120610d9791611a01565b6007546001600160a01b031633146110f05760405162461bcd60e51b815260206004820181905260248201527f4f776e61626c653a2063616c6c6572206973206e6f7420746865206f776e657260448201526064016104ad565b565b816001600160a01b0316836001600160a01b0316036111535760405162461bcd60e51b815260206004820152601960248201527f4552433732313a20617070726f766520746f2063616c6c65720000000000000060448201526064016104ad565b6001600160a01b03838116600081815260056020908152604080832094871680845294825291829020805460ff191686151590811790915591519182527f17307eab39ab6107e8899845ad3d59bd9653f200f220920489ca2b5937696c31910160405180910390a3505050565b6111cb848484610ee5565b6111d7848484846115c9565b61090a5760405162461bcd60e51b81526004016104ad906121b5565b60606111fe82610d9a565b600061121560408051602081019091526000815290565b905060008151116112355760405180602001604052806000815250611260565b8061123f846116ca565b604051602001611250929190611f35565b6040516020818303038152906040525b9392505050565b6060815160000361128657505060408051602081019091526000815290565b60006040518060600160405280604081526020016122c460409139905060006003845160026112b5919061221d565b6112bf9190612230565b6112ca906004612252565b905060006112d982602061221d565b67ffffffffffffffff8111156112f1576112f1611b7b565b6040519080825280601f01601f19166020018201604052801561131b576020820181803683370190505b509050818152600183018586518101602084015b81831015611387576003830192508251603f8160121c168501518253600182019150603f81600c1c168501518253600182019150603f8160061c168501518253600182019150603f811685015182535060010161132f565b6003895106600181146113a157600281146113b2576113be565b613d3d60f01b6001198301526113be565b603d60f81b6000198301525b509398975050505050505050565b6108d482826040518060200160405280600081525061175d565b6000828152600260205260409020546001600160a01b03166114615760405162461bcd60e51b815260206004820152602e60248201527f45524337323155524953746f726167653a2055524920736574206f66206e6f6e60448201526d32bc34b9ba32b73a103a37b5b2b760911b60648201526084016104ad565b600082815260066020526040902061054e8282611e75565b600780546001600160a01b038381166001600160a01b0319831681179093556040519116919082907f8be0079c531659141344cd1fd0a4f28419497f9722a3daafe3b4186f6b6457e090600090a35050565b6001600160a01b03841615806114e857506001600160a01b038316155b61090a5760405162461bcd60e51b815260206004820152600f60248201526e29b7bab63137bab732102a37b5b2b760891b60448201526064016104ad565b600061153182610784565b90506115418160008460016114cb565b61154a82610784565b600083815260046020908152604080832080546001600160a01b03199081169091556001600160a01b0385168085526003845282852080546000190190558785526002909352818420805490911690555192935084927fddf252ad1be2c89b69c2b068fc378daa952ba7f163c4a11628f55a4df523b3ef908390a45050565b60006001600160a01b0384163b156116bf57604051630a85bd0160e11b81526001600160a01b0385169063150b7a029061160d903390899088908890600401612269565b6020604051808303816000875af1925050508015611648575060408051601f3d908101601f19168201909252611645918101906122a6565b60015b6116a5573d808015611676576040519150601f19603f3d011682016040523d82523d6000602084013e61167b565b606091505b50805160000361169d5760405162461bcd60e51b81526004016104ad906121b5565b805181602001fd5b6001600160e01b031916630a85bd0160e11b149050610a9d565b506001949350505050565b606060006116d783611790565b600101905060008167ffffffffffffffff8111156116f7576116f7611b7b565b6040519080825280601f01601f191660200182016040528015611721576020820181803683370190505b5090508181016020015b600019016f181899199a1a9b1b9c1cb0b131b232b360811b600a86061a8153600a850494508461172b57509392505050565b6117678383611868565b61177460008484846115c9565b61054e5760405162461bcd60e51b81526004016104ad906121b5565b60008072184f03e93ff9f4daa797ed6e38ed64bf6a1f0160401b83106117cf5772184f03e93ff9f4daa797ed6e38ed64bf6a1f0160401b830492506040015b6d04ee2d6d415b85acef810000000083106117fb576d04ee2d6d415b85acef8100000000830492506020015b662386f26fc10000831061181957662386f26fc10000830492506010015b6305f5e1008310611831576305f5e100830492506008015b612710831061184557612710830492506004015b60648310611857576064830492506002015b600a831061037a5760010192915050565b6001600160a01b0382166118be5760405162461bcd60e51b815260206004820181905260248201527f4552433732313a206d696e7420746f20746865207a65726f206164647265737360448201526064016104ad565b6000818152600260205260409020546001600160a01b0316156119235760405162461bcd60e51b815260206004820152601c60248201527f4552433732313a20746f6b656e20616c7265616479206d696e7465640000000060448201526064016104ad565b6119316000838360016114cb565b6000818152600260205260409020546001600160a01b0316156119965760405162461bcd60e51b815260206004820152601c60248201527f4552433732313a20746f6b656e20616c7265616479206d696e7465640000000060448201526064016104ad565b6001600160a01b038216600081815260036020908152604080832080546001019055848352600290915280822080546001600160a01b0319168417905551839291907fddf252ad1be2c89b69c2b068fc378daa952ba7f163c4a11628f55a4df523b3ef908290a45050565b508054611a0d90611da0565b6000825580601f10611a1d575050565b601f016020900490600052602060002090810190610d9791905b80821115611a4b5760008155600101611a37565b5090565b6001600160e01b031981168114610d9757600080fd5b600060208284031215611a7757600080fd5b813561126081611a4f565b60005b83811015611a9d578181015183820152602001611a85565b50506000910152565b60008151808452611abe816020860160208601611a82565b601f01601f19169290920160200192915050565b6020815260006112606020830184611aa6565b600060208284031215611af757600080fd5b5035919050565b80356001600160a01b038116811461077f57600080fd5b60008060408385031215611b2857600080fd5b611b3183611afe565b946020939093013593505050565b600080600060608486031215611b5457600080fd5b611b5d84611afe565b9250611b6b60208501611afe565b9150604084013590509250925092565b634e487b7160e01b600052604160045260246000fd5b600067ffffffffffffffff80841115611bac57611bac611b7b565b604051601f8501601f19908116603f01168101908282118183101715611bd457611bd4611b7b565b81604052809350858152868686011115611bed57600080fd5b858560208301376000602087830101525050509392505050565b600060208284031215611c1957600080fd5b813567ffffffffffffffff811115611c3057600080fd5b8201601f81018413611c4157600080fd5b610a9d84823560208401611b91565b600060208284031215611c6257600080fd5b61126082611afe565b60008060408385031215611c7e57600080fd5b611c8783611afe565b915060208301358015158114611c9c57600080fd5b809150509250929050565b60008060008060808587031215611cbd57600080fd5b611cc685611afe565b9350611cd460208601611afe565b925060408501359150606085013567ffffffffffffffff811115611cf757600080fd5b8501601f81018713611d0857600080fd5b611d1787823560208401611b91565b91505092959194509250565b60008060408385031215611d3657600080fd5b611d3f83611afe565b9150602083013567ffffffffffffffff811115611d5b57600080fd5b830160408186031215611c9c57600080fd5b60008060408385031215611d8057600080fd5b611d8983611afe565b9150611d9760208401611afe565b90509250929050565b600181811c90821680611db457607f821691505b602082108103611dd457634e487b7160e01b600052602260045260246000fd5b50919050565b6020808252602d908201527f4552433732313a2063616c6c6572206973206e6f7420746f6b656e206f776e6560408201526c1c881bdc88185c1c1c9bdd9959609a1b606082015260800190565b601f82111561054e57600081815260208120601f850160051c81016020861015611e4e5750805b601f850160051c820191505b81811015611e6d57828155600101611e5a565b505050505050565b815167ffffffffffffffff811115611e8f57611e8f611b7b565b611ea381611e9d8454611da0565b84611e27565b602080601f831160018114611ed85760008415611ec05750858301515b600019600386901b1c1916600185901b178555611e6d565b600085815260208120601f198616915b82811015611f0757888601518255948401946001909101908401611ee8565b5085821015611f255787850151600019600388901b60f8161c191681555b5050505050600190811b01905550565b60008351611f47818460208801611a82565b835190830190611f5b818360208801611a82565b01949350505050565b6000808335601e19843603018112611f7b57600080fd5b83018035915067ffffffffffffffff821115611f9657600080fd5b602001915036819003821315611fab57600080fd5b9250929050565b693d913730b6b2911d101160b11b81528486600a83013760008582017f222c20226465736372697074696f6e223a202232576865656c733252656e7420600a8201527f52656e746572204e4654222c202261747472696275746573223a205b7b227472602a8201527f6169745f74797065223a2022726174686572222c202276616c7565223a202200604a8201528486606983013775227d5d2c2022696d616765223a2022697066733a2f2f60501b6069918601918201528354607f9060009061207b81611da0565b6001828116801561209357600181146120ac576120df565b60ff1984168787015282151583028701860194506120df565b8960005260208060002060005b858110156120d45781548a82018a01529084019082016120b9565b505050858388010194505b505061227d60f01b835250506002019998505050505050505050565b7f646174613a6170706c69636174696f6e2f6a736f6e3b6261736536342c00000081526000825161213381601d850160208701611a82565b91909101601d0192915050565b60018060a01b03841681528260208201526060604082015260006121676060830184611aa6565b95945050505050565b60208082526025908201527f4552433732313a207472616e736665722066726f6d20696e636f72726563742060408201526437bbb732b960d91b606082015260800190565b60208082526032908201527f4552433732313a207472616e7366657220746f206e6f6e20455243373231526560408201527131b2b4bb32b91034b6b83632b6b2b73a32b960711b606082015260800190565b634e487b7160e01b600052601160045260246000fd5b8082018082111561037a5761037a612207565b60008261224d57634e487b7160e01b600052601260045260246000fd5b500490565b808202811582820484141761037a5761037a612207565b6001600160a01b038581168252841660208201526040810183905260806060820181905260009061229c90830184611aa6565b9695505050505050565b6000602082840312156122b857600080fd5b815161126081611a4f56fe4142434445464748494a4b4c4d4e4f505152535455565758595a6162636465666768696a6b6c6d6e6f707172737475767778797a303132333435363738392b2fa2646970667358221220e2b62ed8e378075637d8127138d3e357b0cb0a438106a53570678c4ec8c97b8864736f6c63430008120033",
  "immutableReferences": {},
  "source": "// SPDX-License-Identifier: CC-BY-4.0\npragma solidity ^0.8.9;\n\n//import \"@openzeppelin/contracts/token/ERC721/extensions/ERC721URIStorage.sol\";\n//import \"@openzeppelin/contracts/access/Ownable.sol\";\n//import \"@openzeppelin/contracts/utils/Counters.sol\";\nimport \"../node_modules/@openzeppelin/contracts/token/ERC721/extensions/ERC721URIStorage.sol\";\nimport \"../node_modules/@openzeppelin/contracts/access/Ownable.sol\";\nimport \"../node_modules/@openzeppelin/contracts/utils/Counters.sol\";\nimport \"./Base64.sol\";\n\n/**\n * @title TwoWheels2RentRenter\n * @author Crypt0zaurus https://www.linkedin.com/in/maxence-a-a82081260\n * @notice This contract is used for creating and managing 2Wheels2Rent Renter NFTs\n * @dev This contract inherits from ERC721URIStorage, Ownable, and uses the Counters library\n */\n\ncontract TwoWheels2RentRenter is ERC721URIStorage, Ownable {\n    using Counters for Counters.Counter;\n    Counters.Counter private _tokenIds;\n    address public whitelistContract;\n    string ipfsHash;\n\n    /**\n     * @dev Struct to store renter information\n     */\n    struct RenterInfo {\n        string name;\n        string rather;\n    }\n\n    event MintedNFTWithURI(address recipient, uint256 tokenId, string uri);\n    event BurnedNFT(uint256 tokenId);\n\n    /**\n     * @dev Constructor that sets the name and symbol of the ERC721 token.\n     */\n\n    constructor() ERC721(\"2Wheels2RentRenter\", \"W2RNFTT\") {}\n\n    /**\n     * @notice Check if the IPFS hash has been set.\n     * @dev Only callable by the whitelist contract.\n     * @return Returns true if the IPFS hash has been set.\n     */\n\n    function getIpfsHashLength() external view returns (bool) {\n        require(msg.sender == whitelistContract, \"Only the whitelist contract\");\n        return bytes(ipfsHash).length > 0;\n    }\n\n    /**\n     * @notice Set the address of the whitelist contract.\n     * @dev Only callable by the owner of the contract.\n     * @param _whitelistContract The address of the new whitelist contract.\n     * @return Returns true if the whitelist contract address has been set successfully.\n     */\n\n    function setRenterWhitelistContract(\n        address _whitelistContract\n    ) external onlyOwner returns (bool) {\n        require(_whitelistContract != address(0), \"Zero address not allowed\");\n        whitelistContract = _whitelistContract;\n        return true;\n    }\n\n    /**\n     * @notice Set the IPFS hash for the NFT metadata.\n     * @dev Only callable by the owner of the contract.\n     * @param _ipfsHash The IPFS hash to set.\n     * @return Returns true if the IPFS hash has been set successfully.\n     */\n\n    function setIpfsHash(\n        string memory _ipfsHash\n    ) external onlyOwner returns (bool) {\n        require(bytes(_ipfsHash).length > 0, \"IPFS hash not set\");\n        ipfsHash = _ipfsHash;\n        return true;\n    }\n\n    /**\n     * @notice Mint a new NFT for the provided BikeInfo.\n     * @dev Only callable by the whitelist contract.\n     * @param recipient The address that will receive the minted NFT.\n     * @param renterInfo The information about the bike represented by the NFT.\n     * @return Returns the token ID of the newly minted NFT.\n     */\n\n    function mintNFT(\n        address recipient,\n        RenterInfo calldata renterInfo\n    ) external returns (uint) {\n        require(whitelistContract != address(0));\n        require(recipient != address(0));\n        require(bytes(ipfsHash).length > 0, \"IPFS hash not set\");\n        require(msg.sender == whitelistContract, \"Only the whitelist contract\");\n        // checking no strings are empty\n        require(\n            bytes(renterInfo.name).length > 0 &&\n                bytes(renterInfo.rather).length > 0,\n            \"Empty fields\"\n        );\n        // checking strings don't exceed 40 characters\n        require(\n            bytes(renterInfo.name).length <= 40 &&\n                bytes(renterInfo.rather).length <= 40,\n            \"Too long\"\n        );\n        _tokenIds.increment();\n\n        string memory json = Base64.encode(\n            bytes(\n                string(\n                    abi.encodePacked(\n                        '{\"name\": \"',\n                        renterInfo.name,\n                        '\", \"description\": \"2Wheels2Rent Renter NFT\", \"attributes\": [{\"trait_type\": \"rather\", \"value\": \"',\n                        renterInfo.rather,\n                        '\"}], \"image\": \"ipfs://',\n                        ipfsHash,\n                        '\"}'\n                    )\n                )\n            )\n        );\n\n        string memory finalTokenUri = string(\n            abi.encodePacked(\"data:application/json;base64,\", json)\n        );\n\n        uint newItemId = _tokenIds.current();\n        _safeMint(recipient, newItemId);\n        _setTokenURI(newItemId, finalTokenUri);\n        emit MintedNFTWithURI(recipient, newItemId, finalTokenUri);\n        return newItemId;\n    }\n\n    /**\n     * @notice Burn an NFT with the specified token ID.\n     * @dev Only callable by the whitelist contract.\n     * @param tokenId The token ID of the NFT to burn.\n     * @return Returns true if the NFT has been burned successfully.\n     */\n\n    function burnNFT(uint tokenId) external returns (bool) {\n        require(whitelistContract != address(0), \"Whitelist contract not set\");\n        require(\n            msg.sender == whitelistContract,\n            \"Only the whitelist contract can burn NFTs\"\n        );\n        _burn(tokenId);\n        emit BurnedNFT(tokenId);\n        return true;\n    }\n\n    /**\n     * @notice Renounce ownership of the contract.\n     * @dev Overridden to prevent the renouncing of ownership.\n     */\n\n    function renounceOwnership() public view override onlyOwner {\n        revert(\"Ownership cannot be renounced\");\n    }\n\n    /**\n     * @dev Hook that is called before any token transfer, designed to prevent token transfers.\n     * @param from The address sending the token.\n     * @param to The address receiving the token.\n     */\n\n    function _beforeTokenTransfer(\n        address from,\n        address to,\n        uint, // tokenID\n        uint // batchSize\n    ) internal pure override {\n        require(from == address(0) || to == address(0), \"Soulbound Token\");\n    }\n}\n",
  "sourcePath": "/Users/harbinger/Library/CloudStorage/Dropbox/Dossier familial/Formation Blockchain/Alyra/Projet Certification/Projet Alyra 2Wheels2Rent/truffle/contracts/TwoWheels2RentRenter.sol",
  "compiler": {
    "name": "solc",
    "version": "0.8.18+commit.87f61d96.Emscripten.clang"
  },
  "schemaVersion": "3.4.16",
  "updatedAt": "2024-05-27T21:47:58.671Z",
  "networkType": "ethereum",
  "devdoc": {
    "author": "Crypt0zaurus https://www.linkedin.com/in/maxence-a-a82081260",
    "details": "This contract inherits from ERC721URIStorage, Ownable, and uses the Counters library",
    "events": {
      "Approval(address,address,uint256)": {
        "details": "Emitted when `owner` enables `approved` to manage the `tokenId` token."
      },
      "ApprovalForAll(address,address,bool)": {
        "details": "Emitted when `owner` enables or disables (`approved`) `operator` to manage all of its assets."
      },
      "Transfer(address,address,uint256)": {
        "details": "Emitted when `tokenId` token is transferred from `from` to `to`."
      }
    },
    "kind": "dev",
    "methods": {
      "approve(address,uint256)": {
        "details": "See {IERC721-approve}."
      },
      "balanceOf(address)": {
        "details": "See {IERC721-balanceOf}."
      },
      "burnNFT(uint256)": {
        "details": "Only callable by the whitelist contract.",
        "params": {
          "tokenId": "The token ID of the NFT to burn."
        },
        "returns": {
          "_0": "Returns true if the NFT has been burned successfully."
        }
      },
      "constructor": {
        "details": "Constructor that sets the name and symbol of the ERC721 token."
      },
      "getApproved(uint256)": {
        "details": "See {IERC721-getApproved}."
      },
      "getIpfsHashLength()": {
        "details": "Only callable by the whitelist contract.",
        "returns": {
          "_0": "Returns true if the IPFS hash has been set."
        }
      },
      "isApprovedForAll(address,address)": {
        "details": "See {IERC721-isApprovedForAll}."
      },
      "mintNFT(address,(string,string))": {
        "details": "Only callable by the whitelist contract.",
        "params": {
          "recipient": "The address that will receive the minted NFT.",
          "renterInfo": "The information about the bike represented by the NFT."
        },
        "returns": {
          "_0": "Returns the token ID of the newly minted NFT."
        }
      },
      "name()": {
        "details": "See {IERC721Metadata-name}."
      },
      "owner()": {
        "details": "Returns the address of the current owner."
      },
      "ownerOf(uint256)": {
        "details": "See {IERC721-ownerOf}."
      },
      "renounceOwnership()": {
        "details": "Overridden to prevent the renouncing of ownership."
      },
      "safeTransferFrom(address,address,uint256)": {
        "details": "See {IERC721-safeTransferFrom}."
      },
      "safeTransferFrom(address,address,uint256,bytes)": {
        "details": "See {IERC721-safeTransferFrom}."
      },
      "setApprovalForAll(address,bool)": {
        "details": "See {IERC721-setApprovalForAll}."
      },
      "setIpfsHash(string)": {
        "details": "Only callable by the owner of the contract.",
        "params": {
          "_ipfsHash": "The IPFS hash to set."
        },
        "returns": {
          "_0": "Returns true if the IPFS hash has been set successfully."
        }
      },
      "setRenterWhitelistContract(address)": {
        "details": "Only callable by the owner of the contract.",
        "params": {
          "_whitelistContract": "The address of the new whitelist contract."
        },
        "returns": {
          "_0": "Returns true if the whitelist contract address has been set successfully."
        }
      },
      "supportsInterface(bytes4)": {
        "details": "See {IERC165-supportsInterface}."
      },
      "symbol()": {
        "details": "See {IERC721Metadata-symbol}."
      },
      "tokenURI(uint256)": {
        "details": "See {IERC721Metadata-tokenURI}."
      },
      "transferFrom(address,address,uint256)": {
        "details": "See {IERC721-transferFrom}."
      },
      "transferOwnership(address)": {
        "details": "Transfers ownership of the contract to a new account (`newOwner`). Can only be called by the current owner."
      }
    },
    "title": "TwoWheels2RentRenter",
    "version": 1
  },
  "userdoc": {
    "kind": "user",
    "methods": {
      "burnNFT(uint256)": {
        "notice": "Burn an NFT with the specified token ID."
      },
      "getIpfsHashLength()": {
        "notice": "Check if the IPFS hash has been set."
      },
      "mintNFT(address,(string,string))": {
        "notice": "Mint a new NFT for the provided BikeInfo."
      },
      "renounceOwnership()": {
        "notice": "Renounce ownership of the contract."
      },
      "setIpfsHash(string)": {
        "notice": "Set the IPFS hash for the NFT metadata."
      },
      "setRenterWhitelistContract(address)": {
        "notice": "Set the address of the whitelist contract."
      }
    },
    "notice": "This contract is used for creating and managing 2Wheels2Rent Renter NFTs",
    "version": 1
  }
}