{
  "contractName": "TwoWheels2RentLender",
  "abi": [
    {
      "inputs": [],
      "stateMutability": "nonpayable",
      "type": "constructor"
    },
    {
      "anonymous": false,
      "inputs": [
        {
          "indexed": true,
          "internalType": "address",
          "name": "owner",
          "type": "address"
        },
        {
          "indexed": true,
          "internalType": "address",
          "name": "approved",
          "type": "address"
        },
        {
          "indexed": true,
          "internalType": "uint256",
          "name": "tokenId",
          "type": "uint256"
        }
      ],
      "name": "Approval",
      "type": "event"
    },
    {
      "anonymous": false,
      "inputs": [
        {
          "indexed": true,
          "internalType": "address",
          "name": "owner",
          "type": "address"
        },
        {
          "indexed": true,
          "internalType": "address",
          "name": "operator",
          "type": "address"
        },
        {
          "indexed": false,
          "internalType": "bool",
          "name": "approved",
          "type": "bool"
        }
      ],
      "name": "ApprovalForAll",
      "type": "event"
    },
    {
      "anonymous": false,
      "inputs": [
        {
          "indexed": false,
          "internalType": "uint256",
          "name": "tokenId",
          "type": "uint256"
        }
      ],
      "name": "BurnedNFT",
      "type": "event"
    },
    {
      "anonymous": false,
      "inputs": [
        {
          "indexed": false,
          "internalType": "address",
          "name": "recipient",
          "type": "address"
        },
        {
          "indexed": false,
          "internalType": "uint256",
          "name": "tokenId",
          "type": "uint256"
        },
        {
          "indexed": false,
          "internalType": "string",
          "name": "uri",
          "type": "string"
        }
      ],
      "name": "MintedNFTWithURI",
      "type": "event"
    },
    {
      "anonymous": false,
      "inputs": [
        {
          "indexed": true,
          "internalType": "address",
          "name": "previousOwner",
          "type": "address"
        },
        {
          "indexed": true,
          "internalType": "address",
          "name": "newOwner",
          "type": "address"
        }
      ],
      "name": "OwnershipTransferred",
      "type": "event"
    },
    {
      "anonymous": false,
      "inputs": [
        {
          "indexed": true,
          "internalType": "address",
          "name": "from",
          "type": "address"
        },
        {
          "indexed": true,
          "internalType": "address",
          "name": "to",
          "type": "address"
        },
        {
          "indexed": true,
          "internalType": "uint256",
          "name": "tokenId",
          "type": "uint256"
        }
      ],
      "name": "Transfer",
      "type": "event"
    },
    {
      "inputs": [
        {
          "internalType": "address",
          "name": "to",
          "type": "address"
        },
        {
          "internalType": "uint256",
          "name": "tokenId",
          "type": "uint256"
        }
      ],
      "name": "approve",
      "outputs": [],
      "stateMutability": "nonpayable",
      "type": "function"
    },
    {
      "inputs": [
        {
          "internalType": "address",
          "name": "owner",
          "type": "address"
        }
      ],
      "name": "balanceOf",
      "outputs": [
        {
          "internalType": "uint256",
          "name": "",
          "type": "uint256"
        }
      ],
      "stateMutability": "view",
      "type": "function",
      "constant": true
    },
    {
      "inputs": [
        {
          "internalType": "uint256",
          "name": "tokenId",
          "type": "uint256"
        }
      ],
      "name": "getApproved",
      "outputs": [
        {
          "internalType": "address",
          "name": "",
          "type": "address"
        }
      ],
      "stateMutability": "view",
      "type": "function",
      "constant": true
    },
    {
      "inputs": [
        {
          "internalType": "address",
          "name": "owner",
          "type": "address"
        },
        {
          "internalType": "address",
          "name": "operator",
          "type": "address"
        }
      ],
      "name": "isApprovedForAll",
      "outputs": [
        {
          "internalType": "bool",
          "name": "",
          "type": "bool"
        }
      ],
      "stateMutability": "view",
      "type": "function",
      "constant": true
    },
    {
      "inputs": [],
      "name": "name",
      "outputs": [
        {
          "internalType": "string",
          "name": "",
          "type": "string"
        }
      ],
      "stateMutability": "view",
      "type": "function",
      "constant": true
    },
    {
      "inputs": [],
      "name": "owner",
      "outputs": [
        {
          "internalType": "address",
          "name": "",
          "type": "address"
        }
      ],
      "stateMutability": "view",
      "type": "function",
      "constant": true
    },
    {
      "inputs": [
        {
          "internalType": "uint256",
          "name": "tokenId",
          "type": "uint256"
        }
      ],
      "name": "ownerOf",
      "outputs": [
        {
          "internalType": "address",
          "name": "",
          "type": "address"
        }
      ],
      "stateMutability": "view",
      "type": "function",
      "constant": true
    },
    {
      "inputs": [
        {
          "internalType": "address",
          "name": "from",
          "type": "address"
        },
        {
          "internalType": "address",
          "name": "to",
          "type": "address"
        },
        {
          "internalType": "uint256",
          "name": "tokenId",
          "type": "uint256"
        }
      ],
      "name": "safeTransferFrom",
      "outputs": [],
      "stateMutability": "nonpayable",
      "type": "function"
    },
    {
      "inputs": [
        {
          "internalType": "address",
          "name": "from",
          "type": "address"
        },
        {
          "internalType": "address",
          "name": "to",
          "type": "address"
        },
        {
          "internalType": "uint256",
          "name": "tokenId",
          "type": "uint256"
        },
        {
          "internalType": "bytes",
          "name": "data",
          "type": "bytes"
        }
      ],
      "name": "safeTransferFrom",
      "outputs": [],
      "stateMutability": "nonpayable",
      "type": "function"
    },
    {
      "inputs": [
        {
          "internalType": "address",
          "name": "operator",
          "type": "address"
        },
        {
          "internalType": "bool",
          "name": "approved",
          "type": "bool"
        }
      ],
      "name": "setApprovalForAll",
      "outputs": [],
      "stateMutability": "nonpayable",
      "type": "function"
    },
    {
      "inputs": [
        {
          "internalType": "bytes4",
          "name": "interfaceId",
          "type": "bytes4"
        }
      ],
      "name": "supportsInterface",
      "outputs": [
        {
          "internalType": "bool",
          "name": "",
          "type": "bool"
        }
      ],
      "stateMutability": "view",
      "type": "function",
      "constant": true
    },
    {
      "inputs": [],
      "name": "symbol",
      "outputs": [
        {
          "internalType": "string",
          "name": "",
          "type": "string"
        }
      ],
      "stateMutability": "view",
      "type": "function",
      "constant": true
    },
    {
      "inputs": [
        {
          "internalType": "uint256",
          "name": "tokenId",
          "type": "uint256"
        }
      ],
      "name": "tokenURI",
      "outputs": [
        {
          "internalType": "string",
          "name": "",
          "type": "string"
        }
      ],
      "stateMutability": "view",
      "type": "function",
      "constant": true
    },
    {
      "inputs": [
        {
          "internalType": "address",
          "name": "from",
          "type": "address"
        },
        {
          "internalType": "address",
          "name": "to",
          "type": "address"
        },
        {
          "internalType": "uint256",
          "name": "tokenId",
          "type": "uint256"
        }
      ],
      "name": "transferFrom",
      "outputs": [],
      "stateMutability": "nonpayable",
      "type": "function"
    },
    {
      "inputs": [
        {
          "internalType": "address",
          "name": "newOwner",
          "type": "address"
        }
      ],
      "name": "transferOwnership",
      "outputs": [],
      "stateMutability": "nonpayable",
      "type": "function"
    },
    {
      "inputs": [],
      "name": "whitelistContract",
      "outputs": [
        {
          "internalType": "address",
          "name": "",
          "type": "address"
        }
      ],
      "stateMutability": "view",
      "type": "function",
      "constant": true
    },
    {
      "inputs": [],
      "name": "getIpfsHashLength",
      "outputs": [
        {
          "internalType": "bool",
          "name": "",
          "type": "bool"
        }
      ],
      "stateMutability": "view",
      "type": "function",
      "constant": true
    },
    {
      "inputs": [
        {
          "internalType": "address",
          "name": "_whitelistContract",
          "type": "address"
        }
      ],
      "name": "setLenderWhitelistContract",
      "outputs": [
        {
          "internalType": "bool",
          "name": "",
          "type": "bool"
        }
      ],
      "stateMutability": "nonpayable",
      "type": "function"
    },
    {
      "inputs": [
        {
          "internalType": "string",
          "name": "_ipfsHash",
          "type": "string"
        }
      ],
      "name": "setIpfsHash",
      "outputs": [
        {
          "internalType": "bool",
          "name": "",
          "type": "bool"
        }
      ],
      "stateMutability": "nonpayable",
      "type": "function"
    },
    {
      "inputs": [
        {
          "internalType": "address",
          "name": "recipient",
          "type": "address"
        },
        {
          "components": [
            {
              "internalType": "string",
              "name": "name",
              "type": "string"
            },
            {
              "internalType": "string",
              "name": "brand",
              "type": "string"
            },
            {
              "internalType": "string",
              "name": "model",
              "type": "string"
            },
            {
              "internalType": "string",
              "name": "serial",
              "type": "string"
            },
            {
              "internalType": "string",
              "name": "registration",
              "type": "string"
            }
          ],
          "internalType": "struct TwoWheels2RentLender.BikeInfo",
          "name": "bikeInfo",
          "type": "tuple"
        }
      ],
      "name": "mintNFT",
      "outputs": [
        {
          "internalType": "uint256",
          "name": "",
          "type": "uint256"
        }
      ],
      "stateMutability": "nonpayable",
      "type": "function"
    },
    {
      "inputs": [
        {
          "internalType": "uint256",
          "name": "tokenId",
          "type": "uint256"
        }
      ],
      "name": "burnNFT",
      "outputs": [
        {
          "internalType": "bool",
          "name": "",
          "type": "bool"
        }
      ],
      "stateMutability": "nonpayable",
      "type": "function"
    },
    {
      "inputs": [],
      "name": "renounceOwnership",
      "outputs": [],
      "stateMutability": "view",
      "type": "function",
      "constant": true
    }
  ],
  "bytecode": "0x60806040523480156200001157600080fd5b5060405180604001604052806012815260200171192bb432b2b639992932b73a2632b73232b960711b8152506040518060400160405280600781526020016615cc949391951360ca1b81525081600090816200006e91906200019b565b5060016200007d82826200019b565b5050506200009a62000094620000a060201b60201c565b620000a4565b62000267565b3390565b600780546001600160a01b038381166001600160a01b0319831681179093556040519116919082907f8be0079c531659141344cd1fd0a4f28419497f9722a3daafe3b4186f6b6457e090600090a35050565b634e487b7160e01b600052604160045260246000fd5b600181811c908216806200012157607f821691505b6020821081036200014257634e487b7160e01b600052602260045260246000fd5b50919050565b601f8211156200019657600081815260208120601f850160051c81016020861015620001715750805b601f850160051c820191505b8181101562000192578281556001016200017d565b5050505b505050565b81516001600160401b03811115620001b757620001b7620000f6565b620001cf81620001c884546200010c565b8462000148565b602080601f831160018114620002075760008415620001ee5750858301515b600019600386901b1c1916600185901b17855562000192565b600085815260208120601f198616915b82811015620002385788860151825594840194600190910190840162000217565b5085821015620002575787850151600019600388901b60f8161c191681555b5050505050600190811b01905550565b61240380620002776000396000f3fe608060405234801561001057600080fd5b50600436106101415760003560e01c806370a08231116100b8578063a22cb4651161007c578063a22cb46514610292578063b88d4fde146102a5578063c87b56dd146102b8578063df54bc7d146102cb578063e985e9c5146102de578063f2fde38b1461031a57600080fd5b806370a082311461023d578063715018a61461025e57806384900b04146102665780638da5cb5b1461027957806395d89b411461028a57600080fd5b806323b872dd1161010a57806323b872dd146101d65780632890e0d7146101e957806340219945146101fc57806342842e0e146102045780634e3b62ec146102175780636352211e1461022a57600080fd5b806235528c1461014657806301ffc9a71461016e57806306fdde0314610181578063081812fc14610196578063095ea7b3146101c1575b600080fd5b610159610154366004611a06565b61032d565b60405190151581526020015b60405180910390f35b61015961017c366004611a37565b61036e565b6101896103c0565b6040516101659190611aa4565b6101a96101a4366004611ab7565b610452565b6040516001600160a01b039091168152602001610165565b6101d46101cf366004611ad0565b610479565b005b6101d46101e4366004611afa565b610593565b6101596101f7366004611ab7565b6105c4565b61015961064a565b6101d4610212366004611afa565b61068e565b610159610225366004611bc2565b6106a9565b6101a9610238366004611ab7565b61070d565b61025061024b366004611a06565b61076d565b604051908152602001610165565b6101d46107f3565b6009546101a9906001600160a01b031681565b6007546001600160a01b03166101a9565b610189610843565b6101d46102a0366004611c0b565b610852565b6101d46102b3366004611c47565b610861565b6101896102c6366004611ab7565b610899565b6102506102d9366004611cc3565b6109a9565b6101596102ec366004611d0d565b6001600160a01b03918216600090815260056020908152604080832093909416825291909152205460ff1690565b6101d4610328366004611a06565b610cc1565b6000610337610d3a565b6001600160a01b03821661034a57600080fd5b50600980546001600160a01b0319166001600160a01b03831617905560015b919050565b60006001600160e01b031982166380ac58cd60e01b148061039f57506001600160e01b03198216635b5e139f60e01b145b806103ba57506301ffc9a760e01b6001600160e01b03198316145b92915050565b6060600080546103cf90611d40565b80601f01602080910402602001604051908101604052809291908181526020018280546103fb90611d40565b80156104485780601f1061041d57610100808354040283529160200191610448565b820191906000526020600020905b81548152906001019060200180831161042b57829003601f168201915b5050505050905090565b600061045d82610d96565b506000908152600460205260409020546001600160a01b031690565b60006104848261070d565b9050806001600160a01b0316836001600160a01b0316036104f65760405162461bcd60e51b815260206004820152602160248201527f4552433732313a20617070726f76616c20746f2063757272656e74206f776e656044820152603960f91b60648201526084015b60405180910390fd5b336001600160a01b0382161480610512575061051281336102ec565b6105845760405162461bcd60e51b815260206004820152603d60248201527f4552433732313a20617070726f76652063616c6c6572206973206e6f7420746f60448201527f6b656e206f776e6572206f7220617070726f76656420666f7220616c6c00000060648201526084016104ed565b61058e8383610df5565b505050565b61059d3382610e63565b6105b95760405162461bcd60e51b81526004016104ed90611d7a565b61058e838383610ee1565b6009546000906001600160a01b03166105dc57600080fd5b6009546001600160a01b031633146106065760405162461bcd60e51b81526004016104ed90611dc7565b61060f82611052565b6040518281527f13889bb0a6b63a6f3c1862927c7cceb6214b294a1effefbe38a9af56fa3438429060200160405180910390a1506001919050565b6009546000906001600160a01b031633146106775760405162461bcd60e51b81526004016104ed90611dc7565b6000600a805461068690611d40565b905011905090565b61058e83838360405180602001604052806000815250610861565b60006106b3610d3a565b60008251116106f85760405162461bcd60e51b815260206004820152601160248201527012541194c81a185cda081b9bdd081cd95d607a1b60448201526064016104ed565b600a6107048382611e4c565b50600192915050565b6000818152600260205260408120546001600160a01b0316806103ba5760405162461bcd60e51b8152602060048201526018602482015277115490cdcc8c4e881a5b9d985b1a59081d1bdad95b88125160421b60448201526064016104ed565b60006001600160a01b0382166107d75760405162461bcd60e51b815260206004820152602960248201527f4552433732313a2061646472657373207a65726f206973206e6f7420612076616044820152683634b21037bbb732b960b91b60648201526084016104ed565b506001600160a01b031660009081526003602052604090205490565b6107fb610d3a565b60405162461bcd60e51b815260206004820152601d60248201527f4f776e6572736869702063616e6e6f742062652072656e6f756e63656400000060448201526064016104ed565b6060600180546103cf90611d40565b61085d338383611092565b5050565b61086b3383610e63565b6108875760405162461bcd60e51b81526004016104ed90611d7a565b61089384848484611160565b50505050565b60606108a482610d96565b600082815260066020526040812080546108bd90611d40565b80601f01602080910402602001604051908101604052809291908181526020018280546108e990611d40565b80156109365780601f1061090b57610100808354040283529160200191610936565b820191906000526020600020905b81548152906001019060200180831161091957829003601f168201915b50505050509050600061095460408051602081019091526000815290565b90508051600003610966575092915050565b815115610998578082604051602001610980929190611f0c565b60405160208183030381529060405292505050919050565b6109a184611193565b949350505050565b6009546000906001600160a01b03166109c157600080fd5b6001600160a01b0383166109d457600080fd5b6000600a80546109e390611d40565b905011610a265760405162461bcd60e51b815260206004820152601160248201527012541194c81a185cda081b9bdd081cd95d607a1b60448201526064016104ed565b6009546001600160a01b03163314610a505760405162461bcd60e51b81526004016104ed90611dc7565b6000610a5c8380611f3b565b9050118015610a7957506000610a756020840184611f3b565b9050115b8015610a9357506000610a8f6040840184611f3b565b9050115b8015610aad57506000610aa96060840184611f3b565b9050115b8015610ac757506000610ac36080840184611f3b565b9050115b610b025760405162461bcd60e51b815260206004820152600c60248201526b456d707479206669656c647360a01b60448201526064016104ed565b6028610b0e8380611f3b565b905011158015610b2d57506028610b286020840184611f3b565b905011155b8015610b4857506028610b436040840184611f3b565b905011155b8015610b6357506028610b5e6060840184611f3b565b905011155b8015610b7e57506028610b796080840184611f3b565b905011155b610bb55760405162461bcd60e51b8152602060048201526008602482015267546f6f206c6f6e6760c01b60448201526064016104ed565b610bc3600880546001019055565b6000610c36610bd28480611f3b565b610bdf6020870187611f3b565b610bec6040890189611f3b565b610bf960608b018b611f3b565b610c0660808d018d611f3b565b600a604051602001610c229b9a9998979695949392919061200b565b604051602081830303815290604052611207565b9050600081604051602001610c4b91906121c5565b60405160208183030381529060405290506000610c6760085490565b9050610c73868261136c565b610c7d8183611386565b7f66a2a617f4a90250eb872d78b65d7d00459630491de269dc6edef2f622b085ca868284604051610cb09392919061220a565b60405180910390a195945050505050565b610cc9610d3a565b6001600160a01b038116610d2e5760405162461bcd60e51b815260206004820152602660248201527f4f776e61626c653a206e6577206f776e657220697320746865207a65726f206160448201526564647265737360d01b60648201526084016104ed565b610d3781611419565b50565b6007546001600160a01b03163314610d945760405162461bcd60e51b815260206004820181905260248201527f4f776e61626c653a2063616c6c6572206973206e6f7420746865206f776e657260448201526064016104ed565b565b6000818152600260205260409020546001600160a01b0316610d375760405162461bcd60e51b8152602060048201526018602482015277115490cdcc8c4e881a5b9d985b1a59081d1bdad95b88125160421b60448201526064016104ed565b600081815260046020526040902080546001600160a01b0319166001600160a01b0384169081179091558190610e2a8261070d565b6001600160a01b03167f8c5be1e5ebec7d5bd14f71427d1e84f3dd0314c0f7b2291e5b200ac8c7c3b92560405160405180910390a45050565b600080610e6f8361070d565b9050806001600160a01b0316846001600160a01b03161480610eb657506001600160a01b0380821660009081526005602090815260408083209388168352929052205460ff165b806109a15750836001600160a01b0316610ecf84610452565b6001600160a01b031614949350505050565b826001600160a01b0316610ef48261070d565b6001600160a01b031614610f1a5760405162461bcd60e51b81526004016104ed9061223a565b6001600160a01b038216610f7c5760405162461bcd60e51b8152602060048201526024808201527f4552433732313a207472616e7366657220746f20746865207a65726f206164646044820152637265737360e01b60648201526084016104ed565b610f89838383600161146b565b826001600160a01b0316610f9c8261070d565b6001600160a01b031614610fc25760405162461bcd60e51b81526004016104ed9061223a565b600081815260046020908152604080832080546001600160a01b03199081169091556001600160a01b0387811680865260038552838620805460001901905590871680865283862080546001019055868652600290945282852080549092168417909155905184937fddf252ad1be2c89b69c2b068fc378daa952ba7f163c4a11628f55a4df523b3ef91a4505050565b61105b816114c6565b6000818152600660205260409020805461107490611d40565b159050610d37576000818152600660205260408120610d37916119a1565b816001600160a01b0316836001600160a01b0316036110f35760405162461bcd60e51b815260206004820152601960248201527f4552433732313a20617070726f766520746f2063616c6c65720000000000000060448201526064016104ed565b6001600160a01b03838116600081815260056020908152604080832094871680845294825291829020805460ff191686151590811790915591519182527f17307eab39ab6107e8899845ad3d59bd9653f200f220920489ca2b5937696c31910160405180910390a3505050565b61116b848484610ee1565b61117784848484611569565b6108935760405162461bcd60e51b81526004016104ed9061227f565b606061119e82610d96565b60006111b560408051602081019091526000815290565b905060008151116111d55760405180602001604052806000815250611200565b806111df8461166a565b6040516020016111f0929190611f0c565b6040516020818303038152906040525b9392505050565b6060815160000361122657505060408051602081019091526000815290565b600060405180606001604052806040815260200161238e604091399050600060038451600261125591906122e7565b61125f91906122fa565b61126a90600461231c565b905060006112798260206122e7565b67ffffffffffffffff81111561129157611291611b36565b6040519080825280601f01601f1916602001820160405280156112bb576020820181803683370190505b509050818152600183018586518101602084015b81831015611327576003830192508251603f8160121c168501518253600182019150603f81600c1c168501518253600182019150603f8160061c168501518253600182019150603f81168501518253506001016112cf565b60038951066001811461134157600281146113525761135e565b613d3d60f01b60011983015261135e565b603d60f81b6000198301525b509398975050505050505050565b61085d8282604051806020016040528060008152506116fd565b6000828152600260205260409020546001600160a01b03166114015760405162461bcd60e51b815260206004820152602e60248201527f45524337323155524953746f726167653a2055524920736574206f66206e6f6e60448201526d32bc34b9ba32b73a103a37b5b2b760911b60648201526084016104ed565b600082815260066020526040902061058e8282611e4c565b600780546001600160a01b038381166001600160a01b0319831681179093556040519116919082907f8be0079c531659141344cd1fd0a4f28419497f9722a3daafe3b4186f6b6457e090600090a35050565b6001600160a01b038416158061148857506001600160a01b038316155b6108935760405162461bcd60e51b815260206004820152600f60248201526e29b7bab63137bab732102a37b5b2b760891b60448201526064016104ed565b60006114d18261070d565b90506114e181600084600161146b565b6114ea8261070d565b600083815260046020908152604080832080546001600160a01b03199081169091556001600160a01b0385168085526003845282852080546000190190558785526002909352818420805490911690555192935084927fddf252ad1be2c89b69c2b068fc378daa952ba7f163c4a11628f55a4df523b3ef908390a45050565b60006001600160a01b0384163b1561165f57604051630a85bd0160e11b81526001600160a01b0385169063150b7a02906115ad903390899088908890600401612333565b6020604051808303816000875af19250505080156115e8575060408051601f3d908101601f191682019092526115e591810190612370565b60015b611645573d808015611616576040519150601f19603f3d011682016040523d82523d6000602084013e61161b565b606091505b50805160000361163d5760405162461bcd60e51b81526004016104ed9061227f565b805181602001fd5b6001600160e01b031916630a85bd0160e11b1490506109a1565b506001949350505050565b6060600061167783611730565b600101905060008167ffffffffffffffff81111561169757611697611b36565b6040519080825280601f01601f1916602001820160405280156116c1576020820181803683370190505b5090508181016020015b600019016f181899199a1a9b1b9c1cb0b131b232b360811b600a86061a8153600a85049450846116cb57509392505050565b6117078383611808565b6117146000848484611569565b61058e5760405162461bcd60e51b81526004016104ed9061227f565b60008072184f03e93ff9f4daa797ed6e38ed64bf6a1f0160401b831061176f5772184f03e93ff9f4daa797ed6e38ed64bf6a1f0160401b830492506040015b6d04ee2d6d415b85acef8100000000831061179b576d04ee2d6d415b85acef8100000000830492506020015b662386f26fc1000083106117b957662386f26fc10000830492506010015b6305f5e10083106117d1576305f5e100830492506008015b61271083106117e557612710830492506004015b606483106117f7576064830492506002015b600a83106103ba5760010192915050565b6001600160a01b03821661185e5760405162461bcd60e51b815260206004820181905260248201527f4552433732313a206d696e7420746f20746865207a65726f206164647265737360448201526064016104ed565b6000818152600260205260409020546001600160a01b0316156118c35760405162461bcd60e51b815260206004820152601c60248201527f4552433732313a20746f6b656e20616c7265616479206d696e7465640000000060448201526064016104ed565b6118d160008383600161146b565b6000818152600260205260409020546001600160a01b0316156119365760405162461bcd60e51b815260206004820152601c60248201527f4552433732313a20746f6b656e20616c7265616479206d696e7465640000000060448201526064016104ed565b6001600160a01b038216600081815260036020908152604080832080546001019055848352600290915280822080546001600160a01b0319168417905551839291907fddf252ad1be2c89b69c2b068fc378daa952ba7f163c4a11628f55a4df523b3ef908290a45050565b5080546119ad90611d40565b6000825580601f106119bd575050565b601f016020900490600052602060002090810190610d3791905b808211156119eb57600081556001016119d7565b5090565b80356001600160a01b038116811461036957600080fd5b600060208284031215611a1857600080fd5b611200826119ef565b6001600160e01b031981168114610d3757600080fd5b600060208284031215611a4957600080fd5b813561120081611a21565b60005b83811015611a6f578181015183820152602001611a57565b50506000910152565b60008151808452611a90816020860160208601611a54565b601f01601f19169290920160200192915050565b6020815260006112006020830184611a78565b600060208284031215611ac957600080fd5b5035919050565b60008060408385031215611ae357600080fd5b611aec836119ef565b946020939093013593505050565b600080600060608486031215611b0f57600080fd5b611b18846119ef565b9250611b26602085016119ef565b9150604084013590509250925092565b634e487b7160e01b600052604160045260246000fd5b600067ffffffffffffffff80841115611b6757611b67611b36565b604051601f8501601f19908116603f01168101908282118183101715611b8f57611b8f611b36565b81604052809350858152868686011115611ba857600080fd5b858560208301376000602087830101525050509392505050565b600060208284031215611bd457600080fd5b813567ffffffffffffffff811115611beb57600080fd5b8201601f81018413611bfc57600080fd5b6109a184823560208401611b4c565b60008060408385031215611c1e57600080fd5b611c27836119ef565b915060208301358015158114611c3c57600080fd5b809150509250929050565b60008060008060808587031215611c5d57600080fd5b611c66856119ef565b9350611c74602086016119ef565b925060408501359150606085013567ffffffffffffffff811115611c9757600080fd5b8501601f81018713611ca857600080fd5b611cb787823560208401611b4c565b91505092959194509250565b60008060408385031215611cd657600080fd5b611cdf836119ef565b9150602083013567ffffffffffffffff811115611cfb57600080fd5b830160a08186031215611c3c57600080fd5b60008060408385031215611d2057600080fd5b611d29836119ef565b9150611d37602084016119ef565b90509250929050565b600181811c90821680611d5457607f821691505b602082108103611d7457634e487b7160e01b600052602260045260246000fd5b50919050565b6020808252602d908201527f4552433732313a2063616c6c6572206973206e6f7420746f6b656e206f776e6560408201526c1c881bdc88185c1c1c9bdd9959609a1b606082015260800190565b6020808252601b908201527f4f6e6c79207468652077686974656c69737420636f6e74726163740000000000604082015260600190565b601f82111561058e57600081815260208120601f850160051c81016020861015611e255750805b601f850160051c820191505b81811015611e4457828155600101611e31565b505050505050565b815167ffffffffffffffff811115611e6657611e66611b36565b611e7a81611e748454611d40565b84611dfe565b602080601f831160018114611eaf5760008415611e975750858301515b600019600386901b1c1916600185901b178555611e44565b600085815260208120601f198616915b82811015611ede57888601518255948401946001909101908401611ebf565b5085821015611efc5787850151600019600388901b60f8161c191681555b5050505050600190811b01905550565b60008351611f1e818460208801611a54565b835190830190611f32818360208801611a54565b01949350505050565b6000808335601e19843603018112611f5257600080fd5b83018035915067ffffffffffffffff821115611f6d57600080fd5b602001915036819003821315611f8257600080fd5b9250929050565b81818437506000910190815290565b60008154611fa581611d40565b60018281168015611fbd5760018114611fd257612001565b60ff1984168752821515830287019450612001565b8560005260208060002060005b85811015611ff85781548a820152908401908201611fdf565b50505082870194505b5050505092915050565b693d913730b6b2911d101160b11b81528a8c600a83013760008b82017f222c20226465736372697074696f6e223a202232576865656c733252656e7420600a8201527f42696b65204e4654222c202261747472696275746573223a205b7b2274726169602a8201527f745f74797065223a20226272616e64222c202276616c7565223a202200000000604a8201528a8c60668301377f227d2c207b2274726169745f74797065223a20226d6f64656c222c202276616c6066918c0191820152653ab2911d101160d11b6086820152888a608c8301377f227d2c207b2274726169745f74797065223a202273657269616c222c20227661608c918a019182015266363ab2911d101160c91b60ac8201526121b36121a561219f61217d61217661213760b387018d8f611f89565b7f227d2c207b2274726169745f74797065223a2022726567697374726174696f6e81526c111610113b30b63ab2911d101160991b6020820152602d0190565b898b611f89565b75227d5d2c2022696d616765223a2022697066733a2f2f60501b815260160190565b86611f98565b61227d60f01b815260020190565b9e9d5050505050505050505050505050565b7f646174613a6170706c69636174696f6e2f6a736f6e3b6261736536342c0000008152600082516121fd81601d850160208701611a54565b91909101601d0192915050565b60018060a01b03841681528260208201526060604082015260006122316060830184611a78565b95945050505050565b60208082526025908201527f4552433732313a207472616e736665722066726f6d20696e636f72726563742060408201526437bbb732b960d91b606082015260800190565b60208082526032908201527f4552433732313a207472616e7366657220746f206e6f6e20455243373231526560408201527131b2b4bb32b91034b6b83632b6b2b73a32b960711b606082015260800190565b634e487b7160e01b600052601160045260246000fd5b808201808211156103ba576103ba6122d1565b60008261231757634e487b7160e01b600052601260045260246000fd5b500490565b80820281158282048414176103ba576103ba6122d1565b6001600160a01b038581168252841660208201526040810183905260806060820181905260009061236690830184611a78565b9695505050505050565b60006020828403121561238257600080fd5b815161120081611a2156fe4142434445464748494a4b4c4d4e4f505152535455565758595a6162636465666768696a6b6c6d6e6f707172737475767778797a303132333435363738392b2fa264697066735822122006e907959462b75b579c36092e3b8886fc9d0e80f6c134752264ac6f1240bba564736f6c63430008120033",
  "immutableReferences": {},
  "source": "// SPDX-License-Identifier: CC-BY-4.0\npragma solidity ^0.8.9;\n\n//import \"@openzeppelin/contracts/token/ERC721/extensions/ERC721URIStorage.sol\";\n//import \"@openzeppelin/contracts/access/Ownable.sol\";\n//import \"@openzeppelin/contracts/utils/Counters.sol\";\nimport \"../node_modules/@openzeppelin/contracts/token/ERC721/extensions/ERC721URIStorage.sol\";\nimport \"../node_modules/@openzeppelin/contracts/access/Ownable.sol\";\nimport \"../node_modules/@openzeppelin/contracts/utils/Counters.sol\";\nimport \"./Base64.sol\";\n\n/**\n * @title TwoWheels2RentLender\n * @author Crypt0zaurus https://www.linkedin.com/in/maxence-a-a82081260\n * @notice A contract for minting and burning NFTs representing bikes available for rent on the 2Wheels2Rent platform.\n * @dev This contract extends ERC721URIStorage and Ownable from OpenZeppelin contracts.\n */\n\ncontract TwoWheels2RentLender is ERC721URIStorage, Ownable {\n    using Counters for Counters.Counter;\n    Counters.Counter private _tokenIds;\n    address public whitelistContract;\n    string ipfsHash;\n\n    struct BikeInfo {\n        string name;\n        string brand;\n        string model;\n        string serial;\n        string registration;\n    }\n\n    event MintedNFTWithURI(address recipient, uint256 tokenId, string uri);\n    event BurnedNFT(uint256 tokenId);\n\n    /**\n     * @dev Constructor that sets the name and symbol of the ERC721 token.\n     */\n\n    constructor() ERC721(\"2Wheels2RentLender\", \"W2RNFTL\") {}\n\n    /**\n     * @notice Check if the IPFS hash has been set.\n     * @dev Only callable by the whitelist contract.\n     * @return Returns true if the IPFS hash has been set.\n     */\n\n    function getIpfsHashLength() external view returns (bool) {\n        require(msg.sender == whitelistContract, \"Only the whitelist contract\");\n        return bytes(ipfsHash).length > 0;\n    }\n\n    /**\n     * @notice Set the address of the whitelist contract.\n     * @dev Only callable by the owner of the contract.\n     * @param _whitelistContract The address of the new whitelist contract.\n     * @return Returns true if the whitelist contract address has been set successfully.\n     */\n\n    function setLenderWhitelistContract(\n        address _whitelistContract\n    ) external onlyOwner returns (bool) {\n        require(_whitelistContract != address(0));\n        whitelistContract = _whitelistContract;\n        return true;\n    }\n\n    /**\n     * @notice Set the IPFS hash for the NFT metadata.\n     * @dev Only callable by the owner of the contract.\n     * @param _ipfsHash The IPFS hash to set.\n     * @return Returns true if the IPFS hash has been set successfully.\n     */\n\n    function setIpfsHash(\n        string memory _ipfsHash\n    ) external onlyOwner returns (bool) {\n        require(bytes(_ipfsHash).length > 0, \"IPFS hash not set\");\n        ipfsHash = _ipfsHash;\n        return true;\n    }\n\n    /**\n     * @notice Mint a new NFT for the provided BikeInfo.\n     * @dev Only callable by the whitelist contract.\n     * @param recipient The address that will receive the minted NFT.\n     * @param bikeInfo The information about the bike represented by the NFT.\n     * @return Returns the token ID of the newly minted NFT.\n     */\n\n    function mintNFT(\n        address recipient,\n        BikeInfo calldata bikeInfo\n    ) external returns (uint) {\n        require(whitelistContract != address(0));\n        require(recipient != address(0));\n        require(bytes(ipfsHash).length > 0, \"IPFS hash not set\");\n        require(msg.sender == whitelistContract, \"Only the whitelist contract\");\n        // checking no strings are empty\n        require(\n            bytes(bikeInfo.name).length > 0 &&\n                bytes(bikeInfo.brand).length > 0 &&\n                bytes(bikeInfo.model).length > 0 &&\n                bytes(bikeInfo.serial).length > 0 &&\n                bytes(bikeInfo.registration).length > 0,\n            \"Empty fields\"\n        );\n        // checking strings don't exceed 40 characters\n        require(\n            bytes(bikeInfo.name).length <= 40 &&\n                bytes(bikeInfo.brand).length <= 40 &&\n                bytes(bikeInfo.model).length <= 40 &&\n                bytes(bikeInfo.serial).length <= 40 &&\n                bytes(bikeInfo.registration).length <= 40,\n            \"Too long\"\n        );\n        _tokenIds.increment();\n\n        string memory json = Base64.encode(\n            bytes(\n                string(\n                    abi.encodePacked(\n                        '{\"name\": \"',\n                        bikeInfo.name,\n                        '\", \"description\": \"2Wheels2Rent Bike NFT\", \"attributes\": [{\"trait_type\": \"brand\", \"value\": \"',\n                        bikeInfo.brand,\n                        '\"}, {\"trait_type\": \"model\", \"value\": \"',\n                        bikeInfo.model,\n                        '\"}, {\"trait_type\": \"serial\", \"value\": \"',\n                        bikeInfo.serial,\n                        '\"}, {\"trait_type\": \"registration\", \"value\": \"',\n                        bikeInfo.registration,\n                        '\"}], \"image\": \"ipfs://',\n                        ipfsHash,\n                        '\"}'\n                    )\n                )\n            )\n        );\n\n        string memory finalTokenUri = string(\n            abi.encodePacked(\"data:application/json;base64,\", json)\n        );\n\n        uint newItemId = _tokenIds.current();\n        _safeMint(recipient, newItemId);\n        _setTokenURI(newItemId, finalTokenUri);\n        emit MintedNFTWithURI(recipient, newItemId, finalTokenUri);\n        return newItemId;\n    }\n\n    /**\n     * @notice Burn an NFT with the specified token ID.\n     * @dev Only callable by the whitelist contract.\n     * @param tokenId The token ID of the NFT to burn.\n     * @return Returns true if the NFT has been burned successfully.\n     */\n\n    function burnNFT(uint tokenId) external returns (bool) {\n        require(whitelistContract != address(0));\n        require(msg.sender == whitelistContract, \"Only the whitelist contract\");\n        _burn(tokenId);\n        emit BurnedNFT(tokenId);\n        return true;\n    }\n\n    /**\n     * @notice Renounce ownership of the contract.\n     * @dev Overridden to prevent the renouncing of ownership.\n     */\n\n    function renounceOwnership() public view override onlyOwner {\n        revert(\"Ownership cannot be renounced\");\n    }\n\n    /**\n     * @dev Hook that is called before any token transfer, designed to prevent token transfers.\n     * @param from The address sending the token.\n     * @param to The address receiving the token.\n     */\n\n    function _beforeTokenTransfer(\n        address from,\n        address to,\n        uint,\n        uint\n    ) internal pure override {\n        require(from == address(0) || to == address(0), \"Soulbound Token\");\n    }\n}\n",
  "sourcePath": "/Users/harbinger/Library/CloudStorage/Dropbox/Dossier familial/Formation Blockchain/Alyra/Projet Certification/Projet Alyra 2Wheels2Rent/truffle/contracts/TwoWheels2RentLender.sol",
  "compiler": {
    "name": "solc",
    "version": "0.8.18+commit.87f61d96.Emscripten.clang"
  },
  "schemaVersion": "3.4.16",
  "updatedAt": "2024-05-27T21:47:58.663Z",
  "networkType": "ethereum",
  "devdoc": {
    "author": "Crypt0zaurus https://www.linkedin.com/in/maxence-a-a82081260",
    "details": "This contract extends ERC721URIStorage and Ownable from OpenZeppelin contracts.",
    "events": {
      "Approval(address,address,uint256)": {
        "details": "Emitted when `owner` enables `approved` to manage the `tokenId` token."
      },
      "ApprovalForAll(address,address,bool)": {
        "details": "Emitted when `owner` enables or disables (`approved`) `operator` to manage all of its assets."
      },
      "Transfer(address,address,uint256)": {
        "details": "Emitted when `tokenId` token is transferred from `from` to `to`."
      }
    },
    "kind": "dev",
    "methods": {
      "approve(address,uint256)": {
        "details": "See {IERC721-approve}."
      },
      "balanceOf(address)": {
        "details": "See {IERC721-balanceOf}."
      },
      "burnNFT(uint256)": {
        "details": "Only callable by the whitelist contract.",
        "params": {
          "tokenId": "The token ID of the NFT to burn."
        },
        "returns": {
          "_0": "Returns true if the NFT has been burned successfully."
        }
      },
      "constructor": {
        "details": "Constructor that sets the name and symbol of the ERC721 token."
      },
      "getApproved(uint256)": {
        "details": "See {IERC721-getApproved}."
      },
      "getIpfsHashLength()": {
        "details": "Only callable by the whitelist contract.",
        "returns": {
          "_0": "Returns true if the IPFS hash has been set."
        }
      },
      "isApprovedForAll(address,address)": {
        "details": "See {IERC721-isApprovedForAll}."
      },
      "mintNFT(address,(string,string,string,string,string))": {
        "details": "Only callable by the whitelist contract.",
        "params": {
          "bikeInfo": "The information about the bike represented by the NFT.",
          "recipient": "The address that will receive the minted NFT."
        },
        "returns": {
          "_0": "Returns the token ID of the newly minted NFT."
        }
      },
      "name()": {
        "details": "See {IERC721Metadata-name}."
      },
      "owner()": {
        "details": "Returns the address of the current owner."
      },
      "ownerOf(uint256)": {
        "details": "See {IERC721-ownerOf}."
      },
      "renounceOwnership()": {
        "details": "Overridden to prevent the renouncing of ownership."
      },
      "safeTransferFrom(address,address,uint256)": {
        "details": "See {IERC721-safeTransferFrom}."
      },
      "safeTransferFrom(address,address,uint256,bytes)": {
        "details": "See {IERC721-safeTransferFrom}."
      },
      "setApprovalForAll(address,bool)": {
        "details": "See {IERC721-setApprovalForAll}."
      },
      "setIpfsHash(string)": {
        "details": "Only callable by the owner of the contract.",
        "params": {
          "_ipfsHash": "The IPFS hash to set."
        },
        "returns": {
          "_0": "Returns true if the IPFS hash has been set successfully."
        }
      },
      "setLenderWhitelistContract(address)": {
        "details": "Only callable by the owner of the contract.",
        "params": {
          "_whitelistContract": "The address of the new whitelist contract."
        },
        "returns": {
          "_0": "Returns true if the whitelist contract address has been set successfully."
        }
      },
      "supportsInterface(bytes4)": {
        "details": "See {IERC165-supportsInterface}."
      },
      "symbol()": {
        "details": "See {IERC721Metadata-symbol}."
      },
      "tokenURI(uint256)": {
        "details": "See {IERC721Metadata-tokenURI}."
      },
      "transferFrom(address,address,uint256)": {
        "details": "See {IERC721-transferFrom}."
      },
      "transferOwnership(address)": {
        "details": "Transfers ownership of the contract to a new account (`newOwner`). Can only be called by the current owner."
      }
    },
    "title": "TwoWheels2RentLender",
    "version": 1
  },
  "userdoc": {
    "kind": "user",
    "methods": {
      "burnNFT(uint256)": {
        "notice": "Burn an NFT with the specified token ID."
      },
      "getIpfsHashLength()": {
        "notice": "Check if the IPFS hash has been set."
      },
      "mintNFT(address,(string,string,string,string,string))": {
        "notice": "Mint a new NFT for the provided BikeInfo."
      },
      "renounceOwnership()": {
        "notice": "Renounce ownership of the contract."
      },
      "setIpfsHash(string)": {
        "notice": "Set the IPFS hash for the NFT metadata."
      },
      "setLenderWhitelistContract(address)": {
        "notice": "Set the address of the whitelist contract."
      }
    },
    "notice": "A contract for minting and burning NFTs representing bikes available for rent on the 2Wheels2Rent platform.",
    "version": 1
  }
}