{
  "contractName": "Utilities",
  "abi": [
    {
      "inputs": [
        {
          "internalType": "address",
          "name": "_ownerOfContract",
          "type": "address"
        },
        {
          "internalType": "address",
          "name": "_W2Rtoken",
          "type": "address"
        }
      ],
      "stateMutability": "nonpayable",
      "type": "constructor"
    },
    {
      "anonymous": false,
      "inputs": [
        {
          "indexed": true,
          "internalType": "address",
          "name": "_owner",
          "type": "address"
        },
        {
          "indexed": false,
          "internalType": "uint256",
          "name": "_date",
          "type": "uint256"
        },
        {
          "indexed": true,
          "internalType": "address",
          "name": "_contractAddress",
          "type": "address"
        }
      ],
      "name": "ContractActivated",
      "type": "event"
    },
    {
      "anonymous": false,
      "inputs": [
        {
          "indexed": true,
          "internalType": "address",
          "name": "_owner",
          "type": "address"
        },
        {
          "indexed": false,
          "internalType": "uint256",
          "name": "_date",
          "type": "uint256"
        },
        {
          "indexed": true,
          "internalType": "address",
          "name": "_contractAddress",
          "type": "address"
        }
      ],
      "name": "ContractDestroyed",
      "type": "event"
    },
    {
      "anonymous": false,
      "inputs": [
        {
          "indexed": true,
          "internalType": "address",
          "name": "_owner",
          "type": "address"
        },
        {
          "indexed": false,
          "internalType": "uint256",
          "name": "_date",
          "type": "uint256"
        },
        {
          "indexed": false,
          "internalType": "string",
          "name": "_latitude",
          "type": "string"
        },
        {
          "indexed": false,
          "internalType": "string",
          "name": "_longitude",
          "type": "string"
        },
        {
          "indexed": true,
          "internalType": "address",
          "name": "_contractAddress",
          "type": "address"
        }
      ],
      "name": "GPSupdated",
      "type": "event"
    },
    {
      "anonymous": false,
      "inputs": [
        {
          "indexed": true,
          "internalType": "address",
          "name": "renter",
          "type": "address"
        },
        {
          "indexed": false,
          "internalType": "uint256",
          "name": "date",
          "type": "uint256"
        },
        {
          "indexed": true,
          "internalType": "address",
          "name": "lender",
          "type": "address"
        }
      ],
      "name": "ProposalCancelled",
      "type": "event"
    },
    {
      "anonymous": false,
      "inputs": [
        {
          "indexed": true,
          "internalType": "address",
          "name": "_owner",
          "type": "address"
        },
        {
          "indexed": false,
          "internalType": "uint256",
          "name": "_amount",
          "type": "uint256"
        },
        {
          "indexed": false,
          "internalType": "uint256",
          "name": "_date",
          "type": "uint256"
        },
        {
          "indexed": true,
          "internalType": "address",
          "name": "_contractAddress",
          "type": "address"
        }
      ],
      "name": "W2Rdeposited",
      "type": "event"
    },
    {
      "anonymous": false,
      "inputs": [
        {
          "indexed": true,
          "internalType": "address",
          "name": "_owner",
          "type": "address"
        },
        {
          "indexed": false,
          "internalType": "uint256",
          "name": "_amount",
          "type": "uint256"
        },
        {
          "indexed": false,
          "internalType": "uint256",
          "name": "_date",
          "type": "uint256"
        },
        {
          "indexed": true,
          "internalType": "address",
          "name": "_contractAddress",
          "type": "address"
        }
      ],
      "name": "W2Rwithdrawed",
      "type": "event"
    },
    {
      "inputs": [],
      "name": "W2R",
      "outputs": [
        {
          "internalType": "contract IERC20",
          "name": "",
          "type": "address"
        }
      ],
      "stateMutability": "view",
      "type": "function"
    },
    {
      "inputs": [
        {
          "internalType": "address",
          "name": "",
          "type": "address"
        }
      ],
      "name": "gpsData",
      "outputs": [
        {
          "internalType": "string",
          "name": "latitude",
          "type": "string"
        },
        {
          "internalType": "string",
          "name": "longitude",
          "type": "string"
        }
      ],
      "stateMutability": "view",
      "type": "function"
    },
    {
      "inputs": [],
      "name": "isDeactivated",
      "outputs": [
        {
          "internalType": "bool",
          "name": "",
          "type": "bool"
        }
      ],
      "stateMutability": "view",
      "type": "function"
    },
    {
      "inputs": [],
      "name": "minimalRental",
      "outputs": [
        {
          "internalType": "uint256",
          "name": "",
          "type": "uint256"
        }
      ],
      "stateMutability": "view",
      "type": "function"
    },
    {
      "inputs": [],
      "name": "owner",
      "outputs": [
        {
          "internalType": "address",
          "name": "",
          "type": "address"
        }
      ],
      "stateMutability": "view",
      "type": "function"
    },
    {
      "inputs": [],
      "name": "proposalDuration",
      "outputs": [
        {
          "internalType": "uint256",
          "name": "",
          "type": "uint256"
        }
      ],
      "stateMutability": "view",
      "type": "function"
    },
    {
      "inputs": [],
      "name": "rewardAmount",
      "outputs": [
        {
          "internalType": "uint256",
          "name": "",
          "type": "uint256"
        }
      ],
      "stateMutability": "view",
      "type": "function"
    },
    {
      "inputs": [],
      "name": "safeDate",
      "outputs": [
        {
          "internalType": "uint256",
          "name": "",
          "type": "uint256"
        }
      ],
      "stateMutability": "view",
      "type": "function"
    },
    {
      "inputs": [],
      "name": "totalRentals",
      "outputs": [
        {
          "internalType": "uint256",
          "name": "",
          "type": "uint256"
        }
      ],
      "stateMutability": "view",
      "type": "function"
    },
    {
      "inputs": [
        {
          "internalType": "string",
          "name": "_latitude",
          "type": "string"
        },
        {
          "internalType": "string",
          "name": "_longitude",
          "type": "string"
        }
      ],
      "name": "setGPS",
      "outputs": [],
      "stateMutability": "nonpayable",
      "type": "function"
    },
    {
      "inputs": [
        {
          "internalType": "string",
          "name": "_latitude",
          "type": "string"
        },
        {
          "internalType": "string",
          "name": "_longitude",
          "type": "string"
        }
      ],
      "name": "activate",
      "outputs": [],
      "stateMutability": "nonpayable",
      "type": "function"
    },
    {
      "inputs": [
        {
          "internalType": "uint256",
          "name": "_amount",
          "type": "uint256"
        }
      ],
      "name": "depositW2R",
      "outputs": [],
      "stateMutability": "nonpayable",
      "type": "function"
    },
    {
      "inputs": [],
      "name": "getTotalRewards",
      "outputs": [
        {
          "internalType": "uint256",
          "name": "",
          "type": "uint256"
        }
      ],
      "stateMutability": "view",
      "type": "function"
    }
  ],
  "bytecode": "0x6080604052600a6006556202a3006007556201518060085534801561002357600080fd5b50604051610fd4380380610fd4833981016040819052610042916100c3565b6001600160a01b03821661005557600080fd5b6001600160a01b03811661006857600080fd5b60048054600580546001600160a01b039485166001600160a01b0319919091161790556001600160a81b0319169190921617600160a01b1790556100f6565b80516001600160a01b03811681146100be57600080fd5b919050565b600080604083850312156100d657600080fd5b6100df836100a7565b91506100ed602084016100a7565b90509250929050565b610ecf806101056000396000f3fe608060405234801561001057600080fd5b50600436106100cf5760003560e01c8063bf0058d01161008c578063d771642a11610066578063d771642a146101b7578063dd4b22d1146101c0578063e627f2db146101c9578063f7b2a7be146101d157600080fd5b8063bf0058d014610170578063c520e74a14610183578063c95dee79146101a457600080fd5b806330109962146100d45780636dcf811d146100f05780638046c8ac146101145780638da5cb5b146101295780638f0360721461015457806393736bb414610167575b600080fd5b6100dd60075481565b6040519081526020015b60405180910390f35b60045461010490600160a01b900460ff1681565b60405190151581526020016100e7565b610127610122366004610ace565b6101da565b005b60045461013c906001600160a01b031681565b6040516001600160a01b0390911681526020016100e7565b60055461013c906001600160a01b031681565b6100dd60015481565b61012761017e366004610b30565b610418565b610196610191366004610b9c565b61053c565b6040516100e7929190610c1c565b6101276101b2366004610b30565b610668565b6100dd60085481565b6100dd60005481565b6100dd61078b565b6100dd60065481565b600454600160a01b900460ff16156102275760405162461bcd60e51b815260206004820152600b60248201526a19195858dd1a5d985d195960aa1b60448201526064015b60405180910390fd5b600554604051636eb1769f60e11b8152336004820152306024820152829182916001600160a01b039091169063dd62ed3e90604401602060405180830381865afa158015610279573d6000803e3d6000fd5b505050506040513d601f19601f8201168201806040525081019061029d9190610c4a565b10156102d65760405162461bcd60e51b8152602060048201526008602482015267185c1c1c9bdd985b60c21b604482015260640161021e565b600082116103135760405162461bcd60e51b815260206004820152600a60248201526918985908185b5bdd5b9d60b21b604482015260640161021e565b6005546040516370a0823160e01b815233600482015283916001600160a01b0316906370a0823190602401602060405180830381865afa15801561035b573d6000803e3d6000fd5b505050506040513d601f19601f8201168201806040525081019061037f9190610c4a565b10156103c05760405162461bcd60e51b815260206004820152601060248201526f24b739bab33334b1b4b2b73a102b992960811b604482015260640161021e565b6005546103d8906001600160a01b0316333085610807565b60408051838152426020820152309133917f224b1db9c133c01e120ca7551e3b56fec93a1f208e1c0509c23361a560a61026910160405180910390a35050565b6004546001600160a01b031633146104425760405162461bcd60e51b815260040161021e90610c63565b600454600160a01b900460ff16801561045e575060095460ff16155b6104a35760405162461bcd60e51b81526020600482015260166024820152751058dd1a5d985d1959081bdc8819195cdd1c9bde595960521b604482015260640161021e565b82158015906104b157508015155b6104e65760405162461bcd60e51b81526020600482015260066024820152656e6f2047505360d01b604482015260640161021e565b6104f284848484610668565b6004805460ff60a01b19169055604051428152309033907f975a71b6f0e7c3037baf066252bb3dde490161b5536420b1954b32b39316f7b79060200160405180910390a350505050565b600a6020526000908152604090208054819061055790610c87565b80601f016020809104026020016040519081016040528092919081815260200182805461058390610c87565b80156105d05780601f106105a5576101008083540402835291602001916105d0565b820191906000526020600020905b8154815290600101906020018083116105b357829003601f168201915b5050505050908060010180546105e590610c87565b80601f016020809104026020016040519081016040528092919081815260200182805461061190610c87565b801561065e5780601f106106335761010080835404028352916020019161065e565b820191906000526020600020905b81548152906001019060200180831161064157829003601f168201915b5050505050905082565b6004546001600160a01b031633146106925760405162461bcd60e51b815260040161021e90610c63565b60095460ff16156106d15760405162461bcd60e51b815260206004820152600960248201526819195cdd1c9bde595960ba1b604482015260640161021e565b82158015906106df57508015155b6107145760405162461bcd60e51b81526020600482015260066024820152656e6f2047505360d01b604482015260640161021e565b306000908152600a602052604090208061072f858783610d25565b506001810161073f838583610d25565b50604051309033907f6cad0fcdfd6b730f10e1bef22b48067bd4880a9e9bec47880bceb85733be33969061077c9042908a908a908a908a90610e0f565b60405180910390a35050505050565b600454600090600160a01b900460ff16156107d65760405162461bcd60e51b815260206004820152600b60248201526a19195858dd1a5d985d195960aa1b604482015260640161021e565b6004546001600160a01b031633146108005760405162461bcd60e51b815260040161021e90610c63565b5060035490565b604080516001600160a01b0385811660248301528416604482015260648082018490528251808303909101815260849091019091526020810180516001600160e01b03166323b872dd60e01b179052610861908590610867565b50505050565b60006108bc826040518060400160405280602081526020017f5361666545524332303a206c6f772d6c6576656c2063616c6c206661696c6564815250856001600160a01b031661093e9092919063ffffffff16565b80519091501561093957808060200190518101906108da9190610e48565b6109395760405162461bcd60e51b815260206004820152602a60248201527f5361666545524332303a204552433230206f7065726174696f6e20646964206e6044820152691bdd081cdd58d8d9595960b21b606482015260840161021e565b505050565b606061094d8484600085610955565b949350505050565b6060824710156109b65760405162461bcd60e51b815260206004820152602660248201527f416464726573733a20696e73756666696369656e742062616c616e636520666f6044820152651c8818d85b1b60d21b606482015260840161021e565b600080866001600160a01b031685876040516109d29190610e6a565b60006040518083038185875af1925050503d8060008114610a0f576040519150601f19603f3d011682016040523d82523d6000602084013e610a14565b606091505b5091509150610a2587838387610a30565b979650505050505050565b60608315610a9f578251600003610a98576001600160a01b0385163b610a985760405162461bcd60e51b815260206004820152601d60248201527f416464726573733a2063616c6c20746f206e6f6e2d636f6e7472616374000000604482015260640161021e565b508161094d565b61094d8383815115610ab45781518083602001fd5b8060405162461bcd60e51b815260040161021e9190610e86565b600060208284031215610ae057600080fd5b5035919050565b60008083601f840112610af957600080fd5b50813567ffffffffffffffff811115610b1157600080fd5b602083019150836020828501011115610b2957600080fd5b9250929050565b60008060008060408587031215610b4657600080fd5b843567ffffffffffffffff80821115610b5e57600080fd5b610b6a88838901610ae7565b90965094506020870135915080821115610b8357600080fd5b50610b9087828801610ae7565b95989497509550505050565b600060208284031215610bae57600080fd5b81356001600160a01b0381168114610bc557600080fd5b9392505050565b60005b83811015610be7578181015183820152602001610bcf565b50506000910152565b60008151808452610c08816020860160208601610bcc565b601f01601f19169290920160200192915050565b604081526000610c2f6040830185610bf0565b8281036020840152610c418185610bf0565b95945050505050565b600060208284031215610c5c57600080fd5b5051919050565b6020808252600a908201526937b7363c9037bbb732b960b11b604082015260600190565b600181811c90821680610c9b57607f821691505b602082108103610cbb57634e487b7160e01b600052602260045260246000fd5b50919050565b634e487b7160e01b600052604160045260246000fd5b601f82111561093957600081815260208120601f850160051c81016020861015610cfe5750805b601f850160051c820191505b81811015610d1d57828155600101610d0a565b505050505050565b67ffffffffffffffff831115610d3d57610d3d610cc1565b610d5183610d4b8354610c87565b83610cd7565b6000601f841160018114610d855760008515610d6d5750838201355b600019600387901b1c1916600186901b178355610ddf565b600083815260209020601f19861690835b82811015610db65786850135825560209485019460019092019101610d96565b5086821015610dd35760001960f88860031b161c19848701351681555b505060018560011b0183555b5050505050565b81835281816020850137506000828201602090810191909152601f909101601f19169091010190565b858152606060208201526000610e29606083018688610de6565b8281036040840152610e3c818587610de6565b98975050505050505050565b600060208284031215610e5a57600080fd5b81518015158114610bc557600080fd5b60008251610e7c818460208701610bcc565b9190910192915050565b602081526000610bc56020830184610bf056fea264697066735822122087a579831d7250b90e48c1e00e2f723046d8c9445fa81a28a4ad691452f737b364736f6c63430008120033",
  "immutableReferences": {},
  "source": "// SPDX-License-Identifier: CC-BY-4.0\npragma solidity ^0.8.17;\n\n//import \"@openzeppelin/contracts/token/ERC20/IERC20.sol\";\n//import \"@openzeppelin/contracts/token/ERC20/utils/SafeERC20.sol\";\nimport \"../node_modules/@openzeppelin/contracts/token/ERC20/IERC20.sol\";\nimport \"../node_modules/@openzeppelin/contracts/token/ERC20/utils/SafeERC20.sol\";\n\n/**\n * @title Utilities\n * @notice A contract for managing utility services and token deposits common to both the Lender and Renter contracts.\n * @dev This contract uses OpenZeppelin's SafeERC20 library to handle the W2R token\n */\n\ncontract Utilities {\n    using SafeERC20 for IERC20;\n\n    /**\n     * @dev Modifier to check if the caller is the contract owner\n     */\n\n    modifier onlyOwner() {\n        require(msg.sender == owner, \"only owner\");\n        _;\n    }\n\n    /**\n     * @dev Modifier to check if the contract is activated\n     */\n\n    modifier isActivated() {\n        require(!isDeactivated, \"deactivated\");\n        _;\n    }\n\n    /**\n     * @dev Modifier to check if the caller has enough allowance for the specified amount\n     * @param amount The amount to check for allowance\n     */\n\n    modifier checkAllowance(uint amount) {\n        require(W2R.allowance(msg.sender, address(this)) >= amount, \"approval\");\n        _;\n    }\n\n    event ContractActivated(\n        address indexed _owner,\n        uint _date,\n        address indexed _contractAddress\n    );\n\n    event ProposalCancelled(\n        address indexed renter,\n        uint date,\n        address indexed lender\n    );\n\n    event W2Rdeposited(\n        address indexed _owner,\n        uint _amount,\n        uint _date,\n        address indexed _contractAddress\n    );\n\n    event W2Rwithdrawed(\n        address indexed _owner,\n        uint _amount,\n        uint _date,\n        address indexed _contractAddress\n    );\n\n    event ContractDestroyed(\n        address indexed _owner,\n        uint _date,\n        address indexed _contractAddress\n    );\n\n    event GPSupdated(\n        address indexed _owner,\n        uint _date,\n        string _latitude,\n        string _longitude,\n        address indexed _contractAddress\n    );\n\n    uint public totalRentals;\n    // safe date to authorize destruction\n    uint public safeDate;\n\n    mapping(address => uint) rewards;\n    uint totalRewards;\n    address public owner;\n    bool public isDeactivated;\n    IERC20 public W2R;\n    uint public rewardAmount = 10; // reward amount in W2R per days of rental\n    uint public proposalDuration = 2 days; // duration of the proposal\n    uint public minimalRental = 1 days; // minimal rental duration\n    bool isDestroyed;\n\n    struct GPS {\n        string latitude;\n        string longitude;\n    }\n\n    mapping(address => GPS) public gpsData;\n\n    /**\n     * @notice Constructs a new Utilities contract instance\n     * @param _ownerOfContract The address of the contract owner\n     * @param _W2Rtoken The address of the W2R token contract\n     */\n\n    constructor(address _ownerOfContract, address _W2Rtoken) {\n        require(_ownerOfContract != address(0));\n        require(_W2Rtoken != address(0));\n        owner = _ownerOfContract;\n        W2R = IERC20(_W2Rtoken);\n        isDeactivated = true;\n    }\n\n    /**\n     * @notice Sets the GPS location of the contract owner\n     * @param _latitude The latitude of the owner's location\n     * @param _longitude The longitude of the owner's location\n     */\n\n    function setGPS(\n        string calldata _latitude,\n        string calldata _longitude\n    ) public onlyOwner {\n        require(!isDestroyed, \"destroyed\");\n        require(\n            bytes(_latitude).length > 0 && bytes(_longitude).length > 0,\n            \"no GPS\"\n        );\n        GPS storage gps = gpsData[address(this)];\n        gps.latitude = _latitude;\n        gps.longitude = _longitude;\n\n        emit GPSupdated(\n            msg.sender,\n            block.timestamp,\n            _latitude,\n            _longitude,\n            address(this)\n        );\n    }\n\n    /**\n     * @notice Activates the contract and sets the GPS location of the contract owner\n     * @param _latitude The latitude of the owner's location\n     * @param _longitude The longitude of the owner's location\n     */\n\n    function activate(\n        string calldata _latitude,\n        string calldata _longitude\n    ) external onlyOwner {\n        require(isDeactivated && !isDestroyed, \"Activated or destroyed\");\n        require(\n            bytes(_latitude).length > 0 && bytes(_longitude).length > 0,\n            \"no GPS\"\n        );\n        setGPS(_latitude, _longitude);\n        isDeactivated = false;\n        emit ContractActivated(msg.sender, block.timestamp, address(this));\n    }\n\n    /**\n     * @notice Deposits W2R tokens to the contract\n     * @param _amount The amount of W2R tokens to deposit\n     */\n\n    function depositW2R(\n        uint _amount\n    ) external isActivated checkAllowance(_amount) {\n        require(_amount > 0, \"bad amount\");\n        require(W2R.balanceOf(msg.sender) >= _amount, \"Insufficient W2R\");\n        W2R.safeTransferFrom(msg.sender, address(this), _amount);\n        emit W2Rdeposited(msg.sender, _amount, block.timestamp, address(this));\n    }\n\n    /**\n     * @notice Returns the total rewards accumulated by the contract\n     * @return The total rewards\n     */\n\n    function getTotalRewards()\n        external\n        view\n        isActivated\n        onlyOwner\n        returns (uint)\n    {\n        return totalRewards;\n    }\n}\n",
  "sourcePath": "/Users/harbinger/Dropbox/Dossier familial/Formation Blockchain/Alyra/Projet Certification/Projet Alyra 2Wheels2Rent/truffle/contracts/Utilities.sol",
  "compiler": {
    "name": "solc",
    "version": "0.8.18+commit.87f61d96.Emscripten.clang"
  },
  "schemaVersion": "3.4.12",
  "updatedAt": "2023-04-23T15:36:48.652Z",
  "devdoc": {
    "details": "This contract uses OpenZeppelin's SafeERC20 library to handle the W2R token",
    "kind": "dev",
    "methods": {
      "activate(string,string)": {
        "params": {
          "_latitude": "The latitude of the owner's location",
          "_longitude": "The longitude of the owner's location"
        }
      },
      "constructor": {
        "params": {
          "_W2Rtoken": "The address of the W2R token contract",
          "_ownerOfContract": "The address of the contract owner"
        }
      },
      "depositW2R(uint256)": {
        "params": {
          "_amount": "The amount of W2R tokens to deposit"
        }
      },
      "getTotalRewards()": {
        "returns": {
          "_0": "The total rewards"
        }
      },
      "setGPS(string,string)": {
        "params": {
          "_latitude": "The latitude of the owner's location",
          "_longitude": "The longitude of the owner's location"
        }
      }
    },
    "title": "Utilities",
    "version": 1
  },
  "userdoc": {
    "kind": "user",
    "methods": {
      "activate(string,string)": {
        "notice": "Activates the contract and sets the GPS location of the contract owner"
      },
      "constructor": {
        "notice": "Constructs a new Utilities contract instance"
      },
      "depositW2R(uint256)": {
        "notice": "Deposits W2R tokens to the contract"
      },
      "getTotalRewards()": {
        "notice": "Returns the total rewards accumulated by the contract"
      },
      "setGPS(string,string)": {
        "notice": "Sets the GPS location of the contract owner"
      }
    },
    "notice": "A contract for managing utility services and token deposits common to both the Lender and Renter contracts.",
    "version": 1
  }
}