{
  "contractName": "Utilities",
  "abi": [
    {
      "inputs": [
        {
          "internalType": "address",
          "name": "_ownerOfContract",
          "type": "address"
        },
        {
          "internalType": "address",
          "name": "_W2Rtoken",
          "type": "address"
        },
        {
          "internalType": "address",
          "name": "_vaultW2R",
          "type": "address"
        }
      ],
      "stateMutability": "nonpayable",
      "type": "constructor"
    },
    {
      "anonymous": false,
      "inputs": [
        {
          "indexed": true,
          "internalType": "address",
          "name": "_owner",
          "type": "address"
        },
        {
          "indexed": false,
          "internalType": "uint256",
          "name": "_date",
          "type": "uint256"
        },
        {
          "indexed": true,
          "internalType": "address",
          "name": "_contractAddress",
          "type": "address"
        }
      ],
      "name": "ContractActivated",
      "type": "event"
    },
    {
      "anonymous": false,
      "inputs": [
        {
          "indexed": true,
          "internalType": "address",
          "name": "_owner",
          "type": "address"
        },
        {
          "indexed": false,
          "internalType": "uint256",
          "name": "_date",
          "type": "uint256"
        },
        {
          "indexed": true,
          "internalType": "address",
          "name": "_contractAddress",
          "type": "address"
        }
      ],
      "name": "ContractDestroyed",
      "type": "event"
    },
    {
      "anonymous": false,
      "inputs": [
        {
          "indexed": true,
          "internalType": "address",
          "name": "_owner",
          "type": "address"
        },
        {
          "indexed": false,
          "internalType": "uint256",
          "name": "_date",
          "type": "uint256"
        },
        {
          "indexed": false,
          "internalType": "string",
          "name": "_latitude",
          "type": "string"
        },
        {
          "indexed": false,
          "internalType": "string",
          "name": "_longitude",
          "type": "string"
        },
        {
          "indexed": true,
          "internalType": "address",
          "name": "_contractAddress",
          "type": "address"
        }
      ],
      "name": "GPSupdated",
      "type": "event"
    },
    {
      "anonymous": false,
      "inputs": [
        {
          "indexed": true,
          "internalType": "address",
          "name": "renter",
          "type": "address"
        },
        {
          "indexed": false,
          "internalType": "uint256",
          "name": "date",
          "type": "uint256"
        },
        {
          "indexed": true,
          "internalType": "address",
          "name": "lender",
          "type": "address"
        }
      ],
      "name": "ProposalCancelled",
      "type": "event"
    },
    {
      "anonymous": false,
      "inputs": [
        {
          "indexed": true,
          "internalType": "address",
          "name": "_owner",
          "type": "address"
        },
        {
          "indexed": false,
          "internalType": "uint256",
          "name": "_date",
          "type": "uint256"
        },
        {
          "indexed": false,
          "internalType": "uint256",
          "name": "_amount",
          "type": "uint256"
        },
        {
          "indexed": true,
          "internalType": "address",
          "name": "_contractAddress",
          "type": "address"
        }
      ],
      "name": "RewardClaimed",
      "type": "event"
    },
    {
      "anonymous": false,
      "inputs": [
        {
          "indexed": true,
          "internalType": "address",
          "name": "_owner",
          "type": "address"
        },
        {
          "indexed": false,
          "internalType": "uint256",
          "name": "_amount",
          "type": "uint256"
        },
        {
          "indexed": false,
          "internalType": "uint256",
          "name": "_date",
          "type": "uint256"
        },
        {
          "indexed": true,
          "internalType": "address",
          "name": "_contractAddress",
          "type": "address"
        }
      ],
      "name": "W2Rdeposited",
      "type": "event"
    },
    {
      "anonymous": false,
      "inputs": [
        {
          "indexed": true,
          "internalType": "address",
          "name": "_owner",
          "type": "address"
        },
        {
          "indexed": false,
          "internalType": "uint256",
          "name": "_amount",
          "type": "uint256"
        },
        {
          "indexed": false,
          "internalType": "uint256",
          "name": "_date",
          "type": "uint256"
        },
        {
          "indexed": true,
          "internalType": "address",
          "name": "_contractAddress",
          "type": "address"
        }
      ],
      "name": "W2Rwithdrawed",
      "type": "event"
    },
    {
      "inputs": [],
      "name": "W2R",
      "outputs": [
        {
          "internalType": "contract IERC20",
          "name": "",
          "type": "address"
        }
      ],
      "stateMutability": "view",
      "type": "function"
    },
    {
      "inputs": [
        {
          "internalType": "address",
          "name": "",
          "type": "address"
        }
      ],
      "name": "gpsData",
      "outputs": [
        {
          "internalType": "string",
          "name": "latitude",
          "type": "string"
        },
        {
          "internalType": "string",
          "name": "longitude",
          "type": "string"
        }
      ],
      "stateMutability": "view",
      "type": "function"
    },
    {
      "inputs": [],
      "name": "isDeactivated",
      "outputs": [
        {
          "internalType": "bool",
          "name": "",
          "type": "bool"
        }
      ],
      "stateMutability": "view",
      "type": "function"
    },
    {
      "inputs": [],
      "name": "minimalRental",
      "outputs": [
        {
          "internalType": "uint256",
          "name": "",
          "type": "uint256"
        }
      ],
      "stateMutability": "view",
      "type": "function"
    },
    {
      "inputs": [],
      "name": "owner",
      "outputs": [
        {
          "internalType": "address",
          "name": "",
          "type": "address"
        }
      ],
      "stateMutability": "view",
      "type": "function"
    },
    {
      "inputs": [],
      "name": "proposalDuration",
      "outputs": [
        {
          "internalType": "uint256",
          "name": "",
          "type": "uint256"
        }
      ],
      "stateMutability": "view",
      "type": "function"
    },
    {
      "inputs": [],
      "name": "rewardAmount",
      "outputs": [
        {
          "internalType": "uint256",
          "name": "",
          "type": "uint256"
        }
      ],
      "stateMutability": "view",
      "type": "function"
    },
    {
      "inputs": [],
      "name": "safeDate",
      "outputs": [
        {
          "internalType": "uint256",
          "name": "",
          "type": "uint256"
        }
      ],
      "stateMutability": "view",
      "type": "function"
    },
    {
      "inputs": [],
      "name": "totalRentals",
      "outputs": [
        {
          "internalType": "uint256",
          "name": "",
          "type": "uint256"
        }
      ],
      "stateMutability": "view",
      "type": "function"
    },
    {
      "inputs": [
        {
          "internalType": "string",
          "name": "_latitude",
          "type": "string"
        },
        {
          "internalType": "string",
          "name": "_longitude",
          "type": "string"
        }
      ],
      "name": "setGPS",
      "outputs": [],
      "stateMutability": "nonpayable",
      "type": "function"
    },
    {
      "inputs": [
        {
          "internalType": "string",
          "name": "_latitude",
          "type": "string"
        },
        {
          "internalType": "string",
          "name": "_longitude",
          "type": "string"
        }
      ],
      "name": "activate",
      "outputs": [],
      "stateMutability": "nonpayable",
      "type": "function"
    },
    {
      "inputs": [
        {
          "internalType": "uint256",
          "name": "_amount",
          "type": "uint256"
        }
      ],
      "name": "depositW2R",
      "outputs": [],
      "stateMutability": "nonpayable",
      "type": "function"
    },
    {
      "inputs": [],
      "name": "getTotalRewards",
      "outputs": [
        {
          "internalType": "uint256",
          "name": "",
          "type": "uint256"
        }
      ],
      "stateMutability": "view",
      "type": "function"
    },
    {
      "inputs": [],
      "name": "claimRewards",
      "outputs": [],
      "stateMutability": "nonpayable",
      "type": "function"
    }
  ],
  "bytecode": "0x6080604052600a6006556202a3006007556201518060085534801561002357600080fd5b506040516200114938038062001149833981016040819052610044916100f0565b6001600160a01b0383161580159061006457506001600160a01b03821615155b801561007857506001600160a01b03811615155b61008157600080fd5b60048054600580546001600160a01b039586166001600160a01b031991821617909155600b805494861694909116939093179092556001600160a81b03199091169190921617600160a01b179055610133565b80516001600160a01b03811681146100eb57600080fd5b919050565b60008060006060848603121561010557600080fd5b61010e846100d4565b925061011c602085016100d4565b915061012a604085016100d4565b90509250925092565b61100680620001436000396000f3fe608060405234801561001057600080fd5b50600436106100ea5760003560e01c8063bf0058d01161008c578063d771642a11610066578063d771642a146101da578063dd4b22d1146101e3578063e627f2db146101ec578063f7b2a7be146101f457600080fd5b8063bf0058d014610193578063c520e74a146101a6578063c95dee79146101c757600080fd5b80638046c8ac116100c85780638046c8ac146101395780638da5cb5b1461014c5780638f0360721461017757806393736bb41461018a57600080fd5b806330109962146100ef578063372500ab1461010b5780636dcf811d14610115575b600080fd5b6100f860075481565b6040519081526020015b60405180910390f35b6101136101fd565b005b60045461012990600160a01b900460ff1681565b6040519015158152602001610102565b610113610147366004610be0565b610343565b60045461015f906001600160a01b031681565b6040516001600160a01b039091168152602001610102565b60055461015f906001600160a01b031681565b6100f860015481565b6101136101a1366004610c42565b610553565b6101b96101b4366004610cae565b61066c565b604051610102929190610d2e565b6101136101d5366004610c42565b610798565b6100f860085481565b6100f860005481565b6100f86108bb565b6100f860065481565b600454600160a01b900460ff16156102305760405162461bcd60e51b815260040161022790610d5c565b60405180910390fd5b6004546001600160a01b0316331461025a5760405162461bcd60e51b815260040161022790610d81565b6000600354116102965760405162461bcd60e51b81526020600482015260076024820152666e6f7468696e6760c81b6044820152606401610227565b600380546000909155600b5460405163255d23d760e11b8152336004820152602481018390526001600160a01b0390911690634aba47ae90604401600060405180830381600087803b1580156102eb57600080fd5b505af11580156102ff573d6000803e3d6000fd5b505060408051428152602081018590523093503392507f4bbe6b9abde3c57178a72bffd1868d868a0562c805a8effd250d9f76a2bd8280910160405180910390a350565b600454600160a01b900460ff161561036d5760405162461bcd60e51b815260040161022790610d5c565b600554604051636eb1769f60e11b8152336004820152306024820152829182916001600160a01b039091169063dd62ed3e90604401602060405180830381865afa1580156103bf573d6000803e3d6000fd5b505050506040513d601f19601f820116820180604052508101906103e39190610da5565b101561041c5760405162461bcd60e51b8152602060048201526008602482015267185c1c1c9bdd985b60c21b6044820152606401610227565b600082116104525760405162461bcd60e51b815260206004820152600360248201526218985960ea1b6044820152606401610227565b6005546040516370a0823160e01b815233600482015283916001600160a01b0316906370a0823190602401602060405180830381865afa15801561049a573d6000803e3d6000fd5b505050506040513d601f19601f820116820180604052508101906104be9190610da5565b10156104fb5760405162461bcd60e51b815260206004820152600c60248201526b125b9cdd59999a58da595b9d60a21b6044820152606401610227565b600554610513906001600160a01b0316333085610919565b60408051838152426020820152309133917f224b1db9c133c01e120ca7551e3b56fec93a1f208e1c0509c23361a560a61026910160405180910390a35050565b6004546001600160a01b0316331461057d5760405162461bcd60e51b815260040161022790610d81565b600454600160a01b900460ff168015610599575060095460ff16155b6105d35760405162461bcd60e51b815260206004820152600b60248201526a756e617661696c61626c6560a81b6044820152606401610227565b82158015906105e157508015155b6106165760405162461bcd60e51b81526020600482015260066024820152656e6f2047505360d01b6044820152606401610227565b61062284848484610798565b6004805460ff60a01b19169055604051428152309033907f975a71b6f0e7c3037baf066252bb3dde490161b5536420b1954b32b39316f7b79060200160405180910390a350505050565b600a6020526000908152604090208054819061068790610dbe565b80601f01602080910402602001604051908101604052809291908181526020018280546106b390610dbe565b80156107005780601f106106d557610100808354040283529160200191610700565b820191906000526020600020905b8154815290600101906020018083116106e357829003601f168201915b50505050509080600101805461071590610dbe565b80601f016020809104026020016040519081016040528092919081815260200182805461074190610dbe565b801561078e5780601f106107635761010080835404028352916020019161078e565b820191906000526020600020905b81548152906001019060200180831161077157829003601f168201915b5050505050905082565b6004546001600160a01b031633146107c25760405162461bcd60e51b815260040161022790610d81565b60095460ff16156108015760405162461bcd60e51b815260206004820152600960248201526819195cdd1c9bde595960ba1b6044820152606401610227565b821580159061080f57508015155b6108445760405162461bcd60e51b81526020600482015260066024820152656e6f2047505360d01b6044820152606401610227565b306000908152600a602052604090208061085f858783610e5c565b506001810161086f838583610e5c565b50604051309033907f6cad0fcdfd6b730f10e1bef22b48067bd4880a9e9bec47880bceb85733be3396906108ac9042908a908a908a908a90610f46565b60405180910390a35050505050565b600454600090600160a01b900460ff16156108e85760405162461bcd60e51b815260040161022790610d5c565b6004546001600160a01b031633146109125760405162461bcd60e51b815260040161022790610d81565b5060035490565b604080516001600160a01b0385811660248301528416604482015260648082018490528251808303909101815260849091019091526020810180516001600160e01b03166323b872dd60e01b179052610973908590610979565b50505050565b60006109ce826040518060400160405280602081526020017f5361666545524332303a206c6f772d6c6576656c2063616c6c206661696c6564815250856001600160a01b0316610a509092919063ffffffff16565b805190915015610a4b57808060200190518101906109ec9190610f7f565b610a4b5760405162461bcd60e51b815260206004820152602a60248201527f5361666545524332303a204552433230206f7065726174696f6e20646964206e6044820152691bdd081cdd58d8d9595960b21b6064820152608401610227565b505050565b6060610a5f8484600085610a67565b949350505050565b606082471015610ac85760405162461bcd60e51b815260206004820152602660248201527f416464726573733a20696e73756666696369656e742062616c616e636520666f6044820152651c8818d85b1b60d21b6064820152608401610227565b600080866001600160a01b03168587604051610ae49190610fa1565b60006040518083038185875af1925050503d8060008114610b21576040519150601f19603f3d011682016040523d82523d6000602084013e610b26565b606091505b5091509150610b3787838387610b42565b979650505050505050565b60608315610bb1578251600003610baa576001600160a01b0385163b610baa5760405162461bcd60e51b815260206004820152601d60248201527f416464726573733a2063616c6c20746f206e6f6e2d636f6e74726163740000006044820152606401610227565b5081610a5f565b610a5f8383815115610bc65781518083602001fd5b8060405162461bcd60e51b81526004016102279190610fbd565b600060208284031215610bf257600080fd5b5035919050565b60008083601f840112610c0b57600080fd5b50813567ffffffffffffffff811115610c2357600080fd5b602083019150836020828501011115610c3b57600080fd5b9250929050565b60008060008060408587031215610c5857600080fd5b843567ffffffffffffffff80821115610c7057600080fd5b610c7c88838901610bf9565b90965094506020870135915080821115610c9557600080fd5b50610ca287828801610bf9565b95989497509550505050565b600060208284031215610cc057600080fd5b81356001600160a01b0381168114610cd757600080fd5b9392505050565b60005b83811015610cf9578181015183820152602001610ce1565b50506000910152565b60008151808452610d1a816020860160208601610cde565b601f01601f19169290920160200192915050565b604081526000610d416040830185610d02565b8281036020840152610d538185610d02565b95945050505050565b6020808252600b908201526a19195858dd1a5d985d195960aa1b604082015260600190565b6020808252600a908201526937b7363c9037bbb732b960b11b604082015260600190565b600060208284031215610db757600080fd5b5051919050565b600181811c90821680610dd257607f821691505b602082108103610df257634e487b7160e01b600052602260045260246000fd5b50919050565b634e487b7160e01b600052604160045260246000fd5b601f821115610a4b57600081815260208120601f850160051c81016020861015610e355750805b601f850160051c820191505b81811015610e5457828155600101610e41565b505050505050565b67ffffffffffffffff831115610e7457610e74610df8565b610e8883610e828354610dbe565b83610e0e565b6000601f841160018114610ebc5760008515610ea45750838201355b600019600387901b1c1916600186901b178355610f16565b600083815260209020601f19861690835b82811015610eed5786850135825560209485019460019092019101610ecd565b5086821015610f0a5760001960f88860031b161c19848701351681555b505060018560011b0183555b5050505050565b81835281816020850137506000828201602090810191909152601f909101601f19169091010190565b858152606060208201526000610f60606083018688610f1d565b8281036040840152610f73818587610f1d565b98975050505050505050565b600060208284031215610f9157600080fd5b81518015158114610cd757600080fd5b60008251610fb3818460208701610cde565b9190910192915050565b602081526000610cd76020830184610d0256fea2646970667358221220bfc0b41de39b8502bf6eb655effbc4491911ddfc444dbf782029cebb2dc4618a64736f6c63430008120033",
  "immutableReferences": {},
  "source": "// SPDX-License-Identifier: CC-BY-4.0\npragma solidity ^0.8.17;\n\n//import \"@openzeppelin/contracts/token/ERC20/IERC20.sol\";\n//import \"@openzeppelin/contracts/token/ERC20/utils/SafeERC20.sol\";\nimport \"../node_modules/@openzeppelin/contracts/token/ERC20/IERC20.sol\";\nimport \"../node_modules/@openzeppelin/contracts/token/ERC20/utils/SafeERC20.sol\";\n\n/**\n@title I3VaultW2R Interface\n@notice This is the interface of the VaultW2R contract that handles distribution of W2R tokens.\n*/\n\ninterface I3VaultW2R {\n    function distributeW2R(address receiver, uint256 amount) external;\n\n    function receiveDepositsWhenDestroyed(\n        address _lenderContractOwner,\n        address _renterContract,\n        address _renterContractOwner,\n        uint _date,\n        uint _amount\n    ) external;\n}\n\n/**\n * @title Utilities\n * @author Crypt0zaurus https://www.linkedin.com/in/maxence-a-a82081260\n * @notice A contract for managing utility services and token deposits common to both the Lender and Renter contracts.\n * @dev This contract uses OpenZeppelin's SafeERC20 library to handle the W2R token\n */\n\ncontract Utilities {\n    using SafeERC20 for IERC20;\n\n    /**\n     * @dev Modifier to check if the caller is the contract owner\n     */\n\n    modifier onlyOwner() {\n        require(msg.sender == owner, \"only owner\");\n        _;\n    }\n\n    /**\n     * @dev Modifier to check if the contract is activated\n     */\n\n    modifier isActivated() {\n        require(!isDeactivated, \"deactivated\");\n        _;\n    }\n\n    /**\n     * @dev Modifier to check if the caller has enough allowance for the specified amount\n     * @param amount The amount to check for allowance\n     */\n\n    modifier checkAllowance(uint amount) {\n        require(W2R.allowance(msg.sender, address(this)) >= amount, \"approval\");\n        _;\n    }\n\n    event ContractActivated(\n        address indexed _owner,\n        uint _date,\n        address indexed _contractAddress\n    );\n\n    event ProposalCancelled(\n        address indexed renter,\n        uint date,\n        address indexed lender\n    );\n\n    event W2Rdeposited(\n        address indexed _owner,\n        uint _amount,\n        uint _date,\n        address indexed _contractAddress\n    );\n\n    event W2Rwithdrawed(\n        address indexed _owner,\n        uint _amount,\n        uint _date,\n        address indexed _contractAddress\n    );\n\n    event ContractDestroyed(\n        address indexed _owner,\n        uint _date,\n        address indexed _contractAddress\n    );\n\n    event GPSupdated(\n        address indexed _owner,\n        uint _date,\n        string _latitude,\n        string _longitude,\n        address indexed _contractAddress\n    );\n\n    event RewardClaimed(\n        address indexed _owner,\n        uint _date,\n        uint _amount,\n        address indexed _contractAddress\n    );\n\n    uint public totalRentals;\n    // safe date to authorize destruction\n    uint public safeDate;\n    // for historical purpose\n    mapping(address => uint) rewards;\n    uint totalRewards;\n    address public owner;\n    bool public isDeactivated;\n    IERC20 public W2R;\n    uint public rewardAmount = 10; // reward amount in W2R per days of rental\n    uint public proposalDuration = 2 days; // duration of the proposal\n    uint public minimalRental = 1 days; // minimal rental duration\n    bool isDestroyed;\n\n    struct GPS {\n        string latitude;\n        string longitude;\n    }\n\n    mapping(address => GPS) public gpsData;\n\n    /**\n     * @notice Constructs a new Utilities contract instance\n     * @param _ownerOfContract The address of the contract owner\n     * @param _W2Rtoken The address of the W2R token contract\n     */\n\n    constructor(\n        address _ownerOfContract,\n        address _W2Rtoken,\n        address _vaultW2R\n    ) {\n        require(\n            _ownerOfContract != address(0) &&\n                _W2Rtoken != address(0) &&\n                _vaultW2R != address(0)\n        );\n        owner = _ownerOfContract;\n        W2R = IERC20(_W2Rtoken);\n        vaultW2R = I3VaultW2R(_vaultW2R);\n        isDeactivated = true;\n    }\n\n    I3VaultW2R vaultW2R;\n\n    /**\n     * @notice Sets the GPS location of the contract owner\n     * @param _latitude The latitude of the owner's location\n     * @param _longitude The longitude of the owner's location\n     */\n\n    function setGPS(\n        string calldata _latitude,\n        string calldata _longitude\n    ) public onlyOwner {\n        require(!isDestroyed, \"destroyed\");\n        require(\n            bytes(_latitude).length > 0 && bytes(_longitude).length > 0,\n            \"no GPS\"\n        );\n        GPS storage gps = gpsData[address(this)];\n        gps.latitude = _latitude;\n        gps.longitude = _longitude;\n\n        emit GPSupdated(\n            msg.sender,\n            block.timestamp,\n            _latitude,\n            _longitude,\n            address(this)\n        );\n    }\n\n    /**\n     * @notice Activates the contract and sets the GPS location of the contract owner\n     * @param _latitude The latitude of the owner's location\n     * @param _longitude The longitude of the owner's location\n     */\n\n    function activate(\n        string calldata _latitude,\n        string calldata _longitude\n    ) external onlyOwner {\n        require(isDeactivated && !isDestroyed, \"unavailable\");\n        require(\n            bytes(_latitude).length > 0 && bytes(_longitude).length > 0,\n            \"no GPS\"\n        );\n        setGPS(_latitude, _longitude);\n        isDeactivated = false;\n        emit ContractActivated(msg.sender, block.timestamp, address(this));\n    }\n\n    /**\n     * @notice Deposits W2R tokens to the contract\n     * @param _amount The amount of W2R tokens to deposit\n     */\n\n    function depositW2R(\n        uint _amount\n    ) external isActivated checkAllowance(_amount) {\n        require(_amount > 0, \"bad\");\n        require(W2R.balanceOf(msg.sender) >= _amount, \"Insufficient\");\n        W2R.safeTransferFrom(msg.sender, address(this), _amount);\n        emit W2Rdeposited(msg.sender, _amount, block.timestamp, address(this));\n    }\n\n    /**\n     * @notice Returns the total rewards accumulated by the contract\n     * @return The total rewards\n     */\n\n    function getTotalRewards()\n        external\n        view\n        isActivated\n        onlyOwner\n        returns (uint)\n    {\n        return totalRewards;\n    }\n\n    /**\n     * @notice Claim the accumulated rewards for the contract owner.\n     * @dev This function can only be called by the contract owner and when the staking contract is activated.\n     * The total rewards are set to zero after claiming, and the rewards are distributed through the vault.\n     */\n\n    function claimRewards() external isActivated onlyOwner {\n        require(totalRewards > 0, \"nothing\");\n        uint amount = totalRewards;\n        totalRewards = 0;\n        vaultW2R.distributeW2R(msg.sender, amount);\n        emit RewardClaimed(msg.sender, block.timestamp, amount, address(this));\n    }\n}\n",
  "sourcePath": "/Users/harbinger/Dropbox/Dossier familial/Formation Blockchain/Alyra/Projet Certification/Projet Alyra 2Wheels2Rent/truffle/contracts/Utilities.sol",
  "compiler": {
    "name": "solc",
    "version": "0.8.18+commit.87f61d96.Emscripten.clang"
  },
  "schemaVersion": "3.4.12",
  "updatedAt": "2023-05-07T06:38:56.664Z",
  "devdoc": {
    "author": "Crypt0zaurus https://www.linkedin.com/in/maxence-a-a82081260",
    "details": "This contract uses OpenZeppelin's SafeERC20 library to handle the W2R token",
    "kind": "dev",
    "methods": {
      "activate(string,string)": {
        "params": {
          "_latitude": "The latitude of the owner's location",
          "_longitude": "The longitude of the owner's location"
        }
      },
      "claimRewards()": {
        "details": "This function can only be called by the contract owner and when the staking contract is activated. The total rewards are set to zero after claiming, and the rewards are distributed through the vault."
      },
      "constructor": {
        "params": {
          "_W2Rtoken": "The address of the W2R token contract",
          "_ownerOfContract": "The address of the contract owner"
        }
      },
      "depositW2R(uint256)": {
        "params": {
          "_amount": "The amount of W2R tokens to deposit"
        }
      },
      "getTotalRewards()": {
        "returns": {
          "_0": "The total rewards"
        }
      },
      "setGPS(string,string)": {
        "params": {
          "_latitude": "The latitude of the owner's location",
          "_longitude": "The longitude of the owner's location"
        }
      }
    },
    "title": "Utilities",
    "version": 1
  },
  "userdoc": {
    "kind": "user",
    "methods": {
      "activate(string,string)": {
        "notice": "Activates the contract and sets the GPS location of the contract owner"
      },
      "claimRewards()": {
        "notice": "Claim the accumulated rewards for the contract owner."
      },
      "constructor": {
        "notice": "Constructs a new Utilities contract instance"
      },
      "depositW2R(uint256)": {
        "notice": "Deposits W2R tokens to the contract"
      },
      "getTotalRewards()": {
        "notice": "Returns the total rewards accumulated by the contract"
      },
      "setGPS(string,string)": {
        "notice": "Sets the GPS location of the contract owner"
      }
    },
    "notice": "A contract for managing utility services and token deposits common to both the Lender and Renter contracts.",
    "version": 1
  }
}