{
  "contractName": "Utilities",
  "abi": [
    {
      "inputs": [
        {
          "internalType": "address",
          "name": "_ownerOfContract",
          "type": "address"
        },
        {
          "internalType": "address",
          "name": "_W2Rtoken",
          "type": "address"
        }
      ],
      "stateMutability": "nonpayable",
      "type": "constructor"
    },
    {
      "anonymous": false,
      "inputs": [
        {
          "indexed": true,
          "internalType": "address",
          "name": "_owner",
          "type": "address"
        },
        {
          "indexed": false,
          "internalType": "uint256",
          "name": "_date",
          "type": "uint256"
        },
        {
          "indexed": true,
          "internalType": "address",
          "name": "_contractAddress",
          "type": "address"
        }
      ],
      "name": "ContractActivated",
      "type": "event"
    },
    {
      "anonymous": false,
      "inputs": [
        {
          "indexed": true,
          "internalType": "address",
          "name": "_owner",
          "type": "address"
        },
        {
          "indexed": false,
          "internalType": "uint256",
          "name": "_date",
          "type": "uint256"
        },
        {
          "indexed": true,
          "internalType": "address",
          "name": "_contractAddress",
          "type": "address"
        }
      ],
      "name": "ContractDestroyed",
      "type": "event"
    },
    {
      "anonymous": false,
      "inputs": [
        {
          "indexed": true,
          "internalType": "address",
          "name": "_owner",
          "type": "address"
        },
        {
          "indexed": false,
          "internalType": "uint256",
          "name": "_date",
          "type": "uint256"
        },
        {
          "indexed": false,
          "internalType": "string",
          "name": "_latitude",
          "type": "string"
        },
        {
          "indexed": false,
          "internalType": "string",
          "name": "_longitude",
          "type": "string"
        },
        {
          "indexed": true,
          "internalType": "address",
          "name": "_contractAddress",
          "type": "address"
        }
      ],
      "name": "GPSupdated",
      "type": "event"
    },
    {
      "anonymous": false,
      "inputs": [
        {
          "indexed": true,
          "internalType": "address",
          "name": "renter",
          "type": "address"
        },
        {
          "indexed": false,
          "internalType": "uint256",
          "name": "date",
          "type": "uint256"
        },
        {
          "indexed": true,
          "internalType": "address",
          "name": "lender",
          "type": "address"
        }
      ],
      "name": "ProposalCancelled",
      "type": "event"
    },
    {
      "anonymous": false,
      "inputs": [
        {
          "indexed": true,
          "internalType": "address",
          "name": "_owner",
          "type": "address"
        },
        {
          "indexed": false,
          "internalType": "uint256",
          "name": "_amount",
          "type": "uint256"
        },
        {
          "indexed": false,
          "internalType": "uint256",
          "name": "_date",
          "type": "uint256"
        },
        {
          "indexed": true,
          "internalType": "address",
          "name": "_contractAddress",
          "type": "address"
        }
      ],
      "name": "W2Rdeposited",
      "type": "event"
    },
    {
      "anonymous": false,
      "inputs": [
        {
          "indexed": true,
          "internalType": "address",
          "name": "_owner",
          "type": "address"
        },
        {
          "indexed": false,
          "internalType": "uint256",
          "name": "_amount",
          "type": "uint256"
        },
        {
          "indexed": false,
          "internalType": "uint256",
          "name": "_date",
          "type": "uint256"
        },
        {
          "indexed": true,
          "internalType": "address",
          "name": "_contractAddress",
          "type": "address"
        }
      ],
      "name": "W2Rwithdrawed",
      "type": "event"
    },
    {
      "inputs": [],
      "name": "W2R",
      "outputs": [
        {
          "internalType": "contract IERC20",
          "name": "",
          "type": "address"
        }
      ],
      "stateMutability": "view",
      "type": "function"
    },
    {
      "inputs": [
        {
          "internalType": "address",
          "name": "",
          "type": "address"
        }
      ],
      "name": "gpsData",
      "outputs": [
        {
          "internalType": "string",
          "name": "latitude",
          "type": "string"
        },
        {
          "internalType": "string",
          "name": "longitude",
          "type": "string"
        }
      ],
      "stateMutability": "view",
      "type": "function"
    },
    {
      "inputs": [],
      "name": "isDeactivated",
      "outputs": [
        {
          "internalType": "bool",
          "name": "",
          "type": "bool"
        }
      ],
      "stateMutability": "view",
      "type": "function"
    },
    {
      "inputs": [],
      "name": "minimalRental",
      "outputs": [
        {
          "internalType": "uint256",
          "name": "",
          "type": "uint256"
        }
      ],
      "stateMutability": "view",
      "type": "function"
    },
    {
      "inputs": [],
      "name": "owner",
      "outputs": [
        {
          "internalType": "address",
          "name": "",
          "type": "address"
        }
      ],
      "stateMutability": "view",
      "type": "function"
    },
    {
      "inputs": [],
      "name": "proposalDuration",
      "outputs": [
        {
          "internalType": "uint256",
          "name": "",
          "type": "uint256"
        }
      ],
      "stateMutability": "view",
      "type": "function"
    },
    {
      "inputs": [],
      "name": "rewardAmount",
      "outputs": [
        {
          "internalType": "uint256",
          "name": "",
          "type": "uint256"
        }
      ],
      "stateMutability": "view",
      "type": "function"
    },
    {
      "inputs": [],
      "name": "totalRentals",
      "outputs": [
        {
          "internalType": "uint256",
          "name": "",
          "type": "uint256"
        }
      ],
      "stateMutability": "view",
      "type": "function"
    },
    {
      "inputs": [
        {
          "internalType": "string",
          "name": "_latitude",
          "type": "string"
        },
        {
          "internalType": "string",
          "name": "_longitude",
          "type": "string"
        }
      ],
      "name": "setGPS",
      "outputs": [],
      "stateMutability": "nonpayable",
      "type": "function"
    },
    {
      "inputs": [
        {
          "internalType": "string",
          "name": "_latitude",
          "type": "string"
        },
        {
          "internalType": "string",
          "name": "_longitude",
          "type": "string"
        }
      ],
      "name": "activate",
      "outputs": [],
      "stateMutability": "nonpayable",
      "type": "function"
    },
    {
      "inputs": [
        {
          "internalType": "uint256",
          "name": "_amount",
          "type": "uint256"
        }
      ],
      "name": "depositW2R",
      "outputs": [],
      "stateMutability": "nonpayable",
      "type": "function"
    },
    {
      "inputs": [],
      "name": "getTotalRewards",
      "outputs": [
        {
          "internalType": "uint256",
          "name": "",
          "type": "uint256"
        }
      ],
      "stateMutability": "view",
      "type": "function"
    }
  ],
  "bytecode": "0x6080604052600a6005556202a3006006556201518060075534801561002357600080fd5b50604051610fdd380380610fdd833981016040819052610042916100c3565b6001600160a01b03821661005557600080fd5b6001600160a01b03811661006857600080fd5b60038054600480546001600160a01b039485166001600160a01b0319919091161790556001600160a81b0319169190921617600160a01b1790556100f6565b80516001600160a01b03811681146100be57600080fd5b919050565b600080604083850312156100d657600080fd5b6100df836100a7565b91506100ed602084016100a7565b90509250929050565b610ed8806101056000396000f3fe608060405234801561001057600080fd5b50600436106100b45760003560e01c8063c520e74a11610071578063c520e74a1461015f578063c95dee7914610180578063d771642a14610193578063dd4b22d11461019c578063e627f2db146101a5578063f7b2a7be146101ad57600080fd5b806330109962146100b95780636dcf811d146100d55780638046c8ac146100f95780638da5cb5b1461010e5780638f03607214610139578063bf0058d01461014c575b600080fd5b6100c260065481565b6040519081526020015b60405180910390f35b6003546100e990600160a01b900460ff1681565b60405190151581526020016100cc565b61010c610107366004610ad7565b6101b6565b005b600354610121906001600160a01b031681565b6040516001600160a01b0390911681526020016100cc565b600454610121906001600160a01b031681565b61010c61015a366004610b39565b610408565b61017261016d366004610ba5565b610539565b6040516100cc929190610c25565b61010c61018e366004610b39565b610665565b6100c260075481565b6100c260005481565b6100c261078b565b6100c260055481565b600354600160a01b900460ff161561020c5760405162461bcd60e51b815260206004820152601460248201527310dbdb9d1c9858dd0819195858dd1a5d985d195960621b60448201526064015b60405180910390fd5b60048054604051636eb1769f60e11b81523392810192909252306024830152829182916001600160a01b03169063dd62ed3e90604401602060405180830381865afa15801561025f573d6000803e3d6000fd5b505050506040513d601f19601f820116820180604052508101906102839190610c53565b10156102c15760405162461bcd60e51b815260206004820152600d60248201526c1399595908185c1c1c9bdd985b609a1b6044820152606401610203565b600082116102fe5760405162461bcd60e51b815260206004820152600a60248201526910985908185b5bdd5b9d60b21b6044820152606401610203565b600480546040516370a0823160e01b8152339281019290925283916001600160a01b03909116906370a0823190602401602060405180830381865afa15801561034b573d6000803e3d6000fd5b505050506040513d601f19601f8201168201806040525081019061036f9190610c53565b10156103b05760405162461bcd60e51b815260206004820152601060248201526f24b739bab33334b1b4b2b73a102b992960811b6044820152606401610203565b6004546103c8906001600160a01b0316333085610810565b60408051838152426020820152309133917f224b1db9c133c01e120ca7551e3b56fec93a1f208e1c0509c23361a560a61026910160405180910390a35050565b6003546001600160a01b031633146104325760405162461bcd60e51b815260040161020390610c6c565b600354600160a01b900460ff16801561044e575060085460ff16155b6104935760405162461bcd60e51b81526020600482015260166024820152751058dd1a5d985d1959081bdc8819195cdd1c9bde595960521b6044820152606401610203565b82158015906104a157508015155b6104e35760405162461bcd60e51b81526020600482015260136024820152724750532063616e6e6f7420626520656d70747960681b6044820152606401610203565b6104ef84848484610665565b6003805460ff60a01b19169055604051428152309033907f975a71b6f0e7c3037baf066252bb3dde490161b5536420b1954b32b39316f7b79060200160405180910390a350505050565b60096020526000908152604090208054819061055490610c90565b80601f016020809104026020016040519081016040528092919081815260200182805461058090610c90565b80156105cd5780601f106105a2576101008083540402835291602001916105cd565b820191906000526020600020905b8154815290600101906020018083116105b057829003601f168201915b5050505050908060010180546105e290610c90565b80601f016020809104026020016040519081016040528092919081815260200182805461060e90610c90565b801561065b5780601f106106305761010080835404028352916020019161065b565b820191906000526020600020905b81548152906001019060200180831161063e57829003601f168201915b5050505050905082565b6003546001600160a01b0316331461068f5760405162461bcd60e51b815260040161020390610c6c565b60085460ff16156106ce5760405162461bcd60e51b815260206004820152600960248201526811195cdd1c9bde595960ba1b6044820152606401610203565b82158015906106dc57508015155b6107145760405162461bcd60e51b815260206004820152600960248201526847505320656d70747960b81b6044820152606401610203565b3060009081526009602052604090208061072f858783610d2e565b506001810161073f838583610d2e565b50604051309033907f6cad0fcdfd6b730f10e1bef22b48067bd4880a9e9bec47880bceb85733be33969061077c9042908a908a908a908a90610e18565b60405180910390a35050505050565b600354600090600160a01b900460ff16156107df5760405162461bcd60e51b815260206004820152601460248201527310dbdb9d1c9858dd0819195858dd1a5d985d195960621b6044820152606401610203565b6003546001600160a01b031633146108095760405162461bcd60e51b815260040161020390610c6c565b5060025490565b604080516001600160a01b0385811660248301528416604482015260648082018490528251808303909101815260849091019091526020810180516001600160e01b03166323b872dd60e01b17905261086a908590610870565b50505050565b60006108c5826040518060400160405280602081526020017f5361666545524332303a206c6f772d6c6576656c2063616c6c206661696c6564815250856001600160a01b03166109479092919063ffffffff16565b80519091501561094257808060200190518101906108e39190610e51565b6109425760405162461bcd60e51b815260206004820152602a60248201527f5361666545524332303a204552433230206f7065726174696f6e20646964206e6044820152691bdd081cdd58d8d9595960b21b6064820152608401610203565b505050565b6060610956848460008561095e565b949350505050565b6060824710156109bf5760405162461bcd60e51b815260206004820152602660248201527f416464726573733a20696e73756666696369656e742062616c616e636520666f6044820152651c8818d85b1b60d21b6064820152608401610203565b600080866001600160a01b031685876040516109db9190610e73565b60006040518083038185875af1925050503d8060008114610a18576040519150601f19603f3d011682016040523d82523d6000602084013e610a1d565b606091505b5091509150610a2e87838387610a39565b979650505050505050565b60608315610aa8578251600003610aa1576001600160a01b0385163b610aa15760405162461bcd60e51b815260206004820152601d60248201527f416464726573733a2063616c6c20746f206e6f6e2d636f6e74726163740000006044820152606401610203565b5081610956565b6109568383815115610abd5781518083602001fd5b8060405162461bcd60e51b81526004016102039190610e8f565b600060208284031215610ae957600080fd5b5035919050565b60008083601f840112610b0257600080fd5b50813567ffffffffffffffff811115610b1a57600080fd5b602083019150836020828501011115610b3257600080fd5b9250929050565b60008060008060408587031215610b4f57600080fd5b843567ffffffffffffffff80821115610b6757600080fd5b610b7388838901610af0565b90965094506020870135915080821115610b8c57600080fd5b50610b9987828801610af0565b95989497509550505050565b600060208284031215610bb757600080fd5b81356001600160a01b0381168114610bce57600080fd5b9392505050565b60005b83811015610bf0578181015183820152602001610bd8565b50506000910152565b60008151808452610c11816020860160208601610bd5565b601f01601f19169290920160200192915050565b604081526000610c386040830185610bf9565b8281036020840152610c4a8185610bf9565b95945050505050565b600060208284031215610c6557600080fd5b5051919050565b6020808252600a908201526937b7363c9037bbb732b960b11b604082015260600190565b600181811c90821680610ca457607f821691505b602082108103610cc457634e487b7160e01b600052602260045260246000fd5b50919050565b634e487b7160e01b600052604160045260246000fd5b601f82111561094257600081815260208120601f850160051c81016020861015610d075750805b601f850160051c820191505b81811015610d2657828155600101610d13565b505050505050565b67ffffffffffffffff831115610d4657610d46610cca565b610d5a83610d548354610c90565b83610ce0565b6000601f841160018114610d8e5760008515610d765750838201355b600019600387901b1c1916600186901b178355610de8565b600083815260209020601f19861690835b82811015610dbf5786850135825560209485019460019092019101610d9f565b5086821015610ddc5760001960f88860031b161c19848701351681555b505060018560011b0183555b5050505050565b81835281816020850137506000828201602090810191909152601f909101601f19169091010190565b858152606060208201526000610e32606083018688610def565b8281036040840152610e45818587610def565b98975050505050505050565b600060208284031215610e6357600080fd5b81518015158114610bce57600080fd5b60008251610e85818460208701610bd5565b9190910192915050565b602081526000610bce6020830184610bf956fea2646970667358221220507b6905042858824ee3c1475d12c54c44dbc91d86dd6588d7ba9ccf184e1c2d64736f6c63430008120033",
  "immutableReferences": {},
  "source": "// SPDX-License-Identifier: MIT\npragma solidity ^0.8.17;\n\n//import \"@openzeppelin/contracts/token/ERC20/IERC20.sol\";\n//import \"@openzeppelin/contracts/token/ERC20/utils/SafeERC20.sol\";\nimport \"../node_modules/@openzeppelin/contracts/token/ERC20/IERC20.sol\";\nimport \"../node_modules/@openzeppelin/contracts/token/ERC20/utils/SafeERC20.sol\";\n\ncontract Utilities {\n    using SafeERC20 for IERC20;\n\n    modifier onlyOwner() {\n        require(msg.sender == owner, \"only owner\");\n        _;\n    }\n\n    modifier isActivated() {\n        require(!isDeactivated, \"Contract deactivated\");\n        _;\n    }\n\n    modifier checkAllowance(uint amount) {\n        require(\n            W2R.allowance(msg.sender, address(this)) >= amount,\n            \"Need approval\"\n        );\n        _;\n    }\n\n    event ContractActivated(\n        address indexed _owner,\n        uint _date,\n        address indexed _contractAddress\n    );\n\n    event ProposalCancelled(\n        address indexed renter,\n        uint date,\n        address indexed lender\n    );\n\n    event W2Rdeposited(\n        address indexed _owner,\n        uint _amount,\n        uint _date,\n        address indexed _contractAddress\n    );\n\n    event W2Rwithdrawed(\n        address indexed _owner,\n        uint _amount,\n        uint _date,\n        address indexed _contractAddress\n    );\n\n    event ContractDestroyed(\n        address indexed _owner,\n        uint _date,\n        address indexed _contractAddress\n    );\n\n    event GPSupdated(\n        address indexed _owner,\n        uint _date,\n        string _latitude,\n        string _longitude,\n        address indexed _contractAddress\n    );\n\n    uint public totalRentals;\n\n    mapping(address => uint) rewards;\n    uint totalRewards;\n    address public owner;\n    bool public isDeactivated;\n    IERC20 public W2R;\n    uint public rewardAmount = 10; // pourcentage  rcompenser pour chaque location\n    uint public proposalDuration = 2 days; // Dure de la proposition de location\n    uint public minimalRental = 1 days; // Dure minimale de location\n    bool isDestroyed;\n\n    struct GPS {\n        string latitude;\n        string longitude;\n    }\n\n    mapping(address => GPS) public gpsData;\n\n    constructor(address _ownerOfContract, address _W2Rtoken) {\n        require(_ownerOfContract != address(0));\n        require(_W2Rtoken != address(0));\n        owner = _ownerOfContract;\n        W2R = IERC20(_W2Rtoken);\n        isDeactivated = true;\n    }\n\n    function setGPS(\n        string calldata _latitude,\n        string calldata _longitude\n    ) public onlyOwner {\n        require(!isDestroyed, \"Destroyed\");\n        require(\n            bytes(_latitude).length > 0 && bytes(_longitude).length > 0,\n            \"GPS empty\"\n        );\n        GPS storage gps = gpsData[address(this)];\n        gps.latitude = _latitude;\n        gps.longitude = _longitude;\n\n        emit GPSupdated(\n            msg.sender,\n            block.timestamp,\n            _latitude,\n            _longitude,\n            address(this)\n        );\n    }\n\n    function activate(\n        string calldata _latitude,\n        string calldata _longitude\n    ) external onlyOwner {\n        require(isDeactivated && !isDestroyed, \"Activated or destroyed\");\n        require(\n            bytes(_latitude).length > 0 && bytes(_longitude).length > 0,\n            \"GPS cannot be empty\"\n        );\n        setGPS(_latitude, _longitude);\n        isDeactivated = false;\n        emit ContractActivated(msg.sender, block.timestamp, address(this));\n    }\n\n    // fonction pour dposer des W2R\n    function depositW2R(\n        uint _amount\n    ) external isActivated checkAllowance(_amount) {\n        require(_amount > 0, \"Bad amount\");\n        require(W2R.balanceOf(msg.sender) >= _amount, \"Insufficient W2R\");\n        W2R.safeTransferFrom(msg.sender, address(this), _amount);\n        emit W2Rdeposited(msg.sender, _amount, block.timestamp, address(this));\n    }\n\n    function getTotalRewards()\n        external\n        view\n        isActivated\n        onlyOwner\n        returns (uint)\n    {\n        return totalRewards;\n    }\n}\n",
  "sourcePath": "/Users/harbinger/Dropbox/Dossier familial/Formation Blockchain/Alyra/Projet Certification/Projet Alyra 2Wheels2Rent/truffle/contracts/Utilities.sol",
  "compiler": {
    "name": "solc",
    "version": "0.8.18+commit.87f61d96.Emscripten.clang"
  },
  "schemaVersion": "3.4.12",
  "updatedAt": "2023-04-08T14:08:42.741Z",
  "devdoc": {
    "kind": "dev",
    "methods": {},
    "version": 1
  },
  "userdoc": {
    "kind": "user",
    "methods": {},
    "version": 1
  }
}