{
  "contractName": "VaultW2R",
  "abi": [
    {
      "inputs": [
        {
          "internalType": "address",
          "name": "_w2rToken",
          "type": "address"
        }
      ],
      "stateMutability": "nonpayable",
      "type": "constructor"
    },
    {
      "anonymous": false,
      "inputs": [
        {
          "indexed": true,
          "internalType": "address",
          "name": "contractAddress",
          "type": "address"
        },
        {
          "indexed": false,
          "internalType": "bool",
          "name": "status",
          "type": "bool"
        }
      ],
      "name": "ContractApproved",
      "type": "event"
    },
    {
      "anonymous": false,
      "inputs": [
        {
          "indexed": true,
          "internalType": "address",
          "name": "contractAddress",
          "type": "address"
        }
      ],
      "name": "ContractRemoved",
      "type": "event"
    },
    {
      "anonymous": false,
      "inputs": [
        {
          "indexed": true,
          "internalType": "address",
          "name": "sender",
          "type": "address"
        },
        {
          "indexed": false,
          "internalType": "uint256",
          "name": "amount",
          "type": "uint256"
        },
        {
          "indexed": false,
          "internalType": "uint256",
          "name": "date",
          "type": "uint256"
        }
      ],
      "name": "MaticIncome",
      "type": "event"
    },
    {
      "anonymous": false,
      "inputs": [
        {
          "indexed": true,
          "internalType": "address",
          "name": "receiver",
          "type": "address"
        },
        {
          "indexed": false,
          "internalType": "uint256",
          "name": "amount",
          "type": "uint256"
        },
        {
          "indexed": false,
          "internalType": "uint256",
          "name": "date",
          "type": "uint256"
        }
      ],
      "name": "MaticWithdrawn",
      "type": "event"
    },
    {
      "anonymous": false,
      "inputs": [
        {
          "indexed": true,
          "internalType": "address",
          "name": "previousOwner",
          "type": "address"
        },
        {
          "indexed": true,
          "internalType": "address",
          "name": "newOwner",
          "type": "address"
        }
      ],
      "name": "OwnershipTransferred",
      "type": "event"
    },
    {
      "anonymous": false,
      "inputs": [
        {
          "indexed": true,
          "internalType": "address",
          "name": "sender",
          "type": "address"
        },
        {
          "indexed": false,
          "internalType": "uint256",
          "name": "amount",
          "type": "uint256"
        },
        {
          "indexed": false,
          "internalType": "uint256",
          "name": "date",
          "type": "uint256"
        }
      ],
      "name": "W2RIncome",
      "type": "event"
    },
    {
      "anonymous": false,
      "inputs": [
        {
          "indexed": true,
          "internalType": "address",
          "name": "receiver",
          "type": "address"
        },
        {
          "indexed": false,
          "internalType": "uint256",
          "name": "amount",
          "type": "uint256"
        },
        {
          "indexed": false,
          "internalType": "uint256",
          "name": "date",
          "type": "uint256"
        },
        {
          "indexed": true,
          "internalType": "address",
          "name": "from",
          "type": "address"
        }
      ],
      "name": "W2RTransferred",
      "type": "event"
    },
    {
      "anonymous": false,
      "inputs": [
        {
          "indexed": true,
          "internalType": "address",
          "name": "receiver",
          "type": "address"
        },
        {
          "indexed": false,
          "internalType": "uint256",
          "name": "amount",
          "type": "uint256"
        },
        {
          "indexed": false,
          "internalType": "uint256",
          "name": "date",
          "type": "uint256"
        }
      ],
      "name": "W2RWithdrawn",
      "type": "event"
    },
    {
      "inputs": [],
      "name": "W2R",
      "outputs": [
        {
          "internalType": "contract IERC20",
          "name": "",
          "type": "address"
        }
      ],
      "stateMutability": "view",
      "type": "function",
      "constant": true
    },
    {
      "inputs": [],
      "name": "owner",
      "outputs": [
        {
          "internalType": "address",
          "name": "",
          "type": "address"
        }
      ],
      "stateMutability": "view",
      "type": "function",
      "constant": true
    },
    {
      "inputs": [],
      "name": "renounceOwnership",
      "outputs": [],
      "stateMutability": "nonpayable",
      "type": "function"
    },
    {
      "inputs": [],
      "name": "totalDepositsWhenDestroyed",
      "outputs": [
        {
          "internalType": "uint256",
          "name": "",
          "type": "uint256"
        }
      ],
      "stateMutability": "view",
      "type": "function",
      "constant": true
    },
    {
      "inputs": [
        {
          "internalType": "address",
          "name": "newOwner",
          "type": "address"
        }
      ],
      "name": "transferOwnership",
      "outputs": [],
      "stateMutability": "nonpayable",
      "type": "function"
    },
    {
      "inputs": [],
      "name": "whitelistLenders",
      "outputs": [
        {
          "internalType": "address",
          "name": "",
          "type": "address"
        }
      ],
      "stateMutability": "view",
      "type": "function",
      "constant": true
    },
    {
      "inputs": [],
      "name": "whitelistRenters",
      "outputs": [
        {
          "internalType": "address",
          "name": "",
          "type": "address"
        }
      ],
      "stateMutability": "view",
      "type": "function",
      "constant": true
    },
    {
      "stateMutability": "payable",
      "type": "receive",
      "payable": true
    },
    {
      "inputs": [
        {
          "internalType": "address",
          "name": "_lenderContractOwner",
          "type": "address"
        },
        {
          "internalType": "address",
          "name": "_renterContract",
          "type": "address"
        },
        {
          "internalType": "address",
          "name": "_renterContractOwner",
          "type": "address"
        },
        {
          "internalType": "uint256",
          "name": "_date",
          "type": "uint256"
        },
        {
          "internalType": "uint256",
          "name": "_amount",
          "type": "uint256"
        }
      ],
      "name": "receiveDepositsWhenDestroyed",
      "outputs": [],
      "stateMutability": "nonpayable",
      "type": "function"
    },
    {
      "inputs": [
        {
          "internalType": "address",
          "name": "_lender",
          "type": "address"
        },
        {
          "internalType": "bool",
          "name": "_sentToLender",
          "type": "bool"
        }
      ],
      "name": "sentDeposit",
      "outputs": [],
      "stateMutability": "nonpayable",
      "type": "function"
    },
    {
      "inputs": [
        {
          "internalType": "address",
          "name": "_whitelistLenders",
          "type": "address"
        }
      ],
      "name": "setWhitelistLenders",
      "outputs": [],
      "stateMutability": "nonpayable",
      "type": "function"
    },
    {
      "inputs": [
        {
          "internalType": "address",
          "name": "_whitelistRenters",
          "type": "address"
        }
      ],
      "name": "setWhitelistRenters",
      "outputs": [],
      "stateMutability": "nonpayable",
      "type": "function"
    },
    {
      "inputs": [
        {
          "internalType": "address",
          "name": "contractAddress",
          "type": "address"
        },
        {
          "internalType": "bool",
          "name": "status",
          "type": "bool"
        }
      ],
      "name": "setApprovedContract",
      "outputs": [],
      "stateMutability": "nonpayable",
      "type": "function"
    },
    {
      "inputs": [
        {
          "internalType": "address",
          "name": "contractAddress",
          "type": "address"
        }
      ],
      "name": "removeApprovedContract",
      "outputs": [
        {
          "internalType": "bool",
          "name": "",
          "type": "bool"
        }
      ],
      "stateMutability": "nonpayable",
      "type": "function"
    },
    {
      "inputs": [
        {
          "internalType": "address",
          "name": "contractAddress",
          "type": "address"
        }
      ],
      "name": "getApprovedContract",
      "outputs": [
        {
          "internalType": "bool",
          "name": "",
          "type": "bool"
        }
      ],
      "stateMutability": "view",
      "type": "function",
      "constant": true
    },
    {
      "inputs": [
        {
          "internalType": "address",
          "name": "receiver",
          "type": "address"
        },
        {
          "internalType": "uint256",
          "name": "amount",
          "type": "uint256"
        }
      ],
      "name": "distributeW2R",
      "outputs": [],
      "stateMutability": "nonpayable",
      "type": "function"
    },
    {
      "inputs": [
        {
          "internalType": "uint256",
          "name": "amount",
          "type": "uint256"
        }
      ],
      "name": "withdrawW2R",
      "outputs": [],
      "stateMutability": "nonpayable",
      "type": "function"
    },
    {
      "inputs": [
        {
          "internalType": "uint256",
          "name": "amount",
          "type": "uint256"
        }
      ],
      "name": "withdrawMatic",
      "outputs": [],
      "stateMutability": "nonpayable",
      "type": "function"
    },
    {
      "inputs": [
        {
          "internalType": "uint256",
          "name": "_maticIncome",
          "type": "uint256"
        },
        {
          "internalType": "uint256",
          "name": "_w2rIncome",
          "type": "uint256"
        },
        {
          "internalType": "uint256",
          "name": "_date",
          "type": "uint256"
        }
      ],
      "name": "updateIncomes",
      "outputs": [],
      "stateMutability": "nonpayable",
      "type": "function"
    },
    {
      "inputs": [
        {
          "internalType": "uint256",
          "name": "_amount",
          "type": "uint256"
        }
      ],
      "name": "depositW2R",
      "outputs": [],
      "stateMutability": "nonpayable",
      "type": "function"
    }
  ],
  "bytecode": "0x60806040523480156200001157600080fd5b5060405162001b2d38038062001b2d833981016040819052620000349162000114565b6200003f33620000c4565b600180556001600160a01b0381166200009e5760405162461bcd60e51b815260206004820181905260248201527f57325220746f6b656e20616464726573732063616e6e6f74206265207a65726f604482015260640160405180910390fd5b600280546001600160a01b0319166001600160a01b039290921691909117905562000146565b600080546001600160a01b038381166001600160a01b0319831681178455604051919092169283917f8be0079c531659141344cd1fd0a4f28419497f9722a3daafe3b4186f6b6457e09190a35050565b6000602082840312156200012757600080fd5b81516001600160a01b03811681146200013f57600080fd5b9392505050565b6119d780620001566000396000f3fe6080604052600436106101185760003560e01c80637a0e4035116100a05780639eea2279116100645780639eea227914610314578063cd7b6a9f14610334578063e8a379b214610354578063f192e8d014610374578063f2fde38b1461039457600080fd5b80637a0e40351461024e5780638046c8ac1461027e578063845977f51461029e5780638da5cb5b146102d65780638f036072146102f457600080fd5b80633b87d575116100e75780633b87d575146101b95780634aba47ae146101d95780635ffd993b146101f957806370b935c614610219578063715018a61461023957600080fd5b80631578284a14610130578063293e3019146101505780632e1f47891461017057806331babd8b1461019957600080fd5b3661012b57610129346000426103b4565b005b600080fd5b34801561013c57600080fd5b5061012961014b3660046116b9565b610530565b34801561015c57600080fd5b5061012961016b3660046116e9565b610662565b34801561017c57600080fd5b50610186600c5481565b6040519081526020015b60405180910390f35b3480156101a557600080fd5b506101296101b436600461173e565b6107d2565b3480156101c557600080fd5b506101296101d4366004611760565b6103b4565b3480156101e557600080fd5b506101296101f436600461178c565b610862565b34801561020557600080fd5b506101296102143660046117c4565b6109c7565b34801561022557600080fd5b506101296102343660046117c4565b610ae0565b34801561024557600080fd5b50610129610d28565b34801561025a57600080fd5b5061026e61026936600461173e565b610d3c565b6040519015158152602001610190565b34801561028a57600080fd5b506101296102993660046116b9565b610d69565b3480156102aa57600080fd5b506003546102be906001600160a01b031681565b6040516001600160a01b039091168152602001610190565b3480156102e257600080fd5b506000546001600160a01b03166102be565b34801561030057600080fd5b506002546102be906001600160a01b031681565b34801561032057600080fd5b5061026e61032f36600461173e565b610ead565b34801561034057600080fd5b5061012961034f36600461173e565b611025565b34801561036057600080fd5b5061012961036f3660046116b9565b6110b5565b34801561038057600080fd5b506004546102be906001600160a01b031681565b3480156103a057600080fd5b506101296103af36600461173e565b61123d565b3360009081526005602052604090205460ff16806103dc57506000546001600160a01b031633145b6104265760405162461bcd60e51b815260206004820152601660248201527510d85b1b195c881a5cc81b9bdd08185c1c1c9bdd995960521b60448201526064015b60405180910390fd5b60008311806104355750600082115b6104755760405162461bcd60e51b81526020600482015260116024820152704e6f7468696e6720746f2075706461746560781b604482015260640161041d565b82156104d05733600081815260076020908152604080832085845282529182902086905581518681529081018490527fa6f23133afc67770e715a012368e58d78b165cbb46a442ec498609ddc45f24d3910160405180910390a25b811561052b5733600081815260066020908152604080832085845282529182902085905581518581529081018490527ffe81e223760d917c9aa69b667f04b328f86268f9552505bd0d25492d90b21103910160405180910390a25b505050565b6105386112b3565b600081116105585760405162461bcd60e51b815260040161041d906117fb565b600c546105659082611848565b6002546040516370a0823160e01b81523060048201526001600160a01b03909116906370a0823190602401602060405180830381865afa1580156105ad573d6000803e3d6000fd5b505050506040513d601f19601f820116820180604052508101906105d19190611861565b10156105ef5760405162461bcd60e51b815260040161041d9061187a565b3360008181526008602090815260408083204284529091529020829055600254610625916001600160a01b03909116908361130d565b6040805182815242602082015233917f6d0dba810cf0f105b89f8a58602be594c09571d39a7f4d5d3ec90cf83158f1b4910160405180910390a250565b3360009081526005602052604090205460ff166106915760405162461bcd60e51b815260040161041d906118bc565b6001600160a01b038516158015906106b157506001600160a01b03841615155b80156106c557506001600160a01b03831615155b6106ce57600080fd5b6000821180156106de5750600081115b6106e757600080fd5b6040805160e0810182526001600160a01b03878116825286811660208084019182528783168486019081526060850188815260808601888152600060a0880181815260c08901828152338352600b909652988120975188546001600160a01b03199081169189169190911789559551600189018054881691891691909117905592516002880180549096169616959095179093559151600385015591516004840155925160059092018054915161ffff1990921692151561ff0019169290921761010091151591909102179055600c80548392906107c6908490611848565b90915550505050505050565b6107da6112b3565b6001600160a01b0381166108405760405162461bcd60e51b815260206004820152602760248201527f57686974656c69737452656e7465727320616464726573732063616e6e6f74206044820152666265207a65726f60c81b606482015260840161041d565b600480546001600160a01b0319166001600160a01b0392909216919091179055565b3360009081526005602052604090205460ff166108915760405162461bcd60e51b815260040161041d906118bc565b600081116108b15760405162461bcd60e51b815260040161041d906117fb565b600c546108be9082611848565b6002546040516370a0823160e01b81523060048201526001600160a01b03909116906370a0823190602401602060405180830381865afa158015610906573d6000803e3d6000fd5b505050506040513d601f19601f8201168201806040525081019061092a9190611861565b10156109485760405162461bcd60e51b815260040161041d9061187a565b6001600160a01b038083166000908152600a60209081526040808320428452909152902082905560025461097e9116838361130d565b6040805182815242602082015233916001600160a01b038516917fc60dbb526038e371a784c224382f89d28771210e3f66642fd4b115d55f67c4dc910160405180910390a35050565b6003546001600160a01b03163314806109ea57506004546001600160a01b031633145b806109ff57506000546001600160a01b031633145b610a1b5760405162461bcd60e51b815260040161041d906118bc565b306001600160a01b03831603610a815760405162461bcd60e51b815260206004820152602560248201527f43616e6e6f74206164642073656c6620746f20617070726f76656420636f6e74604482015264726163747360d81b606482015260840161041d565b6001600160a01b038216600081815260056020908152604091829020805460ff191685151590811790915591519182527f2f5b19bb75097659707b1df69ba629ec7e5acfe3f775e362b8750d854037de02910160405180910390a25050565b610ae86112b3565b6001600160a01b038216610b3e5760405162461bcd60e51b815260206004820152601d60248201527f4c656e64657220616464726573732063616e6e6f74206265207a65726f000000604482015260640161041d565b6001600160a01b0382166000908152600b60205260409020600581015460ff16158015610b7557506005810154610100900460ff16155b610bb85760405162461bcd60e51b815260206004820152601460248201527311195c1bdcda5d08185b1c9958591e481cd95b9d60621b604482015260640161041d565b60008160030154118015610bd0575060008160040154115b610c105760405162461bcd60e51b815260206004820152601160248201527011195c1bdcda5d081b9bdd08199bdd5b99607a1b604482015260640161041d565b80546001600160a01b031615801590610c35575060018101546001600160a01b031615155b8015610c4d575060028101546001600160a01b031615155b610c8d5760405162461bcd60e51b815260206004820152601160248201527011195c1bdcda5d081b9bdd08199bdd5b99607a1b604482015260640161041d565b81610caa5760058101805461ff0019166101001790556001610cbd565b60058101805460ff191660019081179091555b508060040154600c6000828254610cd491906118fe565b90915550829050610d06576002808201546004830154915461052b926001600160a01b0391821692919091169061130d565b8054600482015460025461052b926001600160a01b039182169291169061130d565b610d306112b3565b610d3a6000611370565b565b6000610d466112b3565b506001600160a01b03811660009081526005602052604090205460ff165b919050565b610d716112b3565b600254604051636eb1769f60e11b8152336004820152306024820152829182916001600160a01b039091169063dd62ed3e90604401602060405180830381865afa158015610dc3573d6000803e3d6000fd5b505050506040513d601f19601f82011682018060405250810190610de79190611861565b1015610e355760405162461bcd60e51b815260206004820152601d60248201527f4e65656420617070726f76616c20666f72207468697320616d6f756e74000000604482015260640161041d565b60008211610e855760405162461bcd60e51b815260206004820181905260248201527f416d6f756e74206d7573742062652067726561746572207468616e207a65726f604482015260640161041d565b610e91600083426103b4565b600254610ea9906001600160a01b03163330856113c0565b5050565b6003546000906001600160a01b0316331480610ed357506004546001600160a01b031633145b80610ee857506000546001600160a01b031633145b610f045760405162461bcd60e51b815260040161041d906118bc565b6001600160a01b03821660009081526005602052604090205460ff16610f6c5760405162461bcd60e51b815260206004820152601860248201527f436f6e7472616374206973206e6f7420617070726f7665640000000000000000604482015260640161041d565b306001600160a01b03831603610fd75760405162461bcd60e51b815260206004820152602a60248201527f43616e6e6f742072656d6f76652073656c662066726f6d20617070726f76656460448201526920636f6e74726163747360b01b606482015260840161041d565b6001600160a01b038216600081815260056020526040808220805460ff19169055517f8d30d41865a0b811b9545d879520d2dde9f4cc49e4241f486ad9752bc904b5659190a2506001919050565b61102d6112b3565b6001600160a01b0381166110935760405162461bcd60e51b815260206004820152602760248201527f57686974656c6973744c656e6465727320616464726573732063616e6e6f74206044820152666265207a65726f60c81b606482015260840161041d565b600380546001600160a01b0319166001600160a01b0392909216919091179055565b6110bd6112b3565b6110c56113fe565b600081116110e55760405162461bcd60e51b815260040161041d906117fb565b804710156111415760405162461bcd60e51b8152602060048201526024808201527f5661756c742068617320696e73756666696369656e74204d617469632062616c604482015263616e636560e01b606482015260840161041d565b604051600090339083908381818185875af1925050503d8060008114611183576040519150601f19603f3d011682016040523d82523d6000602084013e611188565b606091505b50509050806111d95760405162461bcd60e51b815260206004820152601760248201527f4661696c656420746f2077697468647261772066656573000000000000000000604482015260640161041d565b33600081815260096020908152604080832042808552908352928190208690558051868152918201929092527f11a91aaf791ee477af7e214e44c09426b5046160e229dd2af1847c49b79b464f910160405180910390a25061123a60018055565b50565b6112456112b3565b6001600160a01b0381166112aa5760405162461bcd60e51b815260206004820152602660248201527f4f776e61626c653a206e6577206f776e657220697320746865207a65726f206160448201526564647265737360d01b606482015260840161041d565b61123a81611370565b6000546001600160a01b03163314610d3a5760405162461bcd60e51b815260206004820181905260248201527f4f776e61626c653a2063616c6c6572206973206e6f7420746865206f776e6572604482015260640161041d565b6040516001600160a01b03831660248201526044810182905261052b90849063a9059cbb60e01b906064015b60408051601f198184030181529190526020810180516001600160e01b03166001600160e01b031990931692909217909152611457565b600080546001600160a01b038381166001600160a01b0319831681178455604051919092169283917f8be0079c531659141344cd1fd0a4f28419497f9722a3daafe3b4186f6b6457e09190a35050565b6040516001600160a01b03808516602483015283166044820152606481018290526113f89085906323b872dd60e01b90608401611339565b50505050565b6002600154036114505760405162461bcd60e51b815260206004820152601f60248201527f5265656e7472616e637947756172643a207265656e7472616e742063616c6c00604482015260640161041d565b6002600155565b60006114ac826040518060400160405280602081526020017f5361666545524332303a206c6f772d6c6576656c2063616c6c206661696c6564815250856001600160a01b03166115299092919063ffffffff16565b80519091501561052b57808060200190518101906114ca9190611911565b61052b5760405162461bcd60e51b815260206004820152602a60248201527f5361666545524332303a204552433230206f7065726174696f6e20646964206e6044820152691bdd081cdd58d8d9595960b21b606482015260840161041d565b60606115388484600085611540565b949350505050565b6060824710156115a15760405162461bcd60e51b815260206004820152602660248201527f416464726573733a20696e73756666696369656e742062616c616e636520666f6044820152651c8818d85b1b60d21b606482015260840161041d565b600080866001600160a01b031685876040516115bd9190611952565b60006040518083038185875af1925050503d80600081146115fa576040519150601f19603f3d011682016040523d82523d6000602084013e6115ff565b606091505b50915091506116108783838761161b565b979650505050505050565b6060831561168a578251600003611683576001600160a01b0385163b6116835760405162461bcd60e51b815260206004820152601d60248201527f416464726573733a2063616c6c20746f206e6f6e2d636f6e7472616374000000604482015260640161041d565b5081611538565b611538838381511561169f5781518083602001fd5b8060405162461bcd60e51b815260040161041d919061196e565b6000602082840312156116cb57600080fd5b5035919050565b80356001600160a01b0381168114610d6457600080fd5b600080600080600060a0868803121561170157600080fd5b61170a866116d2565b9450611718602087016116d2565b9350611726604087016116d2565b94979396509394606081013594506080013592915050565b60006020828403121561175057600080fd5b611759826116d2565b9392505050565b60008060006060848603121561177557600080fd5b505081359360208301359350604090920135919050565b6000806040838503121561179f57600080fd5b6117a8836116d2565b946020939093013593505050565b801515811461123a57600080fd5b600080604083850312156117d757600080fd5b6117e0836116d2565b915060208301356117f0816117b6565b809150509250929050565b6020808252601d908201527f416d6f756e74206d7573742062652067726561746572207468616e2030000000604082015260600190565b634e487b7160e01b600052601160045260246000fd5b8082018082111561185b5761185b611832565b92915050565b60006020828403121561187357600080fd5b5051919050565b60208082526022908201527f5661756c742068617320696e73756666696369656e74205732522062616c616e604082015261636560f01b606082015260800190565b60208082526022908201527f43616c6c6572206973206e6f7420616e20617070726f76656420636f6e74726160408201526118dd60f21b606082015260800190565b8181038181111561185b5761185b611832565b60006020828403121561192357600080fd5b8151611759816117b6565b60005b83811015611949578181015183820152602001611931565b50506000910152565b6000825161196481846020870161192e565b9190910192915050565b602081526000825180602084015261198d81604085016020870161192e565b601f01601f1916919091016040019291505056fea26469706673582212202251bf94902ba7cb278b490c87fcff452541e68df1e43483a800c578c50c865764736f6c63430008120033",
  "immutableReferences": {},
  "source": "// SPDX-License-Identifier: CC-BY-4.0\npragma solidity ^0.8.0;\n\n//import \"@openzeppelin/contracts/token/ERC20/IERC20.sol\";\n//import \"@openzeppelin/contracts/token/ERC20/utils/SafeERC20.sol\";\n//import \"@openzeppelin/contracts/access/Ownable.sol\";\n//import \"@openzeppelin/contracts/security/ReentrancyGuard.sol\";\nimport \"../node_modules/@openzeppelin/contracts/token/ERC20/IERC20.sol\";\nimport \"../node_modules/@openzeppelin/contracts/token/ERC20/utils/SafeERC20.sol\";\nimport \"../node_modules/@openzeppelin/contracts/access/Ownable.sol\";\nimport \"../node_modules/@openzeppelin/contracts/security/ReentrancyGuard.sol\";\n\n/**\n * @title VaultW2R\n * @author Crypt0zaurus https://www.linkedin.com/in/maxence-a-a82081260\n * @notice This contract serves as a vault for managing the distribution and withdrawal of W2R tokens.\n * @dev The contract uses OpenZeppelin's SafeERC20, Ownable, and IERC20 contracts.\n */\n\ncontract VaultW2R is Ownable, ReentrancyGuard {\n    using SafeERC20 for IERC20;\n    IERC20 public W2R;\n    address public whitelistLenders;\n    address public whitelistRenters;\n\n    mapping(address => bool) private approvedContracts;\n    // incomes\n    mapping(address => mapping(uint => uint)) private w2rIncomes;\n    mapping(address => mapping(uint => uint)) private maticIncomes;\n    // withdrawals\n    mapping(address => mapping(uint => uint)) private w2rWithdraws;\n    mapping(address => mapping(uint => uint)) private maticWithdraws;\n    // distributions\n    mapping(address => mapping(uint => uint)) private w2rDistributions;\n\n    // in case a bikeShare contract is destroyed although rental dispute is still ongoing, deposit is placed here, waiting for the dispute to be resolved\n    mapping(address => DepositsWhenDestroyed) private depositsWhenDestroyed;\n\n    struct DepositsWhenDestroyed {\n        address lenderContractOwner;\n        address renterContract;\n        address renterContractOwner;\n        uint date;\n        uint amount;\n        bool sentToLender;\n        bool sentToRenter;\n    }\n\n    uint public totalDepositsWhenDestroyed;\n\n    event W2RTransferred(\n        address indexed receiver,\n        uint256 amount,\n        uint date,\n        address indexed from\n    );\n    event W2RWithdrawn(address indexed receiver, uint256 amount, uint date);\n    event MaticWithdrawn(address indexed receiver, uint256 amount, uint date);\n    event W2RIncome(address indexed sender, uint256 amount, uint date);\n    event MaticIncome(address indexed sender, uint256 amount, uint date);\n    event ContractApproved(address indexed contractAddress, bool status);\n    event ContractRemoved(address indexed contractAddress);\n\n    /**\n     * @dev Modifier to check the W2R token amount ans allowance for the calling user.\n     * @param amount Amount of LP tokens to check.\n     */\n    modifier checkAllowance(uint amount) {\n        require(\n            W2R.allowance(msg.sender, address(this)) >= amount,\n            \"Need approval for this amount\"\n        );\n        _;\n    }\n\n    /**\n     * @notice Constructs the VaultW2R contract.\n     * @param _w2rToken The address of the W2R token contract.\n     */\n\n    constructor(address _w2rToken) {\n        require(\n            address(_w2rToken) != address(0),\n            \"W2R token address cannot be zero\"\n        );\n\n        W2R = IERC20(_w2rToken);\n    }\n\n    /**\n    @notice A bikeShare contract can be destroyed after 2 days since the end of the rental period, or immediately if there is no rental\n    The wait of 2 days is to give the renter time to return bike in case of delay or dispute\n    After this time, if the lender has not received the bike and want to destroy the bikeShare contract,\n    deposit will be placed here.\n    @notice It's not mandatory to destroy the bikeShare contract, it's in case the lender wants to destroy it: deposit\n    must be saved umtil the dispute is resolved\n    @param _lenderContractOwner The address of the lender contract owner\n    @param _renterContract The address of the renter contract\n    @param _renterContractOwner The address of the renter contract owner\n    @param _date The date of the deposit\n    @param _amount The amount of the deposit\n    */\n    function receiveDepositsWhenDestroyed(\n        address _lenderContractOwner,\n        address _renterContract,\n        address _renterContractOwner,\n        uint _date,\n        uint _amount\n    ) external {\n        require(\n            approvedContracts[msg.sender],\n            \"Caller is not an approved contract\"\n        );\n        require(\n            _lenderContractOwner != address(0) &&\n                _renterContract != address(0) &&\n                _renterContractOwner != address(0)\n        );\n        require(_date > 0 && _amount > 0);\n        depositsWhenDestroyed[msg.sender] = DepositsWhenDestroyed(\n            _lenderContractOwner,\n            _renterContract,\n            _renterContractOwner,\n            _date,\n            _amount,\n            false,\n            false\n        );\n        totalDepositsWhenDestroyed += _amount;\n    }\n\n    /**\n    @notice Send deposit to either lender or renter.\n    @param _lender The address of the lender.\n    @param _sentToLender Set to true if deposit is to be sent to the lender, false if it is to be sent to the renter.\n    This function is only callable by the owner of the contract.\n    It first checks if the lender address is not zero and if the deposit has not been sent yet.\n    Then it checks if the deposit exists and updates the deposit status based on the _sentToLender parameter.\n    Finally, it updates the totalDepositsWhenDestroyed and transfers the deposit amount to the appropriate recipient.\n    */\n    function sentDeposit(\n        address _lender,\n        bool _sentToLender\n    ) external onlyOwner {\n        require(_lender != address(0), \"Lender address cannot be zero\");\n        DepositsWhenDestroyed storage deposit = depositsWhenDestroyed[_lender];\n        require(\n            deposit.sentToLender == false && deposit.sentToRenter == false,\n            \"Deposit already sent\"\n        );\n        require(deposit.date > 0 && deposit.amount > 0, \"Deposit not found\");\n        require(\n            deposit.lenderContractOwner != address(0) &&\n                deposit.renterContract != address(0) &&\n                deposit.renterContractOwner != address(0),\n            \"Deposit not found\"\n        );\n        _sentToLender\n            ? deposit.sentToLender = true\n            : deposit.sentToRenter = true;\n        totalDepositsWhenDestroyed -= deposit.amount;\n        _sentToLender\n            ? W2R.safeTransfer(deposit.lenderContractOwner, deposit.amount)\n            : W2R.safeTransfer(deposit.renterContractOwner, deposit.amount);\n    }\n\n    /**\n     * @notice Sets the WhitelistLenders contract address.\n     * @param _whitelistLenders The address of the WhitelistLenders contract.\n     */\n\n    function setWhitelistLenders(address _whitelistLenders) external onlyOwner {\n        require(\n            _whitelistLenders != address(0),\n            \"WhitelistLenders address cannot be zero\"\n        );\n        // authorize the whitelistLender contract to approve child contracts\n        whitelistLenders = _whitelistLenders;\n    }\n\n    /**\n     * @notice Sets the WhitelistRenters contract address.\n     * @param _whitelistRenters The address of the WhitelistRenters contract.\n     */\n\n    function setWhitelistRenters(address _whitelistRenters) external onlyOwner {\n        require(\n            _whitelistRenters != address(0),\n            \"WhitelistRenters address cannot be zero\"\n        );\n        // authorize the whitelistRenter contract to approve child contracts\n        whitelistRenters = _whitelistRenters;\n    }\n\n    /**\n     * @notice Approves or disapproves a contract address.\n     * @param contractAddress The address of the contract to be approved or disapproved.\n     * @param status The approval status to be set, true for approved and false for disapproved.\n     */\n\n    function setApprovedContract(\n        address contractAddress,\n        bool status\n    ) external {\n        require(\n            msg.sender == whitelistLenders ||\n                msg.sender == whitelistRenters ||\n                msg.sender == owner(),\n            \"Caller is not an approved contract\"\n        );\n        require(\n            contractAddress != address(this),\n            \"Cannot add self to approved contracts\"\n        );\n        approvedContracts[contractAddress] = status;\n        emit ContractApproved(contractAddress, status);\n    }\n\n    /**\n     * @notice Removes an approved contract address.\n     * @param contractAddress The address of the contract to be removed.\n     * @return A boolean value indicating whether the contract was successfully removed.\n     */\n\n    function removeApprovedContract(\n        address contractAddress\n    ) external returns (bool) {\n        require(\n            msg.sender == whitelistLenders ||\n                msg.sender == whitelistRenters ||\n                msg.sender == owner(),\n            \"Caller is not an approved contract\"\n        );\n        require(approvedContracts[contractAddress], \"Contract is not approved\");\n        require(\n            contractAddress != address(this),\n            \"Cannot remove self from approved contracts\"\n        );\n        delete approvedContracts[contractAddress];\n        emit ContractRemoved(contractAddress);\n        return true;\n    }\n\n    /**\n     * @notice Gets the approval status of a contract address.\n     * @param contractAddress The address of the contract.\n     * @return A boolean value indicating whether the contract is approved.\n     */\n\n    function getApprovedContract(\n        address contractAddress\n    ) external view onlyOwner returns (bool) {\n        return approvedContracts[contractAddress];\n    }\n\n    /**\n     * @notice Distributes W2R tokens to a specified receiver.\n     * @param receiver The address of the recipient.\n     * @param amount The amount of W2R tokens to be distributed.\n     */\n\n    function distributeW2R(address receiver, uint256 amount) external {\n        require(\n            approvedContracts[msg.sender],\n            \"Caller is not an approved contract\"\n        );\n        require(amount > 0, \"Amount must be greater than 0\");\n        require(\n            W2R.balanceOf(address(this)) >= amount + totalDepositsWhenDestroyed,\n            \"Vault has insufficient W2R balance\"\n        );\n        w2rDistributions[receiver][block.timestamp] = amount;\n        W2R.safeTransfer(receiver, amount);\n        emit W2RTransferred(receiver, amount, block.timestamp, msg.sender);\n    }\n\n    /**\n     * @notice Withdraws W2R tokens from the contract to the owner's address.\n     * @param amount The amount of W2R tokens to be withdrawn.\n     */\n\n    function withdrawW2R(uint amount) external onlyOwner {\n        require(amount > 0, \"Amount must be greater than 0\");\n        require(\n            W2R.balanceOf(address(this)) >= amount + totalDepositsWhenDestroyed,\n            \"Vault has insufficient W2R balance\"\n        );\n        w2rWithdraws[msg.sender][block.timestamp] = amount;\n        W2R.safeTransfer(msg.sender, amount);\n        emit W2RWithdrawn(msg.sender, amount, block.timestamp);\n    }\n\n    /**\n     * @notice Withdraws Matic tokens from the contract to the owner's address.\n     * @param amount The amount of Matic tokens to be withdrawn.\n     */\n\n    function withdrawMatic(uint amount) external onlyOwner nonReentrant {\n        require(amount > 0, \"Amount must be greater than 0\");\n        require(\n            address(this).balance >= amount,\n            \"Vault has insufficient Matic balance\"\n        );\n        (bool success, ) = payable(msg.sender).call{value: amount}(\"\");\n        require(success, \"Failed to withdraw fees\");\n        maticWithdraws[msg.sender][block.timestamp] = amount;\n        emit MaticWithdrawn(msg.sender, amount, block.timestamp);\n    }\n\n    /**\n     * @notice Updates the Matic and W2R incomes for the given date.\n     * @dev Only the contract owner or approved contracts can call this function.\n     * @param _maticIncome The amount of Matic income to be updated.\n     * @param _w2rIncome The amount of W2R income to be updated.\n     * @param _date The date for which the incomes should be updated, represented as a Unix timestamp.\n     */\n\n    function updateIncomes(\n        uint _maticIncome,\n        uint _w2rIncome,\n        uint _date\n    ) public {\n        require(\n            approvedContracts[msg.sender] || msg.sender == owner(),\n            \"Caller is not approved\"\n        );\n        require(_maticIncome > 0 || _w2rIncome > 0, \"Nothing to update\");\n        if (_maticIncome > 0) {\n            maticIncomes[msg.sender][_date] = _maticIncome;\n            emit MaticIncome(msg.sender, _maticIncome, _date);\n        }\n        if (_w2rIncome > 0) {\n            w2rIncomes[msg.sender][_date] = _w2rIncome;\n            emit W2RIncome(msg.sender, _w2rIncome, _date);\n        }\n    }\n\n    /**\n     * @notice Deposits W2R tokens to the contract.\n     * @dev Only the contract owner can call this function, and the owner's W2R token allowance must be sufficient.\n     * @param _amount The amount of W2R tokens to deposit.\n     */\n\n    function depositW2R(\n        uint _amount\n    ) external onlyOwner checkAllowance(_amount) {\n        require(_amount > 0, \"Amount must be greater than zero\");\n        updateIncomes(0, _amount, block.timestamp);\n        W2R.safeTransferFrom(msg.sender, address(this), _amount);\n    }\n\n    /**\n     * @dev Fallback function to receive Matic payments.\n     * @notice This function is called when the contract receives Matic tokens and updates the income.\n     */\n\n    receive() external payable {\n        updateIncomes(msg.value, 0, block.timestamp);\n    }\n}\n",
  "sourcePath": "/Users/harbinger/Dropbox/Dossier familial/Formation Blockchain/Alyra/Projet Certification/Projet Alyra 2Wheels2Rent/truffle/contracts/VaultW2R.sol",
  "compiler": {
    "name": "solc",
    "version": "0.8.18+commit.87f61d96.Emscripten.clang"
  },
  "schemaVersion": "3.4.12",
  "updatedAt": "2023-05-07T15:50:19.826Z",
  "networkType": "ethereum",
  "devdoc": {
    "author": "Crypt0zaurus https://www.linkedin.com/in/maxence-a-a82081260",
    "details": "The contract uses OpenZeppelin's SafeERC20, Ownable, and IERC20 contracts.",
    "kind": "dev",
    "methods": {
      "constructor": {
        "params": {
          "_w2rToken": "The address of the W2R token contract."
        }
      },
      "depositW2R(uint256)": {
        "details": "Only the contract owner can call this function, and the owner's W2R token allowance must be sufficient.",
        "params": {
          "_amount": "The amount of W2R tokens to deposit."
        }
      },
      "distributeW2R(address,uint256)": {
        "params": {
          "amount": "The amount of W2R tokens to be distributed.",
          "receiver": "The address of the recipient."
        }
      },
      "getApprovedContract(address)": {
        "params": {
          "contractAddress": "The address of the contract."
        },
        "returns": {
          "_0": "A boolean value indicating whether the contract is approved."
        }
      },
      "owner()": {
        "details": "Returns the address of the current owner."
      },
      "receiveDepositsWhenDestroyed(address,address,address,uint256,uint256)": {
        "params": {
          "_amount": "The amount of the deposit",
          "_date": "The date of the deposit",
          "_lenderContractOwner": "The address of the lender contract owner",
          "_renterContract": "The address of the renter contract",
          "_renterContractOwner": "The address of the renter contract owner"
        }
      },
      "removeApprovedContract(address)": {
        "params": {
          "contractAddress": "The address of the contract to be removed."
        },
        "returns": {
          "_0": "A boolean value indicating whether the contract was successfully removed."
        }
      },
      "renounceOwnership()": {
        "details": "Leaves the contract without owner. It will not be possible to call `onlyOwner` functions anymore. Can only be called by the current owner. NOTE: Renouncing ownership will leave the contract without an owner, thereby removing any functionality that is only available to the owner."
      },
      "sentDeposit(address,bool)": {
        "params": {
          "_lender": "The address of the lender.",
          "_sentToLender": "Set to true if deposit is to be sent to the lender, false if it is to be sent to the renter. This function is only callable by the owner of the contract. It first checks if the lender address is not zero and if the deposit has not been sent yet. Then it checks if the deposit exists and updates the deposit status based on the _sentToLender parameter. Finally, it updates the totalDepositsWhenDestroyed and transfers the deposit amount to the appropriate recipient."
        }
      },
      "setApprovedContract(address,bool)": {
        "params": {
          "contractAddress": "The address of the contract to be approved or disapproved.",
          "status": "The approval status to be set, true for approved and false for disapproved."
        }
      },
      "setWhitelistLenders(address)": {
        "params": {
          "_whitelistLenders": "The address of the WhitelistLenders contract."
        }
      },
      "setWhitelistRenters(address)": {
        "params": {
          "_whitelistRenters": "The address of the WhitelistRenters contract."
        }
      },
      "transferOwnership(address)": {
        "details": "Transfers ownership of the contract to a new account (`newOwner`). Can only be called by the current owner."
      },
      "updateIncomes(uint256,uint256,uint256)": {
        "details": "Only the contract owner or approved contracts can call this function.",
        "params": {
          "_date": "The date for which the incomes should be updated, represented as a Unix timestamp.",
          "_maticIncome": "The amount of Matic income to be updated.",
          "_w2rIncome": "The amount of W2R income to be updated."
        }
      },
      "withdrawMatic(uint256)": {
        "params": {
          "amount": "The amount of Matic tokens to be withdrawn."
        }
      },
      "withdrawW2R(uint256)": {
        "params": {
          "amount": "The amount of W2R tokens to be withdrawn."
        }
      }
    },
    "title": "VaultW2R",
    "version": 1
  },
  "userdoc": {
    "kind": "user",
    "methods": {
      "constructor": {
        "notice": "Constructs the VaultW2R contract."
      },
      "depositW2R(uint256)": {
        "notice": "Deposits W2R tokens to the contract."
      },
      "distributeW2R(address,uint256)": {
        "notice": "Distributes W2R tokens to a specified receiver."
      },
      "getApprovedContract(address)": {
        "notice": "Gets the approval status of a contract address."
      },
      "receiveDepositsWhenDestroyed(address,address,address,uint256,uint256)": {
        "notice": "A bikeShare contract can be destroyed after 2 days since the end of the rental period, or immediately if there is no rental The wait of 2 days is to give the renter time to return bike in case of delay or dispute After this time, if the lender has not received the bike and want to destroy the bikeShare contract, deposit will be placed here.It's not mandatory to destroy the bikeShare contract, it's in case the lender wants to destroy it: deposit must be saved umtil the dispute is resolved"
      },
      "removeApprovedContract(address)": {
        "notice": "Removes an approved contract address."
      },
      "sentDeposit(address,bool)": {
        "notice": "Send deposit to either lender or renter."
      },
      "setApprovedContract(address,bool)": {
        "notice": "Approves or disapproves a contract address."
      },
      "setWhitelistLenders(address)": {
        "notice": "Sets the WhitelistLenders contract address."
      },
      "setWhitelistRenters(address)": {
        "notice": "Sets the WhitelistRenters contract address."
      },
      "updateIncomes(uint256,uint256,uint256)": {
        "notice": "Updates the Matic and W2R incomes for the given date."
      },
      "withdrawMatic(uint256)": {
        "notice": "Withdraws Matic tokens from the contract to the owner's address."
      },
      "withdrawW2R(uint256)": {
        "notice": "Withdraws W2R tokens from the contract to the owner's address."
      }
    },
    "notice": "This contract serves as a vault for managing the distribution and withdrawal of W2R tokens.",
    "version": 1
  }
}