{
  "contractName": "VaultW2R",
  "abi": [
    {
      "inputs": [
        {
          "internalType": "address",
          "name": "_w2rToken",
          "type": "address"
        }
      ],
      "stateMutability": "nonpayable",
      "type": "constructor"
    },
    {
      "anonymous": false,
      "inputs": [
        {
          "indexed": true,
          "internalType": "address",
          "name": "contractAddress",
          "type": "address"
        },
        {
          "indexed": false,
          "internalType": "bool",
          "name": "status",
          "type": "bool"
        }
      ],
      "name": "ContractApproved",
      "type": "event"
    },
    {
      "anonymous": false,
      "inputs": [
        {
          "indexed": true,
          "internalType": "address",
          "name": "contractAddress",
          "type": "address"
        }
      ],
      "name": "ContractRemoved",
      "type": "event"
    },
    {
      "anonymous": false,
      "inputs": [
        {
          "indexed": true,
          "internalType": "address",
          "name": "previousOwner",
          "type": "address"
        },
        {
          "indexed": true,
          "internalType": "address",
          "name": "newOwner",
          "type": "address"
        }
      ],
      "name": "OwnershipTransferred",
      "type": "event"
    },
    {
      "anonymous": false,
      "inputs": [
        {
          "indexed": true,
          "internalType": "address",
          "name": "receiver",
          "type": "address"
        },
        {
          "indexed": false,
          "internalType": "uint256",
          "name": "amount",
          "type": "uint256"
        }
      ],
      "name": "W2RTransferred",
      "type": "event"
    },
    {
      "anonymous": false,
      "inputs": [
        {
          "indexed": true,
          "internalType": "address",
          "name": "receiver",
          "type": "address"
        },
        {
          "indexed": false,
          "internalType": "uint256",
          "name": "amount",
          "type": "uint256"
        }
      ],
      "name": "W2RWithdrawn",
      "type": "event"
    },
    {
      "inputs": [],
      "name": "W2R",
      "outputs": [
        {
          "internalType": "contract IERC20",
          "name": "",
          "type": "address"
        }
      ],
      "stateMutability": "view",
      "type": "function",
      "constant": true
    },
    {
      "inputs": [],
      "name": "owner",
      "outputs": [
        {
          "internalType": "address",
          "name": "",
          "type": "address"
        }
      ],
      "stateMutability": "view",
      "type": "function",
      "constant": true
    },
    {
      "inputs": [],
      "name": "renounceOwnership",
      "outputs": [],
      "stateMutability": "nonpayable",
      "type": "function"
    },
    {
      "inputs": [],
      "name": "totalDepositsWhenDestroyed",
      "outputs": [
        {
          "internalType": "uint256",
          "name": "",
          "type": "uint256"
        }
      ],
      "stateMutability": "view",
      "type": "function",
      "constant": true
    },
    {
      "inputs": [
        {
          "internalType": "address",
          "name": "newOwner",
          "type": "address"
        }
      ],
      "name": "transferOwnership",
      "outputs": [],
      "stateMutability": "nonpayable",
      "type": "function"
    },
    {
      "inputs": [],
      "name": "whitelistLenders",
      "outputs": [
        {
          "internalType": "address",
          "name": "",
          "type": "address"
        }
      ],
      "stateMutability": "view",
      "type": "function",
      "constant": true
    },
    {
      "inputs": [],
      "name": "whitelistRenters",
      "outputs": [
        {
          "internalType": "address",
          "name": "",
          "type": "address"
        }
      ],
      "stateMutability": "view",
      "type": "function",
      "constant": true
    },
    {
      "inputs": [
        {
          "internalType": "address",
          "name": "_lenderContractOwner",
          "type": "address"
        },
        {
          "internalType": "address",
          "name": "_renterContract",
          "type": "address"
        },
        {
          "internalType": "address",
          "name": "_renterContractOwner",
          "type": "address"
        },
        {
          "internalType": "uint256",
          "name": "_date",
          "type": "uint256"
        },
        {
          "internalType": "uint256",
          "name": "_amount",
          "type": "uint256"
        }
      ],
      "name": "receiveDepositsWhenDestroyed",
      "outputs": [],
      "stateMutability": "nonpayable",
      "type": "function"
    },
    {
      "inputs": [
        {
          "internalType": "address",
          "name": "_lender",
          "type": "address"
        },
        {
          "internalType": "bool",
          "name": "_sentToLender",
          "type": "bool"
        }
      ],
      "name": "sentDeposit",
      "outputs": [],
      "stateMutability": "nonpayable",
      "type": "function"
    },
    {
      "inputs": [
        {
          "internalType": "address",
          "name": "_whitelistLenders",
          "type": "address"
        }
      ],
      "name": "setWhitelistLenders",
      "outputs": [],
      "stateMutability": "nonpayable",
      "type": "function"
    },
    {
      "inputs": [
        {
          "internalType": "address",
          "name": "_whitelistRenters",
          "type": "address"
        }
      ],
      "name": "setWhitelistRenters",
      "outputs": [],
      "stateMutability": "nonpayable",
      "type": "function"
    },
    {
      "inputs": [
        {
          "internalType": "address",
          "name": "contractAddress",
          "type": "address"
        },
        {
          "internalType": "bool",
          "name": "status",
          "type": "bool"
        }
      ],
      "name": "setApprovedContract",
      "outputs": [],
      "stateMutability": "nonpayable",
      "type": "function"
    },
    {
      "inputs": [
        {
          "internalType": "address",
          "name": "contractAddress",
          "type": "address"
        }
      ],
      "name": "removeApprovedContract",
      "outputs": [
        {
          "internalType": "bool",
          "name": "",
          "type": "bool"
        }
      ],
      "stateMutability": "nonpayable",
      "type": "function"
    },
    {
      "inputs": [
        {
          "internalType": "address",
          "name": "contractAddress",
          "type": "address"
        }
      ],
      "name": "getApprovedContract",
      "outputs": [
        {
          "internalType": "bool",
          "name": "",
          "type": "bool"
        }
      ],
      "stateMutability": "view",
      "type": "function",
      "constant": true
    },
    {
      "inputs": [
        {
          "internalType": "address",
          "name": "receiver",
          "type": "address"
        },
        {
          "internalType": "uint256",
          "name": "amount",
          "type": "uint256"
        }
      ],
      "name": "distributeW2R",
      "outputs": [],
      "stateMutability": "nonpayable",
      "type": "function"
    },
    {
      "inputs": [
        {
          "internalType": "uint256",
          "name": "amount",
          "type": "uint256"
        }
      ],
      "name": "withdrawW2R",
      "outputs": [],
      "stateMutability": "nonpayable",
      "type": "function"
    }
  ],
  "bytecode": "0x608060405234801561001057600080fd5b5060405161148538038061148583398101604081905261002f91610107565b610038336100b7565b6001600160a01b0381166100925760405162461bcd60e51b815260206004820181905260248201527f57325220746f6b656e20616464726573732063616e6e6f74206265207a65726f604482015260640160405180910390fd5b600180546001600160a01b0319166001600160a01b0392909216919091179055610137565b600080546001600160a01b038381166001600160a01b0319831681178455604051919092169283917f8be0079c531659141344cd1fd0a4f28419497f9722a3daafe3b4186f6b6457e09190a35050565b60006020828403121561011957600080fd5b81516001600160a01b038116811461013057600080fd5b9392505050565b61133f806101466000396000f3fe608060405234801561001057600080fd5b50600436106101005760003560e01c80637a0e4035116100975780639eea2279116100665780639eea22791461020f578063cd7b6a9f14610222578063f192e8d014610235578063f2fde38b1461024857600080fd5b80637a0e40351461019d578063845977f5146101c05780638da5cb5b146101eb5780638f036072146101fc57600080fd5b80634aba47ae116100d35780634aba47ae1461015c5780635ffd993b1461016f57806370b935c614610182578063715018a61461019557600080fd5b80631578284a14610105578063293e30191461011a5780632e1f47891461012d57806331babd8b14610149575b600080fd5b610118610113366004611084565b61025b565b005b6101186101283660046110b4565b61039e565b61013660065481565b6040519081526020015b60405180910390f35b610118610157366004611109565b61050e565b61011861016a36600461112b565b61059e565b61011861017d366004611163565b610705565b610118610190366004611163565b610817565b610118610a64565b6101b06101ab366004611109565b610a78565b6040519015158152602001610140565b6002546101d3906001600160a01b031681565b6040516001600160a01b039091168152602001610140565b6000546001600160a01b03166101d3565b6001546101d3906001600160a01b031681565b6101b061021d366004611109565b610aa5565b610118610230366004611109565b610c1d565b6003546101d3906001600160a01b031681565b610118610256366004611109565b610cad565b610263610d26565b600081116102b85760405162461bcd60e51b815260206004820152601d60248201527f416d6f756e74206d7573742062652067726561746572207468616e203000000060448201526064015b60405180910390fd5b6006546102c590826111b0565b6001546040516370a0823160e01b81523060048201526001600160a01b03909116906370a0823190602401602060405180830381865afa15801561030d573d6000803e3d6000fd5b505050506040513d601f19601f8201168201806040525081019061033191906111c9565b101561034f5760405162461bcd60e51b81526004016102af906111e2565b600154610366906001600160a01b03163383610d80565b60405181815233907f09cbd8358db903b45ad50926a3d56db454311693921f2c54e362c7810d1f21f19060200160405180910390a250565b3360009081526004602052604090205460ff166103cd5760405162461bcd60e51b81526004016102af90611224565b6001600160a01b038516158015906103ed57506001600160a01b03841615155b801561040157506001600160a01b03831615155b61040a57600080fd5b60008211801561041a5750600081115b61042357600080fd5b6040805160e0810182526001600160a01b03878116825286811660208084019182528783168486019081526060850188815260808601888152600060a0880181815260c08901828152338352600596879052998220985189546001600160a01b0319908116918a16919091178a55965160018a0180548916918a16919091179055935160028901805490971697169690961790945551600386015591516004850155905192018054935161ffff1990941692151561ff0019169290921761010093151593909302929092179055600680548392906105029084906111b0565b90915550505050505050565b610516610d26565b6001600160a01b03811661057c5760405162461bcd60e51b815260206004820152602760248201527f57686974656c69737452656e7465727320616464726573732063616e6e6f74206044820152666265207a65726f60c81b60648201526084016102af565b600380546001600160a01b0319166001600160a01b0392909216919091179055565b3360009081526004602052604090205460ff166105cd5760405162461bcd60e51b81526004016102af90611224565b6000811161061d5760405162461bcd60e51b815260206004820152601d60248201527f416d6f756e74206d7573742062652067726561746572207468616e203000000060448201526064016102af565b6001546040516370a0823160e01b815230600482015282916001600160a01b0316906370a0823190602401602060405180830381865afa158015610665573d6000803e3d6000fd5b505050506040513d601f19601f8201168201806040525081019061068991906111c9565b10156106a75760405162461bcd60e51b81526004016102af906111e2565b6001546106be906001600160a01b03168383610d80565b816001600160a01b03167f6a1dfbe4782732376da4ef50f66045bc4d94e8b78f7d415a5ee730630e0beba9826040516106f991815260200190565b60405180910390a25050565b6002546001600160a01b031633148061072857506003546001600160a01b031633145b8061073d57506000546001600160a01b031633145b6107595760405162461bcd60e51b81526004016102af90611224565b306001600160a01b038316036107bf5760405162461bcd60e51b815260206004820152602560248201527f43616e6e6f74206164642073656c6620746f20617070726f76656420636f6e74604482015264726163747360d81b60648201526084016102af565b6001600160a01b038216600081815260046020908152604091829020805460ff191685151590811790915591519182527f2f5b19bb75097659707b1df69ba629ec7e5acfe3f775e362b8750d854037de0291016106f9565b61081f610d26565b6001600160a01b0382166108755760405162461bcd60e51b815260206004820152601d60248201527f4c656e64657220616464726573732063616e6e6f74206265207a65726f00000060448201526064016102af565b6001600160a01b03821660009081526005602081905260409091209081015460ff161580156108ae57506005810154610100900460ff16155b6108f15760405162461bcd60e51b815260206004820152601460248201527311195c1bdcda5d08185b1c9958591e481cd95b9d60621b60448201526064016102af565b60008160030154118015610909575060008160040154115b6109495760405162461bcd60e51b815260206004820152601160248201527011195c1bdcda5d081b9bdd08199bdd5b99607a1b60448201526064016102af565b80546001600160a01b03161580159061096e575060018101546001600160a01b031615155b8015610986575060028101546001600160a01b031615155b6109c65760405162461bcd60e51b815260206004820152601160248201527011195c1bdcda5d081b9bdd08199bdd5b99607a1b60448201526064016102af565b816109e35760058101805461ff00191661010017905560016109f6565b60058101805460ff191660019081179091555b50806004015460066000828254610a0d9190611266565b90915550829050610a425760028101546004820154600154610a3d926001600160a01b0391821692911690610d80565b505050565b80546004820154600154610a3d926001600160a01b0391821692911690610d80565b610a6c610d26565b610a766000610dd2565b565b6000610a82610d26565b506001600160a01b03811660009081526004602052604090205460ff165b919050565b6002546000906001600160a01b0316331480610acb57506003546001600160a01b031633145b80610ae057506000546001600160a01b031633145b610afc5760405162461bcd60e51b81526004016102af90611224565b6001600160a01b03821660009081526004602052604090205460ff16610b645760405162461bcd60e51b815260206004820152601860248201527f436f6e7472616374206973206e6f7420617070726f766564000000000000000060448201526064016102af565b306001600160a01b03831603610bcf5760405162461bcd60e51b815260206004820152602a60248201527f43616e6e6f742072656d6f76652073656c662066726f6d20617070726f76656460448201526920636f6e74726163747360b01b60648201526084016102af565b6001600160a01b038216600081815260046020526040808220805460ff19169055517f8d30d41865a0b811b9545d879520d2dde9f4cc49e4241f486ad9752bc904b5659190a2506001919050565b610c25610d26565b6001600160a01b038116610c8b5760405162461bcd60e51b815260206004820152602760248201527f57686974656c6973744c656e6465727320616464726573732063616e6e6f74206044820152666265207a65726f60c81b60648201526084016102af565b600280546001600160a01b0319166001600160a01b0392909216919091179055565b610cb5610d26565b6001600160a01b038116610d1a5760405162461bcd60e51b815260206004820152602660248201527f4f776e61626c653a206e6577206f776e657220697320746865207a65726f206160448201526564647265737360d01b60648201526084016102af565b610d2381610dd2565b50565b6000546001600160a01b03163314610a765760405162461bcd60e51b815260206004820181905260248201527f4f776e61626c653a2063616c6c6572206973206e6f7420746865206f776e657260448201526064016102af565b604080516001600160a01b038416602482015260448082018490528251808303909101815260649091019091526020810180516001600160e01b031663a9059cbb60e01b179052610a3d908490610e22565b600080546001600160a01b038381166001600160a01b0319831681178455604051919092169283917f8be0079c531659141344cd1fd0a4f28419497f9722a3daafe3b4186f6b6457e09190a35050565b6000610e77826040518060400160405280602081526020017f5361666545524332303a206c6f772d6c6576656c2063616c6c206661696c6564815250856001600160a01b0316610ef49092919063ffffffff16565b805190915015610a3d5780806020019051810190610e959190611279565b610a3d5760405162461bcd60e51b815260206004820152602a60248201527f5361666545524332303a204552433230206f7065726174696f6e20646964206e6044820152691bdd081cdd58d8d9595960b21b60648201526084016102af565b6060610f038484600085610f0b565b949350505050565b606082471015610f6c5760405162461bcd60e51b815260206004820152602660248201527f416464726573733a20696e73756666696369656e742062616c616e636520666f6044820152651c8818d85b1b60d21b60648201526084016102af565b600080866001600160a01b03168587604051610f8891906112ba565b60006040518083038185875af1925050503d8060008114610fc5576040519150601f19603f3d011682016040523d82523d6000602084013e610fca565b606091505b5091509150610fdb87838387610fe6565b979650505050505050565b6060831561105557825160000361104e576001600160a01b0385163b61104e5760405162461bcd60e51b815260206004820152601d60248201527f416464726573733a2063616c6c20746f206e6f6e2d636f6e747261637400000060448201526064016102af565b5081610f03565b610f03838381511561106a5781518083602001fd5b8060405162461bcd60e51b81526004016102af91906112d6565b60006020828403121561109657600080fd5b5035919050565b80356001600160a01b0381168114610aa057600080fd5b600080600080600060a086880312156110cc57600080fd5b6110d58661109d565b94506110e36020870161109d565b93506110f16040870161109d565b94979396509394606081013594506080013592915050565b60006020828403121561111b57600080fd5b6111248261109d565b9392505050565b6000806040838503121561113e57600080fd5b6111478361109d565b946020939093013593505050565b8015158114610d2357600080fd5b6000806040838503121561117657600080fd5b61117f8361109d565b9150602083013561118f81611155565b809150509250929050565b634e487b7160e01b600052601160045260246000fd5b808201808211156111c3576111c361119a565b92915050565b6000602082840312156111db57600080fd5b5051919050565b60208082526022908201527f5661756c742068617320696e73756666696369656e74205732522062616c616e604082015261636560f01b606082015260800190565b60208082526022908201527f43616c6c6572206973206e6f7420616e20617070726f76656420636f6e74726160408201526118dd60f21b606082015260800190565b818103818111156111c3576111c361119a565b60006020828403121561128b57600080fd5b815161112481611155565b60005b838110156112b1578181015183820152602001611299565b50506000910152565b600082516112cc818460208701611296565b9190910192915050565b60208152600082518060208401526112f5816040850160208701611296565b601f01601f1916919091016040019291505056fea2646970667358221220d8b628927415026a474a05939d16a098c72fe540c74ac7c03b9b6ea063503f9b64736f6c63430008120033",
  "immutableReferences": {},
  "source": "// SPDX-License-Identifier: CC-BY-4.0\npragma solidity ^0.8.0;\n\n//import \"@openzeppelin/contracts/token/ERC20/IERC20.sol\";\n//import \"@openzeppelin/contracts/token/ERC20/utils/SafeERC20.sol\";\n//import \"@openzeppelin/contracts/access/Ownable.sol\";\nimport \"../node_modules/@openzeppelin/contracts/token/ERC20/IERC20.sol\";\nimport \"../node_modules/@openzeppelin/contracts/token/ERC20/utils/SafeERC20.sol\";\nimport \"../node_modules/@openzeppelin/contracts/access/Ownable.sol\";\n\n/**\n * @title VaultW2R\n * @notice This contract serves as a vault for managing the distribution and withdrawal of W2R tokens.\n * @dev The contract uses OpenZeppelin's SafeERC20, Ownable, and IERC20 contracts.\n */\n\ncontract VaultW2R is Ownable {\n    using SafeERC20 for IERC20;\n    IERC20 public W2R;\n    address public whitelistLenders;\n    address public whitelistRenters;\n\n    mapping(address => bool) private approvedContracts;\n\n    // in case a bikeShare contract is destroyed although rental dispute is still ongoing, deposit is placed here, waiting for the dispute to be resolved\n    mapping(address => DepositsWhenDestroyed) private depositsWhenDestroyed;\n\n    struct DepositsWhenDestroyed {\n        address lenderContractOwner;\n        address renterContract;\n        address renterContractOwner;\n        uint date;\n        uint amount;\n        bool sentToLender;\n        bool sentToRenter;\n    }\n\n    uint public totalDepositsWhenDestroyed;\n\n    event W2RTransferred(address indexed receiver, uint256 amount);\n    event W2RWithdrawn(address indexed receiver, uint256 amount);\n    event ContractApproved(address indexed contractAddress, bool status);\n    event ContractRemoved(address indexed contractAddress);\n\n    /**\n     * @notice Constructs the VaultW2R contract.\n     * @param _w2rToken The address of the W2R token contract.\n     */\n\n    constructor(address _w2rToken) {\n        require(\n            address(_w2rToken) != address(0),\n            \"W2R token address cannot be zero\"\n        );\n\n        W2R = IERC20(_w2rToken);\n    }\n\n    /**\n    @notice A bikeShare contract can be destroyed after 2 days since the end of the rental period, or immediately if there is no rental\n    The wait of 2 days is to give the renter time to return bike in case of delay or dispute\n    After this time, if the lender has not received the bike and want to destroy the bikeShare contract,\n    deposit will be placed here.\n    @notice It's not mandatory to destroy the bikeShare contract, it's in case the lender wants to destroy it: deposit\n    must be saved umtil the dispute is resolved\n    @param _lenderContractOwner The address of the lender contract owner\n    @param _renterContract The address of the renter contract\n    @param _renterContractOwner The address of the renter contract owner\n    @param _date The date of the deposit\n    @param _amount The amount of the deposit\n    */\n    function receiveDepositsWhenDestroyed(\n        address _lenderContractOwner,\n        address _renterContract,\n        address _renterContractOwner,\n        uint _date,\n        uint _amount\n    ) external {\n        require(\n            approvedContracts[msg.sender],\n            \"Caller is not an approved contract\"\n        );\n        require(\n            _lenderContractOwner != address(0) &&\n                _renterContract != address(0) &&\n                _renterContractOwner != address(0)\n        );\n        require(_date > 0 && _amount > 0);\n        depositsWhenDestroyed[msg.sender] = DepositsWhenDestroyed(\n            _lenderContractOwner,\n            _renterContract,\n            _renterContractOwner,\n            _date,\n            _amount,\n            false,\n            false\n        );\n        totalDepositsWhenDestroyed += _amount;\n    }\n\n    /**\n    @notice Send deposit to either lender or renter.\n    @param _lender The address of the lender.\n    @param _sentToLender Set to true if deposit is to be sent to the lender, false if it is to be sent to the renter.\n    This function is only callable by the owner of the contract.\n    It first checks if the lender address is not zero and if the deposit has not been sent yet.\n    Then it checks if the deposit exists and updates the deposit status based on the _sentToLender parameter.\n    Finally, it updates the totalDepositsWhenDestroyed and transfers the deposit amount to the appropriate recipient.\n    */\n    function sentDeposit(\n        address _lender,\n        bool _sentToLender\n    ) external onlyOwner {\n        require(_lender != address(0), \"Lender address cannot be zero\");\n        DepositsWhenDestroyed storage deposit = depositsWhenDestroyed[_lender];\n        require(\n            deposit.sentToLender == false && deposit.sentToRenter == false,\n            \"Deposit already sent\"\n        );\n        require(deposit.date > 0 && deposit.amount > 0, \"Deposit not found\");\n        require(\n            deposit.lenderContractOwner != address(0) &&\n                deposit.renterContract != address(0) &&\n                deposit.renterContractOwner != address(0),\n            \"Deposit not found\"\n        );\n        _sentToLender\n            ? deposit.sentToLender = true\n            : deposit.sentToRenter = true;\n        totalDepositsWhenDestroyed -= deposit.amount;\n        _sentToLender\n            ? W2R.safeTransfer(deposit.lenderContractOwner, deposit.amount)\n            : W2R.safeTransfer(deposit.renterContractOwner, deposit.amount);\n    }\n\n    /**\n     * @notice Sets the WhitelistLenders contract address.\n     * @param _whitelistLenders The address of the WhitelistLenders contract.\n     */\n\n    function setWhitelistLenders(address _whitelistLenders) external onlyOwner {\n        require(\n            _whitelistLenders != address(0),\n            \"WhitelistLenders address cannot be zero\"\n        );\n        // authorize the whitelistLender contract to approve child contracts\n        whitelistLenders = _whitelistLenders;\n    }\n\n    /**\n     * @notice Sets the WhitelistRenters contract address.\n     * @param _whitelistRenters The address of the WhitelistRenters contract.\n     */\n\n    function setWhitelistRenters(address _whitelistRenters) external onlyOwner {\n        require(\n            _whitelistRenters != address(0),\n            \"WhitelistRenters address cannot be zero\"\n        );\n        // authorize the whitelistRenter contract to approve child contracts\n        whitelistRenters = _whitelistRenters;\n    }\n\n    /**\n     * @notice Approves or disapproves a contract address.\n     * @param contractAddress The address of the contract to be approved or disapproved.\n     * @param status The approval status to be set, true for approved and false for disapproved.\n     */\n\n    function setApprovedContract(\n        address contractAddress,\n        bool status\n    ) external {\n        require(\n            msg.sender == whitelistLenders ||\n                msg.sender == whitelistRenters ||\n                msg.sender == owner(),\n            \"Caller is not an approved contract\"\n        );\n        require(\n            contractAddress != address(this),\n            \"Cannot add self to approved contracts\"\n        );\n        approvedContracts[contractAddress] = status;\n        emit ContractApproved(contractAddress, status);\n    }\n\n    /**\n     * @notice Removes an approved contract address.\n     * @param contractAddress The address of the contract to be removed.\n     * @return A boolean value indicating whether the contract was successfully removed.\n     */\n\n    function removeApprovedContract(\n        address contractAddress\n    ) external returns (bool) {\n        require(\n            msg.sender == whitelistLenders ||\n                msg.sender == whitelistRenters ||\n                msg.sender == owner(),\n            \"Caller is not an approved contract\"\n        );\n        require(approvedContracts[contractAddress], \"Contract is not approved\");\n        require(\n            contractAddress != address(this),\n            \"Cannot remove self from approved contracts\"\n        );\n        delete approvedContracts[contractAddress];\n        emit ContractRemoved(contractAddress);\n        return true;\n    }\n\n    /**\n     * @notice Gets the approval status of a contract address.\n     * @param contractAddress The address of the contract.\n     * @return A boolean value indicating whether the contract is approved.\n     */\n\n    function getApprovedContract(\n        address contractAddress\n    ) external view onlyOwner returns (bool) {\n        return approvedContracts[contractAddress];\n    }\n\n    /**\n     * @notice Distributes W2R tokens to a specified receiver.\n     * @param receiver The address of the recipient.\n     * @param amount The amount of W2R tokens to be distributed.\n     */\n\n    function distributeW2R(address receiver, uint256 amount) external {\n        require(\n            approvedContracts[msg.sender],\n            \"Caller is not an approved contract\"\n        );\n        require(amount > 0, \"Amount must be greater than 0\");\n        require(\n            W2R.balanceOf(address(this)) >= amount,\n            \"Vault has insufficient W2R balance\"\n        );\n\n        W2R.safeTransfer(receiver, amount);\n        emit W2RTransferred(receiver, amount);\n    }\n\n    /**\n     * @notice Withdraws W2R tokens from the contract to the owner's address.\n     * @param amount The amount of W2R tokens to be withdrawn.\n     */\n\n    function withdrawW2R(uint256 amount) external onlyOwner {\n        require(amount > 0, \"Amount must be greater than 0\");\n        require(\n            W2R.balanceOf(address(this)) >= amount + totalDepositsWhenDestroyed,\n            \"Vault has insufficient W2R balance\"\n        );\n        W2R.safeTransfer(msg.sender, amount);\n        emit W2RWithdrawn(msg.sender, amount);\n    }\n}\n",
  "sourcePath": "/Users/harbinger/Dropbox/Dossier familial/Formation Blockchain/Alyra/Projet Certification/Projet Alyra 2Wheels2Rent/truffle/contracts/VaultW2R.sol",
  "compiler": {
    "name": "solc",
    "version": "0.8.18+commit.87f61d96.Emscripten.clang"
  },
  "schemaVersion": "3.4.12",
  "updatedAt": "2023-04-23T15:40:56.395Z",
  "networkType": "ethereum",
  "devdoc": {
    "details": "The contract uses OpenZeppelin's SafeERC20, Ownable, and IERC20 contracts.",
    "kind": "dev",
    "methods": {
      "constructor": {
        "params": {
          "_w2rToken": "The address of the W2R token contract."
        }
      },
      "distributeW2R(address,uint256)": {
        "params": {
          "amount": "The amount of W2R tokens to be distributed.",
          "receiver": "The address of the recipient."
        }
      },
      "getApprovedContract(address)": {
        "params": {
          "contractAddress": "The address of the contract."
        },
        "returns": {
          "_0": "A boolean value indicating whether the contract is approved."
        }
      },
      "owner()": {
        "details": "Returns the address of the current owner."
      },
      "receiveDepositsWhenDestroyed(address,address,address,uint256,uint256)": {
        "params": {
          "_amount": "The amount of the deposit",
          "_date": "The date of the deposit",
          "_lenderContractOwner": "The address of the lender contract owner",
          "_renterContract": "The address of the renter contract",
          "_renterContractOwner": "The address of the renter contract owner"
        }
      },
      "removeApprovedContract(address)": {
        "params": {
          "contractAddress": "The address of the contract to be removed."
        },
        "returns": {
          "_0": "A boolean value indicating whether the contract was successfully removed."
        }
      },
      "renounceOwnership()": {
        "details": "Leaves the contract without owner. It will not be possible to call `onlyOwner` functions anymore. Can only be called by the current owner. NOTE: Renouncing ownership will leave the contract without an owner, thereby removing any functionality that is only available to the owner."
      },
      "sentDeposit(address,bool)": {
        "params": {
          "_lender": "The address of the lender.",
          "_sentToLender": "Set to true if deposit is to be sent to the lender, false if it is to be sent to the renter. This function is only callable by the owner of the contract. It first checks if the lender address is not zero and if the deposit has not been sent yet. Then it checks if the deposit exists and updates the deposit status based on the _sentToLender parameter. Finally, it updates the totalDepositsWhenDestroyed and transfers the deposit amount to the appropriate recipient."
        }
      },
      "setApprovedContract(address,bool)": {
        "params": {
          "contractAddress": "The address of the contract to be approved or disapproved.",
          "status": "The approval status to be set, true for approved and false for disapproved."
        }
      },
      "setWhitelistLenders(address)": {
        "params": {
          "_whitelistLenders": "The address of the WhitelistLenders contract."
        }
      },
      "setWhitelistRenters(address)": {
        "params": {
          "_whitelistRenters": "The address of the WhitelistRenters contract."
        }
      },
      "transferOwnership(address)": {
        "details": "Transfers ownership of the contract to a new account (`newOwner`). Can only be called by the current owner."
      },
      "withdrawW2R(uint256)": {
        "params": {
          "amount": "The amount of W2R tokens to be withdrawn."
        }
      }
    },
    "title": "VaultW2R",
    "version": 1
  },
  "userdoc": {
    "kind": "user",
    "methods": {
      "constructor": {
        "notice": "Constructs the VaultW2R contract."
      },
      "distributeW2R(address,uint256)": {
        "notice": "Distributes W2R tokens to a specified receiver."
      },
      "getApprovedContract(address)": {
        "notice": "Gets the approval status of a contract address."
      },
      "receiveDepositsWhenDestroyed(address,address,address,uint256,uint256)": {
        "notice": "A bikeShare contract can be destroyed after 2 days since the end of the rental period, or immediately if there is no rental The wait of 2 days is to give the renter time to return bike in case of delay or dispute After this time, if the lender has not received the bike and want to destroy the bikeShare contract, deposit will be placed here.It's not mandatory to destroy the bikeShare contract, it's in case the lender wants to destroy it: deposit must be saved umtil the dispute is resolved"
      },
      "removeApprovedContract(address)": {
        "notice": "Removes an approved contract address."
      },
      "sentDeposit(address,bool)": {
        "notice": "Send deposit to either lender or renter."
      },
      "setApprovedContract(address,bool)": {
        "notice": "Approves or disapproves a contract address."
      },
      "setWhitelistLenders(address)": {
        "notice": "Sets the WhitelistLenders contract address."
      },
      "setWhitelistRenters(address)": {
        "notice": "Sets the WhitelistRenters contract address."
      },
      "withdrawW2R(uint256)": {
        "notice": "Withdraws W2R tokens from the contract to the owner's address."
      }
    },
    "notice": "This contract serves as a vault for managing the distribution and withdrawal of W2R tokens.",
    "version": 1
  }
}