{
  "contractName": "VaultW2R",
  "abi": [
    {
      "inputs": [
        {
          "internalType": "address",
          "name": "_w2rToken",
          "type": "address"
        }
      ],
      "stateMutability": "nonpayable",
      "type": "constructor"
    },
    {
      "anonymous": false,
      "inputs": [
        {
          "indexed": true,
          "internalType": "address",
          "name": "contractAddress",
          "type": "address"
        },
        {
          "indexed": false,
          "internalType": "bool",
          "name": "status",
          "type": "bool"
        }
      ],
      "name": "ContractApproved",
      "type": "event"
    },
    {
      "anonymous": false,
      "inputs": [
        {
          "indexed": true,
          "internalType": "address",
          "name": "contractAddress",
          "type": "address"
        }
      ],
      "name": "ContractRemoved",
      "type": "event"
    },
    {
      "anonymous": false,
      "inputs": [
        {
          "indexed": true,
          "internalType": "address",
          "name": "previousOwner",
          "type": "address"
        },
        {
          "indexed": true,
          "internalType": "address",
          "name": "newOwner",
          "type": "address"
        }
      ],
      "name": "OwnershipTransferred",
      "type": "event"
    },
    {
      "anonymous": false,
      "inputs": [
        {
          "indexed": true,
          "internalType": "address",
          "name": "receiver",
          "type": "address"
        },
        {
          "indexed": false,
          "internalType": "uint256",
          "name": "amount",
          "type": "uint256"
        }
      ],
      "name": "W2RTransferred",
      "type": "event"
    },
    {
      "anonymous": false,
      "inputs": [
        {
          "indexed": true,
          "internalType": "address",
          "name": "receiver",
          "type": "address"
        },
        {
          "indexed": false,
          "internalType": "uint256",
          "name": "amount",
          "type": "uint256"
        }
      ],
      "name": "W2RWithdrawn",
      "type": "event"
    },
    {
      "inputs": [],
      "name": "W2R",
      "outputs": [
        {
          "internalType": "contract IERC20",
          "name": "",
          "type": "address"
        }
      ],
      "stateMutability": "view",
      "type": "function",
      "constant": true
    },
    {
      "inputs": [],
      "name": "owner",
      "outputs": [
        {
          "internalType": "address",
          "name": "",
          "type": "address"
        }
      ],
      "stateMutability": "view",
      "type": "function",
      "constant": true
    },
    {
      "inputs": [],
      "name": "renounceOwnership",
      "outputs": [],
      "stateMutability": "nonpayable",
      "type": "function"
    },
    {
      "inputs": [
        {
          "internalType": "address",
          "name": "newOwner",
          "type": "address"
        }
      ],
      "name": "transferOwnership",
      "outputs": [],
      "stateMutability": "nonpayable",
      "type": "function"
    },
    {
      "inputs": [],
      "name": "whitelistLenders",
      "outputs": [
        {
          "internalType": "address",
          "name": "",
          "type": "address"
        }
      ],
      "stateMutability": "view",
      "type": "function",
      "constant": true
    },
    {
      "inputs": [],
      "name": "whitelistRenters",
      "outputs": [
        {
          "internalType": "address",
          "name": "",
          "type": "address"
        }
      ],
      "stateMutability": "view",
      "type": "function",
      "constant": true
    },
    {
      "inputs": [
        {
          "internalType": "address",
          "name": "_whitelistLenders",
          "type": "address"
        }
      ],
      "name": "setWhitelistLenders",
      "outputs": [],
      "stateMutability": "nonpayable",
      "type": "function"
    },
    {
      "inputs": [
        {
          "internalType": "address",
          "name": "_whitelistRenters",
          "type": "address"
        }
      ],
      "name": "setWhitelistRenters",
      "outputs": [],
      "stateMutability": "nonpayable",
      "type": "function"
    },
    {
      "inputs": [
        {
          "internalType": "address",
          "name": "contractAddress",
          "type": "address"
        },
        {
          "internalType": "bool",
          "name": "status",
          "type": "bool"
        }
      ],
      "name": "setApprovedContract",
      "outputs": [],
      "stateMutability": "nonpayable",
      "type": "function"
    },
    {
      "inputs": [
        {
          "internalType": "address",
          "name": "contractAddress",
          "type": "address"
        }
      ],
      "name": "removeApprovedContract",
      "outputs": [
        {
          "internalType": "bool",
          "name": "",
          "type": "bool"
        }
      ],
      "stateMutability": "nonpayable",
      "type": "function"
    },
    {
      "inputs": [
        {
          "internalType": "address",
          "name": "contractAddress",
          "type": "address"
        }
      ],
      "name": "getApprovedContract",
      "outputs": [
        {
          "internalType": "bool",
          "name": "",
          "type": "bool"
        }
      ],
      "stateMutability": "view",
      "type": "function",
      "constant": true
    },
    {
      "inputs": [
        {
          "internalType": "address",
          "name": "receiver",
          "type": "address"
        },
        {
          "internalType": "uint256",
          "name": "amount",
          "type": "uint256"
        }
      ],
      "name": "distributeW2R",
      "outputs": [],
      "stateMutability": "nonpayable",
      "type": "function"
    },
    {
      "inputs": [
        {
          "internalType": "uint256",
          "name": "amount",
          "type": "uint256"
        }
      ],
      "name": "withdrawW2R",
      "outputs": [],
      "stateMutability": "nonpayable",
      "type": "function"
    }
  ],
  "bytecode": "0x608060405234801561001057600080fd5b50604051610fbb380380610fbb83398101604081905261002f91610107565b610038336100b7565b6001600160a01b0381166100925760405162461bcd60e51b815260206004820181905260248201527f57325220746f6b656e20616464726573732063616e6e6f74206265207a65726f604482015260640160405180910390fd5b600180546001600160a01b0319166001600160a01b0392909216919091179055610137565b600080546001600160a01b038381166001600160a01b0319831681178455604051919092169283917f8be0079c531659141344cd1fd0a4f28419497f9722a3daafe3b4186f6b6457e09190a35050565b60006020828403121561011957600080fd5b81516001600160a01b038116811461013057600080fd5b9392505050565b610e75806101466000396000f3fe608060405234801561001057600080fd5b50600436106100cf5760003560e01c8063845977f51161008c5780639eea2279116100665780639eea2279146101a1578063cd7b6a9f146101b4578063f192e8d0146101c7578063f2fde38b146101da57600080fd5b8063845977f5146101525780638da5cb5b1461017d5780638f0360721461018e57600080fd5b80631578284a146100d457806331babd8b146100e95780634aba47ae146100fc5780635ffd993b1461010f578063715018a6146101225780637a0e40351461012a575b600080fd5b6100e76100e2366004610c51565b6101ed565b005b6100e76100f7366004610c81565b610323565b6100e761010a366004610ca3565b6103b3565b6100e761011d366004610cdb565b61051a565b6100e761062c565b61013d610138366004610c81565b610640565b60405190151581526020015b60405180910390f35b600254610165906001600160a01b031681565b6040516001600160a01b039091168152602001610149565b6000546001600160a01b0316610165565b600154610165906001600160a01b031681565b61013d6101af366004610c81565b61066d565b6100e76101c2366004610c81565b6107e5565b600354610165906001600160a01b031681565b6100e76101e8366004610c81565b610875565b6101f56108ee565b6000811161024a5760405162461bcd60e51b815260206004820152601d60248201527f416d6f756e74206d7573742062652067726561746572207468616e203000000060448201526064015b60405180910390fd5b6001546040516370a0823160e01b815230600482015282916001600160a01b0316906370a0823190602401602060405180830381865afa158015610292573d6000803e3d6000fd5b505050506040513d601f19601f820116820180604052508101906102b69190610d12565b10156102d45760405162461bcd60e51b815260040161024190610d2b565b6001546102eb906001600160a01b03163383610948565b60405181815233907f09cbd8358db903b45ad50926a3d56db454311693921f2c54e362c7810d1f21f19060200160405180910390a250565b61032b6108ee565b6001600160a01b0381166103915760405162461bcd60e51b815260206004820152602760248201527f57686974656c69737452656e7465727320616464726573732063616e6e6f74206044820152666265207a65726f60c81b6064820152608401610241565b600380546001600160a01b0319166001600160a01b0392909216919091179055565b3360009081526004602052604090205460ff166103e25760405162461bcd60e51b815260040161024190610d6d565b600081116104325760405162461bcd60e51b815260206004820152601d60248201527f416d6f756e74206d7573742062652067726561746572207468616e20300000006044820152606401610241565b6001546040516370a0823160e01b815230600482015282916001600160a01b0316906370a0823190602401602060405180830381865afa15801561047a573d6000803e3d6000fd5b505050506040513d601f19601f8201168201806040525081019061049e9190610d12565b10156104bc5760405162461bcd60e51b815260040161024190610d2b565b6001546104d3906001600160a01b03168383610948565b816001600160a01b03167f6a1dfbe4782732376da4ef50f66045bc4d94e8b78f7d415a5ee730630e0beba98260405161050e91815260200190565b60405180910390a25050565b6002546001600160a01b031633148061053d57506003546001600160a01b031633145b8061055257506000546001600160a01b031633145b61056e5760405162461bcd60e51b815260040161024190610d6d565b306001600160a01b038316036105d45760405162461bcd60e51b815260206004820152602560248201527f43616e6e6f74206164642073656c6620746f20617070726f76656420636f6e74604482015264726163747360d81b6064820152608401610241565b6001600160a01b038216600081815260046020908152604091829020805460ff191685151590811790915591519182527f2f5b19bb75097659707b1df69ba629ec7e5acfe3f775e362b8750d854037de02910161050e565b6106346108ee565b61063e600061099f565b565b600061064a6108ee565b506001600160a01b03811660009081526004602052604090205460ff165b919050565b6002546000906001600160a01b031633148061069357506003546001600160a01b031633145b806106a857506000546001600160a01b031633145b6106c45760405162461bcd60e51b815260040161024190610d6d565b6001600160a01b03821660009081526004602052604090205460ff1661072c5760405162461bcd60e51b815260206004820152601860248201527f436f6e7472616374206973206e6f7420617070726f76656400000000000000006044820152606401610241565b306001600160a01b038316036107975760405162461bcd60e51b815260206004820152602a60248201527f43616e6e6f742072656d6f76652073656c662066726f6d20617070726f76656460448201526920636f6e74726163747360b01b6064820152608401610241565b6001600160a01b038216600081815260046020526040808220805460ff19169055517f8d30d41865a0b811b9545d879520d2dde9f4cc49e4241f486ad9752bc904b5659190a2506001919050565b6107ed6108ee565b6001600160a01b0381166108535760405162461bcd60e51b815260206004820152602760248201527f57686974656c6973744c656e6465727320616464726573732063616e6e6f74206044820152666265207a65726f60c81b6064820152608401610241565b600280546001600160a01b0319166001600160a01b0392909216919091179055565b61087d6108ee565b6001600160a01b0381166108e25760405162461bcd60e51b815260206004820152602660248201527f4f776e61626c653a206e6577206f776e657220697320746865207a65726f206160448201526564647265737360d01b6064820152608401610241565b6108eb8161099f565b50565b6000546001600160a01b0316331461063e5760405162461bcd60e51b815260206004820181905260248201527f4f776e61626c653a2063616c6c6572206973206e6f7420746865206f776e65726044820152606401610241565b604080516001600160a01b038416602482015260448082018490528251808303909101815260649091019091526020810180516001600160e01b031663a9059cbb60e01b17905261099a9084906109ef565b505050565b600080546001600160a01b038381166001600160a01b0319831681178455604051919092169283917f8be0079c531659141344cd1fd0a4f28419497f9722a3daafe3b4186f6b6457e09190a35050565b6000610a44826040518060400160405280602081526020017f5361666545524332303a206c6f772d6c6576656c2063616c6c206661696c6564815250856001600160a01b0316610ac19092919063ffffffff16565b80519091501561099a5780806020019051810190610a629190610daf565b61099a5760405162461bcd60e51b815260206004820152602a60248201527f5361666545524332303a204552433230206f7065726174696f6e20646964206e6044820152691bdd081cdd58d8d9595960b21b6064820152608401610241565b6060610ad08484600085610ad8565b949350505050565b606082471015610b395760405162461bcd60e51b815260206004820152602660248201527f416464726573733a20696e73756666696369656e742062616c616e636520666f6044820152651c8818d85b1b60d21b6064820152608401610241565b600080866001600160a01b03168587604051610b559190610df0565b60006040518083038185875af1925050503d8060008114610b92576040519150601f19603f3d011682016040523d82523d6000602084013e610b97565b606091505b5091509150610ba887838387610bb3565b979650505050505050565b60608315610c22578251600003610c1b576001600160a01b0385163b610c1b5760405162461bcd60e51b815260206004820152601d60248201527f416464726573733a2063616c6c20746f206e6f6e2d636f6e74726163740000006044820152606401610241565b5081610ad0565b610ad08383815115610c375781518083602001fd5b8060405162461bcd60e51b81526004016102419190610e0c565b600060208284031215610c6357600080fd5b5035919050565b80356001600160a01b038116811461066857600080fd5b600060208284031215610c9357600080fd5b610c9c82610c6a565b9392505050565b60008060408385031215610cb657600080fd5b610cbf83610c6a565b946020939093013593505050565b80151581146108eb57600080fd5b60008060408385031215610cee57600080fd5b610cf783610c6a565b91506020830135610d0781610ccd565b809150509250929050565b600060208284031215610d2457600080fd5b5051919050565b60208082526022908201527f5661756c742068617320696e73756666696369656e74205732522062616c616e604082015261636560f01b606082015260800190565b60208082526022908201527f43616c6c6572206973206e6f7420616e20617070726f76656420636f6e74726160408201526118dd60f21b606082015260800190565b600060208284031215610dc157600080fd5b8151610c9c81610ccd565b60005b83811015610de7578181015183820152602001610dcf565b50506000910152565b60008251610e02818460208701610dcc565b9190910192915050565b6020815260008251806020840152610e2b816040850160208701610dcc565b601f01601f1916919091016040019291505056fea2646970667358221220430d3c54b1a3eb745184c2b1be36af00c2647c3d10983aec220ea0b0f77224c764736f6c63430008120033",
  "immutableReferences": {},
  "source": "// SPDX-License-Identifier: MIT\npragma solidity ^0.8.0;\n\nimport \"@openzeppelin/contracts/token/ERC20/IERC20.sol\";\nimport \"@openzeppelin/contracts/token/ERC20/utils/SafeERC20.sol\";\nimport \"@openzeppelin/contracts/access/Ownable.sol\";\n\ncontract VaultW2R is Ownable {\n    using SafeERC20 for IERC20;\n    IERC20 public W2R;\n    address public whitelistLenders;\n    address public whitelistRenters;\n\n    mapping(address => bool) private approvedContracts;\n\n    event W2RTransferred(address indexed receiver, uint256 amount);\n    event W2RWithdrawn(address indexed receiver, uint256 amount);\n    event ContractApproved(address indexed contractAddress, bool status);\n    event ContractRemoved(address indexed contractAddress);\n\n    constructor(address _w2rToken) {\n        require(\n            address(_w2rToken) != address(0),\n            \"W2R token address cannot be zero\"\n        );\n\n        W2R = IERC20(_w2rToken);\n    }\n\n    function setWhitelistLenders(address _whitelistLenders) external onlyOwner {\n        require(\n            _whitelistLenders != address(0),\n            \"WhitelistLenders address cannot be zero\"\n        );\n        // authorize the whitelistLender contract to approve child contracts\n        whitelistLenders = _whitelistLenders;\n    }\n\n    function setWhitelistRenters(address _whitelistRenters) external onlyOwner {\n        require(\n            _whitelistRenters != address(0),\n            \"WhitelistRenters address cannot be zero\"\n        );\n        // authorize the whitelistRenter contract to approve child contracts\n        whitelistRenters = _whitelistRenters;\n    }\n\n    function setApprovedContract(\n        address contractAddress,\n        bool status\n    ) external {\n        require(\n            msg.sender == whitelistLenders ||\n                msg.sender == whitelistRenters ||\n                msg.sender == owner(),\n            \"Caller is not an approved contract\"\n        );\n        require(\n            contractAddress != address(this),\n            \"Cannot add self to approved contracts\"\n        );\n        approvedContracts[contractAddress] = status;\n        emit ContractApproved(contractAddress, status);\n    }\n\n    function removeApprovedContract(\n        address contractAddress\n    ) external returns (bool) {\n        require(\n            msg.sender == whitelistLenders ||\n                msg.sender == whitelistRenters ||\n                msg.sender == owner(),\n            \"Caller is not an approved contract\"\n        );\n        require(approvedContracts[contractAddress], \"Contract is not approved\");\n        require(\n            contractAddress != address(this),\n            \"Cannot remove self from approved contracts\"\n        );\n        delete approvedContracts[contractAddress];\n        emit ContractRemoved(contractAddress);\n        return true;\n    }\n\n    function getApprovedContract(\n        address contractAddress\n    ) external view onlyOwner returns (bool) {\n        return approvedContracts[contractAddress];\n    }\n\n    function distributeW2R(address receiver, uint256 amount) external {\n        require(\n            approvedContracts[msg.sender],\n            \"Caller is not an approved contract\"\n        );\n        require(amount > 0, \"Amount must be greater than 0\");\n        require(\n            W2R.balanceOf(address(this)) >= amount,\n            \"Vault has insufficient W2R balance\"\n        );\n\n        W2R.safeTransfer(receiver, amount);\n        emit W2RTransferred(receiver, amount);\n    }\n\n    function withdrawW2R(uint256 amount) external onlyOwner {\n        require(amount > 0, \"Amount must be greater than 0\");\n        require(\n            W2R.balanceOf(address(this)) >= amount,\n            \"Vault has insufficient W2R balance\"\n        );\n\n        W2R.safeTransfer(msg.sender, amount);\n        emit W2RWithdrawn(msg.sender, amount);\n    }\n}\n",
  "sourcePath": "/Users/harbinger/Dropbox/Dossier familial/Formation Blockchain/Alyra/Projet Certification/Projet Alyra 2Wheels2Rent/truffle/contracts/VaultW2R.sol",
  "compiler": {
    "name": "solc",
    "version": "0.8.18+commit.87f61d96.Emscripten.clang"
  },
  "schemaVersion": "3.4.12",
  "updatedAt": "2023-04-04T21:15:51.592Z",
  "networkType": "ethereum",
  "devdoc": {
    "kind": "dev",
    "methods": {
      "owner()": {
        "details": "Returns the address of the current owner."
      },
      "renounceOwnership()": {
        "details": "Leaves the contract without owner. It will not be possible to call `onlyOwner` functions anymore. Can only be called by the current owner. NOTE: Renouncing ownership will leave the contract without an owner, thereby removing any functionality that is only available to the owner."
      },
      "transferOwnership(address)": {
        "details": "Transfers ownership of the contract to a new account (`newOwner`). Can only be called by the current owner."
      }
    },
    "version": 1
  },
  "userdoc": {
    "kind": "user",
    "methods": {},
    "version": 1
  }
}