{
  "contractName": "W2RStaking",
  "abi": [
    {
      "inputs": [
        {
          "internalType": "contract IERC20",
          "name": "_w2rToken",
          "type": "address"
        },
        {
          "internalType": "contract AggregatorV3Interface",
          "name": "_priceFeed",
          "type": "address"
        },
        {
          "internalType": "address",
          "name": "_vaultW2R",
          "type": "address"
        }
      ],
      "stateMutability": "nonpayable",
      "type": "constructor"
    },
    {
      "anonymous": false,
      "inputs": [
        {
          "indexed": false,
          "internalType": "uint256",
          "name": "newEarlyUnstakePenalty",
          "type": "uint256"
        }
      ],
      "name": "EarlyUnstakePenaltyUpdated",
      "type": "event"
    },
    {
      "anonymous": false,
      "inputs": [
        {
          "indexed": false,
          "internalType": "uint256",
          "name": "newLockEndTime",
          "type": "uint256"
        },
        {
          "indexed": false,
          "internalType": "uint256",
          "name": "months",
          "type": "uint256"
        },
        {
          "indexed": true,
          "internalType": "address",
          "name": "staker",
          "type": "address"
        }
      ],
      "name": "LockPeriodUpdated",
      "type": "event"
    },
    {
      "anonymous": false,
      "inputs": [
        {
          "indexed": true,
          "internalType": "address",
          "name": "previousOwner",
          "type": "address"
        },
        {
          "indexed": true,
          "internalType": "address",
          "name": "newOwner",
          "type": "address"
        }
      ],
      "name": "OwnershipTransferred",
      "type": "event"
    },
    {
      "anonymous": false,
      "inputs": [
        {
          "indexed": true,
          "internalType": "address",
          "name": "user",
          "type": "address"
        },
        {
          "indexed": false,
          "internalType": "uint256",
          "name": "amount",
          "type": "uint256"
        }
      ],
      "name": "RewardClaimed",
      "type": "event"
    },
    {
      "anonymous": false,
      "inputs": [
        {
          "indexed": false,
          "internalType": "uint256",
          "name": "newRewardMultiplier",
          "type": "uint256"
        }
      ],
      "name": "RewardMultiplierUpdated",
      "type": "event"
    },
    {
      "anonymous": false,
      "inputs": [
        {
          "indexed": false,
          "internalType": "uint256",
          "name": "newRewardsFeesPercentage",
          "type": "uint256"
        }
      ],
      "name": "RewardsFeesPercentageUpdated",
      "type": "event"
    },
    {
      "anonymous": false,
      "inputs": [
        {
          "indexed": true,
          "internalType": "address",
          "name": "user",
          "type": "address"
        },
        {
          "indexed": false,
          "internalType": "uint256",
          "name": "amount",
          "type": "uint256"
        }
      ],
      "name": "Staked",
      "type": "event"
    },
    {
      "anonymous": false,
      "inputs": [
        {
          "indexed": true,
          "internalType": "address",
          "name": "user",
          "type": "address"
        },
        {
          "indexed": false,
          "internalType": "uint256",
          "name": "amount",
          "type": "uint256"
        }
      ],
      "name": "Unstaked",
      "type": "event"
    },
    {
      "anonymous": false,
      "inputs": [
        {
          "indexed": true,
          "internalType": "address",
          "name": "receiver",
          "type": "address"
        },
        {
          "indexed": false,
          "internalType": "uint256",
          "name": "amount",
          "type": "uint256"
        }
      ],
      "name": "W2RfeesWithdrawn",
      "type": "event"
    },
    {
      "inputs": [],
      "name": "earlyUnstakePenalty",
      "outputs": [
        {
          "internalType": "uint256",
          "name": "",
          "type": "uint256"
        }
      ],
      "stateMutability": "view",
      "type": "function",
      "constant": true
    },
    {
      "inputs": [],
      "name": "maxLockPeriod",
      "outputs": [
        {
          "internalType": "uint256",
          "name": "",
          "type": "uint256"
        }
      ],
      "stateMutability": "view",
      "type": "function",
      "constant": true
    },
    {
      "inputs": [],
      "name": "owner",
      "outputs": [
        {
          "internalType": "address",
          "name": "",
          "type": "address"
        }
      ],
      "stateMutability": "view",
      "type": "function",
      "constant": true
    },
    {
      "inputs": [],
      "name": "renounceOwnership",
      "outputs": [],
      "stateMutability": "nonpayable",
      "type": "function"
    },
    {
      "inputs": [],
      "name": "rewardMultiplier",
      "outputs": [
        {
          "internalType": "uint256",
          "name": "",
          "type": "uint256"
        }
      ],
      "stateMutability": "view",
      "type": "function",
      "constant": true
    },
    {
      "inputs": [],
      "name": "rewardsFeesPercentage",
      "outputs": [
        {
          "internalType": "uint256",
          "name": "",
          "type": "uint256"
        }
      ],
      "stateMutability": "view",
      "type": "function",
      "constant": true
    },
    {
      "inputs": [
        {
          "internalType": "address",
          "name": "",
          "type": "address"
        }
      ],
      "name": "stakers",
      "outputs": [
        {
          "internalType": "uint256",
          "name": "stakedAmount",
          "type": "uint256"
        },
        {
          "internalType": "uint256",
          "name": "lastUpdated",
          "type": "uint256"
        },
        {
          "internalType": "uint256",
          "name": "reward",
          "type": "uint256"
        },
        {
          "internalType": "uint256",
          "name": "stakedUSDValue",
          "type": "uint256"
        },
        {
          "internalType": "uint256",
          "name": "lockEndTime",
          "type": "uint256"
        },
        {
          "internalType": "uint256",
          "name": "LockInMonths",
          "type": "uint256"
        },
        {
          "internalType": "uint256",
          "name": "resetStakeDate",
          "type": "uint256"
        }
      ],
      "stateMutability": "view",
      "type": "function",
      "constant": true
    },
    {
      "inputs": [],
      "name": "totalPenalties",
      "outputs": [
        {
          "internalType": "uint256",
          "name": "",
          "type": "uint256"
        }
      ],
      "stateMutability": "view",
      "type": "function",
      "constant": true
    },
    {
      "inputs": [],
      "name": "totalStaking",
      "outputs": [
        {
          "internalType": "uint256",
          "name": "",
          "type": "uint256"
        }
      ],
      "stateMutability": "view",
      "type": "function",
      "constant": true
    },
    {
      "inputs": [],
      "name": "totalW2Rfees",
      "outputs": [
        {
          "internalType": "uint256",
          "name": "",
          "type": "uint256"
        }
      ],
      "stateMutability": "view",
      "type": "function",
      "constant": true
    },
    {
      "inputs": [
        {
          "internalType": "address",
          "name": "newOwner",
          "type": "address"
        }
      ],
      "name": "transferOwnership",
      "outputs": [],
      "stateMutability": "nonpayable",
      "type": "function"
    },
    {
      "inputs": [],
      "name": "vaultW2RAddress",
      "outputs": [
        {
          "internalType": "address",
          "name": "",
          "type": "address"
        }
      ],
      "stateMutability": "view",
      "type": "function",
      "constant": true
    },
    {
      "inputs": [],
      "name": "w2rToken",
      "outputs": [
        {
          "internalType": "contract IERC20",
          "name": "",
          "type": "address"
        }
      ],
      "stateMutability": "view",
      "type": "function",
      "constant": true
    },
    {
      "inputs": [
        {
          "internalType": "uint256",
          "name": "_newEarlyUnstakePenalty",
          "type": "uint256"
        }
      ],
      "name": "setEarlyUnstakePenalty",
      "outputs": [],
      "stateMutability": "nonpayable",
      "type": "function"
    },
    {
      "inputs": [
        {
          "internalType": "uint256",
          "name": "_newRewardMultiplier",
          "type": "uint256"
        }
      ],
      "name": "setRewardMultiplier",
      "outputs": [],
      "stateMutability": "nonpayable",
      "type": "function"
    },
    {
      "inputs": [
        {
          "internalType": "uint256",
          "name": "_newRewardFeesPercentage",
          "type": "uint256"
        }
      ],
      "name": "setRewardFeesPercentage",
      "outputs": [],
      "stateMutability": "nonpayable",
      "type": "function"
    },
    {
      "inputs": [
        {
          "internalType": "uint256",
          "name": "_newMaxLockPeriod",
          "type": "uint256"
        }
      ],
      "name": "setMaxLockPeriodInMonths",
      "outputs": [],
      "stateMutability": "nonpayable",
      "type": "function"
    },
    {
      "inputs": [
        {
          "internalType": "uint256",
          "name": "_amount",
          "type": "uint256"
        },
        {
          "internalType": "uint256",
          "name": "lockPeriodInMonths",
          "type": "uint256"
        },
        {
          "internalType": "bool",
          "name": "_extend",
          "type": "bool"
        }
      ],
      "name": "stake",
      "outputs": [],
      "stateMutability": "nonpayable",
      "type": "function"
    },
    {
      "inputs": [
        {
          "internalType": "uint256",
          "name": "_amount",
          "type": "uint256"
        },
        {
          "internalType": "bool",
          "name": "proportional",
          "type": "bool"
        }
      ],
      "name": "unstake",
      "outputs": [],
      "stateMutability": "nonpayable",
      "type": "function"
    },
    {
      "inputs": [],
      "name": "claimReward",
      "outputs": [],
      "stateMutability": "nonpayable",
      "type": "function"
    },
    {
      "inputs": [
        {
          "internalType": "address",
          "name": "_staker",
          "type": "address"
        },
        {
          "internalType": "bool",
          "name": "earlyUnstake",
          "type": "bool"
        }
      ],
      "name": "calculateMultiplier",
      "outputs": [
        {
          "internalType": "uint256",
          "name": "",
          "type": "uint256"
        }
      ],
      "stateMutability": "view",
      "type": "function",
      "constant": true
    },
    {
      "inputs": [],
      "name": "viewRewardPercentage",
      "outputs": [
        {
          "internalType": "uint256",
          "name": "",
          "type": "uint256"
        }
      ],
      "stateMutability": "view",
      "type": "function",
      "constant": true
    },
    {
      "inputs": [
        {
          "internalType": "address",
          "name": "_staker",
          "type": "address"
        }
      ],
      "name": "viewReward",
      "outputs": [
        {
          "internalType": "uint256",
          "name": "",
          "type": "uint256"
        }
      ],
      "stateMutability": "view",
      "type": "function",
      "constant": true
    },
    {
      "inputs": [],
      "name": "withdrawFees",
      "outputs": [],
      "stateMutability": "nonpayable",
      "type": "function"
    }
  ],
  "bytecode": "0x6080604052620f4240600a553480156200001857600080fd5b5060405162002861380380620028618339810160408190526200003b916200018c565b620000463362000123565b6001600160a01b038316158015906200006757506001600160a01b03821615155b80156200007c57506001600160a01b03811615155b620000bf5760405162461bcd60e51b815260206004820152600f60248201526e496e76616c6964206164647265737360881b604482015260640160405180910390fd5b600180546001600160a01b03199081166001600160a01b0395861617825560028054821694861694909417909355600c8054841692909416918217909355600d8054909216179055600a600355640df84758006005556006556018600955620001e0565b600080546001600160a01b038381166001600160a01b0319831681178455604051919092169283917f8be0079c531659141344cd1fd0a4f28419497f9722a3daafe3b4186f6b6457e09190a35050565b6001600160a01b03811681146200018957600080fd5b50565b600080600060608486031215620001a257600080fd5b8351620001af8162000173565b6020850151909350620001c28162000173565b6040850151909250620001d58162000173565b809150509250925092565b61267180620001f06000396000f3fe608060405234801561001057600080fd5b50600436106101585760003560e01c806379453830116100c3578063b88a802f1161007c578063b88a802f146102eb578063bd4cc58f146102f3578063d0eede6714610306578063e2db2ad414610319578063e38912111461032c578063f2fde38b1461033457600080fd5b806379453830146102045780638da5cb5b1461020d5780638e1eb324146102325780639168ae72146102455780639ebea88c146102c5578063aea8736f146102d857600080fd5b80634b1d29b4116101155780634b1d29b4146101bb578063561b2463146101c45780635f95c8fa146101d757806363e34c1a146101e05780636f2c590a146101f3578063715018a6146101fc57600080fd5b80630136316e1461015d57806305a491f3146101835780630bd075a11461018c5780631367eaf2146101a1578063165defa4146101aa578063476343ee146101b3575b600080fd5b61017061016b3660046123ab565b610347565b6040519081526020015b60405180910390f35b61017060065481565b61019f61019a3660046123e2565b610426565b005b61017060035481565b61017060045481565b61019f610541565b61017060095481565b61019f6101d23660046123fb565b6106aa565b61017060075481565b61019f6101ee3660046123e2565b610ae8565b61017060055481565b61019f610b91565b61017060085481565b6000546001600160a01b03165b6040516001600160a01b03909116815260200161017a565b61019f6102403660046123e2565b610ba5565b610290610253366004612434565b600b602052600090815260409020805460018201546002830154600384015460048501546005860154600690960154949593949293919290919087565b604080519788526020880196909652948601939093526060850191909152608084015260a083015260c082015260e00161017a565b61019f6102d336600461244f565b610c4d565b61019f6102e63660046123e2565b610fda565b61019f611046565b600d5461021a906001600160a01b031681565b610170610314366004612434565b6111b8565b60015461021a906001600160a01b031681565b610170611279565b61019f610342366004612434565b61137a565b6001600160a01b0382166000908152600b60209081526040808320815160e08101835281548082526001830154948201949094526002820154928101929092526003810154606083015260048101546080830152600581015460a08301526006015460c08201529082036103bf576000915050610420565b82156103cf575050600a54610420565b6000600a8260a0015160026103e4919061248a565b111561041757600a80548360a001516103fd919061248a565b61040890600261248a565b61041291906124b7565b61041b565b600a545b925050505b92915050565b61042e6113f3565b600081116104945760405162461bcd60e51b815260206004820152602860248201527f526577617264206d756c7469706c696572206d75737420626520677265617465604482015267072207468616e20360c41b60648201526084015b60405180910390fd5b60648111156104f55760405162461bcd60e51b815260206004820152602760248201527f526577617264206d756c7469706c696572206d757374206265206c6573732074604482015266068616e203130360cc1b606482015260840161048b565b6105078167016345785d8a000061248a565b6005556040518181527f2dc77efcef672c24de8314e0bc5c0937b13d1d8c4ccea4acf5246edf821b93d5906020015b60405180910390a150565b6105496113f3565b336105665760405162461bcd60e51b815260040161048b906124d9565b60006007546008546105789190612502565b116105bb5760405162461bcd60e51b81526020600482015260136024820152724e6f7468696e6720746f20776974686472617760681b604482015260640161048b565b60006007546008546105cd9190612502565b600060088190556007819055600c54604051633b87d57560e01b81526004810192909252602482018390524260448301529192506001600160a01b0390911690633b87d57590606401600060405180830381600087803b15801561063057600080fd5b505af1158015610644573d6000803e3d6000fd5b5050600d5460015461066593506001600160a01b039081169250168361144d565b600d546040518281526001600160a01b03909116907f14f7bd7c69bcbe5b4464d9c7f4879db766434aa4348583cfc66eccb877565fb69060200160405180910390a250565b600154604051636eb1769f60e11b8152336004820152306024820152849182916001600160a01b039091169063dd62ed3e90604401602060405180830381865afa1580156106fc573d6000803e3d6000fd5b505050506040513d601f19601f820116820180604052508101906107209190612515565b101561076e5760405162461bcd60e51b815260206004820152601d60248201527f4e65656420617070726f76616c20666f72207468697320616d6f756e74000000604482015260640161048b565b3361078b5760405162461bcd60e51b815260040161048b906124d9565b6305f5e1008410156107d25760405162461bcd60e51b815260206004820152601060248201526f105b5bdd5b9d081d1bdbc81cdb585b1b60821b604482015260640161048b565b6001546040516370a0823160e01b815233600482015285916001600160a01b0316906370a0823190602401602060405180830381865afa15801561081a573d6000803e3d6000fd5b505050506040513d601f19601f8201168201806040525081019061083e9190612515565b101561088c5760405162461bcd60e51b815260206004820152601a60248201527f4e6f7420656e6f75676820746f6b656e7320746f207374616b65000000000000604482015260640161048b565b336000908152600b60205260409020805415806108b157508054158015906108b15750825b15610937576000841180156108c857506009548411155b6109325760405162461bcd60e51b815260206004820152603560248201527f4c6f636b20706572696f64206d757374206265206265747765656e2031206d6f6044820152741b9d1a08185b99081b585e131bd8dad4195c9a5bd9605a1b606482015260840161048b565b610990565b805415801590610945575082155b156109905783156109905760405162461bcd60e51b815260206004820152601560248201527404c6f636b20706572696f64206d757374206265203605c1b604482015260640161048b565b61099b3360006114b5565b8215610a2f576009548482600501546109b49190612502565b1115610a1f5760405162461bcd60e51b815260206004820152603460248201527f43616e6e6f7420657874656e64206c6f636b20706572696f64206279206d6f7260448201527319481d1a185b881b585e131bd8dad4195c9a5bd960621b606482015260840161048b565b610a2a81853361159c565b610a3a565b610a3a8185336116a8565b84816000016000828254610a4e9190612502565b925050819055508460046000828254610a679190612502565b9091555060009050610a788661172a565b905080826003016000828254610a8e9190612502565b9091555050600154610aab906001600160a01b03163330896118f6565b60405186815233907f9e71bc8eea02a63969f509818f2dafb9254532904319f9dbda79b67bd34a5f3d9060200160405180910390a2505050505050565b610af06113f3565b6064811115610b5c5760405162461bcd60e51b815260206004820152603260248201527f52657761726420666565732070657263656e746167652063616e6e6f742062656044820152712067726561746572207468616e203130302560701b606482015260840161048b565b60068190556040518181527fcc4999ddc6babdf2a3d1108c3e68687bc3245b797d20e965ff2dbcff1044153890602001610536565b610b996113f3565b610ba36000611934565b565b610bad6113f3565b6064811115610c185760405162461bcd60e51b815260206004820152603160248201527f4561726c7920756e7374616b652070656e616c74792063616e6e6f742062652060448201527067726561746572207468616e203130302560781b606482015260840161048b565b60038190556040518181527f7ded7e3186869bd762e21fe79731d2aec22bf5a06edbb45541d3e458bb6e957690602001610536565b33610c6a5760405162461bcd60e51b815260040161048b906124d9565b6305f5e100821015610cb15760405162461bcd60e51b815260206004820152601060248201526f105b5bdd5b9d081d1bdbc81cdb585b1b60821b604482015260640161048b565b336000908152600b6020526040902060068101544290610cd4906213c680612502565b10610d215760405162461bcd60e51b815260206004820152601d60248201527f43616e6e6f7420756e7374616b65206265666f72652031352064617973000000604482015260640161048b565b6000610d2c8461172a565b90508382600001541015610d825760405162461bcd60e51b815260206004820152601860248201527f4e6f7420656e6f75676820746f6b656e73207374616b65640000000000000000604482015260640161048b565b610d9233836004015442106114b5565b60008315610dbd5782546002840154610dac90879061248a565b610db691906124b7565b9050610dc4565b5060028201545b60048301548590421015610e15576000606460035488610de4919061248a565b610dee91906124b7565b9050610dfa818361252e565b91508060076000828254610e0e9190612502565b9091555050505b83548603610e2c5760006004850181905560058501555b85846000016000828254610e40919061252e565b925050819055508560046000828254610e59919061252e565b9250508190555081846002016000828254610e74919061252e565b9091555050600654600090606490610e8c908561248a565b610e9691906124b7565b9050610ea2818461252e565b92508060086000828254610eb69190612502565b909155505060038501548410610ed25760006003860155610eec565b83856003016000828254610ee6919061252e565b90915550505b600154610f03906001600160a01b0316338461144d565b600c5460405163255d23d760e11b8152336004820152602481018590526001600160a01b0390911690634aba47ae90604401600060405180830381600087803b158015610f4f57600080fd5b505af1158015610f63573d6000803e3d6000fd5b50506040518981523392507f0f5bb82176feb1b5e747e28471aa92156a04d9f3ab9f45f28e2d704232b93f75915060200160405180910390a260405183815233907f106f923f993c2149d49b4255ff723acafa1f2d94393f561d3eda32ae348f72419060200160405180910390a250505050505050565b610fe26113f3565b600081116110415760405162461bcd60e51b815260206004820152602660248201527f4d6178206c6f636b20706572696f64206d75737420626520677265617465722060448201526507468616e20360d41b606482015260840161048b565b600955565b336110635760405162461bcd60e51b815260040161048b906124d9565b336000908152600b60205260409020546110b25760405162461bcd60e51b815260206004820152601060248201526f4e6f7468696e6720746f20636c61696d60801b604482015260640161048b565b336000818152600b60205260408120916110cb916114b5565b60028101546006546000906064906110e3908461248a565b6110ed91906124b7565b90506110f9818361252e565b9150806008600082825461110d9190612502565b909155505060006002840155600c5460405163255d23d760e11b8152336004820152602481018490526001600160a01b0390911690634aba47ae90604401600060405180830381600087803b15801561116557600080fd5b505af1158015611179573d6000803e3d6000fd5b50506040518481523392507f106f923f993c2149d49b4255ff723acafa1f2d94393f561d3eda32ae348f724191506020015b60405180910390a2505050565b60006001600160a01b0382166111e05760405162461bcd60e51b815260040161048b906124d9565b6001600160a01b0382166000908152600b60205260409020541580159061122a57506001600160a01b0382166000908152600b6020526040812060010154611228904261252e565b115b1561126c57600061123c836000611984565b6001600160a01b0384166000908152600b60205260409020600201549091506112659082612502565b9392505050565b506000919050565b919050565b600060045460000361128b5750600090565b600061129860045461172a565b905060006112ae68056bc75e2d6310000061172a565b905060006112c06001620186a0611c01565b905060006112d16005546001611c01565b905060006112e0856001611c01565b905060006112ff836112fa6112f58786611ca6565b611d18565b611ca6565b9050600061131587670de0b6b3a764000061248a565b61132183600f0b611d8e565b67ffffffffffffffff1661133788610e1061248a565b61134290601861248a565b61134e9061016d61248a565b611358919061248a565b6113649061271061248a565b61136e91906124b7565b98975050505050505050565b6113826113f3565b6001600160a01b0381166113e75760405162461bcd60e51b815260206004820152602660248201527f4f776e61626c653a206e6577206f776e657220697320746865207a65726f206160448201526564647265737360d01b606482015260840161048b565b6113f081611934565b50565b6000546001600160a01b03163314610ba35760405162461bcd60e51b815260206004820181905260248201527f4f776e61626c653a2063616c6c6572206973206e6f7420746865206f776e6572604482015260640161048b565b6040516001600160a01b0383166024820152604481018290526114b090849063a9059cbb60e01b906064015b60408051601f198184030181529190526020810180516001600160e01b03166001600160e01b031990931692909217909152611ded565b505050565b6001600160a01b0382166114db5760405162461bcd60e51b815260040161048b906124d9565b6001600160a01b0382166000908152600b602052604081206001810154909190611505904261252e565b1161154a5760405162461bcd60e51b815260206004820152601560248201527405374616b696e67206475726174696f6e206973203605c1b604482015260640161048b565b6001600160a01b0383166000908152600b6020526040902054156115915760006115748484611ebf565b90508082600201600082825461158a9190612502565b9091555050505b426001909101555050565b82546115db5760405162461bcd60e51b815260206004820152600e60248201526d139bdd1a1a5b99c81cdd185ad95960921b604482015260640161048b565b428360040154116116225760405162461bcd60e51b8152602060048201526011602482015270131bd8dac81c195c9a5bd908195b991959607a1b604482015260640161048b565b61162f8262278d0061248a565b8360040160008282546116429190612502565b925050819055508183600501600082825461165d9190612502565b9091555050600483015460408051918252602082018490526001600160a01b038316917f2043fa5a49797f7a1c2629f68eab59ee10a5c456255ac94bd0b78fbc24219daf91016111ab565b825415806116b95750428360040154105b156114b0576116cb8262278d0061248a565b6116d59042612502565b600484018190556005840183905542600685015560408051918252602082018490526001600160a01b038316917f2043fa5a49797f7a1c2629f68eab59ee10a5c456255ac94bd0b78fbc24219daf91016111ab565b600080821161177b5760405162461bcd60e51b815260206004820152601d60248201527f416d6f756e74206d7573742062652067726561746572207468616e2030000000604482015260640161048b565b6002546001600160a01b03166117d35760405162461bcd60e51b815260206004820152601a60248201527f496e76616c696420707269636520666565642061646472657373000000000000604482015260640161048b565b60025460408051633fabe5a360e21b815290516000926001600160a01b03169163feaf968c9160048083019260a09291908290030181865afa15801561181d573d6000803e3d6000fd5b505050506040513d601f19601f82011682018060405250810190611841919061255b565b505050915050600081136118a15760405162461bcd60e51b815260206004820152602160248201527f496e76616c696420707269636520646174612066726f6d20436861696e6c696e6044820152606b60f81b606482015260840161048b565b8067016345785d8a00006000670de0b6b3a76400006118c0848461248a565b6118ca91906124b7565b90506000670de0b6b3a76400006118e1838961248a565b6118eb91906124b7565b979650505050505050565b6040516001600160a01b038085166024830152831660448201526064810182905261192e9085906323b872dd60e01b90608401611479565b50505050565b600080546001600160a01b038381166001600160a01b0319831681178455604051919092169283917f8be0079c531659141344cd1fd0a4f28419497f9722a3daafe3b4186f6b6457e09190a35050565b6001600160a01b0382166000908152600b60209081526040808320815160e0810183528154815260018201549381018490526002820154928101929092526003810154606083015260048101546080830152600581015460a08301526006015460c08201529082906119f6904261252e565b905060008111611a405760405162461bcd60e51b815260206004820152601560248201527405374616b696e67206475726174696f6e206973203605c1b604482015260640161048b565b8151611a7f5760405162461bcd60e51b815260206004820152600e60248201526d139bdd1a1a5b99c81cdd185ad95960921b604482015260640161048b565b60608201518251600090611a929061172a565b90506000611aa160045461172a565b9050600082118015611ab35750600081115b611aff5760405162461bcd60e51b815260206004820152601860248201527f496e76616c6964207072696365466565642076616c7565730000000000000000604482015260640161048b565b600083611b1484670de0b6b3a764000061248a565b611b1e91906124b7565b90506000611b2c8a8a610347565b90506000611b3e6001620186a0611c01565b90506000611b4f6005546001611c01565b90506000611b5e866001611c01565b90506000611b73836112fa6112f58786611ca6565b90506000611b8988670de0b6b3a764000061248a565b87611b9684600f0b611d8e565b67ffffffffffffffff16611baa8e8e61248a565b611bb4919061248a565b611bbe919061248a565b611bca9061271061248a565b611bd491906124b7565b600a54909150611be4878361248a565b611bee91906124b7565b9f9e505050505050505050505050505050565b600081600003611c475760405162461bcd60e51b8152602060048201526011602482015270646976753a204449565f42595f5a45524f60781b604482015260640161048b565b6000611c538484611f51565b905060016001607f1b036001600160801b03821611156112655760405162461bcd60e51b815260206004820152600e60248201526d646976753a204f564552464c4f5760901b604482015260640161048b565b6000600f83810b9083900b0260401d6f7fffffffffffffffffffffffffffffff198112801590611cdd575060016001607f1b038113155b6112655760405162461bcd60e51b815260206004820152600c60248201526b6d756c206f766572666c6f7760a01b604482015260640161048b565b60008082600f0b13611d655760405162461bcd60e51b81526020600482015260166024820152756c6f6745206f66206e656761746976652076616c756560501b604482015260640161048b565b6080611d708361215c565b600f0b6fb17217f7d1cf79abc9e3b39803f2f6af02901c9050919050565b60008082600f0b1215611de35760405162461bcd60e51b815260206004820152601860248201527f746f55696e743a2075696e74363420756e646572666c6f770000000000000000604482015260640161048b565b50600f0b60401d90565b6000611e42826040518060400160405280602081526020017f5361666545524332303a206c6f772d6c6576656c2063616c6c206661696c6564815250856001600160a01b03166122739092919063ffffffff16565b8051909150156114b05780806020019051810190611e6091906125ab565b6114b05760405162461bcd60e51b815260206004820152602a60248201527f5361666545524332303a204552433230206f7065726174696f6e20646964206e6044820152691bdd081cdd58d8d9595960b21b606482015260840161048b565b60006001600160a01b038316611ee75760405162461bcd60e51b815260040161048b906124d9565b6001600160a01b0383166000908152600b6020526040902054611f3d5760405162461bcd60e51b815260206004820152600e60248201526d139bdd1a1a5b99c81d1bc819d95d60921b604482015260640161048b565b6000611f498484611984565b949350505050565b600081600003611f985760405162461bcd60e51b815260206004820152601260248201527164697675753a204449565f42595f5a45524f60701b604482015260640161048b565b60006001600160c01b038411611fc35782604085901b81611fbb57611fbb6124a1565b049050612111565b60c084811c6401000000008110611fdc576020918201911c5b620100008110611fee576010918201911c5b6101008110611fff576008918201911c5b6010811061200f576004918201911c5b6004811061201f576002918201911c5b6002811061202e576001820191505b60bf820360018603901c6001018260ff0387901b8161204f5761204f6124a1565b0492506001600160801b0383111561209d5760405162461bcd60e51b815260206004820152601160248201527064697675753a204f564552464c4f57203160781b604482015260640161048b565b608085901c83026001600160801b038616840260c088901c604089901b828110156120c9576001820391505b608084901b929003828110156120e0576001820391505b829003608084901c82146120f5576001612106565b888181612104576121046124a1565b045b870196505050505050505b6001600160801b038111156112655760405162461bcd60e51b81526020600482015260116024820152703234bb3aba9d1027ab22a9232627ab901960791b604482015260640161048b565b60008082600f0b136121a05760405162461bcd60e51b815260206004820152600d60248201526c3637b3af991d102227a6a0a4a760991b604482015260640161048b565b6000600f83900b6801000000000000000081126121bf576040918201911d5b64010000000081126121d3576020918201911d5b6201000081126121e5576010918201911d5b61010081126121f6576008918201911d5b60108112612206576004918201911d5b60048112612216576002918201911d5b60028112612225576001820191505b603f19820160401b600f85900b607f8490031b6780000000000000005b60008113156122685790800260ff81901c8281029390930192607f011c9060011d612242565b509095945050505050565b6060611f49848460008585600080866001600160a01b0316858760405161229a91906125ec565b60006040518083038185875af1925050503d80600081146122d7576040519150601f19603f3d011682016040523d82523d6000602084013e6122dc565b606091505b50915091506118eb8783838760608315612357578251600003612350576001600160a01b0385163b6123505760405162461bcd60e51b815260206004820152601d60248201527f416464726573733a2063616c6c20746f206e6f6e2d636f6e7472616374000000604482015260640161048b565b5081611f49565b611f49838381511561236c5781518083602001fd5b8060405162461bcd60e51b815260040161048b9190612608565b80356001600160a01b038116811461127457600080fd5b80151581146113f057600080fd5b600080604083850312156123be57600080fd5b6123c783612386565b915060208301356123d78161239d565b809150509250929050565b6000602082840312156123f457600080fd5b5035919050565b60008060006060848603121561241057600080fd5b833592506020840135915060408401356124298161239d565b809150509250925092565b60006020828403121561244657600080fd5b61126582612386565b6000806040838503121561246257600080fd5b8235915060208301356123d78161239d565b634e487b7160e01b600052601160045260246000fd5b808202811582820484141761042057610420612474565b634e487b7160e01b600052601260045260246000fd5b6000826124d457634e487b7160e01b600052601260045260246000fd5b500490565b6020808252600f908201526e496e76616c6964206164647265737360881b604082015260600190565b8082018082111561042057610420612474565b60006020828403121561252757600080fd5b5051919050565b8181038181111561042057610420612474565b805169ffffffffffffffffffff8116811461127457600080fd5b600080600080600060a0868803121561257357600080fd5b61257c86612541565b945060208601519350604086015192506060860151915061259f60808701612541565b90509295509295909350565b6000602082840312156125bd57600080fd5b81516112658161239d565b60005b838110156125e35781810151838201526020016125cb565b50506000910152565b600082516125fe8184602087016125c8565b9190910192915050565b60208152600082518060208401526126278160408501602087016125c8565b601f01601f1916919091016040019291505056fea2646970667358221220bc7afe92ae776f75d6bcab41b9d1b6dd62f88491acb67e43166018fa56a2ca0c64736f6c63430008120033",
  "immutableReferences": {},
  "source": "// SPDX-License-Identifier: CC-BY-4.0\npragma solidity ^0.8.0;\n\n//import \"@openzeppelin/contracts/token/ERC20/IERC20.sol\";\n//import \"@openzeppelin/contracts/token/ERC20/utils/SafeERC20.sol\";\n//import \"@openzeppelin/contracts/access/Ownable.sol\";\n//import \"@chainlink/contracts/src/v0.8/interfaces/AggregatorV3Interface.sol\";\nimport \"../node_modules/@openzeppelin/contracts/token/ERC20/IERC20.sol\";\nimport \"../node_modules/@openzeppelin/contracts/token/ERC20/utils/SafeERC20.sol\";\nimport \"../node_modules/@openzeppelin/contracts/access/Ownable.sol\";\nimport \"../node_modules/@chainlink/contracts/src/v0.8/interfaces/AggregatorV3Interface.sol\";\nimport \"./ABDKMath64x64.sol\";\n\n/**\n * @notice Interface for the W2R Vault contract\n */\n\ninterface I6VaultW2R {\n    function distributeW2R(address receiver, uint amount) external;\n\n    function updateIncomes(\n        uint _maticIncome,\n        uint _w2rIncome,\n        uint _date\n    ) external;\n}\n\n/**\n * @title W2R Staking\n * @author Crypt0zaurus https://www.linkedin.com/in/maxence-a-a82081260\n * @notice This contract is a staking platform for W2R tokens, allowing users to stake their tokens, claim rewards, and unstake.\n * It includes an early unstake penalty and a reward multiplier. The contract also interacts with a W2R vault for reward distribution.\n * @dev This contract imports OpenZeppelin libraries, the Chainlink Aggregator V3 Interface, and the ABDKMath64x64 library.\n */\n\ncontract W2RStaking is Ownable {\n    using SafeERC20 for IERC20;\n    using ABDKMath64x64 for int128;\n\n    IERC20 public w2rToken;\n    AggregatorV3Interface internal priceFeed;\n\n    struct StakerInfo {\n        uint stakedAmount;\n        uint lastUpdated;\n        uint reward;\n        uint stakedUSDValue;\n        uint lockEndTime;\n        uint LockInMonths;\n        uint resetStakeDate;\n    }\n\n    uint public earlyUnstakePenalty;\n    uint public totalStaking;\n    uint public rewardMultiplier;\n    uint public rewardsFeesPercentage;\n    uint public totalPenalties;\n    uint public totalW2Rfees;\n    uint public maxLockPeriod;\n    uint precisionFactor = 1e6;\n\n    mapping(address => StakerInfo) public stakers;\n\n    // import VaultW2R interface\n    I6VaultW2R vaultW2R;\n    address public vaultW2RAddress;\n\n    event Staked(address indexed user, uint amount);\n    event Unstaked(address indexed user, uint amount);\n    event RewardClaimed(address indexed user, uint amount);\n    event RewardMultiplierUpdated(uint newRewardMultiplier);\n    event LockPeriodUpdated(\n        uint newLockEndTime,\n        uint months,\n        address indexed staker\n    );\n    event EarlyUnstakePenaltyUpdated(uint newEarlyUnstakePenalty);\n    event RewardsFeesPercentageUpdated(uint newRewardsFeesPercentage);\n    event W2RfeesWithdrawn(address indexed receiver, uint amount);\n\n    /**\n     * @notice Initializes the W2RStaking contract with required dependencies.\n     * @dev Constructor to set initial contract parameters.\n     * @param _w2rToken The address of the W2R token contract.\n     * @param _priceFeed The address of the Chainlink price feed contract.\n     * @param _vaultW2R The address of the W2R vault contract.\n     */\n\n    constructor(\n        IERC20 _w2rToken,\n        AggregatorV3Interface _priceFeed,\n        address _vaultW2R\n    ) {\n        require(\n            address(_w2rToken) != address(0) &&\n                address(_priceFeed) != address(0) &&\n                address(_vaultW2R) != address(0),\n            \"Invalid address\"\n        );\n        w2rToken = _w2rToken;\n        priceFeed = _priceFeed;\n        vaultW2R = I6VaultW2R(_vaultW2R);\n        vaultW2RAddress = _vaultW2R;\n        earlyUnstakePenalty = 10;\n        rewardMultiplier = 60 * 1e9;\n        rewardsFeesPercentage = 1;\n        maxLockPeriod = 24;\n    }\n\n    /**\n     * @dev Modifier to check if the sender has enough allowance for the specified amount.\n     * @param amount The amount to check the allowance for.\n     */\n\n    modifier checkAllowance(uint amount) {\n        require(\n            w2rToken.allowance(msg.sender, address(this)) >= amount,\n            \"Need approval for this amount\"\n        );\n        _;\n    }\n\n    /**\n     * @notice Set the early unstake penalty percentage.\n     * @dev Updates the earlyUnstakePenalty variable.\n     * @param _newEarlyUnstakePenalty The new early unstake penalty percentage.\n     */\n\n    function setEarlyUnstakePenalty(\n        uint _newEarlyUnstakePenalty\n    ) external onlyOwner {\n        require(\n            _newEarlyUnstakePenalty <= 100,\n            \"Early unstake penalty cannot be greater than 100%\"\n        );\n        require(\n            _newEarlyUnstakePenalty >= 0,\n            \"Early unstake penalty cannot be less than 0%\"\n        );\n        earlyUnstakePenalty = _newEarlyUnstakePenalty;\n        emit EarlyUnstakePenaltyUpdated(_newEarlyUnstakePenalty);\n    }\n\n    /**\n     * @notice Set the reward multiplier.\n     * @dev Updates the rewardMultiplier variable.\n     * @param _newRewardMultiplier The new reward multiplier.\n     */\n\n    function setRewardMultiplier(uint _newRewardMultiplier) external onlyOwner {\n        require(\n            _newRewardMultiplier > 0,\n            \"Reward multiplier must be greater than 0\"\n        );\n        require(\n            _newRewardMultiplier <= 100,\n            \"Reward multiplier must be less than 100\"\n        );\n        rewardMultiplier = _newRewardMultiplier * 1e17;\n        emit RewardMultiplierUpdated(_newRewardMultiplier);\n    }\n\n    /**\n     * @notice Set the reward fees percentage.\n     * @dev Updates the rewardsFeesPercentage variable.\n     * @param _newRewardFeesPercentage The new reward fees percentage.\n     */\n\n    function setRewardFeesPercentage(\n        uint _newRewardFeesPercentage\n    ) external onlyOwner {\n        require(\n            _newRewardFeesPercentage <= 100,\n            \"Reward fees percentage cannot be greater than 100%\"\n        );\n        require(\n            _newRewardFeesPercentage >= 0,\n            \"Reward fees percentage cannot be less than 0%\"\n        );\n        rewardsFeesPercentage = _newRewardFeesPercentage;\n        emit RewardsFeesPercentageUpdated(rewardsFeesPercentage);\n    }\n\n    /**\n     * @notice Set the max lock period in Months.\n     * @dev Updates the maxLockPeriod variable.\n     * @param _newMaxLockPeriod The new max lock period.\n     */\n\n    function setMaxLockPeriodInMonths(\n        uint _newMaxLockPeriod\n    ) external onlyOwner {\n        require(\n            _newMaxLockPeriod > 0,\n            \"Max lock period must be greater than 0\"\n        );\n        maxLockPeriod = _newMaxLockPeriod;\n    }\n\n    /**\n     * @notice Stake W2R tokens.\n     * @dev Allows users to stake their W2R tokens with a specified lock period.\n     * @param _amount The amount of W2R tokens to stake.\n     * @param lockPeriodInMonths The lock period in months.\n     * @param _extend Indicates if the lock period should be extended.\n     */\n\n    function stake(\n        uint _amount,\n        uint lockPeriodInMonths,\n        bool _extend\n    ) external checkAllowance(_amount) {\n        require(msg.sender != address(0), \"Invalid address\");\n        require(_amount >= 1e8, \"Amount too small\");\n        require(\n            w2rToken.balanceOf(msg.sender) >= _amount,\n            \"Not enough tokens to stake\"\n        );\n        StakerInfo storage staker = stakers[msg.sender];\n        if (staker.stakedAmount == 0 || (staker.stakedAmount > 0 && _extend)) {\n            require(\n                lockPeriodInMonths > 0 && lockPeriodInMonths <= maxLockPeriod,\n                \"Lock period must be between 1 month and maxLockPeriod\"\n            );\n        } else if (staker.stakedAmount > 0 && !_extend) {\n            require(lockPeriodInMonths == 0, \"Lock period must be 0\");\n        }\n        _updateReward(msg.sender, false);\n        if (_extend) {\n            require(\n                staker.LockInMonths + lockPeriodInMonths <= maxLockPeriod,\n                \"Cannot extend lock period by more than maxLockPeriod\"\n            );\n            _extendLockPeriod(staker, lockPeriodInMonths, msg.sender);\n        } else {\n            _updateLockPeriod(staker, lockPeriodInMonths, msg.sender);\n        }\n        staker.stakedAmount += _amount;\n        totalStaking += _amount;\n        uint usdAmount = getUSDValue(_amount);\n        staker.stakedUSDValue += usdAmount;\n        w2rToken.safeTransferFrom(msg.sender, address(this), _amount);\n        emit Staked(msg.sender, _amount);\n    }\n\n    /**\n     * @dev Extends the lock period for the specified user.\n     * @param staker The user's struct.\n     * @param lockPeriodInMonths The number of months to extend the lock period.\n     * @param stakerAddress The user's address.\n     */\n\n    function _extendLockPeriod(\n        StakerInfo storage staker,\n        uint lockPeriodInMonths,\n        address stakerAddress\n    ) private {\n        require(staker.stakedAmount > 0, \"Nothing staked\");\n        require(staker.lockEndTime > block.timestamp, \"Lock period ended\");\n        staker.lockEndTime += lockPeriodInMonths * 30 days;\n        staker.LockInMonths += lockPeriodInMonths;\n        emit LockPeriodUpdated(\n            staker.lockEndTime,\n            lockPeriodInMonths,\n            stakerAddress\n        );\n    }\n\n    /**\n     * @dev Updates the lock period for the specified user.\n     * @param staker The user's struct.\n     * @param lockPeriodInMonths The number of months to extend the lock period.\n     * @param stakerAddress The user's address.\n     */\n\n    function _updateLockPeriod(\n        StakerInfo storage staker,\n        uint lockPeriodInMonths,\n        address stakerAddress\n    ) private {\n        if (staker.stakedAmount == 0 || staker.lockEndTime < block.timestamp) {\n            // initial staking or re-staking after lock period ended\n            staker.lockEndTime = block.timestamp + lockPeriodInMonths * 30 days;\n            staker.LockInMonths = lockPeriodInMonths;\n            staker.resetStakeDate = block.timestamp;\n            emit LockPeriodUpdated(\n                staker.lockEndTime,\n                lockPeriodInMonths,\n                stakerAddress\n            );\n        }\n    }\n\n    /**\n     * @notice Unstake W2R tokens.\n     * @dev Allows users to unstake their W2R tokens with possible penalties.\n     * @param _amount The amount of W2R tokens to unstake.\n     * @param proportional Indicates if the reward should be proportional to the unstaking amount.\n     */\n\n    function unstake(uint _amount, bool proportional) external {\n        require(msg.sender != address(0), \"Invalid address\");\n        require(_amount >= 1e8, \"Amount too small\");\n        StakerInfo storage staker = stakers[msg.sender];\n        require(\n            staker.resetStakeDate + 15 days < block.timestamp,\n            \"Cannot unstake before 15 days\"\n        );\n        uint usdAmount = getUSDValue(_amount);\n        require(staker.stakedAmount >= _amount, \"Not enough tokens staked\");\n        _updateReward(msg.sender, block.timestamp < staker.lockEndTime);\n        uint reward;\n        if (proportional) {\n            reward = (staker.reward * _amount) / staker.stakedAmount;\n        } else {\n            reward = staker.reward;\n        }\n        uint unstakeAmount = _amount;\n        if (block.timestamp < staker.lockEndTime) {\n            uint penaltyAmount = (_amount * earlyUnstakePenalty) / 100;\n            unstakeAmount -= penaltyAmount;\n            totalPenalties += penaltyAmount;\n        }\n        if (_amount == staker.stakedAmount) {\n            staker.lockEndTime = 0;\n            staker.LockInMonths = 0;\n        }\n        staker.stakedAmount -= _amount;\n        totalStaking -= _amount;\n        staker.reward -= reward;\n        uint fees = (reward * rewardsFeesPercentage) / 100;\n        reward -= fees;\n        totalW2Rfees += fees;\n        // in case of great price fluctuations, the result value can become negative\n        if (staker.stakedUSDValue <= usdAmount) {\n            staker.stakedUSDValue = 0;\n        } else {\n            staker.stakedUSDValue -= usdAmount;\n        }\n        w2rToken.safeTransfer(msg.sender, unstakeAmount);\n        vaultW2R.distributeW2R(msg.sender, reward);\n        emit Unstaked(msg.sender, _amount);\n        emit RewardClaimed(msg.sender, reward);\n    }\n\n    /**\n     * @notice Claim rewards.\n     * @dev Allows users to claim their rewards.\n     */\n\n    function claimReward() external {\n        require(msg.sender != address(0), \"Invalid address\");\n        require(stakers[msg.sender].stakedAmount > 0, \"Nothing to claim\");\n        StakerInfo storage staker = stakers[msg.sender];\n        _updateReward(msg.sender, false);\n        uint reward = staker.reward;\n        uint fees = (reward * rewardsFeesPercentage) / 100;\n        reward -= fees;\n        totalW2Rfees += fees;\n        staker.reward = 0;\n        vaultW2R.distributeW2R(msg.sender, reward);\n        emit RewardClaimed(msg.sender, reward);\n    }\n\n    /**\n     * @dev Calculates the reward for the specified user based on the staked amount and time.\n     * @param _staker The user's address.\n     * @param earlyUnstake Indicates if the user unstaked before the lock period ended.\n     * @notice The reward is calculated as follows:\n     * 1. Calculate the staking duration.\n     * 2. Calculate the staked amount in USD at the time of staking.\n     * 3. Calculate the staked amount in USD at the current time.\n     * 4. Calculate the adjustment factor to consider variations of Matic price.\n     * 5. Calculate the total staked value.\n     * 6. Calculate the adjusted reward multiplier.\n     * 7. Calculate the reward.\n     * @notice Helper for _getReward() and viewReward() functions\n     * @return The calculated reward for the user.\n     */\n\n    function _calculateReward(\n        address _staker,\n        bool earlyUnstake\n    ) private view returns (uint) {\n        StakerInfo memory staker = stakers[_staker];\n        uint stakingDuration = block.timestamp - staker.lastUpdated;\n        require(stakingDuration > 0, \"Staking duration is 0\");\n        require(staker.stakedAmount > 0, \"Nothing staked\");\n        uint stakedUSDValueAtTimeOfStaking = staker.stakedUSDValue;\n        uint stakedUSDValue = getUSDValue(staker.stakedAmount);\n        uint totalStakedValue = getUSDValue(totalStaking);\n        require(\n            stakedUSDValue > 0 && totalStakedValue > 0,\n            \"Invalid priceFeed values\"\n        );\n        // adjustment factor to consider variations of Matic price\n        uint adjustmentFactor = (stakedUSDValue * 1e18) /\n            stakedUSDValueAtTimeOfStaking;\n        uint multiplier = calculateMultiplier(_staker, earlyUnstake);\n        // Convert in 64x64 fixed point\n        int128 scaleFactor64x64 = ABDKMath64x64.divu(1, 100000);\n        int128 rewardMultiplier64x64 = ABDKMath64x64.divu(rewardMultiplier, 1);\n        int128 totalStakedValue64x64 = ABDKMath64x64.divu(totalStakedValue, 1);\n        int128 adjustedRewardMultiplier64x64 = ABDKMath64x64.mul(\n            rewardMultiplier64x64,\n            ABDKMath64x64.ln(\n                ABDKMath64x64.mul(scaleFactor64x64, totalStakedValue64x64)\n            )\n        );\n        uint reward = (stakedUSDValueAtTimeOfStaking *\n            stakingDuration *\n            adjustedRewardMultiplier64x64.toUInt() *\n            adjustmentFactor *\n            10000) / (totalStakedValue * 1e18);\n        return (reward * multiplier) / precisionFactor;\n    }\n\n    /**\n     * @notice Calculate the reward multiplier for a given staker.\n     * @dev This function calculates the multiplier based on the staker's lock-in period.\n     * The multiplier starts from 1, and depends on the lock-in period (1 month to maxLockPeriod).\n     * A precision factor is used to handle decimal values.\n     * @param _staker The address of the staker.\n     * @param earlyUnstake A boolean flag indicating whether the unstaking is done early or not.\n     * @return multiplier The calculated multiplier as a uint.\n     */\n\n    function calculateMultiplier(\n        address _staker,\n        bool earlyUnstake\n    ) public view returns (uint) {\n        StakerInfo memory staker = stakers[_staker];\n        if (staker.stakedAmount == 0) return 0;\n        if (earlyUnstake) return precisionFactor;\n        uint multiplier = staker.LockInMonths * 2 <= 10\n            ? precisionFactor\n            : (staker.LockInMonths * precisionFactor * 2) / 10;\n        return multiplier;\n    }\n\n    /**\n     * @notice Calculate the annual percentage yield (APY) for staking rewards\n     * @dev This function uses a fake staking amount of 100 W2R to calculate the APY based on the current total staking\n     * @return apy The calculated annual percentage yield (APY) as a uint\n     */\n\n    function viewRewardPercentage() external view returns (uint) {\n        if (totalStaking == 0) {\n            return 0;\n        }\n        uint totalStakedValue = getUSDValue(totalStaking);\n        uint fakeStaking = getUSDValue(100 * 1e18);\n        // Convert in 64x64 fixed point\n        int128 scaleFactor64x64 = ABDKMath64x64.divu(1, 100000);\n        int128 rewardMultiplier64x64 = ABDKMath64x64.divu(rewardMultiplier, 1);\n        int128 totalStakedValue64x64 = ABDKMath64x64.divu(totalStakedValue, 1);\n        int128 adjustedRewardMultiplier64x64 = ABDKMath64x64.mul(\n            rewardMultiplier64x64,\n            ABDKMath64x64.ln(\n                ABDKMath64x64.mul(scaleFactor64x64, totalStakedValue64x64)\n            )\n        );\n        uint apy = (fakeStaking *\n            3600 *\n            24 *\n            365 *\n            adjustedRewardMultiplier64x64.toUInt() *\n            10000) / (totalStakedValue * 1e18);\n        return apy;\n    }\n\n    /**\n     * @dev Returns the reward for the specified user.\n     * @notice return the user's reward for the _updateReward function.\n     * @param _staker The user's address.\n     * @param earlyUnstake A boolean flag indicating whether the unstaking is done early or not.\n     * @return The user's reward.\n     */\n\n    function _getReward(\n        address _staker,\n        bool earlyUnstake\n    ) private view returns (uint) {\n        require(_staker != address(0), \"Invalid address\");\n        require(stakers[_staker].stakedAmount > 0, \"Nothing to get\");\n        uint reward = _calculateReward(_staker, earlyUnstake);\n        return reward;\n    }\n\n    /**\n     * @notice View the user's reward.\n     * @dev Allows users to view their reward without claiming.\n     * @param _staker The user's address.\n     * @return The user's reward.\n     */\n\n    function viewReward(address _staker) external view returns (uint) {\n        require(_staker != address(0), \"Invalid address\");\n        if (\n            stakers[_staker].stakedAmount > 0 &&\n            block.timestamp - stakers[_staker].lastUpdated > 0\n        ) {\n            uint reward = _calculateReward(_staker, false);\n            return reward + stakers[_staker].reward;\n        } else {\n            return 0;\n        }\n    }\n\n    /**\n     * @notice Get the USD value of the specified amount of W2R tokens.\n     * @dev Converts the W2R tokens to USD value using the Chainlink oracle price feed.\n     * @param _amount The amount of W2R tokens.\n     * @return The USD value of the given W2R tokens.\n     */\n\n    function getUSDValue(uint _amount) private view returns (uint) {\n        require(_amount > 0, \"Amount must be greater than 0\");\n        require(address(priceFeed) != address(0), \"Invalid price feed address\");\n        (, int256 maticPrice, , , ) = priceFeed.latestRoundData();\n        require(maticPrice > 0, \"Invalid price data from Chainlink\");\n        uint maticPriceInUSD = uint(maticPrice);\n        uint w2rPriceInMATIC = (1 * 1e18) / 10; // 1 W2R = 0.1 MATIC\n        uint w2rPriceInUSD = (w2rPriceInMATIC * maticPriceInUSD) / 1e18;\n        uint usdValue = (_amount * w2rPriceInUSD) / 1e18;\n        // value with 8 decimals\n        return usdValue;\n    }\n\n    /**\n     * @dev Updates the reward for the specified user.\n     * @notice Helper function for the stake, unstake and claimReward functions.\n     * @param _staker The user's address.\n     * @param earlyUnstake A boolean flag indicating whether the unstaking is done early or not.\n     */\n\n    function _updateReward(address _staker, bool earlyUnstake) private {\n        require(_staker != address(0), \"Invalid address\");\n        StakerInfo storage staker = stakers[_staker];\n        require(\n            block.timestamp - stakers[_staker].lastUpdated > 0,\n            \"Staking duration is 0\"\n        );\n        if (stakers[_staker].stakedAmount > 0) {\n            uint reward = _getReward(_staker, earlyUnstake);\n            staker.reward += reward;\n        }\n        staker.lastUpdated = block.timestamp;\n    }\n\n    /**\n     * @notice Withdraw the fees.\n     * @dev Allows the owner to withdraw the totalW2Rfees and totalPenalties.\n     */\n\n    function withdrawFees() external onlyOwner {\n        require(msg.sender != address(0), \"Invalid address\");\n        require(totalW2Rfees + totalPenalties > 0, \"Nothing to withdraw\");\n        uint w2rToSend = totalW2Rfees + totalPenalties;\n        totalW2Rfees = 0;\n        totalPenalties = 0;\n        vaultW2R.updateIncomes(0, w2rToSend, block.timestamp);\n        w2rToken.safeTransfer(vaultW2RAddress, w2rToSend);\n        emit W2RfeesWithdrawn(vaultW2RAddress, w2rToSend);\n    }\n}\n",
  "sourcePath": "/Users/harbinger/Library/CloudStorage/Dropbox/Dossier familial/Formation Blockchain/Alyra/Projet Certification/Projet Alyra 2Wheels2Rent/truffle/contracts/W2RStaking.sol",
  "compiler": {
    "name": "solc",
    "version": "0.8.18+commit.87f61d96.Emscripten.clang"
  },
  "schemaVersion": "3.4.16",
  "updatedAt": "2024-05-27T21:47:58.652Z",
  "networkType": "ethereum",
  "devdoc": {
    "author": "Crypt0zaurus https://www.linkedin.com/in/maxence-a-a82081260",
    "details": "This contract imports OpenZeppelin libraries, the Chainlink Aggregator V3 Interface, and the ABDKMath64x64 library.",
    "kind": "dev",
    "methods": {
      "calculateMultiplier(address,bool)": {
        "details": "This function calculates the multiplier based on the staker's lock-in period. The multiplier starts from 1, and depends on the lock-in period (1 month to maxLockPeriod). A precision factor is used to handle decimal values.",
        "params": {
          "_staker": "The address of the staker.",
          "earlyUnstake": "A boolean flag indicating whether the unstaking is done early or not."
        },
        "returns": {
          "_0": "multiplier The calculated multiplier as a uint."
        }
      },
      "claimReward()": {
        "details": "Allows users to claim their rewards."
      },
      "constructor": {
        "details": "Constructor to set initial contract parameters.",
        "params": {
          "_priceFeed": "The address of the Chainlink price feed contract.",
          "_vaultW2R": "The address of the W2R vault contract.",
          "_w2rToken": "The address of the W2R token contract."
        }
      },
      "owner()": {
        "details": "Returns the address of the current owner."
      },
      "renounceOwnership()": {
        "details": "Leaves the contract without owner. It will not be possible to call `onlyOwner` functions anymore. Can only be called by the current owner. NOTE: Renouncing ownership will leave the contract without an owner, thereby removing any functionality that is only available to the owner."
      },
      "setEarlyUnstakePenalty(uint256)": {
        "details": "Updates the earlyUnstakePenalty variable.",
        "params": {
          "_newEarlyUnstakePenalty": "The new early unstake penalty percentage."
        }
      },
      "setMaxLockPeriodInMonths(uint256)": {
        "details": "Updates the maxLockPeriod variable.",
        "params": {
          "_newMaxLockPeriod": "The new max lock period."
        }
      },
      "setRewardFeesPercentage(uint256)": {
        "details": "Updates the rewardsFeesPercentage variable.",
        "params": {
          "_newRewardFeesPercentage": "The new reward fees percentage."
        }
      },
      "setRewardMultiplier(uint256)": {
        "details": "Updates the rewardMultiplier variable.",
        "params": {
          "_newRewardMultiplier": "The new reward multiplier."
        }
      },
      "stake(uint256,uint256,bool)": {
        "details": "Allows users to stake their W2R tokens with a specified lock period.",
        "params": {
          "_amount": "The amount of W2R tokens to stake.",
          "_extend": "Indicates if the lock period should be extended.",
          "lockPeriodInMonths": "The lock period in months."
        }
      },
      "transferOwnership(address)": {
        "details": "Transfers ownership of the contract to a new account (`newOwner`). Can only be called by the current owner."
      },
      "unstake(uint256,bool)": {
        "details": "Allows users to unstake their W2R tokens with possible penalties.",
        "params": {
          "_amount": "The amount of W2R tokens to unstake.",
          "proportional": "Indicates if the reward should be proportional to the unstaking amount."
        }
      },
      "viewReward(address)": {
        "details": "Allows users to view their reward without claiming.",
        "params": {
          "_staker": "The user's address."
        },
        "returns": {
          "_0": "The user's reward."
        }
      },
      "viewRewardPercentage()": {
        "details": "This function uses a fake staking amount of 100 W2R to calculate the APY based on the current total staking",
        "returns": {
          "_0": "apy The calculated annual percentage yield (APY) as a uint"
        }
      },
      "withdrawFees()": {
        "details": "Allows the owner to withdraw the totalW2Rfees and totalPenalties."
      }
    },
    "title": "W2R Staking",
    "version": 1
  },
  "userdoc": {
    "kind": "user",
    "methods": {
      "calculateMultiplier(address,bool)": {
        "notice": "Calculate the reward multiplier for a given staker."
      },
      "claimReward()": {
        "notice": "Claim rewards."
      },
      "constructor": {
        "notice": "Initializes the W2RStaking contract with required dependencies."
      },
      "setEarlyUnstakePenalty(uint256)": {
        "notice": "Set the early unstake penalty percentage."
      },
      "setMaxLockPeriodInMonths(uint256)": {
        "notice": "Set the max lock period in Months."
      },
      "setRewardFeesPercentage(uint256)": {
        "notice": "Set the reward fees percentage."
      },
      "setRewardMultiplier(uint256)": {
        "notice": "Set the reward multiplier."
      },
      "stake(uint256,uint256,bool)": {
        "notice": "Stake W2R tokens."
      },
      "unstake(uint256,bool)": {
        "notice": "Unstake W2R tokens."
      },
      "viewReward(address)": {
        "notice": "View the user's reward."
      },
      "viewRewardPercentage()": {
        "notice": "Calculate the annual percentage yield (APY) for staking rewards"
      },
      "withdrawFees()": {
        "notice": "Withdraw the fees."
      }
    },
    "notice": "This contract is a staking platform for W2R tokens, allowing users to stake their tokens, claim rewards, and unstake. It includes an early unstake penalty and a reward multiplier. The contract also interacts with a W2R vault for reward distribution.",
    "version": 1
  }
}